{
	"data": {
		"bytecode": {
			"linkReferences": {},
			"object": "608060405234801561001057600080fd5b50610d11806100206000396000f3fe608060405234801561001057600080fd5b50600436106101585760003560e01c8063a221ee49116100c3578063bc694ea21161007c578063bc694ea214610323578063c36596a61461032b578063c6580d1214610333578063e4a28a521461015d578063ec0930211461033b578063f8d6aed41461034357610158565b8063a221ee4914610293578063b0e0d136146102c8578063b7b800a4146102d0578063ba019dab146102d8578063ba9530a6146102e0578063bc063e1a1461031b57610158565b80638656b653116101155780638656b653146101fd578063867378c51461023857806389298012146102405780639381cd2b1461027b578063992e2a92146102835780639a86139b1461028b57610158565b806309a3bbe41461015d578063189d00ca14610177578063218b5382146101775780635c1bbaf71461017f57806376c7a3c7146101ba57806382f652ad146101c2575b600080fd5b61016561037e565b60408051918252519081900360200190f35b610165610387565b610165600480360360c081101561019557600080fd5b5080359060208101359060408101359060608101359060808101359060a00135610395565b610165610441565b610165600480360360c08110156101d857600080fd5b5080359060208101359060408101359060608101359060808101359060a0013561044c565b610165600480360360c081101561021357600080fd5b5080359060208101359060408101359060608101359060808101359060a001356104ff565b610165610598565b610165600480360360c081101561025657600080fd5b5080359060208101359060408101359060608101359060808101359060a001356105a5565b610165610645565b61016561064e565b610165610656565b610165600480360360a08110156102a957600080fd5b5080359060208101359060408101359060608101359060800135610663565b6101656106c0565b6101656106c5565b6101656106ca565b610165600480360360c08110156102f657600080fd5b5080359060208101359060408101359060608101359060808101359060a001356106cf565b610165610748565b610165610754565b61016561075c565b610165610764565b610165610769565b610165600480360360c081101561035957600080fd5b5080359060208101359060408101359060608101359060808101359060a00135610775565b640ba43b740081565b620186a0633b9aca005b0481565b6000806103a287866107f0565b905060006103b087866108fd565b905060006103be82896107f0565b905060006103d0633b9aca00856107f0565b905060006103de8383610951565b905060006103ec828e610a59565b905060006103fa828f610b13565b9050600061041561040f633b9aca008a610b13565b8b610a59565b905061042e82610429633b9aca0084610b13565b6107f0565b9f9e505050505050505050505050505050565b633b9aca0080610391565b60008061045987866107f0565b9050600061046b633b9aca0083610b13565b905060006104798286610a59565b9050600061048f87610429633b9aca0085610b13565b9050600061049d8c83610b13565b905060006104ab828e6107f0565b905060006104b98288610951565b905060006104c7828e610a59565b905060006104d58e83610b13565b90506104ea81610429633b9aca006000610b13565b99505050505050505050509695505050505050565b60008061050c87866107f0565b90506000610527610521633b9aca0084610b13565b85610a59565b905060006105428661053d633b9aca0085610b13565b610a59565b905060006105508b836108fd565b9050600061055e828d6107f0565b9050600061056c8287610951565b9050600061057a828d610a59565b9050610586818d610b13565b9e9d5050505050505050505050505050565b612710633b9aca00610391565b6000806105b287866107f0565b905060006105c98561053d633b9aca006000610b13565b905060006105d78883610b13565b905060006105e5828a6107f0565b90506000610600826105fb633b9aca00886107f0565b610951565b9050600061060e828e610a59565b9050600061061c8e83610b13565b9050600061063161040f633b9aca008a610b13565b905061042e8261053d633b9aca0084610b13565b64174876e80081565b6313de435681565b6542524f4e5a4560d01b90565b60008061067087876107f0565b9050600061067e86866107f0565b9050600061068c83836107f0565b905060006106a6633b9aca00610429633b9aca0089610b13565b90506106b28282610a59565b9a9950505050505050505050565b600881565b600281565b600181565b6000806106dc87866107f0565b905060006106ee633b9aca0085610b13565b90506106fa8582610a59565b9050600061070c8a6104298c856108fd565b9050600061071a8285610951565b9050600061072c633b9aca0083610b13565b90506107388a82610a59565b9c9b505050505050505050505050565b600a633b9aca00610391565b63773593ff81565b633b9aca0081565b600081565b6002633b9aca00610391565b60008061078285886107f0565b905060006107908786610b13565b9050600061079e88836107f0565b905060006107ac8285610951565b90506107bc81633b9aca00610b13565b90506107cc633b9aca0087610b13565b94506107e16107db8c83610a59565b866107f0565b9b9a5050505050505050505050565b600081610833576040805162461bcd60e51b815260206004820152600c60248201526b4552525f4449565f5a45524f60a01b604482015290519081900360640190fd5b633b9aca0083028315806108535750633b9aca0084828161085057fe5b04145b610897576040805162461bcd60e51b815260206004820152601060248201526f11549497d1125597d25395115493905360821b604482015290519081900360640190fd5b600283048101818110156108e5576040805162461bcd60e51b815260206004820152601060248201526f11549497d1125597d25395115493905360821b604482015290519081900360640190fd5b60008482816108f057fe5b0493505050505b92915050565b60008282018381101561094a576040805162461bcd60e51b815260206004820152601060248201526f4552525f4144445f4f564552464c4f5760801b604482015290519081900360640190fd5b9392505050565b600060018310156109a1576040805162461bcd60e51b81526020600482015260156024820152744552525f42504f575f424153455f544f4f5f4c4f5760581b604482015290519081900360640190fd5b63773593ff8311156109f3576040805162461bcd60e51b815260206004820152601660248201527508aa4a4be84a09eaebe8482a68abea89e9ebe90928e960531b604482015290519081900360640190fd5b60006109fe83610b75565b90506000610a0c8483610b13565b90506000610a2286610a1d85610b8c565b610b96565b905081610a335792506108f7915050565b6000610a428784612710610be9565b9050610a4e8282610a59565b979650505050505050565b6000828202831580610a73575082848281610a7057fe5b04145b610ab7576040805162461bcd60e51b815260206004820152601060248201526f4552525f4d554c5f4f564552464c4f5760801b604482015290519081900360640190fd5b631dcd6500810181811015610b06576040805162461bcd60e51b815260206004820152601060248201526f4552525f4d554c5f4f564552464c4f5760801b604482015290519081900360640190fd5b6000633b9aca00826108f0565b6000806000610b228585610cb7565b915091508015610b6d576040805162461bcd60e51b81526020600482015260116024820152704552525f5355425f554e444552464c4f5760781b604482015290519081900360640190fd5b509392505050565b6000633b9aca00610b8583610b8c565b0292915050565b633b9aca00900490565b60008060028306610bab57633b9aca00610bad565b835b90506002830492505b821561094a57610bc68485610a59565b93506002830615610bde57610bdb8185610a59565b90505b600283049250610bb6565b6000828180610bfc87633b9aca00610cb7565b9092509050633b9aca0080600060015b888410610ca8576000633b9aca0082029050600080610c388a610c3385633b9aca00610b13565b610cb7565b91509150610c4a8761053d848c610a59565b9650610c5687846107f0565b965086610c6557505050610ca8565b8715610c6f579315935b8015610c79579315935b8415610c9057610c898688610b13565b9550610c9d565b610c9a86886108fd565b95505b505050600101610c0c565b50909998505050505050505050565b600080828410610ccd5750508082036000610cd5565b505081810360015b925092905056fea265627a7a7231582039db6fc71071dc3bb34be05033b1d9ce6c66af38c6d836d4efa747db7821323a64736f6c634300050c0032",
			"opcodes": "PUSH1 0x80 PUSH1 0x40 MSTORE CALLVALUE DUP1 ISZERO PUSH2 0x10 JUMPI PUSH1 0x0 DUP1 REVERT JUMPDEST POP PUSH2 0xD11 DUP1 PUSH2 0x20 PUSH1 0x0 CODECOPY PUSH1 0x0 RETURN INVALID PUSH1 0x80 PUSH1 0x40 MSTORE CALLVALUE DUP1 ISZERO PUSH2 0x10 JUMPI PUSH1 0x0 DUP1 REVERT JUMPDEST POP PUSH1 0x4 CALLDATASIZE LT PUSH2 0x158 JUMPI PUSH1 0x0 CALLDATALOAD PUSH1 0xE0 SHR DUP1 PUSH4 0xA221EE49 GT PUSH2 0xC3 JUMPI DUP1 PUSH4 0xBC694EA2 GT PUSH2 0x7C JUMPI DUP1 PUSH4 0xBC694EA2 EQ PUSH2 0x323 JUMPI DUP1 PUSH4 0xC36596A6 EQ PUSH2 0x32B JUMPI DUP1 PUSH4 0xC6580D12 EQ PUSH2 0x333 JUMPI DUP1 PUSH4 0xE4A28A52 EQ PUSH2 0x15D JUMPI DUP1 PUSH4 0xEC093021 EQ PUSH2 0x33B JUMPI DUP1 PUSH4 0xF8D6AED4 EQ PUSH2 0x343 JUMPI PUSH2 0x158 JUMP JUMPDEST DUP1 PUSH4 0xA221EE49 EQ PUSH2 0x293 JUMPI DUP1 PUSH4 0xB0E0D136 EQ PUSH2 0x2C8 JUMPI DUP1 PUSH4 0xB7B800A4 EQ PUSH2 0x2D0 JUMPI DUP1 PUSH4 0xBA019DAB EQ PUSH2 0x2D8 JUMPI DUP1 PUSH4 0xBA9530A6 EQ PUSH2 0x2E0 JUMPI DUP1 PUSH4 0xBC063E1A EQ PUSH2 0x31B JUMPI PUSH2 0x158 JUMP JUMPDEST DUP1 PUSH4 0x8656B653 GT PUSH2 0x115 JUMPI DUP1 PUSH4 0x8656B653 EQ PUSH2 0x1FD JUMPI DUP1 PUSH4 0x867378C5 EQ PUSH2 0x238 JUMPI DUP1 PUSH4 0x89298012 EQ PUSH2 0x240 JUMPI DUP1 PUSH4 0x9381CD2B EQ PUSH2 0x27B JUMPI DUP1 PUSH4 0x992E2A92 EQ PUSH2 0x283 JUMPI DUP1 PUSH4 0x9A86139B EQ PUSH2 0x28B JUMPI PUSH2 0x158 JUMP JUMPDEST DUP1 PUSH4 0x9A3BBE4 EQ PUSH2 0x15D JUMPI DUP1 PUSH4 0x189D00CA EQ PUSH2 0x177 JUMPI DUP1 PUSH4 0x218B5382 EQ PUSH2 0x177 JUMPI DUP1 PUSH4 0x5C1BBAF7 EQ PUSH2 0x17F JUMPI DUP1 PUSH4 0x76C7A3C7 EQ PUSH2 0x1BA JUMPI DUP1 PUSH4 0x82F652AD EQ PUSH2 0x1C2 JUMPI JUMPDEST PUSH1 0x0 DUP1 REVERT JUMPDEST PUSH2 0x165 PUSH2 0x37E JUMP JUMPDEST PUSH1 0x40 DUP1 MLOAD SWAP2 DUP3 MSTORE MLOAD SWAP1 DUP2 SWAP1 SUB PUSH1 0x20 ADD SWAP1 RETURN JUMPDEST PUSH2 0x165 PUSH2 0x387 JUMP JUMPDEST PUSH2 0x165 PUSH1 0x4 DUP1 CALLDATASIZE SUB PUSH1 0xC0 DUP2 LT ISZERO PUSH2 0x195 JUMPI PUSH1 0x0 DUP1 REVERT JUMPDEST POP DUP1 CALLDATALOAD SWAP1 PUSH1 0x20 DUP2 ADD CALLDATALOAD SWAP1 PUSH1 0x40 DUP2 ADD CALLDATALOAD SWAP1 PUSH1 0x60 DUP2 ADD CALLDATALOAD SWAP1 PUSH1 0x80 DUP2 ADD CALLDATALOAD SWAP1 PUSH1 0xA0 ADD CALLDATALOAD PUSH2 0x395 JUMP JUMPDEST PUSH2 0x165 PUSH2 0x441 JUMP JUMPDEST PUSH2 0x165 PUSH1 0x4 DUP1 CALLDATASIZE SUB PUSH1 0xC0 DUP2 LT ISZERO PUSH2 0x1D8 JUMPI PUSH1 0x0 DUP1 REVERT JUMPDEST POP DUP1 CALLDATALOAD SWAP1 PUSH1 0x20 DUP2 ADD CALLDATALOAD SWAP1 PUSH1 0x40 DUP2 ADD CALLDATALOAD SWAP1 PUSH1 0x60 DUP2 ADD CALLDATALOAD SWAP1 PUSH1 0x80 DUP2 ADD CALLDATALOAD SWAP1 PUSH1 0xA0 ADD CALLDATALOAD PUSH2 0x44C JUMP JUMPDEST PUSH2 0x165 PUSH1 0x4 DUP1 CALLDATASIZE SUB PUSH1 0xC0 DUP2 LT ISZERO PUSH2 0x213 JUMPI PUSH1 0x0 DUP1 REVERT JUMPDEST POP DUP1 CALLDATALOAD SWAP1 PUSH1 0x20 DUP2 ADD CALLDATALOAD SWAP1 PUSH1 0x40 DUP2 ADD CALLDATALOAD SWAP1 PUSH1 0x60 DUP2 ADD CALLDATALOAD SWAP1 PUSH1 0x80 DUP2 ADD CALLDATALOAD SWAP1 PUSH1 0xA0 ADD CALLDATALOAD PUSH2 0x4FF JUMP JUMPDEST PUSH2 0x165 PUSH2 0x598 JUMP JUMPDEST PUSH2 0x165 PUSH1 0x4 DUP1 CALLDATASIZE SUB PUSH1 0xC0 DUP2 LT ISZERO PUSH2 0x256 JUMPI PUSH1 0x0 DUP1 REVERT JUMPDEST POP DUP1 CALLDATALOAD SWAP1 PUSH1 0x20 DUP2 ADD CALLDATALOAD SWAP1 PUSH1 0x40 DUP2 ADD CALLDATALOAD SWAP1 PUSH1 0x60 DUP2 ADD CALLDATALOAD SWAP1 PUSH1 0x80 DUP2 ADD CALLDATALOAD SWAP1 PUSH1 0xA0 ADD CALLDATALOAD PUSH2 0x5A5 JUMP JUMPDEST PUSH2 0x165 PUSH2 0x645 JUMP JUMPDEST PUSH2 0x165 PUSH2 0x64E JUMP JUMPDEST PUSH2 0x165 PUSH2 0x656 JUMP JUMPDEST PUSH2 0x165 PUSH1 0x4 DUP1 CALLDATASIZE SUB PUSH1 0xA0 DUP2 LT ISZERO PUSH2 0x2A9 JUMPI PUSH1 0x0 DUP1 REVERT JUMPDEST POP DUP1 CALLDATALOAD SWAP1 PUSH1 0x20 DUP2 ADD CALLDATALOAD SWAP1 PUSH1 0x40 DUP2 ADD CALLDATALOAD SWAP1 PUSH1 0x60 DUP2 ADD CALLDATALOAD SWAP1 PUSH1 0x80 ADD CALLDATALOAD PUSH2 0x663 JUMP JUMPDEST PUSH2 0x165 PUSH2 0x6C0 JUMP JUMPDEST PUSH2 0x165 PUSH2 0x6C5 JUMP JUMPDEST PUSH2 0x165 PUSH2 0x6CA JUMP JUMPDEST PUSH2 0x165 PUSH1 0x4 DUP1 CALLDATASIZE SUB PUSH1 0xC0 DUP2 LT ISZERO PUSH2 0x2F6 JUMPI PUSH1 0x0 DUP1 REVERT JUMPDEST POP DUP1 CALLDATALOAD SWAP1 PUSH1 0x20 DUP2 ADD CALLDATALOAD SWAP1 PUSH1 0x40 DUP2 ADD CALLDATALOAD SWAP1 PUSH1 0x60 DUP2 ADD CALLDATALOAD SWAP1 PUSH1 0x80 DUP2 ADD CALLDATALOAD SWAP1 PUSH1 0xA0 ADD CALLDATALOAD PUSH2 0x6CF JUMP JUMPDEST PUSH2 0x165 PUSH2 0x748 JUMP JUMPDEST PUSH2 0x165 PUSH2 0x754 JUMP JUMPDEST PUSH2 0x165 PUSH2 0x75C JUMP JUMPDEST PUSH2 0x165 PUSH2 0x764 JUMP JUMPDEST PUSH2 0x165 PUSH2 0x769 JUMP JUMPDEST PUSH2 0x165 PUSH1 0x4 DUP1 CALLDATASIZE SUB PUSH1 0xC0 DUP2 LT ISZERO PUSH2 0x359 JUMPI PUSH1 0x0 DUP1 REVERT JUMPDEST POP DUP1 CALLDATALOAD SWAP1 PUSH1 0x20 DUP2 ADD CALLDATALOAD SWAP1 PUSH1 0x40 DUP2 ADD CALLDATALOAD SWAP1 PUSH1 0x60 DUP2 ADD CALLDATALOAD SWAP1 PUSH1 0x80 DUP2 ADD CALLDATALOAD SWAP1 PUSH1 0xA0 ADD CALLDATALOAD PUSH2 0x775 JUMP JUMPDEST PUSH5 0xBA43B7400 DUP2 JUMP JUMPDEST PUSH3 0x186A0 PUSH4 0x3B9ACA00 JUMPDEST DIV DUP2 JUMP JUMPDEST PUSH1 0x0 DUP1 PUSH2 0x3A2 DUP8 DUP7 PUSH2 0x7F0 JUMP JUMPDEST SWAP1 POP PUSH1 0x0 PUSH2 0x3B0 DUP8 DUP7 PUSH2 0x8FD JUMP JUMPDEST SWAP1 POP PUSH1 0x0 PUSH2 0x3BE DUP3 DUP10 PUSH2 0x7F0 JUMP JUMPDEST SWAP1 POP PUSH1 0x0 PUSH2 0x3D0 PUSH4 0x3B9ACA00 DUP6 PUSH2 0x7F0 JUMP JUMPDEST SWAP1 POP PUSH1 0x0 PUSH2 0x3DE DUP4 DUP4 PUSH2 0x951 JUMP JUMPDEST SWAP1 POP PUSH1 0x0 PUSH2 0x3EC DUP3 DUP15 PUSH2 0xA59 JUMP JUMPDEST SWAP1 POP PUSH1 0x0 PUSH2 0x3FA DUP3 DUP16 PUSH2 0xB13 JUMP JUMPDEST SWAP1 POP PUSH1 0x0 PUSH2 0x415 PUSH2 0x40F PUSH4 0x3B9ACA00 DUP11 PUSH2 0xB13 JUMP JUMPDEST DUP12 PUSH2 0xA59 JUMP JUMPDEST SWAP1 POP PUSH2 0x42E DUP3 PUSH2 0x429 PUSH4 0x3B9ACA00 DUP5 PUSH2 0xB13 JUMP JUMPDEST PUSH2 0x7F0 JUMP JUMPDEST SWAP16 SWAP15 POP POP POP POP POP POP POP POP POP POP POP POP POP POP POP JUMP JUMPDEST PUSH4 0x3B9ACA00 DUP1 PUSH2 0x391 JUMP JUMPDEST PUSH1 0x0 DUP1 PUSH2 0x459 DUP8 DUP7 PUSH2 0x7F0 JUMP JUMPDEST SWAP1 POP PUSH1 0x0 PUSH2 0x46B PUSH4 0x3B9ACA00 DUP4 PUSH2 0xB13 JUMP JUMPDEST SWAP1 POP PUSH1 0x0 PUSH2 0x479 DUP3 DUP7 PUSH2 0xA59 JUMP JUMPDEST SWAP1 POP PUSH1 0x0 PUSH2 0x48F DUP8 PUSH2 0x429 PUSH4 0x3B9ACA00 DUP6 PUSH2 0xB13 JUMP JUMPDEST SWAP1 POP PUSH1 0x0 PUSH2 0x49D DUP13 DUP4 PUSH2 0xB13 JUMP JUMPDEST SWAP1 POP PUSH1 0x0 PUSH2 0x4AB DUP3 DUP15 PUSH2 0x7F0 JUMP JUMPDEST SWAP1 POP PUSH1 0x0 PUSH2 0x4B9 DUP3 DUP9 PUSH2 0x951 JUMP JUMPDEST SWAP1 POP PUSH1 0x0 PUSH2 0x4C7 DUP3 DUP15 PUSH2 0xA59 JUMP JUMPDEST SWAP1 POP PUSH1 0x0 PUSH2 0x4D5 DUP15 DUP4 PUSH2 0xB13 JUMP JUMPDEST SWAP1 POP PUSH2 0x4EA DUP2 PUSH2 0x429 PUSH4 0x3B9ACA00 PUSH1 0x0 PUSH2 0xB13 JUMP JUMPDEST SWAP10 POP POP POP POP POP POP POP POP POP POP SWAP7 SWAP6 POP POP POP POP POP POP JUMP JUMPDEST PUSH1 0x0 DUP1 PUSH2 0x50C DUP8 DUP7 PUSH2 0x7F0 JUMP JUMPDEST SWAP1 POP PUSH1 0x0 PUSH2 0x527 PUSH2 0x521 PUSH4 0x3B9ACA00 DUP5 PUSH2 0xB13 JUMP JUMPDEST DUP6 PUSH2 0xA59 JUMP JUMPDEST SWAP1 POP PUSH1 0x0 PUSH2 0x542 DUP7 PUSH2 0x53D PUSH4 0x3B9ACA00 DUP6 PUSH2 0xB13 JUMP JUMPDEST PUSH2 0xA59 JUMP JUMPDEST SWAP1 POP PUSH1 0x0 PUSH2 0x550 DUP12 DUP4 PUSH2 0x8FD JUMP JUMPDEST SWAP1 POP PUSH1 0x0 PUSH2 0x55E DUP3 DUP14 PUSH2 0x7F0 JUMP JUMPDEST SWAP1 POP PUSH1 0x0 PUSH2 0x56C DUP3 DUP8 PUSH2 0x951 JUMP JUMPDEST SWAP1 POP PUSH1 0x0 PUSH2 0x57A DUP3 DUP14 PUSH2 0xA59 JUMP JUMPDEST SWAP1 POP PUSH2 0x586 DUP2 DUP14 PUSH2 0xB13 JUMP JUMPDEST SWAP15 SWAP14 POP POP POP POP POP POP POP POP POP POP POP POP POP POP JUMP JUMPDEST PUSH2 0x2710 PUSH4 0x3B9ACA00 PUSH2 0x391 JUMP JUMPDEST PUSH1 0x0 DUP1 PUSH2 0x5B2 DUP8 DUP7 PUSH2 0x7F0 JUMP JUMPDEST SWAP1 POP PUSH1 0x0 PUSH2 0x5C9 DUP6 PUSH2 0x53D PUSH4 0x3B9ACA00 PUSH1 0x0 PUSH2 0xB13 JUMP JUMPDEST SWAP1 POP PUSH1 0x0 PUSH2 0x5D7 DUP9 DUP4 PUSH2 0xB13 JUMP JUMPDEST SWAP1 POP PUSH1 0x0 PUSH2 0x5E5 DUP3 DUP11 PUSH2 0x7F0 JUMP JUMPDEST SWAP1 POP PUSH1 0x0 PUSH2 0x600 DUP3 PUSH2 0x5FB PUSH4 0x3B9ACA00 DUP9 PUSH2 0x7F0 JUMP JUMPDEST PUSH2 0x951 JUMP JUMPDEST SWAP1 POP PUSH1 0x0 PUSH2 0x60E DUP3 DUP15 PUSH2 0xA59 JUMP JUMPDEST SWAP1 POP PUSH1 0x0 PUSH2 0x61C DUP15 DUP4 PUSH2 0xB13 JUMP JUMPDEST SWAP1 POP PUSH1 0x0 PUSH2 0x631 PUSH2 0x40F PUSH4 0x3B9ACA00 DUP11 PUSH2 0xB13 JUMP JUMPDEST SWAP1 POP PUSH2 0x42E DUP3 PUSH2 0x53D PUSH4 0x3B9ACA00 DUP5 PUSH2 0xB13 JUMP JUMPDEST PUSH5 0x174876E800 DUP2 JUMP JUMPDEST PUSH4 0x13DE4356 DUP2 JUMP JUMPDEST PUSH6 0x42524F4E5A45 PUSH1 0xD0 SHL SWAP1 JUMP JUMPDEST PUSH1 0x0 DUP1 PUSH2 0x670 DUP8 DUP8 PUSH2 0x7F0 JUMP JUMPDEST SWAP1 POP PUSH1 0x0 PUSH2 0x67E DUP7 DUP7 PUSH2 0x7F0 JUMP JUMPDEST SWAP1 POP PUSH1 0x0 PUSH2 0x68C DUP4 DUP4 PUSH2 0x7F0 JUMP JUMPDEST SWAP1 POP PUSH1 0x0 PUSH2 0x6A6 PUSH4 0x3B9ACA00 PUSH2 0x429 PUSH4 0x3B9ACA00 DUP10 PUSH2 0xB13 JUMP JUMPDEST SWAP1 POP PUSH2 0x6B2 DUP3 DUP3 PUSH2 0xA59 JUMP JUMPDEST SWAP11 SWAP10 POP POP POP POP POP POP POP POP POP POP JUMP JUMPDEST PUSH1 0x8 DUP2 JUMP JUMPDEST PUSH1 0x2 DUP2 JUMP JUMPDEST PUSH1 0x1 DUP2 JUMP JUMPDEST PUSH1 0x0 DUP1 PUSH2 0x6DC DUP8 DUP7 PUSH2 0x7F0 JUMP JUMPDEST SWAP1 POP PUSH1 0x0 PUSH2 0x6EE PUSH4 0x3B9ACA00 DUP6 PUSH2 0xB13 JUMP JUMPDEST SWAP1 POP PUSH2 0x6FA DUP6 DUP3 PUSH2 0xA59 JUMP JUMPDEST SWAP1 POP PUSH1 0x0 PUSH2 0x70C DUP11 PUSH2 0x429 DUP13 DUP6 PUSH2 0x8FD JUMP JUMPDEST SWAP1 POP PUSH1 0x0 PUSH2 0x71A DUP3 DUP6 PUSH2 0x951 JUMP JUMPDEST SWAP1 POP PUSH1 0x0 PUSH2 0x72C PUSH4 0x3B9ACA00 DUP4 PUSH2 0xB13 JUMP JUMPDEST SWAP1 POP PUSH2 0x738 DUP11 DUP3 PUSH2 0xA59 JUMP JUMPDEST SWAP13 SWAP12 POP POP POP POP POP POP POP POP POP POP POP POP JUMP JUMPDEST PUSH1 0xA PUSH4 0x3B9ACA00 PUSH2 0x391 JUMP JUMPDEST PUSH4 0x773593FF DUP2 JUMP JUMPDEST PUSH4 0x3B9ACA00 DUP2 JUMP JUMPDEST PUSH1 0x0 DUP2 JUMP JUMPDEST PUSH1 0x2 PUSH4 0x3B9ACA00 PUSH2 0x391 JUMP JUMPDEST PUSH1 0x0 DUP1 PUSH2 0x782 DUP6 DUP9 PUSH2 0x7F0 JUMP JUMPDEST SWAP1 POP PUSH1 0x0 PUSH2 0x790 DUP8 DUP7 PUSH2 0xB13 JUMP JUMPDEST SWAP1 POP PUSH1 0x0 PUSH2 0x79E DUP9 DUP4 PUSH2 0x7F0 JUMP JUMPDEST SWAP1 POP PUSH1 0x0 PUSH2 0x7AC DUP3 DUP6 PUSH2 0x951 JUMP JUMPDEST SWAP1 POP PUSH2 0x7BC DUP2 PUSH4 0x3B9ACA00 PUSH2 0xB13 JUMP JUMPDEST SWAP1 POP PUSH2 0x7CC PUSH4 0x3B9ACA00 DUP8 PUSH2 0xB13 JUMP JUMPDEST SWAP5 POP PUSH2 0x7E1 PUSH2 0x7DB DUP13 DUP4 PUSH2 0xA59 JUMP JUMPDEST DUP7 PUSH2 0x7F0 JUMP JUMPDEST SWAP12 SWAP11 POP POP POP POP POP POP POP POP POP POP POP JUMP JUMPDEST PUSH1 0x0 DUP2 PUSH2 0x833 JUMPI PUSH1 0x40 DUP1 MLOAD PUSH3 0x461BCD PUSH1 0xE5 SHL DUP2 MSTORE PUSH1 0x20 PUSH1 0x4 DUP3 ADD MSTORE PUSH1 0xC PUSH1 0x24 DUP3 ADD MSTORE PUSH12 0x4552525F4449565F5A45524F PUSH1 0xA0 SHL PUSH1 0x44 DUP3 ADD MSTORE SWAP1 MLOAD SWAP1 DUP2 SWAP1 SUB PUSH1 0x64 ADD SWAP1 REVERT JUMPDEST PUSH4 0x3B9ACA00 DUP4 MUL DUP4 ISZERO DUP1 PUSH2 0x853 JUMPI POP PUSH4 0x3B9ACA00 DUP5 DUP3 DUP2 PUSH2 0x850 JUMPI INVALID JUMPDEST DIV EQ JUMPDEST PUSH2 0x897 JUMPI PUSH1 0x40 DUP1 MLOAD PUSH3 0x461BCD PUSH1 0xE5 SHL DUP2 MSTORE PUSH1 0x20 PUSH1 0x4 DUP3 ADD MSTORE PUSH1 0x10 PUSH1 0x24 DUP3 ADD MSTORE PUSH16 0x11549497D1125597D253951154939053 PUSH1 0x82 SHL PUSH1 0x44 DUP3 ADD MSTORE SWAP1 MLOAD SWAP1 DUP2 SWAP1 SUB PUSH1 0x64 ADD SWAP1 REVERT JUMPDEST PUSH1 0x2 DUP4 DIV DUP2 ADD DUP2 DUP2 LT ISZERO PUSH2 0x8E5 JUMPI PUSH1 0x40 DUP1 MLOAD PUSH3 0x461BCD PUSH1 0xE5 SHL DUP2 MSTORE PUSH1 0x20 PUSH1 0x4 DUP3 ADD MSTORE PUSH1 0x10 PUSH1 0x24 DUP3 ADD MSTORE PUSH16 0x11549497D1125597D253951154939053 PUSH1 0x82 SHL PUSH1 0x44 DUP3 ADD MSTORE SWAP1 MLOAD SWAP1 DUP2 SWAP1 SUB PUSH1 0x64 ADD SWAP1 REVERT JUMPDEST PUSH1 0x0 DUP5 DUP3 DUP2 PUSH2 0x8F0 JUMPI INVALID JUMPDEST DIV SWAP4 POP POP POP POP JUMPDEST SWAP3 SWAP2 POP POP JUMP JUMPDEST PUSH1 0x0 DUP3 DUP3 ADD DUP4 DUP2 LT ISZERO PUSH2 0x94A JUMPI PUSH1 0x40 DUP1 MLOAD PUSH3 0x461BCD PUSH1 0xE5 SHL DUP2 MSTORE PUSH1 0x20 PUSH1 0x4 DUP3 ADD MSTORE PUSH1 0x10 PUSH1 0x24 DUP3 ADD MSTORE PUSH16 0x4552525F4144445F4F564552464C4F57 PUSH1 0x80 SHL PUSH1 0x44 DUP3 ADD MSTORE SWAP1 MLOAD SWAP1 DUP2 SWAP1 SUB PUSH1 0x64 ADD SWAP1 REVERT JUMPDEST SWAP4 SWAP3 POP POP POP JUMP JUMPDEST PUSH1 0x0 PUSH1 0x1 DUP4 LT ISZERO PUSH2 0x9A1 JUMPI PUSH1 0x40 DUP1 MLOAD PUSH3 0x461BCD PUSH1 0xE5 SHL DUP2 MSTORE PUSH1 0x20 PUSH1 0x4 DUP3 ADD MSTORE PUSH1 0x15 PUSH1 0x24 DUP3 ADD MSTORE PUSH21 0x4552525F42504F575F424153455F544F4F5F4C4F57 PUSH1 0x58 SHL PUSH1 0x44 DUP3 ADD MSTORE SWAP1 MLOAD SWAP1 DUP2 SWAP1 SUB PUSH1 0x64 ADD SWAP1 REVERT JUMPDEST PUSH4 0x773593FF DUP4 GT ISZERO PUSH2 0x9F3 JUMPI PUSH1 0x40 DUP1 MLOAD PUSH3 0x461BCD PUSH1 0xE5 SHL DUP2 MSTORE PUSH1 0x20 PUSH1 0x4 DUP3 ADD MSTORE PUSH1 0x16 PUSH1 0x24 DUP3 ADD MSTORE PUSH22 0x8AA4A4BE84A09EAEBE8482A68ABEA89E9EBE90928E9 PUSH1 0x53 SHL PUSH1 0x44 DUP3 ADD MSTORE SWAP1 MLOAD SWAP1 DUP2 SWAP1 SUB PUSH1 0x64 ADD SWAP1 REVERT JUMPDEST PUSH1 0x0 PUSH2 0x9FE DUP4 PUSH2 0xB75 JUMP JUMPDEST SWAP1 POP PUSH1 0x0 PUSH2 0xA0C DUP5 DUP4 PUSH2 0xB13 JUMP JUMPDEST SWAP1 POP PUSH1 0x0 PUSH2 0xA22 DUP7 PUSH2 0xA1D DUP6 PUSH2 0xB8C JUMP JUMPDEST PUSH2 0xB96 JUMP JUMPDEST SWAP1 POP DUP2 PUSH2 0xA33 JUMPI SWAP3 POP PUSH2 0x8F7 SWAP2 POP POP JUMP JUMPDEST PUSH1 0x0 PUSH2 0xA42 DUP8 DUP5 PUSH2 0x2710 PUSH2 0xBE9 JUMP JUMPDEST SWAP1 POP PUSH2 0xA4E DUP3 DUP3 PUSH2 0xA59 JUMP JUMPDEST SWAP8 SWAP7 POP POP POP POP POP POP POP JUMP JUMPDEST PUSH1 0x0 DUP3 DUP3 MUL DUP4 ISZERO DUP1 PUSH2 0xA73 JUMPI POP DUP3 DUP5 DUP3 DUP2 PUSH2 0xA70 JUMPI INVALID JUMPDEST DIV EQ JUMPDEST PUSH2 0xAB7 JUMPI PUSH1 0x40 DUP1 MLOAD PUSH3 0x461BCD PUSH1 0xE5 SHL DUP2 MSTORE PUSH1 0x20 PUSH1 0x4 DUP3 ADD MSTORE PUSH1 0x10 PUSH1 0x24 DUP3 ADD MSTORE PUSH16 0x4552525F4D554C5F4F564552464C4F57 PUSH1 0x80 SHL PUSH1 0x44 DUP3 ADD MSTORE SWAP1 MLOAD SWAP1 DUP2 SWAP1 SUB PUSH1 0x64 ADD SWAP1 REVERT JUMPDEST PUSH4 0x1DCD6500 DUP2 ADD DUP2 DUP2 LT ISZERO PUSH2 0xB06 JUMPI PUSH1 0x40 DUP1 MLOAD PUSH3 0x461BCD PUSH1 0xE5 SHL DUP2 MSTORE PUSH1 0x20 PUSH1 0x4 DUP3 ADD MSTORE PUSH1 0x10 PUSH1 0x24 DUP3 ADD MSTORE PUSH16 0x4552525F4D554C5F4F564552464C4F57 PUSH1 0x80 SHL PUSH1 0x44 DUP3 ADD MSTORE SWAP1 MLOAD SWAP1 DUP2 SWAP1 SUB PUSH1 0x64 ADD SWAP1 REVERT JUMPDEST PUSH1 0x0 PUSH4 0x3B9ACA00 DUP3 PUSH2 0x8F0 JUMP JUMPDEST PUSH1 0x0 DUP1 PUSH1 0x0 PUSH2 0xB22 DUP6 DUP6 PUSH2 0xCB7 JUMP JUMPDEST SWAP2 POP SWAP2 POP DUP1 ISZERO PUSH2 0xB6D JUMPI PUSH1 0x40 DUP1 MLOAD PUSH3 0x461BCD PUSH1 0xE5 SHL DUP2 MSTORE PUSH1 0x20 PUSH1 0x4 DUP3 ADD MSTORE PUSH1 0x11 PUSH1 0x24 DUP3 ADD MSTORE PUSH17 0x4552525F5355425F554E444552464C4F57 PUSH1 0x78 SHL PUSH1 0x44 DUP3 ADD MSTORE SWAP1 MLOAD SWAP1 DUP2 SWAP1 SUB PUSH1 0x64 ADD SWAP1 REVERT JUMPDEST POP SWAP4 SWAP3 POP POP POP JUMP JUMPDEST PUSH1 0x0 PUSH4 0x3B9ACA00 PUSH2 0xB85 DUP4 PUSH2 0xB8C JUMP JUMPDEST MUL SWAP3 SWAP2 POP POP JUMP JUMPDEST PUSH4 0x3B9ACA00 SWAP1 DIV SWAP1 JUMP JUMPDEST PUSH1 0x0 DUP1 PUSH1 0x2 DUP4 MOD PUSH2 0xBAB JUMPI PUSH4 0x3B9ACA00 PUSH2 0xBAD JUMP JUMPDEST DUP4 JUMPDEST SWAP1 POP PUSH1 0x2 DUP4 DIV SWAP3 POP JUMPDEST DUP3 ISZERO PUSH2 0x94A JUMPI PUSH2 0xBC6 DUP5 DUP6 PUSH2 0xA59 JUMP JUMPDEST SWAP4 POP PUSH1 0x2 DUP4 MOD ISZERO PUSH2 0xBDE JUMPI PUSH2 0xBDB DUP2 DUP6 PUSH2 0xA59 JUMP JUMPDEST SWAP1 POP JUMPDEST PUSH1 0x2 DUP4 DIV SWAP3 POP PUSH2 0xBB6 JUMP JUMPDEST PUSH1 0x0 DUP3 DUP2 DUP1 PUSH2 0xBFC DUP8 PUSH4 0x3B9ACA00 PUSH2 0xCB7 JUMP JUMPDEST SWAP1 SWAP3 POP SWAP1 POP PUSH4 0x3B9ACA00 DUP1 PUSH1 0x0 PUSH1 0x1 JUMPDEST DUP9 DUP5 LT PUSH2 0xCA8 JUMPI PUSH1 0x0 PUSH4 0x3B9ACA00 DUP3 MUL SWAP1 POP PUSH1 0x0 DUP1 PUSH2 0xC38 DUP11 PUSH2 0xC33 DUP6 PUSH4 0x3B9ACA00 PUSH2 0xB13 JUMP JUMPDEST PUSH2 0xCB7 JUMP JUMPDEST SWAP2 POP SWAP2 POP PUSH2 0xC4A DUP8 PUSH2 0x53D DUP5 DUP13 PUSH2 0xA59 JUMP JUMPDEST SWAP7 POP PUSH2 0xC56 DUP8 DUP5 PUSH2 0x7F0 JUMP JUMPDEST SWAP7 POP DUP7 PUSH2 0xC65 JUMPI POP POP POP PUSH2 0xCA8 JUMP JUMPDEST DUP8 ISZERO PUSH2 0xC6F JUMPI SWAP4 ISZERO SWAP4 JUMPDEST DUP1 ISZERO PUSH2 0xC79 JUMPI SWAP4 ISZERO SWAP4 JUMPDEST DUP5 ISZERO PUSH2 0xC90 JUMPI PUSH2 0xC89 DUP7 DUP9 PUSH2 0xB13 JUMP JUMPDEST SWAP6 POP PUSH2 0xC9D JUMP JUMPDEST PUSH2 0xC9A DUP7 DUP9 PUSH2 0x8FD JUMP JUMPDEST SWAP6 POP JUMPDEST POP POP POP PUSH1 0x1 ADD PUSH2 0xC0C JUMP JUMPDEST POP SWAP1 SWAP10 SWAP9 POP POP POP POP POP POP POP POP POP JUMP JUMPDEST PUSH1 0x0 DUP1 DUP3 DUP5 LT PUSH2 0xCCD JUMPI POP POP DUP1 DUP3 SUB PUSH1 0x0 PUSH2 0xCD5 JUMP JUMPDEST POP POP DUP2 DUP2 SUB PUSH1 0x1 JUMPDEST SWAP3 POP SWAP3 SWAP1 POP JUMP INVALID LOG2 PUSH6 0x627A7A723158 KECCAK256 CODECOPY 0xdb PUSH16 0xC71071DC3BB34BE05033B1D9CE6C66AF CODESIZE 0xc6 0xd8 CALLDATASIZE 0xd4 0xef 0xa7 SELFBALANCE 0xdb PUSH25 0x21323A64736F6C634300050C00320000000000000000000000 "
		},
		"gasEstimates": {
			"creation": {
				"codeDepositCost": "669000",
				"executionCost": "702",
				"totalCost": "669702"
			},
			"external": {
				"BONE()": "242",
				"BPOW_PRECISION()": "253",
				"EXIT_FEE()": "264",
				"INIT_POOL_SUPPLY()": "287",
				"MAX_BOUND_TOKENS()": "243",
				"MAX_BPOW_BASE()": "220",
				"MAX_FEE()": "351",
				"MAX_IN_RATIO()": "328",
				"MAX_OUT_RATIO()": "309",
				"MAX_TOTAL_WEIGHT()": "222",
				"MAX_WEIGHT()": "286",
				"MIN_BALANCE()": "263",
				"MIN_BOUND_TOKENS()": "265",
				"MIN_BPOW_BASE()": "287",
				"MIN_FEE()": "330",
				"MIN_WEIGHT()": "275",
				"calcInGivenOut(uint256,uint256,uint256,uint256,uint256,uint256)": "infinite",
				"calcOutGivenIn(uint256,uint256,uint256,uint256,uint256,uint256)": "infinite",
				"calcPoolInGivenSingleOut(uint256,uint256,uint256,uint256,uint256,uint256)": "infinite",
				"calcPoolOutGivenSingleIn(uint256,uint256,uint256,uint256,uint256,uint256)": "infinite",
				"calcSingleInGivenPoolOut(uint256,uint256,uint256,uint256,uint256,uint256)": "infinite",
				"calcSingleOutGivenPoolIn(uint256,uint256,uint256,uint256,uint256,uint256)": "infinite",
				"calcSpotPrice(uint256,uint256,uint256,uint256,uint256)": "infinite",
				"getColor()": "337"
			}
		},
		"methodIdentifiers": {
			"BONE()": "c36596a6",
			"BPOW_PRECISION()": "189d00ca",
			"EXIT_FEE()": "c6580d12",
			"INIT_POOL_SUPPLY()": "9381cd2b",
			"MAX_BOUND_TOKENS()": "b0e0d136",
			"MAX_BPOW_BASE()": "bc694ea2",
			"MAX_FEE()": "bc063e1a",
			"MAX_IN_RATIO()": "ec093021",
			"MAX_OUT_RATIO()": "992e2a92",
			"MAX_TOTAL_WEIGHT()": "09a3bbe4",
			"MAX_WEIGHT()": "e4a28a52",
			"MIN_BALANCE()": "867378c5",
			"MIN_BOUND_TOKENS()": "b7b800a4",
			"MIN_BPOW_BASE()": "ba019dab",
			"MIN_FEE()": "76c7a3c7",
			"MIN_WEIGHT()": "218b5382",
			"calcInGivenOut(uint256,uint256,uint256,uint256,uint256,uint256)": "f8d6aed4",
			"calcOutGivenIn(uint256,uint256,uint256,uint256,uint256,uint256)": "ba9530a6",
			"calcPoolInGivenSingleOut(uint256,uint256,uint256,uint256,uint256,uint256)": "82f652ad",
			"calcPoolOutGivenSingleIn(uint256,uint256,uint256,uint256,uint256,uint256)": "8656b653",
			"calcSingleInGivenPoolOut(uint256,uint256,uint256,uint256,uint256,uint256)": "5c1bbaf7",
			"calcSingleOutGivenPoolIn(uint256,uint256,uint256,uint256,uint256,uint256)": "89298012",
			"calcSpotPrice(uint256,uint256,uint256,uint256,uint256)": "a221ee49",
			"getColor()": "9a86139b"
		}
	},
	"abi": [
		{
			"constant": true,
			"inputs": [],
			"name": "BONE",
			"outputs": [
				{
					"internalType": "uint256",
					"name": "",
					"type": "uint256"
				}
			],
			"payable": false,
			"stateMutability": "view",
			"type": "function"
		},
		{
			"constant": true,
			"inputs": [],
			"name": "BPOW_PRECISION",
			"outputs": [
				{
					"internalType": "uint256",
					"name": "",
					"type": "uint256"
				}
			],
			"payable": false,
			"stateMutability": "view",
			"type": "function"
		},
		{
			"constant": true,
			"inputs": [],
			"name": "EXIT_FEE",
			"outputs": [
				{
					"internalType": "uint256",
					"name": "",
					"type": "uint256"
				}
			],
			"payable": false,
			"stateMutability": "view",
			"type": "function"
		},
		{
			"constant": true,
			"inputs": [],
			"name": "INIT_POOL_SUPPLY",
			"outputs": [
				{
					"internalType": "uint256",
					"name": "",
					"type": "uint256"
				}
			],
			"payable": false,
			"stateMutability": "view",
			"type": "function"
		},
		{
			"constant": true,
			"inputs": [],
			"name": "MAX_BOUND_TOKENS",
			"outputs": [
				{
					"internalType": "uint256",
					"name": "",
					"type": "uint256"
				}
			],
			"payable": false,
			"stateMutability": "view",
			"type": "function"
		},
		{
			"constant": true,
			"inputs": [],
			"name": "MAX_BPOW_BASE",
			"outputs": [
				{
					"internalType": "uint256",
					"name": "",
					"type": "uint256"
				}
			],
			"payable": false,
			"stateMutability": "view",
			"type": "function"
		},
		{
			"constant": true,
			"inputs": [],
			"name": "MAX_FEE",
			"outputs": [
				{
					"internalType": "uint256",
					"name": "",
					"type": "uint256"
				}
			],
			"payable": false,
			"stateMutability": "view",
			"type": "function"
		},
		{
			"constant": true,
			"inputs": [],
			"name": "MAX_IN_RATIO",
			"outputs": [
				{
					"internalType": "uint256",
					"name": "",
					"type": "uint256"
				}
			],
			"payable": false,
			"stateMutability": "view",
			"type": "function"
		},
		{
			"constant": true,
			"inputs": [],
			"name": "MAX_OUT_RATIO",
			"outputs": [
				{
					"internalType": "uint256",
					"name": "",
					"type": "uint256"
				}
			],
			"payable": false,
			"stateMutability": "view",
			"type": "function"
		},
		{
			"constant": true,
			"inputs": [],
			"name": "MAX_TOTAL_WEIGHT",
			"outputs": [
				{
					"internalType": "uint256",
					"name": "",
					"type": "uint256"
				}
			],
			"payable": false,
			"stateMutability": "view",
			"type": "function"
		},
		{
			"constant": true,
			"inputs": [],
			"name": "MAX_WEIGHT",
			"outputs": [
				{
					"internalType": "uint256",
					"name": "",
					"type": "uint256"
				}
			],
			"payable": false,
			"stateMutability": "view",
			"type": "function"
		},
		{
			"constant": true,
			"inputs": [],
			"name": "MIN_BALANCE",
			"outputs": [
				{
					"internalType": "uint256",
					"name": "",
					"type": "uint256"
				}
			],
			"payable": false,
			"stateMutability": "view",
			"type": "function"
		},
		{
			"constant": true,
			"inputs": [],
			"name": "MIN_BOUND_TOKENS",
			"outputs": [
				{
					"internalType": "uint256",
					"name": "",
					"type": "uint256"
				}
			],
			"payable": false,
			"stateMutability": "view",
			"type": "function"
		},
		{
			"constant": true,
			"inputs": [],
			"name": "MIN_BPOW_BASE",
			"outputs": [
				{
					"internalType": "uint256",
					"name": "",
					"type": "uint256"
				}
			],
			"payable": false,
			"stateMutability": "view",
			"type": "function"
		},
		{
			"constant": true,
			"inputs": [],
			"name": "MIN_FEE",
			"outputs": [
				{
					"internalType": "uint256",
					"name": "",
					"type": "uint256"
				}
			],
			"payable": false,
			"stateMutability": "view",
			"type": "function"
		},
		{
			"constant": true,
			"inputs": [],
			"name": "MIN_WEIGHT",
			"outputs": [
				{
					"internalType": "uint256",
					"name": "",
					"type": "uint256"
				}
			],
			"payable": false,
			"stateMutability": "view",
			"type": "function"
		},
		{
			"constant": true,
			"inputs": [
				{
					"internalType": "uint256",
					"name": "tokenBalanceIn",
					"type": "uint256"
				},
				{
					"internalType": "uint256",
					"name": "tokenWeightIn",
					"type": "uint256"
				},
				{
					"internalType": "uint256",
					"name": "tokenBalanceOut",
					"type": "uint256"
				},
				{
					"internalType": "uint256",
					"name": "tokenWeightOut",
					"type": "uint256"
				},
				{
					"internalType": "uint256",
					"name": "tokenAmountOut",
					"type": "uint256"
				},
				{
					"internalType": "uint256",
					"name": "swapFee",
					"type": "uint256"
				}
			],
			"name": "calcInGivenOut",
			"outputs": [
				{
					"internalType": "uint256",
					"name": "tokenAmountIn",
					"type": "uint256"
				}
			],
			"payable": false,
			"stateMutability": "view",
			"type": "function"
		},
		{
			"constant": true,
			"inputs": [
				{
					"internalType": "uint256",
					"name": "tokenBalanceIn",
					"type": "uint256"
				},
				{
					"internalType": "uint256",
					"name": "tokenWeightIn",
					"type": "uint256"
				},
				{
					"internalType": "uint256",
					"name": "tokenBalanceOut",
					"type": "uint256"
				},
				{
					"internalType": "uint256",
					"name": "tokenWeightOut",
					"type": "uint256"
				},
				{
					"internalType": "uint256",
					"name": "tokenAmountIn",
					"type": "uint256"
				},
				{
					"internalType": "uint256",
					"name": "swapFee",
					"type": "uint256"
				}
			],
			"name": "calcOutGivenIn",
			"outputs": [
				{
					"internalType": "uint256",
					"name": "tokenAmountOut",
					"type": "uint256"
				}
			],
			"payable": false,
			"stateMutability": "view",
			"type": "function"
		},
		{
			"constant": true,
			"inputs": [
				{
					"internalType": "uint256",
					"name": "tokenBalanceOut",
					"type": "uint256"
				},
				{
					"internalType": "uint256",
					"name": "tokenWeightOut",
					"type": "uint256"
				},
				{
					"internalType": "uint256",
					"name": "poolSupply",
					"type": "uint256"
				},
				{
					"internalType": "uint256",
					"name": "totalWeight",
					"type": "uint256"
				},
				{
					"internalType": "uint256",
					"name": "tokenAmountOut",
					"type": "uint256"
				},
				{
					"internalType": "uint256",
					"name": "swapFee",
					"type": "uint256"
				}
			],
			"name": "calcPoolInGivenSingleOut",
			"outputs": [
				{
					"internalType": "uint256",
					"name": "poolAmountIn",
					"type": "uint256"
				}
			],
			"payable": false,
			"stateMutability": "view",
			"type": "function"
		},
		{
			"constant": true,
			"inputs": [
				{
					"internalType": "uint256",
					"name": "tokenBalanceIn",
					"type": "uint256"
				},
				{
					"internalType": "uint256",
					"name": "tokenWeightIn",
					"type": "uint256"
				},
				{
					"internalType": "uint256",
					"name": "poolSupply",
					"type": "uint256"
				},
				{
					"internalType": "uint256",
					"name": "totalWeight",
					"type": "uint256"
				},
				{
					"internalType": "uint256",
					"name": "tokenAmountIn",
					"type": "uint256"
				},
				{
					"internalType": "uint256",
					"name": "swapFee",
					"type": "uint256"
				}
			],
			"name": "calcPoolOutGivenSingleIn",
			"outputs": [
				{
					"internalType": "uint256",
					"name": "poolAmountOut",
					"type": "uint256"
				}
			],
			"payable": false,
			"stateMutability": "view",
			"type": "function"
		},
		{
			"constant": true,
			"inputs": [
				{
					"internalType": "uint256",
					"name": "tokenBalanceIn",
					"type": "uint256"
				},
				{
					"internalType": "uint256",
					"name": "tokenWeightIn",
					"type": "uint256"
				},
				{
					"internalType": "uint256",
					"name": "poolSupply",
					"type": "uint256"
				},
				{
					"internalType": "uint256",
					"name": "totalWeight",
					"type": "uint256"
				},
				{
					"internalType": "uint256",
					"name": "poolAmountOut",
					"type": "uint256"
				},
				{
					"internalType": "uint256",
					"name": "swapFee",
					"type": "uint256"
				}
			],
			"name": "calcSingleInGivenPoolOut",
			"outputs": [
				{
					"internalType": "uint256",
					"name": "tokenAmountIn",
					"type": "uint256"
				}
			],
			"payable": false,
			"stateMutability": "view",
			"type": "function"
		},
		{
			"constant": true,
			"inputs": [
				{
					"internalType": "uint256",
					"name": "tokenBalanceOut",
					"type": "uint256"
				},
				{
					"internalType": "uint256",
					"name": "tokenWeightOut",
					"type": "uint256"
				},
				{
					"internalType": "uint256",
					"name": "poolSupply",
					"type": "uint256"
				},
				{
					"internalType": "uint256",
					"name": "totalWeight",
					"type": "uint256"
				},
				{
					"internalType": "uint256",
					"name": "poolAmountIn",
					"type": "uint256"
				},
				{
					"internalType": "uint256",
					"name": "swapFee",
					"type": "uint256"
				}
			],
			"name": "calcSingleOutGivenPoolIn",
			"outputs": [
				{
					"internalType": "uint256",
					"name": "tokenAmountOut",
					"type": "uint256"
				}
			],
			"payable": false,
			"stateMutability": "view",
			"type": "function"
		},
		{
			"constant": true,
			"inputs": [
				{
					"internalType": "uint256",
					"name": "tokenBalanceIn",
					"type": "uint256"
				},
				{
					"internalType": "uint256",
					"name": "tokenWeightIn",
					"type": "uint256"
				},
				{
					"internalType": "uint256",
					"name": "tokenBalanceOut",
					"type": "uint256"
				},
				{
					"internalType": "uint256",
					"name": "tokenWeightOut",
					"type": "uint256"
				},
				{
					"internalType": "uint256",
					"name": "swapFee",
					"type": "uint256"
				}
			],
			"name": "calcSpotPrice",
			"outputs": [
				{
					"internalType": "uint256",
					"name": "spotPrice",
					"type": "uint256"
				}
			],
			"payable": false,
			"stateMutability": "view",
			"type": "function"
		},
		{
			"constant": true,
			"inputs": [],
			"name": "getColor",
			"outputs": [
				{
					"internalType": "bytes32",
					"name": "",
					"type": "bytes32"
				}
			],
			"payable": false,
			"stateMutability": "view",
			"type": "function"
		}
	]
}