{
	"data": {
		"bytecode": {
			"linkReferences": {
				"browser/github/DODOEX/dodo-smart-contract/contracts/lib/SafeMath.sol": {
					"SafeMath": [
						{
							"length": 20,
							"start": 245
						},
						{
							"length": 20,
							"start": 382
						},
						{
							"length": 20,
							"start": 531
						},
						{
							"length": 20,
							"start": 671
						},
						{
							"length": 20,
							"start": 730
						},
						{
							"length": 20,
							"start": 870
						},
						{
							"length": 20,
							"start": 934
						}
					]
				}
			},
			"object": "61048f610026600b82828239805160001a60731461001957fe5b30600052607381538281f3fe73000000000000000000000000000000000000000030146080604052600436106100565760003560e01c806309e1d9691461005b5780632e962105146100845780638225151214610097578063c8a4ac9c146100aa575b600080fd5b61006e610069366004610421565b6100bd565b60405161007b9190610442565b60405180910390f35b61006e610092366004610421565b6101db565b61006e6100a5366004610421565b6102a2565b61006e6100b8366004610421565b610369565b6040516332292b2760e21b815260009073__$25795098595e1d2c093380903a6743b71e$__9063c8a4ac9c906100f9908690869060040161044b565b60206040518083038186803b15801561011157600080fd5b505af4158015610125573d6000803e3d6000fd5b505050506040513d601f19601f820116820180604052508101906101499190610409565b6040516341128a8960e11b815273__$25795098595e1d2c093380903a6743b71e$__916382251512916101849190620f42409060040161044b565b60206040518083038186803b15801561019c57600080fd5b505af41580156101b0573d6000803e3d6000fd5b505050506040513d601f19601f820116820180604052508101906101d49190610409565b9392505050565b6040516332292b2760e21b815260009073__$25795098595e1d2c093380903a6743b71e$__9063c8a4ac9c9061021a908690620f42409060040161044b565b60206040518083038186803b15801561023257600080fd5b505af4158015610246573d6000803e3d6000fd5b505050506040513d601f19601f8201168201806040525081019061026a9190610409565b60405163a391c15b60e01b815273__$25795098595e1d2c093380903a6743b71e$__9163a391c15b916101849190869060040161044b565b6040516332292b2760e21b815260009073__$25795098595e1d2c093380903a6743b71e$__9063c8a4ac9c906102e1908690620f42409060040161044b565b60206040518083038186803b1580156102f957600080fd5b505af415801561030d573d6000803e3d6000fd5b505050506040513d601f19601f820116820180604052508101906103319190610409565b6040516341128a8960e11b815273__$25795098595e1d2c093380903a6743b71e$__916382251512916101849190869060040161044b565b6040516332292b2760e21b8152600090620f42409073__$25795098595e1d2c093380903a6743b71e$__9063c8a4ac9c906103aa908790879060040161044b565b60206040518083038186803b1580156103c257600080fd5b505af41580156103d6573d6000803e3d6000fd5b505050506040513d601f19601f820116820180604052508101906103fa9190610409565b8161040157fe5b049392505050565b60006020828403121561041a578081fd5b5051919050565b60008060408385031215610433578081fd5b50508035926020909101359150565b90815260200190565b91825260208201526040019056fea2646970667358221220c7dc1895d121ac07108ee600d83d30595dd9681a2e00544728e126044b8b7cb564736f6c63430006090033",
			"opcodes": "PUSH2 0x48F PUSH2 0x26 PUSH1 0xB DUP3 DUP3 DUP3 CODECOPY DUP1 MLOAD PUSH1 0x0 BYTE PUSH1 0x73 EQ PUSH2 0x19 JUMPI INVALID JUMPDEST ADDRESS PUSH1 0x0 MSTORE PUSH1 0x73 DUP2 MSTORE8 DUP3 DUP2 RETURN INVALID PUSH20 0x0 ADDRESS EQ PUSH1 0x80 PUSH1 0x40 MSTORE PUSH1 0x4 CALLDATASIZE LT PUSH2 0x56 JUMPI PUSH1 0x0 CALLDATALOAD PUSH1 0xE0 SHR DUP1 PUSH4 0x9E1D969 EQ PUSH2 0x5B JUMPI DUP1 PUSH4 0x2E962105 EQ PUSH2 0x84 JUMPI DUP1 PUSH4 0x82251512 EQ PUSH2 0x97 JUMPI DUP1 PUSH4 0xC8A4AC9C EQ PUSH2 0xAA JUMPI JUMPDEST PUSH1 0x0 DUP1 REVERT JUMPDEST PUSH2 0x6E PUSH2 0x69 CALLDATASIZE PUSH1 0x4 PUSH2 0x421 JUMP JUMPDEST PUSH2 0xBD JUMP JUMPDEST PUSH1 0x40 MLOAD PUSH2 0x7B SWAP2 SWAP1 PUSH2 0x442 JUMP JUMPDEST PUSH1 0x40 MLOAD DUP1 SWAP2 SUB SWAP1 RETURN JUMPDEST PUSH2 0x6E PUSH2 0x92 CALLDATASIZE PUSH1 0x4 PUSH2 0x421 JUMP JUMPDEST PUSH2 0x1DB JUMP JUMPDEST PUSH2 0x6E PUSH2 0xA5 CALLDATASIZE PUSH1 0x4 PUSH2 0x421 JUMP JUMPDEST PUSH2 0x2A2 JUMP JUMPDEST PUSH2 0x6E PUSH2 0xB8 CALLDATASIZE PUSH1 0x4 PUSH2 0x421 JUMP JUMPDEST PUSH2 0x369 JUMP JUMPDEST PUSH1 0x40 MLOAD PUSH4 0x32292B27 PUSH1 0xE2 SHL DUP2 MSTORE PUSH1 0x0 SWAP1 PUSH20 0x0 SWAP1 PUSH4 0xC8A4AC9C SWAP1 PUSH2 0xF9 SWAP1 DUP7 SWAP1 DUP7 SWAP1 PUSH1 0x4 ADD PUSH2 0x44B JUMP JUMPDEST PUSH1 0x20 PUSH1 0x40 MLOAD DUP1 DUP4 SUB DUP2 DUP7 DUP1 EXTCODESIZE ISZERO DUP1 ISZERO PUSH2 0x111 JUMPI PUSH1 0x0 DUP1 REVERT JUMPDEST POP GAS DELEGATECALL ISZERO DUP1 ISZERO PUSH2 0x125 JUMPI RETURNDATASIZE PUSH1 0x0 DUP1 RETURNDATACOPY RETURNDATASIZE PUSH1 0x0 REVERT JUMPDEST POP POP POP POP PUSH1 0x40 MLOAD RETURNDATASIZE PUSH1 0x1F NOT PUSH1 0x1F DUP3 ADD AND DUP3 ADD DUP1 PUSH1 0x40 MSTORE POP DUP2 ADD SWAP1 PUSH2 0x149 SWAP2 SWAP1 PUSH2 0x409 JUMP JUMPDEST PUSH1 0x40 MLOAD PUSH4 0x41128A89 PUSH1 0xE1 SHL DUP2 MSTORE PUSH20 0x0 SWAP2 PUSH4 0x82251512 SWAP2 PUSH2 0x184 SWAP2 SWAP1 PUSH3 0xF4240 SWAP1 PUSH1 0x4 ADD PUSH2 0x44B JUMP JUMPDEST PUSH1 0x20 PUSH1 0x40 MLOAD DUP1 DUP4 SUB DUP2 DUP7 DUP1 EXTCODESIZE ISZERO DUP1 ISZERO PUSH2 0x19C JUMPI PUSH1 0x0 DUP1 REVERT JUMPDEST POP GAS DELEGATECALL ISZERO DUP1 ISZERO PUSH2 0x1B0 JUMPI RETURNDATASIZE PUSH1 0x0 DUP1 RETURNDATACOPY RETURNDATASIZE PUSH1 0x0 REVERT JUMPDEST POP POP POP POP PUSH1 0x40 MLOAD RETURNDATASIZE PUSH1 0x1F NOT PUSH1 0x1F DUP3 ADD AND DUP3 ADD DUP1 PUSH1 0x40 MSTORE POP DUP2 ADD SWAP1 PUSH2 0x1D4 SWAP2 SWAP1 PUSH2 0x409 JUMP JUMPDEST SWAP4 SWAP3 POP POP POP JUMP JUMPDEST PUSH1 0x40 MLOAD PUSH4 0x32292B27 PUSH1 0xE2 SHL DUP2 MSTORE PUSH1 0x0 SWAP1 PUSH20 0x0 SWAP1 PUSH4 0xC8A4AC9C SWAP1 PUSH2 0x21A SWAP1 DUP7 SWAP1 PUSH3 0xF4240 SWAP1 PUSH1 0x4 ADD PUSH2 0x44B JUMP JUMPDEST PUSH1 0x20 PUSH1 0x40 MLOAD DUP1 DUP4 SUB DUP2 DUP7 DUP1 EXTCODESIZE ISZERO DUP1 ISZERO PUSH2 0x232 JUMPI PUSH1 0x0 DUP1 REVERT JUMPDEST POP GAS DELEGATECALL ISZERO DUP1 ISZERO PUSH2 0x246 JUMPI RETURNDATASIZE PUSH1 0x0 DUP1 RETURNDATACOPY RETURNDATASIZE PUSH1 0x0 REVERT JUMPDEST POP POP POP POP PUSH1 0x40 MLOAD RETURNDATASIZE PUSH1 0x1F NOT PUSH1 0x1F DUP3 ADD AND DUP3 ADD DUP1 PUSH1 0x40 MSTORE POP DUP2 ADD SWAP1 PUSH2 0x26A SWAP2 SWAP1 PUSH2 0x409 JUMP JUMPDEST PUSH1 0x40 MLOAD PUSH4 0xA391C15B PUSH1 0xE0 SHL DUP2 MSTORE PUSH20 0x0 SWAP2 PUSH4 0xA391C15B SWAP2 PUSH2 0x184 SWAP2 SWAP1 DUP7 SWAP1 PUSH1 0x4 ADD PUSH2 0x44B JUMP JUMPDEST PUSH1 0x40 MLOAD PUSH4 0x32292B27 PUSH1 0xE2 SHL DUP2 MSTORE PUSH1 0x0 SWAP1 PUSH20 0x0 SWAP1 PUSH4 0xC8A4AC9C SWAP1 PUSH2 0x2E1 SWAP1 DUP7 SWAP1 PUSH3 0xF4240 SWAP1 PUSH1 0x4 ADD PUSH2 0x44B JUMP JUMPDEST PUSH1 0x20 PUSH1 0x40 MLOAD DUP1 DUP4 SUB DUP2 DUP7 DUP1 EXTCODESIZE ISZERO DUP1 ISZERO PUSH2 0x2F9 JUMPI PUSH1 0x0 DUP1 REVERT JUMPDEST POP GAS DELEGATECALL ISZERO DUP1 ISZERO PUSH2 0x30D JUMPI RETURNDATASIZE PUSH1 0x0 DUP1 RETURNDATACOPY RETURNDATASIZE PUSH1 0x0 REVERT JUMPDEST POP POP POP POP PUSH1 0x40 MLOAD RETURNDATASIZE PUSH1 0x1F NOT PUSH1 0x1F DUP3 ADD AND DUP3 ADD DUP1 PUSH1 0x40 MSTORE POP DUP2 ADD SWAP1 PUSH2 0x331 SWAP2 SWAP1 PUSH2 0x409 JUMP JUMPDEST PUSH1 0x40 MLOAD PUSH4 0x41128A89 PUSH1 0xE1 SHL DUP2 MSTORE PUSH20 0x0 SWAP2 PUSH4 0x82251512 SWAP2 PUSH2 0x184 SWAP2 SWAP1 DUP7 SWAP1 PUSH1 0x4 ADD PUSH2 0x44B JUMP JUMPDEST PUSH1 0x40 MLOAD PUSH4 0x32292B27 PUSH1 0xE2 SHL DUP2 MSTORE PUSH1 0x0 SWAP1 PUSH3 0xF4240 SWAP1 PUSH20 0x0 SWAP1 PUSH4 0xC8A4AC9C SWAP1 PUSH2 0x3AA SWAP1 DUP8 SWAP1 DUP8 SWAP1 PUSH1 0x4 ADD PUSH2 0x44B JUMP JUMPDEST PUSH1 0x20 PUSH1 0x40 MLOAD DUP1 DUP4 SUB DUP2 DUP7 DUP1 EXTCODESIZE ISZERO DUP1 ISZERO PUSH2 0x3C2 JUMPI PUSH1 0x0 DUP1 REVERT JUMPDEST POP GAS DELEGATECALL ISZERO DUP1 ISZERO PUSH2 0x3D6 JUMPI RETURNDATASIZE PUSH1 0x0 DUP1 RETURNDATACOPY RETURNDATASIZE PUSH1 0x0 REVERT JUMPDEST POP POP POP POP PUSH1 0x40 MLOAD RETURNDATASIZE PUSH1 0x1F NOT PUSH1 0x1F DUP3 ADD AND DUP3 ADD DUP1 PUSH1 0x40 MSTORE POP DUP2 ADD SWAP1 PUSH2 0x3FA SWAP2 SWAP1 PUSH2 0x409 JUMP JUMPDEST DUP2 PUSH2 0x401 JUMPI INVALID JUMPDEST DIV SWAP4 SWAP3 POP POP POP JUMP JUMPDEST PUSH1 0x0 PUSH1 0x20 DUP3 DUP5 SUB SLT ISZERO PUSH2 0x41A JUMPI DUP1 DUP2 REVERT JUMPDEST POP MLOAD SWAP2 SWAP1 POP JUMP JUMPDEST PUSH1 0x0 DUP1 PUSH1 0x40 DUP4 DUP6 SUB SLT ISZERO PUSH2 0x433 JUMPI DUP1 DUP2 REVERT JUMPDEST POP POP DUP1 CALLDATALOAD SWAP3 PUSH1 0x20 SWAP1 SWAP2 ADD CALLDATALOAD SWAP2 POP JUMP JUMPDEST SWAP1 DUP2 MSTORE PUSH1 0x20 ADD SWAP1 JUMP JUMPDEST SWAP2 DUP3 MSTORE PUSH1 0x20 DUP3 ADD MSTORE PUSH1 0x40 ADD SWAP1 JUMP INVALID LOG2 PUSH5 0x6970667358 0x22 SLT KECCAK256 0xC7 0xDC XOR SWAP6 0xD1 0x21 0xAC SMOD LT DUP15 0xE6 STOP 0xD8 RETURNDATASIZE ADDRESS MSIZE 0x5D 0xD9 PUSH9 0x1A2E00544728E12604 0x4B DUP12 PUSH29 0xB564736F6C634300060900330000000000000000000000000000000000 "
		},
		"gasEstimates": {
			"creation": {
				"codeDepositCost": "233400",
				"executionCost": "300",
				"totalCost": "233700"
			},
			"external": {
				"divCeil(uint256,uint256)": "infinite",
				"divFloor(uint256,uint256)": "infinite",
				"mul(uint256,uint256)": "infinite",
				"mulCeil(uint256,uint256)": "infinite"
			}
		},
		"methodIdentifiers": {
			"divCeil(uint256,uint256)": "82251512",
			"divFloor(uint256,uint256)": "2e962105",
			"mul(uint256,uint256)": "c8a4ac9c",
			"mulCeil(uint256,uint256)": "09e1d969"
		}
	},
	"abi": [
		{
			"inputs": [
				{
					"internalType": "uint256",
					"name": "target",
					"type": "uint256"
				},
				{
					"internalType": "uint256",
					"name": "d",
					"type": "uint256"
				}
			],
			"name": "divCeil",
			"outputs": [
				{
					"internalType": "uint256",
					"name": "",
					"type": "uint256"
				}
			],
			"stateMutability": "pure",
			"type": "function"
		},
		{
			"inputs": [
				{
					"internalType": "uint256",
					"name": "target",
					"type": "uint256"
				},
				{
					"internalType": "uint256",
					"name": "d",
					"type": "uint256"
				}
			],
			"name": "divFloor",
			"outputs": [
				{
					"internalType": "uint256",
					"name": "",
					"type": "uint256"
				}
			],
			"stateMutability": "pure",
			"type": "function"
		},
		{
			"inputs": [
				{
					"internalType": "uint256",
					"name": "target",
					"type": "uint256"
				},
				{
					"internalType": "uint256",
					"name": "d",
					"type": "uint256"
				}
			],
			"name": "mul",
			"outputs": [
				{
					"internalType": "uint256",
					"name": "",
					"type": "uint256"
				}
			],
			"stateMutability": "pure",
			"type": "function"
		},
		{
			"inputs": [
				{
					"internalType": "uint256",
					"name": "target",
					"type": "uint256"
				},
				{
					"internalType": "uint256",
					"name": "d",
					"type": "uint256"
				}
			],
			"name": "mulCeil",
			"outputs": [
				{
					"internalType": "uint256",
					"name": "",
					"type": "uint256"
				}
			],
			"stateMutability": "pure",
			"type": "function"
		}
	]
}