{
	"data": {
		"bytecode": {
			"linkReferences": {
				"browser/github/DODOEX/dodo-smart-contract/contracts/lib/DODOMath.sol": {
					"DODOMath": [
						{
							"length": 20,
							"start": 3907
						},
						{
							"length": 20,
							"start": 4039
						},
						{
							"length": 20,
							"start": 5260
						},
						{
							"length": 20,
							"start": 6964
						},
						{
							"length": 20,
							"start": 8954
						},
						{
							"length": 20,
							"start": 11301
						},
						{
							"length": 20,
							"start": 11960
						},
						{
							"length": 20,
							"start": 13013
						},
						{
							"length": 20,
							"start": 14380
						},
						{
							"length": 20,
							"start": 14512
						}
					]
				}
			},
			"object": "608060405234801561001057600080fd5b50615fd5806100206000396000f3fe60806040523480156200001157600080fd5b5060043610620005a45760003560e01c80638a8c523c11620002f1578063c3a2a6651162000195578063ec2fd46d11620000ed578063f2220416116200009f578063f22204161462000b79578063f2fde38b1462000b90578063f3ae6c5f1462000ba7578063f67ed4481462000bbe578063f98bea151462000bd5578063ffa642251462000bec57620005a4565b8063ec2fd46d1462000b09578063ed0aa4281462000b13578063ee27c6891462000b2a578063ee5150b31462000b34578063f00f9a091462000b4b578063f0d8a7591462000b6257620005a4565b8063d4b970461162000147578063d4b970461462000ab3578063d689107c1462000abd578063dc4efae71462000ac7578063dd58b41c1462000ade578063e67ce7061462000ae8578063eab5d20e1462000aff57620005a4565b8063c3a2a6651462000a6a578063c59203af1462000a81578063c5bbffe81462000a8b578063c6b73cf91462000a95578063cc062b581462000a9f578063d47eaa371462000aa957620005a4565b8063a2801e161162000249578063ac1fbc9811620001fb578063ac1fbc981462000a21578063aceecbc81462000a2b578063b2094fd31462000a35578063bc7d679d1462000a3f578063c0a5f6ff1462000a49578063c0ffa1781462000a6057620005a4565b8063a2801e1614620009cb578063a3161a5614620009e2578063a598aca714620009ec578063aa06ce9b14620009f6578063ab44a7a31462000a0d578063ab67240b1462000a1757620005a4565b806395faa5f611620002a357806395faa5f6146200094e57806397316ad814620009655780639767d30a146200097c5780639a72b0b614620009935780639b020fba14620009aa5780639cd7689b14620009b457620005a4565b80638a8c523c14620008eb5780638dae733314620008f55780638ff5e742146200090c57806390cbf82214620009165780639299eb301462000920578063947cf92b146200093757620005a4565b806336a53bbb1162000459578063648a4fac11620003b1578063796da7af1162000363578063796da7af14620008885780637adbf97314620008925780637aed942d14620008a95780637c9b8e8914620008c05780638456db1514620008ca578063892daf0514620008d457620005a4565b8063648a4fac146200081657806367de8be9146200082057806368be20ad14620008375780636e9f7f49146200085d5780636ec6a58d146200087457806373a2ab7c146200087e57620005a4565b80634a248d2a116200040b5780634a248d2a14620007c05780634de4527e14620007ca5780634e71e0c814620007d457806354fd4d5014620007de5780635bb7552a14620007e85780635f179f6414620007ff57620005a4565b806336a53bbb146200074957806336ac41a81462000760578063387b0c11146200076a5780633960f14214620007815780634322ec83146200078b57806343a73976146200079557620005a4565b8063165cd1a7116200050d5780631f3c156e11620004bf5780631f3c156e1462000700578063245c9685146200070a578063247f993b146200071457806327bed8ee146200071e5780632aa82c65146200073557806334813299146200073f57620005a4565b8063165cd1a7146200068e5780631769ddaa14620006a557806317700f0114620006af57806317be952e14620006b957806318c0bbe414620006d25780631e34b9cc14620006e957620005a4565b80630e6518e911620005675780630e6518e91462000629578063108db74414620006335780631184d8be146200064a57806313c57624146200065457806313ea5d29146200065e57806316048bc4146200067557620005a4565b806304512dc414620005a95780630923160214620005d85780630beea43f14620005f15780630c9f7bd014620006085780630cd1667d146200061f575b600080fd5b620005c0620005ba36600462004500565b62000c06565b604051620005cf919062004e75565b60405180910390f35b620005ef620005e93660046200461d565b62000db8565b005b620005c062000602366004620046f3565b62000e3d565b620005c0620006193660046200461d565b62000e8d565b620005c06200108a565b620005c062001111565b620005c062000644366004620045ce565b62001117565b620005ef6200133a565b620005ef620013a9565b620005ef6200066f36600462004500565b620013fb565b6200067f6200144a565b604051620005cf91906200476a565b620005c06200069f3660046200464f565b62001459565b620005c06200152c565b620005ef62001532565b620006c362001584565b604051620005cf919062004834565b620005c0620006e33660046200461d565b6200158d565b620005c0620006fa36600462004500565b620015a6565b620005ef6200171f565b620005c062001a16565b620005ef62001a1c565b620005c06200072f3660046200461d565b62001a6b565b620005c062001a79565b620005c062001abf565b620005c06200075a36600462004500565b62001bb4565b620005ef62001c0e565b620005ef6200077b3660046200461d565b62001c7d565b6200067f62001ce4565b6200067f62001cf3565b620007ac620007a63660046200461d565b62001d02565b604051620005cf9695949392919062004ed7565b6200067f62001e82565b620005c062001e91565b620005ef62001e97565b620005c062001f28565b620005ef620007f93660046200461d565b62001f2d565b620005c062000810366004620045ce565b62001faa565b620005ef62002109565b620005ef620008313660046200461d565b62002239565b6200084e6200084836600462004500565b620022b2565b604051620005cf9190620047bb565b620005c06200086e366004620046f3565b620022c7565b6200084e62002399565b6200067f620023a9565b620005c0620023b8565b620005ef620008a336600462004500565b620023fe565b620005c0620008ba36600462004500565b6200244d565b620005c0620024d4565b6200067f620024da565b620005ef620008e53660046200461d565b620024e9565b620005ef62002548565b620005c06200090636600462004671565b620025b7565b6200084e62002875565b620005ef62002883565b620005ef6200093136600462004500565b620028ec565b620005c062000948366004620045ce565b6200293b565b620005c06200095f36600462004500565b62002b20565b620005ef620009763660046200461d565b62002b65565b620005c06200098d366004620046f3565b62002bc4565b620005c0620009a4366004620046f3565b62002be3565b620005c062002c89565b620005c0620009c53660046200464f565b62002c8f565b620005c0620009dc3660046200461d565b62002cd6565b6200084e62002ce3565b6200084e62002cec565b620005c062000a07366004620045ce565b62002cfc565b620005c062002e3d565b620005c062002e43565b6200067f62002f2f565b620005ef62002f3e565b620005c062002f8e565b620005ef62002f94565b620005c062000a5a3660046200461d565b62002fe6565b620005c062002ff4565b620005ef62000a7b366004620045ce565b62002ffa565b620005c0620031e9565b6200084e620031f6565b620005c062003206565b620005ef6200320c565b620005c062003277565b6200067f62003284565b6200067f62003293565b620005c062000ad8366004620046f3565b620032a2565b6200084e6200336a565b620005c062000af936600462004671565b6200337a565b620005c06200360f565b620005c062003615565b620005ef62000b243660046200461d565b6200361b565b620005c062003672565b620005c062000b453660046200461d565b62003776565b620005ef62000b5c3660046200451e565b620038bf565b620007ac62000b733660046200461d565b62003ac9565b620005ef62000b8a3660046200461d565b62003c42565b620005ef62000ba136600462004500565b62003cbb565b620005c062000bb83660046200461d565b62003d6c565b620005c062000bcf36600462004500565b62003d7a565b620005c062000be63660046200461d565b62003dad565b62000bf662003dbb565b604051620005cf92919062004e8e565b600154600090600160a01b900460ff161562000c3f5760405162461bcd60e51b815260040162000c369062004951565b60405180910390fd5b6001805460ff60a01b1916600160a01b1790819055600160b01b900460ff161562000c7e5760405162461bcd60e51b815260040162000c369062004bdc565b600062000c8b3362001bb4565b9050600062000c9a3362003d7a565b9050600062000ca98362000e8d565b90508281111562000cce5760405162461bcd60e51b815260040162000c369062004bb4565b60105462000ce3908463ffffffff62003e9016565b60105562000cf2338362003ebb565b62000d0f8562000d09858463ffffffff62003e9016565b62003f27565b62000d1a8162003f62565b846001600160a01b0316336001600160a01b031660008051602062005f608339815191526000868660405162000d5393929190620047d6565b60405180910390a3336001600160a01b031660008051602062005f8083398151915260008360405162000d88929190620047c6565b60405180910390a262000da2838263ffffffff62003e9016565b6001805460ff60a01b1916905595945050505050565b6006546001600160a01b031633148062000ddc57506000546001600160a01b031633145b62000dfb5760405162461bcd60e51b815260040162000c369062004a70565b7f808f99cfd15f1be6019f93dc76c81d5bd82e0b3e0b3d23a54f5a2e647a6cc3cc6002548260405162000e3092919062004e8e565b60405180910390a1600255565b600082841062000e615760405162461bcd60e51b815260040162000c369062004b2b565b600062000e75848663ffffffff62003e9016565b905062000e8483858362002be3565b95945050505050565b600060125482111562000eb45760405162461bcd60e51b815260040162000c369062004844565b6002600e5460ff16600281111562000ec857fe5b14156200108157600062000eea600f5460115462003e9090919063ffffffff16565b9050600062000ef8620023b8565b9050600062000f08838362003fba565b601254600d5460405163dc065bc960e01b815292935060009273__$6354afd0cb48a8813ef5f25e34162a67fc$__9263dc065bc99262000f4d92879060040162004e9c565b60206040518083038186803b15801562000f6657600080fd5b505af415801562000f7b573d6000803e3d6000fd5b505050506040513d601f19601f8201168201806040525081019062000fa1919062004636565b9050600073__$6354afd0cb48a8813ef5f25e34162a67fc$__63dc065bc962000fd68960125462003e9090919063ffffffff16565b600d54866040518463ffffffff1660e01b815260040162000ffa9392919062004e9c565b60206040518083038186803b1580156200101357600080fd5b505af415801562001028573d6000803e3d6000fd5b505050506040513d601f19601f820116820180604052508101906200104e919062004636565b90506200107462001066828963ffffffff62003fe716565b839063ffffffff62003e9016565b9550505050505062001085565b5060005b919050565b601354604080516318160ddd60e01b815290516000926001600160a01b0316916318160ddd916004808301926020929190829003018186803b158015620010d057600080fd5b505afa158015620010e5573d6000803e3d6000fd5b505050506040513d601f19601f820116820180604052508101906200110b919062004636565b90505b90565b60165481565b600154600090600160a01b900460ff1615620011475760405162461bcd60e51b815260040162000c369062004951565b6001805460ff60a01b1916600160a01b1790819055600160b01b900460ff1615620011865760405162461bcd60e51b815260040162000c369062004bdc565b60006200119262003dbb565b9150506000620011a162001a79565b905060008111620011c65760405162461bcd60e51b815260040162000c369062004974565b6000620011ec83620011df878563ffffffff6200401616565b9063ffffffff6200405616565b9050620011f93362003d7a565b8111156200121b5760405162461bcd60e51b815260040162000c369062004a2d565b6000620012288662000e8d565b90508581106200124c5760405162461bcd60e51b815260040162000c369062004bb4565b60105462001261908763ffffffff62003e9016565b60105562001270338362003ebb565b620012878762000d09888463ffffffff62003e9016565b620012928162003f62565b6001600160a01b0387163360008051602062005f608339815191526000620012c18a8663ffffffff62003e9016565b86604051620012d393929190620047d6565b60405180910390a3336001600160a01b031660008051602062005f8083398151915260008360405162001308929190620047c6565b60405180910390a262001322868263ffffffff62003e9016565b6001805460ff60a01b19169055979650505050505050565b6000546001600160a01b03163314620013675760405162461bcd60e51b815260040162000c369062004c53565b600154600160b01b900460ff1615620013945760405162461bcd60e51b815260040162000c369062004bdc565b6001805460ff60c01b1916600160c01b179055565b6006546001600160a01b0316331480620013cd57506000546001600160a01b031633145b620013ec5760405162461bcd60e51b815260040162000c369062004a70565b6001805460ff60c01b19169055565b6000546001600160a01b03163314620014285760405162461bcd60e51b815260040162000c369062004c53565b600780546001600160a01b0319166001600160a01b0392909216919091179055565b6000546001600160a01b031681565b60008062001466620023b8565b9050600073__$6354afd0cb48a8813ef5f25e34162a67fc$__63338dbf33858662001492868a62003fba565b6000600d546040518663ffffffff1660e01b8152600401620014b995949392919062004eb2565b60206040518083038186803b158015620014d257600080fd5b505af4158015620014e7573d6000803e3d6000fd5b505050506040513d601f19601f820116820180604052508101906200150d919062004636565b905062001521848263ffffffff62003e9016565b925050505b92915050565b60055481565b6006546001600160a01b03163314806200155657506000546001600160a01b031633145b620015755760405162461bcd60e51b815260040162000c369062004a70565b6001805460ff60c81b19169055565b600e5460ff1681565b60006200159a8262001d02565b50939695505050505050565b600154600090600160a01b900460ff1615620015d65760405162461bcd60e51b815260040162000c369062004951565b6001805460ff60a01b1916600160a01b1790819055600160b01b900460ff1615620016155760405162461bcd60e51b815260040162000c369062004bdc565b6000620016223362002b20565b9050600062001631336200244d565b90506000620016408362003776565b905082811115620016655760405162461bcd60e51b815260040162000c369062004bb4565b600f546200167a908463ffffffff62003e9016565b600f5562001689338362004088565b620016a685620016a0858463ffffffff62003e9016565b620040bc565b620016b181620040f7565b846001600160a01b0316336001600160a01b031660008051602062005f6083398151915260018686604051620016ea93929190620047d6565b60405180910390a3336001600160a01b031660008051602062005f8083398151915260018360405162000d88929190620047c6565b600154600160a01b900460ff16156200174c5760405162461bcd60e51b815260040162000c369062004951565b6001805460ff60a01b1916600160a01b1790819055600160b01b900460ff166200178a5760405162461bcd60e51b815260040162000c369062004e20565b3360009081526017602052604090205460ff1615620017bd5760405162461bcd60e51b815260040162000c369062004df7565b336000818152601760205260408120805460ff1916600117905590620017e39062003d7a565b90506000620017f2336200244d565b90506000821562001830576200182d6200180b62001a79565b60105462001820908663ffffffff6200401616565b9063ffffffff6200414416565b90505b600082156200185f576200185c620018476200108a565b600f5462001820908663ffffffff6200401616565b90505b60105462001874908363ffffffff62003e9016565b601055600f546200188c908263ffffffff62003e9016565b600f81905550620018b2620018a48460155462003fba565b839063ffffffff62003fe716565b9150620018d4620018c68560165462003fba565b829063ffffffff62003fe716565b9050620018e23382620040bc565b620018ee338362003f27565b601354604051632770a7eb60e21b81526001600160a01b0390911690639dc29fac906200192290339087906004016200477e565b600060405180830381600087803b1580156200193d57600080fd5b505af115801562001952573d6000803e3d6000fd5b5050601454604051632770a7eb60e21b81526001600160a01b039091169250639dc29fac91506200198a90339088906004016200477e565b600060405180830381600087803b158015620019a557600080fd5b505af1158015620019ba573d6000803e3d6000fd5b50505050336001600160a01b03167fbe5f7fe66d16c6a87bb5b8b08a96634fe4f1c2bac9e5e413efe41a782d4d0c438284604051620019fb92919062004e8e565b60405180910390a2505050506001805460ff60a01b19169055565b60105481565b6006546001600160a01b031633148062001a4057506000546001600160a01b031633145b62001a5f5760405162461bcd60e51b815260040162000c369062004a70565b6003805460ff19169055565b600062001526338362002cfc565b601454604080516318160ddd60e01b815290516000926001600160a01b0316916318160ddd916004808301926020929190829003018186803b158015620010d057600080fd5b60008062001adb600f5460115462003e9090919063ffffffff16565b9050600062001ae9620023b8565b9050600062001af9838362003fba565b601254600d5460405163dc065bc960e01b815292935060009273__$6354afd0cb48a8813ef5f25e34162a67fc$__9263dc065bc99262001b3e92879060040162004e9c565b60206040518083038186803b15801562001b5757600080fd5b505af415801562001b6c573d6000803e3d6000fd5b505050506040513d601f19601f8201168201806040525081019062001b92919062004636565b905062001bab6012548262003e9090919063ffffffff16565b94505050505090565b60008062001bc162001a79565b9050600062001bcf62003dbb565b9150508162001be45760009250505062001085565b62001c0682620018208362001bf98862003d7a565b9063ffffffff6200401616565b949350505050565b6000546001600160a01b0316331462001c3b5760405162461bcd60e51b815260040162000c369062004c53565b600154600160b01b900460ff161562001c685760405162461bcd60e51b815260040162000c369062004bdc565b6001805460ff60b81b1916600160b81b179055565b600154600160a01b900460ff161562001caa5760405162461bcd60e51b815260040162000c369062004951565b6001805460ff60a01b1916600160a01b17905562001cc9338262004172565b62001cd48162003f62565b506001805460ff60a01b19169055565b6006546001600160a01b031681565b6007546001600160a01b031681565b60008060008060008062001d1562003dbb565b809350819250505062001d2b87600b5462003fba565b945062001d3b87600c5462003fba565b9350600062001d638562001d568a8963ffffffff62003fe716565b9063ffffffff62003fe716565b90506000600e5460ff16600281111562001d7957fe5b141562001d985762001d8c818362002c8f565b96506001935062001e78565b6001600e5460ff16600281111562001dac57fe5b141562001dc25762001d8c816011548462000e3d565b6002600e5460ff16600281111562001dd657fe5b141562001e7857600062001df66012548562003e9090919063ffffffff16565b9050600062001e118460115462003e9090919063ffffffff16565b90508083101562001e375762001e2b8360125487620022c7565b98506002955062001e75565b8083141562001e4d578198506000955062001e75565b62001e6e620018a462001e67858463ffffffff62003e9016565b8662002c8f565b9850600195505b50505b5091939550919395565b6008546001600160a01b031681565b60025481565b6001546001600160a01b0316331462001ec45760405162461bcd60e51b815260040162000c369062004898565b600154600080546040516001600160a01b0393841693909116917f8be0079c531659141344cd1fd0a4f28419497f9722a3daafe3b4186f6b6457e091a360018054600080546001600160a01b03199081166001600160a01b03841617909155169055565b606590565b6000546001600160a01b0316331462001f5a5760405162461bcd60e51b815260040162000c369062004c53565b7f3ce6ea91adda496b7a0546fa6558e5b52c3a509de6015820efb00ca4020e0a07600b548260405162001f8f92919062004e8e565b60405180910390a1600b81905562001fa6620041e0565b5050565b600154600090600160a01b900460ff161562001fda5760405162461bcd60e51b815260040162000c369062004951565b6001805460ff60a01b1916600160a01b1790819055600160b81b900460ff16620020185760405162461bcd60e51b815260040162000c36906200491a565b60006200202462003dbb565b91505060006200203362001a79565b9050838162002056576200204e858463ffffffff62003fe716565b905062002077565b82156200207757620020748362001820878563ffffffff6200401616565b90505b62002083338662004172565b6200208f868262004275565b601054620020a4908663ffffffff62003fe716565b6010556040516001600160a01b0387169033907f18081cde2fa64894914e1080b98cca17bb6d1acf633e57f6e26ebdb945ad830b90620020eb906000908a908790620047d6565b60405180910390a36001805460ff60a01b1916905595945050505050565b6000546001600160a01b03163314620021365760405162461bcd60e51b815260040162000c369062004c53565b600154600160b01b900460ff1615620021635760405162461bcd60e51b815260040162000c369062004bdc565b6001805462ffffff60b81b1960ff60b01b19909116600160b01b1716905560006200218d6200108a565b905060006200219b62001a79565b90506010546012541115620021dd576000620021c560105460125462003e9090919063ffffffff16565b9050620021d38184620042a9565b60155550620021e4565b6012546010555b600f546011541115620022245760006200220c600f5460115462003e9090919063ffffffff16565b90506200221a8183620042a9565b601655506200222b565b601154600f555b5050600e805460ff19169055565b6000546001600160a01b03163314620022665760405162461bcd60e51b815260040162000c369062004c53565b7f023a40bebf7ac113f81c3d628073246cf9e0bc49980a9d6a9531498ce9e3dd1c600d54826040516200229b92919062004e8e565b60405180910390a1600d81905562001fa6620041e0565b60176020526000908152604090205460ff1681565b600080620022d4620023b8565b9050600073__$6354afd0cb48a8813ef5f25e34162a67fc$__63338dbf33858762002300868b620042ca565b6001600d546040518663ffffffff1660e01b81526004016200232795949392919062004eb2565b60206040518083038186803b1580156200234057600080fd5b505af415801562002355573d6000803e3d6000fd5b505050506040513d601f19601f820116820180604052508101906200237b919062004636565b90506200238f818663ffffffff62003e9016565b9695505050505050565b600154600160b01b900460ff1681565b600a546001600160a01b031681565b600a5460408051634c6afee560e11b815290516000926001600160a01b0316916398d5fdca916004808301926020929190829003018186803b158015620010d057600080fd5b6000546001600160a01b031633146200242b5760405162461bcd60e51b815260040162000c369062004c53565b600a80546001600160a01b0319166001600160a01b0392909216919091179055565b6013546040516370a0823160e01b81526000916001600160a01b0316906370a0823190620024809085906004016200476a565b60206040518083038186803b1580156200249957600080fd5b505afa158015620024ae573d6000803e3d6000fd5b505050506040513d601f19601f8201168201806040525081019062001526919062004636565b60125481565b6001546001600160a01b031681565b6000546001600160a01b03163314620025165760405162461bcd60e51b815260040162000c369062004c53565b600154600160b01b900460ff1615620025435760405162461bcd60e51b815260040162000c369062004bdc565b600455565b6000546001600160a01b03163314620025755760405162461bcd60e51b815260040162000c369062004c53565b600154600160b01b900460ff1615620025a25760405162461bcd60e51b815260040162000c369062004bdc565b6001805460ff60c81b1916600160c81b179055565b600154600090600160c81b900460ff16620025e65760405162461bcd60e51b815260040162000c369062004b62565b600354610100900460ff16620026105760405162461bcd60e51b815260040162000c369062004c01565b6002543a1115620026355760405162461bcd60e51b815260040162000c369062004dcd565b600154600160a01b900460ff1615620026625760405162461bcd60e51b815260040162000c369062004951565b6001805460ff60a01b1916600160a01b17905560008080808080620026878b62003ac9565b95509550955095509550955089861015620026b65760405162461bcd60e51b815260040162000c369062004d25565b620026c2338762003f27565b87156200272c5760405163301bc67560e11b815233906360378cea90620026f7906000908f908b908f908f90600401620047ee565b600060405180830381600087803b1580156200271257600080fd5b505af115801562002727573d6000803e3d6000fd5b505050505b62002738338c620042eb565b8315620027a45760075462002757906001600160a01b03168562003f27565b6007546040516001600160a01b03909116907fe4fed5362e2669c70e5da5a18942d1e617d8917f6adc0164d9668bd3a6d0cebe906200279b906000908890620047c6565b60405180910390a25b8160105414620027b45760108290555b80600f5414620027c457600f8190555b826002811115620027d157fe5b600e5460ff166002811115620027e357fe5b146200280957600e805484919060ff191660018360028111156200280357fe5b02179055505b620028148562003f62565b336001600160a01b03167fd8648b6ac54162763c86fd54bf2005af8ecd2f9cb273a5775921fd7f91e17b2d8c886040516200285192919062004e8e565b60405180910390a250506001805460ff60a01b191690555091979650505050505050565b600354610100900460ff1681565b6000546001600160a01b03163314620028b05760405162461bcd60e51b815260040162000c369062004c53565b600154600160b01b900460ff1615620028dd5760405162461bcd60e51b815260040162000c369062004bdc565b6003805460ff19166001179055565b6000546001600160a01b03163314620029195760405162461bcd60e51b815260040162000c369062004c53565b600680546001600160a01b0319166001600160a01b0392909216919091179055565b600154600090600160a01b900460ff16156200296b5760405162461bcd60e51b815260040162000c369062004951565b6001805460ff60a01b1916600160a01b1790819055600160b01b900460ff1615620029aa5760405162461bcd60e51b815260040162000c369062004bdc565b6000620029b662003dbb565b5090506000620029c56200108a565b905060008111620029ea5760405162461bcd60e51b815260040162000c3690620048bf565b600062002a0383620011df878563ffffffff6200401616565b905062002a10336200244d565b81111562002a325760405162461bcd60e51b815260040162000c369062004ce3565b600062002a3f8662003776565b90508581111562002a645760405162461bcd60e51b815260040162000c369062004bb4565b600f5462002a79908763ffffffff62003e9016565b600f5562002a88338362004088565b62002a9f87620016a0888463ffffffff62003e9016565b62002aaa81620040f7565b6001600160a01b0387163360008051602062005f60833981519152600162002ad98a8663ffffffff62003e9016565b8660405162002aeb93929190620047d6565b60405180910390a3336001600160a01b031660008051602062005f8083398151915260018360405162001308929190620047c6565b60008062002b2d6200108a565b9050600062002b3b62003dbb565b5090508162002b505760009250505062001085565b62001c0682620018208362001bf9886200244d565b6000546001600160a01b0316331462002b925760405162461bcd60e51b815260040162000c369062004c53565b600154600160b01b900460ff161562002bbf5760405162461bcd60e51b815260040162000c369062004bdc565b600555565b60008062002bd9848663ffffffff62003fe716565b905062000e848382865b60008062002bf0620023b8565b600d54604051637aa9261f60e11b815291925073__$6354afd0cb48a8813ef5f25e34162a67fc$__9163f5524c3e9162002c3591899189918991889160040162004f0f565b60206040518083038186803b15801562002c4e57600080fd5b505af415801562002c63573d6000803e3d6000fd5b505050506040513d601f19601f8201168201806040525081019062000e84919062004636565b60045481565b600081831062002cb35760405162461bcd60e51b815260040162000c369062004b2b565b600062002cc7838563ffffffff62003e9016565b905062001c0683848362002be3565b60006200159a8262003ac9565b60035460ff1681565b600154600160c01b900460ff1681565b600154600090600160a01b900460ff161562002d2c5760405162461bcd60e51b815260040162000c369062004951565b6001805460ff60a01b1916600160a01b1790819055600160c01b900460ff1662002d6a5760405162461bcd60e51b815260040162000c3690620048e3565b600062002d7662003dbb565b509050600062002d856200108a565b9050838162002da85762002da0858463ffffffff62003fe716565b905062002dc9565b821562002dc95762002dc68362001820878563ffffffff6200401616565b90505b62002dd53386620042eb565b62002de1868262004359565b600f5462002df6908663ffffffff62003fe716565b600f556040516001600160a01b0387169033907f18081cde2fa64894914e1080b98cca17bb6d1acf633e57f6e26ebdb945ad830b90620020eb906001908a908790620047d6565b600b5481565b60008062002e5f60105460125462003e9090919063ffffffff16565b9050600062002e6d620023b8565b9050600062002e7d8383620042a9565b601154600d5460405163dc065bc960e01b815292935060009273__$6354afd0cb48a8813ef5f25e34162a67fc$__9263dc065bc99262002ec292879060040162004e9c565b60206040518083038186803b15801562002edb57600080fd5b505af415801562002ef0573d6000803e3d6000fd5b505050506040513d601f19601f8201168201806040525081019062002f16919062004636565b905062001bab6011548262003e9090919063ffffffff16565b6014546001600160a01b031681565b6006546001600160a01b031633148062002f6257506000546001600160a01b031633145b62002f815760405162461bcd60e51b815260040162000c369062004a70565b6003805461ff0019169055565b600f5481565b6006546001600160a01b031633148062002fb857506000546001600160a01b031633145b62002fd75760405162461bcd60e51b815260040162000c369062004a70565b6001805460ff60b81b19169055565b600062001526338362001117565b600c5481565b6000546001600160a01b03163314620030275760405162461bcd60e51b815260040162000c369062004c53565b6008546001600160a01b0383811691161415620030fa5760115462003053908263ffffffff62003fe716565b6008546040516370a0823160e01b81526001600160a01b03909116906370a0823190620030859030906004016200476a565b60206040518083038186803b1580156200309e57600080fd5b505afa158015620030b3573d6000803e3d6000fd5b505050506040513d601f19601f82011682018060405250810190620030d9919062004636565b1015620030fa5760405162461bcd60e51b815260040162000c369062004b2b565b6009546001600160a01b0383811691161415620031cd5760125462003126908263ffffffff62003fe716565b6009546040516370a0823160e01b81526001600160a01b03909116906370a0823190620031589030906004016200476a565b60206040518083038186803b1580156200317157600080fd5b505afa15801562003186573d6000803e3d6000fd5b505050506040513d601f19601f82011682018060405250810190620031ac919062004636565b1015620031cd5760405162461bcd60e51b815260040162000c369062004844565b62001fa66001600160a01b038316338363ffffffff6200438d16565b60006200110b3362000c06565b600154600160b81b900460ff1681565b60155481565b6000546001600160a01b03163314620032395760405162461bcd60e51b815260040162000c369062004c53565b600154600160b01b900460ff1615620032665760405162461bcd60e51b815260040162000c369062004bdc565b6003805461ff001916610100179055565b60006200110b33620015a6565b6009546001600160a01b031681565b6013546001600160a01b031681565b600080620032af620023b8565b9050600073__$6354afd0cb48a8813ef5f25e34162a67fc$__63338dbf338587620032db868b62003fba565b6000600d546040518663ffffffff1660e01b81526004016200330295949392919062004eb2565b60206040518083038186803b1580156200331b57600080fd5b505af415801562003330573d6000803e3d6000fd5b505050506040513d601f19601f8201168201806040525081019062003356919062004636565b90506200238f858263ffffffff62003e9016565b600154600160c81b900460ff1681565b600154600090600160c81b900460ff16620033a95760405162461bcd60e51b815260040162000c369062004b62565b60035460ff16620033ce5760405162461bcd60e51b815260040162000c369062004e49565b6002543a1115620033f35760405162461bcd60e51b815260040162000c369062004dcd565b600154600160a01b900460ff1615620034205760405162461bcd60e51b815260040162000c369062004951565b6001805460ff60a01b1916600160a01b17905560008080808080620034458b62001d02565b95509550955095509550955089861115620034745760405162461bcd60e51b815260040162000c369062004d5c565b62003480338c620040bc565b8715620034ea5760405163301bc67560e11b815233906360378cea90620034b5906001908f908b908f908f90600401620047ee565b600060405180830381600087803b158015620034d057600080fd5b505af1158015620034e5573d6000803e3d6000fd5b505050505b620034f6338762004172565b8315620035625760075462003515906001600160a01b031685620040bc565b6007546040516001600160a01b03909116907fe4fed5362e2669c70e5da5a18942d1e617d8917f6adc0164d9668bd3a6d0cebe9062003559906001908890620047c6565b60405180910390a25b8160105414620035725760108290555b80600f54146200358257600f8190555b8260028111156200358f57fe5b600e5460ff166002811115620035a157fe5b14620035c757600e805484919060ff19166001836002811115620035c157fe5b02179055505b620035d285620040f7565b336001600160a01b03167fe93ad76094f247c0dafc1c61adc2187de1ac2738f7a3b49cb20b2263420251a38c886040516200285192919062004e8e565b60115481565b600d5481565b600154600160a01b900460ff1615620036485760405162461bcd60e51b815260040162000c369062004951565b6001805460ff60a01b1916600160a01b179055620036673382620042eb565b62001cd481620040f7565b60008060006200368162003dbb565b90925090506002600e5460ff1660028111156200369a57fe5b141562003720576000620036cc620036c36012546200182085866200401690919063ffffffff16565b601254620042a9565b9050620036fe620036e0600d548362003fba565b600d5462001d5690670de0b6b3a76400009063ffffffff62003e9016565b9050620037156200370e620023b8565b82620042a9565b93505050506200110e565b60006200374b620037426011546200182086876200401690919063ffffffff16565b601154620042a9565b90506200375f620036e0600d548362003fba565b9050620037156200376f620023b8565b8262003fba565b60006011548211156200379d5760405162461bcd60e51b815260040162000c369062004b2b565b6001600e5460ff166002811115620037b157fe5b141562001081576000620037d360105460125462003e9090919063ffffffff16565b90506000620037e1620023b8565b90506000620037f18383620042a9565b601154600d5460405163dc065bc960e01b815292935060009273__$6354afd0cb48a8813ef5f25e34162a67fc$__9263dc065bc9926200383692879060040162004e9c565b60206040518083038186803b1580156200384f57600080fd5b505af415801562003864573d6000803e3d6000fd5b505050506040513d601f19601f820116820180604052508101906200388a919062004636565b9050600073__$6354afd0cb48a8813ef5f25e34162a67fc$__63dc065bc962000fd68960115462003e9090919063ffffffff16565b600154600160a81b900460ff1615620038ec5760405162461bcd60e51b815260040162000c369062004b01565b6001805460ff60a81b1916600160a81b179055600080546001600160a01b03808d166001600160a01b031990921691909117808355604051911691907f8be0079c531659141344cd1fd0a4f28419497f9722a3daafe3b4186f6b6457e0908290a3600680546001600160a01b03199081166001600160a01b038c8116919091179092556007805482168b84161790556008805482168a841617908190556009805483168a8516179055600a8054909216888416179091556001805462ffffff60b81b1916815560028490556003805461010060ff1991821690931761ff00191692909217905560001960048190556005819055600b889055600c879055600d869055600e80549092169091556040519092919091169062003a0d90620044da565b62003a1991906200476a565b604051809103906000f08015801562003a36573d6000803e3d6000fd5b50601380546001600160a01b0319166001600160a01b0392831617905560095460405191169062003a6790620044da565b62003a7391906200476a565b604051809103906000f08015801562003a90573d6000803e3d6000fd5b50601480546001600160a01b0319166001600160a01b039290921691909117905562003abb620041e0565b505050505050505050505050565b60008060008060008062003adc62003dbb565b92509050866000600e5460ff16600281111562003af557fe5b141562003b145762003b08818462001459565b96506002935062003bf2565b6001600e5460ff16600281111562003b2857fe5b141562003bdc57600062003b486011548462003e9090919063ffffffff16565b9050600062003b638560125462003e9090919063ffffffff16565b90508183101562003b965762003b7d836011548662002bc4565b9850600195508089111562003b90578098505b62003bd4565b8183141562003bac578098506000955062003bd4565b62003bcd620018c662003bc6858563ffffffff62003e9016565b8762001459565b9850600295505b505062003bf2565b62003beb8160125485620032a2565b9650600293505b62003c0087600b5462003fba565b955062003c1087600c5462003fba565b945062003c368562003c29898963ffffffff62003e9016565b9063ffffffff62003e9016565b96505091939550919395565b6000546001600160a01b0316331462003c6f5760405162461bcd60e51b815260040162000c369062004c53565b7f6b04da3d58e4b37d99652babb3ea2bc25ce94379bfff3059f03d61b26c59e553600c548260405162003ca492919062004e8e565b60405180910390a1600c81905562001fa6620041e0565b6000546001600160a01b0316331462003ce85760405162461bcd60e51b815260040162000c369062004c53565b6001600160a01b03811662003d115760405162461bcd60e51b815260040162000c369062004b8d565b600080546040516001600160a01b03808516939216917fdcf55418cee3220104fef63f979ff3c4097ad240c0c43dcb33ce837748983e6291a3600180546001600160a01b0319166001600160a01b0392909216919091179055565b600062001526338362001faa565b6014546040516370a0823160e01b81526000916001600160a01b0316906370a0823190620024809085906004016200476a565b60006200152633836200293b565b601254601154600091829182600e5460ff16600281111562003dd957fe5b141562003df257600f5460105493509350505062003e8c565b6002600e5460ff16600281111562003e0657fe5b141562003e3e57600062003e1962001abf565b600f5490915062003e31848363ffffffff62003fe716565b9450945050505062003e8c565b6001600e5460ff16600281111562003e5257fe5b141562003e8957600062003e6562002e43565b905062003e79828263ffffffff62003fe716565b6010549450945050505062003e8c565b50505b9091565b60008282111562003eb55760405162461bcd60e51b815260040162000c369062004ade565b50900390565b601454604051632770a7eb60e21b81526001600160a01b0390911690639dc29fac9062003eef90859085906004016200477e565b600060405180830381600087803b15801562003f0a57600080fd5b505af115801562003f1f573d6000803e3d6000fd5b505050505050565b60095462003f46906001600160a01b0316838363ffffffff6200438d16565b60125462003f5b908263ffffffff62003e9016565b6012555050565b60105462003f77908263ffffffff62003fe716565b6010556040517fa259c93818139b6bc90fb80e8feb75122b42edaae49560f81392cf4e1946726e9062003faf90839060009062004e7e565b60405180910390a150565b6000670de0b6b3a764000062003fd7848463ffffffff6200401616565b8162003fdf57fe5b049392505050565b6000828201838110156200400f5760405162461bcd60e51b815260040162000c369062004c76565b9392505050565b600082620040275750600062001526565b828202828482816200403557fe5b04146200400f5760405162461bcd60e51b815260040162000c369062004d8c565b60008062004065848462004144565b9050828102840380156200407f5750600101905062001526565b50905062001526565b601354604051632770a7eb60e21b81526001600160a01b0390911690639dc29fac9062003eef90859085906004016200477e565b600854620040db906001600160a01b0316838363ffffffff6200438d16565b601154620040f0908263ffffffff62003e9016565b6011555050565b600f546200410c908263ffffffff62003fe716565b600f556040517fa259c93818139b6bc90fb80e8feb75122b42edaae49560f81392cf4e1946726e9062003faf90839060019062004e7e565b6000808211620041685760405162461bcd60e51b815260040162000c369062004a05565b81838162003fdf57fe5b6005546012546200418a908363ffffffff62003fe716565b1115620041ab5760405162461bcd60e51b815260040162000c369062004999565b600954620041cb906001600160a01b031683308463ffffffff620043ec16565b60125462003f5b908263ffffffff62003fe716565b6000670de0b6b3a7640000600d54106200420e5760405162461bcd60e51b815260040162000c369062004daf565b6000600d5411620042335760405162461bcd60e51b815260040162000c36906200487b565b670de0b6b3a764000062004255600c54600b5462003fe790919063ffffffff16565b106200110e5760405162461bcd60e51b815260040162000c369062004c2e565b6014546040516340c10f1960e01b81526001600160a01b03909116906340c10f199062003eef90859085906004016200477e565b60006200400f826200182085670de0b6b3a764000063ffffffff6200401616565b60006200400f670de0b6b3a7640000620011df858563ffffffff6200401616565b60045460115462004303908363ffffffff62003fe716565b1115620043245760405162461bcd60e51b815260040162000c369062004aa7565b60085462004344906001600160a01b031683308463ffffffff620043ec16565b601154620040f0908263ffffffff62003fe716565b6013546040516340c10f1960e01b81526001600160a01b03909116906340c10f199062003eef90859085906004016200477e565b620043e78363a9059cbb60e01b8484604051602401620043af9291906200477e565b60408051601f198184030181529190526020810180516001600160e01b03166001600160e01b03199093169290921790915262004416565b505050565b62004410846323b872dd60e01b858585604051602401620043af9392919062004797565b50505050565b60006060836001600160a01b0316836040516200443491906200472e565b6000604051808303816000865af19150503d806000811462004473576040519150601f19603f3d011682016040523d82523d6000602084013e62004478565b606091505b5091509150816200449d5760405162461bcd60e51b815260040162000c3690620049d0565b805115620044105780806020019051810190620044bb9190620045fb565b620044105760405162461bcd60e51b815260040162000c369062004c99565b61102d8062004f3383390190565b80356001600160a01b03811681146200152657600080fd5b60006020828403121562004512578081fd5b6200400f8383620044e8565b6000806000806000806000806000806101408b8d0312156200453e578586fd5b6200454a8c8c620044e8565b99506200455b8c60208d01620044e8565b98506200456c8c60408d01620044e8565b97506200457d8c60608d01620044e8565b96506200458e8c60808d01620044e8565b95506200459f8c60a08d01620044e8565b945060c08b0135935060e08b013592506101008b013591506101208b013590509295989b9194979a5092959850565b60008060408385031215620045e1578182fd5b620045ed8484620044e8565b946020939093013593505050565b6000602082840312156200460d578081fd5b815180151581146200400f578182fd5b6000602082840312156200462f578081fd5b5035919050565b60006020828403121562004648578081fd5b5051919050565b6000806040838503121562004662578182fd5b50508035926020909101359150565b6000806000806060858703121562004687578384fd5b8435935060208501359250604085013567ffffffffffffffff80821115620046ad578384fd5b81870188601f820112620046bf578485fd5b8035925081831115620046d0578485fd5b886020848301011115620046e2578485fd5b959894975050602090940194505050565b60008060006060848603121562004708578283fd5b505081359360208301359350604090920135919050565b600381106200472a57fe5b9052565b60008251815b8181101562004750576020818601810151858301520162004734565b818111156200475f5782828501525b509190910192915050565b6001600160a01b0391909116815260200190565b6001600160a01b03929092168252602082015260400190565b6001600160a01b039384168152919092166020820152604081019190915260600190565b901515815260200190565b9115158252602082015260400190565b92151583526020830191909152604082015260600190565b6000861515825285602083015284604083015260806060830152826080830152828460a084013781830160a090810191909152601f909201601f19160101949350505050565b602081016200152682846200471f565b6020808252601d908201527f444f444f5f51554f54455f42414c414e43455f4e4f545f454e4f554748000000604082015260600190565b60208082526003908201526204b3d360ec1b604082015260600190565b6020808252600d908201526c494e56414c49445f434c41494d60981b604082015260600190565b6020808252600a908201526904e4f5f424153455f4c560b41b604082015260600190565b60208082526018908201527f4445504f5349545f424153455f4e4f545f414c4c4f5745440000000000000000604082015260600190565b60208082526019908201527f4445504f5349545f51554f54455f4e4f545f414c4c4f57454400000000000000604082015260600190565b60208082526009908201526814915153951490539560ba1b604082015260600190565b6020808252600b908201526a04e4f5f51554f54455f4c560ac1b604082015260600190565b6020808252601c908201527f51554f54455f42414c414e43455f4c494d49545f455843454544454400000000604082015260600190565b6020808252818101527f5361666545524332303a206c6f772d6c6576656c2063616c6c206661696c6564604082015260600190565b6020808252600e908201526d2224ab24a224a723afa2a92927a960911b604082015260600190565b60208082526023908201527f4c505f51554f54455f4341504954414c5f42414c414e43455f4e4f545f454e4f6040820152620aa8e960eb1b606082015260800190565b60208082526017908201527f4e4f545f53555045525649534f525f4f525f4f574e4552000000000000000000604082015260600190565b6020808252601b908201527f424153455f42414c414e43455f4c494d49545f45584345454445440000000000604082015260600190565b60208082526009908201526829aaa12fa2a92927a960b91b604082015260600190565b60208082526010908201526f1113d113d7d25392551250531256915160821b604082015260600190565b6020808252601c908201527f444f444f5f424153455f42414c414e43455f4e4f545f454e4f55474800000000604082015260600190565b602080825260119082015270151490511157d393d517d0531313d5d151607a1b604082015260600190565b6020808252600d908201526c24a72b20a624a22fa7aba722a960991b604082015260600190565b6020808252600e908201526d1411539053151657d15610d1515160921b604082015260600190565b6020808252600b908201526a1113d113d7d0d313d4d15160aa1b604082015260600190565b60208082526013908201527214d15313125391d7d393d517d0531313d5d151606a1b604082015260600190565b6020808252600b908201526a4645455f524154453e3d3160a81b604082015260600190565b6020808252600990820152682727aa2fa7aba722a960b91b604082015260600190565b60208082526009908201526820a2222fa2a92927a960b91b604082015260600190565b6020808252602a908201527f5361666545524332303a204552433230206f7065726174696f6e20646964206e6040820152691bdd081cdd58d8d9595960b21b606082015260800190565b60208082526022908201527f4c505f424153455f4341504954414c5f42414c414e43455f4e4f545f454e4f5560408201526108e960f31b606082015260800190565b6020808252601c908201527f53454c4c5f424153455f524543454956455f4e4f545f454e4f55474800000000604082015260600190565b602080825260169082015275084aab2be8482a68abe869ea6a8bea89e9ebe9aaa86960531b604082015260600190565b60208082526009908201526826aaa62fa2a92927a960b91b604082015260600190565b6020808252600490820152634b3e3d3160e01b604082015260600190565b60208082526010908201526f11d054d7d4149250d157d15610d1515160821b604082015260600190565b6020808252600f908201526e1053149150511657d0d31052535151608a1b604082015260600190565b6020808252600f908201526e1113d113d7d393d517d0d313d4d151608a1b604082015260600190565b602080825260129082015271109556525391d7d393d517d0531313d5d15160721b604082015260600190565b90815260200190565b9182521515602082015260400190565b918252602082015260400190565b9283526020830191909152604082015260600190565b9485526020850193909352604084019190915215156060830152608082015260a00190565b868152602081018690526040810185905260c0810162004efb60608301866200471f565b608082019390935260a00152949350505050565b948552602085019390935260408401919091526060830152608082015260a0019056fe60c060405260036080819052620444c560ec1b60a0908152620000269160029190620000c6565b503480156200003457600080fd5b506040516200102d3803806200102d83398101604081905262000057916200016b565b600080546001600160a01b03191633178082556040516001600160a01b039190911691907f8be0079c531659141344cd1fd0a4f28419497f9722a3daafe3b4186f6b6457e0908290a3600380546001600160a01b0319166001600160a01b03929092169190911790556200019b565b828054600181600116156101000203166002900490600052602060002090601f016020900481019282601f106200010957805160ff191683800117855562000139565b8280016001018555821562000139579182015b82811115620001395782518255916020019190600101906200011c565b50620001479291506200014b565b5090565b6200016891905b8082111562000147576000815560010162000152565b90565b6000602082840312156200017d578081fd5b81516001600160a01b038116811462000194578182fd5b9392505050565b610e8280620001ab6000396000f3fe608060405234801561001057600080fd5b50600436106101005760003560e01c80634e71e0c8116100975780639dc29fac116100665780639dc29fac146101dd578063a9059cbb146101f0578063dd62ed3e14610203578063f2fde38b1461021657610100565b80634e71e0c8146101b257806370a08231146101ba5780638456db15146101cd57806395d89b41146101d557610100565b806318160ddd116100d357806318160ddd1461016057806323b872dd14610175578063313ce5671461018857806340c10f191461019d57610100565b806306fdde0314610105578063095ea7b31461012357806313096a411461014357806316048bc414610158575b600080fd5b61010d610229565b60405161011a9190610c89565b60405180910390f35b610136610131366004610b56565b6102f6565b60405161011a9190610c7e565b61014b610361565b60405161011a9190610c6a565b61014b610370565b61016861037f565b60405161011a9190610dcd565b610136610183366004610b16565b610385565b610190610509565b60405161011a9190610dd6565b6101b06101ab366004610b56565b61058b565b005b6101b061068e565b6101686101c8366004610ac7565b61071c565b61014b610737565b61010d610746565b6101b06101eb366004610b56565b6107d1565b6101366101fe366004610b56565b6108c8565b610168610211366004610ae2565b610986565b6101b0610224366004610ac7565b6109b1565b604080518082018252600f81526e5f444f444f5f4c505f544f4b454e5f60881b602082015260035482516306fdde0360e01b815292516060936001600160a01b03909216916306fdde03916004808301926000929190829003018186803b15801561029357600080fd5b505afa1580156102a7573d6000803e3d6000fd5b505050506040513d6000823e601f3d908101601f191682016040526102cf9190810190610b80565b816040516020016102e1929190610c3c565b60405160208183030381529060405291505090565b3360008181526006602090815260408083206001600160a01b038716808552925280832085905551919290917f8c5be1e5ebec7d5bd14f71427d1e84f3dd0314c0f7b2291e5b200ac8c7c3b9259061034f908690610dcd565b60405180910390a35060015b92915050565b6003546001600160a01b031681565b6000546001600160a01b031681565b60045481565b6001600160a01b0383166000908152600560205260408120548211156103c65760405162461bcd60e51b81526004016103bd90610d5b565b60405180910390fd5b6001600160a01b03841660009081526006602090815260408083203384529091529020548211156104095760405162461bcd60e51b81526004016103bd90610ce3565b6001600160a01b038416600090815260056020526040902054610432908363ffffffff610a5c16565b6001600160a01b038086166000908152600560205260408082209390935590851681522054610467908363ffffffff610a8416565b6001600160a01b0380851660009081526005602090815260408083209490945591871681526006825282812033825290915220546104ab908363ffffffff610a5c16565b6001600160a01b038086166000818152600660209081526040808320338452909152908190209390935591519085169190600080516020610e2d833981519152906104f7908690610dcd565b60405180910390a35060019392505050565b6003546040805163313ce56760e01b815290516000926001600160a01b03169163313ce567916004808301926020929190829003018186803b15801561054e57600080fd5b505afa158015610562573d6000803e3d6000fd5b505050506040513d601f19601f820116820180604052508101906105869190610c1b565b905090565b6000546001600160a01b031633146105b55760405162461bcd60e51b81526004016103bd90610d87565b6001600160a01b0382166000908152600560205260409020546105de908263ffffffff610a8416565b6001600160a01b03831660009081526005602052604090205560045461060a908263ffffffff610a8416565b6004556040516001600160a01b038316907f0f6798a560793a54c3bcfe86a93cde1e73087d944c0ea20544137d412139688590610648908490610dcd565b60405180910390a2816001600160a01b031660006001600160a01b0316600080516020610e2d833981519152836040516106829190610dcd565b60405180910390a35050565b6001546001600160a01b031633146106b85760405162461bcd60e51b81526004016103bd90610cbc565b600154600080546040516001600160a01b0393841693909116917f8be0079c531659141344cd1fd0a4f28419497f9722a3daafe3b4186f6b6457e091a360018054600080546001600160a01b03199081166001600160a01b03841617909155169055565b6001600160a01b031660009081526005602052604090205490565b6001546001600160a01b031681565b6002805460408051602060018416156101000260001901909316849004601f810184900484028201840190925281815292918301828280156107c95780601f1061079e576101008083540402835291602001916107c9565b820191906000526020600020905b8154815290600101906020018083116107ac57829003601f168201915b505050505081565b6000546001600160a01b031633146107fb5760405162461bcd60e51b81526004016103bd90610d87565b6001600160a01b038216600090815260056020526040902054610824908263ffffffff610a5c16565b6001600160a01b038316600090815260056020526040902055600454610850908263ffffffff610a5c16565b6004556040516001600160a01b038316907fcc16f5dbb4873280815c1ee09dbd06736cffcc184412cf7a71a0fdb75d397ca59061088e908490610dcd565b60405180910390a260006001600160a01b0316826001600160a01b0316600080516020610e2d833981519152836040516106829190610dcd565b336000908152600560205260408120548211156108f75760405162461bcd60e51b81526004016103bd90610d5b565b33600090815260056020526040902054610917908363ffffffff610a5c16565b33600090815260056020526040808220929092556001600160a01b03851681522054610949908363ffffffff610a8416565b6001600160a01b038416600081815260056020526040908190209290925590513390600080516020610e2d8339815191529061034f908690610dcd565b6001600160a01b03918216600090815260066020908152604080832093909416825291909152205490565b6000546001600160a01b031633146109db5760405162461bcd60e51b81526004016103bd90610d87565b6001600160a01b038116610a015760405162461bcd60e51b81526004016103bd90610d34565b600080546040516001600160a01b03808516939216917fdcf55418cee3220104fef63f979ff3c4097ad240c0c43dcb33ce837748983e6291a3600180546001600160a01b0319166001600160a01b0392909216919091179055565b600082821115610a7e5760405162461bcd60e51b81526004016103bd90610d11565b50900390565b600082820183811015610aa95760405162461bcd60e51b81526004016103bd90610daa565b9392505050565b80356001600160a01b038116811461035b57600080fd5b600060208284031215610ad8578081fd5b610aa98383610ab0565b60008060408385031215610af4578081fd5b610afe8484610ab0565b9150610b0d8460208501610ab0565b90509250929050565b600080600060608486031215610b2a578081fd5b8335610b3581610e14565b92506020840135610b4581610e14565b929592945050506040919091013590565b60008060408385031215610b68578182fd5b610b728484610ab0565b946020939093013593505050565b600060208284031215610b91578081fd5b815167ffffffffffffffff80821115610ba8578283fd5b81840185601f820112610bb9578384fd5b8051925081831115610bc9578384fd5b604051601f8401601f191681016020018381118282101715610be9578586fd5b604052838152818401602001871015610c00578485fd5b610c11846020830160208501610de4565b9695505050505050565b600060208284031215610c2c578081fd5b815160ff81168114610aa9578182fd5b60008351610c4e818460208801610de4565b8351908301610c61828260208801610de4565b01949350505050565b6001600160a01b0391909116815260200190565b901515815260200190565b6000602082528251806020840152610ca8816040850160208701610de4565b601f01601f19169190910160400192915050565b6020808252600d908201526c494e56414c49445f434c41494d60981b604082015260600190565b60208082526014908201527308298989eae829c868abe9c9ea8be8a9c9eaa8e960631b604082015260600190565b60208082526009908201526829aaa12fa2a92927a960b91b604082015260600190565b6020808252600d908201526c24a72b20a624a22fa7aba722a960991b604082015260600190565b6020808252601290820152710848298829c868abe9c9ea8be8a9c9eaa8e960731b604082015260600190565b6020808252600990820152682727aa2fa7aba722a960b91b604082015260600190565b60208082526009908201526820a2222fa2a92927a960b91b604082015260600190565b90815260200190565b60ff91909116815260200190565b60005b83811015610dff578181015183820152602001610de7565b83811115610e0e576000848401525b50505050565b6001600160a01b0381168114610e2957600080fd5b5056feddf252ad1be2c89b69c2b068fc378daa952ba7f163c4a11628f55a4df523b3efa2646970667358221220dfb927a12ffaa7d6edb2a0ddd4ea8c95c51949284283417f092685bb5ae9119464736f6c63430006090033e89c586bd81ee35a18f7eac22a732b56e589a2821497cce12a0208828540a36d581f351e2bdb9fa9021bb2a24def989f06ac236f8a92aac14bcbc618ddf3826aa26469706673582212203f01a7cac637a5166a6d64c8f3e7d82370cf14c377f6e54ce106086b2a4ea8fd64736f6c63430006090033",
			"opcodes": "PUSH1 0x80 PUSH1 0x40 MSTORE CALLVALUE DUP1 ISZERO PUSH2 0x10 JUMPI PUSH1 0x0 DUP1 REVERT JUMPDEST POP PUSH2 0x5FD5 DUP1 PUSH2 0x20 PUSH1 0x0 CODECOPY PUSH1 0x0 RETURN INVALID PUSH1 0x80 PUSH1 0x40 MSTORE CALLVALUE DUP1 ISZERO PUSH3 0x11 JUMPI PUSH1 0x0 DUP1 REVERT JUMPDEST POP PUSH1 0x4 CALLDATASIZE LT PUSH3 0x5A4 JUMPI PUSH1 0x0 CALLDATALOAD PUSH1 0xE0 SHR DUP1 PUSH4 0x8A8C523C GT PUSH3 0x2F1 JUMPI DUP1 PUSH4 0xC3A2A665 GT PUSH3 0x195 JUMPI DUP1 PUSH4 0xEC2FD46D GT PUSH3 0xED JUMPI DUP1 PUSH4 0xF2220416 GT PUSH3 0x9F JUMPI DUP1 PUSH4 0xF2220416 EQ PUSH3 0xB79 JUMPI DUP1 PUSH4 0xF2FDE38B EQ PUSH3 0xB90 JUMPI DUP1 PUSH4 0xF3AE6C5F EQ PUSH3 0xBA7 JUMPI DUP1 PUSH4 0xF67ED448 EQ PUSH3 0xBBE JUMPI DUP1 PUSH4 0xF98BEA15 EQ PUSH3 0xBD5 JUMPI DUP1 PUSH4 0xFFA64225 EQ PUSH3 0xBEC JUMPI PUSH3 0x5A4 JUMP JUMPDEST DUP1 PUSH4 0xEC2FD46D EQ PUSH3 0xB09 JUMPI DUP1 PUSH4 0xED0AA428 EQ PUSH3 0xB13 JUMPI DUP1 PUSH4 0xEE27C689 EQ PUSH3 0xB2A JUMPI DUP1 PUSH4 0xEE5150B3 EQ PUSH3 0xB34 JUMPI DUP1 PUSH4 0xF00F9A09 EQ PUSH3 0xB4B JUMPI DUP1 PUSH4 0xF0D8A759 EQ PUSH3 0xB62 JUMPI PUSH3 0x5A4 JUMP JUMPDEST DUP1 PUSH4 0xD4B97046 GT PUSH3 0x147 JUMPI DUP1 PUSH4 0xD4B97046 EQ PUSH3 0xAB3 JUMPI DUP1 PUSH4 0xD689107C EQ PUSH3 0xABD JUMPI DUP1 PUSH4 0xDC4EFAE7 EQ PUSH3 0xAC7 JUMPI DUP1 PUSH4 0xDD58B41C EQ PUSH3 0xADE JUMPI DUP1 PUSH4 0xE67CE706 EQ PUSH3 0xAE8 JUMPI DUP1 PUSH4 0xEAB5D20E EQ PUSH3 0xAFF JUMPI PUSH3 0x5A4 JUMP JUMPDEST DUP1 PUSH4 0xC3A2A665 EQ PUSH3 0xA6A JUMPI DUP1 PUSH4 0xC59203AF EQ PUSH3 0xA81 JUMPI DUP1 PUSH4 0xC5BBFFE8 EQ PUSH3 0xA8B JUMPI DUP1 PUSH4 0xC6B73CF9 EQ PUSH3 0xA95 JUMPI DUP1 PUSH4 0xCC062B58 EQ PUSH3 0xA9F JUMPI DUP1 PUSH4 0xD47EAA37 EQ PUSH3 0xAA9 JUMPI PUSH3 0x5A4 JUMP JUMPDEST DUP1 PUSH4 0xA2801E16 GT PUSH3 0x249 JUMPI DUP1 PUSH4 0xAC1FBC98 GT PUSH3 0x1FB JUMPI DUP1 PUSH4 0xAC1FBC98 EQ PUSH3 0xA21 JUMPI DUP1 PUSH4 0xACEECBC8 EQ PUSH3 0xA2B JUMPI DUP1 PUSH4 0xB2094FD3 EQ PUSH3 0xA35 JUMPI DUP1 PUSH4 0xBC7D679D EQ PUSH3 0xA3F JUMPI DUP1 PUSH4 0xC0A5F6FF EQ PUSH3 0xA49 JUMPI DUP1 PUSH4 0xC0FFA178 EQ PUSH3 0xA60 JUMPI PUSH3 0x5A4 JUMP JUMPDEST DUP1 PUSH4 0xA2801E16 EQ PUSH3 0x9CB JUMPI DUP1 PUSH4 0xA3161A56 EQ PUSH3 0x9E2 JUMPI DUP1 PUSH4 0xA598ACA7 EQ PUSH3 0x9EC JUMPI DUP1 PUSH4 0xAA06CE9B EQ PUSH3 0x9F6 JUMPI DUP1 PUSH4 0xAB44A7A3 EQ PUSH3 0xA0D JUMPI DUP1 PUSH4 0xAB67240B EQ PUSH3 0xA17 JUMPI PUSH3 0x5A4 JUMP JUMPDEST DUP1 PUSH4 0x95FAA5F6 GT PUSH3 0x2A3 JUMPI DUP1 PUSH4 0x95FAA5F6 EQ PUSH3 0x94E JUMPI DUP1 PUSH4 0x97316AD8 EQ PUSH3 0x965 JUMPI DUP1 PUSH4 0x9767D30A EQ PUSH3 0x97C JUMPI DUP1 PUSH4 0x9A72B0B6 EQ PUSH3 0x993 JUMPI DUP1 PUSH4 0x9B020FBA EQ PUSH3 0x9AA JUMPI DUP1 PUSH4 0x9CD7689B EQ PUSH3 0x9B4 JUMPI PUSH3 0x5A4 JUMP JUMPDEST DUP1 PUSH4 0x8A8C523C EQ PUSH3 0x8EB JUMPI DUP1 PUSH4 0x8DAE7333 EQ PUSH3 0x8F5 JUMPI DUP1 PUSH4 0x8FF5E742 EQ PUSH3 0x90C JUMPI DUP1 PUSH4 0x90CBF822 EQ PUSH3 0x916 JUMPI DUP1 PUSH4 0x9299EB30 EQ PUSH3 0x920 JUMPI DUP1 PUSH4 0x947CF92B EQ PUSH3 0x937 JUMPI PUSH3 0x5A4 JUMP JUMPDEST DUP1 PUSH4 0x36A53BBB GT PUSH3 0x459 JUMPI DUP1 PUSH4 0x648A4FAC GT PUSH3 0x3B1 JUMPI DUP1 PUSH4 0x796DA7AF GT PUSH3 0x363 JUMPI DUP1 PUSH4 0x796DA7AF EQ PUSH3 0x888 JUMPI DUP1 PUSH4 0x7ADBF973 EQ PUSH3 0x892 JUMPI DUP1 PUSH4 0x7AED942D EQ PUSH3 0x8A9 JUMPI DUP1 PUSH4 0x7C9B8E89 EQ PUSH3 0x8C0 JUMPI DUP1 PUSH4 0x8456DB15 EQ PUSH3 0x8CA JUMPI DUP1 PUSH4 0x892DAF05 EQ PUSH3 0x8D4 JUMPI PUSH3 0x5A4 JUMP JUMPDEST DUP1 PUSH4 0x648A4FAC EQ PUSH3 0x816 JUMPI DUP1 PUSH4 0x67DE8BE9 EQ PUSH3 0x820 JUMPI DUP1 PUSH4 0x68BE20AD EQ PUSH3 0x837 JUMPI DUP1 PUSH4 0x6E9F7F49 EQ PUSH3 0x85D JUMPI DUP1 PUSH4 0x6EC6A58D EQ PUSH3 0x874 JUMPI DUP1 PUSH4 0x73A2AB7C EQ PUSH3 0x87E JUMPI PUSH3 0x5A4 JUMP JUMPDEST DUP1 PUSH4 0x4A248D2A GT PUSH3 0x40B JUMPI DUP1 PUSH4 0x4A248D2A EQ PUSH3 0x7C0 JUMPI DUP1 PUSH4 0x4DE4527E EQ PUSH3 0x7CA JUMPI DUP1 PUSH4 0x4E71E0C8 EQ PUSH3 0x7D4 JUMPI DUP1 PUSH4 0x54FD4D50 EQ PUSH3 0x7DE JUMPI DUP1 PUSH4 0x5BB7552A EQ PUSH3 0x7E8 JUMPI DUP1 PUSH4 0x5F179F64 EQ PUSH3 0x7FF JUMPI PUSH3 0x5A4 JUMP JUMPDEST DUP1 PUSH4 0x36A53BBB EQ PUSH3 0x749 JUMPI DUP1 PUSH4 0x36AC41A8 EQ PUSH3 0x760 JUMPI DUP1 PUSH4 0x387B0C11 EQ PUSH3 0x76A JUMPI DUP1 PUSH4 0x3960F142 EQ PUSH3 0x781 JUMPI DUP1 PUSH4 0x4322EC83 EQ PUSH3 0x78B JUMPI DUP1 PUSH4 0x43A73976 EQ PUSH3 0x795 JUMPI PUSH3 0x5A4 JUMP JUMPDEST DUP1 PUSH4 0x165CD1A7 GT PUSH3 0x50D JUMPI DUP1 PUSH4 0x1F3C156E GT PUSH3 0x4BF JUMPI DUP1 PUSH4 0x1F3C156E EQ PUSH3 0x700 JUMPI DUP1 PUSH4 0x245C9685 EQ PUSH3 0x70A JUMPI DUP1 PUSH4 0x247F993B EQ PUSH3 0x714 JUMPI DUP1 PUSH4 0x27BED8EE EQ PUSH3 0x71E JUMPI DUP1 PUSH4 0x2AA82C65 EQ PUSH3 0x735 JUMPI DUP1 PUSH4 0x34813299 EQ PUSH3 0x73F JUMPI PUSH3 0x5A4 JUMP JUMPDEST DUP1 PUSH4 0x165CD1A7 EQ PUSH3 0x68E JUMPI DUP1 PUSH4 0x1769DDAA EQ PUSH3 0x6A5 JUMPI DUP1 PUSH4 0x17700F01 EQ PUSH3 0x6AF JUMPI DUP1 PUSH4 0x17BE952E EQ PUSH3 0x6B9 JUMPI DUP1 PUSH4 0x18C0BBE4 EQ PUSH3 0x6D2 JUMPI DUP1 PUSH4 0x1E34B9CC EQ PUSH3 0x6E9 JUMPI PUSH3 0x5A4 JUMP JUMPDEST DUP1 PUSH4 0xE6518E9 GT PUSH3 0x567 JUMPI DUP1 PUSH4 0xE6518E9 EQ PUSH3 0x629 JUMPI DUP1 PUSH4 0x108DB744 EQ PUSH3 0x633 JUMPI DUP1 PUSH4 0x1184D8BE EQ PUSH3 0x64A JUMPI DUP1 PUSH4 0x13C57624 EQ PUSH3 0x654 JUMPI DUP1 PUSH4 0x13EA5D29 EQ PUSH3 0x65E JUMPI DUP1 PUSH4 0x16048BC4 EQ PUSH3 0x675 JUMPI PUSH3 0x5A4 JUMP JUMPDEST DUP1 PUSH4 0x4512DC4 EQ PUSH3 0x5A9 JUMPI DUP1 PUSH4 0x9231602 EQ PUSH3 0x5D8 JUMPI DUP1 PUSH4 0xBEEA43F EQ PUSH3 0x5F1 JUMPI DUP1 PUSH4 0xC9F7BD0 EQ PUSH3 0x608 JUMPI DUP1 PUSH4 0xCD1667D EQ PUSH3 0x61F JUMPI JUMPDEST PUSH1 0x0 DUP1 REVERT JUMPDEST PUSH3 0x5C0 PUSH3 0x5BA CALLDATASIZE PUSH1 0x4 PUSH3 0x4500 JUMP JUMPDEST PUSH3 0xC06 JUMP JUMPDEST PUSH1 0x40 MLOAD PUSH3 0x5CF SWAP2 SWAP1 PUSH3 0x4E75 JUMP JUMPDEST PUSH1 0x40 MLOAD DUP1 SWAP2 SUB SWAP1 RETURN JUMPDEST PUSH3 0x5EF PUSH3 0x5E9 CALLDATASIZE PUSH1 0x4 PUSH3 0x461D JUMP JUMPDEST PUSH3 0xDB8 JUMP JUMPDEST STOP JUMPDEST PUSH3 0x5C0 PUSH3 0x602 CALLDATASIZE PUSH1 0x4 PUSH3 0x46F3 JUMP JUMPDEST PUSH3 0xE3D JUMP JUMPDEST PUSH3 0x5C0 PUSH3 0x619 CALLDATASIZE PUSH1 0x4 PUSH3 0x461D JUMP JUMPDEST PUSH3 0xE8D JUMP JUMPDEST PUSH3 0x5C0 PUSH3 0x108A JUMP JUMPDEST PUSH3 0x5C0 PUSH3 0x1111 JUMP JUMPDEST PUSH3 0x5C0 PUSH3 0x644 CALLDATASIZE PUSH1 0x4 PUSH3 0x45CE JUMP JUMPDEST PUSH3 0x1117 JUMP JUMPDEST PUSH3 0x5EF PUSH3 0x133A JUMP JUMPDEST PUSH3 0x5EF PUSH3 0x13A9 JUMP JUMPDEST PUSH3 0x5EF PUSH3 0x66F CALLDATASIZE PUSH1 0x4 PUSH3 0x4500 JUMP JUMPDEST PUSH3 0x13FB JUMP JUMPDEST PUSH3 0x67F PUSH3 0x144A JUMP JUMPDEST PUSH1 0x40 MLOAD PUSH3 0x5CF SWAP2 SWAP1 PUSH3 0x476A JUMP JUMPDEST PUSH3 0x5C0 PUSH3 0x69F CALLDATASIZE PUSH1 0x4 PUSH3 0x464F JUMP JUMPDEST PUSH3 0x1459 JUMP JUMPDEST PUSH3 0x5C0 PUSH3 0x152C JUMP JUMPDEST PUSH3 0x5EF PUSH3 0x1532 JUMP JUMPDEST PUSH3 0x6C3 PUSH3 0x1584 JUMP JUMPDEST PUSH1 0x40 MLOAD PUSH3 0x5CF SWAP2 SWAP1 PUSH3 0x4834 JUMP JUMPDEST PUSH3 0x5C0 PUSH3 0x6E3 CALLDATASIZE PUSH1 0x4 PUSH3 0x461D JUMP JUMPDEST PUSH3 0x158D JUMP JUMPDEST PUSH3 0x5C0 PUSH3 0x6FA CALLDATASIZE PUSH1 0x4 PUSH3 0x4500 JUMP JUMPDEST PUSH3 0x15A6 JUMP JUMPDEST PUSH3 0x5EF PUSH3 0x171F JUMP JUMPDEST PUSH3 0x5C0 PUSH3 0x1A16 JUMP JUMPDEST PUSH3 0x5EF PUSH3 0x1A1C JUMP JUMPDEST PUSH3 0x5C0 PUSH3 0x72F CALLDATASIZE PUSH1 0x4 PUSH3 0x461D JUMP JUMPDEST PUSH3 0x1A6B JUMP JUMPDEST PUSH3 0x5C0 PUSH3 0x1A79 JUMP JUMPDEST PUSH3 0x5C0 PUSH3 0x1ABF JUMP JUMPDEST PUSH3 0x5C0 PUSH3 0x75A CALLDATASIZE PUSH1 0x4 PUSH3 0x4500 JUMP JUMPDEST PUSH3 0x1BB4 JUMP JUMPDEST PUSH3 0x5EF PUSH3 0x1C0E JUMP JUMPDEST PUSH3 0x5EF PUSH3 0x77B CALLDATASIZE PUSH1 0x4 PUSH3 0x461D JUMP JUMPDEST PUSH3 0x1C7D JUMP JUMPDEST PUSH3 0x67F PUSH3 0x1CE4 JUMP JUMPDEST PUSH3 0x67F PUSH3 0x1CF3 JUMP JUMPDEST PUSH3 0x7AC PUSH3 0x7A6 CALLDATASIZE PUSH1 0x4 PUSH3 0x461D JUMP JUMPDEST PUSH3 0x1D02 JUMP JUMPDEST PUSH1 0x40 MLOAD PUSH3 0x5CF SWAP7 SWAP6 SWAP5 SWAP4 SWAP3 SWAP2 SWAP1 PUSH3 0x4ED7 JUMP JUMPDEST PUSH3 0x67F PUSH3 0x1E82 JUMP JUMPDEST PUSH3 0x5C0 PUSH3 0x1E91 JUMP JUMPDEST PUSH3 0x5EF PUSH3 0x1E97 JUMP JUMPDEST PUSH3 0x5C0 PUSH3 0x1F28 JUMP JUMPDEST PUSH3 0x5EF PUSH3 0x7F9 CALLDATASIZE PUSH1 0x4 PUSH3 0x461D JUMP JUMPDEST PUSH3 0x1F2D JUMP JUMPDEST PUSH3 0x5C0 PUSH3 0x810 CALLDATASIZE PUSH1 0x4 PUSH3 0x45CE JUMP JUMPDEST PUSH3 0x1FAA JUMP JUMPDEST PUSH3 0x5EF PUSH3 0x2109 JUMP JUMPDEST PUSH3 0x5EF PUSH3 0x831 CALLDATASIZE PUSH1 0x4 PUSH3 0x461D JUMP JUMPDEST PUSH3 0x2239 JUMP JUMPDEST PUSH3 0x84E PUSH3 0x848 CALLDATASIZE PUSH1 0x4 PUSH3 0x4500 JUMP JUMPDEST PUSH3 0x22B2 JUMP JUMPDEST PUSH1 0x40 MLOAD PUSH3 0x5CF SWAP2 SWAP1 PUSH3 0x47BB JUMP JUMPDEST PUSH3 0x5C0 PUSH3 0x86E CALLDATASIZE PUSH1 0x4 PUSH3 0x46F3 JUMP JUMPDEST PUSH3 0x22C7 JUMP JUMPDEST PUSH3 0x84E PUSH3 0x2399 JUMP JUMPDEST PUSH3 0x67F PUSH3 0x23A9 JUMP JUMPDEST PUSH3 0x5C0 PUSH3 0x23B8 JUMP JUMPDEST PUSH3 0x5EF PUSH3 0x8A3 CALLDATASIZE PUSH1 0x4 PUSH3 0x4500 JUMP JUMPDEST PUSH3 0x23FE JUMP JUMPDEST PUSH3 0x5C0 PUSH3 0x8BA CALLDATASIZE PUSH1 0x4 PUSH3 0x4500 JUMP JUMPDEST PUSH3 0x244D JUMP JUMPDEST PUSH3 0x5C0 PUSH3 0x24D4 JUMP JUMPDEST PUSH3 0x67F PUSH3 0x24DA JUMP JUMPDEST PUSH3 0x5EF PUSH3 0x8E5 CALLDATASIZE PUSH1 0x4 PUSH3 0x461D JUMP JUMPDEST PUSH3 0x24E9 JUMP JUMPDEST PUSH3 0x5EF PUSH3 0x2548 JUMP JUMPDEST PUSH3 0x5C0 PUSH3 0x906 CALLDATASIZE PUSH1 0x4 PUSH3 0x4671 JUMP JUMPDEST PUSH3 0x25B7 JUMP JUMPDEST PUSH3 0x84E PUSH3 0x2875 JUMP JUMPDEST PUSH3 0x5EF PUSH3 0x2883 JUMP JUMPDEST PUSH3 0x5EF PUSH3 0x931 CALLDATASIZE PUSH1 0x4 PUSH3 0x4500 JUMP JUMPDEST PUSH3 0x28EC JUMP JUMPDEST PUSH3 0x5C0 PUSH3 0x948 CALLDATASIZE PUSH1 0x4 PUSH3 0x45CE JUMP JUMPDEST PUSH3 0x293B JUMP JUMPDEST PUSH3 0x5C0 PUSH3 0x95F CALLDATASIZE PUSH1 0x4 PUSH3 0x4500 JUMP JUMPDEST PUSH3 0x2B20 JUMP JUMPDEST PUSH3 0x5EF PUSH3 0x976 CALLDATASIZE PUSH1 0x4 PUSH3 0x461D JUMP JUMPDEST PUSH3 0x2B65 JUMP JUMPDEST PUSH3 0x5C0 PUSH3 0x98D CALLDATASIZE PUSH1 0x4 PUSH3 0x46F3 JUMP JUMPDEST PUSH3 0x2BC4 JUMP JUMPDEST PUSH3 0x5C0 PUSH3 0x9A4 CALLDATASIZE PUSH1 0x4 PUSH3 0x46F3 JUMP JUMPDEST PUSH3 0x2BE3 JUMP JUMPDEST PUSH3 0x5C0 PUSH3 0x2C89 JUMP JUMPDEST PUSH3 0x5C0 PUSH3 0x9C5 CALLDATASIZE PUSH1 0x4 PUSH3 0x464F JUMP JUMPDEST PUSH3 0x2C8F JUMP JUMPDEST PUSH3 0x5C0 PUSH3 0x9DC CALLDATASIZE PUSH1 0x4 PUSH3 0x461D JUMP JUMPDEST PUSH3 0x2CD6 JUMP JUMPDEST PUSH3 0x84E PUSH3 0x2CE3 JUMP JUMPDEST PUSH3 0x84E PUSH3 0x2CEC JUMP JUMPDEST PUSH3 0x5C0 PUSH3 0xA07 CALLDATASIZE PUSH1 0x4 PUSH3 0x45CE JUMP JUMPDEST PUSH3 0x2CFC JUMP JUMPDEST PUSH3 0x5C0 PUSH3 0x2E3D JUMP JUMPDEST PUSH3 0x5C0 PUSH3 0x2E43 JUMP JUMPDEST PUSH3 0x67F PUSH3 0x2F2F JUMP JUMPDEST PUSH3 0x5EF PUSH3 0x2F3E JUMP JUMPDEST PUSH3 0x5C0 PUSH3 0x2F8E JUMP JUMPDEST PUSH3 0x5EF PUSH3 0x2F94 JUMP JUMPDEST PUSH3 0x5C0 PUSH3 0xA5A CALLDATASIZE PUSH1 0x4 PUSH3 0x461D JUMP JUMPDEST PUSH3 0x2FE6 JUMP JUMPDEST PUSH3 0x5C0 PUSH3 0x2FF4 JUMP JUMPDEST PUSH3 0x5EF PUSH3 0xA7B CALLDATASIZE PUSH1 0x4 PUSH3 0x45CE JUMP JUMPDEST PUSH3 0x2FFA JUMP JUMPDEST PUSH3 0x5C0 PUSH3 0x31E9 JUMP JUMPDEST PUSH3 0x84E PUSH3 0x31F6 JUMP JUMPDEST PUSH3 0x5C0 PUSH3 0x3206 JUMP JUMPDEST PUSH3 0x5EF PUSH3 0x320C JUMP JUMPDEST PUSH3 0x5C0 PUSH3 0x3277 JUMP JUMPDEST PUSH3 0x67F PUSH3 0x3284 JUMP JUMPDEST PUSH3 0x67F PUSH3 0x3293 JUMP JUMPDEST PUSH3 0x5C0 PUSH3 0xAD8 CALLDATASIZE PUSH1 0x4 PUSH3 0x46F3 JUMP JUMPDEST PUSH3 0x32A2 JUMP JUMPDEST PUSH3 0x84E PUSH3 0x336A JUMP JUMPDEST PUSH3 0x5C0 PUSH3 0xAF9 CALLDATASIZE PUSH1 0x4 PUSH3 0x4671 JUMP JUMPDEST PUSH3 0x337A JUMP JUMPDEST PUSH3 0x5C0 PUSH3 0x360F JUMP JUMPDEST PUSH3 0x5C0 PUSH3 0x3615 JUMP JUMPDEST PUSH3 0x5EF PUSH3 0xB24 CALLDATASIZE PUSH1 0x4 PUSH3 0x461D JUMP JUMPDEST PUSH3 0x361B JUMP JUMPDEST PUSH3 0x5C0 PUSH3 0x3672 JUMP JUMPDEST PUSH3 0x5C0 PUSH3 0xB45 CALLDATASIZE PUSH1 0x4 PUSH3 0x461D JUMP JUMPDEST PUSH3 0x3776 JUMP JUMPDEST PUSH3 0x5EF PUSH3 0xB5C CALLDATASIZE PUSH1 0x4 PUSH3 0x451E JUMP JUMPDEST PUSH3 0x38BF JUMP JUMPDEST PUSH3 0x7AC PUSH3 0xB73 CALLDATASIZE PUSH1 0x4 PUSH3 0x461D JUMP JUMPDEST PUSH3 0x3AC9 JUMP JUMPDEST PUSH3 0x5EF PUSH3 0xB8A CALLDATASIZE PUSH1 0x4 PUSH3 0x461D JUMP JUMPDEST PUSH3 0x3C42 JUMP JUMPDEST PUSH3 0x5EF PUSH3 0xBA1 CALLDATASIZE PUSH1 0x4 PUSH3 0x4500 JUMP JUMPDEST PUSH3 0x3CBB JUMP JUMPDEST PUSH3 0x5C0 PUSH3 0xBB8 CALLDATASIZE PUSH1 0x4 PUSH3 0x461D JUMP JUMPDEST PUSH3 0x3D6C JUMP JUMPDEST PUSH3 0x5C0 PUSH3 0xBCF CALLDATASIZE PUSH1 0x4 PUSH3 0x4500 JUMP JUMPDEST PUSH3 0x3D7A JUMP JUMPDEST PUSH3 0x5C0 PUSH3 0xBE6 CALLDATASIZE PUSH1 0x4 PUSH3 0x461D JUMP JUMPDEST PUSH3 0x3DAD JUMP JUMPDEST PUSH3 0xBF6 PUSH3 0x3DBB JUMP JUMPDEST PUSH1 0x40 MLOAD PUSH3 0x5CF SWAP3 SWAP2 SWAP1 PUSH3 0x4E8E JUMP JUMPDEST PUSH1 0x1 SLOAD PUSH1 0x0 SWAP1 PUSH1 0x1 PUSH1 0xA0 SHL SWAP1 DIV PUSH1 0xFF AND ISZERO PUSH3 0xC3F JUMPI PUSH1 0x40 MLOAD PUSH3 0x461BCD PUSH1 0xE5 SHL DUP2 MSTORE PUSH1 0x4 ADD PUSH3 0xC36 SWAP1 PUSH3 0x4951 JUMP JUMPDEST PUSH1 0x40 MLOAD DUP1 SWAP2 SUB SWAP1 REVERT JUMPDEST PUSH1 0x1 DUP1 SLOAD PUSH1 0xFF PUSH1 0xA0 SHL NOT AND PUSH1 0x1 PUSH1 0xA0 SHL OR SWAP1 DUP2 SWAP1 SSTORE PUSH1 0x1 PUSH1 0xB0 SHL SWAP1 DIV PUSH1 0xFF AND ISZERO PUSH3 0xC7E JUMPI PUSH1 0x40 MLOAD PUSH3 0x461BCD PUSH1 0xE5 SHL DUP2 MSTORE PUSH1 0x4 ADD PUSH3 0xC36 SWAP1 PUSH3 0x4BDC JUMP JUMPDEST PUSH1 0x0 PUSH3 0xC8B CALLER PUSH3 0x1BB4 JUMP JUMPDEST SWAP1 POP PUSH1 0x0 PUSH3 0xC9A CALLER PUSH3 0x3D7A JUMP JUMPDEST SWAP1 POP PUSH1 0x0 PUSH3 0xCA9 DUP4 PUSH3 0xE8D JUMP JUMPDEST SWAP1 POP DUP3 DUP2 GT ISZERO PUSH3 0xCCE JUMPI PUSH1 0x40 MLOAD PUSH3 0x461BCD PUSH1 0xE5 SHL DUP2 MSTORE PUSH1 0x4 ADD PUSH3 0xC36 SWAP1 PUSH3 0x4BB4 JUMP JUMPDEST PUSH1 0x10 SLOAD PUSH3 0xCE3 SWAP1 DUP5 PUSH4 0xFFFFFFFF PUSH3 0x3E90 AND JUMP JUMPDEST PUSH1 0x10 SSTORE PUSH3 0xCF2 CALLER DUP4 PUSH3 0x3EBB JUMP JUMPDEST PUSH3 0xD0F DUP6 PUSH3 0xD09 DUP6 DUP5 PUSH4 0xFFFFFFFF PUSH3 0x3E90 AND JUMP JUMPDEST PUSH3 0x3F27 JUMP JUMPDEST PUSH3 0xD1A DUP2 PUSH3 0x3F62 JUMP JUMPDEST DUP5 PUSH1 0x1 PUSH1 0x1 PUSH1 0xA0 SHL SUB AND CALLER PUSH1 0x1 PUSH1 0x1 PUSH1 0xA0 SHL SUB AND PUSH1 0x0 DUP1 MLOAD PUSH1 0x20 PUSH3 0x5F60 DUP4 CODECOPY DUP2 MLOAD SWAP2 MSTORE PUSH1 0x0 DUP7 DUP7 PUSH1 0x40 MLOAD PUSH3 0xD53 SWAP4 SWAP3 SWAP2 SWAP1 PUSH3 0x47D6 JUMP JUMPDEST PUSH1 0x40 MLOAD DUP1 SWAP2 SUB SWAP1 LOG3 CALLER PUSH1 0x1 PUSH1 0x1 PUSH1 0xA0 SHL SUB AND PUSH1 0x0 DUP1 MLOAD PUSH1 0x20 PUSH3 0x5F80 DUP4 CODECOPY DUP2 MLOAD SWAP2 MSTORE PUSH1 0x0 DUP4 PUSH1 0x40 MLOAD PUSH3 0xD88 SWAP3 SWAP2 SWAP1 PUSH3 0x47C6 JUMP JUMPDEST PUSH1 0x40 MLOAD DUP1 SWAP2 SUB SWAP1 LOG2 PUSH3 0xDA2 DUP4 DUP3 PUSH4 0xFFFFFFFF PUSH3 0x3E90 AND JUMP JUMPDEST PUSH1 0x1 DUP1 SLOAD PUSH1 0xFF PUSH1 0xA0 SHL NOT AND SWAP1 SSTORE SWAP6 SWAP5 POP POP POP POP POP JUMP JUMPDEST PUSH1 0x6 SLOAD PUSH1 0x1 PUSH1 0x1 PUSH1 0xA0 SHL SUB AND CALLER EQ DUP1 PUSH3 0xDDC JUMPI POP PUSH1 0x0 SLOAD PUSH1 0x1 PUSH1 0x1 PUSH1 0xA0 SHL SUB AND CALLER EQ JUMPDEST PUSH3 0xDFB JUMPI PUSH1 0x40 MLOAD PUSH3 0x461BCD PUSH1 0xE5 SHL DUP2 MSTORE PUSH1 0x4 ADD PUSH3 0xC36 SWAP1 PUSH3 0x4A70 JUMP JUMPDEST PUSH32 0x808F99CFD15F1BE6019F93DC76C81D5BD82E0B3E0B3D23A54F5A2E647A6CC3CC PUSH1 0x2 SLOAD DUP3 PUSH1 0x40 MLOAD PUSH3 0xE30 SWAP3 SWAP2 SWAP1 PUSH3 0x4E8E JUMP JUMPDEST PUSH1 0x40 MLOAD DUP1 SWAP2 SUB SWAP1 LOG1 PUSH1 0x2 SSTORE JUMP JUMPDEST PUSH1 0x0 DUP3 DUP5 LT PUSH3 0xE61 JUMPI PUSH1 0x40 MLOAD PUSH3 0x461BCD PUSH1 0xE5 SHL DUP2 MSTORE PUSH1 0x4 ADD PUSH3 0xC36 SWAP1 PUSH3 0x4B2B JUMP JUMPDEST PUSH1 0x0 PUSH3 0xE75 DUP5 DUP7 PUSH4 0xFFFFFFFF PUSH3 0x3E90 AND JUMP JUMPDEST SWAP1 POP PUSH3 0xE84 DUP4 DUP6 DUP4 PUSH3 0x2BE3 JUMP JUMPDEST SWAP6 SWAP5 POP POP POP POP POP JUMP JUMPDEST PUSH1 0x0 PUSH1 0x12 SLOAD DUP3 GT ISZERO PUSH3 0xEB4 JUMPI PUSH1 0x40 MLOAD PUSH3 0x461BCD PUSH1 0xE5 SHL DUP2 MSTORE PUSH1 0x4 ADD PUSH3 0xC36 SWAP1 PUSH3 0x4844 JUMP JUMPDEST PUSH1 0x2 PUSH1 0xE SLOAD PUSH1 0xFF AND PUSH1 0x2 DUP2 GT ISZERO PUSH3 0xEC8 JUMPI INVALID JUMPDEST EQ ISZERO PUSH3 0x1081 JUMPI PUSH1 0x0 PUSH3 0xEEA PUSH1 0xF SLOAD PUSH1 0x11 SLOAD PUSH3 0x3E90 SWAP1 SWAP2 SWAP1 PUSH4 0xFFFFFFFF AND JUMP JUMPDEST SWAP1 POP PUSH1 0x0 PUSH3 0xEF8 PUSH3 0x23B8 JUMP JUMPDEST SWAP1 POP PUSH1 0x0 PUSH3 0xF08 DUP4 DUP4 PUSH3 0x3FBA JUMP JUMPDEST PUSH1 0x12 SLOAD PUSH1 0xD SLOAD PUSH1 0x40 MLOAD PUSH4 0xDC065BC9 PUSH1 0xE0 SHL DUP2 MSTORE SWAP3 SWAP4 POP PUSH1 0x0 SWAP3 PUSH20 0x0 SWAP3 PUSH4 0xDC065BC9 SWAP3 PUSH3 0xF4D SWAP3 DUP8 SWAP1 PUSH1 0x4 ADD PUSH3 0x4E9C JUMP JUMPDEST PUSH1 0x20 PUSH1 0x40 MLOAD DUP1 DUP4 SUB DUP2 DUP7 DUP1 EXTCODESIZE ISZERO DUP1 ISZERO PUSH3 0xF66 JUMPI PUSH1 0x0 DUP1 REVERT JUMPDEST POP GAS DELEGATECALL ISZERO DUP1 ISZERO PUSH3 0xF7B JUMPI RETURNDATASIZE PUSH1 0x0 DUP1 RETURNDATACOPY RETURNDATASIZE PUSH1 0x0 REVERT JUMPDEST POP POP POP POP PUSH1 0x40 MLOAD RETURNDATASIZE PUSH1 0x1F NOT PUSH1 0x1F DUP3 ADD AND DUP3 ADD DUP1 PUSH1 0x40 MSTORE POP DUP2 ADD SWAP1 PUSH3 0xFA1 SWAP2 SWAP1 PUSH3 0x4636 JUMP JUMPDEST SWAP1 POP PUSH1 0x0 PUSH20 0x0 PUSH4 0xDC065BC9 PUSH3 0xFD6 DUP10 PUSH1 0x12 SLOAD PUSH3 0x3E90 SWAP1 SWAP2 SWAP1 PUSH4 0xFFFFFFFF AND JUMP JUMPDEST PUSH1 0xD SLOAD DUP7 PUSH1 0x40 MLOAD DUP5 PUSH4 0xFFFFFFFF AND PUSH1 0xE0 SHL DUP2 MSTORE PUSH1 0x4 ADD PUSH3 0xFFA SWAP4 SWAP3 SWAP2 SWAP1 PUSH3 0x4E9C JUMP JUMPDEST PUSH1 0x20 PUSH1 0x40 MLOAD DUP1 DUP4 SUB DUP2 DUP7 DUP1 EXTCODESIZE ISZERO DUP1 ISZERO PUSH3 0x1013 JUMPI PUSH1 0x0 DUP1 REVERT JUMPDEST POP GAS DELEGATECALL ISZERO DUP1 ISZERO PUSH3 0x1028 JUMPI RETURNDATASIZE PUSH1 0x0 DUP1 RETURNDATACOPY RETURNDATASIZE PUSH1 0x0 REVERT JUMPDEST POP POP POP POP PUSH1 0x40 MLOAD RETURNDATASIZE PUSH1 0x1F NOT PUSH1 0x1F DUP3 ADD AND DUP3 ADD DUP1 PUSH1 0x40 MSTORE POP DUP2 ADD SWAP1 PUSH3 0x104E SWAP2 SWAP1 PUSH3 0x4636 JUMP JUMPDEST SWAP1 POP PUSH3 0x1074 PUSH3 0x1066 DUP3 DUP10 PUSH4 0xFFFFFFFF PUSH3 0x3FE7 AND JUMP JUMPDEST DUP4 SWAP1 PUSH4 0xFFFFFFFF PUSH3 0x3E90 AND JUMP JUMPDEST SWAP6 POP POP POP POP POP POP PUSH3 0x1085 JUMP JUMPDEST POP PUSH1 0x0 JUMPDEST SWAP2 SWAP1 POP JUMP JUMPDEST PUSH1 0x13 SLOAD PUSH1 0x40 DUP1 MLOAD PUSH4 0x18160DDD PUSH1 0xE0 SHL DUP2 MSTORE SWAP1 MLOAD PUSH1 0x0 SWAP3 PUSH1 0x1 PUSH1 0x1 PUSH1 0xA0 SHL SUB AND SWAP2 PUSH4 0x18160DDD SWAP2 PUSH1 0x4 DUP1 DUP4 ADD SWAP3 PUSH1 0x20 SWAP3 SWAP2 SWAP1 DUP3 SWAP1 SUB ADD DUP2 DUP7 DUP1 EXTCODESIZE ISZERO DUP1 ISZERO PUSH3 0x10D0 JUMPI PUSH1 0x0 DUP1 REVERT JUMPDEST POP GAS STATICCALL ISZERO DUP1 ISZERO PUSH3 0x10E5 JUMPI RETURNDATASIZE PUSH1 0x0 DUP1 RETURNDATACOPY RETURNDATASIZE PUSH1 0x0 REVERT JUMPDEST POP POP POP POP PUSH1 0x40 MLOAD RETURNDATASIZE PUSH1 0x1F NOT PUSH1 0x1F DUP3 ADD AND DUP3 ADD DUP1 PUSH1 0x40 MSTORE POP DUP2 ADD SWAP1 PUSH3 0x110B SWAP2 SWAP1 PUSH3 0x4636 JUMP JUMPDEST SWAP1 POP JUMPDEST SWAP1 JUMP JUMPDEST PUSH1 0x16 SLOAD DUP2 JUMP JUMPDEST PUSH1 0x1 SLOAD PUSH1 0x0 SWAP1 PUSH1 0x1 PUSH1 0xA0 SHL SWAP1 DIV PUSH1 0xFF AND ISZERO PUSH3 0x1147 JUMPI PUSH1 0x40 MLOAD PUSH3 0x461BCD PUSH1 0xE5 SHL DUP2 MSTORE PUSH1 0x4 ADD PUSH3 0xC36 SWAP1 PUSH3 0x4951 JUMP JUMPDEST PUSH1 0x1 DUP1 SLOAD PUSH1 0xFF PUSH1 0xA0 SHL NOT AND PUSH1 0x1 PUSH1 0xA0 SHL OR SWAP1 DUP2 SWAP1 SSTORE PUSH1 0x1 PUSH1 0xB0 SHL SWAP1 DIV PUSH1 0xFF AND ISZERO PUSH3 0x1186 JUMPI PUSH1 0x40 MLOAD PUSH3 0x461BCD PUSH1 0xE5 SHL DUP2 MSTORE PUSH1 0x4 ADD PUSH3 0xC36 SWAP1 PUSH3 0x4BDC JUMP JUMPDEST PUSH1 0x0 PUSH3 0x1192 PUSH3 0x3DBB JUMP JUMPDEST SWAP2 POP POP PUSH1 0x0 PUSH3 0x11A1 PUSH3 0x1A79 JUMP JUMPDEST SWAP1 POP PUSH1 0x0 DUP2 GT PUSH3 0x11C6 JUMPI PUSH1 0x40 MLOAD PUSH3 0x461BCD PUSH1 0xE5 SHL DUP2 MSTORE PUSH1 0x4 ADD PUSH3 0xC36 SWAP1 PUSH3 0x4974 JUMP JUMPDEST PUSH1 0x0 PUSH3 0x11EC DUP4 PUSH3 0x11DF DUP8 DUP6 PUSH4 0xFFFFFFFF PUSH3 0x4016 AND JUMP JUMPDEST SWAP1 PUSH4 0xFFFFFFFF PUSH3 0x4056 AND JUMP JUMPDEST SWAP1 POP PUSH3 0x11F9 CALLER PUSH3 0x3D7A JUMP JUMPDEST DUP2 GT ISZERO PUSH3 0x121B JUMPI PUSH1 0x40 MLOAD PUSH3 0x461BCD PUSH1 0xE5 SHL DUP2 MSTORE PUSH1 0x4 ADD PUSH3 0xC36 SWAP1 PUSH3 0x4A2D JUMP JUMPDEST PUSH1 0x0 PUSH3 0x1228 DUP7 PUSH3 0xE8D JUMP JUMPDEST SWAP1 POP DUP6 DUP2 LT PUSH3 0x124C JUMPI PUSH1 0x40 MLOAD PUSH3 0x461BCD PUSH1 0xE5 SHL DUP2 MSTORE PUSH1 0x4 ADD PUSH3 0xC36 SWAP1 PUSH3 0x4BB4 JUMP JUMPDEST PUSH1 0x10 SLOAD PUSH3 0x1261 SWAP1 DUP8 PUSH4 0xFFFFFFFF PUSH3 0x3E90 AND JUMP JUMPDEST PUSH1 0x10 SSTORE PUSH3 0x1270 CALLER DUP4 PUSH3 0x3EBB JUMP JUMPDEST PUSH3 0x1287 DUP8 PUSH3 0xD09 DUP9 DUP5 PUSH4 0xFFFFFFFF PUSH3 0x3E90 AND JUMP JUMPDEST PUSH3 0x1292 DUP2 PUSH3 0x3F62 JUMP JUMPDEST PUSH1 0x1 PUSH1 0x1 PUSH1 0xA0 SHL SUB DUP8 AND CALLER PUSH1 0x0 DUP1 MLOAD PUSH1 0x20 PUSH3 0x5F60 DUP4 CODECOPY DUP2 MLOAD SWAP2 MSTORE PUSH1 0x0 PUSH3 0x12C1 DUP11 DUP7 PUSH4 0xFFFFFFFF PUSH3 0x3E90 AND JUMP JUMPDEST DUP7 PUSH1 0x40 MLOAD PUSH3 0x12D3 SWAP4 SWAP3 SWAP2 SWAP1 PUSH3 0x47D6 JUMP JUMPDEST PUSH1 0x40 MLOAD DUP1 SWAP2 SUB SWAP1 LOG3 CALLER PUSH1 0x1 PUSH1 0x1 PUSH1 0xA0 SHL SUB AND PUSH1 0x0 DUP1 MLOAD PUSH1 0x20 PUSH3 0x5F80 DUP4 CODECOPY DUP2 MLOAD SWAP2 MSTORE PUSH1 0x0 DUP4 PUSH1 0x40 MLOAD PUSH3 0x1308 SWAP3 SWAP2 SWAP1 PUSH3 0x47C6 JUMP JUMPDEST PUSH1 0x40 MLOAD DUP1 SWAP2 SUB SWAP1 LOG2 PUSH3 0x1322 DUP7 DUP3 PUSH4 0xFFFFFFFF PUSH3 0x3E90 AND JUMP JUMPDEST PUSH1 0x1 DUP1 SLOAD PUSH1 0xFF PUSH1 0xA0 SHL NOT AND SWAP1 SSTORE SWAP8 SWAP7 POP POP POP POP POP POP POP JUMP JUMPDEST PUSH1 0x0 SLOAD PUSH1 0x1 PUSH1 0x1 PUSH1 0xA0 SHL SUB AND CALLER EQ PUSH3 0x1367 JUMPI PUSH1 0x40 MLOAD PUSH3 0x461BCD PUSH1 0xE5 SHL DUP2 MSTORE PUSH1 0x4 ADD PUSH3 0xC36 SWAP1 PUSH3 0x4C53 JUMP JUMPDEST PUSH1 0x1 SLOAD PUSH1 0x1 PUSH1 0xB0 SHL SWAP1 DIV PUSH1 0xFF AND ISZERO PUSH3 0x1394 JUMPI PUSH1 0x40 MLOAD PUSH3 0x461BCD PUSH1 0xE5 SHL DUP2 MSTORE PUSH1 0x4 ADD PUSH3 0xC36 SWAP1 PUSH3 0x4BDC JUMP JUMPDEST PUSH1 0x1 DUP1 SLOAD PUSH1 0xFF PUSH1 0xC0 SHL NOT AND PUSH1 0x1 PUSH1 0xC0 SHL OR SWAP1 SSTORE JUMP JUMPDEST PUSH1 0x6 SLOAD PUSH1 0x1 PUSH1 0x1 PUSH1 0xA0 SHL SUB AND CALLER EQ DUP1 PUSH3 0x13CD JUMPI POP PUSH1 0x0 SLOAD PUSH1 0x1 PUSH1 0x1 PUSH1 0xA0 SHL SUB AND CALLER EQ JUMPDEST PUSH3 0x13EC JUMPI PUSH1 0x40 MLOAD PUSH3 0x461BCD PUSH1 0xE5 SHL DUP2 MSTORE PUSH1 0x4 ADD PUSH3 0xC36 SWAP1 PUSH3 0x4A70 JUMP JUMPDEST PUSH1 0x1 DUP1 SLOAD PUSH1 0xFF PUSH1 0xC0 SHL NOT AND SWAP1 SSTORE JUMP JUMPDEST PUSH1 0x0 SLOAD PUSH1 0x1 PUSH1 0x1 PUSH1 0xA0 SHL SUB AND CALLER EQ PUSH3 0x1428 JUMPI PUSH1 0x40 MLOAD PUSH3 0x461BCD PUSH1 0xE5 SHL DUP2 MSTORE PUSH1 0x4 ADD PUSH3 0xC36 SWAP1 PUSH3 0x4C53 JUMP JUMPDEST PUSH1 0x7 DUP1 SLOAD PUSH1 0x1 PUSH1 0x1 PUSH1 0xA0 SHL SUB NOT AND PUSH1 0x1 PUSH1 0x1 PUSH1 0xA0 SHL SUB SWAP3 SWAP1 SWAP3 AND SWAP2 SWAP1 SWAP2 OR SWAP1 SSTORE JUMP JUMPDEST PUSH1 0x0 SLOAD PUSH1 0x1 PUSH1 0x1 PUSH1 0xA0 SHL SUB AND DUP2 JUMP JUMPDEST PUSH1 0x0 DUP1 PUSH3 0x1466 PUSH3 0x23B8 JUMP JUMPDEST SWAP1 POP PUSH1 0x0 PUSH20 0x0 PUSH4 0x338DBF33 DUP6 DUP7 PUSH3 0x1492 DUP7 DUP11 PUSH3 0x3FBA JUMP JUMPDEST PUSH1 0x0 PUSH1 0xD SLOAD PUSH1 0x40 MLOAD DUP7 PUSH4 0xFFFFFFFF AND PUSH1 0xE0 SHL DUP2 MSTORE PUSH1 0x4 ADD PUSH3 0x14B9 SWAP6 SWAP5 SWAP4 SWAP3 SWAP2 SWAP1 PUSH3 0x4EB2 JUMP JUMPDEST PUSH1 0x20 PUSH1 0x40 MLOAD DUP1 DUP4 SUB DUP2 DUP7 DUP1 EXTCODESIZE ISZERO DUP1 ISZERO PUSH3 0x14D2 JUMPI PUSH1 0x0 DUP1 REVERT JUMPDEST POP GAS DELEGATECALL ISZERO DUP1 ISZERO PUSH3 0x14E7 JUMPI RETURNDATASIZE PUSH1 0x0 DUP1 RETURNDATACOPY RETURNDATASIZE PUSH1 0x0 REVERT JUMPDEST POP POP POP POP PUSH1 0x40 MLOAD RETURNDATASIZE PUSH1 0x1F NOT PUSH1 0x1F DUP3 ADD AND DUP3 ADD DUP1 PUSH1 0x40 MSTORE POP DUP2 ADD SWAP1 PUSH3 0x150D SWAP2 SWAP1 PUSH3 0x4636 JUMP JUMPDEST SWAP1 POP PUSH3 0x1521 DUP5 DUP3 PUSH4 0xFFFFFFFF PUSH3 0x3E90 AND JUMP JUMPDEST SWAP3 POP POP POP JUMPDEST SWAP3 SWAP2 POP POP JUMP JUMPDEST PUSH1 0x5 SLOAD DUP2 JUMP JUMPDEST PUSH1 0x6 SLOAD PUSH1 0x1 PUSH1 0x1 PUSH1 0xA0 SHL SUB AND CALLER EQ DUP1 PUSH3 0x1556 JUMPI POP PUSH1 0x0 SLOAD PUSH1 0x1 PUSH1 0x1 PUSH1 0xA0 SHL SUB AND CALLER EQ JUMPDEST PUSH3 0x1575 JUMPI PUSH1 0x40 MLOAD PUSH3 0x461BCD PUSH1 0xE5 SHL DUP2 MSTORE PUSH1 0x4 ADD PUSH3 0xC36 SWAP1 PUSH3 0x4A70 JUMP JUMPDEST PUSH1 0x1 DUP1 SLOAD PUSH1 0xFF PUSH1 0xC8 SHL NOT AND SWAP1 SSTORE JUMP JUMPDEST PUSH1 0xE SLOAD PUSH1 0xFF AND DUP2 JUMP JUMPDEST PUSH1 0x0 PUSH3 0x159A DUP3 PUSH3 0x1D02 JUMP JUMPDEST POP SWAP4 SWAP7 SWAP6 POP POP POP POP POP POP JUMP JUMPDEST PUSH1 0x1 SLOAD PUSH1 0x0 SWAP1 PUSH1 0x1 PUSH1 0xA0 SHL SWAP1 DIV PUSH1 0xFF AND ISZERO PUSH3 0x15D6 JUMPI PUSH1 0x40 MLOAD PUSH3 0x461BCD PUSH1 0xE5 SHL DUP2 MSTORE PUSH1 0x4 ADD PUSH3 0xC36 SWAP1 PUSH3 0x4951 JUMP JUMPDEST PUSH1 0x1 DUP1 SLOAD PUSH1 0xFF PUSH1 0xA0 SHL NOT AND PUSH1 0x1 PUSH1 0xA0 SHL OR SWAP1 DUP2 SWAP1 SSTORE PUSH1 0x1 PUSH1 0xB0 SHL SWAP1 DIV PUSH1 0xFF AND ISZERO PUSH3 0x1615 JUMPI PUSH1 0x40 MLOAD PUSH3 0x461BCD PUSH1 0xE5 SHL DUP2 MSTORE PUSH1 0x4 ADD PUSH3 0xC36 SWAP1 PUSH3 0x4BDC JUMP JUMPDEST PUSH1 0x0 PUSH3 0x1622 CALLER PUSH3 0x2B20 JUMP JUMPDEST SWAP1 POP PUSH1 0x0 PUSH3 0x1631 CALLER PUSH3 0x244D JUMP JUMPDEST SWAP1 POP PUSH1 0x0 PUSH3 0x1640 DUP4 PUSH3 0x3776 JUMP JUMPDEST SWAP1 POP DUP3 DUP2 GT ISZERO PUSH3 0x1665 JUMPI PUSH1 0x40 MLOAD PUSH3 0x461BCD PUSH1 0xE5 SHL DUP2 MSTORE PUSH1 0x4 ADD PUSH3 0xC36 SWAP1 PUSH3 0x4BB4 JUMP JUMPDEST PUSH1 0xF SLOAD PUSH3 0x167A SWAP1 DUP5 PUSH4 0xFFFFFFFF PUSH3 0x3E90 AND JUMP JUMPDEST PUSH1 0xF SSTORE PUSH3 0x1689 CALLER DUP4 PUSH3 0x4088 JUMP JUMPDEST PUSH3 0x16A6 DUP6 PUSH3 0x16A0 DUP6 DUP5 PUSH4 0xFFFFFFFF PUSH3 0x3E90 AND JUMP JUMPDEST PUSH3 0x40BC JUMP JUMPDEST PUSH3 0x16B1 DUP2 PUSH3 0x40F7 JUMP JUMPDEST DUP5 PUSH1 0x1 PUSH1 0x1 PUSH1 0xA0 SHL SUB AND CALLER PUSH1 0x1 PUSH1 0x1 PUSH1 0xA0 SHL SUB AND PUSH1 0x0 DUP1 MLOAD PUSH1 0x20 PUSH3 0x5F60 DUP4 CODECOPY DUP2 MLOAD SWAP2 MSTORE PUSH1 0x1 DUP7 DUP7 PUSH1 0x40 MLOAD PUSH3 0x16EA SWAP4 SWAP3 SWAP2 SWAP1 PUSH3 0x47D6 JUMP JUMPDEST PUSH1 0x40 MLOAD DUP1 SWAP2 SUB SWAP1 LOG3 CALLER PUSH1 0x1 PUSH1 0x1 PUSH1 0xA0 SHL SUB AND PUSH1 0x0 DUP1 MLOAD PUSH1 0x20 PUSH3 0x5F80 DUP4 CODECOPY DUP2 MLOAD SWAP2 MSTORE PUSH1 0x1 DUP4 PUSH1 0x40 MLOAD PUSH3 0xD88 SWAP3 SWAP2 SWAP1 PUSH3 0x47C6 JUMP JUMPDEST PUSH1 0x1 SLOAD PUSH1 0x1 PUSH1 0xA0 SHL SWAP1 DIV PUSH1 0xFF AND ISZERO PUSH3 0x174C JUMPI PUSH1 0x40 MLOAD PUSH3 0x461BCD PUSH1 0xE5 SHL DUP2 MSTORE PUSH1 0x4 ADD PUSH3 0xC36 SWAP1 PUSH3 0x4951 JUMP JUMPDEST PUSH1 0x1 DUP1 SLOAD PUSH1 0xFF PUSH1 0xA0 SHL NOT AND PUSH1 0x1 PUSH1 0xA0 SHL OR SWAP1 DUP2 SWAP1 SSTORE PUSH1 0x1 PUSH1 0xB0 SHL SWAP1 DIV PUSH1 0xFF AND PUSH3 0x178A JUMPI PUSH1 0x40 MLOAD PUSH3 0x461BCD PUSH1 0xE5 SHL DUP2 MSTORE PUSH1 0x4 ADD PUSH3 0xC36 SWAP1 PUSH3 0x4E20 JUMP JUMPDEST CALLER PUSH1 0x0 SWAP1 DUP2 MSTORE PUSH1 0x17 PUSH1 0x20 MSTORE PUSH1 0x40 SWAP1 KECCAK256 SLOAD PUSH1 0xFF AND ISZERO PUSH3 0x17BD JUMPI PUSH1 0x40 MLOAD PUSH3 0x461BCD PUSH1 0xE5 SHL DUP2 MSTORE PUSH1 0x4 ADD PUSH3 0xC36 SWAP1 PUSH3 0x4DF7 JUMP JUMPDEST CALLER PUSH1 0x0 DUP2 DUP2 MSTORE PUSH1 0x17 PUSH1 0x20 MSTORE PUSH1 0x40 DUP2 KECCAK256 DUP1 SLOAD PUSH1 0xFF NOT AND PUSH1 0x1 OR SWAP1 SSTORE SWAP1 PUSH3 0x17E3 SWAP1 PUSH3 0x3D7A JUMP JUMPDEST SWAP1 POP PUSH1 0x0 PUSH3 0x17F2 CALLER PUSH3 0x244D JUMP JUMPDEST SWAP1 POP PUSH1 0x0 DUP3 ISZERO PUSH3 0x1830 JUMPI PUSH3 0x182D PUSH3 0x180B PUSH3 0x1A79 JUMP JUMPDEST PUSH1 0x10 SLOAD PUSH3 0x1820 SWAP1 DUP7 PUSH4 0xFFFFFFFF PUSH3 0x4016 AND JUMP JUMPDEST SWAP1 PUSH4 0xFFFFFFFF PUSH3 0x4144 AND JUMP JUMPDEST SWAP1 POP JUMPDEST PUSH1 0x0 DUP3 ISZERO PUSH3 0x185F JUMPI PUSH3 0x185C PUSH3 0x1847 PUSH3 0x108A JUMP JUMPDEST PUSH1 0xF SLOAD PUSH3 0x1820 SWAP1 DUP7 PUSH4 0xFFFFFFFF PUSH3 0x4016 AND JUMP JUMPDEST SWAP1 POP JUMPDEST PUSH1 0x10 SLOAD PUSH3 0x1874 SWAP1 DUP4 PUSH4 0xFFFFFFFF PUSH3 0x3E90 AND JUMP JUMPDEST PUSH1 0x10 SSTORE PUSH1 0xF SLOAD PUSH3 0x188C SWAP1 DUP3 PUSH4 0xFFFFFFFF PUSH3 0x3E90 AND JUMP JUMPDEST PUSH1 0xF DUP2 SWAP1 SSTORE POP PUSH3 0x18B2 PUSH3 0x18A4 DUP5 PUSH1 0x15 SLOAD PUSH3 0x3FBA JUMP JUMPDEST DUP4 SWAP1 PUSH4 0xFFFFFFFF PUSH3 0x3FE7 AND JUMP JUMPDEST SWAP2 POP PUSH3 0x18D4 PUSH3 0x18C6 DUP6 PUSH1 0x16 SLOAD PUSH3 0x3FBA JUMP JUMPDEST DUP3 SWAP1 PUSH4 0xFFFFFFFF PUSH3 0x3FE7 AND JUMP JUMPDEST SWAP1 POP PUSH3 0x18E2 CALLER DUP3 PUSH3 0x40BC JUMP JUMPDEST PUSH3 0x18EE CALLER DUP4 PUSH3 0x3F27 JUMP JUMPDEST PUSH1 0x13 SLOAD PUSH1 0x40 MLOAD PUSH4 0x2770A7EB PUSH1 0xE2 SHL DUP2 MSTORE PUSH1 0x1 PUSH1 0x1 PUSH1 0xA0 SHL SUB SWAP1 SWAP2 AND SWAP1 PUSH4 0x9DC29FAC SWAP1 PUSH3 0x1922 SWAP1 CALLER SWAP1 DUP8 SWAP1 PUSH1 0x4 ADD PUSH3 0x477E JUMP JUMPDEST PUSH1 0x0 PUSH1 0x40 MLOAD DUP1 DUP4 SUB DUP2 PUSH1 0x0 DUP8 DUP1 EXTCODESIZE ISZERO DUP1 ISZERO PUSH3 0x193D JUMPI PUSH1 0x0 DUP1 REVERT JUMPDEST POP GAS CALL ISZERO DUP1 ISZERO PUSH3 0x1952 JUMPI RETURNDATASIZE PUSH1 0x0 DUP1 RETURNDATACOPY RETURNDATASIZE PUSH1 0x0 REVERT JUMPDEST POP POP PUSH1 0x14 SLOAD PUSH1 0x40 MLOAD PUSH4 0x2770A7EB PUSH1 0xE2 SHL DUP2 MSTORE PUSH1 0x1 PUSH1 0x1 PUSH1 0xA0 SHL SUB SWAP1 SWAP2 AND SWAP3 POP PUSH4 0x9DC29FAC SWAP2 POP PUSH3 0x198A SWAP1 CALLER SWAP1 DUP9 SWAP1 PUSH1 0x4 ADD PUSH3 0x477E JUMP JUMPDEST PUSH1 0x0 PUSH1 0x40 MLOAD DUP1 DUP4 SUB DUP2 PUSH1 0x0 DUP8 DUP1 EXTCODESIZE ISZERO DUP1 ISZERO PUSH3 0x19A5 JUMPI PUSH1 0x0 DUP1 REVERT JUMPDEST POP GAS CALL ISZERO DUP1 ISZERO PUSH3 0x19BA JUMPI RETURNDATASIZE PUSH1 0x0 DUP1 RETURNDATACOPY RETURNDATASIZE PUSH1 0x0 REVERT JUMPDEST POP POP POP POP CALLER PUSH1 0x1 PUSH1 0x1 PUSH1 0xA0 SHL SUB AND PUSH32 0xBE5F7FE66D16C6A87BB5B8B08A96634FE4F1C2BAC9E5E413EFE41A782D4D0C43 DUP3 DUP5 PUSH1 0x40 MLOAD PUSH3 0x19FB SWAP3 SWAP2 SWAP1 PUSH3 0x4E8E JUMP JUMPDEST PUSH1 0x40 MLOAD DUP1 SWAP2 SUB SWAP1 LOG2 POP POP POP POP PUSH1 0x1 DUP1 SLOAD PUSH1 0xFF PUSH1 0xA0 SHL NOT AND SWAP1 SSTORE JUMP JUMPDEST PUSH1 0x10 SLOAD DUP2 JUMP JUMPDEST PUSH1 0x6 SLOAD PUSH1 0x1 PUSH1 0x1 PUSH1 0xA0 SHL SUB AND CALLER EQ DUP1 PUSH3 0x1A40 JUMPI POP PUSH1 0x0 SLOAD PUSH1 0x1 PUSH1 0x1 PUSH1 0xA0 SHL SUB AND CALLER EQ JUMPDEST PUSH3 0x1A5F JUMPI PUSH1 0x40 MLOAD PUSH3 0x461BCD PUSH1 0xE5 SHL DUP2 MSTORE PUSH1 0x4 ADD PUSH3 0xC36 SWAP1 PUSH3 0x4A70 JUMP JUMPDEST PUSH1 0x3 DUP1 SLOAD PUSH1 0xFF NOT AND SWAP1 SSTORE JUMP JUMPDEST PUSH1 0x0 PUSH3 0x1526 CALLER DUP4 PUSH3 0x2CFC JUMP JUMPDEST PUSH1 0x14 SLOAD PUSH1 0x40 DUP1 MLOAD PUSH4 0x18160DDD PUSH1 0xE0 SHL DUP2 MSTORE SWAP1 MLOAD PUSH1 0x0 SWAP3 PUSH1 0x1 PUSH1 0x1 PUSH1 0xA0 SHL SUB AND SWAP2 PUSH4 0x18160DDD SWAP2 PUSH1 0x4 DUP1 DUP4 ADD SWAP3 PUSH1 0x20 SWAP3 SWAP2 SWAP1 DUP3 SWAP1 SUB ADD DUP2 DUP7 DUP1 EXTCODESIZE ISZERO DUP1 ISZERO PUSH3 0x10D0 JUMPI PUSH1 0x0 DUP1 REVERT JUMPDEST PUSH1 0x0 DUP1 PUSH3 0x1ADB PUSH1 0xF SLOAD PUSH1 0x11 SLOAD PUSH3 0x3E90 SWAP1 SWAP2 SWAP1 PUSH4 0xFFFFFFFF AND JUMP JUMPDEST SWAP1 POP PUSH1 0x0 PUSH3 0x1AE9 PUSH3 0x23B8 JUMP JUMPDEST SWAP1 POP PUSH1 0x0 PUSH3 0x1AF9 DUP4 DUP4 PUSH3 0x3FBA JUMP JUMPDEST PUSH1 0x12 SLOAD PUSH1 0xD SLOAD PUSH1 0x40 MLOAD PUSH4 0xDC065BC9 PUSH1 0xE0 SHL DUP2 MSTORE SWAP3 SWAP4 POP PUSH1 0x0 SWAP3 PUSH20 0x0 SWAP3 PUSH4 0xDC065BC9 SWAP3 PUSH3 0x1B3E SWAP3 DUP8 SWAP1 PUSH1 0x4 ADD PUSH3 0x4E9C JUMP JUMPDEST PUSH1 0x20 PUSH1 0x40 MLOAD DUP1 DUP4 SUB DUP2 DUP7 DUP1 EXTCODESIZE ISZERO DUP1 ISZERO PUSH3 0x1B57 JUMPI PUSH1 0x0 DUP1 REVERT JUMPDEST POP GAS DELEGATECALL ISZERO DUP1 ISZERO PUSH3 0x1B6C JUMPI RETURNDATASIZE PUSH1 0x0 DUP1 RETURNDATACOPY RETURNDATASIZE PUSH1 0x0 REVERT JUMPDEST POP POP POP POP PUSH1 0x40 MLOAD RETURNDATASIZE PUSH1 0x1F NOT PUSH1 0x1F DUP3 ADD AND DUP3 ADD DUP1 PUSH1 0x40 MSTORE POP DUP2 ADD SWAP1 PUSH3 0x1B92 SWAP2 SWAP1 PUSH3 0x4636 JUMP JUMPDEST SWAP1 POP PUSH3 0x1BAB PUSH1 0x12 SLOAD DUP3 PUSH3 0x3E90 SWAP1 SWAP2 SWAP1 PUSH4 0xFFFFFFFF AND JUMP JUMPDEST SWAP5 POP POP POP POP POP SWAP1 JUMP JUMPDEST PUSH1 0x0 DUP1 PUSH3 0x1BC1 PUSH3 0x1A79 JUMP JUMPDEST SWAP1 POP PUSH1 0x0 PUSH3 0x1BCF PUSH3 0x3DBB JUMP JUMPDEST SWAP2 POP POP DUP2 PUSH3 0x1BE4 JUMPI PUSH1 0x0 SWAP3 POP POP POP PUSH3 0x1085 JUMP JUMPDEST PUSH3 0x1C06 DUP3 PUSH3 0x1820 DUP4 PUSH3 0x1BF9 DUP9 PUSH3 0x3D7A JUMP JUMPDEST SWAP1 PUSH4 0xFFFFFFFF PUSH3 0x4016 AND JUMP JUMPDEST SWAP5 SWAP4 POP POP POP POP JUMP JUMPDEST PUSH1 0x0 SLOAD PUSH1 0x1 PUSH1 0x1 PUSH1 0xA0 SHL SUB AND CALLER EQ PUSH3 0x1C3B JUMPI PUSH1 0x40 MLOAD PUSH3 0x461BCD PUSH1 0xE5 SHL DUP2 MSTORE PUSH1 0x4 ADD PUSH3 0xC36 SWAP1 PUSH3 0x4C53 JUMP JUMPDEST PUSH1 0x1 SLOAD PUSH1 0x1 PUSH1 0xB0 SHL SWAP1 DIV PUSH1 0xFF AND ISZERO PUSH3 0x1C68 JUMPI PUSH1 0x40 MLOAD PUSH3 0x461BCD PUSH1 0xE5 SHL DUP2 MSTORE PUSH1 0x4 ADD PUSH3 0xC36 SWAP1 PUSH3 0x4BDC JUMP JUMPDEST PUSH1 0x1 DUP1 SLOAD PUSH1 0xFF PUSH1 0xB8 SHL NOT AND PUSH1 0x1 PUSH1 0xB8 SHL OR SWAP1 SSTORE JUMP JUMPDEST PUSH1 0x1 SLOAD PUSH1 0x1 PUSH1 0xA0 SHL SWAP1 DIV PUSH1 0xFF AND ISZERO PUSH3 0x1CAA JUMPI PUSH1 0x40 MLOAD PUSH3 0x461BCD PUSH1 0xE5 SHL DUP2 MSTORE PUSH1 0x4 ADD PUSH3 0xC36 SWAP1 PUSH3 0x4951 JUMP JUMPDEST PUSH1 0x1 DUP1 SLOAD PUSH1 0xFF PUSH1 0xA0 SHL NOT AND PUSH1 0x1 PUSH1 0xA0 SHL OR SWAP1 SSTORE PUSH3 0x1CC9 CALLER DUP3 PUSH3 0x4172 JUMP JUMPDEST PUSH3 0x1CD4 DUP2 PUSH3 0x3F62 JUMP JUMPDEST POP PUSH1 0x1 DUP1 SLOAD PUSH1 0xFF PUSH1 0xA0 SHL NOT AND SWAP1 SSTORE JUMP JUMPDEST PUSH1 0x6 SLOAD PUSH1 0x1 PUSH1 0x1 PUSH1 0xA0 SHL SUB AND DUP2 JUMP JUMPDEST PUSH1 0x7 SLOAD PUSH1 0x1 PUSH1 0x1 PUSH1 0xA0 SHL SUB AND DUP2 JUMP JUMPDEST PUSH1 0x0 DUP1 PUSH1 0x0 DUP1 PUSH1 0x0 DUP1 PUSH3 0x1D15 PUSH3 0x3DBB JUMP JUMPDEST DUP1 SWAP4 POP DUP2 SWAP3 POP POP POP PUSH3 0x1D2B DUP8 PUSH1 0xB SLOAD PUSH3 0x3FBA JUMP JUMPDEST SWAP5 POP PUSH3 0x1D3B DUP8 PUSH1 0xC SLOAD PUSH3 0x3FBA JUMP JUMPDEST SWAP4 POP PUSH1 0x0 PUSH3 0x1D63 DUP6 PUSH3 0x1D56 DUP11 DUP10 PUSH4 0xFFFFFFFF PUSH3 0x3FE7 AND JUMP JUMPDEST SWAP1 PUSH4 0xFFFFFFFF PUSH3 0x3FE7 AND JUMP JUMPDEST SWAP1 POP PUSH1 0x0 PUSH1 0xE SLOAD PUSH1 0xFF AND PUSH1 0x2 DUP2 GT ISZERO PUSH3 0x1D79 JUMPI INVALID JUMPDEST EQ ISZERO PUSH3 0x1D98 JUMPI PUSH3 0x1D8C DUP2 DUP4 PUSH3 0x2C8F JUMP JUMPDEST SWAP7 POP PUSH1 0x1 SWAP4 POP PUSH3 0x1E78 JUMP JUMPDEST PUSH1 0x1 PUSH1 0xE SLOAD PUSH1 0xFF AND PUSH1 0x2 DUP2 GT ISZERO PUSH3 0x1DAC JUMPI INVALID JUMPDEST EQ ISZERO PUSH3 0x1DC2 JUMPI PUSH3 0x1D8C DUP2 PUSH1 0x11 SLOAD DUP5 PUSH3 0xE3D JUMP JUMPDEST PUSH1 0x2 PUSH1 0xE SLOAD PUSH1 0xFF AND PUSH1 0x2 DUP2 GT ISZERO PUSH3 0x1DD6 JUMPI INVALID JUMPDEST EQ ISZERO PUSH3 0x1E78 JUMPI PUSH1 0x0 PUSH3 0x1DF6 PUSH1 0x12 SLOAD DUP6 PUSH3 0x3E90 SWAP1 SWAP2 SWAP1 PUSH4 0xFFFFFFFF AND JUMP JUMPDEST SWAP1 POP PUSH1 0x0 PUSH3 0x1E11 DUP5 PUSH1 0x11 SLOAD PUSH3 0x3E90 SWAP1 SWAP2 SWAP1 PUSH4 0xFFFFFFFF AND JUMP JUMPDEST SWAP1 POP DUP1 DUP4 LT ISZERO PUSH3 0x1E37 JUMPI PUSH3 0x1E2B DUP4 PUSH1 0x12 SLOAD DUP8 PUSH3 0x22C7 JUMP JUMPDEST SWAP9 POP PUSH1 0x2 SWAP6 POP PUSH3 0x1E75 JUMP JUMPDEST DUP1 DUP4 EQ ISZERO PUSH3 0x1E4D JUMPI DUP2 SWAP9 POP PUSH1 0x0 SWAP6 POP PUSH3 0x1E75 JUMP JUMPDEST PUSH3 0x1E6E PUSH3 0x18A4 PUSH3 0x1E67 DUP6 DUP5 PUSH4 0xFFFFFFFF PUSH3 0x3E90 AND JUMP JUMPDEST DUP7 PUSH3 0x2C8F JUMP JUMPDEST SWAP9 POP PUSH1 0x1 SWAP6 POP JUMPDEST POP POP JUMPDEST POP SWAP2 SWAP4 SWAP6 POP SWAP2 SWAP4 SWAP6 JUMP JUMPDEST PUSH1 0x8 SLOAD PUSH1 0x1 PUSH1 0x1 PUSH1 0xA0 SHL SUB AND DUP2 JUMP JUMPDEST PUSH1 0x2 SLOAD DUP2 JUMP JUMPDEST PUSH1 0x1 SLOAD PUSH1 0x1 PUSH1 0x1 PUSH1 0xA0 SHL SUB AND CALLER EQ PUSH3 0x1EC4 JUMPI PUSH1 0x40 MLOAD PUSH3 0x461BCD PUSH1 0xE5 SHL DUP2 MSTORE PUSH1 0x4 ADD PUSH3 0xC36 SWAP1 PUSH3 0x4898 JUMP JUMPDEST PUSH1 0x1 SLOAD PUSH1 0x0 DUP1 SLOAD PUSH1 0x40 MLOAD PUSH1 0x1 PUSH1 0x1 PUSH1 0xA0 SHL SUB SWAP4 DUP5 AND SWAP4 SWAP1 SWAP2 AND SWAP2 PUSH32 0x8BE0079C531659141344CD1FD0A4F28419497F9722A3DAAFE3B4186F6B6457E0 SWAP2 LOG3 PUSH1 0x1 DUP1 SLOAD PUSH1 0x0 DUP1 SLOAD PUSH1 0x1 PUSH1 0x1 PUSH1 0xA0 SHL SUB NOT SWAP1 DUP2 AND PUSH1 0x1 PUSH1 0x1 PUSH1 0xA0 SHL SUB DUP5 AND OR SWAP1 SWAP2 SSTORE AND SWAP1 SSTORE JUMP JUMPDEST PUSH1 0x65 SWAP1 JUMP JUMPDEST PUSH1 0x0 SLOAD PUSH1 0x1 PUSH1 0x1 PUSH1 0xA0 SHL SUB AND CALLER EQ PUSH3 0x1F5A JUMPI PUSH1 0x40 MLOAD PUSH3 0x461BCD PUSH1 0xE5 SHL DUP2 MSTORE PUSH1 0x4 ADD PUSH3 0xC36 SWAP1 PUSH3 0x4C53 JUMP JUMPDEST PUSH32 0x3CE6EA91ADDA496B7A0546FA6558E5B52C3A509DE6015820EFB00CA4020E0A07 PUSH1 0xB SLOAD DUP3 PUSH1 0x40 MLOAD PUSH3 0x1F8F SWAP3 SWAP2 SWAP1 PUSH3 0x4E8E JUMP JUMPDEST PUSH1 0x40 MLOAD DUP1 SWAP2 SUB SWAP1 LOG1 PUSH1 0xB DUP2 SWAP1 SSTORE PUSH3 0x1FA6 PUSH3 0x41E0 JUMP JUMPDEST POP POP JUMP JUMPDEST PUSH1 0x1 SLOAD PUSH1 0x0 SWAP1 PUSH1 0x1 PUSH1 0xA0 SHL SWAP1 DIV PUSH1 0xFF AND ISZERO PUSH3 0x1FDA JUMPI PUSH1 0x40 MLOAD PUSH3 0x461BCD PUSH1 0xE5 SHL DUP2 MSTORE PUSH1 0x4 ADD PUSH3 0xC36 SWAP1 PUSH3 0x4951 JUMP JUMPDEST PUSH1 0x1 DUP1 SLOAD PUSH1 0xFF PUSH1 0xA0 SHL NOT AND PUSH1 0x1 PUSH1 0xA0 SHL OR SWAP1 DUP2 SWAP1 SSTORE PUSH1 0x1 PUSH1 0xB8 SHL SWAP1 DIV PUSH1 0xFF AND PUSH3 0x2018 JUMPI PUSH1 0x40 MLOAD PUSH3 0x461BCD PUSH1 0xE5 SHL DUP2 MSTORE PUSH1 0x4 ADD PUSH3 0xC36 SWAP1 PUSH3 0x491A JUMP JUMPDEST PUSH1 0x0 PUSH3 0x2024 PUSH3 0x3DBB JUMP JUMPDEST SWAP2 POP POP PUSH1 0x0 PUSH3 0x2033 PUSH3 0x1A79 JUMP JUMPDEST SWAP1 POP DUP4 DUP2 PUSH3 0x2056 JUMPI PUSH3 0x204E DUP6 DUP5 PUSH4 0xFFFFFFFF PUSH3 0x3FE7 AND JUMP JUMPDEST SWAP1 POP PUSH3 0x2077 JUMP JUMPDEST DUP3 ISZERO PUSH3 0x2077 JUMPI PUSH3 0x2074 DUP4 PUSH3 0x1820 DUP8 DUP6 PUSH4 0xFFFFFFFF PUSH3 0x4016 AND JUMP JUMPDEST SWAP1 POP JUMPDEST PUSH3 0x2083 CALLER DUP7 PUSH3 0x4172 JUMP JUMPDEST PUSH3 0x208F DUP7 DUP3 PUSH3 0x4275 JUMP JUMPDEST PUSH1 0x10 SLOAD PUSH3 0x20A4 SWAP1 DUP7 PUSH4 0xFFFFFFFF PUSH3 0x3FE7 AND JUMP JUMPDEST PUSH1 0x10 SSTORE PUSH1 0x40 MLOAD PUSH1 0x1 PUSH1 0x1 PUSH1 0xA0 SHL SUB DUP8 AND SWAP1 CALLER SWAP1 PUSH32 0x18081CDE2FA64894914E1080B98CCA17BB6D1ACF633E57F6E26EBDB945AD830B SWAP1 PUSH3 0x20EB SWAP1 PUSH1 0x0 SWAP1 DUP11 SWAP1 DUP8 SWAP1 PUSH3 0x47D6 JUMP JUMPDEST PUSH1 0x40 MLOAD DUP1 SWAP2 SUB SWAP1 LOG3 PUSH1 0x1 DUP1 SLOAD PUSH1 0xFF PUSH1 0xA0 SHL NOT AND SWAP1 SSTORE SWAP6 SWAP5 POP POP POP POP POP JUMP JUMPDEST PUSH1 0x0 SLOAD PUSH1 0x1 PUSH1 0x1 PUSH1 0xA0 SHL SUB AND CALLER EQ PUSH3 0x2136 JUMPI PUSH1 0x40 MLOAD PUSH3 0x461BCD PUSH1 0xE5 SHL DUP2 MSTORE PUSH1 0x4 ADD PUSH3 0xC36 SWAP1 PUSH3 0x4C53 JUMP JUMPDEST PUSH1 0x1 SLOAD PUSH1 0x1 PUSH1 0xB0 SHL SWAP1 DIV PUSH1 0xFF AND ISZERO PUSH3 0x2163 JUMPI PUSH1 0x40 MLOAD PUSH3 0x461BCD PUSH1 0xE5 SHL DUP2 MSTORE PUSH1 0x4 ADD PUSH3 0xC36 SWAP1 PUSH3 0x4BDC JUMP JUMPDEST PUSH1 0x1 DUP1 SLOAD PUSH3 0xFFFFFF PUSH1 0xB8 SHL NOT PUSH1 0xFF PUSH1 0xB0 SHL NOT SWAP1 SWAP2 AND PUSH1 0x1 PUSH1 0xB0 SHL OR AND SWAP1 SSTORE PUSH1 0x0 PUSH3 0x218D PUSH3 0x108A JUMP JUMPDEST SWAP1 POP PUSH1 0x0 PUSH3 0x219B PUSH3 0x1A79 JUMP JUMPDEST SWAP1 POP PUSH1 0x10 SLOAD PUSH1 0x12 SLOAD GT ISZERO PUSH3 0x21DD JUMPI PUSH1 0x0 PUSH3 0x21C5 PUSH1 0x10 SLOAD PUSH1 0x12 SLOAD PUSH3 0x3E90 SWAP1 SWAP2 SWAP1 PUSH4 0xFFFFFFFF AND JUMP JUMPDEST SWAP1 POP PUSH3 0x21D3 DUP2 DUP5 PUSH3 0x42A9 JUMP JUMPDEST PUSH1 0x15 SSTORE POP PUSH3 0x21E4 JUMP JUMPDEST PUSH1 0x12 SLOAD PUSH1 0x10 SSTORE JUMPDEST PUSH1 0xF SLOAD PUSH1 0x11 SLOAD GT ISZERO PUSH3 0x2224 JUMPI PUSH1 0x0 PUSH3 0x220C PUSH1 0xF SLOAD PUSH1 0x11 SLOAD PUSH3 0x3E90 SWAP1 SWAP2 SWAP1 PUSH4 0xFFFFFFFF AND JUMP JUMPDEST SWAP1 POP PUSH3 0x221A DUP2 DUP4 PUSH3 0x42A9 JUMP JUMPDEST PUSH1 0x16 SSTORE POP PUSH3 0x222B JUMP JUMPDEST PUSH1 0x11 SLOAD PUSH1 0xF SSTORE JUMPDEST POP POP PUSH1 0xE DUP1 SLOAD PUSH1 0xFF NOT AND SWAP1 SSTORE JUMP JUMPDEST PUSH1 0x0 SLOAD PUSH1 0x1 PUSH1 0x1 PUSH1 0xA0 SHL SUB AND CALLER EQ PUSH3 0x2266 JUMPI PUSH1 0x40 MLOAD PUSH3 0x461BCD PUSH1 0xE5 SHL DUP2 MSTORE PUSH1 0x4 ADD PUSH3 0xC36 SWAP1 PUSH3 0x4C53 JUMP JUMPDEST PUSH32 0x23A40BEBF7AC113F81C3D628073246CF9E0BC49980A9D6A9531498CE9E3DD1C PUSH1 0xD SLOAD DUP3 PUSH1 0x40 MLOAD PUSH3 0x229B SWAP3 SWAP2 SWAP1 PUSH3 0x4E8E JUMP JUMPDEST PUSH1 0x40 MLOAD DUP1 SWAP2 SUB SWAP1 LOG1 PUSH1 0xD DUP2 SWAP1 SSTORE PUSH3 0x1FA6 PUSH3 0x41E0 JUMP JUMPDEST PUSH1 0x17 PUSH1 0x20 MSTORE PUSH1 0x0 SWAP1 DUP2 MSTORE PUSH1 0x40 SWAP1 KECCAK256 SLOAD PUSH1 0xFF AND DUP2 JUMP JUMPDEST PUSH1 0x0 DUP1 PUSH3 0x22D4 PUSH3 0x23B8 JUMP JUMPDEST SWAP1 POP PUSH1 0x0 PUSH20 0x0 PUSH4 0x338DBF33 DUP6 DUP8 PUSH3 0x2300 DUP7 DUP12 PUSH3 0x42CA JUMP JUMPDEST PUSH1 0x1 PUSH1 0xD SLOAD PUSH1 0x40 MLOAD DUP7 PUSH4 0xFFFFFFFF AND PUSH1 0xE0 SHL DUP2 MSTORE PUSH1 0x4 ADD PUSH3 0x2327 SWAP6 SWAP5 SWAP4 SWAP3 SWAP2 SWAP1 PUSH3 0x4EB2 JUMP JUMPDEST PUSH1 0x20 PUSH1 0x40 MLOAD DUP1 DUP4 SUB DUP2 DUP7 DUP1 EXTCODESIZE ISZERO DUP1 ISZERO PUSH3 0x2340 JUMPI PUSH1 0x0 DUP1 REVERT JUMPDEST POP GAS DELEGATECALL ISZERO DUP1 ISZERO PUSH3 0x2355 JUMPI RETURNDATASIZE PUSH1 0x0 DUP1 RETURNDATACOPY RETURNDATASIZE PUSH1 0x0 REVERT JUMPDEST POP POP POP POP PUSH1 0x40 MLOAD RETURNDATASIZE PUSH1 0x1F NOT PUSH1 0x1F DUP3 ADD AND DUP3 ADD DUP1 PUSH1 0x40 MSTORE POP DUP2 ADD SWAP1 PUSH3 0x237B SWAP2 SWAP1 PUSH3 0x4636 JUMP JUMPDEST SWAP1 POP PUSH3 0x238F DUP2 DUP7 PUSH4 0xFFFFFFFF PUSH3 0x3E90 AND JUMP JUMPDEST SWAP7 SWAP6 POP POP POP POP POP POP JUMP JUMPDEST PUSH1 0x1 SLOAD PUSH1 0x1 PUSH1 0xB0 SHL SWAP1 DIV PUSH1 0xFF AND DUP2 JUMP JUMPDEST PUSH1 0xA SLOAD PUSH1 0x1 PUSH1 0x1 PUSH1 0xA0 SHL SUB AND DUP2 JUMP JUMPDEST PUSH1 0xA SLOAD PUSH1 0x40 DUP1 MLOAD PUSH4 0x4C6AFEE5 PUSH1 0xE1 SHL DUP2 MSTORE SWAP1 MLOAD PUSH1 0x0 SWAP3 PUSH1 0x1 PUSH1 0x1 PUSH1 0xA0 SHL SUB AND SWAP2 PUSH4 0x98D5FDCA SWAP2 PUSH1 0x4 DUP1 DUP4 ADD SWAP3 PUSH1 0x20 SWAP3 SWAP2 SWAP1 DUP3 SWAP1 SUB ADD DUP2 DUP7 DUP1 EXTCODESIZE ISZERO DUP1 ISZERO PUSH3 0x10D0 JUMPI PUSH1 0x0 DUP1 REVERT JUMPDEST PUSH1 0x0 SLOAD PUSH1 0x1 PUSH1 0x1 PUSH1 0xA0 SHL SUB AND CALLER EQ PUSH3 0x242B JUMPI PUSH1 0x40 MLOAD PUSH3 0x461BCD PUSH1 0xE5 SHL DUP2 MSTORE PUSH1 0x4 ADD PUSH3 0xC36 SWAP1 PUSH3 0x4C53 JUMP JUMPDEST PUSH1 0xA DUP1 SLOAD PUSH1 0x1 PUSH1 0x1 PUSH1 0xA0 SHL SUB NOT AND PUSH1 0x1 PUSH1 0x1 PUSH1 0xA0 SHL SUB SWAP3 SWAP1 SWAP3 AND SWAP2 SWAP1 SWAP2 OR SWAP1 SSTORE JUMP JUMPDEST PUSH1 0x13 SLOAD PUSH1 0x40 MLOAD PUSH4 0x70A08231 PUSH1 0xE0 SHL DUP2 MSTORE PUSH1 0x0 SWAP2 PUSH1 0x1 PUSH1 0x1 PUSH1 0xA0 SHL SUB AND SWAP1 PUSH4 0x70A08231 SWAP1 PUSH3 0x2480 SWAP1 DUP6 SWAP1 PUSH1 0x4 ADD PUSH3 0x476A JUMP JUMPDEST PUSH1 0x20 PUSH1 0x40 MLOAD DUP1 DUP4 SUB DUP2 DUP7 DUP1 EXTCODESIZE ISZERO DUP1 ISZERO PUSH3 0x2499 JUMPI PUSH1 0x0 DUP1 REVERT JUMPDEST POP GAS STATICCALL ISZERO DUP1 ISZERO PUSH3 0x24AE JUMPI RETURNDATASIZE PUSH1 0x0 DUP1 RETURNDATACOPY RETURNDATASIZE PUSH1 0x0 REVERT JUMPDEST POP POP POP POP PUSH1 0x40 MLOAD RETURNDATASIZE PUSH1 0x1F NOT PUSH1 0x1F DUP3 ADD AND DUP3 ADD DUP1 PUSH1 0x40 MSTORE POP DUP2 ADD SWAP1 PUSH3 0x1526 SWAP2 SWAP1 PUSH3 0x4636 JUMP JUMPDEST PUSH1 0x12 SLOAD DUP2 JUMP JUMPDEST PUSH1 0x1 SLOAD PUSH1 0x1 PUSH1 0x1 PUSH1 0xA0 SHL SUB AND DUP2 JUMP JUMPDEST PUSH1 0x0 SLOAD PUSH1 0x1 PUSH1 0x1 PUSH1 0xA0 SHL SUB AND CALLER EQ PUSH3 0x2516 JUMPI PUSH1 0x40 MLOAD PUSH3 0x461BCD PUSH1 0xE5 SHL DUP2 MSTORE PUSH1 0x4 ADD PUSH3 0xC36 SWAP1 PUSH3 0x4C53 JUMP JUMPDEST PUSH1 0x1 SLOAD PUSH1 0x1 PUSH1 0xB0 SHL SWAP1 DIV PUSH1 0xFF AND ISZERO PUSH3 0x2543 JUMPI PUSH1 0x40 MLOAD PUSH3 0x461BCD PUSH1 0xE5 SHL DUP2 MSTORE PUSH1 0x4 ADD PUSH3 0xC36 SWAP1 PUSH3 0x4BDC JUMP JUMPDEST PUSH1 0x4 SSTORE JUMP JUMPDEST PUSH1 0x0 SLOAD PUSH1 0x1 PUSH1 0x1 PUSH1 0xA0 SHL SUB AND CALLER EQ PUSH3 0x2575 JUMPI PUSH1 0x40 MLOAD PUSH3 0x461BCD PUSH1 0xE5 SHL DUP2 MSTORE PUSH1 0x4 ADD PUSH3 0xC36 SWAP1 PUSH3 0x4C53 JUMP JUMPDEST PUSH1 0x1 SLOAD PUSH1 0x1 PUSH1 0xB0 SHL SWAP1 DIV PUSH1 0xFF AND ISZERO PUSH3 0x25A2 JUMPI PUSH1 0x40 MLOAD PUSH3 0x461BCD PUSH1 0xE5 SHL DUP2 MSTORE PUSH1 0x4 ADD PUSH3 0xC36 SWAP1 PUSH3 0x4BDC JUMP JUMPDEST PUSH1 0x1 DUP1 SLOAD PUSH1 0xFF PUSH1 0xC8 SHL NOT AND PUSH1 0x1 PUSH1 0xC8 SHL OR SWAP1 SSTORE JUMP JUMPDEST PUSH1 0x1 SLOAD PUSH1 0x0 SWAP1 PUSH1 0x1 PUSH1 0xC8 SHL SWAP1 DIV PUSH1 0xFF AND PUSH3 0x25E6 JUMPI PUSH1 0x40 MLOAD PUSH3 0x461BCD PUSH1 0xE5 SHL DUP2 MSTORE PUSH1 0x4 ADD PUSH3 0xC36 SWAP1 PUSH3 0x4B62 JUMP JUMPDEST PUSH1 0x3 SLOAD PUSH2 0x100 SWAP1 DIV PUSH1 0xFF AND PUSH3 0x2610 JUMPI PUSH1 0x40 MLOAD PUSH3 0x461BCD PUSH1 0xE5 SHL DUP2 MSTORE PUSH1 0x4 ADD PUSH3 0xC36 SWAP1 PUSH3 0x4C01 JUMP JUMPDEST PUSH1 0x2 SLOAD GASPRICE GT ISZERO PUSH3 0x2635 JUMPI PUSH1 0x40 MLOAD PUSH3 0x461BCD PUSH1 0xE5 SHL DUP2 MSTORE PUSH1 0x4 ADD PUSH3 0xC36 SWAP1 PUSH3 0x4DCD JUMP JUMPDEST PUSH1 0x1 SLOAD PUSH1 0x1 PUSH1 0xA0 SHL SWAP1 DIV PUSH1 0xFF AND ISZERO PUSH3 0x2662 JUMPI PUSH1 0x40 MLOAD PUSH3 0x461BCD PUSH1 0xE5 SHL DUP2 MSTORE PUSH1 0x4 ADD PUSH3 0xC36 SWAP1 PUSH3 0x4951 JUMP JUMPDEST PUSH1 0x1 DUP1 SLOAD PUSH1 0xFF PUSH1 0xA0 SHL NOT AND PUSH1 0x1 PUSH1 0xA0 SHL OR SWAP1 SSTORE PUSH1 0x0 DUP1 DUP1 DUP1 DUP1 DUP1 PUSH3 0x2687 DUP12 PUSH3 0x3AC9 JUMP JUMPDEST SWAP6 POP SWAP6 POP SWAP6 POP SWAP6 POP SWAP6 POP SWAP6 POP DUP10 DUP7 LT ISZERO PUSH3 0x26B6 JUMPI PUSH1 0x40 MLOAD PUSH3 0x461BCD PUSH1 0xE5 SHL DUP2 MSTORE PUSH1 0x4 ADD PUSH3 0xC36 SWAP1 PUSH3 0x4D25 JUMP JUMPDEST PUSH3 0x26C2 CALLER DUP8 PUSH3 0x3F27 JUMP JUMPDEST DUP8 ISZERO PUSH3 0x272C JUMPI PUSH1 0x40 MLOAD PUSH4 0x301BC675 PUSH1 0xE1 SHL DUP2 MSTORE CALLER SWAP1 PUSH4 0x60378CEA SWAP1 PUSH3 0x26F7 SWAP1 PUSH1 0x0 SWAP1 DUP16 SWAP1 DUP12 SWAP1 DUP16 SWAP1 DUP16 SWAP1 PUSH1 0x4 ADD PUSH3 0x47EE JUMP JUMPDEST PUSH1 0x0 PUSH1 0x40 MLOAD DUP1 DUP4 SUB DUP2 PUSH1 0x0 DUP8 DUP1 EXTCODESIZE ISZERO DUP1 ISZERO PUSH3 0x2712 JUMPI PUSH1 0x0 DUP1 REVERT JUMPDEST POP GAS CALL ISZERO DUP1 ISZERO PUSH3 0x2727 JUMPI RETURNDATASIZE PUSH1 0x0 DUP1 RETURNDATACOPY RETURNDATASIZE PUSH1 0x0 REVERT JUMPDEST POP POP POP POP JUMPDEST PUSH3 0x2738 CALLER DUP13 PUSH3 0x42EB JUMP JUMPDEST DUP4 ISZERO PUSH3 0x27A4 JUMPI PUSH1 0x7 SLOAD PUSH3 0x2757 SWAP1 PUSH1 0x1 PUSH1 0x1 PUSH1 0xA0 SHL SUB AND DUP6 PUSH3 0x3F27 JUMP JUMPDEST PUSH1 0x7 SLOAD PUSH1 0x40 MLOAD PUSH1 0x1 PUSH1 0x1 PUSH1 0xA0 SHL SUB SWAP1 SWAP2 AND SWAP1 PUSH32 0xE4FED5362E2669C70E5DA5A18942D1E617D8917F6ADC0164D9668BD3A6D0CEBE SWAP1 PUSH3 0x279B SWAP1 PUSH1 0x0 SWAP1 DUP9 SWAP1 PUSH3 0x47C6 JUMP JUMPDEST PUSH1 0x40 MLOAD DUP1 SWAP2 SUB SWAP1 LOG2 JUMPDEST DUP2 PUSH1 0x10 SLOAD EQ PUSH3 0x27B4 JUMPI PUSH1 0x10 DUP3 SWAP1 SSTORE JUMPDEST DUP1 PUSH1 0xF SLOAD EQ PUSH3 0x27C4 JUMPI PUSH1 0xF DUP2 SWAP1 SSTORE JUMPDEST DUP3 PUSH1 0x2 DUP2 GT ISZERO PUSH3 0x27D1 JUMPI INVALID JUMPDEST PUSH1 0xE SLOAD PUSH1 0xFF AND PUSH1 0x2 DUP2 GT ISZERO PUSH3 0x27E3 JUMPI INVALID JUMPDEST EQ PUSH3 0x2809 JUMPI PUSH1 0xE DUP1 SLOAD DUP5 SWAP2 SWAP1 PUSH1 0xFF NOT AND PUSH1 0x1 DUP4 PUSH1 0x2 DUP2 GT ISZERO PUSH3 0x2803 JUMPI INVALID JUMPDEST MUL OR SWAP1 SSTORE POP JUMPDEST PUSH3 0x2814 DUP6 PUSH3 0x3F62 JUMP JUMPDEST CALLER PUSH1 0x1 PUSH1 0x1 PUSH1 0xA0 SHL SUB AND PUSH32 0xD8648B6AC54162763C86FD54BF2005AF8ECD2F9CB273A5775921FD7F91E17B2D DUP13 DUP9 PUSH1 0x40 MLOAD PUSH3 0x2851 SWAP3 SWAP2 SWAP1 PUSH3 0x4E8E JUMP JUMPDEST PUSH1 0x40 MLOAD DUP1 SWAP2 SUB SWAP1 LOG2 POP POP PUSH1 0x1 DUP1 SLOAD PUSH1 0xFF PUSH1 0xA0 SHL NOT AND SWAP1 SSTORE POP SWAP2 SWAP8 SWAP7 POP POP POP POP POP POP POP JUMP JUMPDEST PUSH1 0x3 SLOAD PUSH2 0x100 SWAP1 DIV PUSH1 0xFF AND DUP2 JUMP JUMPDEST PUSH1 0x0 SLOAD PUSH1 0x1 PUSH1 0x1 PUSH1 0xA0 SHL SUB AND CALLER EQ PUSH3 0x28B0 JUMPI PUSH1 0x40 MLOAD PUSH3 0x461BCD PUSH1 0xE5 SHL DUP2 MSTORE PUSH1 0x4 ADD PUSH3 0xC36 SWAP1 PUSH3 0x4C53 JUMP JUMPDEST PUSH1 0x1 SLOAD PUSH1 0x1 PUSH1 0xB0 SHL SWAP1 DIV PUSH1 0xFF AND ISZERO PUSH3 0x28DD JUMPI PUSH1 0x40 MLOAD PUSH3 0x461BCD PUSH1 0xE5 SHL DUP2 MSTORE PUSH1 0x4 ADD PUSH3 0xC36 SWAP1 PUSH3 0x4BDC JUMP JUMPDEST PUSH1 0x3 DUP1 SLOAD PUSH1 0xFF NOT AND PUSH1 0x1 OR SWAP1 SSTORE JUMP JUMPDEST PUSH1 0x0 SLOAD PUSH1 0x1 PUSH1 0x1 PUSH1 0xA0 SHL SUB AND CALLER EQ PUSH3 0x2919 JUMPI PUSH1 0x40 MLOAD PUSH3 0x461BCD PUSH1 0xE5 SHL DUP2 MSTORE PUSH1 0x4 ADD PUSH3 0xC36 SWAP1 PUSH3 0x4C53 JUMP JUMPDEST PUSH1 0x6 DUP1 SLOAD PUSH1 0x1 PUSH1 0x1 PUSH1 0xA0 SHL SUB NOT AND PUSH1 0x1 PUSH1 0x1 PUSH1 0xA0 SHL SUB SWAP3 SWAP1 SWAP3 AND SWAP2 SWAP1 SWAP2 OR SWAP1 SSTORE JUMP JUMPDEST PUSH1 0x1 SLOAD PUSH1 0x0 SWAP1 PUSH1 0x1 PUSH1 0xA0 SHL SWAP1 DIV PUSH1 0xFF AND ISZERO PUSH3 0x296B JUMPI PUSH1 0x40 MLOAD PUSH3 0x461BCD PUSH1 0xE5 SHL DUP2 MSTORE PUSH1 0x4 ADD PUSH3 0xC36 SWAP1 PUSH3 0x4951 JUMP JUMPDEST PUSH1 0x1 DUP1 SLOAD PUSH1 0xFF PUSH1 0xA0 SHL NOT AND PUSH1 0x1 PUSH1 0xA0 SHL OR SWAP1 DUP2 SWAP1 SSTORE PUSH1 0x1 PUSH1 0xB0 SHL SWAP1 DIV PUSH1 0xFF AND ISZERO PUSH3 0x29AA JUMPI PUSH1 0x40 MLOAD PUSH3 0x461BCD PUSH1 0xE5 SHL DUP2 MSTORE PUSH1 0x4 ADD PUSH3 0xC36 SWAP1 PUSH3 0x4BDC JUMP JUMPDEST PUSH1 0x0 PUSH3 0x29B6 PUSH3 0x3DBB JUMP JUMPDEST POP SWAP1 POP PUSH1 0x0 PUSH3 0x29C5 PUSH3 0x108A JUMP JUMPDEST SWAP1 POP PUSH1 0x0 DUP2 GT PUSH3 0x29EA JUMPI PUSH1 0x40 MLOAD PUSH3 0x461BCD PUSH1 0xE5 SHL DUP2 MSTORE PUSH1 0x4 ADD PUSH3 0xC36 SWAP1 PUSH3 0x48BF JUMP JUMPDEST PUSH1 0x0 PUSH3 0x2A03 DUP4 PUSH3 0x11DF DUP8 DUP6 PUSH4 0xFFFFFFFF PUSH3 0x4016 AND JUMP JUMPDEST SWAP1 POP PUSH3 0x2A10 CALLER PUSH3 0x244D JUMP JUMPDEST DUP2 GT ISZERO PUSH3 0x2A32 JUMPI PUSH1 0x40 MLOAD PUSH3 0x461BCD PUSH1 0xE5 SHL DUP2 MSTORE PUSH1 0x4 ADD PUSH3 0xC36 SWAP1 PUSH3 0x4CE3 JUMP JUMPDEST PUSH1 0x0 PUSH3 0x2A3F DUP7 PUSH3 0x3776 JUMP JUMPDEST SWAP1 POP DUP6 DUP2 GT ISZERO PUSH3 0x2A64 JUMPI PUSH1 0x40 MLOAD PUSH3 0x461BCD PUSH1 0xE5 SHL DUP2 MSTORE PUSH1 0x4 ADD PUSH3 0xC36 SWAP1 PUSH3 0x4BB4 JUMP JUMPDEST PUSH1 0xF SLOAD PUSH3 0x2A79 SWAP1 DUP8 PUSH4 0xFFFFFFFF PUSH3 0x3E90 AND JUMP JUMPDEST PUSH1 0xF SSTORE PUSH3 0x2A88 CALLER DUP4 PUSH3 0x4088 JUMP JUMPDEST PUSH3 0x2A9F DUP8 PUSH3 0x16A0 DUP9 DUP5 PUSH4 0xFFFFFFFF PUSH3 0x3E90 AND JUMP JUMPDEST PUSH3 0x2AAA DUP2 PUSH3 0x40F7 JUMP JUMPDEST PUSH1 0x1 PUSH1 0x1 PUSH1 0xA0 SHL SUB DUP8 AND CALLER PUSH1 0x0 DUP1 MLOAD PUSH1 0x20 PUSH3 0x5F60 DUP4 CODECOPY DUP2 MLOAD SWAP2 MSTORE PUSH1 0x1 PUSH3 0x2AD9 DUP11 DUP7 PUSH4 0xFFFFFFFF PUSH3 0x3E90 AND JUMP JUMPDEST DUP7 PUSH1 0x40 MLOAD PUSH3 0x2AEB SWAP4 SWAP3 SWAP2 SWAP1 PUSH3 0x47D6 JUMP JUMPDEST PUSH1 0x40 MLOAD DUP1 SWAP2 SUB SWAP1 LOG3 CALLER PUSH1 0x1 PUSH1 0x1 PUSH1 0xA0 SHL SUB AND PUSH1 0x0 DUP1 MLOAD PUSH1 0x20 PUSH3 0x5F80 DUP4 CODECOPY DUP2 MLOAD SWAP2 MSTORE PUSH1 0x1 DUP4 PUSH1 0x40 MLOAD PUSH3 0x1308 SWAP3 SWAP2 SWAP1 PUSH3 0x47C6 JUMP JUMPDEST PUSH1 0x0 DUP1 PUSH3 0x2B2D PUSH3 0x108A JUMP JUMPDEST SWAP1 POP PUSH1 0x0 PUSH3 0x2B3B PUSH3 0x3DBB JUMP JUMPDEST POP SWAP1 POP DUP2 PUSH3 0x2B50 JUMPI PUSH1 0x0 SWAP3 POP POP POP PUSH3 0x1085 JUMP JUMPDEST PUSH3 0x1C06 DUP3 PUSH3 0x1820 DUP4 PUSH3 0x1BF9 DUP9 PUSH3 0x244D JUMP JUMPDEST PUSH1 0x0 SLOAD PUSH1 0x1 PUSH1 0x1 PUSH1 0xA0 SHL SUB AND CALLER EQ PUSH3 0x2B92 JUMPI PUSH1 0x40 MLOAD PUSH3 0x461BCD PUSH1 0xE5 SHL DUP2 MSTORE PUSH1 0x4 ADD PUSH3 0xC36 SWAP1 PUSH3 0x4C53 JUMP JUMPDEST PUSH1 0x1 SLOAD PUSH1 0x1 PUSH1 0xB0 SHL SWAP1 DIV PUSH1 0xFF AND ISZERO PUSH3 0x2BBF JUMPI PUSH1 0x40 MLOAD PUSH3 0x461BCD PUSH1 0xE5 SHL DUP2 MSTORE PUSH1 0x4 ADD PUSH3 0xC36 SWAP1 PUSH3 0x4BDC JUMP JUMPDEST PUSH1 0x5 SSTORE JUMP JUMPDEST PUSH1 0x0 DUP1 PUSH3 0x2BD9 DUP5 DUP7 PUSH4 0xFFFFFFFF PUSH3 0x3FE7 AND JUMP JUMPDEST SWAP1 POP PUSH3 0xE84 DUP4 DUP3 DUP7 JUMPDEST PUSH1 0x0 DUP1 PUSH3 0x2BF0 PUSH3 0x23B8 JUMP JUMPDEST PUSH1 0xD SLOAD PUSH1 0x40 MLOAD PUSH4 0x7AA9261F PUSH1 0xE1 SHL DUP2 MSTORE SWAP2 SWAP3 POP PUSH20 0x0 SWAP2 PUSH4 0xF5524C3E SWAP2 PUSH3 0x2C35 SWAP2 DUP10 SWAP2 DUP10 SWAP2 DUP10 SWAP2 DUP9 SWAP2 PUSH1 0x4 ADD PUSH3 0x4F0F JUMP JUMPDEST PUSH1 0x20 PUSH1 0x40 MLOAD DUP1 DUP4 SUB DUP2 DUP7 DUP1 EXTCODESIZE ISZERO DUP1 ISZERO PUSH3 0x2C4E JUMPI PUSH1 0x0 DUP1 REVERT JUMPDEST POP GAS DELEGATECALL ISZERO DUP1 ISZERO PUSH3 0x2C63 JUMPI RETURNDATASIZE PUSH1 0x0 DUP1 RETURNDATACOPY RETURNDATASIZE PUSH1 0x0 REVERT JUMPDEST POP POP POP POP PUSH1 0x40 MLOAD RETURNDATASIZE PUSH1 0x1F NOT PUSH1 0x1F DUP3 ADD AND DUP3 ADD DUP1 PUSH1 0x40 MSTORE POP DUP2 ADD SWAP1 PUSH3 0xE84 SWAP2 SWAP1 PUSH3 0x4636 JUMP JUMPDEST PUSH1 0x4 SLOAD DUP2 JUMP JUMPDEST PUSH1 0x0 DUP2 DUP4 LT PUSH3 0x2CB3 JUMPI PUSH1 0x40 MLOAD PUSH3 0x461BCD PUSH1 0xE5 SHL DUP2 MSTORE PUSH1 0x4 ADD PUSH3 0xC36 SWAP1 PUSH3 0x4B2B JUMP JUMPDEST PUSH1 0x0 PUSH3 0x2CC7 DUP4 DUP6 PUSH4 0xFFFFFFFF PUSH3 0x3E90 AND JUMP JUMPDEST SWAP1 POP PUSH3 0x1C06 DUP4 DUP5 DUP4 PUSH3 0x2BE3 JUMP JUMPDEST PUSH1 0x0 PUSH3 0x159A DUP3 PUSH3 0x3AC9 JUMP JUMPDEST PUSH1 0x3 SLOAD PUSH1 0xFF AND DUP2 JUMP JUMPDEST PUSH1 0x1 SLOAD PUSH1 0x1 PUSH1 0xC0 SHL SWAP1 DIV PUSH1 0xFF AND DUP2 JUMP JUMPDEST PUSH1 0x1 SLOAD PUSH1 0x0 SWAP1 PUSH1 0x1 PUSH1 0xA0 SHL SWAP1 DIV PUSH1 0xFF AND ISZERO PUSH3 0x2D2C JUMPI PUSH1 0x40 MLOAD PUSH3 0x461BCD PUSH1 0xE5 SHL DUP2 MSTORE PUSH1 0x4 ADD PUSH3 0xC36 SWAP1 PUSH3 0x4951 JUMP JUMPDEST PUSH1 0x1 DUP1 SLOAD PUSH1 0xFF PUSH1 0xA0 SHL NOT AND PUSH1 0x1 PUSH1 0xA0 SHL OR SWAP1 DUP2 SWAP1 SSTORE PUSH1 0x1 PUSH1 0xC0 SHL SWAP1 DIV PUSH1 0xFF AND PUSH3 0x2D6A JUMPI PUSH1 0x40 MLOAD PUSH3 0x461BCD PUSH1 0xE5 SHL DUP2 MSTORE PUSH1 0x4 ADD PUSH3 0xC36 SWAP1 PUSH3 0x48E3 JUMP JUMPDEST PUSH1 0x0 PUSH3 0x2D76 PUSH3 0x3DBB JUMP JUMPDEST POP SWAP1 POP PUSH1 0x0 PUSH3 0x2D85 PUSH3 0x108A JUMP JUMPDEST SWAP1 POP DUP4 DUP2 PUSH3 0x2DA8 JUMPI PUSH3 0x2DA0 DUP6 DUP5 PUSH4 0xFFFFFFFF PUSH3 0x3FE7 AND JUMP JUMPDEST SWAP1 POP PUSH3 0x2DC9 JUMP JUMPDEST DUP3 ISZERO PUSH3 0x2DC9 JUMPI PUSH3 0x2DC6 DUP4 PUSH3 0x1820 DUP8 DUP6 PUSH4 0xFFFFFFFF PUSH3 0x4016 AND JUMP JUMPDEST SWAP1 POP JUMPDEST PUSH3 0x2DD5 CALLER DUP7 PUSH3 0x42EB JUMP JUMPDEST PUSH3 0x2DE1 DUP7 DUP3 PUSH3 0x4359 JUMP JUMPDEST PUSH1 0xF SLOAD PUSH3 0x2DF6 SWAP1 DUP7 PUSH4 0xFFFFFFFF PUSH3 0x3FE7 AND JUMP JUMPDEST PUSH1 0xF SSTORE PUSH1 0x40 MLOAD PUSH1 0x1 PUSH1 0x1 PUSH1 0xA0 SHL SUB DUP8 AND SWAP1 CALLER SWAP1 PUSH32 0x18081CDE2FA64894914E1080B98CCA17BB6D1ACF633E57F6E26EBDB945AD830B SWAP1 PUSH3 0x20EB SWAP1 PUSH1 0x1 SWAP1 DUP11 SWAP1 DUP8 SWAP1 PUSH3 0x47D6 JUMP JUMPDEST PUSH1 0xB SLOAD DUP2 JUMP JUMPDEST PUSH1 0x0 DUP1 PUSH3 0x2E5F PUSH1 0x10 SLOAD PUSH1 0x12 SLOAD PUSH3 0x3E90 SWAP1 SWAP2 SWAP1 PUSH4 0xFFFFFFFF AND JUMP JUMPDEST SWAP1 POP PUSH1 0x0 PUSH3 0x2E6D PUSH3 0x23B8 JUMP JUMPDEST SWAP1 POP PUSH1 0x0 PUSH3 0x2E7D DUP4 DUP4 PUSH3 0x42A9 JUMP JUMPDEST PUSH1 0x11 SLOAD PUSH1 0xD SLOAD PUSH1 0x40 MLOAD PUSH4 0xDC065BC9 PUSH1 0xE0 SHL DUP2 MSTORE SWAP3 SWAP4 POP PUSH1 0x0 SWAP3 PUSH20 0x0 SWAP3 PUSH4 0xDC065BC9 SWAP3 PUSH3 0x2EC2 SWAP3 DUP8 SWAP1 PUSH1 0x4 ADD PUSH3 0x4E9C JUMP JUMPDEST PUSH1 0x20 PUSH1 0x40 MLOAD DUP1 DUP4 SUB DUP2 DUP7 DUP1 EXTCODESIZE ISZERO DUP1 ISZERO PUSH3 0x2EDB JUMPI PUSH1 0x0 DUP1 REVERT JUMPDEST POP GAS DELEGATECALL ISZERO DUP1 ISZERO PUSH3 0x2EF0 JUMPI RETURNDATASIZE PUSH1 0x0 DUP1 RETURNDATACOPY RETURNDATASIZE PUSH1 0x0 REVERT JUMPDEST POP POP POP POP PUSH1 0x40 MLOAD RETURNDATASIZE PUSH1 0x1F NOT PUSH1 0x1F DUP3 ADD AND DUP3 ADD DUP1 PUSH1 0x40 MSTORE POP DUP2 ADD SWAP1 PUSH3 0x2F16 SWAP2 SWAP1 PUSH3 0x4636 JUMP JUMPDEST SWAP1 POP PUSH3 0x1BAB PUSH1 0x11 SLOAD DUP3 PUSH3 0x3E90 SWAP1 SWAP2 SWAP1 PUSH4 0xFFFFFFFF AND JUMP JUMPDEST PUSH1 0x14 SLOAD PUSH1 0x1 PUSH1 0x1 PUSH1 0xA0 SHL SUB AND DUP2 JUMP JUMPDEST PUSH1 0x6 SLOAD PUSH1 0x1 PUSH1 0x1 PUSH1 0xA0 SHL SUB AND CALLER EQ DUP1 PUSH3 0x2F62 JUMPI POP PUSH1 0x0 SLOAD PUSH1 0x1 PUSH1 0x1 PUSH1 0xA0 SHL SUB AND CALLER EQ JUMPDEST PUSH3 0x2F81 JUMPI PUSH1 0x40 MLOAD PUSH3 0x461BCD PUSH1 0xE5 SHL DUP2 MSTORE PUSH1 0x4 ADD PUSH3 0xC36 SWAP1 PUSH3 0x4A70 JUMP JUMPDEST PUSH1 0x3 DUP1 SLOAD PUSH2 0xFF00 NOT AND SWAP1 SSTORE JUMP JUMPDEST PUSH1 0xF SLOAD DUP2 JUMP JUMPDEST PUSH1 0x6 SLOAD PUSH1 0x1 PUSH1 0x1 PUSH1 0xA0 SHL SUB AND CALLER EQ DUP1 PUSH3 0x2FB8 JUMPI POP PUSH1 0x0 SLOAD PUSH1 0x1 PUSH1 0x1 PUSH1 0xA0 SHL SUB AND CALLER EQ JUMPDEST PUSH3 0x2FD7 JUMPI PUSH1 0x40 MLOAD PUSH3 0x461BCD PUSH1 0xE5 SHL DUP2 MSTORE PUSH1 0x4 ADD PUSH3 0xC36 SWAP1 PUSH3 0x4A70 JUMP JUMPDEST PUSH1 0x1 DUP1 SLOAD PUSH1 0xFF PUSH1 0xB8 SHL NOT AND SWAP1 SSTORE JUMP JUMPDEST PUSH1 0x0 PUSH3 0x1526 CALLER DUP4 PUSH3 0x1117 JUMP JUMPDEST PUSH1 0xC SLOAD DUP2 JUMP JUMPDEST PUSH1 0x0 SLOAD PUSH1 0x1 PUSH1 0x1 PUSH1 0xA0 SHL SUB AND CALLER EQ PUSH3 0x3027 JUMPI PUSH1 0x40 MLOAD PUSH3 0x461BCD PUSH1 0xE5 SHL DUP2 MSTORE PUSH1 0x4 ADD PUSH3 0xC36 SWAP1 PUSH3 0x4C53 JUMP JUMPDEST PUSH1 0x8 SLOAD PUSH1 0x1 PUSH1 0x1 PUSH1 0xA0 SHL SUB DUP4 DUP2 AND SWAP2 AND EQ ISZERO PUSH3 0x30FA JUMPI PUSH1 0x11 SLOAD PUSH3 0x3053 SWAP1 DUP3 PUSH4 0xFFFFFFFF PUSH3 0x3FE7 AND JUMP JUMPDEST PUSH1 0x8 SLOAD PUSH1 0x40 MLOAD PUSH4 0x70A08231 PUSH1 0xE0 SHL DUP2 MSTORE PUSH1 0x1 PUSH1 0x1 PUSH1 0xA0 SHL SUB SWAP1 SWAP2 AND SWAP1 PUSH4 0x70A08231 SWAP1 PUSH3 0x3085 SWAP1 ADDRESS SWAP1 PUSH1 0x4 ADD PUSH3 0x476A JUMP JUMPDEST PUSH1 0x20 PUSH1 0x40 MLOAD DUP1 DUP4 SUB DUP2 DUP7 DUP1 EXTCODESIZE ISZERO DUP1 ISZERO PUSH3 0x309E JUMPI PUSH1 0x0 DUP1 REVERT JUMPDEST POP GAS STATICCALL ISZERO DUP1 ISZERO PUSH3 0x30B3 JUMPI RETURNDATASIZE PUSH1 0x0 DUP1 RETURNDATACOPY RETURNDATASIZE PUSH1 0x0 REVERT JUMPDEST POP POP POP POP PUSH1 0x40 MLOAD RETURNDATASIZE PUSH1 0x1F NOT PUSH1 0x1F DUP3 ADD AND DUP3 ADD DUP1 PUSH1 0x40 MSTORE POP DUP2 ADD SWAP1 PUSH3 0x30D9 SWAP2 SWAP1 PUSH3 0x4636 JUMP JUMPDEST LT ISZERO PUSH3 0x30FA JUMPI PUSH1 0x40 MLOAD PUSH3 0x461BCD PUSH1 0xE5 SHL DUP2 MSTORE PUSH1 0x4 ADD PUSH3 0xC36 SWAP1 PUSH3 0x4B2B JUMP JUMPDEST PUSH1 0x9 SLOAD PUSH1 0x1 PUSH1 0x1 PUSH1 0xA0 SHL SUB DUP4 DUP2 AND SWAP2 AND EQ ISZERO PUSH3 0x31CD JUMPI PUSH1 0x12 SLOAD PUSH3 0x3126 SWAP1 DUP3 PUSH4 0xFFFFFFFF PUSH3 0x3FE7 AND JUMP JUMPDEST PUSH1 0x9 SLOAD PUSH1 0x40 MLOAD PUSH4 0x70A08231 PUSH1 0xE0 SHL DUP2 MSTORE PUSH1 0x1 PUSH1 0x1 PUSH1 0xA0 SHL SUB SWAP1 SWAP2 AND SWAP1 PUSH4 0x70A08231 SWAP1 PUSH3 0x3158 SWAP1 ADDRESS SWAP1 PUSH1 0x4 ADD PUSH3 0x476A JUMP JUMPDEST PUSH1 0x20 PUSH1 0x40 MLOAD DUP1 DUP4 SUB DUP2 DUP7 DUP1 EXTCODESIZE ISZERO DUP1 ISZERO PUSH3 0x3171 JUMPI PUSH1 0x0 DUP1 REVERT JUMPDEST POP GAS STATICCALL ISZERO DUP1 ISZERO PUSH3 0x3186 JUMPI RETURNDATASIZE PUSH1 0x0 DUP1 RETURNDATACOPY RETURNDATASIZE PUSH1 0x0 REVERT JUMPDEST POP POP POP POP PUSH1 0x40 MLOAD RETURNDATASIZE PUSH1 0x1F NOT PUSH1 0x1F DUP3 ADD AND DUP3 ADD DUP1 PUSH1 0x40 MSTORE POP DUP2 ADD SWAP1 PUSH3 0x31AC SWAP2 SWAP1 PUSH3 0x4636 JUMP JUMPDEST LT ISZERO PUSH3 0x31CD JUMPI PUSH1 0x40 MLOAD PUSH3 0x461BCD PUSH1 0xE5 SHL DUP2 MSTORE PUSH1 0x4 ADD PUSH3 0xC36 SWAP1 PUSH3 0x4844 JUMP JUMPDEST PUSH3 0x1FA6 PUSH1 0x1 PUSH1 0x1 PUSH1 0xA0 SHL SUB DUP4 AND CALLER DUP4 PUSH4 0xFFFFFFFF PUSH3 0x438D AND JUMP JUMPDEST PUSH1 0x0 PUSH3 0x110B CALLER PUSH3 0xC06 JUMP JUMPDEST PUSH1 0x1 SLOAD PUSH1 0x1 PUSH1 0xB8 SHL SWAP1 DIV PUSH1 0xFF AND DUP2 JUMP JUMPDEST PUSH1 0x15 SLOAD DUP2 JUMP JUMPDEST PUSH1 0x0 SLOAD PUSH1 0x1 PUSH1 0x1 PUSH1 0xA0 SHL SUB AND CALLER EQ PUSH3 0x3239 JUMPI PUSH1 0x40 MLOAD PUSH3 0x461BCD PUSH1 0xE5 SHL DUP2 MSTORE PUSH1 0x4 ADD PUSH3 0xC36 SWAP1 PUSH3 0x4C53 JUMP JUMPDEST PUSH1 0x1 SLOAD PUSH1 0x1 PUSH1 0xB0 SHL SWAP1 DIV PUSH1 0xFF AND ISZERO PUSH3 0x3266 JUMPI PUSH1 0x40 MLOAD PUSH3 0x461BCD PUSH1 0xE5 SHL DUP2 MSTORE PUSH1 0x4 ADD PUSH3 0xC36 SWAP1 PUSH3 0x4BDC JUMP JUMPDEST PUSH1 0x3 DUP1 SLOAD PUSH2 0xFF00 NOT AND PUSH2 0x100 OR SWAP1 SSTORE JUMP JUMPDEST PUSH1 0x0 PUSH3 0x110B CALLER PUSH3 0x15A6 JUMP JUMPDEST PUSH1 0x9 SLOAD PUSH1 0x1 PUSH1 0x1 PUSH1 0xA0 SHL SUB AND DUP2 JUMP JUMPDEST PUSH1 0x13 SLOAD PUSH1 0x1 PUSH1 0x1 PUSH1 0xA0 SHL SUB AND DUP2 JUMP JUMPDEST PUSH1 0x0 DUP1 PUSH3 0x32AF PUSH3 0x23B8 JUMP JUMPDEST SWAP1 POP PUSH1 0x0 PUSH20 0x0 PUSH4 0x338DBF33 DUP6 DUP8 PUSH3 0x32DB DUP7 DUP12 PUSH3 0x3FBA JUMP JUMPDEST PUSH1 0x0 PUSH1 0xD SLOAD PUSH1 0x40 MLOAD DUP7 PUSH4 0xFFFFFFFF AND PUSH1 0xE0 SHL DUP2 MSTORE PUSH1 0x4 ADD PUSH3 0x3302 SWAP6 SWAP5 SWAP4 SWAP3 SWAP2 SWAP1 PUSH3 0x4EB2 JUMP JUMPDEST PUSH1 0x20 PUSH1 0x40 MLOAD DUP1 DUP4 SUB DUP2 DUP7 DUP1 EXTCODESIZE ISZERO DUP1 ISZERO PUSH3 0x331B JUMPI PUSH1 0x0 DUP1 REVERT JUMPDEST POP GAS DELEGATECALL ISZERO DUP1 ISZERO PUSH3 0x3330 JUMPI RETURNDATASIZE PUSH1 0x0 DUP1 RETURNDATACOPY RETURNDATASIZE PUSH1 0x0 REVERT JUMPDEST POP POP POP POP PUSH1 0x40 MLOAD RETURNDATASIZE PUSH1 0x1F NOT PUSH1 0x1F DUP3 ADD AND DUP3 ADD DUP1 PUSH1 0x40 MSTORE POP DUP2 ADD SWAP1 PUSH3 0x3356 SWAP2 SWAP1 PUSH3 0x4636 JUMP JUMPDEST SWAP1 POP PUSH3 0x238F DUP6 DUP3 PUSH4 0xFFFFFFFF PUSH3 0x3E90 AND JUMP JUMPDEST PUSH1 0x1 SLOAD PUSH1 0x1 PUSH1 0xC8 SHL SWAP1 DIV PUSH1 0xFF AND DUP2 JUMP JUMPDEST PUSH1 0x1 SLOAD PUSH1 0x0 SWAP1 PUSH1 0x1 PUSH1 0xC8 SHL SWAP1 DIV PUSH1 0xFF AND PUSH3 0x33A9 JUMPI PUSH1 0x40 MLOAD PUSH3 0x461BCD PUSH1 0xE5 SHL DUP2 MSTORE PUSH1 0x4 ADD PUSH3 0xC36 SWAP1 PUSH3 0x4B62 JUMP JUMPDEST PUSH1 0x3 SLOAD PUSH1 0xFF AND PUSH3 0x33CE JUMPI PUSH1 0x40 MLOAD PUSH3 0x461BCD PUSH1 0xE5 SHL DUP2 MSTORE PUSH1 0x4 ADD PUSH3 0xC36 SWAP1 PUSH3 0x4E49 JUMP JUMPDEST PUSH1 0x2 SLOAD GASPRICE GT ISZERO PUSH3 0x33F3 JUMPI PUSH1 0x40 MLOAD PUSH3 0x461BCD PUSH1 0xE5 SHL DUP2 MSTORE PUSH1 0x4 ADD PUSH3 0xC36 SWAP1 PUSH3 0x4DCD JUMP JUMPDEST PUSH1 0x1 SLOAD PUSH1 0x1 PUSH1 0xA0 SHL SWAP1 DIV PUSH1 0xFF AND ISZERO PUSH3 0x3420 JUMPI PUSH1 0x40 MLOAD PUSH3 0x461BCD PUSH1 0xE5 SHL DUP2 MSTORE PUSH1 0x4 ADD PUSH3 0xC36 SWAP1 PUSH3 0x4951 JUMP JUMPDEST PUSH1 0x1 DUP1 SLOAD PUSH1 0xFF PUSH1 0xA0 SHL NOT AND PUSH1 0x1 PUSH1 0xA0 SHL OR SWAP1 SSTORE PUSH1 0x0 DUP1 DUP1 DUP1 DUP1 DUP1 PUSH3 0x3445 DUP12 PUSH3 0x1D02 JUMP JUMPDEST SWAP6 POP SWAP6 POP SWAP6 POP SWAP6 POP SWAP6 POP SWAP6 POP DUP10 DUP7 GT ISZERO PUSH3 0x3474 JUMPI PUSH1 0x40 MLOAD PUSH3 0x461BCD PUSH1 0xE5 SHL DUP2 MSTORE PUSH1 0x4 ADD PUSH3 0xC36 SWAP1 PUSH3 0x4D5C JUMP JUMPDEST PUSH3 0x3480 CALLER DUP13 PUSH3 0x40BC JUMP JUMPDEST DUP8 ISZERO PUSH3 0x34EA JUMPI PUSH1 0x40 MLOAD PUSH4 0x301BC675 PUSH1 0xE1 SHL DUP2 MSTORE CALLER SWAP1 PUSH4 0x60378CEA SWAP1 PUSH3 0x34B5 SWAP1 PUSH1 0x1 SWAP1 DUP16 SWAP1 DUP12 SWAP1 DUP16 SWAP1 DUP16 SWAP1 PUSH1 0x4 ADD PUSH3 0x47EE JUMP JUMPDEST PUSH1 0x0 PUSH1 0x40 MLOAD DUP1 DUP4 SUB DUP2 PUSH1 0x0 DUP8 DUP1 EXTCODESIZE ISZERO DUP1 ISZERO PUSH3 0x34D0 JUMPI PUSH1 0x0 DUP1 REVERT JUMPDEST POP GAS CALL ISZERO DUP1 ISZERO PUSH3 0x34E5 JUMPI RETURNDATASIZE PUSH1 0x0 DUP1 RETURNDATACOPY RETURNDATASIZE PUSH1 0x0 REVERT JUMPDEST POP POP POP POP JUMPDEST PUSH3 0x34F6 CALLER DUP8 PUSH3 0x4172 JUMP JUMPDEST DUP4 ISZERO PUSH3 0x3562 JUMPI PUSH1 0x7 SLOAD PUSH3 0x3515 SWAP1 PUSH1 0x1 PUSH1 0x1 PUSH1 0xA0 SHL SUB AND DUP6 PUSH3 0x40BC JUMP JUMPDEST PUSH1 0x7 SLOAD PUSH1 0x40 MLOAD PUSH1 0x1 PUSH1 0x1 PUSH1 0xA0 SHL SUB SWAP1 SWAP2 AND SWAP1 PUSH32 0xE4FED5362E2669C70E5DA5A18942D1E617D8917F6ADC0164D9668BD3A6D0CEBE SWAP1 PUSH3 0x3559 SWAP1 PUSH1 0x1 SWAP1 DUP9 SWAP1 PUSH3 0x47C6 JUMP JUMPDEST PUSH1 0x40 MLOAD DUP1 SWAP2 SUB SWAP1 LOG2 JUMPDEST DUP2 PUSH1 0x10 SLOAD EQ PUSH3 0x3572 JUMPI PUSH1 0x10 DUP3 SWAP1 SSTORE JUMPDEST DUP1 PUSH1 0xF SLOAD EQ PUSH3 0x3582 JUMPI PUSH1 0xF DUP2 SWAP1 SSTORE JUMPDEST DUP3 PUSH1 0x2 DUP2 GT ISZERO PUSH3 0x358F JUMPI INVALID JUMPDEST PUSH1 0xE SLOAD PUSH1 0xFF AND PUSH1 0x2 DUP2 GT ISZERO PUSH3 0x35A1 JUMPI INVALID JUMPDEST EQ PUSH3 0x35C7 JUMPI PUSH1 0xE DUP1 SLOAD DUP5 SWAP2 SWAP1 PUSH1 0xFF NOT AND PUSH1 0x1 DUP4 PUSH1 0x2 DUP2 GT ISZERO PUSH3 0x35C1 JUMPI INVALID JUMPDEST MUL OR SWAP1 SSTORE POP JUMPDEST PUSH3 0x35D2 DUP6 PUSH3 0x40F7 JUMP JUMPDEST CALLER PUSH1 0x1 PUSH1 0x1 PUSH1 0xA0 SHL SUB AND PUSH32 0xE93AD76094F247C0DAFC1C61ADC2187DE1AC2738F7A3B49CB20B2263420251A3 DUP13 DUP9 PUSH1 0x40 MLOAD PUSH3 0x2851 SWAP3 SWAP2 SWAP1 PUSH3 0x4E8E JUMP JUMPDEST PUSH1 0x11 SLOAD DUP2 JUMP JUMPDEST PUSH1 0xD SLOAD DUP2 JUMP JUMPDEST PUSH1 0x1 SLOAD PUSH1 0x1 PUSH1 0xA0 SHL SWAP1 DIV PUSH1 0xFF AND ISZERO PUSH3 0x3648 JUMPI PUSH1 0x40 MLOAD PUSH3 0x461BCD PUSH1 0xE5 SHL DUP2 MSTORE PUSH1 0x4 ADD PUSH3 0xC36 SWAP1 PUSH3 0x4951 JUMP JUMPDEST PUSH1 0x1 DUP1 SLOAD PUSH1 0xFF PUSH1 0xA0 SHL NOT AND PUSH1 0x1 PUSH1 0xA0 SHL OR SWAP1 SSTORE PUSH3 0x3667 CALLER DUP3 PUSH3 0x42EB JUMP JUMPDEST PUSH3 0x1CD4 DUP2 PUSH3 0x40F7 JUMP JUMPDEST PUSH1 0x0 DUP1 PUSH1 0x0 PUSH3 0x3681 PUSH3 0x3DBB JUMP JUMPDEST SWAP1 SWAP3 POP SWAP1 POP PUSH1 0x2 PUSH1 0xE SLOAD PUSH1 0xFF AND PUSH1 0x2 DUP2 GT ISZERO PUSH3 0x369A JUMPI INVALID JUMPDEST EQ ISZERO PUSH3 0x3720 JUMPI PUSH1 0x0 PUSH3 0x36CC PUSH3 0x36C3 PUSH1 0x12 SLOAD PUSH3 0x1820 DUP6 DUP7 PUSH3 0x4016 SWAP1 SWAP2 SWAP1 PUSH4 0xFFFFFFFF AND JUMP JUMPDEST PUSH1 0x12 SLOAD PUSH3 0x42A9 JUMP JUMPDEST SWAP1 POP PUSH3 0x36FE PUSH3 0x36E0 PUSH1 0xD SLOAD DUP4 PUSH3 0x3FBA JUMP JUMPDEST PUSH1 0xD SLOAD PUSH3 0x1D56 SWAP1 PUSH8 0xDE0B6B3A7640000 SWAP1 PUSH4 0xFFFFFFFF PUSH3 0x3E90 AND JUMP JUMPDEST SWAP1 POP PUSH3 0x3715 PUSH3 0x370E PUSH3 0x23B8 JUMP JUMPDEST DUP3 PUSH3 0x42A9 JUMP JUMPDEST SWAP4 POP POP POP POP PUSH3 0x110E JUMP JUMPDEST PUSH1 0x0 PUSH3 0x374B PUSH3 0x3742 PUSH1 0x11 SLOAD PUSH3 0x1820 DUP7 DUP8 PUSH3 0x4016 SWAP1 SWAP2 SWAP1 PUSH4 0xFFFFFFFF AND JUMP JUMPDEST PUSH1 0x11 SLOAD PUSH3 0x42A9 JUMP JUMPDEST SWAP1 POP PUSH3 0x375F PUSH3 0x36E0 PUSH1 0xD SLOAD DUP4 PUSH3 0x3FBA JUMP JUMPDEST SWAP1 POP PUSH3 0x3715 PUSH3 0x376F PUSH3 0x23B8 JUMP JUMPDEST DUP3 PUSH3 0x3FBA JUMP JUMPDEST PUSH1 0x0 PUSH1 0x11 SLOAD DUP3 GT ISZERO PUSH3 0x379D JUMPI PUSH1 0x40 MLOAD PUSH3 0x461BCD PUSH1 0xE5 SHL DUP2 MSTORE PUSH1 0x4 ADD PUSH3 0xC36 SWAP1 PUSH3 0x4B2B JUMP JUMPDEST PUSH1 0x1 PUSH1 0xE SLOAD PUSH1 0xFF AND PUSH1 0x2 DUP2 GT ISZERO PUSH3 0x37B1 JUMPI INVALID JUMPDEST EQ ISZERO PUSH3 0x1081 JUMPI PUSH1 0x0 PUSH3 0x37D3 PUSH1 0x10 SLOAD PUSH1 0x12 SLOAD PUSH3 0x3E90 SWAP1 SWAP2 SWAP1 PUSH4 0xFFFFFFFF AND JUMP JUMPDEST SWAP1 POP PUSH1 0x0 PUSH3 0x37E1 PUSH3 0x23B8 JUMP JUMPDEST SWAP1 POP PUSH1 0x0 PUSH3 0x37F1 DUP4 DUP4 PUSH3 0x42A9 JUMP JUMPDEST PUSH1 0x11 SLOAD PUSH1 0xD SLOAD PUSH1 0x40 MLOAD PUSH4 0xDC065BC9 PUSH1 0xE0 SHL DUP2 MSTORE SWAP3 SWAP4 POP PUSH1 0x0 SWAP3 PUSH20 0x0 SWAP3 PUSH4 0xDC065BC9 SWAP3 PUSH3 0x3836 SWAP3 DUP8 SWAP1 PUSH1 0x4 ADD PUSH3 0x4E9C JUMP JUMPDEST PUSH1 0x20 PUSH1 0x40 MLOAD DUP1 DUP4 SUB DUP2 DUP7 DUP1 EXTCODESIZE ISZERO DUP1 ISZERO PUSH3 0x384F JUMPI PUSH1 0x0 DUP1 REVERT JUMPDEST POP GAS DELEGATECALL ISZERO DUP1 ISZERO PUSH3 0x3864 JUMPI RETURNDATASIZE PUSH1 0x0 DUP1 RETURNDATACOPY RETURNDATASIZE PUSH1 0x0 REVERT JUMPDEST POP POP POP POP PUSH1 0x40 MLOAD RETURNDATASIZE PUSH1 0x1F NOT PUSH1 0x1F DUP3 ADD AND DUP3 ADD DUP1 PUSH1 0x40 MSTORE POP DUP2 ADD SWAP1 PUSH3 0x388A SWAP2 SWAP1 PUSH3 0x4636 JUMP JUMPDEST SWAP1 POP PUSH1 0x0 PUSH20 0x0 PUSH4 0xDC065BC9 PUSH3 0xFD6 DUP10 PUSH1 0x11 SLOAD PUSH3 0x3E90 SWAP1 SWAP2 SWAP1 PUSH4 0xFFFFFFFF AND JUMP JUMPDEST PUSH1 0x1 SLOAD PUSH1 0x1 PUSH1 0xA8 SHL SWAP1 DIV PUSH1 0xFF AND ISZERO PUSH3 0x38EC JUMPI PUSH1 0x40 MLOAD PUSH3 0x461BCD PUSH1 0xE5 SHL DUP2 MSTORE PUSH1 0x4 ADD PUSH3 0xC36 SWAP1 PUSH3 0x4B01 JUMP JUMPDEST PUSH1 0x1 DUP1 SLOAD PUSH1 0xFF PUSH1 0xA8 SHL NOT AND PUSH1 0x1 PUSH1 0xA8 SHL OR SWAP1 SSTORE PUSH1 0x0 DUP1 SLOAD PUSH1 0x1 PUSH1 0x1 PUSH1 0xA0 SHL SUB DUP1 DUP14 AND PUSH1 0x1 PUSH1 0x1 PUSH1 0xA0 SHL SUB NOT SWAP1 SWAP3 AND SWAP2 SWAP1 SWAP2 OR DUP1 DUP4 SSTORE PUSH1 0x40 MLOAD SWAP2 AND SWAP2 SWAP1 PUSH32 0x8BE0079C531659141344CD1FD0A4F28419497F9722A3DAAFE3B4186F6B6457E0 SWAP1 DUP3 SWAP1 LOG3 PUSH1 0x6 DUP1 SLOAD PUSH1 0x1 PUSH1 0x1 PUSH1 0xA0 SHL SUB NOT SWAP1 DUP2 AND PUSH1 0x1 PUSH1 0x1 PUSH1 0xA0 SHL SUB DUP13 DUP2 AND SWAP2 SWAP1 SWAP2 OR SWAP1 SWAP3 SSTORE PUSH1 0x7 DUP1 SLOAD DUP3 AND DUP12 DUP5 AND OR SWAP1 SSTORE PUSH1 0x8 DUP1 SLOAD DUP3 AND DUP11 DUP5 AND OR SWAP1 DUP2 SWAP1 SSTORE PUSH1 0x9 DUP1 SLOAD DUP4 AND DUP11 DUP6 AND OR SWAP1 SSTORE PUSH1 0xA DUP1 SLOAD SWAP1 SWAP3 AND DUP9 DUP5 AND OR SWAP1 SWAP2 SSTORE PUSH1 0x1 DUP1 SLOAD PUSH3 0xFFFFFF PUSH1 0xB8 SHL NOT AND DUP2 SSTORE PUSH1 0x2 DUP5 SWAP1 SSTORE PUSH1 0x3 DUP1 SLOAD PUSH2 0x100 PUSH1 0xFF NOT SWAP2 DUP3 AND SWAP1 SWAP4 OR PUSH2 0xFF00 NOT AND SWAP3 SWAP1 SWAP3 OR SWAP1 SSTORE PUSH1 0x0 NOT PUSH1 0x4 DUP2 SWAP1 SSTORE PUSH1 0x5 DUP2 SWAP1 SSTORE PUSH1 0xB DUP9 SWAP1 SSTORE PUSH1 0xC DUP8 SWAP1 SSTORE PUSH1 0xD DUP7 SWAP1 SSTORE PUSH1 0xE DUP1 SLOAD SWAP1 SWAP3 AND SWAP1 SWAP2 SSTORE PUSH1 0x40 MLOAD SWAP1 SWAP3 SWAP2 SWAP1 SWAP2 AND SWAP1 PUSH3 0x3A0D SWAP1 PUSH3 0x44DA JUMP JUMPDEST PUSH3 0x3A19 SWAP2 SWAP1 PUSH3 0x476A JUMP JUMPDEST PUSH1 0x40 MLOAD DUP1 SWAP2 SUB SWAP1 PUSH1 0x0 CREATE DUP1 ISZERO DUP1 ISZERO PUSH3 0x3A36 JUMPI RETURNDATASIZE PUSH1 0x0 DUP1 RETURNDATACOPY RETURNDATASIZE PUSH1 0x0 REVERT JUMPDEST POP PUSH1 0x13 DUP1 SLOAD PUSH1 0x1 PUSH1 0x1 PUSH1 0xA0 SHL SUB NOT AND PUSH1 0x1 PUSH1 0x1 PUSH1 0xA0 SHL SUB SWAP3 DUP4 AND OR SWAP1 SSTORE PUSH1 0x9 SLOAD PUSH1 0x40 MLOAD SWAP2 AND SWAP1 PUSH3 0x3A67 SWAP1 PUSH3 0x44DA JUMP JUMPDEST PUSH3 0x3A73 SWAP2 SWAP1 PUSH3 0x476A JUMP JUMPDEST PUSH1 0x40 MLOAD DUP1 SWAP2 SUB SWAP1 PUSH1 0x0 CREATE DUP1 ISZERO DUP1 ISZERO PUSH3 0x3A90 JUMPI RETURNDATASIZE PUSH1 0x0 DUP1 RETURNDATACOPY RETURNDATASIZE PUSH1 0x0 REVERT JUMPDEST POP PUSH1 0x14 DUP1 SLOAD PUSH1 0x1 PUSH1 0x1 PUSH1 0xA0 SHL SUB NOT AND PUSH1 0x1 PUSH1 0x1 PUSH1 0xA0 SHL SUB SWAP3 SWAP1 SWAP3 AND SWAP2 SWAP1 SWAP2 OR SWAP1 SSTORE PUSH3 0x3ABB PUSH3 0x41E0 JUMP JUMPDEST POP POP POP POP POP POP POP POP POP POP POP POP JUMP JUMPDEST PUSH1 0x0 DUP1 PUSH1 0x0 DUP1 PUSH1 0x0 DUP1 PUSH3 0x3ADC PUSH3 0x3DBB JUMP JUMPDEST SWAP3 POP SWAP1 POP DUP7 PUSH1 0x0 PUSH1 0xE SLOAD PUSH1 0xFF AND PUSH1 0x2 DUP2 GT ISZERO PUSH3 0x3AF5 JUMPI INVALID JUMPDEST EQ ISZERO PUSH3 0x3B14 JUMPI PUSH3 0x3B08 DUP2 DUP5 PUSH3 0x1459 JUMP JUMPDEST SWAP7 POP PUSH1 0x2 SWAP4 POP PUSH3 0x3BF2 JUMP JUMPDEST PUSH1 0x1 PUSH1 0xE SLOAD PUSH1 0xFF AND PUSH1 0x2 DUP2 GT ISZERO PUSH3 0x3B28 JUMPI INVALID JUMPDEST EQ ISZERO PUSH3 0x3BDC JUMPI PUSH1 0x0 PUSH3 0x3B48 PUSH1 0x11 SLOAD DUP5 PUSH3 0x3E90 SWAP1 SWAP2 SWAP1 PUSH4 0xFFFFFFFF AND JUMP JUMPDEST SWAP1 POP PUSH1 0x0 PUSH3 0x3B63 DUP6 PUSH1 0x12 SLOAD PUSH3 0x3E90 SWAP1 SWAP2 SWAP1 PUSH4 0xFFFFFFFF AND JUMP JUMPDEST SWAP1 POP DUP2 DUP4 LT ISZERO PUSH3 0x3B96 JUMPI PUSH3 0x3B7D DUP4 PUSH1 0x11 SLOAD DUP7 PUSH3 0x2BC4 JUMP JUMPDEST SWAP9 POP PUSH1 0x1 SWAP6 POP DUP1 DUP10 GT ISZERO PUSH3 0x3B90 JUMPI DUP1 SWAP9 POP JUMPDEST PUSH3 0x3BD4 JUMP JUMPDEST DUP2 DUP4 EQ ISZERO PUSH3 0x3BAC JUMPI DUP1 SWAP9 POP PUSH1 0x0 SWAP6 POP PUSH3 0x3BD4 JUMP JUMPDEST PUSH3 0x3BCD PUSH3 0x18C6 PUSH3 0x3BC6 DUP6 DUP6 PUSH4 0xFFFFFFFF PUSH3 0x3E90 AND JUMP JUMPDEST DUP8 PUSH3 0x1459 JUMP JUMPDEST SWAP9 POP PUSH1 0x2 SWAP6 POP JUMPDEST POP POP PUSH3 0x3BF2 JUMP JUMPDEST PUSH3 0x3BEB DUP2 PUSH1 0x12 SLOAD DUP6 PUSH3 0x32A2 JUMP JUMPDEST SWAP7 POP PUSH1 0x2 SWAP4 POP JUMPDEST PUSH3 0x3C00 DUP8 PUSH1 0xB SLOAD PUSH3 0x3FBA JUMP JUMPDEST SWAP6 POP PUSH3 0x3C10 DUP8 PUSH1 0xC SLOAD PUSH3 0x3FBA JUMP JUMPDEST SWAP5 POP PUSH3 0x3C36 DUP6 PUSH3 0x3C29 DUP10 DUP10 PUSH4 0xFFFFFFFF PUSH3 0x3E90 AND JUMP JUMPDEST SWAP1 PUSH4 0xFFFFFFFF PUSH3 0x3E90 AND JUMP JUMPDEST SWAP7 POP POP SWAP2 SWAP4 SWAP6 POP SWAP2 SWAP4 SWAP6 JUMP JUMPDEST PUSH1 0x0 SLOAD PUSH1 0x1 PUSH1 0x1 PUSH1 0xA0 SHL SUB AND CALLER EQ PUSH3 0x3C6F JUMPI PUSH1 0x40 MLOAD PUSH3 0x461BCD PUSH1 0xE5 SHL DUP2 MSTORE PUSH1 0x4 ADD PUSH3 0xC36 SWAP1 PUSH3 0x4C53 JUMP JUMPDEST PUSH32 0x6B04DA3D58E4B37D99652BABB3EA2BC25CE94379BFFF3059F03D61B26C59E553 PUSH1 0xC SLOAD DUP3 PUSH1 0x40 MLOAD PUSH3 0x3CA4 SWAP3 SWAP2 SWAP1 PUSH3 0x4E8E JUMP JUMPDEST PUSH1 0x40 MLOAD DUP1 SWAP2 SUB SWAP1 LOG1 PUSH1 0xC DUP2 SWAP1 SSTORE PUSH3 0x1FA6 PUSH3 0x41E0 JUMP JUMPDEST PUSH1 0x0 SLOAD PUSH1 0x1 PUSH1 0x1 PUSH1 0xA0 SHL SUB AND CALLER EQ PUSH3 0x3CE8 JUMPI PUSH1 0x40 MLOAD PUSH3 0x461BCD PUSH1 0xE5 SHL DUP2 MSTORE PUSH1 0x4 ADD PUSH3 0xC36 SWAP1 PUSH3 0x4C53 JUMP JUMPDEST PUSH1 0x1 PUSH1 0x1 PUSH1 0xA0 SHL SUB DUP2 AND PUSH3 0x3D11 JUMPI PUSH1 0x40 MLOAD PUSH3 0x461BCD PUSH1 0xE5 SHL DUP2 MSTORE PUSH1 0x4 ADD PUSH3 0xC36 SWAP1 PUSH3 0x4B8D JUMP JUMPDEST PUSH1 0x0 DUP1 SLOAD PUSH1 0x40 MLOAD PUSH1 0x1 PUSH1 0x1 PUSH1 0xA0 SHL SUB DUP1 DUP6 AND SWAP4 SWAP3 AND SWAP2 PUSH32 0xDCF55418CEE3220104FEF63F979FF3C4097AD240C0C43DCB33CE837748983E62 SWAP2 LOG3 PUSH1 0x1 DUP1 SLOAD PUSH1 0x1 PUSH1 0x1 PUSH1 0xA0 SHL SUB NOT AND PUSH1 0x1 PUSH1 0x1 PUSH1 0xA0 SHL SUB SWAP3 SWAP1 SWAP3 AND SWAP2 SWAP1 SWAP2 OR SWAP1 SSTORE JUMP JUMPDEST PUSH1 0x0 PUSH3 0x1526 CALLER DUP4 PUSH3 0x1FAA JUMP JUMPDEST PUSH1 0x14 SLOAD PUSH1 0x40 MLOAD PUSH4 0x70A08231 PUSH1 0xE0 SHL DUP2 MSTORE PUSH1 0x0 SWAP2 PUSH1 0x1 PUSH1 0x1 PUSH1 0xA0 SHL SUB AND SWAP1 PUSH4 0x70A08231 SWAP1 PUSH3 0x2480 SWAP1 DUP6 SWAP1 PUSH1 0x4 ADD PUSH3 0x476A JUMP JUMPDEST PUSH1 0x0 PUSH3 0x1526 CALLER DUP4 PUSH3 0x293B JUMP JUMPDEST PUSH1 0x12 SLOAD PUSH1 0x11 SLOAD PUSH1 0x0 SWAP2 DUP3 SWAP2 DUP3 PUSH1 0xE SLOAD PUSH1 0xFF AND PUSH1 0x2 DUP2 GT ISZERO PUSH3 0x3DD9 JUMPI INVALID JUMPDEST EQ ISZERO PUSH3 0x3DF2 JUMPI PUSH1 0xF SLOAD PUSH1 0x10 SLOAD SWAP4 POP SWAP4 POP POP POP PUSH3 0x3E8C JUMP JUMPDEST PUSH1 0x2 PUSH1 0xE SLOAD PUSH1 0xFF AND PUSH1 0x2 DUP2 GT ISZERO PUSH3 0x3E06 JUMPI INVALID JUMPDEST EQ ISZERO PUSH3 0x3E3E JUMPI PUSH1 0x0 PUSH3 0x3E19 PUSH3 0x1ABF JUMP JUMPDEST PUSH1 0xF SLOAD SWAP1 SWAP2 POP PUSH3 0x3E31 DUP5 DUP4 PUSH4 0xFFFFFFFF PUSH3 0x3FE7 AND JUMP JUMPDEST SWAP5 POP SWAP5 POP POP POP POP PUSH3 0x3E8C JUMP JUMPDEST PUSH1 0x1 PUSH1 0xE SLOAD PUSH1 0xFF AND PUSH1 0x2 DUP2 GT ISZERO PUSH3 0x3E52 JUMPI INVALID JUMPDEST EQ ISZERO PUSH3 0x3E89 JUMPI PUSH1 0x0 PUSH3 0x3E65 PUSH3 0x2E43 JUMP JUMPDEST SWAP1 POP PUSH3 0x3E79 DUP3 DUP3 PUSH4 0xFFFFFFFF PUSH3 0x3FE7 AND JUMP JUMPDEST PUSH1 0x10 SLOAD SWAP5 POP SWAP5 POP POP POP POP PUSH3 0x3E8C JUMP JUMPDEST POP POP JUMPDEST SWAP1 SWAP2 JUMP JUMPDEST PUSH1 0x0 DUP3 DUP3 GT ISZERO PUSH3 0x3EB5 JUMPI PUSH1 0x40 MLOAD PUSH3 0x461BCD PUSH1 0xE5 SHL DUP2 MSTORE PUSH1 0x4 ADD PUSH3 0xC36 SWAP1 PUSH3 0x4ADE JUMP JUMPDEST POP SWAP1 SUB SWAP1 JUMP JUMPDEST PUSH1 0x14 SLOAD PUSH1 0x40 MLOAD PUSH4 0x2770A7EB PUSH1 0xE2 SHL DUP2 MSTORE PUSH1 0x1 PUSH1 0x1 PUSH1 0xA0 SHL SUB SWAP1 SWAP2 AND SWAP1 PUSH4 0x9DC29FAC SWAP1 PUSH3 0x3EEF SWAP1 DUP6 SWAP1 DUP6 SWAP1 PUSH1 0x4 ADD PUSH3 0x477E JUMP JUMPDEST PUSH1 0x0 PUSH1 0x40 MLOAD DUP1 DUP4 SUB DUP2 PUSH1 0x0 DUP8 DUP1 EXTCODESIZE ISZERO DUP1 ISZERO PUSH3 0x3F0A JUMPI PUSH1 0x0 DUP1 REVERT JUMPDEST POP GAS CALL ISZERO DUP1 ISZERO PUSH3 0x3F1F JUMPI RETURNDATASIZE PUSH1 0x0 DUP1 RETURNDATACOPY RETURNDATASIZE PUSH1 0x0 REVERT JUMPDEST POP POP POP POP POP POP JUMP JUMPDEST PUSH1 0x9 SLOAD PUSH3 0x3F46 SWAP1 PUSH1 0x1 PUSH1 0x1 PUSH1 0xA0 SHL SUB AND DUP4 DUP4 PUSH4 0xFFFFFFFF PUSH3 0x438D AND JUMP JUMPDEST PUSH1 0x12 SLOAD PUSH3 0x3F5B SWAP1 DUP3 PUSH4 0xFFFFFFFF PUSH3 0x3E90 AND JUMP JUMPDEST PUSH1 0x12 SSTORE POP POP JUMP JUMPDEST PUSH1 0x10 SLOAD PUSH3 0x3F77 SWAP1 DUP3 PUSH4 0xFFFFFFFF PUSH3 0x3FE7 AND JUMP JUMPDEST PUSH1 0x10 SSTORE PUSH1 0x40 MLOAD PUSH32 0xA259C93818139B6BC90FB80E8FEB75122B42EDAAE49560F81392CF4E1946726E SWAP1 PUSH3 0x3FAF SWAP1 DUP4 SWAP1 PUSH1 0x0 SWAP1 PUSH3 0x4E7E JUMP JUMPDEST PUSH1 0x40 MLOAD DUP1 SWAP2 SUB SWAP1 LOG1 POP JUMP JUMPDEST PUSH1 0x0 PUSH8 0xDE0B6B3A7640000 PUSH3 0x3FD7 DUP5 DUP5 PUSH4 0xFFFFFFFF PUSH3 0x4016 AND JUMP JUMPDEST DUP2 PUSH3 0x3FDF JUMPI INVALID JUMPDEST DIV SWAP4 SWAP3 POP POP POP JUMP JUMPDEST PUSH1 0x0 DUP3 DUP3 ADD DUP4 DUP2 LT ISZERO PUSH3 0x400F JUMPI PUSH1 0x40 MLOAD PUSH3 0x461BCD PUSH1 0xE5 SHL DUP2 MSTORE PUSH1 0x4 ADD PUSH3 0xC36 SWAP1 PUSH3 0x4C76 JUMP JUMPDEST SWAP4 SWAP3 POP POP POP JUMP JUMPDEST PUSH1 0x0 DUP3 PUSH3 0x4027 JUMPI POP PUSH1 0x0 PUSH3 0x1526 JUMP JUMPDEST DUP3 DUP3 MUL DUP3 DUP5 DUP3 DUP2 PUSH3 0x4035 JUMPI INVALID JUMPDEST DIV EQ PUSH3 0x400F JUMPI PUSH1 0x40 MLOAD PUSH3 0x461BCD PUSH1 0xE5 SHL DUP2 MSTORE PUSH1 0x4 ADD PUSH3 0xC36 SWAP1 PUSH3 0x4D8C JUMP JUMPDEST PUSH1 0x0 DUP1 PUSH3 0x4065 DUP5 DUP5 PUSH3 0x4144 JUMP JUMPDEST SWAP1 POP DUP3 DUP2 MUL DUP5 SUB DUP1 ISZERO PUSH3 0x407F JUMPI POP PUSH1 0x1 ADD SWAP1 POP PUSH3 0x1526 JUMP JUMPDEST POP SWAP1 POP PUSH3 0x1526 JUMP JUMPDEST PUSH1 0x13 SLOAD PUSH1 0x40 MLOAD PUSH4 0x2770A7EB PUSH1 0xE2 SHL DUP2 MSTORE PUSH1 0x1 PUSH1 0x1 PUSH1 0xA0 SHL SUB SWAP1 SWAP2 AND SWAP1 PUSH4 0x9DC29FAC SWAP1 PUSH3 0x3EEF SWAP1 DUP6 SWAP1 DUP6 SWAP1 PUSH1 0x4 ADD PUSH3 0x477E JUMP JUMPDEST PUSH1 0x8 SLOAD PUSH3 0x40DB SWAP1 PUSH1 0x1 PUSH1 0x1 PUSH1 0xA0 SHL SUB AND DUP4 DUP4 PUSH4 0xFFFFFFFF PUSH3 0x438D AND JUMP JUMPDEST PUSH1 0x11 SLOAD PUSH3 0x40F0 SWAP1 DUP3 PUSH4 0xFFFFFFFF PUSH3 0x3E90 AND JUMP JUMPDEST PUSH1 0x11 SSTORE POP POP JUMP JUMPDEST PUSH1 0xF SLOAD PUSH3 0x410C SWAP1 DUP3 PUSH4 0xFFFFFFFF PUSH3 0x3FE7 AND JUMP JUMPDEST PUSH1 0xF SSTORE PUSH1 0x40 MLOAD PUSH32 0xA259C93818139B6BC90FB80E8FEB75122B42EDAAE49560F81392CF4E1946726E SWAP1 PUSH3 0x3FAF SWAP1 DUP4 SWAP1 PUSH1 0x1 SWAP1 PUSH3 0x4E7E JUMP JUMPDEST PUSH1 0x0 DUP1 DUP3 GT PUSH3 0x4168 JUMPI PUSH1 0x40 MLOAD PUSH3 0x461BCD PUSH1 0xE5 SHL DUP2 MSTORE PUSH1 0x4 ADD PUSH3 0xC36 SWAP1 PUSH3 0x4A05 JUMP JUMPDEST DUP2 DUP4 DUP2 PUSH3 0x3FDF JUMPI INVALID JUMPDEST PUSH1 0x5 SLOAD PUSH1 0x12 SLOAD PUSH3 0x418A SWAP1 DUP4 PUSH4 0xFFFFFFFF PUSH3 0x3FE7 AND JUMP JUMPDEST GT ISZERO PUSH3 0x41AB JUMPI PUSH1 0x40 MLOAD PUSH3 0x461BCD PUSH1 0xE5 SHL DUP2 MSTORE PUSH1 0x4 ADD PUSH3 0xC36 SWAP1 PUSH3 0x4999 JUMP JUMPDEST PUSH1 0x9 SLOAD PUSH3 0x41CB SWAP1 PUSH1 0x1 PUSH1 0x1 PUSH1 0xA0 SHL SUB AND DUP4 ADDRESS DUP5 PUSH4 0xFFFFFFFF PUSH3 0x43EC AND JUMP JUMPDEST PUSH1 0x12 SLOAD PUSH3 0x3F5B SWAP1 DUP3 PUSH4 0xFFFFFFFF PUSH3 0x3FE7 AND JUMP JUMPDEST PUSH1 0x0 PUSH8 0xDE0B6B3A7640000 PUSH1 0xD SLOAD LT PUSH3 0x420E JUMPI PUSH1 0x40 MLOAD PUSH3 0x461BCD PUSH1 0xE5 SHL DUP2 MSTORE PUSH1 0x4 ADD PUSH3 0xC36 SWAP1 PUSH3 0x4DAF JUMP JUMPDEST PUSH1 0x0 PUSH1 0xD SLOAD GT PUSH3 0x4233 JUMPI PUSH1 0x40 MLOAD PUSH3 0x461BCD PUSH1 0xE5 SHL DUP2 MSTORE PUSH1 0x4 ADD PUSH3 0xC36 SWAP1 PUSH3 0x487B JUMP JUMPDEST PUSH8 0xDE0B6B3A7640000 PUSH3 0x4255 PUSH1 0xC SLOAD PUSH1 0xB SLOAD PUSH3 0x3FE7 SWAP1 SWAP2 SWAP1 PUSH4 0xFFFFFFFF AND JUMP JUMPDEST LT PUSH3 0x110E JUMPI PUSH1 0x40 MLOAD PUSH3 0x461BCD PUSH1 0xE5 SHL DUP2 MSTORE PUSH1 0x4 ADD PUSH3 0xC36 SWAP1 PUSH3 0x4C2E JUMP JUMPDEST PUSH1 0x14 SLOAD PUSH1 0x40 MLOAD PUSH4 0x40C10F19 PUSH1 0xE0 SHL DUP2 MSTORE PUSH1 0x1 PUSH1 0x1 PUSH1 0xA0 SHL SUB SWAP1 SWAP2 AND SWAP1 PUSH4 0x40C10F19 SWAP1 PUSH3 0x3EEF SWAP1 DUP6 SWAP1 DUP6 SWAP1 PUSH1 0x4 ADD PUSH3 0x477E JUMP JUMPDEST PUSH1 0x0 PUSH3 0x400F DUP3 PUSH3 0x1820 DUP6 PUSH8 0xDE0B6B3A7640000 PUSH4 0xFFFFFFFF PUSH3 0x4016 AND JUMP JUMPDEST PUSH1 0x0 PUSH3 0x400F PUSH8 0xDE0B6B3A7640000 PUSH3 0x11DF DUP6 DUP6 PUSH4 0xFFFFFFFF PUSH3 0x4016 AND JUMP JUMPDEST PUSH1 0x4 SLOAD PUSH1 0x11 SLOAD PUSH3 0x4303 SWAP1 DUP4 PUSH4 0xFFFFFFFF PUSH3 0x3FE7 AND JUMP JUMPDEST GT ISZERO PUSH3 0x4324 JUMPI PUSH1 0x40 MLOAD PUSH3 0x461BCD PUSH1 0xE5 SHL DUP2 MSTORE PUSH1 0x4 ADD PUSH3 0xC36 SWAP1 PUSH3 0x4AA7 JUMP JUMPDEST PUSH1 0x8 SLOAD PUSH3 0x4344 SWAP1 PUSH1 0x1 PUSH1 0x1 PUSH1 0xA0 SHL SUB AND DUP4 ADDRESS DUP5 PUSH4 0xFFFFFFFF PUSH3 0x43EC AND JUMP JUMPDEST PUSH1 0x11 SLOAD PUSH3 0x40F0 SWAP1 DUP3 PUSH4 0xFFFFFFFF PUSH3 0x3FE7 AND JUMP JUMPDEST PUSH1 0x13 SLOAD PUSH1 0x40 MLOAD PUSH4 0x40C10F19 PUSH1 0xE0 SHL DUP2 MSTORE PUSH1 0x1 PUSH1 0x1 PUSH1 0xA0 SHL SUB SWAP1 SWAP2 AND SWAP1 PUSH4 0x40C10F19 SWAP1 PUSH3 0x3EEF SWAP1 DUP6 SWAP1 DUP6 SWAP1 PUSH1 0x4 ADD PUSH3 0x477E JUMP JUMPDEST PUSH3 0x43E7 DUP4 PUSH4 0xA9059CBB PUSH1 0xE0 SHL DUP5 DUP5 PUSH1 0x40 MLOAD PUSH1 0x24 ADD PUSH3 0x43AF SWAP3 SWAP2 SWAP1 PUSH3 0x477E JUMP JUMPDEST PUSH1 0x40 DUP1 MLOAD PUSH1 0x1F NOT DUP2 DUP5 SUB ADD DUP2 MSTORE SWAP2 SWAP1 MSTORE PUSH1 0x20 DUP2 ADD DUP1 MLOAD PUSH1 0x1 PUSH1 0x1 PUSH1 0xE0 SHL SUB AND PUSH1 0x1 PUSH1 0x1 PUSH1 0xE0 SHL SUB NOT SWAP1 SWAP4 AND SWAP3 SWAP1 SWAP3 OR SWAP1 SWAP2 MSTORE PUSH3 0x4416 JUMP JUMPDEST POP POP POP JUMP JUMPDEST PUSH3 0x4410 DUP5 PUSH4 0x23B872DD PUSH1 0xE0 SHL DUP6 DUP6 DUP6 PUSH1 0x40 MLOAD PUSH1 0x24 ADD PUSH3 0x43AF SWAP4 SWAP3 SWAP2 SWAP1 PUSH3 0x4797 JUMP JUMPDEST POP POP POP POP JUMP JUMPDEST PUSH1 0x0 PUSH1 0x60 DUP4 PUSH1 0x1 PUSH1 0x1 PUSH1 0xA0 SHL SUB AND DUP4 PUSH1 0x40 MLOAD PUSH3 0x4434 SWAP2 SWAP1 PUSH3 0x472E JUMP JUMPDEST PUSH1 0x0 PUSH1 0x40 MLOAD DUP1 DUP4 SUB DUP2 PUSH1 0x0 DUP7 GAS CALL SWAP2 POP POP RETURNDATASIZE DUP1 PUSH1 0x0 DUP2 EQ PUSH3 0x4473 JUMPI PUSH1 0x40 MLOAD SWAP2 POP PUSH1 0x1F NOT PUSH1 0x3F RETURNDATASIZE ADD AND DUP3 ADD PUSH1 0x40 MSTORE RETURNDATASIZE DUP3 MSTORE RETURNDATASIZE PUSH1 0x0 PUSH1 0x20 DUP5 ADD RETURNDATACOPY PUSH3 0x4478 JUMP JUMPDEST PUSH1 0x60 SWAP2 POP JUMPDEST POP SWAP2 POP SWAP2 POP DUP2 PUSH3 0x449D JUMPI PUSH1 0x40 MLOAD PUSH3 0x461BCD PUSH1 0xE5 SHL DUP2 MSTORE PUSH1 0x4 ADD PUSH3 0xC36 SWAP1 PUSH3 0x49D0 JUMP JUMPDEST DUP1 MLOAD ISZERO PUSH3 0x4410 JUMPI DUP1 DUP1 PUSH1 0x20 ADD SWAP1 MLOAD DUP2 ADD SWAP1 PUSH3 0x44BB SWAP2 SWAP1 PUSH3 0x45FB JUMP JUMPDEST PUSH3 0x4410 JUMPI PUSH1 0x40 MLOAD PUSH3 0x461BCD PUSH1 0xE5 SHL DUP2 MSTORE PUSH1 0x4 ADD PUSH3 0xC36 SWAP1 PUSH3 0x4C99 JUMP JUMPDEST PUSH2 0x102D DUP1 PUSH3 0x4F33 DUP4 CODECOPY ADD SWAP1 JUMP JUMPDEST DUP1 CALLDATALOAD PUSH1 0x1 PUSH1 0x1 PUSH1 0xA0 SHL SUB DUP2 AND DUP2 EQ PUSH3 0x1526 JUMPI PUSH1 0x0 DUP1 REVERT JUMPDEST PUSH1 0x0 PUSH1 0x20 DUP3 DUP5 SUB SLT ISZERO PUSH3 0x4512 JUMPI DUP1 DUP2 REVERT JUMPDEST PUSH3 0x400F DUP4 DUP4 PUSH3 0x44E8 JUMP JUMPDEST PUSH1 0x0 DUP1 PUSH1 0x0 DUP1 PUSH1 0x0 DUP1 PUSH1 0x0 DUP1 PUSH1 0x0 DUP1 PUSH2 0x140 DUP12 DUP14 SUB SLT ISZERO PUSH3 0x453E JUMPI DUP6 DUP7 REVERT JUMPDEST PUSH3 0x454A DUP13 DUP13 PUSH3 0x44E8 JUMP JUMPDEST SWAP10 POP PUSH3 0x455B DUP13 PUSH1 0x20 DUP14 ADD PUSH3 0x44E8 JUMP JUMPDEST SWAP9 POP PUSH3 0x456C DUP13 PUSH1 0x40 DUP14 ADD PUSH3 0x44E8 JUMP JUMPDEST SWAP8 POP PUSH3 0x457D DUP13 PUSH1 0x60 DUP14 ADD PUSH3 0x44E8 JUMP JUMPDEST SWAP7 POP PUSH3 0x458E DUP13 PUSH1 0x80 DUP14 ADD PUSH3 0x44E8 JUMP JUMPDEST SWAP6 POP PUSH3 0x459F DUP13 PUSH1 0xA0 DUP14 ADD PUSH3 0x44E8 JUMP JUMPDEST SWAP5 POP PUSH1 0xC0 DUP12 ADD CALLDATALOAD SWAP4 POP PUSH1 0xE0 DUP12 ADD CALLDATALOAD SWAP3 POP PUSH2 0x100 DUP12 ADD CALLDATALOAD SWAP2 POP PUSH2 0x120 DUP12 ADD CALLDATALOAD SWAP1 POP SWAP3 SWAP6 SWAP9 SWAP12 SWAP2 SWAP5 SWAP8 SWAP11 POP SWAP3 SWAP6 SWAP9 POP JUMP JUMPDEST PUSH1 0x0 DUP1 PUSH1 0x40 DUP4 DUP6 SUB SLT ISZERO PUSH3 0x45E1 JUMPI DUP2 DUP3 REVERT JUMPDEST PUSH3 0x45ED DUP5 DUP5 PUSH3 0x44E8 JUMP JUMPDEST SWAP5 PUSH1 0x20 SWAP4 SWAP1 SWAP4 ADD CALLDATALOAD SWAP4 POP POP POP JUMP JUMPDEST PUSH1 0x0 PUSH1 0x20 DUP3 DUP5 SUB SLT ISZERO PUSH3 0x460D JUMPI DUP1 DUP2 REVERT JUMPDEST DUP2 MLOAD DUP1 ISZERO ISZERO DUP2 EQ PUSH3 0x400F JUMPI DUP2 DUP3 REVERT JUMPDEST PUSH1 0x0 PUSH1 0x20 DUP3 DUP5 SUB SLT ISZERO PUSH3 0x462F JUMPI DUP1 DUP2 REVERT JUMPDEST POP CALLDATALOAD SWAP2 SWAP1 POP JUMP JUMPDEST PUSH1 0x0 PUSH1 0x20 DUP3 DUP5 SUB SLT ISZERO PUSH3 0x4648 JUMPI DUP1 DUP2 REVERT JUMPDEST POP MLOAD SWAP2 SWAP1 POP JUMP JUMPDEST PUSH1 0x0 DUP1 PUSH1 0x40 DUP4 DUP6 SUB SLT ISZERO PUSH3 0x4662 JUMPI DUP2 DUP3 REVERT JUMPDEST POP POP DUP1 CALLDATALOAD SWAP3 PUSH1 0x20 SWAP1 SWAP2 ADD CALLDATALOAD SWAP2 POP JUMP JUMPDEST PUSH1 0x0 DUP1 PUSH1 0x0 DUP1 PUSH1 0x60 DUP6 DUP8 SUB SLT ISZERO PUSH3 0x4687 JUMPI DUP4 DUP5 REVERT JUMPDEST DUP5 CALLDATALOAD SWAP4 POP PUSH1 0x20 DUP6 ADD CALLDATALOAD SWAP3 POP PUSH1 0x40 DUP6 ADD CALLDATALOAD PUSH8 0xFFFFFFFFFFFFFFFF DUP1 DUP3 GT ISZERO PUSH3 0x46AD JUMPI DUP4 DUP5 REVERT JUMPDEST DUP2 DUP8 ADD DUP9 PUSH1 0x1F DUP3 ADD SLT PUSH3 0x46BF JUMPI DUP5 DUP6 REVERT JUMPDEST DUP1 CALLDATALOAD SWAP3 POP DUP2 DUP4 GT ISZERO PUSH3 0x46D0 JUMPI DUP5 DUP6 REVERT JUMPDEST DUP9 PUSH1 0x20 DUP5 DUP4 ADD ADD GT ISZERO PUSH3 0x46E2 JUMPI DUP5 DUP6 REVERT JUMPDEST SWAP6 SWAP9 SWAP5 SWAP8 POP POP PUSH1 0x20 SWAP1 SWAP5 ADD SWAP5 POP POP POP JUMP JUMPDEST PUSH1 0x0 DUP1 PUSH1 0x0 PUSH1 0x60 DUP5 DUP7 SUB SLT ISZERO PUSH3 0x4708 JUMPI DUP3 DUP4 REVERT JUMPDEST POP POP DUP2 CALLDATALOAD SWAP4 PUSH1 0x20 DUP4 ADD CALLDATALOAD SWAP4 POP PUSH1 0x40 SWAP1 SWAP3 ADD CALLDATALOAD SWAP2 SWAP1 POP JUMP JUMPDEST PUSH1 0x3 DUP2 LT PUSH3 0x472A JUMPI INVALID JUMPDEST SWAP1 MSTORE JUMP JUMPDEST PUSH1 0x0 DUP3 MLOAD DUP2 JUMPDEST DUP2 DUP2 LT ISZERO PUSH3 0x4750 JUMPI PUSH1 0x20 DUP2 DUP7 ADD DUP2 ADD MLOAD DUP6 DUP4 ADD MSTORE ADD PUSH3 0x4734 JUMP JUMPDEST DUP2 DUP2 GT ISZERO PUSH3 0x475F JUMPI DUP3 DUP3 DUP6 ADD MSTORE JUMPDEST POP SWAP2 SWAP1 SWAP2 ADD SWAP3 SWAP2 POP POP JUMP JUMPDEST PUSH1 0x1 PUSH1 0x1 PUSH1 0xA0 SHL SUB SWAP2 SWAP1 SWAP2 AND DUP2 MSTORE PUSH1 0x20 ADD SWAP1 JUMP JUMPDEST PUSH1 0x1 PUSH1 0x1 PUSH1 0xA0 SHL SUB SWAP3 SWAP1 SWAP3 AND DUP3 MSTORE PUSH1 0x20 DUP3 ADD MSTORE PUSH1 0x40 ADD SWAP1 JUMP JUMPDEST PUSH1 0x1 PUSH1 0x1 PUSH1 0xA0 SHL SUB SWAP4 DUP5 AND DUP2 MSTORE SWAP2 SWAP1 SWAP3 AND PUSH1 0x20 DUP3 ADD MSTORE PUSH1 0x40 DUP2 ADD SWAP2 SWAP1 SWAP2 MSTORE PUSH1 0x60 ADD SWAP1 JUMP JUMPDEST SWAP1 ISZERO ISZERO DUP2 MSTORE PUSH1 0x20 ADD SWAP1 JUMP JUMPDEST SWAP2 ISZERO ISZERO DUP3 MSTORE PUSH1 0x20 DUP3 ADD MSTORE PUSH1 0x40 ADD SWAP1 JUMP JUMPDEST SWAP3 ISZERO ISZERO DUP4 MSTORE PUSH1 0x20 DUP4 ADD SWAP2 SWAP1 SWAP2 MSTORE PUSH1 0x40 DUP3 ADD MSTORE PUSH1 0x60 ADD SWAP1 JUMP JUMPDEST PUSH1 0x0 DUP7 ISZERO ISZERO DUP3 MSTORE DUP6 PUSH1 0x20 DUP4 ADD MSTORE DUP5 PUSH1 0x40 DUP4 ADD MSTORE PUSH1 0x80 PUSH1 0x60 DUP4 ADD MSTORE DUP3 PUSH1 0x80 DUP4 ADD MSTORE DUP3 DUP5 PUSH1 0xA0 DUP5 ADD CALLDATACOPY DUP2 DUP4 ADD PUSH1 0xA0 SWAP1 DUP2 ADD SWAP2 SWAP1 SWAP2 MSTORE PUSH1 0x1F SWAP1 SWAP3 ADD PUSH1 0x1F NOT AND ADD ADD SWAP5 SWAP4 POP POP POP POP JUMP JUMPDEST PUSH1 0x20 DUP2 ADD PUSH3 0x1526 DUP3 DUP5 PUSH3 0x471F JUMP JUMPDEST PUSH1 0x20 DUP1 DUP3 MSTORE PUSH1 0x1D SWAP1 DUP3 ADD MSTORE PUSH32 0x444F444F5F51554F54455F42414C414E43455F4E4F545F454E4F554748000000 PUSH1 0x40 DUP3 ADD MSTORE PUSH1 0x60 ADD SWAP1 JUMP JUMPDEST PUSH1 0x20 DUP1 DUP3 MSTORE PUSH1 0x3 SWAP1 DUP3 ADD MSTORE PUSH3 0x4B3D3 PUSH1 0xEC SHL PUSH1 0x40 DUP3 ADD MSTORE PUSH1 0x60 ADD SWAP1 JUMP JUMPDEST PUSH1 0x20 DUP1 DUP3 MSTORE PUSH1 0xD SWAP1 DUP3 ADD MSTORE PUSH13 0x494E56414C49445F434C41494D PUSH1 0x98 SHL PUSH1 0x40 DUP3 ADD MSTORE PUSH1 0x60 ADD SWAP1 JUMP JUMPDEST PUSH1 0x20 DUP1 DUP3 MSTORE PUSH1 0xA SWAP1 DUP3 ADD MSTORE PUSH10 0x4E4F5F424153455F4C5 PUSH1 0xB4 SHL PUSH1 0x40 DUP3 ADD MSTORE PUSH1 0x60 ADD SWAP1 JUMP JUMPDEST PUSH1 0x20 DUP1 DUP3 MSTORE PUSH1 0x18 SWAP1 DUP3 ADD MSTORE PUSH32 0x4445504F5349545F424153455F4E4F545F414C4C4F5745440000000000000000 PUSH1 0x40 DUP3 ADD MSTORE PUSH1 0x60 ADD SWAP1 JUMP JUMPDEST PUSH1 0x20 DUP1 DUP3 MSTORE PUSH1 0x19 SWAP1 DUP3 ADD MSTORE PUSH32 0x4445504F5349545F51554F54455F4E4F545F414C4C4F57454400000000000000 PUSH1 0x40 DUP3 ADD MSTORE PUSH1 0x60 ADD SWAP1 JUMP JUMPDEST PUSH1 0x20 DUP1 DUP3 MSTORE PUSH1 0x9 SWAP1 DUP3 ADD MSTORE PUSH9 0x149151539514905395 PUSH1 0xBA SHL PUSH1 0x40 DUP3 ADD MSTORE PUSH1 0x60 ADD SWAP1 JUMP JUMPDEST PUSH1 0x20 DUP1 DUP3 MSTORE PUSH1 0xB SWAP1 DUP3 ADD MSTORE PUSH11 0x4E4F5F51554F54455F4C5 PUSH1 0xAC SHL PUSH1 0x40 DUP3 ADD MSTORE PUSH1 0x60 ADD SWAP1 JUMP JUMPDEST PUSH1 0x20 DUP1 DUP3 MSTORE PUSH1 0x1C SWAP1 DUP3 ADD MSTORE PUSH32 0x51554F54455F42414C414E43455F4C494D49545F455843454544454400000000 PUSH1 0x40 DUP3 ADD MSTORE PUSH1 0x60 ADD SWAP1 JUMP JUMPDEST PUSH1 0x20 DUP1 DUP3 MSTORE DUP2 DUP2 ADD MSTORE PUSH32 0x5361666545524332303A206C6F772D6C6576656C2063616C6C206661696C6564 PUSH1 0x40 DUP3 ADD MSTORE PUSH1 0x60 ADD SWAP1 JUMP JUMPDEST PUSH1 0x20 DUP1 DUP3 MSTORE PUSH1 0xE SWAP1 DUP3 ADD MSTORE PUSH14 0x2224AB24A224A723AFA2A92927A9 PUSH1 0x91 SHL PUSH1 0x40 DUP3 ADD MSTORE PUSH1 0x60 ADD SWAP1 JUMP JUMPDEST PUSH1 0x20 DUP1 DUP3 MSTORE PUSH1 0x23 SWAP1 DUP3 ADD MSTORE PUSH32 0x4C505F51554F54455F4341504954414C5F42414C414E43455F4E4F545F454E4F PUSH1 0x40 DUP3 ADD MSTORE PUSH3 0xAA8E9 PUSH1 0xEB SHL PUSH1 0x60 DUP3 ADD MSTORE PUSH1 0x80 ADD SWAP1 JUMP JUMPDEST PUSH1 0x20 DUP1 DUP3 MSTORE PUSH1 0x17 SWAP1 DUP3 ADD MSTORE PUSH32 0x4E4F545F53555045525649534F525F4F525F4F574E4552000000000000000000 PUSH1 0x40 DUP3 ADD MSTORE PUSH1 0x60 ADD SWAP1 JUMP JUMPDEST PUSH1 0x20 DUP1 DUP3 MSTORE PUSH1 0x1B SWAP1 DUP3 ADD MSTORE PUSH32 0x424153455F42414C414E43455F4C494D49545F45584345454445440000000000 PUSH1 0x40 DUP3 ADD MSTORE PUSH1 0x60 ADD SWAP1 JUMP JUMPDEST PUSH1 0x20 DUP1 DUP3 MSTORE PUSH1 0x9 SWAP1 DUP3 ADD MSTORE PUSH9 0x29AAA12FA2A92927A9 PUSH1 0xB9 SHL PUSH1 0x40 DUP3 ADD MSTORE PUSH1 0x60 ADD SWAP1 JUMP JUMPDEST PUSH1 0x20 DUP1 DUP3 MSTORE PUSH1 0x10 SWAP1 DUP3 ADD MSTORE PUSH16 0x1113D113D7D253925512505312569151 PUSH1 0x82 SHL PUSH1 0x40 DUP3 ADD MSTORE PUSH1 0x60 ADD SWAP1 JUMP JUMPDEST PUSH1 0x20 DUP1 DUP3 MSTORE PUSH1 0x1C SWAP1 DUP3 ADD MSTORE PUSH32 0x444F444F5F424153455F42414C414E43455F4E4F545F454E4F55474800000000 PUSH1 0x40 DUP3 ADD MSTORE PUSH1 0x60 ADD SWAP1 JUMP JUMPDEST PUSH1 0x20 DUP1 DUP3 MSTORE PUSH1 0x11 SWAP1 DUP3 ADD MSTORE PUSH17 0x151490511157D393D517D0531313D5D151 PUSH1 0x7A SHL PUSH1 0x40 DUP3 ADD MSTORE PUSH1 0x60 ADD SWAP1 JUMP JUMPDEST PUSH1 0x20 DUP1 DUP3 MSTORE PUSH1 0xD SWAP1 DUP3 ADD MSTORE PUSH13 0x24A72B20A624A22FA7ABA722A9 PUSH1 0x99 SHL PUSH1 0x40 DUP3 ADD MSTORE PUSH1 0x60 ADD SWAP1 JUMP JUMPDEST PUSH1 0x20 DUP1 DUP3 MSTORE PUSH1 0xE SWAP1 DUP3 ADD MSTORE PUSH14 0x1411539053151657D15610D15151 PUSH1 0x92 SHL PUSH1 0x40 DUP3 ADD MSTORE PUSH1 0x60 ADD SWAP1 JUMP JUMPDEST PUSH1 0x20 DUP1 DUP3 MSTORE PUSH1 0xB SWAP1 DUP3 ADD MSTORE PUSH11 0x1113D113D7D0D313D4D151 PUSH1 0xAA SHL PUSH1 0x40 DUP3 ADD MSTORE PUSH1 0x60 ADD SWAP1 JUMP JUMPDEST PUSH1 0x20 DUP1 DUP3 MSTORE PUSH1 0x13 SWAP1 DUP3 ADD MSTORE PUSH19 0x14D15313125391D7D393D517D0531313D5D151 PUSH1 0x6A SHL PUSH1 0x40 DUP3 ADD MSTORE PUSH1 0x60 ADD SWAP1 JUMP JUMPDEST PUSH1 0x20 DUP1 DUP3 MSTORE PUSH1 0xB SWAP1 DUP3 ADD MSTORE PUSH11 0x4645455F524154453E3D31 PUSH1 0xA8 SHL PUSH1 0x40 DUP3 ADD MSTORE PUSH1 0x60 ADD SWAP1 JUMP JUMPDEST PUSH1 0x20 DUP1 DUP3 MSTORE PUSH1 0x9 SWAP1 DUP3 ADD MSTORE PUSH9 0x2727AA2FA7ABA722A9 PUSH1 0xB9 SHL PUSH1 0x40 DUP3 ADD MSTORE PUSH1 0x60 ADD SWAP1 JUMP JUMPDEST PUSH1 0x20 DUP1 DUP3 MSTORE PUSH1 0x9 SWAP1 DUP3 ADD MSTORE PUSH9 0x20A2222FA2A92927A9 PUSH1 0xB9 SHL PUSH1 0x40 DUP3 ADD MSTORE PUSH1 0x60 ADD SWAP1 JUMP JUMPDEST PUSH1 0x20 DUP1 DUP3 MSTORE PUSH1 0x2A SWAP1 DUP3 ADD MSTORE PUSH32 0x5361666545524332303A204552433230206F7065726174696F6E20646964206E PUSH1 0x40 DUP3 ADD MSTORE PUSH10 0x1BDD081CDD58D8D95959 PUSH1 0xB2 SHL PUSH1 0x60 DUP3 ADD MSTORE PUSH1 0x80 ADD SWAP1 JUMP JUMPDEST PUSH1 0x20 DUP1 DUP3 MSTORE PUSH1 0x22 SWAP1 DUP3 ADD MSTORE PUSH32 0x4C505F424153455F4341504954414C5F42414C414E43455F4E4F545F454E4F55 PUSH1 0x40 DUP3 ADD MSTORE PUSH2 0x8E9 PUSH1 0xF3 SHL PUSH1 0x60 DUP3 ADD MSTORE PUSH1 0x80 ADD SWAP1 JUMP JUMPDEST PUSH1 0x20 DUP1 DUP3 MSTORE PUSH1 0x1C SWAP1 DUP3 ADD MSTORE PUSH32 0x53454C4C5F424153455F524543454956455F4E4F545F454E4F55474800000000 PUSH1 0x40 DUP3 ADD MSTORE PUSH1 0x60 ADD SWAP1 JUMP JUMPDEST PUSH1 0x20 DUP1 DUP3 MSTORE PUSH1 0x16 SWAP1 DUP3 ADD MSTORE PUSH22 0x84AAB2BE8482A68ABE869EA6A8BEA89E9EBE9AAA869 PUSH1 0x53 SHL PUSH1 0x40 DUP3 ADD MSTORE PUSH1 0x60 ADD SWAP1 JUMP JUMPDEST PUSH1 0x20 DUP1 DUP3 MSTORE PUSH1 0x9 SWAP1 DUP3 ADD MSTORE PUSH9 0x26AAA62FA2A92927A9 PUSH1 0xB9 SHL PUSH1 0x40 DUP3 ADD MSTORE PUSH1 0x60 ADD SWAP1 JUMP JUMPDEST PUSH1 0x20 DUP1 DUP3 MSTORE PUSH1 0x4 SWAP1 DUP3 ADD MSTORE PUSH4 0x4B3E3D31 PUSH1 0xE0 SHL PUSH1 0x40 DUP3 ADD MSTORE PUSH1 0x60 ADD SWAP1 JUMP JUMPDEST PUSH1 0x20 DUP1 DUP3 MSTORE PUSH1 0x10 SWAP1 DUP3 ADD MSTORE PUSH16 0x11D054D7D4149250D157D15610D15151 PUSH1 0x82 SHL PUSH1 0x40 DUP3 ADD MSTORE PUSH1 0x60 ADD SWAP1 JUMP JUMPDEST PUSH1 0x20 DUP1 DUP3 MSTORE PUSH1 0xF SWAP1 DUP3 ADD MSTORE PUSH15 0x1053149150511657D0D31052535151 PUSH1 0x8A SHL PUSH1 0x40 DUP3 ADD MSTORE PUSH1 0x60 ADD SWAP1 JUMP JUMPDEST PUSH1 0x20 DUP1 DUP3 MSTORE PUSH1 0xF SWAP1 DUP3 ADD MSTORE PUSH15 0x1113D113D7D393D517D0D313D4D151 PUSH1 0x8A SHL PUSH1 0x40 DUP3 ADD MSTORE PUSH1 0x60 ADD SWAP1 JUMP JUMPDEST PUSH1 0x20 DUP1 DUP3 MSTORE PUSH1 0x12 SWAP1 DUP3 ADD MSTORE PUSH18 0x109556525391D7D393D517D0531313D5D151 PUSH1 0x72 SHL PUSH1 0x40 DUP3 ADD MSTORE PUSH1 0x60 ADD SWAP1 JUMP JUMPDEST SWAP1 DUP2 MSTORE PUSH1 0x20 ADD SWAP1 JUMP JUMPDEST SWAP2 DUP3 MSTORE ISZERO ISZERO PUSH1 0x20 DUP3 ADD MSTORE PUSH1 0x40 ADD SWAP1 JUMP JUMPDEST SWAP2 DUP3 MSTORE PUSH1 0x20 DUP3 ADD MSTORE PUSH1 0x40 ADD SWAP1 JUMP JUMPDEST SWAP3 DUP4 MSTORE PUSH1 0x20 DUP4 ADD SWAP2 SWAP1 SWAP2 MSTORE PUSH1 0x40 DUP3 ADD MSTORE PUSH1 0x60 ADD SWAP1 JUMP JUMPDEST SWAP5 DUP6 MSTORE PUSH1 0x20 DUP6 ADD SWAP4 SWAP1 SWAP4 MSTORE PUSH1 0x40 DUP5 ADD SWAP2 SWAP1 SWAP2 MSTORE ISZERO ISZERO PUSH1 0x60 DUP4 ADD MSTORE PUSH1 0x80 DUP3 ADD MSTORE PUSH1 0xA0 ADD SWAP1 JUMP JUMPDEST DUP7 DUP2 MSTORE PUSH1 0x20 DUP2 ADD DUP7 SWAP1 MSTORE PUSH1 0x40 DUP2 ADD DUP6 SWAP1 MSTORE PUSH1 0xC0 DUP2 ADD PUSH3 0x4EFB PUSH1 0x60 DUP4 ADD DUP7 PUSH3 0x471F JUMP JUMPDEST PUSH1 0x80 DUP3 ADD SWAP4 SWAP1 SWAP4 MSTORE PUSH1 0xA0 ADD MSTORE SWAP5 SWAP4 POP POP POP POP JUMP JUMPDEST SWAP5 DUP6 MSTORE PUSH1 0x20 DUP6 ADD SWAP4 SWAP1 SWAP4 MSTORE PUSH1 0x40 DUP5 ADD SWAP2 SWAP1 SWAP2 MSTORE PUSH1 0x60 DUP4 ADD MSTORE PUSH1 0x80 DUP3 ADD MSTORE PUSH1 0xA0 ADD SWAP1 JUMP INVALID PUSH1 0xC0 PUSH1 0x40 MSTORE PUSH1 0x3 PUSH1 0x80 DUP2 SWAP1 MSTORE PUSH3 0x444C5 PUSH1 0xEC SHL PUSH1 0xA0 SWAP1 DUP2 MSTORE PUSH3 0x26 SWAP2 PUSH1 0x2 SWAP2 SWAP1 PUSH3 0xC6 JUMP JUMPDEST POP CALLVALUE DUP1 ISZERO PUSH3 0x34 JUMPI PUSH1 0x0 DUP1 REVERT JUMPDEST POP PUSH1 0x40 MLOAD PUSH3 0x102D CODESIZE SUB DUP1 PUSH3 0x102D DUP4 CODECOPY DUP2 ADD PUSH1 0x40 DUP2 SWAP1 MSTORE PUSH3 0x57 SWAP2 PUSH3 0x16B JUMP JUMPDEST PUSH1 0x0 DUP1 SLOAD PUSH1 0x1 PUSH1 0x1 PUSH1 0xA0 SHL SUB NOT AND CALLER OR DUP1 DUP3 SSTORE PUSH1 0x40 MLOAD PUSH1 0x1 PUSH1 0x1 PUSH1 0xA0 SHL SUB SWAP2 SWAP1 SWAP2 AND SWAP2 SWAP1 PUSH32 0x8BE0079C531659141344CD1FD0A4F28419497F9722A3DAAFE3B4186F6B6457E0 SWAP1 DUP3 SWAP1 LOG3 PUSH1 0x3 DUP1 SLOAD PUSH1 0x1 PUSH1 0x1 PUSH1 0xA0 SHL SUB NOT AND PUSH1 0x1 PUSH1 0x1 PUSH1 0xA0 SHL SUB SWAP3 SWAP1 SWAP3 AND SWAP2 SWAP1 SWAP2 OR SWAP1 SSTORE PUSH3 0x19B JUMP JUMPDEST DUP3 DUP1 SLOAD PUSH1 0x1 DUP2 PUSH1 0x1 AND ISZERO PUSH2 0x100 MUL SUB AND PUSH1 0x2 SWAP1 DIV SWAP1 PUSH1 0x0 MSTORE PUSH1 0x20 PUSH1 0x0 KECCAK256 SWAP1 PUSH1 0x1F ADD PUSH1 0x20 SWAP1 DIV DUP2 ADD SWAP3 DUP3 PUSH1 0x1F LT PUSH3 0x109 JUMPI DUP1 MLOAD PUSH1 0xFF NOT AND DUP4 DUP1 ADD OR DUP6 SSTORE PUSH3 0x139 JUMP JUMPDEST DUP3 DUP1 ADD PUSH1 0x1 ADD DUP6 SSTORE DUP3 ISZERO PUSH3 0x139 JUMPI SWAP2 DUP3 ADD JUMPDEST DUP3 DUP2 GT ISZERO PUSH3 0x139 JUMPI DUP3 MLOAD DUP3 SSTORE SWAP2 PUSH1 0x20 ADD SWAP2 SWAP1 PUSH1 0x1 ADD SWAP1 PUSH3 0x11C JUMP JUMPDEST POP PUSH3 0x147 SWAP3 SWAP2 POP PUSH3 0x14B JUMP JUMPDEST POP SWAP1 JUMP JUMPDEST PUSH3 0x168 SWAP2 SWAP1 JUMPDEST DUP1 DUP3 GT ISZERO PUSH3 0x147 JUMPI PUSH1 0x0 DUP2 SSTORE PUSH1 0x1 ADD PUSH3 0x152 JUMP JUMPDEST SWAP1 JUMP JUMPDEST PUSH1 0x0 PUSH1 0x20 DUP3 DUP5 SUB SLT ISZERO PUSH3 0x17D JUMPI DUP1 DUP2 REVERT JUMPDEST DUP2 MLOAD PUSH1 0x1 PUSH1 0x1 PUSH1 0xA0 SHL SUB DUP2 AND DUP2 EQ PUSH3 0x194 JUMPI DUP2 DUP3 REVERT JUMPDEST SWAP4 SWAP3 POP POP POP JUMP JUMPDEST PUSH2 0xE82 DUP1 PUSH3 0x1AB PUSH1 0x0 CODECOPY PUSH1 0x0 RETURN INVALID PUSH1 0x80 PUSH1 0x40 MSTORE CALLVALUE DUP1 ISZERO PUSH2 0x10 JUMPI PUSH1 0x0 DUP1 REVERT JUMPDEST POP PUSH1 0x4 CALLDATASIZE LT PUSH2 0x100 JUMPI PUSH1 0x0 CALLDATALOAD PUSH1 0xE0 SHR DUP1 PUSH4 0x4E71E0C8 GT PUSH2 0x97 JUMPI DUP1 PUSH4 0x9DC29FAC GT PUSH2 0x66 JUMPI DUP1 PUSH4 0x9DC29FAC EQ PUSH2 0x1DD JUMPI DUP1 PUSH4 0xA9059CBB EQ PUSH2 0x1F0 JUMPI DUP1 PUSH4 0xDD62ED3E EQ PUSH2 0x203 JUMPI DUP1 PUSH4 0xF2FDE38B EQ PUSH2 0x216 JUMPI PUSH2 0x100 JUMP JUMPDEST DUP1 PUSH4 0x4E71E0C8 EQ PUSH2 0x1B2 JUMPI DUP1 PUSH4 0x70A08231 EQ PUSH2 0x1BA JUMPI DUP1 PUSH4 0x8456DB15 EQ PUSH2 0x1CD JUMPI DUP1 PUSH4 0x95D89B41 EQ PUSH2 0x1D5 JUMPI PUSH2 0x100 JUMP JUMPDEST DUP1 PUSH4 0x18160DDD GT PUSH2 0xD3 JUMPI DUP1 PUSH4 0x18160DDD EQ PUSH2 0x160 JUMPI DUP1 PUSH4 0x23B872DD EQ PUSH2 0x175 JUMPI DUP1 PUSH4 0x313CE567 EQ PUSH2 0x188 JUMPI DUP1 PUSH4 0x40C10F19 EQ PUSH2 0x19D JUMPI PUSH2 0x100 JUMP JUMPDEST DUP1 PUSH4 0x6FDDE03 EQ PUSH2 0x105 JUMPI DUP1 PUSH4 0x95EA7B3 EQ PUSH2 0x123 JUMPI DUP1 PUSH4 0x13096A41 EQ PUSH2 0x143 JUMPI DUP1 PUSH4 0x16048BC4 EQ PUSH2 0x158 JUMPI JUMPDEST PUSH1 0x0 DUP1 REVERT JUMPDEST PUSH2 0x10D PUSH2 0x229 JUMP JUMPDEST PUSH1 0x40 MLOAD PUSH2 0x11A SWAP2 SWAP1 PUSH2 0xC89 JUMP JUMPDEST PUSH1 0x40 MLOAD DUP1 SWAP2 SUB SWAP1 RETURN JUMPDEST PUSH2 0x136 PUSH2 0x131 CALLDATASIZE PUSH1 0x4 PUSH2 0xB56 JUMP JUMPDEST PUSH2 0x2F6 JUMP JUMPDEST PUSH1 0x40 MLOAD PUSH2 0x11A SWAP2 SWAP1 PUSH2 0xC7E JUMP JUMPDEST PUSH2 0x14B PUSH2 0x361 JUMP JUMPDEST PUSH1 0x40 MLOAD PUSH2 0x11A SWAP2 SWAP1 PUSH2 0xC6A JUMP JUMPDEST PUSH2 0x14B PUSH2 0x370 JUMP JUMPDEST PUSH2 0x168 PUSH2 0x37F JUMP JUMPDEST PUSH1 0x40 MLOAD PUSH2 0x11A SWAP2 SWAP1 PUSH2 0xDCD JUMP JUMPDEST PUSH2 0x136 PUSH2 0x183 CALLDATASIZE PUSH1 0x4 PUSH2 0xB16 JUMP JUMPDEST PUSH2 0x385 JUMP JUMPDEST PUSH2 0x190 PUSH2 0x509 JUMP JUMPDEST PUSH1 0x40 MLOAD PUSH2 0x11A SWAP2 SWAP1 PUSH2 0xDD6 JUMP JUMPDEST PUSH2 0x1B0 PUSH2 0x1AB CALLDATASIZE PUSH1 0x4 PUSH2 0xB56 JUMP JUMPDEST PUSH2 0x58B JUMP JUMPDEST STOP JUMPDEST PUSH2 0x1B0 PUSH2 0x68E JUMP JUMPDEST PUSH2 0x168 PUSH2 0x1C8 CALLDATASIZE PUSH1 0x4 PUSH2 0xAC7 JUMP JUMPDEST PUSH2 0x71C JUMP JUMPDEST PUSH2 0x14B PUSH2 0x737 JUMP JUMPDEST PUSH2 0x10D PUSH2 0x746 JUMP JUMPDEST PUSH2 0x1B0 PUSH2 0x1EB CALLDATASIZE PUSH1 0x4 PUSH2 0xB56 JUMP JUMPDEST PUSH2 0x7D1 JUMP JUMPDEST PUSH2 0x136 PUSH2 0x1FE CALLDATASIZE PUSH1 0x4 PUSH2 0xB56 JUMP JUMPDEST PUSH2 0x8C8 JUMP JUMPDEST PUSH2 0x168 PUSH2 0x211 CALLDATASIZE PUSH1 0x4 PUSH2 0xAE2 JUMP JUMPDEST PUSH2 0x986 JUMP JUMPDEST PUSH2 0x1B0 PUSH2 0x224 CALLDATASIZE PUSH1 0x4 PUSH2 0xAC7 JUMP JUMPDEST PUSH2 0x9B1 JUMP JUMPDEST PUSH1 0x40 DUP1 MLOAD DUP1 DUP3 ADD DUP3 MSTORE PUSH1 0xF DUP2 MSTORE PUSH15 0x5F444F444F5F4C505F544F4B454E5F PUSH1 0x88 SHL PUSH1 0x20 DUP3 ADD MSTORE PUSH1 0x3 SLOAD DUP3 MLOAD PUSH4 0x6FDDE03 PUSH1 0xE0 SHL DUP2 MSTORE SWAP3 MLOAD PUSH1 0x60 SWAP4 PUSH1 0x1 PUSH1 0x1 PUSH1 0xA0 SHL SUB SWAP1 SWAP3 AND SWAP2 PUSH4 0x6FDDE03 SWAP2 PUSH1 0x4 DUP1 DUP4 ADD SWAP3 PUSH1 0x0 SWAP3 SWAP2 SWAP1 DUP3 SWAP1 SUB ADD DUP2 DUP7 DUP1 EXTCODESIZE ISZERO DUP1 ISZERO PUSH2 0x293 JUMPI PUSH1 0x0 DUP1 REVERT JUMPDEST POP GAS STATICCALL ISZERO DUP1 ISZERO PUSH2 0x2A7 JUMPI RETURNDATASIZE PUSH1 0x0 DUP1 RETURNDATACOPY RETURNDATASIZE PUSH1 0x0 REVERT JUMPDEST POP POP POP POP PUSH1 0x40 MLOAD RETURNDATASIZE PUSH1 0x0 DUP3 RETURNDATACOPY PUSH1 0x1F RETURNDATASIZE SWAP1 DUP2 ADD PUSH1 0x1F NOT AND DUP3 ADD PUSH1 0x40 MSTORE PUSH2 0x2CF SWAP2 SWAP1 DUP2 ADD SWAP1 PUSH2 0xB80 JUMP JUMPDEST DUP2 PUSH1 0x40 MLOAD PUSH1 0x20 ADD PUSH2 0x2E1 SWAP3 SWAP2 SWAP1 PUSH2 0xC3C JUMP JUMPDEST PUSH1 0x40 MLOAD PUSH1 0x20 DUP2 DUP4 SUB SUB DUP2 MSTORE SWAP1 PUSH1 0x40 MSTORE SWAP2 POP POP SWAP1 JUMP JUMPDEST CALLER PUSH1 0x0 DUP2 DUP2 MSTORE PUSH1 0x6 PUSH1 0x20 SWAP1 DUP2 MSTORE PUSH1 0x40 DUP1 DUP4 KECCAK256 PUSH1 0x1 PUSH1 0x1 PUSH1 0xA0 SHL SUB DUP8 AND DUP1 DUP6 MSTORE SWAP3 MSTORE DUP1 DUP4 KECCAK256 DUP6 SWAP1 SSTORE MLOAD SWAP2 SWAP3 SWAP1 SWAP2 PUSH32 0x8C5BE1E5EBEC7D5BD14F71427D1E84F3DD0314C0F7B2291E5B200AC8C7C3B925 SWAP1 PUSH2 0x34F SWAP1 DUP7 SWAP1 PUSH2 0xDCD JUMP JUMPDEST PUSH1 0x40 MLOAD DUP1 SWAP2 SUB SWAP1 LOG3 POP PUSH1 0x1 JUMPDEST SWAP3 SWAP2 POP POP JUMP JUMPDEST PUSH1 0x3 SLOAD PUSH1 0x1 PUSH1 0x1 PUSH1 0xA0 SHL SUB AND DUP2 JUMP JUMPDEST PUSH1 0x0 SLOAD PUSH1 0x1 PUSH1 0x1 PUSH1 0xA0 SHL SUB AND DUP2 JUMP JUMPDEST PUSH1 0x4 SLOAD DUP2 JUMP JUMPDEST PUSH1 0x1 PUSH1 0x1 PUSH1 0xA0 SHL SUB DUP4 AND PUSH1 0x0 SWAP1 DUP2 MSTORE PUSH1 0x5 PUSH1 0x20 MSTORE PUSH1 0x40 DUP2 KECCAK256 SLOAD DUP3 GT ISZERO PUSH2 0x3C6 JUMPI PUSH1 0x40 MLOAD PUSH3 0x461BCD PUSH1 0xE5 SHL DUP2 MSTORE PUSH1 0x4 ADD PUSH2 0x3BD SWAP1 PUSH2 0xD5B JUMP JUMPDEST PUSH1 0x40 MLOAD DUP1 SWAP2 SUB SWAP1 REVERT JUMPDEST PUSH1 0x1 PUSH1 0x1 PUSH1 0xA0 SHL SUB DUP5 AND PUSH1 0x0 SWAP1 DUP2 MSTORE PUSH1 0x6 PUSH1 0x20 SWAP1 DUP2 MSTORE PUSH1 0x40 DUP1 DUP4 KECCAK256 CALLER DUP5 MSTORE SWAP1 SWAP2 MSTORE SWAP1 KECCAK256 SLOAD DUP3 GT ISZERO PUSH2 0x409 JUMPI PUSH1 0x40 MLOAD PUSH3 0x461BCD PUSH1 0xE5 SHL DUP2 MSTORE PUSH1 0x4 ADD PUSH2 0x3BD SWAP1 PUSH2 0xCE3 JUMP JUMPDEST PUSH1 0x1 PUSH1 0x1 PUSH1 0xA0 SHL SUB DUP5 AND PUSH1 0x0 SWAP1 DUP2 MSTORE PUSH1 0x5 PUSH1 0x20 MSTORE PUSH1 0x40 SWAP1 KECCAK256 SLOAD PUSH2 0x432 SWAP1 DUP4 PUSH4 0xFFFFFFFF PUSH2 0xA5C AND JUMP JUMPDEST PUSH1 0x1 PUSH1 0x1 PUSH1 0xA0 SHL SUB DUP1 DUP7 AND PUSH1 0x0 SWAP1 DUP2 MSTORE PUSH1 0x5 PUSH1 0x20 MSTORE PUSH1 0x40 DUP1 DUP3 KECCAK256 SWAP4 SWAP1 SWAP4 SSTORE SWAP1 DUP6 AND DUP2 MSTORE KECCAK256 SLOAD PUSH2 0x467 SWAP1 DUP4 PUSH4 0xFFFFFFFF PUSH2 0xA84 AND JUMP JUMPDEST PUSH1 0x1 PUSH1 0x1 PUSH1 0xA0 SHL SUB DUP1 DUP6 AND PUSH1 0x0 SWAP1 DUP2 MSTORE PUSH1 0x5 PUSH1 0x20 SWAP1 DUP2 MSTORE PUSH1 0x40 DUP1 DUP4 KECCAK256 SWAP5 SWAP1 SWAP5 SSTORE SWAP2 DUP8 AND DUP2 MSTORE PUSH1 0x6 DUP3 MSTORE DUP3 DUP2 KECCAK256 CALLER DUP3 MSTORE SWAP1 SWAP2 MSTORE KECCAK256 SLOAD PUSH2 0x4AB SWAP1 DUP4 PUSH4 0xFFFFFFFF PUSH2 0xA5C AND JUMP JUMPDEST PUSH1 0x1 PUSH1 0x1 PUSH1 0xA0 SHL SUB DUP1 DUP7 AND PUSH1 0x0 DUP2 DUP2 MSTORE PUSH1 0x6 PUSH1 0x20 SWAP1 DUP2 MSTORE PUSH1 0x40 DUP1 DUP4 KECCAK256 CALLER DUP5 MSTORE SWAP1 SWAP2 MSTORE SWAP1 DUP2 SWAP1 KECCAK256 SWAP4 SWAP1 SWAP4 SSTORE SWAP2 MLOAD SWAP1 DUP6 AND SWAP2 SWAP1 PUSH1 0x0 DUP1 MLOAD PUSH1 0x20 PUSH2 0xE2D DUP4 CODECOPY DUP2 MLOAD SWAP2 MSTORE SWAP1 PUSH2 0x4F7 SWAP1 DUP7 SWAP1 PUSH2 0xDCD JUMP JUMPDEST PUSH1 0x40 MLOAD DUP1 SWAP2 SUB SWAP1 LOG3 POP PUSH1 0x1 SWAP4 SWAP3 POP POP POP JUMP JUMPDEST PUSH1 0x3 SLOAD PUSH1 0x40 DUP1 MLOAD PUSH4 0x313CE567 PUSH1 0xE0 SHL DUP2 MSTORE SWAP1 MLOAD PUSH1 0x0 SWAP3 PUSH1 0x1 PUSH1 0x1 PUSH1 0xA0 SHL SUB AND SWAP2 PUSH4 0x313CE567 SWAP2 PUSH1 0x4 DUP1 DUP4 ADD SWAP3 PUSH1 0x20 SWAP3 SWAP2 SWAP1 DUP3 SWAP1 SUB ADD DUP2 DUP7 DUP1 EXTCODESIZE ISZERO DUP1 ISZERO PUSH2 0x54E JUMPI PUSH1 0x0 DUP1 REVERT JUMPDEST POP GAS STATICCALL ISZERO DUP1 ISZERO PUSH2 0x562 JUMPI RETURNDATASIZE PUSH1 0x0 DUP1 RETURNDATACOPY RETURNDATASIZE PUSH1 0x0 REVERT JUMPDEST POP POP POP POP PUSH1 0x40 MLOAD RETURNDATASIZE PUSH1 0x1F NOT PUSH1 0x1F DUP3 ADD AND DUP3 ADD DUP1 PUSH1 0x40 MSTORE POP DUP2 ADD SWAP1 PUSH2 0x586 SWAP2 SWAP1 PUSH2 0xC1B JUMP JUMPDEST SWAP1 POP SWAP1 JUMP JUMPDEST PUSH1 0x0 SLOAD PUSH1 0x1 PUSH1 0x1 PUSH1 0xA0 SHL SUB AND CALLER EQ PUSH2 0x5B5 JUMPI PUSH1 0x40 MLOAD PUSH3 0x461BCD PUSH1 0xE5 SHL DUP2 MSTORE PUSH1 0x4 ADD PUSH2 0x3BD SWAP1 PUSH2 0xD87 JUMP JUMPDEST PUSH1 0x1 PUSH1 0x1 PUSH1 0xA0 SHL SUB DUP3 AND PUSH1 0x0 SWAP1 DUP2 MSTORE PUSH1 0x5 PUSH1 0x20 MSTORE PUSH1 0x40 SWAP1 KECCAK256 SLOAD PUSH2 0x5DE SWAP1 DUP3 PUSH4 0xFFFFFFFF PUSH2 0xA84 AND JUMP JUMPDEST PUSH1 0x1 PUSH1 0x1 PUSH1 0xA0 SHL SUB DUP4 AND PUSH1 0x0 SWAP1 DUP2 MSTORE PUSH1 0x5 PUSH1 0x20 MSTORE PUSH1 0x40 SWAP1 KECCAK256 SSTORE PUSH1 0x4 SLOAD PUSH2 0x60A SWAP1 DUP3 PUSH4 0xFFFFFFFF PUSH2 0xA84 AND JUMP JUMPDEST PUSH1 0x4 SSTORE PUSH1 0x40 MLOAD PUSH1 0x1 PUSH1 0x1 PUSH1 0xA0 SHL SUB DUP4 AND SWAP1 PUSH32 0xF6798A560793A54C3BCFE86A93CDE1E73087D944C0EA20544137D4121396885 SWAP1 PUSH2 0x648 SWAP1 DUP5 SWAP1 PUSH2 0xDCD JUMP JUMPDEST PUSH1 0x40 MLOAD DUP1 SWAP2 SUB SWAP1 LOG2 DUP2 PUSH1 0x1 PUSH1 0x1 PUSH1 0xA0 SHL SUB AND PUSH1 0x0 PUSH1 0x1 PUSH1 0x1 PUSH1 0xA0 SHL SUB AND PUSH1 0x0 DUP1 MLOAD PUSH1 0x20 PUSH2 0xE2D DUP4 CODECOPY DUP2 MLOAD SWAP2 MSTORE DUP4 PUSH1 0x40 MLOAD PUSH2 0x682 SWAP2 SWAP1 PUSH2 0xDCD JUMP JUMPDEST PUSH1 0x40 MLOAD DUP1 SWAP2 SUB SWAP1 LOG3 POP POP JUMP JUMPDEST PUSH1 0x1 SLOAD PUSH1 0x1 PUSH1 0x1 PUSH1 0xA0 SHL SUB AND CALLER EQ PUSH2 0x6B8 JUMPI PUSH1 0x40 MLOAD PUSH3 0x461BCD PUSH1 0xE5 SHL DUP2 MSTORE PUSH1 0x4 ADD PUSH2 0x3BD SWAP1 PUSH2 0xCBC JUMP JUMPDEST PUSH1 0x1 SLOAD PUSH1 0x0 DUP1 SLOAD PUSH1 0x40 MLOAD PUSH1 0x1 PUSH1 0x1 PUSH1 0xA0 SHL SUB SWAP4 DUP5 AND SWAP4 SWAP1 SWAP2 AND SWAP2 PUSH32 0x8BE0079C531659141344CD1FD0A4F28419497F9722A3DAAFE3B4186F6B6457E0 SWAP2 LOG3 PUSH1 0x1 DUP1 SLOAD PUSH1 0x0 DUP1 SLOAD PUSH1 0x1 PUSH1 0x1 PUSH1 0xA0 SHL SUB NOT SWAP1 DUP2 AND PUSH1 0x1 PUSH1 0x1 PUSH1 0xA0 SHL SUB DUP5 AND OR SWAP1 SWAP2 SSTORE AND SWAP1 SSTORE JUMP JUMPDEST PUSH1 0x1 PUSH1 0x1 PUSH1 0xA0 SHL SUB AND PUSH1 0x0 SWAP1 DUP2 MSTORE PUSH1 0x5 PUSH1 0x20 MSTORE PUSH1 0x40 SWAP1 KECCAK256 SLOAD SWAP1 JUMP JUMPDEST PUSH1 0x1 SLOAD PUSH1 0x1 PUSH1 0x1 PUSH1 0xA0 SHL SUB AND DUP2 JUMP JUMPDEST PUSH1 0x2 DUP1 SLOAD PUSH1 0x40 DUP1 MLOAD PUSH1 0x20 PUSH1 0x1 DUP5 AND ISZERO PUSH2 0x100 MUL PUSH1 0x0 NOT ADD SWAP1 SWAP4 AND DUP5 SWAP1 DIV PUSH1 0x1F DUP2 ADD DUP5 SWAP1 DIV DUP5 MUL DUP3 ADD DUP5 ADD SWAP1 SWAP3 MSTORE DUP2 DUP2 MSTORE SWAP3 SWAP2 DUP4 ADD DUP3 DUP3 DUP1 ISZERO PUSH2 0x7C9 JUMPI DUP1 PUSH1 0x1F LT PUSH2 0x79E JUMPI PUSH2 0x100 DUP1 DUP4 SLOAD DIV MUL DUP4 MSTORE SWAP2 PUSH1 0x20 ADD SWAP2 PUSH2 0x7C9 JUMP JUMPDEST DUP3 ADD SWAP2 SWAP1 PUSH1 0x0 MSTORE PUSH1 0x20 PUSH1 0x0 KECCAK256 SWAP1 JUMPDEST DUP2 SLOAD DUP2 MSTORE SWAP1 PUSH1 0x1 ADD SWAP1 PUSH1 0x20 ADD DUP1 DUP4 GT PUSH2 0x7AC JUMPI DUP3 SWAP1 SUB PUSH1 0x1F AND DUP3 ADD SWAP2 JUMPDEST POP POP POP POP POP DUP2 JUMP JUMPDEST PUSH1 0x0 SLOAD PUSH1 0x1 PUSH1 0x1 PUSH1 0xA0 SHL SUB AND CALLER EQ PUSH2 0x7FB JUMPI PUSH1 0x40 MLOAD PUSH3 0x461BCD PUSH1 0xE5 SHL DUP2 MSTORE PUSH1 0x4 ADD PUSH2 0x3BD SWAP1 PUSH2 0xD87 JUMP JUMPDEST PUSH1 0x1 PUSH1 0x1 PUSH1 0xA0 SHL SUB DUP3 AND PUSH1 0x0 SWAP1 DUP2 MSTORE PUSH1 0x5 PUSH1 0x20 MSTORE PUSH1 0x40 SWAP1 KECCAK256 SLOAD PUSH2 0x824 SWAP1 DUP3 PUSH4 0xFFFFFFFF PUSH2 0xA5C AND JUMP JUMPDEST PUSH1 0x1 PUSH1 0x1 PUSH1 0xA0 SHL SUB DUP4 AND PUSH1 0x0 SWAP1 DUP2 MSTORE PUSH1 0x5 PUSH1 0x20 MSTORE PUSH1 0x40 SWAP1 KECCAK256 SSTORE PUSH1 0x4 SLOAD PUSH2 0x850 SWAP1 DUP3 PUSH4 0xFFFFFFFF PUSH2 0xA5C AND JUMP JUMPDEST PUSH1 0x4 SSTORE PUSH1 0x40 MLOAD PUSH1 0x1 PUSH1 0x1 PUSH1 0xA0 SHL SUB DUP4 AND SWAP1 PUSH32 0xCC16F5DBB4873280815C1EE09DBD06736CFFCC184412CF7A71A0FDB75D397CA5 SWAP1 PUSH2 0x88E SWAP1 DUP5 SWAP1 PUSH2 0xDCD JUMP JUMPDEST PUSH1 0x40 MLOAD DUP1 SWAP2 SUB SWAP1 LOG2 PUSH1 0x0 PUSH1 0x1 PUSH1 0x1 PUSH1 0xA0 SHL SUB AND DUP3 PUSH1 0x1 PUSH1 0x1 PUSH1 0xA0 SHL SUB AND PUSH1 0x0 DUP1 MLOAD PUSH1 0x20 PUSH2 0xE2D DUP4 CODECOPY DUP2 MLOAD SWAP2 MSTORE DUP4 PUSH1 0x40 MLOAD PUSH2 0x682 SWAP2 SWAP1 PUSH2 0xDCD JUMP JUMPDEST CALLER PUSH1 0x0 SWAP1 DUP2 MSTORE PUSH1 0x5 PUSH1 0x20 MSTORE PUSH1 0x40 DUP2 KECCAK256 SLOAD DUP3 GT ISZERO PUSH2 0x8F7 JUMPI PUSH1 0x40 MLOAD PUSH3 0x461BCD PUSH1 0xE5 SHL DUP2 MSTORE PUSH1 0x4 ADD PUSH2 0x3BD SWAP1 PUSH2 0xD5B JUMP JUMPDEST CALLER PUSH1 0x0 SWAP1 DUP2 MSTORE PUSH1 0x5 PUSH1 0x20 MSTORE PUSH1 0x40 SWAP1 KECCAK256 SLOAD PUSH2 0x917 SWAP1 DUP4 PUSH4 0xFFFFFFFF PUSH2 0xA5C AND JUMP JUMPDEST CALLER PUSH1 0x0 SWAP1 DUP2 MSTORE PUSH1 0x5 PUSH1 0x20 MSTORE PUSH1 0x40 DUP1 DUP3 KECCAK256 SWAP3 SWAP1 SWAP3 SSTORE PUSH1 0x1 PUSH1 0x1 PUSH1 0xA0 SHL SUB DUP6 AND DUP2 MSTORE KECCAK256 SLOAD PUSH2 0x949 SWAP1 DUP4 PUSH4 0xFFFFFFFF PUSH2 0xA84 AND JUMP JUMPDEST PUSH1 0x1 PUSH1 0x1 PUSH1 0xA0 SHL SUB DUP5 AND PUSH1 0x0 DUP2 DUP2 MSTORE PUSH1 0x5 PUSH1 0x20 MSTORE PUSH1 0x40 SWAP1 DUP2 SWAP1 KECCAK256 SWAP3 SWAP1 SWAP3 SSTORE SWAP1 MLOAD CALLER SWAP1 PUSH1 0x0 DUP1 MLOAD PUSH1 0x20 PUSH2 0xE2D DUP4 CODECOPY DUP2 MLOAD SWAP2 MSTORE SWAP1 PUSH2 0x34F SWAP1 DUP7 SWAP1 PUSH2 0xDCD JUMP JUMPDEST PUSH1 0x1 PUSH1 0x1 PUSH1 0xA0 SHL SUB SWAP2 DUP3 AND PUSH1 0x0 SWAP1 DUP2 MSTORE PUSH1 0x6 PUSH1 0x20 SWAP1 DUP2 MSTORE PUSH1 0x40 DUP1 DUP4 KECCAK256 SWAP4 SWAP1 SWAP5 AND DUP3 MSTORE SWAP2 SWAP1 SWAP2 MSTORE KECCAK256 SLOAD SWAP1 JUMP JUMPDEST PUSH1 0x0 SLOAD PUSH1 0x1 PUSH1 0x1 PUSH1 0xA0 SHL SUB AND CALLER EQ PUSH2 0x9DB JUMPI PUSH1 0x40 MLOAD PUSH3 0x461BCD PUSH1 0xE5 SHL DUP2 MSTORE PUSH1 0x4 ADD PUSH2 0x3BD SWAP1 PUSH2 0xD87 JUMP JUMPDEST PUSH1 0x1 PUSH1 0x1 PUSH1 0xA0 SHL SUB DUP2 AND PUSH2 0xA01 JUMPI PUSH1 0x40 MLOAD PUSH3 0x461BCD PUSH1 0xE5 SHL DUP2 MSTORE PUSH1 0x4 ADD PUSH2 0x3BD SWAP1 PUSH2 0xD34 JUMP JUMPDEST PUSH1 0x0 DUP1 SLOAD PUSH1 0x40 MLOAD PUSH1 0x1 PUSH1 0x1 PUSH1 0xA0 SHL SUB DUP1 DUP6 AND SWAP4 SWAP3 AND SWAP2 PUSH32 0xDCF55418CEE3220104FEF63F979FF3C4097AD240C0C43DCB33CE837748983E62 SWAP2 LOG3 PUSH1 0x1 DUP1 SLOAD PUSH1 0x1 PUSH1 0x1 PUSH1 0xA0 SHL SUB NOT AND PUSH1 0x1 PUSH1 0x1 PUSH1 0xA0 SHL SUB SWAP3 SWAP1 SWAP3 AND SWAP2 SWAP1 SWAP2 OR SWAP1 SSTORE JUMP JUMPDEST PUSH1 0x0 DUP3 DUP3 GT ISZERO PUSH2 0xA7E JUMPI PUSH1 0x40 MLOAD PUSH3 0x461BCD PUSH1 0xE5 SHL DUP2 MSTORE PUSH1 0x4 ADD PUSH2 0x3BD SWAP1 PUSH2 0xD11 JUMP JUMPDEST POP SWAP1 SUB SWAP1 JUMP JUMPDEST PUSH1 0x0 DUP3 DUP3 ADD DUP4 DUP2 LT ISZERO PUSH2 0xAA9 JUMPI PUSH1 0x40 MLOAD PUSH3 0x461BCD PUSH1 0xE5 SHL DUP2 MSTORE PUSH1 0x4 ADD PUSH2 0x3BD SWAP1 PUSH2 0xDAA JUMP JUMPDEST SWAP4 SWAP3 POP POP POP JUMP JUMPDEST DUP1 CALLDATALOAD PUSH1 0x1 PUSH1 0x1 PUSH1 0xA0 SHL SUB DUP2 AND DUP2 EQ PUSH2 0x35B JUMPI PUSH1 0x0 DUP1 REVERT JUMPDEST PUSH1 0x0 PUSH1 0x20 DUP3 DUP5 SUB SLT ISZERO PUSH2 0xAD8 JUMPI DUP1 DUP2 REVERT JUMPDEST PUSH2 0xAA9 DUP4 DUP4 PUSH2 0xAB0 JUMP JUMPDEST PUSH1 0x0 DUP1 PUSH1 0x40 DUP4 DUP6 SUB SLT ISZERO PUSH2 0xAF4 JUMPI DUP1 DUP2 REVERT JUMPDEST PUSH2 0xAFE DUP5 DUP5 PUSH2 0xAB0 JUMP JUMPDEST SWAP2 POP PUSH2 0xB0D DUP5 PUSH1 0x20 DUP6 ADD PUSH2 0xAB0 JUMP JUMPDEST SWAP1 POP SWAP3 POP SWAP3 SWAP1 POP JUMP JUMPDEST PUSH1 0x0 DUP1 PUSH1 0x0 PUSH1 0x60 DUP5 DUP7 SUB SLT ISZERO PUSH2 0xB2A JUMPI DUP1 DUP2 REVERT JUMPDEST DUP4 CALLDATALOAD PUSH2 0xB35 DUP2 PUSH2 0xE14 JUMP JUMPDEST SWAP3 POP PUSH1 0x20 DUP5 ADD CALLDATALOAD PUSH2 0xB45 DUP2 PUSH2 0xE14 JUMP JUMPDEST SWAP3 SWAP6 SWAP3 SWAP5 POP POP POP PUSH1 0x40 SWAP2 SWAP1 SWAP2 ADD CALLDATALOAD SWAP1 JUMP JUMPDEST PUSH1 0x0 DUP1 PUSH1 0x40 DUP4 DUP6 SUB SLT ISZERO PUSH2 0xB68 JUMPI DUP2 DUP3 REVERT JUMPDEST PUSH2 0xB72 DUP5 DUP5 PUSH2 0xAB0 JUMP JUMPDEST SWAP5 PUSH1 0x20 SWAP4 SWAP1 SWAP4 ADD CALLDATALOAD SWAP4 POP POP POP JUMP JUMPDEST PUSH1 0x0 PUSH1 0x20 DUP3 DUP5 SUB SLT ISZERO PUSH2 0xB91 JUMPI DUP1 DUP2 REVERT JUMPDEST DUP2 MLOAD PUSH8 0xFFFFFFFFFFFFFFFF DUP1 DUP3 GT ISZERO PUSH2 0xBA8 JUMPI DUP3 DUP4 REVERT JUMPDEST DUP2 DUP5 ADD DUP6 PUSH1 0x1F DUP3 ADD SLT PUSH2 0xBB9 JUMPI DUP4 DUP5 REVERT JUMPDEST DUP1 MLOAD SWAP3 POP DUP2 DUP4 GT ISZERO PUSH2 0xBC9 JUMPI DUP4 DUP5 REVERT JUMPDEST PUSH1 0x40 MLOAD PUSH1 0x1F DUP5 ADD PUSH1 0x1F NOT AND DUP2 ADD PUSH1 0x20 ADD DUP4 DUP2 GT DUP3 DUP3 LT OR ISZERO PUSH2 0xBE9 JUMPI DUP6 DUP7 REVERT JUMPDEST PUSH1 0x40 MSTORE DUP4 DUP2 MSTORE DUP2 DUP5 ADD PUSH1 0x20 ADD DUP8 LT ISZERO PUSH2 0xC00 JUMPI DUP5 DUP6 REVERT JUMPDEST PUSH2 0xC11 DUP5 PUSH1 0x20 DUP4 ADD PUSH1 0x20 DUP6 ADD PUSH2 0xDE4 JUMP JUMPDEST SWAP7 SWAP6 POP POP POP POP POP POP JUMP JUMPDEST PUSH1 0x0 PUSH1 0x20 DUP3 DUP5 SUB SLT ISZERO PUSH2 0xC2C JUMPI DUP1 DUP2 REVERT JUMPDEST DUP2 MLOAD PUSH1 0xFF DUP2 AND DUP2 EQ PUSH2 0xAA9 JUMPI DUP2 DUP3 REVERT JUMPDEST PUSH1 0x0 DUP4 MLOAD PUSH2 0xC4E DUP2 DUP5 PUSH1 0x20 DUP9 ADD PUSH2 0xDE4 JUMP JUMPDEST DUP4 MLOAD SWAP1 DUP4 ADD PUSH2 0xC61 DUP3 DUP3 PUSH1 0x20 DUP9 ADD PUSH2 0xDE4 JUMP JUMPDEST ADD SWAP5 SWAP4 POP POP POP POP JUMP JUMPDEST PUSH1 0x1 PUSH1 0x1 PUSH1 0xA0 SHL SUB SWAP2 SWAP1 SWAP2 AND DUP2 MSTORE PUSH1 0x20 ADD SWAP1 JUMP JUMPDEST SWAP1 ISZERO ISZERO DUP2 MSTORE PUSH1 0x20 ADD SWAP1 JUMP JUMPDEST PUSH1 0x0 PUSH1 0x20 DUP3 MSTORE DUP3 MLOAD DUP1 PUSH1 0x20 DUP5 ADD MSTORE PUSH2 0xCA8 DUP2 PUSH1 0x40 DUP6 ADD PUSH1 0x20 DUP8 ADD PUSH2 0xDE4 JUMP JUMPDEST PUSH1 0x1F ADD PUSH1 0x1F NOT AND SWAP2 SWAP1 SWAP2 ADD PUSH1 0x40 ADD SWAP3 SWAP2 POP POP JUMP JUMPDEST PUSH1 0x20 DUP1 DUP3 MSTORE PUSH1 0xD SWAP1 DUP3 ADD MSTORE PUSH13 0x494E56414C49445F434C41494D PUSH1 0x98 SHL PUSH1 0x40 DUP3 ADD MSTORE PUSH1 0x60 ADD SWAP1 JUMP JUMPDEST PUSH1 0x20 DUP1 DUP3 MSTORE PUSH1 0x14 SWAP1 DUP3 ADD MSTORE PUSH20 0x8298989EAE829C868ABE9C9EA8BE8A9C9EAA8E9 PUSH1 0x63 SHL PUSH1 0x40 DUP3 ADD MSTORE PUSH1 0x60 ADD SWAP1 JUMP JUMPDEST PUSH1 0x20 DUP1 DUP3 MSTORE PUSH1 0x9 SWAP1 DUP3 ADD MSTORE PUSH9 0x29AAA12FA2A92927A9 PUSH1 0xB9 SHL PUSH1 0x40 DUP3 ADD MSTORE PUSH1 0x60 ADD SWAP1 JUMP JUMPDEST PUSH1 0x20 DUP1 DUP3 MSTORE PUSH1 0xD SWAP1 DUP3 ADD MSTORE PUSH13 0x24A72B20A624A22FA7ABA722A9 PUSH1 0x99 SHL PUSH1 0x40 DUP3 ADD MSTORE PUSH1 0x60 ADD SWAP1 JUMP JUMPDEST PUSH1 0x20 DUP1 DUP3 MSTORE PUSH1 0x12 SWAP1 DUP3 ADD MSTORE PUSH18 0x848298829C868ABE9C9EA8BE8A9C9EAA8E9 PUSH1 0x73 SHL PUSH1 0x40 DUP3 ADD MSTORE PUSH1 0x60 ADD SWAP1 JUMP JUMPDEST PUSH1 0x20 DUP1 DUP3 MSTORE PUSH1 0x9 SWAP1 DUP3 ADD MSTORE PUSH9 0x2727AA2FA7ABA722A9 PUSH1 0xB9 SHL PUSH1 0x40 DUP3 ADD MSTORE PUSH1 0x60 ADD SWAP1 JUMP JUMPDEST PUSH1 0x20 DUP1 DUP3 MSTORE PUSH1 0x9 SWAP1 DUP3 ADD MSTORE PUSH9 0x20A2222FA2A92927A9 PUSH1 0xB9 SHL PUSH1 0x40 DUP3 ADD MSTORE PUSH1 0x60 ADD SWAP1 JUMP JUMPDEST SWAP1 DUP2 MSTORE PUSH1 0x20 ADD SWAP1 JUMP JUMPDEST PUSH1 0xFF SWAP2 SWAP1 SWAP2 AND DUP2 MSTORE PUSH1 0x20 ADD SWAP1 JUMP JUMPDEST PUSH1 0x0 JUMPDEST DUP4 DUP2 LT ISZERO PUSH2 0xDFF JUMPI DUP2 DUP2 ADD MLOAD DUP4 DUP3 ADD MSTORE PUSH1 0x20 ADD PUSH2 0xDE7 JUMP JUMPDEST DUP4 DUP2 GT ISZERO PUSH2 0xE0E JUMPI PUSH1 0x0 DUP5 DUP5 ADD MSTORE JUMPDEST POP POP POP POP JUMP JUMPDEST PUSH1 0x1 PUSH1 0x1 PUSH1 0xA0 SHL SUB DUP2 AND DUP2 EQ PUSH2 0xE29 JUMPI PUSH1 0x0 DUP1 REVERT JUMPDEST POP JUMP INVALID 0xDD CALLCODE MSTORE 0xAD SHL 0xE2 0xC8 SWAP12 PUSH10 0xC2B068FC378DAA952BA7 CALL PUSH4 0xC4A11628 CREATE2 GAS 0x4D CREATE2 0x23 0xB3 0xEF LOG2 PUSH5 0x6970667358 0x22 SLT KECCAK256 0xDF 0xB9 0x27 LOG1 0x2F STATICCALL 0xA7 0xD6 0xED 0xB2 LOG0 0xDD 0xD4 0xEA DUP13 SWAP6 0xC5 NOT 0x49 0x28 TIMESTAMP DUP4 COINBASE PUSH32 0x92685BB5AE9119464736F6C63430006090033E89C586BD81EE35A18F7EAC22A PUSH20 0x2B56E589A2821497CCE12A0208828540A36D581F CALLDATALOAD 0x1E 0x2B 0xDB SWAP16 0xA9 MUL SHL 0xB2 LOG2 0x4D 0xEF SWAP9 SWAP16 MOD 0xAC 0x23 PUSH16 0x8A92AAC14BCBC618DDF3826AA2646970 PUSH7 0x73582212203F01 0xA7 0xCA 0xC6 CALLDATACOPY 0xA5 AND PUSH11 0x6D64C8F3E7D82370CF14C3 PUSH24 0xF6E54CE106086B2A4EA8FD64736F6C634300060900330000 "
		},
		"gasEstimates": {
			"creation": {
				"codeDepositCost": "4906600",
				"executionCost": "5802",
				"totalCost": "4912402"
			},
			"external": {
				"_BASE_BALANCE_()": "1205",
				"_BASE_BALANCE_LIMIT_()": "1184",
				"_BASE_CAPITAL_RECEIVE_QUOTE_()": "1162",
				"_BASE_CAPITAL_TOKEN_()": "1159",
				"_BASE_TOKEN_()": "1138",
				"_BUYING_ALLOWED_()": "1130",
				"_CLAIMED_(address)": "1381",
				"_CLOSED_()": "1213",
				"_DEPOSIT_BASE_ALLOWED_()": "1169",
				"_DEPOSIT_QUOTE_ALLOWED_()": "1169",
				"_GAS_PRICE_LIMIT_()": "1118",
				"_K_()": "1095",
				"_LP_FEE_RATE_()": "1184",
				"_MAINTAINER_()": "1227",
				"_MT_FEE_RATE_()": "1205",
				"_NEW_OWNER_()": "1225",
				"_ORACLE_()": "1248",
				"_OWNER_()": "1249",
				"_QUOTE_BALANCE_()": "1161",
				"_QUOTE_BALANCE_LIMIT_()": "1119",
				"_QUOTE_CAPITAL_RECEIVE_BASE_()": "1097",
				"_QUOTE_CAPITAL_TOKEN_()": "1137",
				"_QUOTE_TOKEN_()": "1137",
				"_RAboveBackToOne()": "infinite",
				"_RAboveBuyBaseToken(uint256,uint256,uint256)": "infinite",
				"_RAboveIntegrate(uint256,uint256,uint256)": "infinite",
				"_RAboveSellBaseToken(uint256,uint256,uint256)": "infinite",
				"_RBelowBackToOne()": "infinite",
				"_RBelowBuyBaseToken(uint256,uint256,uint256)": "infinite",
				"_RBelowSellBaseToken(uint256,uint256,uint256)": "infinite",
				"_ROneBuyBaseToken(uint256,uint256)": "infinite",
				"_ROneSellBaseToken(uint256,uint256)": "infinite",
				"_R_STATUS_()": "1229",
				"_SELLING_ALLOWED_()": "1164",
				"_SUPERVISOR_()": "1205",
				"_TARGET_BASE_TOKEN_AMOUNT_()": "1139",
				"_TARGET_QUOTE_TOKEN_AMOUNT_()": "1118",
				"_TRADE_ALLOWED_()": "1190",
				"_queryBuyBaseToken(uint256)": "infinite",
				"_querySellBaseToken(uint256)": "infinite",
				"buyBaseToken(uint256,uint256,bytes)": "infinite",
				"claimAssets()": "infinite",
				"claimOwnership()": "45931",
				"depositBase(uint256)": "infinite",
				"depositBaseTo(address,uint256)": "infinite",
				"depositQuote(uint256)": "infinite",
				"depositQuoteTo(address,uint256)": "infinite",
				"disableBaseDeposit()": "22788",
				"disableBuying()": "22759",
				"disableQuoteDeposit()": "22786",
				"disableSelling()": "22736",
				"disableTrading()": "22766",
				"donateBaseToken(uint256)": "infinite",
				"donateQuoteToken(uint256)": "infinite",
				"enableBaseDeposit()": "22776",
				"enableBuying()": "22786",
				"enableQuoteDeposit()": "22754",
				"enableSelling()": "22807",
				"enableTrading()": "22732",
				"finalSettlement()": "infinite",
				"getBaseCapitalBalanceOf(address)": "infinite",
				"getExpectedTarget()": "infinite",
				"getLpBaseBalance(address)": "infinite",
				"getLpQuoteBalance(address)": "infinite",
				"getMidPrice()": "infinite",
				"getOraclePrice()": "infinite",
				"getQuoteCapitalBalanceOf(address)": "infinite",
				"getTotalBaseCapital()": "infinite",
				"getTotalQuoteCapital()": "infinite",
				"getWithdrawBasePenalty(uint256)": "infinite",
				"getWithdrawQuotePenalty(uint256)": "infinite",
				"init(address,address,address,address,address,address,uint256,uint256,uint256,uint256)": "infinite",
				"queryBuyBaseToken(uint256)": "infinite",
				"querySellBaseToken(uint256)": "infinite",
				"retrieve(address,uint256)": "infinite",
				"sellBaseToken(uint256,uint256,bytes)": "infinite",
				"setBaseBalanceLimit(uint256)": "22084",
				"setGasPriceLimit(uint256)": "24168",
				"setK(uint256)": "infinite",
				"setLiquidityProviderFeeRate(uint256)": "infinite",
				"setMaintainer(address)": "22173",
				"setMaintainerFeeRate(uint256)": "infinite",
				"setOracle(address)": "22105",
				"setQuoteBalanceLimit(uint256)": "21997",
				"setSupervisor(address)": "22173",
				"transferOwnership(address)": "24493",
				"version()": "362",
				"withdrawAllBase()": "infinite",
				"withdrawAllBaseTo(address)": "infinite",
				"withdrawAllQuote()": "infinite",
				"withdrawAllQuoteTo(address)": "infinite",
				"withdrawBase(uint256)": "infinite",
				"withdrawBaseTo(address,uint256)": "infinite",
				"withdrawQuote(uint256)": "infinite",
				"withdrawQuoteTo(address,uint256)": "infinite"
			}
		},
		"methodIdentifiers": {
			"_BASE_BALANCE_()": "eab5d20e",
			"_BASE_BALANCE_LIMIT_()": "9b020fba",
			"_BASE_CAPITAL_RECEIVE_QUOTE_()": "c6b73cf9",
			"_BASE_CAPITAL_TOKEN_()": "d689107c",
			"_BASE_TOKEN_()": "4a248d2a",
			"_BUYING_ALLOWED_()": "a3161a56",
			"_CLAIMED_(address)": "68be20ad",
			"_CLOSED_()": "6ec6a58d",
			"_DEPOSIT_BASE_ALLOWED_()": "a598aca7",
			"_DEPOSIT_QUOTE_ALLOWED_()": "c5bbffe8",
			"_GAS_PRICE_LIMIT_()": "4de4527e",
			"_K_()": "ec2fd46d",
			"_LP_FEE_RATE_()": "ab44a7a3",
			"_MAINTAINER_()": "4322ec83",
			"_MT_FEE_RATE_()": "c0ffa178",
			"_NEW_OWNER_()": "8456db15",
			"_ORACLE_()": "73a2ab7c",
			"_OWNER_()": "16048bc4",
			"_QUOTE_BALANCE_()": "7c9b8e89",
			"_QUOTE_BALANCE_LIMIT_()": "1769ddaa",
			"_QUOTE_CAPITAL_RECEIVE_BASE_()": "0e6518e9",
			"_QUOTE_CAPITAL_TOKEN_()": "ac1fbc98",
			"_QUOTE_TOKEN_()": "d4b97046",
			"_RAboveBackToOne()": "ab67240b",
			"_RAboveBuyBaseToken(uint256,uint256,uint256)": "0beea43f",
			"_RAboveIntegrate(uint256,uint256,uint256)": "9a72b0b6",
			"_RAboveSellBaseToken(uint256,uint256,uint256)": "9767d30a",
			"_RBelowBackToOne()": "34813299",
			"_RBelowBuyBaseToken(uint256,uint256,uint256)": "6e9f7f49",
			"_RBelowSellBaseToken(uint256,uint256,uint256)": "dc4efae7",
			"_ROneBuyBaseToken(uint256,uint256)": "9cd7689b",
			"_ROneSellBaseToken(uint256,uint256)": "165cd1a7",
			"_R_STATUS_()": "17be952e",
			"_SELLING_ALLOWED_()": "8ff5e742",
			"_SUPERVISOR_()": "3960f142",
			"_TARGET_BASE_TOKEN_AMOUNT_()": "b2094fd3",
			"_TARGET_QUOTE_TOKEN_AMOUNT_()": "245c9685",
			"_TRADE_ALLOWED_()": "dd58b41c",
			"_queryBuyBaseToken(uint256)": "43a73976",
			"_querySellBaseToken(uint256)": "f0d8a759",
			"buyBaseToken(uint256,uint256,bytes)": "e67ce706",
			"claimAssets()": "1f3c156e",
			"claimOwnership()": "4e71e0c8",
			"depositBase(uint256)": "27bed8ee",
			"depositBaseTo(address,uint256)": "aa06ce9b",
			"depositQuote(uint256)": "f3ae6c5f",
			"depositQuoteTo(address,uint256)": "5f179f64",
			"disableBaseDeposit()": "13c57624",
			"disableBuying()": "247f993b",
			"disableQuoteDeposit()": "bc7d679d",
			"disableSelling()": "aceecbc8",
			"disableTrading()": "17700f01",
			"donateBaseToken(uint256)": "ed0aa428",
			"donateQuoteToken(uint256)": "387b0c11",
			"enableBaseDeposit()": "1184d8be",
			"enableBuying()": "90cbf822",
			"enableQuoteDeposit()": "36ac41a8",
			"enableSelling()": "cc062b58",
			"enableTrading()": "8a8c523c",
			"finalSettlement()": "648a4fac",
			"getBaseCapitalBalanceOf(address)": "7aed942d",
			"getExpectedTarget()": "ffa64225",
			"getLpBaseBalance(address)": "95faa5f6",
			"getLpQuoteBalance(address)": "36a53bbb",
			"getMidPrice()": "ee27c689",
			"getOraclePrice()": "796da7af",
			"getQuoteCapitalBalanceOf(address)": "f67ed448",
			"getTotalBaseCapital()": "0cd1667d",
			"getTotalQuoteCapital()": "2aa82c65",
			"getWithdrawBasePenalty(uint256)": "ee5150b3",
			"getWithdrawQuotePenalty(uint256)": "0c9f7bd0",
			"init(address,address,address,address,address,address,uint256,uint256,uint256,uint256)": "f00f9a09",
			"queryBuyBaseToken(uint256)": "18c0bbe4",
			"querySellBaseToken(uint256)": "a2801e16",
			"retrieve(address,uint256)": "c3a2a665",
			"sellBaseToken(uint256,uint256,bytes)": "8dae7333",
			"setBaseBalanceLimit(uint256)": "892daf05",
			"setGasPriceLimit(uint256)": "09231602",
			"setK(uint256)": "67de8be9",
			"setLiquidityProviderFeeRate(uint256)": "5bb7552a",
			"setMaintainer(address)": "13ea5d29",
			"setMaintainerFeeRate(uint256)": "f2220416",
			"setOracle(address)": "7adbf973",
			"setQuoteBalanceLimit(uint256)": "97316ad8",
			"setSupervisor(address)": "9299eb30",
			"transferOwnership(address)": "f2fde38b",
			"version()": "54fd4d50",
			"withdrawAllBase()": "d47eaa37",
			"withdrawAllBaseTo(address)": "1e34b9cc",
			"withdrawAllQuote()": "c59203af",
			"withdrawAllQuoteTo(address)": "04512dc4",
			"withdrawBase(uint256)": "f98bea15",
			"withdrawBaseTo(address,uint256)": "947cf92b",
			"withdrawQuote(uint256)": "c0a5f6ff",
			"withdrawQuoteTo(address,uint256)": "108db744"
		}
	},
	"abi": [
		{
			"anonymous": false,
			"inputs": [
				{
					"indexed": true,
					"internalType": "address",
					"name": "buyer",
					"type": "address"
				},
				{
					"indexed": false,
					"internalType": "uint256",
					"name": "receiveBase",
					"type": "uint256"
				},
				{
					"indexed": false,
					"internalType": "uint256",
					"name": "payQuote",
					"type": "uint256"
				}
			],
			"name": "BuyBaseToken",
			"type": "event"
		},
		{
			"anonymous": false,
			"inputs": [
				{
					"indexed": true,
					"internalType": "address",
					"name": "maintainer",
					"type": "address"
				},
				{
					"indexed": false,
					"internalType": "bool",
					"name": "isBaseToken",
					"type": "bool"
				},
				{
					"indexed": false,
					"internalType": "uint256",
					"name": "amount",
					"type": "uint256"
				}
			],
			"name": "ChargeMaintainerFee",
			"type": "event"
		},
		{
			"anonymous": false,
			"inputs": [
				{
					"indexed": true,
					"internalType": "address",
					"name": "payer",
					"type": "address"
				},
				{
					"indexed": false,
					"internalType": "bool",
					"name": "isBaseToken",
					"type": "bool"
				},
				{
					"indexed": false,
					"internalType": "uint256",
					"name": "amount",
					"type": "uint256"
				}
			],
			"name": "ChargePenalty",
			"type": "event"
		},
		{
			"anonymous": false,
			"inputs": [
				{
					"indexed": true,
					"internalType": "address",
					"name": "user",
					"type": "address"
				},
				{
					"indexed": false,
					"internalType": "uint256",
					"name": "baseTokenAmount",
					"type": "uint256"
				},
				{
					"indexed": false,
					"internalType": "uint256",
					"name": "quoteTokenAmount",
					"type": "uint256"
				}
			],
			"name": "ClaimAssets",
			"type": "event"
		},
		{
			"anonymous": false,
			"inputs": [
				{
					"indexed": true,
					"internalType": "address",
					"name": "payer",
					"type": "address"
				},
				{
					"indexed": true,
					"internalType": "address",
					"name": "receiver",
					"type": "address"
				},
				{
					"indexed": false,
					"internalType": "bool",
					"name": "isBaseToken",
					"type": "bool"
				},
				{
					"indexed": false,
					"internalType": "uint256",
					"name": "amount",
					"type": "uint256"
				},
				{
					"indexed": false,
					"internalType": "uint256",
					"name": "lpTokenAmount",
					"type": "uint256"
				}
			],
			"name": "Deposit",
			"type": "event"
		},
		{
			"anonymous": false,
			"inputs": [
				{
					"indexed": false,
					"internalType": "uint256",
					"name": "amount",
					"type": "uint256"
				},
				{
					"indexed": false,
					"internalType": "bool",
					"name": "isBaseToken",
					"type": "bool"
				}
			],
			"name": "Donate",
			"type": "event"
		},
		{
			"anonymous": false,
			"inputs": [
				{
					"indexed": true,
					"internalType": "address",
					"name": "previousOwner",
					"type": "address"
				},
				{
					"indexed": true,
					"internalType": "address",
					"name": "newOwner",
					"type": "address"
				}
			],
			"name": "OwnershipTransferPrepared",
			"type": "event"
		},
		{
			"anonymous": false,
			"inputs": [
				{
					"indexed": true,
					"internalType": "address",
					"name": "previousOwner",
					"type": "address"
				},
				{
					"indexed": true,
					"internalType": "address",
					"name": "newOwner",
					"type": "address"
				}
			],
			"name": "OwnershipTransferred",
			"type": "event"
		},
		{
			"anonymous": false,
			"inputs": [
				{
					"indexed": true,
					"internalType": "address",
					"name": "seller",
					"type": "address"
				},
				{
					"indexed": false,
					"internalType": "uint256",
					"name": "payBase",
					"type": "uint256"
				},
				{
					"indexed": false,
					"internalType": "uint256",
					"name": "receiveQuote",
					"type": "uint256"
				}
			],
			"name": "SellBaseToken",
			"type": "event"
		},
		{
			"anonymous": false,
			"inputs": [
				{
					"indexed": false,
					"internalType": "uint256",
					"name": "oldGasPriceLimit",
					"type": "uint256"
				},
				{
					"indexed": false,
					"internalType": "uint256",
					"name": "newGasPriceLimit",
					"type": "uint256"
				}
			],
			"name": "UpdateGasPriceLimit",
			"type": "event"
		},
		{
			"anonymous": false,
			"inputs": [
				{
					"indexed": false,
					"internalType": "uint256",
					"name": "oldK",
					"type": "uint256"
				},
				{
					"indexed": false,
					"internalType": "uint256",
					"name": "newK",
					"type": "uint256"
				}
			],
			"name": "UpdateK",
			"type": "event"
		},
		{
			"anonymous": false,
			"inputs": [
				{
					"indexed": false,
					"internalType": "uint256",
					"name": "oldLiquidityProviderFeeRate",
					"type": "uint256"
				},
				{
					"indexed": false,
					"internalType": "uint256",
					"name": "newLiquidityProviderFeeRate",
					"type": "uint256"
				}
			],
			"name": "UpdateLiquidityProviderFeeRate",
			"type": "event"
		},
		{
			"anonymous": false,
			"inputs": [
				{
					"indexed": false,
					"internalType": "uint256",
					"name": "oldMaintainerFeeRate",
					"type": "uint256"
				},
				{
					"indexed": false,
					"internalType": "uint256",
					"name": "newMaintainerFeeRate",
					"type": "uint256"
				}
			],
			"name": "UpdateMaintainerFeeRate",
			"type": "event"
		},
		{
			"anonymous": false,
			"inputs": [
				{
					"indexed": true,
					"internalType": "address",
					"name": "payer",
					"type": "address"
				},
				{
					"indexed": true,
					"internalType": "address",
					"name": "receiver",
					"type": "address"
				},
				{
					"indexed": false,
					"internalType": "bool",
					"name": "isBaseToken",
					"type": "bool"
				},
				{
					"indexed": false,
					"internalType": "uint256",
					"name": "amount",
					"type": "uint256"
				},
				{
					"indexed": false,
					"internalType": "uint256",
					"name": "lpTokenAmount",
					"type": "uint256"
				}
			],
			"name": "Withdraw",
			"type": "event"
		},
		{
			"inputs": [],
			"name": "_BASE_BALANCE_",
			"outputs": [
				{
					"internalType": "uint256",
					"name": "",
					"type": "uint256"
				}
			],
			"stateMutability": "view",
			"type": "function"
		},
		{
			"inputs": [],
			"name": "_BASE_BALANCE_LIMIT_",
			"outputs": [
				{
					"internalType": "uint256",
					"name": "",
					"type": "uint256"
				}
			],
			"stateMutability": "view",
			"type": "function"
		},
		{
			"inputs": [],
			"name": "_BASE_CAPITAL_RECEIVE_QUOTE_",
			"outputs": [
				{
					"internalType": "uint256",
					"name": "",
					"type": "uint256"
				}
			],
			"stateMutability": "view",
			"type": "function"
		},
		{
			"inputs": [],
			"name": "_BASE_CAPITAL_TOKEN_",
			"outputs": [
				{
					"internalType": "address",
					"name": "",
					"type": "address"
				}
			],
			"stateMutability": "view",
			"type": "function"
		},
		{
			"inputs": [],
			"name": "_BASE_TOKEN_",
			"outputs": [
				{
					"internalType": "address",
					"name": "",
					"type": "address"
				}
			],
			"stateMutability": "view",
			"type": "function"
		},
		{
			"inputs": [],
			"name": "_BUYING_ALLOWED_",
			"outputs": [
				{
					"internalType": "bool",
					"name": "",
					"type": "bool"
				}
			],
			"stateMutability": "view",
			"type": "function"
		},
		{
			"inputs": [
				{
					"internalType": "address",
					"name": "",
					"type": "address"
				}
			],
			"name": "_CLAIMED_",
			"outputs": [
				{
					"internalType": "bool",
					"name": "",
					"type": "bool"
				}
			],
			"stateMutability": "view",
			"type": "function"
		},
		{
			"inputs": [],
			"name": "_CLOSED_",
			"outputs": [
				{
					"internalType": "bool",
					"name": "",
					"type": "bool"
				}
			],
			"stateMutability": "view",
			"type": "function"
		},
		{
			"inputs": [],
			"name": "_DEPOSIT_BASE_ALLOWED_",
			"outputs": [
				{
					"internalType": "bool",
					"name": "",
					"type": "bool"
				}
			],
			"stateMutability": "view",
			"type": "function"
		},
		{
			"inputs": [],
			"name": "_DEPOSIT_QUOTE_ALLOWED_",
			"outputs": [
				{
					"internalType": "bool",
					"name": "",
					"type": "bool"
				}
			],
			"stateMutability": "view",
			"type": "function"
		},
		{
			"inputs": [],
			"name": "_GAS_PRICE_LIMIT_",
			"outputs": [
				{
					"internalType": "uint256",
					"name": "",
					"type": "uint256"
				}
			],
			"stateMutability": "view",
			"type": "function"
		},
		{
			"inputs": [],
			"name": "_K_",
			"outputs": [
				{
					"internalType": "uint256",
					"name": "",
					"type": "uint256"
				}
			],
			"stateMutability": "view",
			"type": "function"
		},
		{
			"inputs": [],
			"name": "_LP_FEE_RATE_",
			"outputs": [
				{
					"internalType": "uint256",
					"name": "",
					"type": "uint256"
				}
			],
			"stateMutability": "view",
			"type": "function"
		},
		{
			"inputs": [],
			"name": "_MAINTAINER_",
			"outputs": [
				{
					"internalType": "address",
					"name": "",
					"type": "address"
				}
			],
			"stateMutability": "view",
			"type": "function"
		},
		{
			"inputs": [],
			"name": "_MT_FEE_RATE_",
			"outputs": [
				{
					"internalType": "uint256",
					"name": "",
					"type": "uint256"
				}
			],
			"stateMutability": "view",
			"type": "function"
		},
		{
			"inputs": [],
			"name": "_NEW_OWNER_",
			"outputs": [
				{
					"internalType": "address",
					"name": "",
					"type": "address"
				}
			],
			"stateMutability": "view",
			"type": "function"
		},
		{
			"inputs": [],
			"name": "_ORACLE_",
			"outputs": [
				{
					"internalType": "address",
					"name": "",
					"type": "address"
				}
			],
			"stateMutability": "view",
			"type": "function"
		},
		{
			"inputs": [],
			"name": "_OWNER_",
			"outputs": [
				{
					"internalType": "address",
					"name": "",
					"type": "address"
				}
			],
			"stateMutability": "view",
			"type": "function"
		},
		{
			"inputs": [],
			"name": "_QUOTE_BALANCE_",
			"outputs": [
				{
					"internalType": "uint256",
					"name": "",
					"type": "uint256"
				}
			],
			"stateMutability": "view",
			"type": "function"
		},
		{
			"inputs": [],
			"name": "_QUOTE_BALANCE_LIMIT_",
			"outputs": [
				{
					"internalType": "uint256",
					"name": "",
					"type": "uint256"
				}
			],
			"stateMutability": "view",
			"type": "function"
		},
		{
			"inputs": [],
			"name": "_QUOTE_CAPITAL_RECEIVE_BASE_",
			"outputs": [
				{
					"internalType": "uint256",
					"name": "",
					"type": "uint256"
				}
			],
			"stateMutability": "view",
			"type": "function"
		},
		{
			"inputs": [],
			"name": "_QUOTE_CAPITAL_TOKEN_",
			"outputs": [
				{
					"internalType": "address",
					"name": "",
					"type": "address"
				}
			],
			"stateMutability": "view",
			"type": "function"
		},
		{
			"inputs": [],
			"name": "_QUOTE_TOKEN_",
			"outputs": [
				{
					"internalType": "address",
					"name": "",
					"type": "address"
				}
			],
			"stateMutability": "view",
			"type": "function"
		},
		{
			"inputs": [],
			"name": "_RAboveBackToOne",
			"outputs": [
				{
					"internalType": "uint256",
					"name": "payBaseToken",
					"type": "uint256"
				}
			],
			"stateMutability": "view",
			"type": "function"
		},
		{
			"inputs": [
				{
					"internalType": "uint256",
					"name": "amount",
					"type": "uint256"
				},
				{
					"internalType": "uint256",
					"name": "baseBalance",
					"type": "uint256"
				},
				{
					"internalType": "uint256",
					"name": "targetBaseAmount",
					"type": "uint256"
				}
			],
			"name": "_RAboveBuyBaseToken",
			"outputs": [
				{
					"internalType": "uint256",
					"name": "payQuoteToken",
					"type": "uint256"
				}
			],
			"stateMutability": "view",
			"type": "function"
		},
		{
			"inputs": [
				{
					"internalType": "uint256",
					"name": "B0",
					"type": "uint256"
				},
				{
					"internalType": "uint256",
					"name": "B1",
					"type": "uint256"
				},
				{
					"internalType": "uint256",
					"name": "B2",
					"type": "uint256"
				}
			],
			"name": "_RAboveIntegrate",
			"outputs": [
				{
					"internalType": "uint256",
					"name": "",
					"type": "uint256"
				}
			],
			"stateMutability": "view",
			"type": "function"
		},
		{
			"inputs": [
				{
					"internalType": "uint256",
					"name": "amount",
					"type": "uint256"
				},
				{
					"internalType": "uint256",
					"name": "baseBalance",
					"type": "uint256"
				},
				{
					"internalType": "uint256",
					"name": "targetBaseAmount",
					"type": "uint256"
				}
			],
			"name": "_RAboveSellBaseToken",
			"outputs": [
				{
					"internalType": "uint256",
					"name": "receiveQuoteToken",
					"type": "uint256"
				}
			],
			"stateMutability": "view",
			"type": "function"
		},
		{
			"inputs": [],
			"name": "_RBelowBackToOne",
			"outputs": [
				{
					"internalType": "uint256",
					"name": "payQuoteToken",
					"type": "uint256"
				}
			],
			"stateMutability": "view",
			"type": "function"
		},
		{
			"inputs": [
				{
					"internalType": "uint256",
					"name": "amount",
					"type": "uint256"
				},
				{
					"internalType": "uint256",
					"name": "quoteBalance",
					"type": "uint256"
				},
				{
					"internalType": "uint256",
					"name": "targetQuoteAmount",
					"type": "uint256"
				}
			],
			"name": "_RBelowBuyBaseToken",
			"outputs": [
				{
					"internalType": "uint256",
					"name": "payQuoteToken",
					"type": "uint256"
				}
			],
			"stateMutability": "view",
			"type": "function"
		},
		{
			"inputs": [
				{
					"internalType": "uint256",
					"name": "amount",
					"type": "uint256"
				},
				{
					"internalType": "uint256",
					"name": "quoteBalance",
					"type": "uint256"
				},
				{
					"internalType": "uint256",
					"name": "targetQuoteAmount",
					"type": "uint256"
				}
			],
			"name": "_RBelowSellBaseToken",
			"outputs": [
				{
					"internalType": "uint256",
					"name": "receieQuoteToken",
					"type": "uint256"
				}
			],
			"stateMutability": "view",
			"type": "function"
		},
		{
			"inputs": [
				{
					"internalType": "uint256",
					"name": "amount",
					"type": "uint256"
				},
				{
					"internalType": "uint256",
					"name": "targetBaseTokenAmount",
					"type": "uint256"
				}
			],
			"name": "_ROneBuyBaseToken",
			"outputs": [
				{
					"internalType": "uint256",
					"name": "payQuoteToken",
					"type": "uint256"
				}
			],
			"stateMutability": "view",
			"type": "function"
		},
		{
			"inputs": [
				{
					"internalType": "uint256",
					"name": "amount",
					"type": "uint256"
				},
				{
					"internalType": "uint256",
					"name": "targetQuoteTokenAmount",
					"type": "uint256"
				}
			],
			"name": "_ROneSellBaseToken",
			"outputs": [
				{
					"internalType": "uint256",
					"name": "receiveQuoteToken",
					"type": "uint256"
				}
			],
			"stateMutability": "view",
			"type": "function"
		},
		{
			"inputs": [],
			"name": "_R_STATUS_",
			"outputs": [
				{
					"internalType": "enum Types.RStatus",
					"name": "",
					"type": "uint8"
				}
			],
			"stateMutability": "view",
			"type": "function"
		},
		{
			"inputs": [],
			"name": "_SELLING_ALLOWED_",
			"outputs": [
				{
					"internalType": "bool",
					"name": "",
					"type": "bool"
				}
			],
			"stateMutability": "view",
			"type": "function"
		},
		{
			"inputs": [],
			"name": "_SUPERVISOR_",
			"outputs": [
				{
					"internalType": "address",
					"name": "",
					"type": "address"
				}
			],
			"stateMutability": "view",
			"type": "function"
		},
		{
			"inputs": [],
			"name": "_TARGET_BASE_TOKEN_AMOUNT_",
			"outputs": [
				{
					"internalType": "uint256",
					"name": "",
					"type": "uint256"
				}
			],
			"stateMutability": "view",
			"type": "function"
		},
		{
			"inputs": [],
			"name": "_TARGET_QUOTE_TOKEN_AMOUNT_",
			"outputs": [
				{
					"internalType": "uint256",
					"name": "",
					"type": "uint256"
				}
			],
			"stateMutability": "view",
			"type": "function"
		},
		{
			"inputs": [],
			"name": "_TRADE_ALLOWED_",
			"outputs": [
				{
					"internalType": "bool",
					"name": "",
					"type": "bool"
				}
			],
			"stateMutability": "view",
			"type": "function"
		},
		{
			"inputs": [
				{
					"internalType": "uint256",
					"name": "amount",
					"type": "uint256"
				}
			],
			"name": "_queryBuyBaseToken",
			"outputs": [
				{
					"internalType": "uint256",
					"name": "payQuote",
					"type": "uint256"
				},
				{
					"internalType": "uint256",
					"name": "lpFeeBase",
					"type": "uint256"
				},
				{
					"internalType": "uint256",
					"name": "mtFeeBase",
					"type": "uint256"
				},
				{
					"internalType": "enum Types.RStatus",
					"name": "newRStatus",
					"type": "uint8"
				},
				{
					"internalType": "uint256",
					"name": "newQuoteTarget",
					"type": "uint256"
				},
				{
					"internalType": "uint256",
					"name": "newBaseTarget",
					"type": "uint256"
				}
			],
			"stateMutability": "view",
			"type": "function"
		},
		{
			"inputs": [
				{
					"internalType": "uint256",
					"name": "amount",
					"type": "uint256"
				}
			],
			"name": "_querySellBaseToken",
			"outputs": [
				{
					"internalType": "uint256",
					"name": "receiveQuote",
					"type": "uint256"
				},
				{
					"internalType": "uint256",
					"name": "lpFeeQuote",
					"type": "uint256"
				},
				{
					"internalType": "uint256",
					"name": "mtFeeQuote",
					"type": "uint256"
				},
				{
					"internalType": "enum Types.RStatus",
					"name": "newRStatus",
					"type": "uint8"
				},
				{
					"internalType": "uint256",
					"name": "newQuoteTarget",
					"type": "uint256"
				},
				{
					"internalType": "uint256",
					"name": "newBaseTarget",
					"type": "uint256"
				}
			],
			"stateMutability": "view",
			"type": "function"
		},
		{
			"inputs": [
				{
					"internalType": "uint256",
					"name": "amount",
					"type": "uint256"
				},
				{
					"internalType": "uint256",
					"name": "maxPayQuote",
					"type": "uint256"
				},
				{
					"internalType": "bytes",
					"name": "data",
					"type": "bytes"
				}
			],
			"name": "buyBaseToken",
			"outputs": [
				{
					"internalType": "uint256",
					"name": "",
					"type": "uint256"
				}
			],
			"stateMutability": "nonpayable",
			"type": "function"
		},
		{
			"inputs": [],
			"name": "claimAssets",
			"outputs": [],
			"stateMutability": "nonpayable",
			"type": "function"
		},
		{
			"inputs": [],
			"name": "claimOwnership",
			"outputs": [],
			"stateMutability": "nonpayable",
			"type": "function"
		},
		{
			"inputs": [
				{
					"internalType": "uint256",
					"name": "amount",
					"type": "uint256"
				}
			],
			"name": "depositBase",
			"outputs": [
				{
					"internalType": "uint256",
					"name": "",
					"type": "uint256"
				}
			],
			"stateMutability": "nonpayable",
			"type": "function"
		},
		{
			"inputs": [
				{
					"internalType": "address",
					"name": "to",
					"type": "address"
				},
				{
					"internalType": "uint256",
					"name": "amount",
					"type": "uint256"
				}
			],
			"name": "depositBaseTo",
			"outputs": [
				{
					"internalType": "uint256",
					"name": "",
					"type": "uint256"
				}
			],
			"stateMutability": "nonpayable",
			"type": "function"
		},
		{
			"inputs": [
				{
					"internalType": "uint256",
					"name": "amount",
					"type": "uint256"
				}
			],
			"name": "depositQuote",
			"outputs": [
				{
					"internalType": "uint256",
					"name": "",
					"type": "uint256"
				}
			],
			"stateMutability": "nonpayable",
			"type": "function"
		},
		{
			"inputs": [
				{
					"internalType": "address",
					"name": "to",
					"type": "address"
				},
				{
					"internalType": "uint256",
					"name": "amount",
					"type": "uint256"
				}
			],
			"name": "depositQuoteTo",
			"outputs": [
				{
					"internalType": "uint256",
					"name": "",
					"type": "uint256"
				}
			],
			"stateMutability": "nonpayable",
			"type": "function"
		},
		{
			"inputs": [],
			"name": "disableBaseDeposit",
			"outputs": [],
			"stateMutability": "nonpayable",
			"type": "function"
		},
		{
			"inputs": [],
			"name": "disableBuying",
			"outputs": [],
			"stateMutability": "nonpayable",
			"type": "function"
		},
		{
			"inputs": [],
			"name": "disableQuoteDeposit",
			"outputs": [],
			"stateMutability": "nonpayable",
			"type": "function"
		},
		{
			"inputs": [],
			"name": "disableSelling",
			"outputs": [],
			"stateMutability": "nonpayable",
			"type": "function"
		},
		{
			"inputs": [],
			"name": "disableTrading",
			"outputs": [],
			"stateMutability": "nonpayable",
			"type": "function"
		},
		{
			"inputs": [
				{
					"internalType": "uint256",
					"name": "amount",
					"type": "uint256"
				}
			],
			"name": "donateBaseToken",
			"outputs": [],
			"stateMutability": "nonpayable",
			"type": "function"
		},
		{
			"inputs": [
				{
					"internalType": "uint256",
					"name": "amount",
					"type": "uint256"
				}
			],
			"name": "donateQuoteToken",
			"outputs": [],
			"stateMutability": "nonpayable",
			"type": "function"
		},
		{
			"inputs": [],
			"name": "enableBaseDeposit",
			"outputs": [],
			"stateMutability": "nonpayable",
			"type": "function"
		},
		{
			"inputs": [],
			"name": "enableBuying",
			"outputs": [],
			"stateMutability": "nonpayable",
			"type": "function"
		},
		{
			"inputs": [],
			"name": "enableQuoteDeposit",
			"outputs": [],
			"stateMutability": "nonpayable",
			"type": "function"
		},
		{
			"inputs": [],
			"name": "enableSelling",
			"outputs": [],
			"stateMutability": "nonpayable",
			"type": "function"
		},
		{
			"inputs": [],
			"name": "enableTrading",
			"outputs": [],
			"stateMutability": "nonpayable",
			"type": "function"
		},
		{
			"inputs": [],
			"name": "finalSettlement",
			"outputs": [],
			"stateMutability": "nonpayable",
			"type": "function"
		},
		{
			"inputs": [
				{
					"internalType": "address",
					"name": "lp",
					"type": "address"
				}
			],
			"name": "getBaseCapitalBalanceOf",
			"outputs": [
				{
					"internalType": "uint256",
					"name": "",
					"type": "uint256"
				}
			],
			"stateMutability": "view",
			"type": "function"
		},
		{
			"inputs": [],
			"name": "getExpectedTarget",
			"outputs": [
				{
					"internalType": "uint256",
					"name": "baseTarget",
					"type": "uint256"
				},
				{
					"internalType": "uint256",
					"name": "quoteTarget",
					"type": "uint256"
				}
			],
			"stateMutability": "view",
			"type": "function"
		},
		{
			"inputs": [
				{
					"internalType": "address",
					"name": "lp",
					"type": "address"
				}
			],
			"name": "getLpBaseBalance",
			"outputs": [
				{
					"internalType": "uint256",
					"name": "lpBalance",
					"type": "uint256"
				}
			],
			"stateMutability": "view",
			"type": "function"
		},
		{
			"inputs": [
				{
					"internalType": "address",
					"name": "lp",
					"type": "address"
				}
			],
			"name": "getLpQuoteBalance",
			"outputs": [
				{
					"internalType": "uint256",
					"name": "lpBalance",
					"type": "uint256"
				}
			],
			"stateMutability": "view",
			"type": "function"
		},
		{
			"inputs": [],
			"name": "getMidPrice",
			"outputs": [
				{
					"internalType": "uint256",
					"name": "midPrice",
					"type": "uint256"
				}
			],
			"stateMutability": "view",
			"type": "function"
		},
		{
			"inputs": [],
			"name": "getOraclePrice",
			"outputs": [
				{
					"internalType": "uint256",
					"name": "",
					"type": "uint256"
				}
			],
			"stateMutability": "view",
			"type": "function"
		},
		{
			"inputs": [
				{
					"internalType": "address",
					"name": "lp",
					"type": "address"
				}
			],
			"name": "getQuoteCapitalBalanceOf",
			"outputs": [
				{
					"internalType": "uint256",
					"name": "",
					"type": "uint256"
				}
			],
			"stateMutability": "view",
			"type": "function"
		},
		{
			"inputs": [],
			"name": "getTotalBaseCapital",
			"outputs": [
				{
					"internalType": "uint256",
					"name": "",
					"type": "uint256"
				}
			],
			"stateMutability": "view",
			"type": "function"
		},
		{
			"inputs": [],
			"name": "getTotalQuoteCapital",
			"outputs": [
				{
					"internalType": "uint256",
					"name": "",
					"type": "uint256"
				}
			],
			"stateMutability": "view",
			"type": "function"
		},
		{
			"inputs": [
				{
					"internalType": "uint256",
					"name": "amount",
					"type": "uint256"
				}
			],
			"name": "getWithdrawBasePenalty",
			"outputs": [
				{
					"internalType": "uint256",
					"name": "penalty",
					"type": "uint256"
				}
			],
			"stateMutability": "view",
			"type": "function"
		},
		{
			"inputs": [
				{
					"internalType": "uint256",
					"name": "amount",
					"type": "uint256"
				}
			],
			"name": "getWithdrawQuotePenalty",
			"outputs": [
				{
					"internalType": "uint256",
					"name": "penalty",
					"type": "uint256"
				}
			],
			"stateMutability": "view",
			"type": "function"
		},
		{
			"inputs": [
				{
					"internalType": "address",
					"name": "owner",
					"type": "address"
				},
				{
					"internalType": "address",
					"name": "supervisor",
					"type": "address"
				},
				{
					"internalType": "address",
					"name": "maintainer",
					"type": "address"
				},
				{
					"internalType": "address",
					"name": "baseToken",
					"type": "address"
				},
				{
					"internalType": "address",
					"name": "quoteToken",
					"type": "address"
				},
				{
					"internalType": "address",
					"name": "oracle",
					"type": "address"
				},
				{
					"internalType": "uint256",
					"name": "lpFeeRate",
					"type": "uint256"
				},
				{
					"internalType": "uint256",
					"name": "mtFeeRate",
					"type": "uint256"
				},
				{
					"internalType": "uint256",
					"name": "k",
					"type": "uint256"
				},
				{
					"internalType": "uint256",
					"name": "gasPriceLimit",
					"type": "uint256"
				}
			],
			"name": "init",
			"outputs": [],
			"stateMutability": "nonpayable",
			"type": "function"
		},
		{
			"inputs": [
				{
					"internalType": "uint256",
					"name": "amount",
					"type": "uint256"
				}
			],
			"name": "queryBuyBaseToken",
			"outputs": [
				{
					"internalType": "uint256",
					"name": "payQuote",
					"type": "uint256"
				}
			],
			"stateMutability": "view",
			"type": "function"
		},
		{
			"inputs": [
				{
					"internalType": "uint256",
					"name": "amount",
					"type": "uint256"
				}
			],
			"name": "querySellBaseToken",
			"outputs": [
				{
					"internalType": "uint256",
					"name": "receiveQuote",
					"type": "uint256"
				}
			],
			"stateMutability": "view",
			"type": "function"
		},
		{
			"inputs": [
				{
					"internalType": "address",
					"name": "token",
					"type": "address"
				},
				{
					"internalType": "uint256",
					"name": "amount",
					"type": "uint256"
				}
			],
			"name": "retrieve",
			"outputs": [],
			"stateMutability": "nonpayable",
			"type": "function"
		},
		{
			"inputs": [
				{
					"internalType": "uint256",
					"name": "amount",
					"type": "uint256"
				},
				{
					"internalType": "uint256",
					"name": "minReceiveQuote",
					"type": "uint256"
				},
				{
					"internalType": "bytes",
					"name": "data",
					"type": "bytes"
				}
			],
			"name": "sellBaseToken",
			"outputs": [
				{
					"internalType": "uint256",
					"name": "",
					"type": "uint256"
				}
			],
			"stateMutability": "nonpayable",
			"type": "function"
		},
		{
			"inputs": [
				{
					"internalType": "uint256",
					"name": "newBaseBalanceLimit",
					"type": "uint256"
				}
			],
			"name": "setBaseBalanceLimit",
			"outputs": [],
			"stateMutability": "nonpayable",
			"type": "function"
		},
		{
			"inputs": [
				{
					"internalType": "uint256",
					"name": "newGasPriceLimit",
					"type": "uint256"
				}
			],
			"name": "setGasPriceLimit",
			"outputs": [],
			"stateMutability": "nonpayable",
			"type": "function"
		},
		{
			"inputs": [
				{
					"internalType": "uint256",
					"name": "newK",
					"type": "uint256"
				}
			],
			"name": "setK",
			"outputs": [],
			"stateMutability": "nonpayable",
			"type": "function"
		},
		{
			"inputs": [
				{
					"internalType": "uint256",
					"name": "newLiquidityPorviderFeeRate",
					"type": "uint256"
				}
			],
			"name": "setLiquidityProviderFeeRate",
			"outputs": [],
			"stateMutability": "nonpayable",
			"type": "function"
		},
		{
			"inputs": [
				{
					"internalType": "address",
					"name": "newMaintainer",
					"type": "address"
				}
			],
			"name": "setMaintainer",
			"outputs": [],
			"stateMutability": "nonpayable",
			"type": "function"
		},
		{
			"inputs": [
				{
					"internalType": "uint256",
					"name": "newMaintainerFeeRate",
					"type": "uint256"
				}
			],
			"name": "setMaintainerFeeRate",
			"outputs": [],
			"stateMutability": "nonpayable",
			"type": "function"
		},
		{
			"inputs": [
				{
					"internalType": "address",
					"name": "newOracle",
					"type": "address"
				}
			],
			"name": "setOracle",
			"outputs": [],
			"stateMutability": "nonpayable",
			"type": "function"
		},
		{
			"inputs": [
				{
					"internalType": "uint256",
					"name": "newQuoteBalanceLimit",
					"type": "uint256"
				}
			],
			"name": "setQuoteBalanceLimit",
			"outputs": [],
			"stateMutability": "nonpayable",
			"type": "function"
		},
		{
			"inputs": [
				{
					"internalType": "address",
					"name": "newSupervisor",
					"type": "address"
				}
			],
			"name": "setSupervisor",
			"outputs": [],
			"stateMutability": "nonpayable",
			"type": "function"
		},
		{
			"inputs": [
				{
					"internalType": "address",
					"name": "newOwner",
					"type": "address"
				}
			],
			"name": "transferOwnership",
			"outputs": [],
			"stateMutability": "nonpayable",
			"type": "function"
		},
		{
			"inputs": [],
			"name": "version",
			"outputs": [
				{
					"internalType": "uint256",
					"name": "",
					"type": "uint256"
				}
			],
			"stateMutability": "pure",
			"type": "function"
		},
		{
			"inputs": [],
			"name": "withdrawAllBase",
			"outputs": [
				{
					"internalType": "uint256",
					"name": "",
					"type": "uint256"
				}
			],
			"stateMutability": "nonpayable",
			"type": "function"
		},
		{
			"inputs": [
				{
					"internalType": "address",
					"name": "to",
					"type": "address"
				}
			],
			"name": "withdrawAllBaseTo",
			"outputs": [
				{
					"internalType": "uint256",
					"name": "",
					"type": "uint256"
				}
			],
			"stateMutability": "nonpayable",
			"type": "function"
		},
		{
			"inputs": [],
			"name": "withdrawAllQuote",
			"outputs": [
				{
					"internalType": "uint256",
					"name": "",
					"type": "uint256"
				}
			],
			"stateMutability": "nonpayable",
			"type": "function"
		},
		{
			"inputs": [
				{
					"internalType": "address",
					"name": "to",
					"type": "address"
				}
			],
			"name": "withdrawAllQuoteTo",
			"outputs": [
				{
					"internalType": "uint256",
					"name": "",
					"type": "uint256"
				}
			],
			"stateMutability": "nonpayable",
			"type": "function"
		},
		{
			"inputs": [
				{
					"internalType": "uint256",
					"name": "amount",
					"type": "uint256"
				}
			],
			"name": "withdrawBase",
			"outputs": [
				{
					"internalType": "uint256",
					"name": "",
					"type": "uint256"
				}
			],
			"stateMutability": "nonpayable",
			"type": "function"
		},
		{
			"inputs": [
				{
					"internalType": "address",
					"name": "to",
					"type": "address"
				},
				{
					"internalType": "uint256",
					"name": "amount",
					"type": "uint256"
				}
			],
			"name": "withdrawBaseTo",
			"outputs": [
				{
					"internalType": "uint256",
					"name": "",
					"type": "uint256"
				}
			],
			"stateMutability": "nonpayable",
			"type": "function"
		},
		{
			"inputs": [
				{
					"internalType": "uint256",
					"name": "amount",
					"type": "uint256"
				}
			],
			"name": "withdrawQuote",
			"outputs": [
				{
					"internalType": "uint256",
					"name": "",
					"type": "uint256"
				}
			],
			"stateMutability": "nonpayable",
			"type": "function"
		},
		{
			"inputs": [
				{
					"internalType": "address",
					"name": "to",
					"type": "address"
				},
				{
					"internalType": "uint256",
					"name": "amount",
					"type": "uint256"
				}
			],
			"name": "withdrawQuoteTo",
			"outputs": [
				{
					"internalType": "uint256",
					"name": "",
					"type": "uint256"
				}
			],
			"stateMutability": "nonpayable",
			"type": "function"
		}
	]
}