{
	"data": {
		"bytecode": {
			"linkReferences": {},
			"object": "610638610026600b82828239805160001a60731461001957fe5b30600052607381538281f3fe730000000000000000000000000000000000000000301460806040526004361061004b5760003560e01c8063338dbf3314610050578063dc065bc914610079578063f5524c3e1461008c575b600080fd5b61006361005e3660046104e2565b61009f565b60405161007091906105f9565b60405180910390f35b6100636100873660046104b7565b610233565b61006361009a36600461052e565b6102bd565b6000806100cc866100c0896100b4878c61032d565b9063ffffffff61035416565b9063ffffffff61039e16565b905060006100ec6100e6620f42408663ffffffff6103c816565b8861032d565b90506001851561010d57610106828863ffffffff6103f016565b9150610120565b61011d838863ffffffff6103f016565b92505b82821061014257610137828463ffffffff6103c816565b915060019050610159565b610152838363ffffffff6103c816565b9150600090505b600061018961017660046100b4620f42408a63ffffffff6103c816565b6101848c6100b48a8f61032d565b61032d565b90506101b36101ae826101a2868063ffffffff61035416565b9063ffffffff6103f016565b610415565b905060006101cf60026100b4620f42408a63ffffffff6103c816565b9050600083156101f0576101e9858463ffffffff6103f016565b9050610203565b610200838663ffffffff6103c816565b90505b881561022057610213818361044c565b965050505050505061022a565b6102138183610465565b95945050505050565b60008061024e61024860046100b4878761032d565b86610465565b905061026a6101ae620f42406100b4848263ffffffff6103f016565b9050600061029a61028483620f424063ffffffff6103c816565b61029587600263ffffffff61035416565b610465565b90506102b386610184620f42408463ffffffff6103f016565b9695505050505050565b6000806102d484610184888863ffffffff6103c816565b905060006102f56102ef886100c08b8063ffffffff61035416565b87610465565b90506000610303858361032d565b905061032083610184836101a2620f42408a63ffffffff6103c816565b9998505050505050505050565b6000620f4240610343848463ffffffff61035416565b8161034a57fe5b0490505b92915050565b6000826103635750600061034e565b8282028284828161037057fe5b04146103975760405162461bcd60e51b815260040161038e906105d6565b60405180910390fd5b9392505050565b60008082116103bf5760405162461bcd60e51b815260040161038e90610568565b81838161034a57fe5b6000828211156103ea5760405162461bcd60e51b815260040161038e90610590565b50900390565b6000828201838110156103975760405162461bcd60e51b815260040161038e906105b3565b80600160028204015b818110156104465780915060028182858161043557fe5b04018161043e57fe5b04905061041e565b50919050565b6000610397826100c085620f424063ffffffff61035416565b60006103978261047e85620f424063ffffffff61035416565b9063ffffffff61048a16565b600080610497848461039e565b9050828102840380156104af5750600101905061034e565b50905061034e565b6000806000606084860312156104cb578283fd5b505081359360208301359350604090920135919050565b600080600080600060a086880312156104f9578081fd5b8535945060208601359350604086013592506060860135801515811461051d578182fd5b949793965091946080013592915050565b600080600080600060a08688031215610545578081fd5b505083359560208501359550604085013594606081013594506080013592509050565b6020808252600e908201526d2224ab24a224a723afa2a92927a960911b604082015260600190565b60208082526009908201526829aaa12fa2a92927a960b91b604082015260600190565b60208082526009908201526820a2222fa2a92927a960b91b604082015260600190565b60208082526009908201526826aaa62fa2a92927a960b91b604082015260600190565b9081526020019056fea264697066735822122073699080e21f01806fd0428fc5c6340ed7f655661fffe8250be40e7d6f552a5b64736f6c63430006090033",
			"opcodes": "PUSH2 0x638 PUSH2 0x26 PUSH1 0xB DUP3 DUP3 DUP3 CODECOPY DUP1 MLOAD PUSH1 0x0 BYTE PUSH1 0x73 EQ PUSH2 0x19 JUMPI INVALID JUMPDEST ADDRESS PUSH1 0x0 MSTORE PUSH1 0x73 DUP2 MSTORE8 DUP3 DUP2 RETURN INVALID PUSH20 0x0 ADDRESS EQ PUSH1 0x80 PUSH1 0x40 MSTORE PUSH1 0x4 CALLDATASIZE LT PUSH2 0x4B JUMPI PUSH1 0x0 CALLDATALOAD PUSH1 0xE0 SHR DUP1 PUSH4 0x338DBF33 EQ PUSH2 0x50 JUMPI DUP1 PUSH4 0xDC065BC9 EQ PUSH2 0x79 JUMPI DUP1 PUSH4 0xF5524C3E EQ PUSH2 0x8C JUMPI JUMPDEST PUSH1 0x0 DUP1 REVERT JUMPDEST PUSH2 0x63 PUSH2 0x5E CALLDATASIZE PUSH1 0x4 PUSH2 0x4E2 JUMP JUMPDEST PUSH2 0x9F JUMP JUMPDEST PUSH1 0x40 MLOAD PUSH2 0x70 SWAP2 SWAP1 PUSH2 0x5F9 JUMP JUMPDEST PUSH1 0x40 MLOAD DUP1 SWAP2 SUB SWAP1 RETURN JUMPDEST PUSH2 0x63 PUSH2 0x87 CALLDATASIZE PUSH1 0x4 PUSH2 0x4B7 JUMP JUMPDEST PUSH2 0x233 JUMP JUMPDEST PUSH2 0x63 PUSH2 0x9A CALLDATASIZE PUSH1 0x4 PUSH2 0x52E JUMP JUMPDEST PUSH2 0x2BD JUMP JUMPDEST PUSH1 0x0 DUP1 PUSH2 0xCC DUP7 PUSH2 0xC0 DUP10 PUSH2 0xB4 DUP8 DUP13 PUSH2 0x32D JUMP JUMPDEST SWAP1 PUSH4 0xFFFFFFFF PUSH2 0x354 AND JUMP JUMPDEST SWAP1 PUSH4 0xFFFFFFFF PUSH2 0x39E AND JUMP JUMPDEST SWAP1 POP PUSH1 0x0 PUSH2 0xEC PUSH2 0xE6 PUSH3 0xF4240 DUP7 PUSH4 0xFFFFFFFF PUSH2 0x3C8 AND JUMP JUMPDEST DUP9 PUSH2 0x32D JUMP JUMPDEST SWAP1 POP PUSH1 0x1 DUP6 ISZERO PUSH2 0x10D JUMPI PUSH2 0x106 DUP3 DUP9 PUSH4 0xFFFFFFFF PUSH2 0x3F0 AND JUMP JUMPDEST SWAP2 POP PUSH2 0x120 JUMP JUMPDEST PUSH2 0x11D DUP4 DUP9 PUSH4 0xFFFFFFFF PUSH2 0x3F0 AND JUMP JUMPDEST SWAP3 POP JUMPDEST DUP3 DUP3 LT PUSH2 0x142 JUMPI PUSH2 0x137 DUP3 DUP5 PUSH4 0xFFFFFFFF PUSH2 0x3C8 AND JUMP JUMPDEST SWAP2 POP PUSH1 0x1 SWAP1 POP PUSH2 0x159 JUMP JUMPDEST PUSH2 0x152 DUP4 DUP4 PUSH4 0xFFFFFFFF PUSH2 0x3C8 AND JUMP JUMPDEST SWAP2 POP PUSH1 0x0 SWAP1 POP JUMPDEST PUSH1 0x0 PUSH2 0x189 PUSH2 0x176 PUSH1 0x4 PUSH2 0xB4 PUSH3 0xF4240 DUP11 PUSH4 0xFFFFFFFF PUSH2 0x3C8 AND JUMP JUMPDEST PUSH2 0x184 DUP13 PUSH2 0xB4 DUP11 DUP16 PUSH2 0x32D JUMP JUMPDEST PUSH2 0x32D JUMP JUMPDEST SWAP1 POP PUSH2 0x1B3 PUSH2 0x1AE DUP3 PUSH2 0x1A2 DUP7 DUP1 PUSH4 0xFFFFFFFF PUSH2 0x354 AND JUMP JUMPDEST SWAP1 PUSH4 0xFFFFFFFF PUSH2 0x3F0 AND JUMP JUMPDEST PUSH2 0x415 JUMP JUMPDEST SWAP1 POP PUSH1 0x0 PUSH2 0x1CF PUSH1 0x2 PUSH2 0xB4 PUSH3 0xF4240 DUP11 PUSH4 0xFFFFFFFF PUSH2 0x3C8 AND JUMP JUMPDEST SWAP1 POP PUSH1 0x0 DUP4 ISZERO PUSH2 0x1F0 JUMPI PUSH2 0x1E9 DUP6 DUP5 PUSH4 0xFFFFFFFF PUSH2 0x3F0 AND JUMP JUMPDEST SWAP1 POP PUSH2 0x203 JUMP JUMPDEST PUSH2 0x200 DUP4 DUP7 PUSH4 0xFFFFFFFF PUSH2 0x3C8 AND JUMP JUMPDEST SWAP1 POP JUMPDEST DUP9 ISZERO PUSH2 0x220 JUMPI PUSH2 0x213 DUP2 DUP4 PUSH2 0x44C JUMP JUMPDEST SWAP7 POP POP POP POP POP POP POP PUSH2 0x22A JUMP JUMPDEST PUSH2 0x213 DUP2 DUP4 PUSH2 0x465 JUMP JUMPDEST SWAP6 SWAP5 POP POP POP POP POP JUMP JUMPDEST PUSH1 0x0 DUP1 PUSH2 0x24E PUSH2 0x248 PUSH1 0x4 PUSH2 0xB4 DUP8 DUP8 PUSH2 0x32D JUMP JUMPDEST DUP7 PUSH2 0x465 JUMP JUMPDEST SWAP1 POP PUSH2 0x26A PUSH2 0x1AE PUSH3 0xF4240 PUSH2 0xB4 DUP5 DUP3 PUSH4 0xFFFFFFFF PUSH2 0x3F0 AND JUMP JUMPDEST SWAP1 POP PUSH1 0x0 PUSH2 0x29A PUSH2 0x284 DUP4 PUSH3 0xF4240 PUSH4 0xFFFFFFFF PUSH2 0x3C8 AND JUMP JUMPDEST PUSH2 0x295 DUP8 PUSH1 0x2 PUSH4 0xFFFFFFFF PUSH2 0x354 AND JUMP JUMPDEST PUSH2 0x465 JUMP JUMPDEST SWAP1 POP PUSH2 0x2B3 DUP7 PUSH2 0x184 PUSH3 0xF4240 DUP5 PUSH4 0xFFFFFFFF PUSH2 0x3F0 AND JUMP JUMPDEST SWAP7 SWAP6 POP POP POP POP POP POP JUMP JUMPDEST PUSH1 0x0 DUP1 PUSH2 0x2D4 DUP5 PUSH2 0x184 DUP9 DUP9 PUSH4 0xFFFFFFFF PUSH2 0x3C8 AND JUMP JUMPDEST SWAP1 POP PUSH1 0x0 PUSH2 0x2F5 PUSH2 0x2EF DUP9 PUSH2 0xC0 DUP12 DUP1 PUSH4 0xFFFFFFFF PUSH2 0x354 AND JUMP JUMPDEST DUP8 PUSH2 0x465 JUMP JUMPDEST SWAP1 POP PUSH1 0x0 PUSH2 0x303 DUP6 DUP4 PUSH2 0x32D JUMP JUMPDEST SWAP1 POP PUSH2 0x320 DUP4 PUSH2 0x184 DUP4 PUSH2 0x1A2 PUSH3 0xF4240 DUP11 PUSH4 0xFFFFFFFF PUSH2 0x3C8 AND JUMP JUMPDEST SWAP10 SWAP9 POP POP POP POP POP POP POP POP POP JUMP JUMPDEST PUSH1 0x0 PUSH3 0xF4240 PUSH2 0x343 DUP5 DUP5 PUSH4 0xFFFFFFFF PUSH2 0x354 AND JUMP JUMPDEST DUP2 PUSH2 0x34A JUMPI INVALID JUMPDEST DIV SWAP1 POP JUMPDEST SWAP3 SWAP2 POP POP JUMP JUMPDEST PUSH1 0x0 DUP3 PUSH2 0x363 JUMPI POP PUSH1 0x0 PUSH2 0x34E JUMP JUMPDEST DUP3 DUP3 MUL DUP3 DUP5 DUP3 DUP2 PUSH2 0x370 JUMPI INVALID JUMPDEST DIV EQ PUSH2 0x397 JUMPI PUSH1 0x40 MLOAD PUSH3 0x461BCD PUSH1 0xE5 SHL DUP2 MSTORE PUSH1 0x4 ADD PUSH2 0x38E SWAP1 PUSH2 0x5D6 JUMP JUMPDEST PUSH1 0x40 MLOAD DUP1 SWAP2 SUB SWAP1 REVERT JUMPDEST SWAP4 SWAP3 POP POP POP JUMP JUMPDEST PUSH1 0x0 DUP1 DUP3 GT PUSH2 0x3BF JUMPI PUSH1 0x40 MLOAD PUSH3 0x461BCD PUSH1 0xE5 SHL DUP2 MSTORE PUSH1 0x4 ADD PUSH2 0x38E SWAP1 PUSH2 0x568 JUMP JUMPDEST DUP2 DUP4 DUP2 PUSH2 0x34A JUMPI INVALID JUMPDEST PUSH1 0x0 DUP3 DUP3 GT ISZERO PUSH2 0x3EA JUMPI PUSH1 0x40 MLOAD PUSH3 0x461BCD PUSH1 0xE5 SHL DUP2 MSTORE PUSH1 0x4 ADD PUSH2 0x38E SWAP1 PUSH2 0x590 JUMP JUMPDEST POP SWAP1 SUB SWAP1 JUMP JUMPDEST PUSH1 0x0 DUP3 DUP3 ADD DUP4 DUP2 LT ISZERO PUSH2 0x397 JUMPI PUSH1 0x40 MLOAD PUSH3 0x461BCD PUSH1 0xE5 SHL DUP2 MSTORE PUSH1 0x4 ADD PUSH2 0x38E SWAP1 PUSH2 0x5B3 JUMP JUMPDEST DUP1 PUSH1 0x1 PUSH1 0x2 DUP3 DIV ADD JUMPDEST DUP2 DUP2 LT ISZERO PUSH2 0x446 JUMPI DUP1 SWAP2 POP PUSH1 0x2 DUP2 DUP3 DUP6 DUP2 PUSH2 0x435 JUMPI INVALID JUMPDEST DIV ADD DUP2 PUSH2 0x43E JUMPI INVALID JUMPDEST DIV SWAP1 POP PUSH2 0x41E JUMP JUMPDEST POP SWAP2 SWAP1 POP JUMP JUMPDEST PUSH1 0x0 PUSH2 0x397 DUP3 PUSH2 0xC0 DUP6 PUSH3 0xF4240 PUSH4 0xFFFFFFFF PUSH2 0x354 AND JUMP JUMPDEST PUSH1 0x0 PUSH2 0x397 DUP3 PUSH2 0x47E DUP6 PUSH3 0xF4240 PUSH4 0xFFFFFFFF PUSH2 0x354 AND JUMP JUMPDEST SWAP1 PUSH4 0xFFFFFFFF PUSH2 0x48A AND JUMP JUMPDEST PUSH1 0x0 DUP1 PUSH2 0x497 DUP5 DUP5 PUSH2 0x39E JUMP JUMPDEST SWAP1 POP DUP3 DUP2 MUL DUP5 SUB DUP1 ISZERO PUSH2 0x4AF JUMPI POP PUSH1 0x1 ADD SWAP1 POP PUSH2 0x34E JUMP JUMPDEST POP SWAP1 POP PUSH2 0x34E JUMP JUMPDEST PUSH1 0x0 DUP1 PUSH1 0x0 PUSH1 0x60 DUP5 DUP7 SUB SLT ISZERO PUSH2 0x4CB JUMPI DUP3 DUP4 REVERT JUMPDEST POP POP DUP2 CALLDATALOAD SWAP4 PUSH1 0x20 DUP4 ADD CALLDATALOAD SWAP4 POP PUSH1 0x40 SWAP1 SWAP3 ADD CALLDATALOAD SWAP2 SWAP1 POP JUMP JUMPDEST PUSH1 0x0 DUP1 PUSH1 0x0 DUP1 PUSH1 0x0 PUSH1 0xA0 DUP7 DUP9 SUB SLT ISZERO PUSH2 0x4F9 JUMPI DUP1 DUP2 REVERT JUMPDEST DUP6 CALLDATALOAD SWAP5 POP PUSH1 0x20 DUP7 ADD CALLDATALOAD SWAP4 POP PUSH1 0x40 DUP7 ADD CALLDATALOAD SWAP3 POP PUSH1 0x60 DUP7 ADD CALLDATALOAD DUP1 ISZERO ISZERO DUP2 EQ PUSH2 0x51D JUMPI DUP2 DUP3 REVERT JUMPDEST SWAP5 SWAP8 SWAP4 SWAP7 POP SWAP2 SWAP5 PUSH1 0x80 ADD CALLDATALOAD SWAP3 SWAP2 POP POP JUMP JUMPDEST PUSH1 0x0 DUP1 PUSH1 0x0 DUP1 PUSH1 0x0 PUSH1 0xA0 DUP7 DUP9 SUB SLT ISZERO PUSH2 0x545 JUMPI DUP1 DUP2 REVERT JUMPDEST POP POP DUP4 CALLDATALOAD SWAP6 PUSH1 0x20 DUP6 ADD CALLDATALOAD SWAP6 POP PUSH1 0x40 DUP6 ADD CALLDATALOAD SWAP5 PUSH1 0x60 DUP2 ADD CALLDATALOAD SWAP5 POP PUSH1 0x80 ADD CALLDATALOAD SWAP3 POP SWAP1 POP JUMP JUMPDEST PUSH1 0x20 DUP1 DUP3 MSTORE PUSH1 0xE SWAP1 DUP3 ADD MSTORE PUSH14 0x2224AB24A224A723AFA2A92927A9 PUSH1 0x91 SHL PUSH1 0x40 DUP3 ADD MSTORE PUSH1 0x60 ADD SWAP1 JUMP JUMPDEST PUSH1 0x20 DUP1 DUP3 MSTORE PUSH1 0x9 SWAP1 DUP3 ADD MSTORE PUSH9 0x29AAA12FA2A92927A9 PUSH1 0xB9 SHL PUSH1 0x40 DUP3 ADD MSTORE PUSH1 0x60 ADD SWAP1 JUMP JUMPDEST PUSH1 0x20 DUP1 DUP3 MSTORE PUSH1 0x9 SWAP1 DUP3 ADD MSTORE PUSH9 0x20A2222FA2A92927A9 PUSH1 0xB9 SHL PUSH1 0x40 DUP3 ADD MSTORE PUSH1 0x60 ADD SWAP1 JUMP JUMPDEST PUSH1 0x20 DUP1 DUP3 MSTORE PUSH1 0x9 SWAP1 DUP3 ADD MSTORE PUSH9 0x26AAA62FA2A92927A9 PUSH1 0xB9 SHL PUSH1 0x40 DUP3 ADD MSTORE PUSH1 0x60 ADD SWAP1 JUMP JUMPDEST SWAP1 DUP2 MSTORE PUSH1 0x20 ADD SWAP1 JUMP INVALID LOG2 PUSH5 0x6970667358 0x22 SLT KECCAK256 PUSH20 0x699080E21F01806FD0428FC5C6340ED7F655661F SELFDESTRUCT 0xE8 0x25 SIGNEXTEND 0xE4 0xE PUSH30 0x6F552A5B64736F6C63430006090033000000000000000000000000000000 "
		},
		"gasEstimates": {
			"creation": {
				"codeDepositCost": "318400",
				"executionCost": "384",
				"totalCost": "318784"
			},
			"external": {
				"_GeneralIntegrate(uint256,uint256,uint256,uint256,uint256)": "infinite",
				"_SolveQuadraticFunctionForTarget(uint256,uint256,uint256)": "infinite",
				"_SolveQuadraticFunctionForTrade(uint256,uint256,uint256,bool,uint256)": "infinite"
			}
		},
		"methodIdentifiers": {
			"_GeneralIntegrate(uint256,uint256,uint256,uint256,uint256)": "f5524c3e",
			"_SolveQuadraticFunctionForTarget(uint256,uint256,uint256)": "dc065bc9",
			"_SolveQuadraticFunctionForTrade(uint256,uint256,uint256,bool,uint256)": "338dbf33"
		}
	},
	"abi": [
		{
			"inputs": [
				{
					"internalType": "uint256",
					"name": "V0",
					"type": "uint256"
				},
				{
					"internalType": "uint256",
					"name": "V1",
					"type": "uint256"
				},
				{
					"internalType": "uint256",
					"name": "V2",
					"type": "uint256"
				},
				{
					"internalType": "uint256",
					"name": "i",
					"type": "uint256"
				},
				{
					"internalType": "uint256",
					"name": "k",
					"type": "uint256"
				}
			],
			"name": "_GeneralIntegrate",
			"outputs": [
				{
					"internalType": "uint256",
					"name": "",
					"type": "uint256"
				}
			],
			"stateMutability": "pure",
			"type": "function"
		},
		{
			"inputs": [
				{
					"internalType": "uint256",
					"name": "V1",
					"type": "uint256"
				},
				{
					"internalType": "uint256",
					"name": "k",
					"type": "uint256"
				},
				{
					"internalType": "uint256",
					"name": "fairAmount",
					"type": "uint256"
				}
			],
			"name": "_SolveQuadraticFunctionForTarget",
			"outputs": [
				{
					"internalType": "uint256",
					"name": "V0",
					"type": "uint256"
				}
			],
			"stateMutability": "pure",
			"type": "function"
		},
		{
			"inputs": [
				{
					"internalType": "uint256",
					"name": "Q0",
					"type": "uint256"
				},
				{
					"internalType": "uint256",
					"name": "Q1",
					"type": "uint256"
				},
				{
					"internalType": "uint256",
					"name": "ideltaB",
					"type": "uint256"
				},
				{
					"internalType": "bool",
					"name": "deltaBSig",
					"type": "bool"
				},
				{
					"internalType": "uint256",
					"name": "k",
					"type": "uint256"
				}
			],
			"name": "_SolveQuadraticFunctionForTrade",
			"outputs": [
				{
					"internalType": "uint256",
					"name": "",
					"type": "uint256"
				}
			],
			"stateMutability": "pure",
			"type": "function"
		}
	]
}