{
	"data": {
		"bytecode": {
			"linkReferences": {},
			"object": "6080604052600960065560f06007553480156200001b57600080fd5b50604051620029a4380380620029a48339810160408190526200003e9162000348565b60006200004a62000276565b600a80546001600160a01b0319166001600160a01b038316908117909155604051919250906000907f8be0079c531659141344cd1fd0a4f28419497f9722a3daafe3b4186f6b6457e0908290a35060008511620000c45760405162461bcd60e51b8152600401620000bb9062000426565b60405180910390fd5b6001600160a01b038316620000ed5760405162461bcd60e51b8152600401620000bb9062000529565b6001600160a01b038616620001165760405162461bcd60e51b8152600401620000bb906200045d565b81620001365760405162461bcd60e51b8152600401620000bb90620004a2565b600b80546001600160a01b0319166001600160a01b03881617905560068590556001600c60006200016662000276565b6001600160a01b03908116825260208083019390935260409182016000908120805460ff191695151595909517909455600980546001600160a01b03199081168a84161790915584541687821617909355600b54815163d5abeb0160e01b8152915162000262946064946200024e94600a949092169263d5abeb01926004808201939291829003018186803b158015620001ff57600080fd5b505afa15801562000214573d6000803e3d6000fd5b505050506040513d601f19601f820116820180604052508101906200023a9190620003b7565b6200027a60201b6200186c1790919060201c565b620002c360201b620018a61790919060201c565b600455600355600155506200057992505050565b3390565b6000826200028b57506000620002bd565b828202828482816200029957fe5b0414620002ba5760405162461bcd60e51b8152600401620000bb90620004e8565b90505b92915050565b6000620002ba83836040518060400160405280601a81526020017f536166654d6174683a206469766973696f6e206279207a65726f0000000000008152506200030d60201b60201c565b60008183620003315760405162461bcd60e51b8152600401620000bb9190620003d0565b5060008385816200033e57fe5b0495945050505050565b60008060008060008060c0878903121562000361578182fd5b86516200036e8162000560565b602088015160408901519197509550620003888162000560565b60608801519094506200039b8162000560565b809350506080870151915060a087015190509295509295509295565b600060208284031215620003c9578081fd5b5051919050565b6000602080835283518082850152825b81811015620003fe57858101830151858201604001528201620003e0565b81811115620004105783604083870101525b50601f01601f1916929092016040019392505050565b6020808252601f908201527f4177617264436f6e74726163743a2074617845706f636820696e76616c696400604082015260600190565b60208082526025908201527f4177617264436f6e74726163743a20706c6174666f726d20746f6b656e20696e6040820152641d985b1a5960da1b606082015260800190565b60208082526026908201527f4177617264436f6e74726163743a2064657620737461727420626c6f636b20696040820152651b9d985b1a5960d21b606082015260800190565b60208082526021908201527f536166654d6174683a206d756c7469706c69636174696f6e206f766572666c6f6040820152607760f81b606082015260800190565b6020808252601a908201527f4177617264436f6e74726163743a2064657620696e76616c6964000000000000604082015260600190565b6001600160a01b03811681146200057657600080fd5b50565b61241b80620005896000396000f3fe608060405234801561001057600080fd5b50600436106101da5760003560e01c806391cca3db11610104578063d2b0f13e116100a2578063f14d13c411610071578063f14d13c414610382578063f2fde38b14610395578063fa803b51146103a8578063fbb29cfd146103bb576101da565b8063d2b0f13e14610334578063db281e1b1461033c578063e3eece261461034f578063eecdac881461036f576101da565b8063a076e7db116100de578063a076e7db14610314578063ad56ca421461031c578063aef018b114610324578063d1b812cd1461032c576101da565b806391cca3db146102f1578063961c34fe146102f95780639d11877014610301576101da565b806358f57f4d1161017c578063715018a61161014b578063715018a6146102bb5780637336991d146102c35780638b76ba64146102d65780638da5cb5b146102e9576101da565b806358f57f4d1461027657806359cd09381461027e57806361d027b3146102865780636f89b1a41461029b576101da565b80631b255e18116101b85780631b255e18146102285780632e1a7d4d1461023b5780633c4a25d01461025057806345decd1e14610263576101da565b806303aafa25146101df5780630f6104fc146101fd5780631959a00214610205575b600080fd5b6101e76103ce565b6040516101f4919061230d565b60405180910390f35b6101e761044b565b610218610213366004611db8565b610451565b6040516101f49493929190612316565b6101e7610236366004611edf565b61047b565b61024e610249366004611edf565b610705565b005b61024e61025e366004611db8565b6109d1565b61024e610271366004611dfd565b610a2a565b61024e610ad9565b6101e7610bbe565b61028e610bc4565b6040516101f49190611f0f565b6102ae6102a9366004611dd3565b610bd3565b6040516101f491906122f6565b61024e610c38565b61024e6102d1366004611dd3565b610cb7565b61024e6102e4366004611dd3565b610d73565b61028e610e1d565b61028e610e2c565b6101e7610e3b565b61024e61030f366004611edf565b610e41565b6101e7610ed5565b6101e7610edb565b6101e7610ee1565b61028e610ee7565b6101e7610ef6565b6101e761034a366004611db8565b610efc565b61036261035d366004611db8565b61103b565b6040516101f49190611f5d565b61024e61037d366004611db8565b611050565b6101e7610390366004611db8565b6110a6565b61024e6103a3366004611db8565b611204565b61024e6103b6366004611dd3565b6112bb565b6101e76103c9366004611db8565b61163d565b600060015443116103e157506000610448565b6000699dc287eab4d4dfa0000090506000610419670214e8348c4f0000610413600154436118e890919063ffffffff16565b9061186c565b90508181111561043a576005546104319083906118e8565b92505050610448565b6005546104319082906118e8565b90565b60035481565b60086020526000908152604090208054600182015460028301546003909301549192909160ff1684565b60008061048661192a565b90506000610492611ce8565b336000908152600860209081526040808320815160a08101835281548152600182015481850152600282015481840152600382015460ff1615156060820152600482018054845181870281018701909552808552919592946080870194939192919084015b8282101561053d578382906000526020600020906002020160405180604001604052908160008201548152602001600182015481525050815260200190600101906104f7565b505050915250508051909150851161055b5760009350505050610700565b8051839060009061056d9088906118e8565b602084015160065491925090600090610587906001611946565b90505b8460600151156106cf5761059c611d19565b856080015183815181106105ac57fe5b6020026020010151905060006105ed836105e764e8d4a5100061041360016105e188600001518d6118e890919063ffffffff16565b90611946565b906118a6565b905064e8d4a51000811115610604575064e8d4a510005b600061062664e8d4a510006105e784866020015161186c90919063ffffffff16565b9050858110610669576000610644836105e78964e8d4a5100061186c565b905061065a61065382896118e8565b8b90611946565b995060009650505050506106cf565b61067386826118e8565b955061069661068f8285602001516118e890919063ffffffff16565b8a90611946565b6006549099506106b1906106ab876001611946565b9061196b565b945087604001518514156106c7575050506106cf565b50505061058a565b82156106f65760405162461bcd60e51b81526004016106ed906121ac565b60405180910390fd5b5093955050505050505b919050565b600061070f61192a565b3360009081526008602052604081209192509061072c81846119ad565b8054841161074757805461074090856118e8565b815561096d565b80546000906107579086906118e8565b60008084556001808501546006549394509261077291611946565b90505b600384015460ff16156108f85760006107c0826105e764e8d4a5100061041360016105e18b6004018a815481106107a857fe5b60009182526020909120600290910201548e906118e8565b9050600061080064e8d4a510006105e7848960040188815481106107e057fe5b90600052602060002090600202016001015461186c90919063ffffffff16565b905084811061089857600061081e836105e78864e8d4a5100061186c565b90506108538188600401878154811061083357fe5b9060005260206000209060020201600101546118e890919063ffffffff16565b87600401868154811061086257fe5b600091825260209091206001600290920201015561088a61088382886118e8565b8990611946565b9750600095505050506108f8565b6108a285826118e8565b94506108c16108ba8288600401878154811061083357fe5b8890611946565b6006549097506108d6906106ab866001611946565b935085600201548414156108f15760038601805460ff191690555b5050610775565b60018401829055821561091d5760405162461bcd60e51b81526004016106ed906121ac565b60095460408051808201909152601e81527f4177617264436f6e74726163743a206c65767920746178206661696c656400006020820152610969916001600160a01b0316908790611a75565b5050505b61099033856040518060600160405280602281526020016123c460229139611a75565b7ff279e6a1f5e320cca91135676d9cb6e44ca8a08c0b88342bcdb1144f6511b5683385846040516109c393929190611f23565b60405180910390a150505050565b6109d9611c4d565b600a546001600160a01b03908116911614610a065760405162461bcd60e51b81526004016106ed9061212e565b6001600160a01b03166000908152600c60205260409020805460ff19166001179055565b600c6000610a36611c4d565b6001600160a01b0316815260208101919091526040016000205460ff16610a6f5760405162461bcd60e51b81526004016106ed90612163565b8051825114610a905760405162461bcd60e51b81526004016106ed9061206f565b60005b8251811015610ad457610acc838281518110610aab57fe5b6020026020010151838381518110610abf57fe5b60200260200101516112bb565b600101610a93565b505050565b6000546001600160a01b03163314610b035760405162461bcd60e51b81526004016106ed90612226565b60045460025410610b265760405162461bcd60e51b81526004016106ed906122a5565b6000610b43600354610413600154436118e890919063ffffffff16565b90506000610b5c600254836118e890919063ffffffff16565b9050600454821115610b7a57600254600454610b77916118e8565b90505b60005460408051606081019091526026808252610baa926001600160a01b031691849161237b6020830139611a75565b600254610bb79082611946565b6002555050565b60075481565b6009546001600160a01b031681565b610bdb611d19565b6001600160a01b0383166000908152600860205260409020600401805483908110610c0257fe5b90600052602060002090600202016040518060400160405290816000820154815260200160018201548152505090505b92915050565b610c40611c4d565b600a546001600160a01b03908116911614610c6d5760405162461bcd60e51b81526004016106ed9061212e565b600a546040516000916001600160a01b0316907f8be0079c531659141344cd1fd0a4f28419497f9722a3daafe3b4186f6b6457e0908390a3600a80546001600160a01b0319169055565b6000546001600160a01b03163314610ce15760405162461bcd60e51b81526004016106ed906121ef565b6000546001600160a01b0383811691161415610d0f5760405162461bcd60e51b81526004016106ed90611fbb565b6000610d196103ce565b905080821115610d3b5760405162461bcd60e51b81526004016106ed90612270565b610d5e83836040518060600160405280602381526020016123a160239139611a75565b600554610d6b9083611946565b600555505050565b600c6000610d7f611c4d565b6001600160a01b0316815260208101919091526040016000205460ff16610db85760405162461bcd60e51b81526004016106ed90612163565b6001600160a01b03821660009081526008602052604090208054610ddc9083611946565b81556040517fb3d34aa6513790110f92a175d6dd74ad8c8a7b013c31d21cfbd8f875465afdbb90610e109085908590611f44565b60405180910390a1505050565b600a546001600160a01b031690565b6000546001600160a01b031681565b60025481565b600c6000610e4d611c4d565b6001600160a01b0316815260208101919091526040016000205460ff16610e865760405162461bcd60e51b81526004016106ed90612163565b60095460408051808201909152601e81527f4177617264436f6e74726163743a206c65767920746178206661696c656400006020820152610ed2916001600160a01b0316908390611a75565b50565b60045481565b60015481565b60065481565b600b546001600160a01b031681565b60055481565b6000610f06611ce8565b6001600160a01b0383166000908152600860209081526040808320815160a08101835281548152600182015481850152600282015481840152600382015460ff1615156060820152600482018054845181870281018701909552808552919592946080870194939192919084015b82821015610fba57838290600052602060002090600202016040518060400160405290816000820154815260200160018201548152505081526020019060010190610f74565b505050915250508051606082015191925090156110345760208201515b61100583608001518281518110610fea57fe5b6020026020010151602001518361194690919063ffffffff16565b60065490925061101a906106ab836001611946565b9050826040015181141561102d57611032565b610fd7565b505b9392505050565b600c6020526000908152604090205460ff1681565b611058611c4d565b600a546001600160a01b039081169116146110855760405162461bcd60e51b81526004016106ed9061212e565b6001600160a01b03166000908152600c60205260409020805460ff19169055565b6000806110bd6006546110b761192a565b906118e8565b90506110c7611ce8565b6001600160a01b0384166000908152600860209081526040808320815160a08101835281548152600182015481850152600282015481840152600382015460ff1615156060820152600482018054845181870281018701909552808552919592946080870194939192919084015b8282101561117b57838290600052602060002090600202016040518060400160405290816000820154815260200160018201548152505081526020019060010190611135565b505050915250508051606082015191925090156111fc5760208201515b83836080015182815181106111a957fe5b602002602001015160000151116111fa576111cd83608001518281518110610fea57fe5b6006549092506111e2906106ab836001611946565b905082604001518114156111f5576111fa565b611198565b505b949350505050565b61120c611c4d565b600a546001600160a01b039081169116146112395760405162461bcd60e51b81526004016106ed9061212e565b6001600160a01b03811661125f5760405162461bcd60e51b81526004016106ed90611ff2565b600a546040516001600160a01b038084169216907f8be0079c531659141344cd1fd0a4f28419497f9722a3daafe3b4186f6b6457e090600090a3600a80546001600160a01b0319166001600160a01b0392909216919091179055565b600c60006112c7611c4d565b6001600160a01b0316815260208101919091526040016000205460ff166113005760405162461bcd60e51b81526004016106ed90612163565b600061130a61192a565b6001600160a01b038416600090815260086020526040902060048101549192509061139057604080518082019091528281526020808201858152600484018054600181810183556000928352938220945160029182029095019485559151938301939093558184019290925590820181905560038201805460ff1916909117905561160c565b600381015460ff16156115375760008160020154600014156113bb57506004810154600019016113ce565b60028201546113cb9060016118e8565b90505b828260040182815481106113de57fe5b90600052602060002090600202016000015410611451576114288483600401838154811061140857fe5b90600052602060002090600202016001015461194690919063ffffffff16565b82600401828154811061143757fe5b906000526020600020906002020160010181905550611531565b600654600483015410156114a05760408051808201909152838152602080820186815260048501805460018181018355600092835293909120935160029091029093019283555191015561150d565b8160020154826001015414156114ba576114ba82846119ad565b82826004018360020154815481106114ce57fe5b90600052602060002090600202016000018190555083826004018360020154815481106114f757fe5b9060005260206000209060020201600101819055505b61152b6006546106ab6001856002015461194690919063ffffffff16565b60028301555b5061160c565b60065460048201541015611586576040805180820190915282815260208082018581526004840180546001818101835560009283529390912093516002909102909301928355519101556115d9565b818160040182600201548154811061159a57fe5b90600052602060002090600202016000018190555082816004018260020154815481106115c357fe5b9060005260206000209060020201600101819055505b6115f76006546106ab6001846002015461194690919063ffffffff16565b600282015560038101805460ff191660011790555b7fd185e4940a36e5f27549de4c89ab5d6d8ba2bbf01c48b4df813c0e73b123cbab84846040516109c3929190611f44565b60008061164861192a565b90506000611661600654836118e890919063ffffffff16565b905061166b611ce8565b6001600160a01b0385166000908152600860209081526040808320815160a08101835281548152600182015481850152600282015481840152600382015460ff1615156060820152600482018054845181870281018701909552808552919592946080870194939192919084015b8282101561171f578382906000526020600020906002020160405180604001604052908160008201548152602001600182015481525050815260200190600101906116d9565b5050509152505080516060820151919250901561186357600654600090611747906001611946565b60208401519091505b848460800151828151811061176157fe5b60200260200101516000015111156118055760006117b5836105e764e8d4a5100061041360016105e18b60800151898151811061179a57fe5b6020026020010151600001518e6118e890919063ffffffff16565b905060006117f064e8d4a510006105e784896080015187815181106117d657fe5b60200260200101516020015161186c90919063ffffffff16565b90506117fc8582611946565b94505050611836565b6118338460800151828151811061181857fe5b6020026020010151602001518461194690919063ffffffff16565b92505b600654611848906106ab836001611946565b9050836040015181141561185b57611860565b611750565b50505b95945050505050565b60008261187b57506000610c32565b8282028284828161188857fe5b04146110345760405162461bcd60e51b81526004016106ed906120a6565b600061103483836040518060400160405280601a81526020017f536166654d6174683a206469766973696f6e206279207a65726f000000000000815250611c51565b600061103483836040518060400160405280601e81526020017f536166654d6174683a207375627472616374696f6e206f766572666c6f770000815250611c88565b6000611941600754426118a690919063ffffffff16565b905090565b6000828201838110156110345760405162461bcd60e51b81526004016106ed90612038565b600061103483836040518060400160405280601881526020017f536166654d6174683a206d6f64756c6f206279207a65726f0000000000000000815250611cb4565b60006119c4600654836118e890919063ffffffff16565b60018401549091505b600384015460ff168015611a015750818460040182815481106119ec57fe5b90600052602060002090600202016000015411155b15611a6857611a34846004018281548110611a1857fe5b6000918252602090912060016002909202010154855490611946565b8455600654611a48906106ab836001611946565b90508360020154811415611a635760038401805460ff191690555b6119cd565b6001909301929092555050565b8115610ad457600b60009054906101000a90046001600160a01b03166001600160a01b031663d5abeb016040518163ffffffff1660e01b815260040160206040518083038186803b158015611ac957600080fd5b505afa158015611add573d6000803e3d6000fd5b505050506040513d601f19601f82011682018060405250810190611b019190611ef7565b600b54604080516318160ddd60e01b81529051611b86926001600160a01b0316916318160ddd916004808301926020929190829003018186803b158015611b4757600080fd5b505afa158015611b5b573d6000803e3d6000fd5b505050506040513d601f19601f82011682018060405250810190611b7f9190611ef7565b8490611946565b1115611ba45760405162461bcd60e51b81526004016106ed906120e7565b600b5460405163219e412d60e21b81526001600160a01b039091169063867904b490611bd69086908690600401611f44565b602060405180830381600087803b158015611bf057600080fd5b505af1158015611c04573d6000803e3d6000fd5b505050506040513d601f19601f82011682018060405250810190611c289190611ebf565b8190611c475760405162461bcd60e51b81526004016106ed9190611f68565b50505050565b3390565b60008183611c725760405162461bcd60e51b81526004016106ed9190611f68565b506000838581611c7e57fe5b0495945050505050565b60008184841115611cac5760405162461bcd60e51b81526004016106ed9190611f68565b505050900390565b60008183611cd55760405162461bcd60e51b81526004016106ed9190611f68565b50828481611cdf57fe5b06949350505050565b6040518060a00160405280600081526020016000815260200160008152602001600015158152602001606081525090565b604051806040016040528060008152602001600081525090565b80356001600160a01b0381168114610c3257600080fd5b600082601f830112611d5a578081fd5b8135611d6d611d688261235a565b612333565b818152915060208083019084810181840286018201871015611d8e57600080fd5b60005b84811015611dad57813584529282019290820190600101611d91565b505050505092915050565b600060208284031215611dc9578081fd5b6110348383611d33565b60008060408385031215611de5578081fd5b611def8484611d33565b946020939093013593505050565b60008060408385031215611e0f578182fd5b823567ffffffffffffffff80821115611e26578384fd5b818501915085601f830112611e39578384fd5b8135611e47611d688261235a565b80828252602080830192508086018a828387028901011115611e67578889fd5b8896505b84871015611e9157611e7d8b82611d33565b845260019690960195928101928101611e6b565b509096508701359350505080821115611ea8578283fd5b50611eb585828601611d4a565b9150509250929050565b600060208284031215611ed0578081fd5b81518015158114611034578182fd5b600060208284031215611ef0578081fd5b5035919050565b600060208284031215611f08578081fd5b5051919050565b6001600160a01b0391909116815260200190565b6001600160a01b039390931683526020830191909152604082015260600190565b6001600160a01b03929092168252602082015260400190565b901515815260200190565b6000602080835283518082850152825b81811015611f9457858101830151858201604001528201611f78565b81811115611fa55783604083870101525b50601f01601f1916929092016040019392505050565b6020808252601c908201527f4177617264436f6e74726163743a2064657620736f2067726565647900000000604082015260600190565b60208082526026908201527f4f776e61626c653a206e6577206f776e657220697320746865207a65726f206160408201526564647265737360d01b606082015260800190565b6020808252601b908201527f536166654d6174683a206164646974696f6e206f766572666c6f770000000000604082015260600190565b6020808252601d908201527f4177617264436f6e74726163743a20706172616d7320696e76616c6964000000604082015260600190565b60208082526021908201527f536166654d6174683a206d756c7469706c69636174696f6e206f766572666c6f6040820152607760f81b606082015260800190565b60208082526027908201527f4177617264436f6e74726163743a206177617264732065786365656473206d6160408201526678537570706c7960c81b606082015260800190565b6020808252818101527f4f776e61626c653a2063616c6c6572206973206e6f7420746865206f776e6572604082015260600190565b60208082526029908201527f4177617264436f6e74726163743a2063616c6c6572206973206e6f74207468656040820152681033b7bb32b93737b960b91b606082015260800190565b60208082526023908201527f4177617264436f6e74726163743a20496e73756666696369656e742042616c616040820152626e636560e81b606082015260800190565b6020808252601b908201527f4177617264436f6e74726163743a20756e617574686f72697a65640000000000604082015260600190565b6020808252602a908201527f4177617264436f6e74726163743a206f6e6c79206465762063616e20726563656040820152696976652061776172647360b01b606082015260800190565b6020808252818101527f4177617264436f6e74726163743a20696e63656e746976657320657863656564604082015260600190565b60208082526031908201527f4177617264436f6e74726163743a206465762061776172647320657863656564604082015270081c195c9b5a5d1d195908185b5bdd5b9d607a1b606082015260800190565b815181526020918201519181019190915260400190565b90815260200190565b938452602084019290925260408301521515606082015260800190565b60405181810167ffffffffffffffff8111828210171561235257600080fd5b604052919050565b600067ffffffffffffffff821115612370578081fd5b506020908102019056fe4177617264436f6e74726163743a2064657620636c61696d20617761726473206661696c65644177617264436f6e74726163743a20636c61696d20696e63656e7469766573206572724177617264436f6e74726163743a20636c61696d20617761726473206661696c6564a2646970667358221220bb3efd7eceadc5de43fa5354bfa6cbe4c808bf8ec6c129b475623e45bb67fd3164736f6c634300060c0033",
			"opcodes": "PUSH1 0x80 PUSH1 0x40 MSTORE PUSH1 0x9 PUSH1 0x6 SSTORE PUSH1 0xF0 PUSH1 0x7 SSTORE CALLVALUE DUP1 ISZERO PUSH3 0x1B JUMPI PUSH1 0x0 DUP1 REVERT JUMPDEST POP PUSH1 0x40 MLOAD PUSH3 0x29A4 CODESIZE SUB DUP1 PUSH3 0x29A4 DUP4 CODECOPY DUP2 ADD PUSH1 0x40 DUP2 SWAP1 MSTORE PUSH3 0x3E SWAP2 PUSH3 0x348 JUMP JUMPDEST PUSH1 0x0 PUSH3 0x4A PUSH3 0x276 JUMP JUMPDEST PUSH1 0xA DUP1 SLOAD PUSH1 0x1 PUSH1 0x1 PUSH1 0xA0 SHL SUB NOT AND PUSH1 0x1 PUSH1 0x1 PUSH1 0xA0 SHL SUB DUP4 AND SWAP1 DUP2 OR SWAP1 SWAP2 SSTORE PUSH1 0x40 MLOAD SWAP2 SWAP3 POP SWAP1 PUSH1 0x0 SWAP1 PUSH32 0x8BE0079C531659141344CD1FD0A4F28419497F9722A3DAAFE3B4186F6B6457E0 SWAP1 DUP3 SWAP1 LOG3 POP PUSH1 0x0 DUP6 GT PUSH3 0xC4 JUMPI PUSH1 0x40 MLOAD PUSH3 0x461BCD PUSH1 0xE5 SHL DUP2 MSTORE PUSH1 0x4 ADD PUSH3 0xBB SWAP1 PUSH3 0x426 JUMP JUMPDEST PUSH1 0x40 MLOAD DUP1 SWAP2 SUB SWAP1 REVERT JUMPDEST PUSH1 0x1 PUSH1 0x1 PUSH1 0xA0 SHL SUB DUP4 AND PUSH3 0xED JUMPI PUSH1 0x40 MLOAD PUSH3 0x461BCD PUSH1 0xE5 SHL DUP2 MSTORE PUSH1 0x4 ADD PUSH3 0xBB SWAP1 PUSH3 0x529 JUMP JUMPDEST PUSH1 0x1 PUSH1 0x1 PUSH1 0xA0 SHL SUB DUP7 AND PUSH3 0x116 JUMPI PUSH1 0x40 MLOAD PUSH3 0x461BCD PUSH1 0xE5 SHL DUP2 MSTORE PUSH1 0x4 ADD PUSH3 0xBB SWAP1 PUSH3 0x45D JUMP JUMPDEST DUP2 PUSH3 0x136 JUMPI PUSH1 0x40 MLOAD PUSH3 0x461BCD PUSH1 0xE5 SHL DUP2 MSTORE PUSH1 0x4 ADD PUSH3 0xBB SWAP1 PUSH3 0x4A2 JUMP JUMPDEST PUSH1 0xB DUP1 SLOAD PUSH1 0x1 PUSH1 0x1 PUSH1 0xA0 SHL SUB NOT AND PUSH1 0x1 PUSH1 0x1 PUSH1 0xA0 SHL SUB DUP9 AND OR SWAP1 SSTORE PUSH1 0x6 DUP6 SWAP1 SSTORE PUSH1 0x1 PUSH1 0xC PUSH1 0x0 PUSH3 0x166 PUSH3 0x276 JUMP JUMPDEST PUSH1 0x1 PUSH1 0x1 PUSH1 0xA0 SHL SUB SWAP1 DUP2 AND DUP3 MSTORE PUSH1 0x20 DUP1 DUP4 ADD SWAP4 SWAP1 SWAP4 MSTORE PUSH1 0x40 SWAP2 DUP3 ADD PUSH1 0x0 SWAP1 DUP2 KECCAK256 DUP1 SLOAD PUSH1 0xFF NOT AND SWAP6 ISZERO ISZERO SWAP6 SWAP1 SWAP6 OR SWAP1 SWAP5 SSTORE PUSH1 0x9 DUP1 SLOAD PUSH1 0x1 PUSH1 0x1 PUSH1 0xA0 SHL SUB NOT SWAP1 DUP2 AND DUP11 DUP5 AND OR SWAP1 SWAP2 SSTORE DUP5 SLOAD AND DUP8 DUP3 AND OR SWAP1 SWAP4 SSTORE PUSH1 0xB SLOAD DUP2 MLOAD PUSH4 0xD5ABEB01 PUSH1 0xE0 SHL DUP2 MSTORE SWAP2 MLOAD PUSH3 0x262 SWAP5 PUSH1 0x64 SWAP5 PUSH3 0x24E SWAP5 PUSH1 0xA SWAP5 SWAP1 SWAP3 AND SWAP3 PUSH4 0xD5ABEB01 SWAP3 PUSH1 0x4 DUP1 DUP3 ADD SWAP4 SWAP3 SWAP2 DUP3 SWAP1 SUB ADD DUP2 DUP7 DUP1 EXTCODESIZE ISZERO DUP1 ISZERO PUSH3 0x1FF JUMPI PUSH1 0x0 DUP1 REVERT JUMPDEST POP GAS STATICCALL ISZERO DUP1 ISZERO PUSH3 0x214 JUMPI RETURNDATASIZE PUSH1 0x0 DUP1 RETURNDATACOPY RETURNDATASIZE PUSH1 0x0 REVERT JUMPDEST POP POP POP POP PUSH1 0x40 MLOAD RETURNDATASIZE PUSH1 0x1F NOT PUSH1 0x1F DUP3 ADD AND DUP3 ADD DUP1 PUSH1 0x40 MSTORE POP DUP2 ADD SWAP1 PUSH3 0x23A SWAP2 SWAP1 PUSH3 0x3B7 JUMP JUMPDEST PUSH3 0x27A PUSH1 0x20 SHL PUSH3 0x186C OR SWAP1 SWAP2 SWAP1 PUSH1 0x20 SHR JUMP JUMPDEST PUSH3 0x2C3 PUSH1 0x20 SHL PUSH3 0x18A6 OR SWAP1 SWAP2 SWAP1 PUSH1 0x20 SHR JUMP JUMPDEST PUSH1 0x4 SSTORE PUSH1 0x3 SSTORE PUSH1 0x1 SSTORE POP PUSH3 0x579 SWAP3 POP POP POP JUMP JUMPDEST CALLER SWAP1 JUMP JUMPDEST PUSH1 0x0 DUP3 PUSH3 0x28B JUMPI POP PUSH1 0x0 PUSH3 0x2BD JUMP JUMPDEST DUP3 DUP3 MUL DUP3 DUP5 DUP3 DUP2 PUSH3 0x299 JUMPI INVALID JUMPDEST DIV EQ PUSH3 0x2BA JUMPI PUSH1 0x40 MLOAD PUSH3 0x461BCD PUSH1 0xE5 SHL DUP2 MSTORE PUSH1 0x4 ADD PUSH3 0xBB SWAP1 PUSH3 0x4E8 JUMP JUMPDEST SWAP1 POP JUMPDEST SWAP3 SWAP2 POP POP JUMP JUMPDEST PUSH1 0x0 PUSH3 0x2BA DUP4 DUP4 PUSH1 0x40 MLOAD DUP1 PUSH1 0x40 ADD PUSH1 0x40 MSTORE DUP1 PUSH1 0x1A DUP2 MSTORE PUSH1 0x20 ADD PUSH32 0x536166654D6174683A206469766973696F6E206279207A65726F000000000000 DUP2 MSTORE POP PUSH3 0x30D PUSH1 0x20 SHL PUSH1 0x20 SHR JUMP JUMPDEST PUSH1 0x0 DUP2 DUP4 PUSH3 0x331 JUMPI PUSH1 0x40 MLOAD PUSH3 0x461BCD PUSH1 0xE5 SHL DUP2 MSTORE PUSH1 0x4 ADD PUSH3 0xBB SWAP2 SWAP1 PUSH3 0x3D0 JUMP JUMPDEST POP PUSH1 0x0 DUP4 DUP6 DUP2 PUSH3 0x33E JUMPI INVALID JUMPDEST DIV SWAP6 SWAP5 POP POP POP POP POP JUMP JUMPDEST PUSH1 0x0 DUP1 PUSH1 0x0 DUP1 PUSH1 0x0 DUP1 PUSH1 0xC0 DUP8 DUP10 SUB SLT ISZERO PUSH3 0x361 JUMPI DUP2 DUP3 REVERT JUMPDEST DUP7 MLOAD PUSH3 0x36E DUP2 PUSH3 0x560 JUMP JUMPDEST PUSH1 0x20 DUP9 ADD MLOAD PUSH1 0x40 DUP10 ADD MLOAD SWAP2 SWAP8 POP SWAP6 POP PUSH3 0x388 DUP2 PUSH3 0x560 JUMP JUMPDEST PUSH1 0x60 DUP9 ADD MLOAD SWAP1 SWAP5 POP PUSH3 0x39B DUP2 PUSH3 0x560 JUMP JUMPDEST DUP1 SWAP4 POP POP PUSH1 0x80 DUP8 ADD MLOAD SWAP2 POP PUSH1 0xA0 DUP8 ADD MLOAD SWAP1 POP SWAP3 SWAP6 POP SWAP3 SWAP6 POP SWAP3 SWAP6 JUMP JUMPDEST PUSH1 0x0 PUSH1 0x20 DUP3 DUP5 SUB SLT ISZERO PUSH3 0x3C9 JUMPI DUP1 DUP2 REVERT JUMPDEST POP MLOAD SWAP2 SWAP1 POP JUMP JUMPDEST PUSH1 0x0 PUSH1 0x20 DUP1 DUP4 MSTORE DUP4 MLOAD DUP1 DUP3 DUP6 ADD MSTORE DUP3 JUMPDEST DUP2 DUP2 LT ISZERO PUSH3 0x3FE JUMPI DUP6 DUP2 ADD DUP4 ADD MLOAD DUP6 DUP3 ADD PUSH1 0x40 ADD MSTORE DUP3 ADD PUSH3 0x3E0 JUMP JUMPDEST DUP2 DUP2 GT ISZERO PUSH3 0x410 JUMPI DUP4 PUSH1 0x40 DUP4 DUP8 ADD ADD MSTORE JUMPDEST POP PUSH1 0x1F ADD PUSH1 0x1F NOT AND SWAP3 SWAP1 SWAP3 ADD PUSH1 0x40 ADD SWAP4 SWAP3 POP POP POP JUMP JUMPDEST PUSH1 0x20 DUP1 DUP3 MSTORE PUSH1 0x1F SWAP1 DUP3 ADD MSTORE PUSH32 0x4177617264436F6E74726163743A2074617845706F636820696E76616C696400 PUSH1 0x40 DUP3 ADD MSTORE PUSH1 0x60 ADD SWAP1 JUMP JUMPDEST PUSH1 0x20 DUP1 DUP3 MSTORE PUSH1 0x25 SWAP1 DUP3 ADD MSTORE PUSH32 0x4177617264436F6E74726163743A20706C6174666F726D20746F6B656E20696E PUSH1 0x40 DUP3 ADD MSTORE PUSH5 0x1D985B1A59 PUSH1 0xDA SHL PUSH1 0x60 DUP3 ADD MSTORE PUSH1 0x80 ADD SWAP1 JUMP JUMPDEST PUSH1 0x20 DUP1 DUP3 MSTORE PUSH1 0x26 SWAP1 DUP3 ADD MSTORE PUSH32 0x4177617264436F6E74726163743A2064657620737461727420626C6F636B2069 PUSH1 0x40 DUP3 ADD MSTORE PUSH6 0x1B9D985B1A59 PUSH1 0xD2 SHL PUSH1 0x60 DUP3 ADD MSTORE PUSH1 0x80 ADD SWAP1 JUMP JUMPDEST PUSH1 0x20 DUP1 DUP3 MSTORE PUSH1 0x21 SWAP1 DUP3 ADD MSTORE PUSH32 0x536166654D6174683A206D756C7469706C69636174696F6E206F766572666C6F PUSH1 0x40 DUP3 ADD MSTORE PUSH1 0x77 PUSH1 0xF8 SHL PUSH1 0x60 DUP3 ADD MSTORE PUSH1 0x80 ADD SWAP1 JUMP JUMPDEST PUSH1 0x20 DUP1 DUP3 MSTORE PUSH1 0x1A SWAP1 DUP3 ADD MSTORE PUSH32 0x4177617264436F6E74726163743A2064657620696E76616C6964000000000000 PUSH1 0x40 DUP3 ADD MSTORE PUSH1 0x60 ADD SWAP1 JUMP JUMPDEST PUSH1 0x1 PUSH1 0x1 PUSH1 0xA0 SHL SUB DUP2 AND DUP2 EQ PUSH3 0x576 JUMPI PUSH1 0x0 DUP1 REVERT JUMPDEST POP JUMP JUMPDEST PUSH2 0x241B DUP1 PUSH3 0x589 PUSH1 0x0 CODECOPY PUSH1 0x0 RETURN INVALID PUSH1 0x80 PUSH1 0x40 MSTORE CALLVALUE DUP1 ISZERO PUSH2 0x10 JUMPI PUSH1 0x0 DUP1 REVERT JUMPDEST POP PUSH1 0x4 CALLDATASIZE LT PUSH2 0x1DA JUMPI PUSH1 0x0 CALLDATALOAD PUSH1 0xE0 SHR DUP1 PUSH4 0x91CCA3DB GT PUSH2 0x104 JUMPI DUP1 PUSH4 0xD2B0F13E GT PUSH2 0xA2 JUMPI DUP1 PUSH4 0xF14D13C4 GT PUSH2 0x71 JUMPI DUP1 PUSH4 0xF14D13C4 EQ PUSH2 0x382 JUMPI DUP1 PUSH4 0xF2FDE38B EQ PUSH2 0x395 JUMPI DUP1 PUSH4 0xFA803B51 EQ PUSH2 0x3A8 JUMPI DUP1 PUSH4 0xFBB29CFD EQ PUSH2 0x3BB JUMPI PUSH2 0x1DA JUMP JUMPDEST DUP1 PUSH4 0xD2B0F13E EQ PUSH2 0x334 JUMPI DUP1 PUSH4 0xDB281E1B EQ PUSH2 0x33C JUMPI DUP1 PUSH4 0xE3EECE26 EQ PUSH2 0x34F JUMPI DUP1 PUSH4 0xEECDAC88 EQ PUSH2 0x36F JUMPI PUSH2 0x1DA JUMP JUMPDEST DUP1 PUSH4 0xA076E7DB GT PUSH2 0xDE JUMPI DUP1 PUSH4 0xA076E7DB EQ PUSH2 0x314 JUMPI DUP1 PUSH4 0xAD56CA42 EQ PUSH2 0x31C JUMPI DUP1 PUSH4 0xAEF018B1 EQ PUSH2 0x324 JUMPI DUP1 PUSH4 0xD1B812CD EQ PUSH2 0x32C JUMPI PUSH2 0x1DA JUMP JUMPDEST DUP1 PUSH4 0x91CCA3DB EQ PUSH2 0x2F1 JUMPI DUP1 PUSH4 0x961C34FE EQ PUSH2 0x2F9 JUMPI DUP1 PUSH4 0x9D118770 EQ PUSH2 0x301 JUMPI PUSH2 0x1DA JUMP JUMPDEST DUP1 PUSH4 0x58F57F4D GT PUSH2 0x17C JUMPI DUP1 PUSH4 0x715018A6 GT PUSH2 0x14B JUMPI DUP1 PUSH4 0x715018A6 EQ PUSH2 0x2BB JUMPI DUP1 PUSH4 0x7336991D EQ PUSH2 0x2C3 JUMPI DUP1 PUSH4 0x8B76BA64 EQ PUSH2 0x2D6 JUMPI DUP1 PUSH4 0x8DA5CB5B EQ PUSH2 0x2E9 JUMPI PUSH2 0x1DA JUMP JUMPDEST DUP1 PUSH4 0x58F57F4D EQ PUSH2 0x276 JUMPI DUP1 PUSH4 0x59CD0938 EQ PUSH2 0x27E JUMPI DUP1 PUSH4 0x61D027B3 EQ PUSH2 0x286 JUMPI DUP1 PUSH4 0x6F89B1A4 EQ PUSH2 0x29B JUMPI PUSH2 0x1DA JUMP JUMPDEST DUP1 PUSH4 0x1B255E18 GT PUSH2 0x1B8 JUMPI DUP1 PUSH4 0x1B255E18 EQ PUSH2 0x228 JUMPI DUP1 PUSH4 0x2E1A7D4D EQ PUSH2 0x23B JUMPI DUP1 PUSH4 0x3C4A25D0 EQ PUSH2 0x250 JUMPI DUP1 PUSH4 0x45DECD1E EQ PUSH2 0x263 JUMPI PUSH2 0x1DA JUMP JUMPDEST DUP1 PUSH4 0x3AAFA25 EQ PUSH2 0x1DF JUMPI DUP1 PUSH4 0xF6104FC EQ PUSH2 0x1FD JUMPI DUP1 PUSH4 0x1959A002 EQ PUSH2 0x205 JUMPI JUMPDEST PUSH1 0x0 DUP1 REVERT JUMPDEST PUSH2 0x1E7 PUSH2 0x3CE JUMP JUMPDEST PUSH1 0x40 MLOAD PUSH2 0x1F4 SWAP2 SWAP1 PUSH2 0x230D JUMP JUMPDEST PUSH1 0x40 MLOAD DUP1 SWAP2 SUB SWAP1 RETURN JUMPDEST PUSH2 0x1E7 PUSH2 0x44B JUMP JUMPDEST PUSH2 0x218 PUSH2 0x213 CALLDATASIZE PUSH1 0x4 PUSH2 0x1DB8 JUMP JUMPDEST PUSH2 0x451 JUMP JUMPDEST PUSH1 0x40 MLOAD PUSH2 0x1F4 SWAP5 SWAP4 SWAP3 SWAP2 SWAP1 PUSH2 0x2316 JUMP JUMPDEST PUSH2 0x1E7 PUSH2 0x236 CALLDATASIZE PUSH1 0x4 PUSH2 0x1EDF JUMP JUMPDEST PUSH2 0x47B JUMP JUMPDEST PUSH2 0x24E PUSH2 0x249 CALLDATASIZE PUSH1 0x4 PUSH2 0x1EDF JUMP JUMPDEST PUSH2 0x705 JUMP JUMPDEST STOP JUMPDEST PUSH2 0x24E PUSH2 0x25E CALLDATASIZE PUSH1 0x4 PUSH2 0x1DB8 JUMP JUMPDEST PUSH2 0x9D1 JUMP JUMPDEST PUSH2 0x24E PUSH2 0x271 CALLDATASIZE PUSH1 0x4 PUSH2 0x1DFD JUMP JUMPDEST PUSH2 0xA2A JUMP JUMPDEST PUSH2 0x24E PUSH2 0xAD9 JUMP JUMPDEST PUSH2 0x1E7 PUSH2 0xBBE JUMP JUMPDEST PUSH2 0x28E PUSH2 0xBC4 JUMP JUMPDEST PUSH1 0x40 MLOAD PUSH2 0x1F4 SWAP2 SWAP1 PUSH2 0x1F0F JUMP JUMPDEST PUSH2 0x2AE PUSH2 0x2A9 CALLDATASIZE PUSH1 0x4 PUSH2 0x1DD3 JUMP JUMPDEST PUSH2 0xBD3 JUMP JUMPDEST PUSH1 0x40 MLOAD PUSH2 0x1F4 SWAP2 SWAP1 PUSH2 0x22F6 JUMP JUMPDEST PUSH2 0x24E PUSH2 0xC38 JUMP JUMPDEST PUSH2 0x24E PUSH2 0x2D1 CALLDATASIZE PUSH1 0x4 PUSH2 0x1DD3 JUMP JUMPDEST PUSH2 0xCB7 JUMP JUMPDEST PUSH2 0x24E PUSH2 0x2E4 CALLDATASIZE PUSH1 0x4 PUSH2 0x1DD3 JUMP JUMPDEST PUSH2 0xD73 JUMP JUMPDEST PUSH2 0x28E PUSH2 0xE1D JUMP JUMPDEST PUSH2 0x28E PUSH2 0xE2C JUMP JUMPDEST PUSH2 0x1E7 PUSH2 0xE3B JUMP JUMPDEST PUSH2 0x24E PUSH2 0x30F CALLDATASIZE PUSH1 0x4 PUSH2 0x1EDF JUMP JUMPDEST PUSH2 0xE41 JUMP JUMPDEST PUSH2 0x1E7 PUSH2 0xED5 JUMP JUMPDEST PUSH2 0x1E7 PUSH2 0xEDB JUMP JUMPDEST PUSH2 0x1E7 PUSH2 0xEE1 JUMP JUMPDEST PUSH2 0x28E PUSH2 0xEE7 JUMP JUMPDEST PUSH2 0x1E7 PUSH2 0xEF6 JUMP JUMPDEST PUSH2 0x1E7 PUSH2 0x34A CALLDATASIZE PUSH1 0x4 PUSH2 0x1DB8 JUMP JUMPDEST PUSH2 0xEFC JUMP JUMPDEST PUSH2 0x362 PUSH2 0x35D CALLDATASIZE PUSH1 0x4 PUSH2 0x1DB8 JUMP JUMPDEST PUSH2 0x103B JUMP JUMPDEST PUSH1 0x40 MLOAD PUSH2 0x1F4 SWAP2 SWAP1 PUSH2 0x1F5D JUMP JUMPDEST PUSH2 0x24E PUSH2 0x37D CALLDATASIZE PUSH1 0x4 PUSH2 0x1DB8 JUMP JUMPDEST PUSH2 0x1050 JUMP JUMPDEST PUSH2 0x1E7 PUSH2 0x390 CALLDATASIZE PUSH1 0x4 PUSH2 0x1DB8 JUMP JUMPDEST PUSH2 0x10A6 JUMP JUMPDEST PUSH2 0x24E PUSH2 0x3A3 CALLDATASIZE PUSH1 0x4 PUSH2 0x1DB8 JUMP JUMPDEST PUSH2 0x1204 JUMP JUMPDEST PUSH2 0x24E PUSH2 0x3B6 CALLDATASIZE PUSH1 0x4 PUSH2 0x1DD3 JUMP JUMPDEST PUSH2 0x12BB JUMP JUMPDEST PUSH2 0x1E7 PUSH2 0x3C9 CALLDATASIZE PUSH1 0x4 PUSH2 0x1DB8 JUMP JUMPDEST PUSH2 0x163D JUMP JUMPDEST PUSH1 0x0 PUSH1 0x1 SLOAD NUMBER GT PUSH2 0x3E1 JUMPI POP PUSH1 0x0 PUSH2 0x448 JUMP JUMPDEST PUSH1 0x0 PUSH10 0x9DC287EAB4D4DFA00000 SWAP1 POP PUSH1 0x0 PUSH2 0x419 PUSH8 0x214E8348C4F0000 PUSH2 0x413 PUSH1 0x1 SLOAD NUMBER PUSH2 0x18E8 SWAP1 SWAP2 SWAP1 PUSH4 0xFFFFFFFF AND JUMP JUMPDEST SWAP1 PUSH2 0x186C JUMP JUMPDEST SWAP1 POP DUP2 DUP2 GT ISZERO PUSH2 0x43A JUMPI PUSH1 0x5 SLOAD PUSH2 0x431 SWAP1 DUP4 SWAP1 PUSH2 0x18E8 JUMP JUMPDEST SWAP3 POP POP POP PUSH2 0x448 JUMP JUMPDEST PUSH1 0x5 SLOAD PUSH2 0x431 SWAP1 DUP3 SWAP1 PUSH2 0x18E8 JUMP JUMPDEST SWAP1 JUMP JUMPDEST PUSH1 0x3 SLOAD DUP2 JUMP JUMPDEST PUSH1 0x8 PUSH1 0x20 MSTORE PUSH1 0x0 SWAP1 DUP2 MSTORE PUSH1 0x40 SWAP1 KECCAK256 DUP1 SLOAD PUSH1 0x1 DUP3 ADD SLOAD PUSH1 0x2 DUP4 ADD SLOAD PUSH1 0x3 SWAP1 SWAP4 ADD SLOAD SWAP2 SWAP3 SWAP1 SWAP2 PUSH1 0xFF AND DUP5 JUMP JUMPDEST PUSH1 0x0 DUP1 PUSH2 0x486 PUSH2 0x192A JUMP JUMPDEST SWAP1 POP PUSH1 0x0 PUSH2 0x492 PUSH2 0x1CE8 JUMP JUMPDEST CALLER PUSH1 0x0 SWAP1 DUP2 MSTORE PUSH1 0x8 PUSH1 0x20 SWAP1 DUP2 MSTORE PUSH1 0x40 DUP1 DUP4 KECCAK256 DUP2 MLOAD PUSH1 0xA0 DUP2 ADD DUP4 MSTORE DUP2 SLOAD DUP2 MSTORE PUSH1 0x1 DUP3 ADD SLOAD DUP2 DUP6 ADD MSTORE PUSH1 0x2 DUP3 ADD SLOAD DUP2 DUP5 ADD MSTORE PUSH1 0x3 DUP3 ADD SLOAD PUSH1 0xFF AND ISZERO ISZERO PUSH1 0x60 DUP3 ADD MSTORE PUSH1 0x4 DUP3 ADD DUP1 SLOAD DUP5 MLOAD DUP2 DUP8 MUL DUP2 ADD DUP8 ADD SWAP1 SWAP6 MSTORE DUP1 DUP6 MSTORE SWAP2 SWAP6 SWAP3 SWAP5 PUSH1 0x80 DUP8 ADD SWAP5 SWAP4 SWAP2 SWAP3 SWAP2 SWAP1 DUP5 ADD JUMPDEST DUP3 DUP3 LT ISZERO PUSH2 0x53D JUMPI DUP4 DUP3 SWAP1 PUSH1 0x0 MSTORE PUSH1 0x20 PUSH1 0x0 KECCAK256 SWAP1 PUSH1 0x2 MUL ADD PUSH1 0x40 MLOAD DUP1 PUSH1 0x40 ADD PUSH1 0x40 MSTORE SWAP1 DUP2 PUSH1 0x0 DUP3 ADD SLOAD DUP2 MSTORE PUSH1 0x20 ADD PUSH1 0x1 DUP3 ADD SLOAD DUP2 MSTORE POP POP DUP2 MSTORE PUSH1 0x20 ADD SWAP1 PUSH1 0x1 ADD SWAP1 PUSH2 0x4F7 JUMP JUMPDEST POP POP POP SWAP2 MSTORE POP POP DUP1 MLOAD SWAP1 SWAP2 POP DUP6 GT PUSH2 0x55B JUMPI PUSH1 0x0 SWAP4 POP POP POP POP PUSH2 0x700 JUMP JUMPDEST DUP1 MLOAD DUP4 SWAP1 PUSH1 0x0 SWAP1 PUSH2 0x56D SWAP1 DUP9 SWAP1 PUSH2 0x18E8 JUMP JUMPDEST PUSH1 0x20 DUP5 ADD MLOAD PUSH1 0x6 SLOAD SWAP2 SWAP3 POP SWAP1 PUSH1 0x0 SWAP1 PUSH2 0x587 SWAP1 PUSH1 0x1 PUSH2 0x1946 JUMP JUMPDEST SWAP1 POP JUMPDEST DUP5 PUSH1 0x60 ADD MLOAD ISZERO PUSH2 0x6CF JUMPI PUSH2 0x59C PUSH2 0x1D19 JUMP JUMPDEST DUP6 PUSH1 0x80 ADD MLOAD DUP4 DUP2 MLOAD DUP2 LT PUSH2 0x5AC JUMPI INVALID JUMPDEST PUSH1 0x20 MUL PUSH1 0x20 ADD ADD MLOAD SWAP1 POP PUSH1 0x0 PUSH2 0x5ED DUP4 PUSH2 0x5E7 PUSH5 0xE8D4A51000 PUSH2 0x413 PUSH1 0x1 PUSH2 0x5E1 DUP9 PUSH1 0x0 ADD MLOAD DUP14 PUSH2 0x18E8 SWAP1 SWAP2 SWAP1 PUSH4 0xFFFFFFFF AND JUMP JUMPDEST SWAP1 PUSH2 0x1946 JUMP JUMPDEST SWAP1 PUSH2 0x18A6 JUMP JUMPDEST SWAP1 POP PUSH5 0xE8D4A51000 DUP2 GT ISZERO PUSH2 0x604 JUMPI POP PUSH5 0xE8D4A51000 JUMPDEST PUSH1 0x0 PUSH2 0x626 PUSH5 0xE8D4A51000 PUSH2 0x5E7 DUP5 DUP7 PUSH1 0x20 ADD MLOAD PUSH2 0x186C SWAP1 SWAP2 SWAP1 PUSH4 0xFFFFFFFF AND JUMP JUMPDEST SWAP1 POP DUP6 DUP2 LT PUSH2 0x669 JUMPI PUSH1 0x0 PUSH2 0x644 DUP4 PUSH2 0x5E7 DUP10 PUSH5 0xE8D4A51000 PUSH2 0x186C JUMP JUMPDEST SWAP1 POP PUSH2 0x65A PUSH2 0x653 DUP3 DUP10 PUSH2 0x18E8 JUMP JUMPDEST DUP12 SWAP1 PUSH2 0x1946 JUMP JUMPDEST SWAP10 POP PUSH1 0x0 SWAP7 POP POP POP POP POP PUSH2 0x6CF JUMP JUMPDEST PUSH2 0x673 DUP7 DUP3 PUSH2 0x18E8 JUMP JUMPDEST SWAP6 POP PUSH2 0x696 PUSH2 0x68F DUP3 DUP6 PUSH1 0x20 ADD MLOAD PUSH2 0x18E8 SWAP1 SWAP2 SWAP1 PUSH4 0xFFFFFFFF AND JUMP JUMPDEST DUP11 SWAP1 PUSH2 0x1946 JUMP JUMPDEST PUSH1 0x6 SLOAD SWAP1 SWAP10 POP PUSH2 0x6B1 SWAP1 PUSH2 0x6AB DUP8 PUSH1 0x1 PUSH2 0x1946 JUMP JUMPDEST SWAP1 PUSH2 0x196B JUMP JUMPDEST SWAP5 POP DUP8 PUSH1 0x40 ADD MLOAD DUP6 EQ ISZERO PUSH2 0x6C7 JUMPI POP POP POP PUSH2 0x6CF JUMP JUMPDEST POP POP POP PUSH2 0x58A JUMP JUMPDEST DUP3 ISZERO PUSH2 0x6F6 JUMPI PUSH1 0x40 MLOAD PUSH3 0x461BCD PUSH1 0xE5 SHL DUP2 MSTORE PUSH1 0x4 ADD PUSH2 0x6ED SWAP1 PUSH2 0x21AC JUMP JUMPDEST PUSH1 0x40 MLOAD DUP1 SWAP2 SUB SWAP1 REVERT JUMPDEST POP SWAP4 SWAP6 POP POP POP POP POP POP JUMPDEST SWAP2 SWAP1 POP JUMP JUMPDEST PUSH1 0x0 PUSH2 0x70F PUSH2 0x192A JUMP JUMPDEST CALLER PUSH1 0x0 SWAP1 DUP2 MSTORE PUSH1 0x8 PUSH1 0x20 MSTORE PUSH1 0x40 DUP2 KECCAK256 SWAP2 SWAP3 POP SWAP1 PUSH2 0x72C DUP2 DUP5 PUSH2 0x19AD JUMP JUMPDEST DUP1 SLOAD DUP5 GT PUSH2 0x747 JUMPI DUP1 SLOAD PUSH2 0x740 SWAP1 DUP6 PUSH2 0x18E8 JUMP JUMPDEST DUP2 SSTORE PUSH2 0x96D JUMP JUMPDEST DUP1 SLOAD PUSH1 0x0 SWAP1 PUSH2 0x757 SWAP1 DUP7 SWAP1 PUSH2 0x18E8 JUMP JUMPDEST PUSH1 0x0 DUP1 DUP5 SSTORE PUSH1 0x1 DUP1 DUP6 ADD SLOAD PUSH1 0x6 SLOAD SWAP4 SWAP5 POP SWAP3 PUSH2 0x772 SWAP2 PUSH2 0x1946 JUMP JUMPDEST SWAP1 POP JUMPDEST PUSH1 0x3 DUP5 ADD SLOAD PUSH1 0xFF AND ISZERO PUSH2 0x8F8 JUMPI PUSH1 0x0 PUSH2 0x7C0 DUP3 PUSH2 0x5E7 PUSH5 0xE8D4A51000 PUSH2 0x413 PUSH1 0x1 PUSH2 0x5E1 DUP12 PUSH1 0x4 ADD DUP11 DUP2 SLOAD DUP2 LT PUSH2 0x7A8 JUMPI INVALID JUMPDEST PUSH1 0x0 SWAP2 DUP3 MSTORE PUSH1 0x20 SWAP1 SWAP2 KECCAK256 PUSH1 0x2 SWAP1 SWAP2 MUL ADD SLOAD DUP15 SWAP1 PUSH2 0x18E8 JUMP JUMPDEST SWAP1 POP PUSH1 0x0 PUSH2 0x800 PUSH5 0xE8D4A51000 PUSH2 0x5E7 DUP5 DUP10 PUSH1 0x4 ADD DUP9 DUP2 SLOAD DUP2 LT PUSH2 0x7E0 JUMPI INVALID JUMPDEST SWAP1 PUSH1 0x0 MSTORE PUSH1 0x20 PUSH1 0x0 KECCAK256 SWAP1 PUSH1 0x2 MUL ADD PUSH1 0x1 ADD SLOAD PUSH2 0x186C SWAP1 SWAP2 SWAP1 PUSH4 0xFFFFFFFF AND JUMP JUMPDEST SWAP1 POP DUP5 DUP2 LT PUSH2 0x898 JUMPI PUSH1 0x0 PUSH2 0x81E DUP4 PUSH2 0x5E7 DUP9 PUSH5 0xE8D4A51000 PUSH2 0x186C JUMP JUMPDEST SWAP1 POP PUSH2 0x853 DUP2 DUP9 PUSH1 0x4 ADD DUP8 DUP2 SLOAD DUP2 LT PUSH2 0x833 JUMPI INVALID JUMPDEST SWAP1 PUSH1 0x0 MSTORE PUSH1 0x20 PUSH1 0x0 KECCAK256 SWAP1 PUSH1 0x2 MUL ADD PUSH1 0x1 ADD SLOAD PUSH2 0x18E8 SWAP1 SWAP2 SWAP1 PUSH4 0xFFFFFFFF AND JUMP JUMPDEST DUP8 PUSH1 0x4 ADD DUP7 DUP2 SLOAD DUP2 LT PUSH2 0x862 JUMPI INVALID JUMPDEST PUSH1 0x0 SWAP2 DUP3 MSTORE PUSH1 0x20 SWAP1 SWAP2 KECCAK256 PUSH1 0x1 PUSH1 0x2 SWAP1 SWAP3 MUL ADD ADD SSTORE PUSH2 0x88A PUSH2 0x883 DUP3 DUP9 PUSH2 0x18E8 JUMP JUMPDEST DUP10 SWAP1 PUSH2 0x1946 JUMP JUMPDEST SWAP8 POP PUSH1 0x0 SWAP6 POP POP POP POP PUSH2 0x8F8 JUMP JUMPDEST PUSH2 0x8A2 DUP6 DUP3 PUSH2 0x18E8 JUMP JUMPDEST SWAP5 POP PUSH2 0x8C1 PUSH2 0x8BA DUP3 DUP9 PUSH1 0x4 ADD DUP8 DUP2 SLOAD DUP2 LT PUSH2 0x833 JUMPI INVALID JUMPDEST DUP9 SWAP1 PUSH2 0x1946 JUMP JUMPDEST PUSH1 0x6 SLOAD SWAP1 SWAP8 POP PUSH2 0x8D6 SWAP1 PUSH2 0x6AB DUP7 PUSH1 0x1 PUSH2 0x1946 JUMP JUMPDEST SWAP4 POP DUP6 PUSH1 0x2 ADD SLOAD DUP5 EQ ISZERO PUSH2 0x8F1 JUMPI PUSH1 0x3 DUP7 ADD DUP1 SLOAD PUSH1 0xFF NOT AND SWAP1 SSTORE JUMPDEST POP POP PUSH2 0x775 JUMP JUMPDEST PUSH1 0x1 DUP5 ADD DUP3 SWAP1 SSTORE DUP3 ISZERO PUSH2 0x91D JUMPI PUSH1 0x40 MLOAD PUSH3 0x461BCD PUSH1 0xE5 SHL DUP2 MSTORE PUSH1 0x4 ADD PUSH2 0x6ED SWAP1 PUSH2 0x21AC JUMP JUMPDEST PUSH1 0x9 SLOAD PUSH1 0x40 DUP1 MLOAD DUP1 DUP3 ADD SWAP1 SWAP2 MSTORE PUSH1 0x1E DUP2 MSTORE PUSH32 0x4177617264436F6E74726163743A206C65767920746178206661696C65640000 PUSH1 0x20 DUP3 ADD MSTORE PUSH2 0x969 SWAP2 PUSH1 0x1 PUSH1 0x1 PUSH1 0xA0 SHL SUB AND SWAP1 DUP8 SWAP1 PUSH2 0x1A75 JUMP JUMPDEST POP POP POP JUMPDEST PUSH2 0x990 CALLER DUP6 PUSH1 0x40 MLOAD DUP1 PUSH1 0x60 ADD PUSH1 0x40 MSTORE DUP1 PUSH1 0x22 DUP2 MSTORE PUSH1 0x20 ADD PUSH2 0x23C4 PUSH1 0x22 SWAP2 CODECOPY PUSH2 0x1A75 JUMP JUMPDEST PUSH32 0xF279E6A1F5E320CCA91135676D9CB6E44CA8A08C0B88342BCDB1144F6511B568 CALLER DUP6 DUP5 PUSH1 0x40 MLOAD PUSH2 0x9C3 SWAP4 SWAP3 SWAP2 SWAP1 PUSH2 0x1F23 JUMP JUMPDEST PUSH1 0x40 MLOAD DUP1 SWAP2 SUB SWAP1 LOG1 POP POP POP POP JUMP JUMPDEST PUSH2 0x9D9 PUSH2 0x1C4D JUMP JUMPDEST PUSH1 0xA SLOAD PUSH1 0x1 PUSH1 0x1 PUSH1 0xA0 SHL SUB SWAP1 DUP2 AND SWAP2 AND EQ PUSH2 0xA06 JUMPI PUSH1 0x40 MLOAD PUSH3 0x461BCD PUSH1 0xE5 SHL DUP2 MSTORE PUSH1 0x4 ADD PUSH2 0x6ED SWAP1 PUSH2 0x212E JUMP JUMPDEST PUSH1 0x1 PUSH1 0x1 PUSH1 0xA0 SHL SUB AND PUSH1 0x0 SWAP1 DUP2 MSTORE PUSH1 0xC PUSH1 0x20 MSTORE PUSH1 0x40 SWAP1 KECCAK256 DUP1 SLOAD PUSH1 0xFF NOT AND PUSH1 0x1 OR SWAP1 SSTORE JUMP JUMPDEST PUSH1 0xC PUSH1 0x0 PUSH2 0xA36 PUSH2 0x1C4D JUMP JUMPDEST PUSH1 0x1 PUSH1 0x1 PUSH1 0xA0 SHL SUB AND DUP2 MSTORE PUSH1 0x20 DUP2 ADD SWAP2 SWAP1 SWAP2 MSTORE PUSH1 0x40 ADD PUSH1 0x0 KECCAK256 SLOAD PUSH1 0xFF AND PUSH2 0xA6F JUMPI PUSH1 0x40 MLOAD PUSH3 0x461BCD PUSH1 0xE5 SHL DUP2 MSTORE PUSH1 0x4 ADD PUSH2 0x6ED SWAP1 PUSH2 0x2163 JUMP JUMPDEST DUP1 MLOAD DUP3 MLOAD EQ PUSH2 0xA90 JUMPI PUSH1 0x40 MLOAD PUSH3 0x461BCD PUSH1 0xE5 SHL DUP2 MSTORE PUSH1 0x4 ADD PUSH2 0x6ED SWAP1 PUSH2 0x206F JUMP JUMPDEST PUSH1 0x0 JUMPDEST DUP3 MLOAD DUP2 LT ISZERO PUSH2 0xAD4 JUMPI PUSH2 0xACC DUP4 DUP3 DUP2 MLOAD DUP2 LT PUSH2 0xAAB JUMPI INVALID JUMPDEST PUSH1 0x20 MUL PUSH1 0x20 ADD ADD MLOAD DUP4 DUP4 DUP2 MLOAD DUP2 LT PUSH2 0xABF JUMPI INVALID JUMPDEST PUSH1 0x20 MUL PUSH1 0x20 ADD ADD MLOAD PUSH2 0x12BB JUMP JUMPDEST PUSH1 0x1 ADD PUSH2 0xA93 JUMP JUMPDEST POP POP POP JUMP JUMPDEST PUSH1 0x0 SLOAD PUSH1 0x1 PUSH1 0x1 PUSH1 0xA0 SHL SUB AND CALLER EQ PUSH2 0xB03 JUMPI PUSH1 0x40 MLOAD PUSH3 0x461BCD PUSH1 0xE5 SHL DUP2 MSTORE PUSH1 0x4 ADD PUSH2 0x6ED SWAP1 PUSH2 0x2226 JUMP JUMPDEST PUSH1 0x4 SLOAD PUSH1 0x2 SLOAD LT PUSH2 0xB26 JUMPI PUSH1 0x40 MLOAD PUSH3 0x461BCD PUSH1 0xE5 SHL DUP2 MSTORE PUSH1 0x4 ADD PUSH2 0x6ED SWAP1 PUSH2 0x22A5 JUMP JUMPDEST PUSH1 0x0 PUSH2 0xB43 PUSH1 0x3 SLOAD PUSH2 0x413 PUSH1 0x1 SLOAD NUMBER PUSH2 0x18E8 SWAP1 SWAP2 SWAP1 PUSH4 0xFFFFFFFF AND JUMP JUMPDEST SWAP1 POP PUSH1 0x0 PUSH2 0xB5C PUSH1 0x2 SLOAD DUP4 PUSH2 0x18E8 SWAP1 SWAP2 SWAP1 PUSH4 0xFFFFFFFF AND JUMP JUMPDEST SWAP1 POP PUSH1 0x4 SLOAD DUP3 GT ISZERO PUSH2 0xB7A JUMPI PUSH1 0x2 SLOAD PUSH1 0x4 SLOAD PUSH2 0xB77 SWAP2 PUSH2 0x18E8 JUMP JUMPDEST SWAP1 POP JUMPDEST PUSH1 0x0 SLOAD PUSH1 0x40 DUP1 MLOAD PUSH1 0x60 DUP2 ADD SWAP1 SWAP2 MSTORE PUSH1 0x26 DUP1 DUP3 MSTORE PUSH2 0xBAA SWAP3 PUSH1 0x1 PUSH1 0x1 PUSH1 0xA0 SHL SUB AND SWAP2 DUP5 SWAP2 PUSH2 0x237B PUSH1 0x20 DUP4 ADD CODECOPY PUSH2 0x1A75 JUMP JUMPDEST PUSH1 0x2 SLOAD PUSH2 0xBB7 SWAP1 DUP3 PUSH2 0x1946 JUMP JUMPDEST PUSH1 0x2 SSTORE POP POP JUMP JUMPDEST PUSH1 0x7 SLOAD DUP2 JUMP JUMPDEST PUSH1 0x9 SLOAD PUSH1 0x1 PUSH1 0x1 PUSH1 0xA0 SHL SUB AND DUP2 JUMP JUMPDEST PUSH2 0xBDB PUSH2 0x1D19 JUMP JUMPDEST PUSH1 0x1 PUSH1 0x1 PUSH1 0xA0 SHL SUB DUP4 AND PUSH1 0x0 SWAP1 DUP2 MSTORE PUSH1 0x8 PUSH1 0x20 MSTORE PUSH1 0x40 SWAP1 KECCAK256 PUSH1 0x4 ADD DUP1 SLOAD DUP4 SWAP1 DUP2 LT PUSH2 0xC02 JUMPI INVALID JUMPDEST SWAP1 PUSH1 0x0 MSTORE PUSH1 0x20 PUSH1 0x0 KECCAK256 SWAP1 PUSH1 0x2 MUL ADD PUSH1 0x40 MLOAD DUP1 PUSH1 0x40 ADD PUSH1 0x40 MSTORE SWAP1 DUP2 PUSH1 0x0 DUP3 ADD SLOAD DUP2 MSTORE PUSH1 0x20 ADD PUSH1 0x1 DUP3 ADD SLOAD DUP2 MSTORE POP POP SWAP1 POP JUMPDEST SWAP3 SWAP2 POP POP JUMP JUMPDEST PUSH2 0xC40 PUSH2 0x1C4D JUMP JUMPDEST PUSH1 0xA SLOAD PUSH1 0x1 PUSH1 0x1 PUSH1 0xA0 SHL SUB SWAP1 DUP2 AND SWAP2 AND EQ PUSH2 0xC6D JUMPI PUSH1 0x40 MLOAD PUSH3 0x461BCD PUSH1 0xE5 SHL DUP2 MSTORE PUSH1 0x4 ADD PUSH2 0x6ED SWAP1 PUSH2 0x212E JUMP JUMPDEST PUSH1 0xA SLOAD PUSH1 0x40 MLOAD PUSH1 0x0 SWAP2 PUSH1 0x1 PUSH1 0x1 PUSH1 0xA0 SHL SUB AND SWAP1 PUSH32 0x8BE0079C531659141344CD1FD0A4F28419497F9722A3DAAFE3B4186F6B6457E0 SWAP1 DUP4 SWAP1 LOG3 PUSH1 0xA DUP1 SLOAD PUSH1 0x1 PUSH1 0x1 PUSH1 0xA0 SHL SUB NOT AND SWAP1 SSTORE JUMP JUMPDEST PUSH1 0x0 SLOAD PUSH1 0x1 PUSH1 0x1 PUSH1 0xA0 SHL SUB AND CALLER EQ PUSH2 0xCE1 JUMPI PUSH1 0x40 MLOAD PUSH3 0x461BCD PUSH1 0xE5 SHL DUP2 MSTORE PUSH1 0x4 ADD PUSH2 0x6ED SWAP1 PUSH2 0x21EF JUMP JUMPDEST PUSH1 0x0 SLOAD PUSH1 0x1 PUSH1 0x1 PUSH1 0xA0 SHL SUB DUP4 DUP2 AND SWAP2 AND EQ ISZERO PUSH2 0xD0F JUMPI PUSH1 0x40 MLOAD PUSH3 0x461BCD PUSH1 0xE5 SHL DUP2 MSTORE PUSH1 0x4 ADD PUSH2 0x6ED SWAP1 PUSH2 0x1FBB JUMP JUMPDEST PUSH1 0x0 PUSH2 0xD19 PUSH2 0x3CE JUMP JUMPDEST SWAP1 POP DUP1 DUP3 GT ISZERO PUSH2 0xD3B JUMPI PUSH1 0x40 MLOAD PUSH3 0x461BCD PUSH1 0xE5 SHL DUP2 MSTORE PUSH1 0x4 ADD PUSH2 0x6ED SWAP1 PUSH2 0x2270 JUMP JUMPDEST PUSH2 0xD5E DUP4 DUP4 PUSH1 0x40 MLOAD DUP1 PUSH1 0x60 ADD PUSH1 0x40 MSTORE DUP1 PUSH1 0x23 DUP2 MSTORE PUSH1 0x20 ADD PUSH2 0x23A1 PUSH1 0x23 SWAP2 CODECOPY PUSH2 0x1A75 JUMP JUMPDEST PUSH1 0x5 SLOAD PUSH2 0xD6B SWAP1 DUP4 PUSH2 0x1946 JUMP JUMPDEST PUSH1 0x5 SSTORE POP POP POP JUMP JUMPDEST PUSH1 0xC PUSH1 0x0 PUSH2 0xD7F PUSH2 0x1C4D JUMP JUMPDEST PUSH1 0x1 PUSH1 0x1 PUSH1 0xA0 SHL SUB AND DUP2 MSTORE PUSH1 0x20 DUP2 ADD SWAP2 SWAP1 SWAP2 MSTORE PUSH1 0x40 ADD PUSH1 0x0 KECCAK256 SLOAD PUSH1 0xFF AND PUSH2 0xDB8 JUMPI PUSH1 0x40 MLOAD PUSH3 0x461BCD PUSH1 0xE5 SHL DUP2 MSTORE PUSH1 0x4 ADD PUSH2 0x6ED SWAP1 PUSH2 0x2163 JUMP JUMPDEST PUSH1 0x1 PUSH1 0x1 PUSH1 0xA0 SHL SUB DUP3 AND PUSH1 0x0 SWAP1 DUP2 MSTORE PUSH1 0x8 PUSH1 0x20 MSTORE PUSH1 0x40 SWAP1 KECCAK256 DUP1 SLOAD PUSH2 0xDDC SWAP1 DUP4 PUSH2 0x1946 JUMP JUMPDEST DUP2 SSTORE PUSH1 0x40 MLOAD PUSH32 0xB3D34AA6513790110F92A175D6DD74AD8C8A7B013C31D21CFBD8F875465AFDBB SWAP1 PUSH2 0xE10 SWAP1 DUP6 SWAP1 DUP6 SWAP1 PUSH2 0x1F44 JUMP JUMPDEST PUSH1 0x40 MLOAD DUP1 SWAP2 SUB SWAP1 LOG1 POP POP POP JUMP JUMPDEST PUSH1 0xA SLOAD PUSH1 0x1 PUSH1 0x1 PUSH1 0xA0 SHL SUB AND SWAP1 JUMP JUMPDEST PUSH1 0x0 SLOAD PUSH1 0x1 PUSH1 0x1 PUSH1 0xA0 SHL SUB AND DUP2 JUMP JUMPDEST PUSH1 0x2 SLOAD DUP2 JUMP JUMPDEST PUSH1 0xC PUSH1 0x0 PUSH2 0xE4D PUSH2 0x1C4D JUMP JUMPDEST PUSH1 0x1 PUSH1 0x1 PUSH1 0xA0 SHL SUB AND DUP2 MSTORE PUSH1 0x20 DUP2 ADD SWAP2 SWAP1 SWAP2 MSTORE PUSH1 0x40 ADD PUSH1 0x0 KECCAK256 SLOAD PUSH1 0xFF AND PUSH2 0xE86 JUMPI PUSH1 0x40 MLOAD PUSH3 0x461BCD PUSH1 0xE5 SHL DUP2 MSTORE PUSH1 0x4 ADD PUSH2 0x6ED SWAP1 PUSH2 0x2163 JUMP JUMPDEST PUSH1 0x9 SLOAD PUSH1 0x40 DUP1 MLOAD DUP1 DUP3 ADD SWAP1 SWAP2 MSTORE PUSH1 0x1E DUP2 MSTORE PUSH32 0x4177617264436F6E74726163743A206C65767920746178206661696C65640000 PUSH1 0x20 DUP3 ADD MSTORE PUSH2 0xED2 SWAP2 PUSH1 0x1 PUSH1 0x1 PUSH1 0xA0 SHL SUB AND SWAP1 DUP4 SWAP1 PUSH2 0x1A75 JUMP JUMPDEST POP JUMP JUMPDEST PUSH1 0x4 SLOAD DUP2 JUMP JUMPDEST PUSH1 0x1 SLOAD DUP2 JUMP JUMPDEST PUSH1 0x6 SLOAD DUP2 JUMP JUMPDEST PUSH1 0xB SLOAD PUSH1 0x1 PUSH1 0x1 PUSH1 0xA0 SHL SUB AND DUP2 JUMP JUMPDEST PUSH1 0x5 SLOAD DUP2 JUMP JUMPDEST PUSH1 0x0 PUSH2 0xF06 PUSH2 0x1CE8 JUMP JUMPDEST PUSH1 0x1 PUSH1 0x1 PUSH1 0xA0 SHL SUB DUP4 AND PUSH1 0x0 SWAP1 DUP2 MSTORE PUSH1 0x8 PUSH1 0x20 SWAP1 DUP2 MSTORE PUSH1 0x40 DUP1 DUP4 KECCAK256 DUP2 MLOAD PUSH1 0xA0 DUP2 ADD DUP4 MSTORE DUP2 SLOAD DUP2 MSTORE PUSH1 0x1 DUP3 ADD SLOAD DUP2 DUP6 ADD MSTORE PUSH1 0x2 DUP3 ADD SLOAD DUP2 DUP5 ADD MSTORE PUSH1 0x3 DUP3 ADD SLOAD PUSH1 0xFF AND ISZERO ISZERO PUSH1 0x60 DUP3 ADD MSTORE PUSH1 0x4 DUP3 ADD DUP1 SLOAD DUP5 MLOAD DUP2 DUP8 MUL DUP2 ADD DUP8 ADD SWAP1 SWAP6 MSTORE DUP1 DUP6 MSTORE SWAP2 SWAP6 SWAP3 SWAP5 PUSH1 0x80 DUP8 ADD SWAP5 SWAP4 SWAP2 SWAP3 SWAP2 SWAP1 DUP5 ADD JUMPDEST DUP3 DUP3 LT ISZERO PUSH2 0xFBA JUMPI DUP4 DUP3 SWAP1 PUSH1 0x0 MSTORE PUSH1 0x20 PUSH1 0x0 KECCAK256 SWAP1 PUSH1 0x2 MUL ADD PUSH1 0x40 MLOAD DUP1 PUSH1 0x40 ADD PUSH1 0x40 MSTORE SWAP1 DUP2 PUSH1 0x0 DUP3 ADD SLOAD DUP2 MSTORE PUSH1 0x20 ADD PUSH1 0x1 DUP3 ADD SLOAD DUP2 MSTORE POP POP DUP2 MSTORE PUSH1 0x20 ADD SWAP1 PUSH1 0x1 ADD SWAP1 PUSH2 0xF74 JUMP JUMPDEST POP POP POP SWAP2 MSTORE POP POP DUP1 MLOAD PUSH1 0x60 DUP3 ADD MLOAD SWAP2 SWAP3 POP SWAP1 ISZERO PUSH2 0x1034 JUMPI PUSH1 0x20 DUP3 ADD MLOAD JUMPDEST PUSH2 0x1005 DUP4 PUSH1 0x80 ADD MLOAD DUP3 DUP2 MLOAD DUP2 LT PUSH2 0xFEA JUMPI INVALID JUMPDEST PUSH1 0x20 MUL PUSH1 0x20 ADD ADD MLOAD PUSH1 0x20 ADD MLOAD DUP4 PUSH2 0x1946 SWAP1 SWAP2 SWAP1 PUSH4 0xFFFFFFFF AND JUMP JUMPDEST PUSH1 0x6 SLOAD SWAP1 SWAP3 POP PUSH2 0x101A SWAP1 PUSH2 0x6AB DUP4 PUSH1 0x1 PUSH2 0x1946 JUMP JUMPDEST SWAP1 POP DUP3 PUSH1 0x40 ADD MLOAD DUP2 EQ ISZERO PUSH2 0x102D JUMPI PUSH2 0x1032 JUMP JUMPDEST PUSH2 0xFD7 JUMP JUMPDEST POP JUMPDEST SWAP4 SWAP3 POP POP POP JUMP JUMPDEST PUSH1 0xC PUSH1 0x20 MSTORE PUSH1 0x0 SWAP1 DUP2 MSTORE PUSH1 0x40 SWAP1 KECCAK256 SLOAD PUSH1 0xFF AND DUP2 JUMP JUMPDEST PUSH2 0x1058 PUSH2 0x1C4D JUMP JUMPDEST PUSH1 0xA SLOAD PUSH1 0x1 PUSH1 0x1 PUSH1 0xA0 SHL SUB SWAP1 DUP2 AND SWAP2 AND EQ PUSH2 0x1085 JUMPI PUSH1 0x40 MLOAD PUSH3 0x461BCD PUSH1 0xE5 SHL DUP2 MSTORE PUSH1 0x4 ADD PUSH2 0x6ED SWAP1 PUSH2 0x212E JUMP JUMPDEST PUSH1 0x1 PUSH1 0x1 PUSH1 0xA0 SHL SUB AND PUSH1 0x0 SWAP1 DUP2 MSTORE PUSH1 0xC PUSH1 0x20 MSTORE PUSH1 0x40 SWAP1 KECCAK256 DUP1 SLOAD PUSH1 0xFF NOT AND SWAP1 SSTORE JUMP JUMPDEST PUSH1 0x0 DUP1 PUSH2 0x10BD PUSH1 0x6 SLOAD PUSH2 0x10B7 PUSH2 0x192A JUMP JUMPDEST SWAP1 PUSH2 0x18E8 JUMP JUMPDEST SWAP1 POP PUSH2 0x10C7 PUSH2 0x1CE8 JUMP JUMPDEST PUSH1 0x1 PUSH1 0x1 PUSH1 0xA0 SHL SUB DUP5 AND PUSH1 0x0 SWAP1 DUP2 MSTORE PUSH1 0x8 PUSH1 0x20 SWAP1 DUP2 MSTORE PUSH1 0x40 DUP1 DUP4 KECCAK256 DUP2 MLOAD PUSH1 0xA0 DUP2 ADD DUP4 MSTORE DUP2 SLOAD DUP2 MSTORE PUSH1 0x1 DUP3 ADD SLOAD DUP2 DUP6 ADD MSTORE PUSH1 0x2 DUP3 ADD SLOAD DUP2 DUP5 ADD MSTORE PUSH1 0x3 DUP3 ADD SLOAD PUSH1 0xFF AND ISZERO ISZERO PUSH1 0x60 DUP3 ADD MSTORE PUSH1 0x4 DUP3 ADD DUP1 SLOAD DUP5 MLOAD DUP2 DUP8 MUL DUP2 ADD DUP8 ADD SWAP1 SWAP6 MSTORE DUP1 DUP6 MSTORE SWAP2 SWAP6 SWAP3 SWAP5 PUSH1 0x80 DUP8 ADD SWAP5 SWAP4 SWAP2 SWAP3 SWAP2 SWAP1 DUP5 ADD JUMPDEST DUP3 DUP3 LT ISZERO PUSH2 0x117B JUMPI DUP4 DUP3 SWAP1 PUSH1 0x0 MSTORE PUSH1 0x20 PUSH1 0x0 KECCAK256 SWAP1 PUSH1 0x2 MUL ADD PUSH1 0x40 MLOAD DUP1 PUSH1 0x40 ADD PUSH1 0x40 MSTORE SWAP1 DUP2 PUSH1 0x0 DUP3 ADD SLOAD DUP2 MSTORE PUSH1 0x20 ADD PUSH1 0x1 DUP3 ADD SLOAD DUP2 MSTORE POP POP DUP2 MSTORE PUSH1 0x20 ADD SWAP1 PUSH1 0x1 ADD SWAP1 PUSH2 0x1135 JUMP JUMPDEST POP POP POP SWAP2 MSTORE POP POP DUP1 MLOAD PUSH1 0x60 DUP3 ADD MLOAD SWAP2 SWAP3 POP SWAP1 ISZERO PUSH2 0x11FC JUMPI PUSH1 0x20 DUP3 ADD MLOAD JUMPDEST DUP4 DUP4 PUSH1 0x80 ADD MLOAD DUP3 DUP2 MLOAD DUP2 LT PUSH2 0x11A9 JUMPI INVALID JUMPDEST PUSH1 0x20 MUL PUSH1 0x20 ADD ADD MLOAD PUSH1 0x0 ADD MLOAD GT PUSH2 0x11FA JUMPI PUSH2 0x11CD DUP4 PUSH1 0x80 ADD MLOAD DUP3 DUP2 MLOAD DUP2 LT PUSH2 0xFEA JUMPI INVALID JUMPDEST PUSH1 0x6 SLOAD SWAP1 SWAP3 POP PUSH2 0x11E2 SWAP1 PUSH2 0x6AB DUP4 PUSH1 0x1 PUSH2 0x1946 JUMP JUMPDEST SWAP1 POP DUP3 PUSH1 0x40 ADD MLOAD DUP2 EQ ISZERO PUSH2 0x11F5 JUMPI PUSH2 0x11FA JUMP JUMPDEST PUSH2 0x1198 JUMP JUMPDEST POP JUMPDEST SWAP5 SWAP4 POP POP POP POP JUMP JUMPDEST PUSH2 0x120C PUSH2 0x1C4D JUMP JUMPDEST PUSH1 0xA SLOAD PUSH1 0x1 PUSH1 0x1 PUSH1 0xA0 SHL SUB SWAP1 DUP2 AND SWAP2 AND EQ PUSH2 0x1239 JUMPI PUSH1 0x40 MLOAD PUSH3 0x461BCD PUSH1 0xE5 SHL DUP2 MSTORE PUSH1 0x4 ADD PUSH2 0x6ED SWAP1 PUSH2 0x212E JUMP JUMPDEST PUSH1 0x1 PUSH1 0x1 PUSH1 0xA0 SHL SUB DUP2 AND PUSH2 0x125F JUMPI PUSH1 0x40 MLOAD PUSH3 0x461BCD PUSH1 0xE5 SHL DUP2 MSTORE PUSH1 0x4 ADD PUSH2 0x6ED SWAP1 PUSH2 0x1FF2 JUMP JUMPDEST PUSH1 0xA SLOAD PUSH1 0x40 MLOAD PUSH1 0x1 PUSH1 0x1 PUSH1 0xA0 SHL SUB DUP1 DUP5 AND SWAP3 AND SWAP1 PUSH32 0x8BE0079C531659141344CD1FD0A4F28419497F9722A3DAAFE3B4186F6B6457E0 SWAP1 PUSH1 0x0 SWAP1 LOG3 PUSH1 0xA DUP1 SLOAD PUSH1 0x1 PUSH1 0x1 PUSH1 0xA0 SHL SUB NOT AND PUSH1 0x1 PUSH1 0x1 PUSH1 0xA0 SHL SUB SWAP3 SWAP1 SWAP3 AND SWAP2 SWAP1 SWAP2 OR SWAP1 SSTORE JUMP JUMPDEST PUSH1 0xC PUSH1 0x0 PUSH2 0x12C7 PUSH2 0x1C4D JUMP JUMPDEST PUSH1 0x1 PUSH1 0x1 PUSH1 0xA0 SHL SUB AND DUP2 MSTORE PUSH1 0x20 DUP2 ADD SWAP2 SWAP1 SWAP2 MSTORE PUSH1 0x40 ADD PUSH1 0x0 KECCAK256 SLOAD PUSH1 0xFF AND PUSH2 0x1300 JUMPI PUSH1 0x40 MLOAD PUSH3 0x461BCD PUSH1 0xE5 SHL DUP2 MSTORE PUSH1 0x4 ADD PUSH2 0x6ED SWAP1 PUSH2 0x2163 JUMP JUMPDEST PUSH1 0x0 PUSH2 0x130A PUSH2 0x192A JUMP JUMPDEST PUSH1 0x1 PUSH1 0x1 PUSH1 0xA0 SHL SUB DUP5 AND PUSH1 0x0 SWAP1 DUP2 MSTORE PUSH1 0x8 PUSH1 0x20 MSTORE PUSH1 0x40 SWAP1 KECCAK256 PUSH1 0x4 DUP2 ADD SLOAD SWAP2 SWAP3 POP SWAP1 PUSH2 0x1390 JUMPI PUSH1 0x40 DUP1 MLOAD DUP1 DUP3 ADD SWAP1 SWAP2 MSTORE DUP3 DUP2 MSTORE PUSH1 0x20 DUP1 DUP3 ADD DUP6 DUP2 MSTORE PUSH1 0x4 DUP5 ADD DUP1 SLOAD PUSH1 0x1 DUP2 DUP2 ADD DUP4 SSTORE PUSH1 0x0 SWAP3 DUP4 MSTORE SWAP4 DUP3 KECCAK256 SWAP5 MLOAD PUSH1 0x2 SWAP2 DUP3 MUL SWAP1 SWAP6 ADD SWAP5 DUP6 SSTORE SWAP2 MLOAD SWAP4 DUP4 ADD SWAP4 SWAP1 SWAP4 SSTORE DUP2 DUP5 ADD SWAP3 SWAP1 SWAP3 SSTORE SWAP1 DUP3 ADD DUP2 SWAP1 SSTORE PUSH1 0x3 DUP3 ADD DUP1 SLOAD PUSH1 0xFF NOT AND SWAP1 SWAP2 OR SWAP1 SSTORE PUSH2 0x160C JUMP JUMPDEST PUSH1 0x3 DUP2 ADD SLOAD PUSH1 0xFF AND ISZERO PUSH2 0x1537 JUMPI PUSH1 0x0 DUP2 PUSH1 0x2 ADD SLOAD PUSH1 0x0 EQ ISZERO PUSH2 0x13BB JUMPI POP PUSH1 0x4 DUP2 ADD SLOAD PUSH1 0x0 NOT ADD PUSH2 0x13CE JUMP JUMPDEST PUSH1 0x2 DUP3 ADD SLOAD PUSH2 0x13CB SWAP1 PUSH1 0x1 PUSH2 0x18E8 JUMP JUMPDEST SWAP1 POP JUMPDEST DUP3 DUP3 PUSH1 0x4 ADD DUP3 DUP2 SLOAD DUP2 LT PUSH2 0x13DE JUMPI INVALID JUMPDEST SWAP1 PUSH1 0x0 MSTORE PUSH1 0x20 PUSH1 0x0 KECCAK256 SWAP1 PUSH1 0x2 MUL ADD PUSH1 0x0 ADD SLOAD LT PUSH2 0x1451 JUMPI PUSH2 0x1428 DUP5 DUP4 PUSH1 0x4 ADD DUP4 DUP2 SLOAD DUP2 LT PUSH2 0x1408 JUMPI INVALID JUMPDEST SWAP1 PUSH1 0x0 MSTORE PUSH1 0x20 PUSH1 0x0 KECCAK256 SWAP1 PUSH1 0x2 MUL ADD PUSH1 0x1 ADD SLOAD PUSH2 0x1946 SWAP1 SWAP2 SWAP1 PUSH4 0xFFFFFFFF AND JUMP JUMPDEST DUP3 PUSH1 0x4 ADD DUP3 DUP2 SLOAD DUP2 LT PUSH2 0x1437 JUMPI INVALID JUMPDEST SWAP1 PUSH1 0x0 MSTORE PUSH1 0x20 PUSH1 0x0 KECCAK256 SWAP1 PUSH1 0x2 MUL ADD PUSH1 0x1 ADD DUP2 SWAP1 SSTORE POP PUSH2 0x1531 JUMP JUMPDEST PUSH1 0x6 SLOAD PUSH1 0x4 DUP4 ADD SLOAD LT ISZERO PUSH2 0x14A0 JUMPI PUSH1 0x40 DUP1 MLOAD DUP1 DUP3 ADD SWAP1 SWAP2 MSTORE DUP4 DUP2 MSTORE PUSH1 0x20 DUP1 DUP3 ADD DUP7 DUP2 MSTORE PUSH1 0x4 DUP6 ADD DUP1 SLOAD PUSH1 0x1 DUP2 DUP2 ADD DUP4 SSTORE PUSH1 0x0 SWAP3 DUP4 MSTORE SWAP4 SWAP1 SWAP2 KECCAK256 SWAP4 MLOAD PUSH1 0x2 SWAP1 SWAP2 MUL SWAP1 SWAP4 ADD SWAP3 DUP4 SSTORE MLOAD SWAP2 ADD SSTORE PUSH2 0x150D JUMP JUMPDEST DUP2 PUSH1 0x2 ADD SLOAD DUP3 PUSH1 0x1 ADD SLOAD EQ ISZERO PUSH2 0x14BA JUMPI PUSH2 0x14BA DUP3 DUP5 PUSH2 0x19AD JUMP JUMPDEST DUP3 DUP3 PUSH1 0x4 ADD DUP4 PUSH1 0x2 ADD SLOAD DUP2 SLOAD DUP2 LT PUSH2 0x14CE JUMPI INVALID JUMPDEST SWAP1 PUSH1 0x0 MSTORE PUSH1 0x20 PUSH1 0x0 KECCAK256 SWAP1 PUSH1 0x2 MUL ADD PUSH1 0x0 ADD DUP2 SWAP1 SSTORE POP DUP4 DUP3 PUSH1 0x4 ADD DUP4 PUSH1 0x2 ADD SLOAD DUP2 SLOAD DUP2 LT PUSH2 0x14F7 JUMPI INVALID JUMPDEST SWAP1 PUSH1 0x0 MSTORE PUSH1 0x20 PUSH1 0x0 KECCAK256 SWAP1 PUSH1 0x2 MUL ADD PUSH1 0x1 ADD DUP2 SWAP1 SSTORE POP JUMPDEST PUSH2 0x152B PUSH1 0x6 SLOAD PUSH2 0x6AB PUSH1 0x1 DUP6 PUSH1 0x2 ADD SLOAD PUSH2 0x1946 SWAP1 SWAP2 SWAP1 PUSH4 0xFFFFFFFF AND JUMP JUMPDEST PUSH1 0x2 DUP4 ADD SSTORE JUMPDEST POP PUSH2 0x160C JUMP JUMPDEST PUSH1 0x6 SLOAD PUSH1 0x4 DUP3 ADD SLOAD LT ISZERO PUSH2 0x1586 JUMPI PUSH1 0x40 DUP1 MLOAD DUP1 DUP3 ADD SWAP1 SWAP2 MSTORE DUP3 DUP2 MSTORE PUSH1 0x20 DUP1 DUP3 ADD DUP6 DUP2 MSTORE PUSH1 0x4 DUP5 ADD DUP1 SLOAD PUSH1 0x1 DUP2 DUP2 ADD DUP4 SSTORE PUSH1 0x0 SWAP3 DUP4 MSTORE SWAP4 SWAP1 SWAP2 KECCAK256 SWAP4 MLOAD PUSH1 0x2 SWAP1 SWAP2 MUL SWAP1 SWAP4 ADD SWAP3 DUP4 SSTORE MLOAD SWAP2 ADD SSTORE PUSH2 0x15D9 JUMP JUMPDEST DUP2 DUP2 PUSH1 0x4 ADD DUP3 PUSH1 0x2 ADD SLOAD DUP2 SLOAD DUP2 LT PUSH2 0x159A JUMPI INVALID JUMPDEST SWAP1 PUSH1 0x0 MSTORE PUSH1 0x20 PUSH1 0x0 KECCAK256 SWAP1 PUSH1 0x2 MUL ADD PUSH1 0x0 ADD DUP2 SWAP1 SSTORE POP DUP3 DUP2 PUSH1 0x4 ADD DUP3 PUSH1 0x2 ADD SLOAD DUP2 SLOAD DUP2 LT PUSH2 0x15C3 JUMPI INVALID JUMPDEST SWAP1 PUSH1 0x0 MSTORE PUSH1 0x20 PUSH1 0x0 KECCAK256 SWAP1 PUSH1 0x2 MUL ADD PUSH1 0x1 ADD DUP2 SWAP1 SSTORE POP JUMPDEST PUSH2 0x15F7 PUSH1 0x6 SLOAD PUSH2 0x6AB PUSH1 0x1 DUP5 PUSH1 0x2 ADD SLOAD PUSH2 0x1946 SWAP1 SWAP2 SWAP1 PUSH4 0xFFFFFFFF AND JUMP JUMPDEST PUSH1 0x2 DUP3 ADD SSTORE PUSH1 0x3 DUP2 ADD DUP1 SLOAD PUSH1 0xFF NOT AND PUSH1 0x1 OR SWAP1 SSTORE JUMPDEST PUSH32 0xD185E4940A36E5F27549DE4C89AB5D6D8BA2BBF01C48B4DF813C0E73B123CBAB DUP5 DUP5 PUSH1 0x40 MLOAD PUSH2 0x9C3 SWAP3 SWAP2 SWAP1 PUSH2 0x1F44 JUMP JUMPDEST PUSH1 0x0 DUP1 PUSH2 0x1648 PUSH2 0x192A JUMP JUMPDEST SWAP1 POP PUSH1 0x0 PUSH2 0x1661 PUSH1 0x6 SLOAD DUP4 PUSH2 0x18E8 SWAP1 SWAP2 SWAP1 PUSH4 0xFFFFFFFF AND JUMP JUMPDEST SWAP1 POP PUSH2 0x166B PUSH2 0x1CE8 JUMP JUMPDEST PUSH1 0x1 PUSH1 0x1 PUSH1 0xA0 SHL SUB DUP6 AND PUSH1 0x0 SWAP1 DUP2 MSTORE PUSH1 0x8 PUSH1 0x20 SWAP1 DUP2 MSTORE PUSH1 0x40 DUP1 DUP4 KECCAK256 DUP2 MLOAD PUSH1 0xA0 DUP2 ADD DUP4 MSTORE DUP2 SLOAD DUP2 MSTORE PUSH1 0x1 DUP3 ADD SLOAD DUP2 DUP6 ADD MSTORE PUSH1 0x2 DUP3 ADD SLOAD DUP2 DUP5 ADD MSTORE PUSH1 0x3 DUP3 ADD SLOAD PUSH1 0xFF AND ISZERO ISZERO PUSH1 0x60 DUP3 ADD MSTORE PUSH1 0x4 DUP3 ADD DUP1 SLOAD DUP5 MLOAD DUP2 DUP8 MUL DUP2 ADD DUP8 ADD SWAP1 SWAP6 MSTORE DUP1 DUP6 MSTORE SWAP2 SWAP6 SWAP3 SWAP5 PUSH1 0x80 DUP8 ADD SWAP5 SWAP4 SWAP2 SWAP3 SWAP2 SWAP1 DUP5 ADD JUMPDEST DUP3 DUP3 LT ISZERO PUSH2 0x171F JUMPI DUP4 DUP3 SWAP1 PUSH1 0x0 MSTORE PUSH1 0x20 PUSH1 0x0 KECCAK256 SWAP1 PUSH1 0x2 MUL ADD PUSH1 0x40 MLOAD DUP1 PUSH1 0x40 ADD PUSH1 0x40 MSTORE SWAP1 DUP2 PUSH1 0x0 DUP3 ADD SLOAD DUP2 MSTORE PUSH1 0x20 ADD PUSH1 0x1 DUP3 ADD SLOAD DUP2 MSTORE POP POP DUP2 MSTORE PUSH1 0x20 ADD SWAP1 PUSH1 0x1 ADD SWAP1 PUSH2 0x16D9 JUMP JUMPDEST POP POP POP SWAP2 MSTORE POP POP DUP1 MLOAD PUSH1 0x60 DUP3 ADD MLOAD SWAP2 SWAP3 POP SWAP1 ISZERO PUSH2 0x1863 JUMPI PUSH1 0x6 SLOAD PUSH1 0x0 SWAP1 PUSH2 0x1747 SWAP1 PUSH1 0x1 PUSH2 0x1946 JUMP JUMPDEST PUSH1 0x20 DUP5 ADD MLOAD SWAP1 SWAP2 POP JUMPDEST DUP5 DUP5 PUSH1 0x80 ADD MLOAD DUP3 DUP2 MLOAD DUP2 LT PUSH2 0x1761 JUMPI INVALID JUMPDEST PUSH1 0x20 MUL PUSH1 0x20 ADD ADD MLOAD PUSH1 0x0 ADD MLOAD GT ISZERO PUSH2 0x1805 JUMPI PUSH1 0x0 PUSH2 0x17B5 DUP4 PUSH2 0x5E7 PUSH5 0xE8D4A51000 PUSH2 0x413 PUSH1 0x1 PUSH2 0x5E1 DUP12 PUSH1 0x80 ADD MLOAD DUP10 DUP2 MLOAD DUP2 LT PUSH2 0x179A JUMPI INVALID JUMPDEST PUSH1 0x20 MUL PUSH1 0x20 ADD ADD MLOAD PUSH1 0x0 ADD MLOAD DUP15 PUSH2 0x18E8 SWAP1 SWAP2 SWAP1 PUSH4 0xFFFFFFFF AND JUMP JUMPDEST SWAP1 POP PUSH1 0x0 PUSH2 0x17F0 PUSH5 0xE8D4A51000 PUSH2 0x5E7 DUP5 DUP10 PUSH1 0x80 ADD MLOAD DUP8 DUP2 MLOAD DUP2 LT PUSH2 0x17D6 JUMPI INVALID JUMPDEST PUSH1 0x20 MUL PUSH1 0x20 ADD ADD MLOAD PUSH1 0x20 ADD MLOAD PUSH2 0x186C SWAP1 SWAP2 SWAP1 PUSH4 0xFFFFFFFF AND JUMP JUMPDEST SWAP1 POP PUSH2 0x17FC DUP6 DUP3 PUSH2 0x1946 JUMP JUMPDEST SWAP5 POP POP POP PUSH2 0x1836 JUMP JUMPDEST PUSH2 0x1833 DUP5 PUSH1 0x80 ADD MLOAD DUP3 DUP2 MLOAD DUP2 LT PUSH2 0x1818 JUMPI INVALID JUMPDEST PUSH1 0x20 MUL PUSH1 0x20 ADD ADD MLOAD PUSH1 0x20 ADD MLOAD DUP5 PUSH2 0x1946 SWAP1 SWAP2 SWAP1 PUSH4 0xFFFFFFFF AND JUMP JUMPDEST SWAP3 POP JUMPDEST PUSH1 0x6 SLOAD PUSH2 0x1848 SWAP1 PUSH2 0x6AB DUP4 PUSH1 0x1 PUSH2 0x1946 JUMP JUMPDEST SWAP1 POP DUP4 PUSH1 0x40 ADD MLOAD DUP2 EQ ISZERO PUSH2 0x185B JUMPI PUSH2 0x1860 JUMP JUMPDEST PUSH2 0x1750 JUMP JUMPDEST POP POP JUMPDEST SWAP6 SWAP5 POP POP POP POP POP JUMP JUMPDEST PUSH1 0x0 DUP3 PUSH2 0x187B JUMPI POP PUSH1 0x0 PUSH2 0xC32 JUMP JUMPDEST DUP3 DUP3 MUL DUP3 DUP5 DUP3 DUP2 PUSH2 0x1888 JUMPI INVALID JUMPDEST DIV EQ PUSH2 0x1034 JUMPI PUSH1 0x40 MLOAD PUSH3 0x461BCD PUSH1 0xE5 SHL DUP2 MSTORE PUSH1 0x4 ADD PUSH2 0x6ED SWAP1 PUSH2 0x20A6 JUMP JUMPDEST PUSH1 0x0 PUSH2 0x1034 DUP4 DUP4 PUSH1 0x40 MLOAD DUP1 PUSH1 0x40 ADD PUSH1 0x40 MSTORE DUP1 PUSH1 0x1A DUP2 MSTORE PUSH1 0x20 ADD PUSH32 0x536166654D6174683A206469766973696F6E206279207A65726F000000000000 DUP2 MSTORE POP PUSH2 0x1C51 JUMP JUMPDEST PUSH1 0x0 PUSH2 0x1034 DUP4 DUP4 PUSH1 0x40 MLOAD DUP1 PUSH1 0x40 ADD PUSH1 0x40 MSTORE DUP1 PUSH1 0x1E DUP2 MSTORE PUSH1 0x20 ADD PUSH32 0x536166654D6174683A207375627472616374696F6E206F766572666C6F770000 DUP2 MSTORE POP PUSH2 0x1C88 JUMP JUMPDEST PUSH1 0x0 PUSH2 0x1941 PUSH1 0x7 SLOAD TIMESTAMP PUSH2 0x18A6 SWAP1 SWAP2 SWAP1 PUSH4 0xFFFFFFFF AND JUMP JUMPDEST SWAP1 POP SWAP1 JUMP JUMPDEST PUSH1 0x0 DUP3 DUP3 ADD DUP4 DUP2 LT ISZERO PUSH2 0x1034 JUMPI PUSH1 0x40 MLOAD PUSH3 0x461BCD PUSH1 0xE5 SHL DUP2 MSTORE PUSH1 0x4 ADD PUSH2 0x6ED SWAP1 PUSH2 0x2038 JUMP JUMPDEST PUSH1 0x0 PUSH2 0x1034 DUP4 DUP4 PUSH1 0x40 MLOAD DUP1 PUSH1 0x40 ADD PUSH1 0x40 MSTORE DUP1 PUSH1 0x18 DUP2 MSTORE PUSH1 0x20 ADD PUSH32 0x536166654D6174683A206D6F64756C6F206279207A65726F0000000000000000 DUP2 MSTORE POP PUSH2 0x1CB4 JUMP JUMPDEST PUSH1 0x0 PUSH2 0x19C4 PUSH1 0x6 SLOAD DUP4 PUSH2 0x18E8 SWAP1 SWAP2 SWAP1 PUSH4 0xFFFFFFFF AND JUMP JUMPDEST PUSH1 0x1 DUP5 ADD SLOAD SWAP1 SWAP2 POP JUMPDEST PUSH1 0x3 DUP5 ADD SLOAD PUSH1 0xFF AND DUP1 ISZERO PUSH2 0x1A01 JUMPI POP DUP2 DUP5 PUSH1 0x4 ADD DUP3 DUP2 SLOAD DUP2 LT PUSH2 0x19EC JUMPI INVALID JUMPDEST SWAP1 PUSH1 0x0 MSTORE PUSH1 0x20 PUSH1 0x0 KECCAK256 SWAP1 PUSH1 0x2 MUL ADD PUSH1 0x0 ADD SLOAD GT ISZERO JUMPDEST ISZERO PUSH2 0x1A68 JUMPI PUSH2 0x1A34 DUP5 PUSH1 0x4 ADD DUP3 DUP2 SLOAD DUP2 LT PUSH2 0x1A18 JUMPI INVALID JUMPDEST PUSH1 0x0 SWAP2 DUP3 MSTORE PUSH1 0x20 SWAP1 SWAP2 KECCAK256 PUSH1 0x1 PUSH1 0x2 SWAP1 SWAP3 MUL ADD ADD SLOAD DUP6 SLOAD SWAP1 PUSH2 0x1946 JUMP JUMPDEST DUP5 SSTORE PUSH1 0x6 SLOAD PUSH2 0x1A48 SWAP1 PUSH2 0x6AB DUP4 PUSH1 0x1 PUSH2 0x1946 JUMP JUMPDEST SWAP1 POP DUP4 PUSH1 0x2 ADD SLOAD DUP2 EQ ISZERO PUSH2 0x1A63 JUMPI PUSH1 0x3 DUP5 ADD DUP1 SLOAD PUSH1 0xFF NOT AND SWAP1 SSTORE JUMPDEST PUSH2 0x19CD JUMP JUMPDEST PUSH1 0x1 SWAP1 SWAP4 ADD SWAP3 SWAP1 SWAP3 SSTORE POP POP JUMP JUMPDEST DUP2 ISZERO PUSH2 0xAD4 JUMPI PUSH1 0xB PUSH1 0x0 SWAP1 SLOAD SWAP1 PUSH2 0x100 EXP SWAP1 DIV PUSH1 0x1 PUSH1 0x1 PUSH1 0xA0 SHL SUB AND PUSH1 0x1 PUSH1 0x1 PUSH1 0xA0 SHL SUB AND PUSH4 0xD5ABEB01 PUSH1 0x40 MLOAD DUP2 PUSH4 0xFFFFFFFF AND PUSH1 0xE0 SHL DUP2 MSTORE PUSH1 0x4 ADD PUSH1 0x20 PUSH1 0x40 MLOAD DUP1 DUP4 SUB DUP2 DUP7 DUP1 EXTCODESIZE ISZERO DUP1 ISZERO PUSH2 0x1AC9 JUMPI PUSH1 0x0 DUP1 REVERT JUMPDEST POP GAS STATICCALL ISZERO DUP1 ISZERO PUSH2 0x1ADD JUMPI RETURNDATASIZE PUSH1 0x0 DUP1 RETURNDATACOPY RETURNDATASIZE PUSH1 0x0 REVERT JUMPDEST POP POP POP POP PUSH1 0x40 MLOAD RETURNDATASIZE PUSH1 0x1F NOT PUSH1 0x1F DUP3 ADD AND DUP3 ADD DUP1 PUSH1 0x40 MSTORE POP DUP2 ADD SWAP1 PUSH2 0x1B01 SWAP2 SWAP1 PUSH2 0x1EF7 JUMP JUMPDEST PUSH1 0xB SLOAD PUSH1 0x40 DUP1 MLOAD PUSH4 0x18160DDD PUSH1 0xE0 SHL DUP2 MSTORE SWAP1 MLOAD PUSH2 0x1B86 SWAP3 PUSH1 0x1 PUSH1 0x1 PUSH1 0xA0 SHL SUB AND SWAP2 PUSH4 0x18160DDD SWAP2 PUSH1 0x4 DUP1 DUP4 ADD SWAP3 PUSH1 0x20 SWAP3 SWAP2 SWAP1 DUP3 SWAP1 SUB ADD DUP2 DUP7 DUP1 EXTCODESIZE ISZERO DUP1 ISZERO PUSH2 0x1B47 JUMPI PUSH1 0x0 DUP1 REVERT JUMPDEST POP GAS STATICCALL ISZERO DUP1 ISZERO PUSH2 0x1B5B JUMPI RETURNDATASIZE PUSH1 0x0 DUP1 RETURNDATACOPY RETURNDATASIZE PUSH1 0x0 REVERT JUMPDEST POP POP POP POP PUSH1 0x40 MLOAD RETURNDATASIZE PUSH1 0x1F NOT PUSH1 0x1F DUP3 ADD AND DUP3 ADD DUP1 PUSH1 0x40 MSTORE POP DUP2 ADD SWAP1 PUSH2 0x1B7F SWAP2 SWAP1 PUSH2 0x1EF7 JUMP JUMPDEST DUP5 SWAP1 PUSH2 0x1946 JUMP JUMPDEST GT ISZERO PUSH2 0x1BA4 JUMPI PUSH1 0x40 MLOAD PUSH3 0x461BCD PUSH1 0xE5 SHL DUP2 MSTORE PUSH1 0x4 ADD PUSH2 0x6ED SWAP1 PUSH2 0x20E7 JUMP JUMPDEST PUSH1 0xB SLOAD PUSH1 0x40 MLOAD PUSH4 0x219E412D PUSH1 0xE2 SHL DUP2 MSTORE PUSH1 0x1 PUSH1 0x1 PUSH1 0xA0 SHL SUB SWAP1 SWAP2 AND SWAP1 PUSH4 0x867904B4 SWAP1 PUSH2 0x1BD6 SWAP1 DUP7 SWAP1 DUP7 SWAP1 PUSH1 0x4 ADD PUSH2 0x1F44 JUMP JUMPDEST PUSH1 0x20 PUSH1 0x40 MLOAD DUP1 DUP4 SUB DUP2 PUSH1 0x0 DUP8 DUP1 EXTCODESIZE ISZERO DUP1 ISZERO PUSH2 0x1BF0 JUMPI PUSH1 0x0 DUP1 REVERT JUMPDEST POP GAS CALL ISZERO DUP1 ISZERO PUSH2 0x1C04 JUMPI RETURNDATASIZE PUSH1 0x0 DUP1 RETURNDATACOPY RETURNDATASIZE PUSH1 0x0 REVERT JUMPDEST POP POP POP POP PUSH1 0x40 MLOAD RETURNDATASIZE PUSH1 0x1F NOT PUSH1 0x1F DUP3 ADD AND DUP3 ADD DUP1 PUSH1 0x40 MSTORE POP DUP2 ADD SWAP1 PUSH2 0x1C28 SWAP2 SWAP1 PUSH2 0x1EBF JUMP JUMPDEST DUP2 SWAP1 PUSH2 0x1C47 JUMPI PUSH1 0x40 MLOAD PUSH3 0x461BCD PUSH1 0xE5 SHL DUP2 MSTORE PUSH1 0x4 ADD PUSH2 0x6ED SWAP2 SWAP1 PUSH2 0x1F68 JUMP JUMPDEST POP POP POP POP JUMP JUMPDEST CALLER SWAP1 JUMP JUMPDEST PUSH1 0x0 DUP2 DUP4 PUSH2 0x1C72 JUMPI PUSH1 0x40 MLOAD PUSH3 0x461BCD PUSH1 0xE5 SHL DUP2 MSTORE PUSH1 0x4 ADD PUSH2 0x6ED SWAP2 SWAP1 PUSH2 0x1F68 JUMP JUMPDEST POP PUSH1 0x0 DUP4 DUP6 DUP2 PUSH2 0x1C7E JUMPI INVALID JUMPDEST DIV SWAP6 SWAP5 POP POP POP POP POP JUMP JUMPDEST PUSH1 0x0 DUP2 DUP5 DUP5 GT ISZERO PUSH2 0x1CAC JUMPI PUSH1 0x40 MLOAD PUSH3 0x461BCD PUSH1 0xE5 SHL DUP2 MSTORE PUSH1 0x4 ADD PUSH2 0x6ED SWAP2 SWAP1 PUSH2 0x1F68 JUMP JUMPDEST POP POP POP SWAP1 SUB SWAP1 JUMP JUMPDEST PUSH1 0x0 DUP2 DUP4 PUSH2 0x1CD5 JUMPI PUSH1 0x40 MLOAD PUSH3 0x461BCD PUSH1 0xE5 SHL DUP2 MSTORE PUSH1 0x4 ADD PUSH2 0x6ED SWAP2 SWAP1 PUSH2 0x1F68 JUMP JUMPDEST POP DUP3 DUP5 DUP2 PUSH2 0x1CDF JUMPI INVALID JUMPDEST MOD SWAP5 SWAP4 POP POP POP POP JUMP JUMPDEST PUSH1 0x40 MLOAD DUP1 PUSH1 0xA0 ADD PUSH1 0x40 MSTORE DUP1 PUSH1 0x0 DUP2 MSTORE PUSH1 0x20 ADD PUSH1 0x0 DUP2 MSTORE PUSH1 0x20 ADD PUSH1 0x0 DUP2 MSTORE PUSH1 0x20 ADD PUSH1 0x0 ISZERO ISZERO DUP2 MSTORE PUSH1 0x20 ADD PUSH1 0x60 DUP2 MSTORE POP SWAP1 JUMP JUMPDEST PUSH1 0x40 MLOAD DUP1 PUSH1 0x40 ADD PUSH1 0x40 MSTORE DUP1 PUSH1 0x0 DUP2 MSTORE PUSH1 0x20 ADD PUSH1 0x0 DUP2 MSTORE POP SWAP1 JUMP JUMPDEST DUP1 CALLDATALOAD PUSH1 0x1 PUSH1 0x1 PUSH1 0xA0 SHL SUB DUP2 AND DUP2 EQ PUSH2 0xC32 JUMPI PUSH1 0x0 DUP1 REVERT JUMPDEST PUSH1 0x0 DUP3 PUSH1 0x1F DUP4 ADD SLT PUSH2 0x1D5A JUMPI DUP1 DUP2 REVERT JUMPDEST DUP2 CALLDATALOAD PUSH2 0x1D6D PUSH2 0x1D68 DUP3 PUSH2 0x235A JUMP JUMPDEST PUSH2 0x2333 JUMP JUMPDEST DUP2 DUP2 MSTORE SWAP2 POP PUSH1 0x20 DUP1 DUP4 ADD SWAP1 DUP5 DUP2 ADD DUP2 DUP5 MUL DUP7 ADD DUP3 ADD DUP8 LT ISZERO PUSH2 0x1D8E JUMPI PUSH1 0x0 DUP1 REVERT JUMPDEST PUSH1 0x0 JUMPDEST DUP5 DUP2 LT ISZERO PUSH2 0x1DAD JUMPI DUP2 CALLDATALOAD DUP5 MSTORE SWAP3 DUP3 ADD SWAP3 SWAP1 DUP3 ADD SWAP1 PUSH1 0x1 ADD PUSH2 0x1D91 JUMP JUMPDEST POP POP POP POP POP SWAP3 SWAP2 POP POP JUMP JUMPDEST PUSH1 0x0 PUSH1 0x20 DUP3 DUP5 SUB SLT ISZERO PUSH2 0x1DC9 JUMPI DUP1 DUP2 REVERT JUMPDEST PUSH2 0x1034 DUP4 DUP4 PUSH2 0x1D33 JUMP JUMPDEST PUSH1 0x0 DUP1 PUSH1 0x40 DUP4 DUP6 SUB SLT ISZERO PUSH2 0x1DE5 JUMPI DUP1 DUP2 REVERT JUMPDEST PUSH2 0x1DEF DUP5 DUP5 PUSH2 0x1D33 JUMP JUMPDEST SWAP5 PUSH1 0x20 SWAP4 SWAP1 SWAP4 ADD CALLDATALOAD SWAP4 POP POP POP JUMP JUMPDEST PUSH1 0x0 DUP1 PUSH1 0x40 DUP4 DUP6 SUB SLT ISZERO PUSH2 0x1E0F JUMPI DUP2 DUP3 REVERT JUMPDEST DUP3 CALLDATALOAD PUSH8 0xFFFFFFFFFFFFFFFF DUP1 DUP3 GT ISZERO PUSH2 0x1E26 JUMPI DUP4 DUP5 REVERT JUMPDEST DUP2 DUP6 ADD SWAP2 POP DUP6 PUSH1 0x1F DUP4 ADD SLT PUSH2 0x1E39 JUMPI DUP4 DUP5 REVERT JUMPDEST DUP2 CALLDATALOAD PUSH2 0x1E47 PUSH2 0x1D68 DUP3 PUSH2 0x235A JUMP JUMPDEST DUP1 DUP3 DUP3 MSTORE PUSH1 0x20 DUP1 DUP4 ADD SWAP3 POP DUP1 DUP7 ADD DUP11 DUP3 DUP4 DUP8 MUL DUP10 ADD ADD GT ISZERO PUSH2 0x1E67 JUMPI DUP9 DUP10 REVERT JUMPDEST DUP9 SWAP7 POP JUMPDEST DUP5 DUP8 LT ISZERO PUSH2 0x1E91 JUMPI PUSH2 0x1E7D DUP12 DUP3 PUSH2 0x1D33 JUMP JUMPDEST DUP5 MSTORE PUSH1 0x1 SWAP7 SWAP1 SWAP7 ADD SWAP6 SWAP3 DUP2 ADD SWAP3 DUP2 ADD PUSH2 0x1E6B JUMP JUMPDEST POP SWAP1 SWAP7 POP DUP8 ADD CALLDATALOAD SWAP4 POP POP POP DUP1 DUP3 GT ISZERO PUSH2 0x1EA8 JUMPI DUP3 DUP4 REVERT JUMPDEST POP PUSH2 0x1EB5 DUP6 DUP3 DUP7 ADD PUSH2 0x1D4A JUMP JUMPDEST SWAP2 POP POP SWAP3 POP SWAP3 SWAP1 POP JUMP JUMPDEST PUSH1 0x0 PUSH1 0x20 DUP3 DUP5 SUB SLT ISZERO PUSH2 0x1ED0 JUMPI DUP1 DUP2 REVERT JUMPDEST DUP2 MLOAD DUP1 ISZERO ISZERO DUP2 EQ PUSH2 0x1034 JUMPI DUP2 DUP3 REVERT JUMPDEST PUSH1 0x0 PUSH1 0x20 DUP3 DUP5 SUB SLT ISZERO PUSH2 0x1EF0 JUMPI DUP1 DUP2 REVERT JUMPDEST POP CALLDATALOAD SWAP2 SWAP1 POP JUMP JUMPDEST PUSH1 0x0 PUSH1 0x20 DUP3 DUP5 SUB SLT ISZERO PUSH2 0x1F08 JUMPI DUP1 DUP2 REVERT JUMPDEST POP MLOAD SWAP2 SWAP1 POP JUMP JUMPDEST PUSH1 0x1 PUSH1 0x1 PUSH1 0xA0 SHL SUB SWAP2 SWAP1 SWAP2 AND DUP2 MSTORE PUSH1 0x20 ADD SWAP1 JUMP JUMPDEST PUSH1 0x1 PUSH1 0x1 PUSH1 0xA0 SHL SUB SWAP4 SWAP1 SWAP4 AND DUP4 MSTORE PUSH1 0x20 DUP4 ADD SWAP2 SWAP1 SWAP2 MSTORE PUSH1 0x40 DUP3 ADD MSTORE PUSH1 0x60 ADD SWAP1 JUMP JUMPDEST PUSH1 0x1 PUSH1 0x1 PUSH1 0xA0 SHL SUB SWAP3 SWAP1 SWAP3 AND DUP3 MSTORE PUSH1 0x20 DUP3 ADD MSTORE PUSH1 0x40 ADD SWAP1 JUMP JUMPDEST SWAP1 ISZERO ISZERO DUP2 MSTORE PUSH1 0x20 ADD SWAP1 JUMP JUMPDEST PUSH1 0x0 PUSH1 0x20 DUP1 DUP4 MSTORE DUP4 MLOAD DUP1 DUP3 DUP6 ADD MSTORE DUP3 JUMPDEST DUP2 DUP2 LT ISZERO PUSH2 0x1F94 JUMPI DUP6 DUP2 ADD DUP4 ADD MLOAD DUP6 DUP3 ADD PUSH1 0x40 ADD MSTORE DUP3 ADD PUSH2 0x1F78 JUMP JUMPDEST DUP2 DUP2 GT ISZERO PUSH2 0x1FA5 JUMPI DUP4 PUSH1 0x40 DUP4 DUP8 ADD ADD MSTORE JUMPDEST POP PUSH1 0x1F ADD PUSH1 0x1F NOT AND SWAP3 SWAP1 SWAP3 ADD PUSH1 0x40 ADD SWAP4 SWAP3 POP POP POP JUMP JUMPDEST PUSH1 0x20 DUP1 DUP3 MSTORE PUSH1 0x1C SWAP1 DUP3 ADD MSTORE PUSH32 0x4177617264436F6E74726163743A2064657620736F2067726565647900000000 PUSH1 0x40 DUP3 ADD MSTORE PUSH1 0x60 ADD SWAP1 JUMP JUMPDEST PUSH1 0x20 DUP1 DUP3 MSTORE PUSH1 0x26 SWAP1 DUP3 ADD MSTORE PUSH32 0x4F776E61626C653A206E6577206F776E657220697320746865207A65726F2061 PUSH1 0x40 DUP3 ADD MSTORE PUSH6 0x646472657373 PUSH1 0xD0 SHL PUSH1 0x60 DUP3 ADD MSTORE PUSH1 0x80 ADD SWAP1 JUMP JUMPDEST PUSH1 0x20 DUP1 DUP3 MSTORE PUSH1 0x1B SWAP1 DUP3 ADD MSTORE PUSH32 0x536166654D6174683A206164646974696F6E206F766572666C6F770000000000 PUSH1 0x40 DUP3 ADD MSTORE PUSH1 0x60 ADD SWAP1 JUMP JUMPDEST PUSH1 0x20 DUP1 DUP3 MSTORE PUSH1 0x1D SWAP1 DUP3 ADD MSTORE PUSH32 0x4177617264436F6E74726163743A20706172616D7320696E76616C6964000000 PUSH1 0x40 DUP3 ADD MSTORE PUSH1 0x60 ADD SWAP1 JUMP JUMPDEST PUSH1 0x20 DUP1 DUP3 MSTORE PUSH1 0x21 SWAP1 DUP3 ADD MSTORE PUSH32 0x536166654D6174683A206D756C7469706C69636174696F6E206F766572666C6F PUSH1 0x40 DUP3 ADD MSTORE PUSH1 0x77 PUSH1 0xF8 SHL PUSH1 0x60 DUP3 ADD MSTORE PUSH1 0x80 ADD SWAP1 JUMP JUMPDEST PUSH1 0x20 DUP1 DUP3 MSTORE PUSH1 0x27 SWAP1 DUP3 ADD MSTORE PUSH32 0x4177617264436F6E74726163743A206177617264732065786365656473206D61 PUSH1 0x40 DUP3 ADD MSTORE PUSH7 0x78537570706C79 PUSH1 0xC8 SHL PUSH1 0x60 DUP3 ADD MSTORE PUSH1 0x80 ADD SWAP1 JUMP JUMPDEST PUSH1 0x20 DUP1 DUP3 MSTORE DUP2 DUP2 ADD MSTORE PUSH32 0x4F776E61626C653A2063616C6C6572206973206E6F7420746865206F776E6572 PUSH1 0x40 DUP3 ADD MSTORE PUSH1 0x60 ADD SWAP1 JUMP JUMPDEST PUSH1 0x20 DUP1 DUP3 MSTORE PUSH1 0x29 SWAP1 DUP3 ADD MSTORE PUSH32 0x4177617264436F6E74726163743A2063616C6C6572206973206E6F7420746865 PUSH1 0x40 DUP3 ADD MSTORE PUSH9 0x1033B7BB32B93737B9 PUSH1 0xB9 SHL PUSH1 0x60 DUP3 ADD MSTORE PUSH1 0x80 ADD SWAP1 JUMP JUMPDEST PUSH1 0x20 DUP1 DUP3 MSTORE PUSH1 0x23 SWAP1 DUP3 ADD MSTORE PUSH32 0x4177617264436F6E74726163743A20496E73756666696369656E742042616C61 PUSH1 0x40 DUP3 ADD MSTORE PUSH3 0x6E6365 PUSH1 0xE8 SHL PUSH1 0x60 DUP3 ADD MSTORE PUSH1 0x80 ADD SWAP1 JUMP JUMPDEST PUSH1 0x20 DUP1 DUP3 MSTORE PUSH1 0x1B SWAP1 DUP3 ADD MSTORE PUSH32 0x4177617264436F6E74726163743A20756E617574686F72697A65640000000000 PUSH1 0x40 DUP3 ADD MSTORE PUSH1 0x60 ADD SWAP1 JUMP JUMPDEST PUSH1 0x20 DUP1 DUP3 MSTORE PUSH1 0x2A SWAP1 DUP3 ADD MSTORE PUSH32 0x4177617264436F6E74726163743A206F6E6C79206465762063616E2072656365 PUSH1 0x40 DUP3 ADD MSTORE PUSH10 0x69766520617761726473 PUSH1 0xB0 SHL PUSH1 0x60 DUP3 ADD MSTORE PUSH1 0x80 ADD SWAP1 JUMP JUMPDEST PUSH1 0x20 DUP1 DUP3 MSTORE DUP2 DUP2 ADD MSTORE PUSH32 0x4177617264436F6E74726163743A20696E63656E746976657320657863656564 PUSH1 0x40 DUP3 ADD MSTORE PUSH1 0x60 ADD SWAP1 JUMP JUMPDEST PUSH1 0x20 DUP1 DUP3 MSTORE PUSH1 0x31 SWAP1 DUP3 ADD MSTORE PUSH32 0x4177617264436F6E74726163743A206465762061776172647320657863656564 PUSH1 0x40 DUP3 ADD MSTORE PUSH17 0x81C195C9B5A5D1D195908185B5BDD5B9D PUSH1 0x7A SHL PUSH1 0x60 DUP3 ADD MSTORE PUSH1 0x80 ADD SWAP1 JUMP JUMPDEST DUP2 MLOAD DUP2 MSTORE PUSH1 0x20 SWAP2 DUP3 ADD MLOAD SWAP2 DUP2 ADD SWAP2 SWAP1 SWAP2 MSTORE PUSH1 0x40 ADD SWAP1 JUMP JUMPDEST SWAP1 DUP2 MSTORE PUSH1 0x20 ADD SWAP1 JUMP JUMPDEST SWAP4 DUP5 MSTORE PUSH1 0x20 DUP5 ADD SWAP3 SWAP1 SWAP3 MSTORE PUSH1 0x40 DUP4 ADD MSTORE ISZERO ISZERO PUSH1 0x60 DUP3 ADD MSTORE PUSH1 0x80 ADD SWAP1 JUMP JUMPDEST PUSH1 0x40 MLOAD DUP2 DUP2 ADD PUSH8 0xFFFFFFFFFFFFFFFF DUP2 GT DUP3 DUP3 LT OR ISZERO PUSH2 0x2352 JUMPI PUSH1 0x0 DUP1 REVERT JUMPDEST PUSH1 0x40 MSTORE SWAP2 SWAP1 POP JUMP JUMPDEST PUSH1 0x0 PUSH8 0xFFFFFFFFFFFFFFFF DUP3 GT ISZERO PUSH2 0x2370 JUMPI DUP1 DUP2 REVERT JUMPDEST POP PUSH1 0x20 SWAP1 DUP2 MUL ADD SWAP1 JUMP INVALID COINBASE PUSH24 0x617264436F6E74726163743A2064657620636C61696D2061 PUSH24 0x61726473206661696C65644177617264436F6E7472616374 GASPRICE KECCAK256 PUSH4 0x6C61696D KECCAK256 PUSH10 0x6E63656E746976657320 PUSH6 0x727241776172 PUSH5 0x436F6E7472 PUSH2 0x6374 GASPRICE KECCAK256 PUSH4 0x6C61696D KECCAK256 PUSH2 0x7761 PUSH19 0x6473206661696C6564A2646970667358221220 0xBB RETURNDATACOPY REVERT PUSH31 0xCEADC5DE43FA5354BFA6CBE4C808BF8EC6C129B475623E45BB67FD3164736F PUSH13 0x634300060C0033000000000000 "
		},
		"gasEstimates": {
			"creation": {
				"codeDepositCost": "1848600",
				"executionCost": "infinite",
				"totalCost": "infinite"
			},
			"external": {
				"MaxAvailAwards()": "1073",
				"addAward(address,uint256)": "infinite",
				"addFreeAward(address,uint256)": "23744",
				"addGovernor(address)": "22184",
				"batchAddAwards(address[],uint256[])": "infinite",
				"claimDevAwards()": "infinite",
				"claimIncentives(address,uint256)": "infinite",
				"destroy(uint256)": "infinite",
				"dev()": "1116",
				"devAccAwards()": "1096",
				"devPerBlock()": "1097",
				"devStartBlock()": "1095",
				"epUnit()": "1096",
				"estimateTax(uint256)": "infinite",
				"freedIncentives()": "1073",
				"getCurrentFreeAwards(address)": "infinite",
				"getTaxInfo(address,uint256)": "infinite",
				"getUserAvailAwards(address)": "infinite",
				"getUserTotalAwards(address)": "infinite",
				"governors(address)": "1358",
				"owner()": "1181",
				"pendingIncentives()": "infinite",
				"platformToken()": "1181",
				"removeGovernor(address)": "22199",
				"renounceOwnership()": "24246",
				"taxEpoch()": "1117",
				"transferOwnership(address)": "24510",
				"treasury()": "1160",
				"userInfo(address)": "3868",
				"withdraw(uint256)": "infinite"
			},
			"internal": {
				"getCurrEpoch()": "infinite",
				"rebase(struct AwardInfo.UserInfo storage pointer,uint256)": "infinite",
				"safeIssue(address,uint256,string memory)": "infinite"
			}
		},
		"methodIdentifiers": {
			"MaxAvailAwards()": "a076e7db",
			"addAward(address,uint256)": "fa803b51",
			"addFreeAward(address,uint256)": "8b76ba64",
			"addGovernor(address)": "3c4a25d0",
			"batchAddAwards(address[],uint256[])": "45decd1e",
			"claimDevAwards()": "58f57f4d",
			"claimIncentives(address,uint256)": "7336991d",
			"destroy(uint256)": "9d118770",
			"dev()": "91cca3db",
			"devAccAwards()": "961c34fe",
			"devPerBlock()": "0f6104fc",
			"devStartBlock()": "ad56ca42",
			"epUnit()": "59cd0938",
			"estimateTax(uint256)": "1b255e18",
			"freedIncentives()": "d2b0f13e",
			"getCurrentFreeAwards(address)": "f14d13c4",
			"getTaxInfo(address,uint256)": "6f89b1a4",
			"getUserAvailAwards(address)": "fbb29cfd",
			"getUserTotalAwards(address)": "db281e1b",
			"governors(address)": "e3eece26",
			"owner()": "8da5cb5b",
			"pendingIncentives()": "03aafa25",
			"platformToken()": "d1b812cd",
			"removeGovernor(address)": "eecdac88",
			"renounceOwnership()": "715018a6",
			"taxEpoch()": "aef018b1",
			"transferOwnership(address)": "f2fde38b",
			"treasury()": "61d027b3",
			"userInfo(address)": "1959a002",
			"withdraw(uint256)": "2e1a7d4d"
		}
	},
	"abi": [
		{
			"inputs": [
				{
					"internalType": "contract IERC20Token",
					"name": "_platformToken",
					"type": "address"
				},
				{
					"internalType": "uint256",
					"name": "_taxEpoch",
					"type": "uint256"
				},
				{
					"internalType": "address",
					"name": "_treasury",
					"type": "address"
				},
				{
					"internalType": "address",
					"name": "_dev",
					"type": "address"
				},
				{
					"internalType": "uint256",
					"name": "_devStartBlock",
					"type": "uint256"
				},
				{
					"internalType": "uint256",
					"name": "_devPerBlock",
					"type": "uint256"
				}
			],
			"stateMutability": "nonpayable",
			"type": "constructor"
		},
		{
			"anonymous": false,
			"inputs": [
				{
					"indexed": false,
					"internalType": "address",
					"name": "user",
					"type": "address"
				},
				{
					"indexed": false,
					"internalType": "uint256",
					"name": "amount",
					"type": "uint256"
				}
			],
			"name": "AddAward",
			"type": "event"
		},
		{
			"anonymous": false,
			"inputs": [
				{
					"indexed": false,
					"internalType": "address",
					"name": "user",
					"type": "address"
				},
				{
					"indexed": false,
					"internalType": "uint256",
					"name": "amount",
					"type": "uint256"
				}
			],
			"name": "AddFreeAward",
			"type": "event"
		},
		{
			"anonymous": false,
			"inputs": [
				{
					"indexed": true,
					"internalType": "address",
					"name": "previousOwner",
					"type": "address"
				},
				{
					"indexed": true,
					"internalType": "address",
					"name": "newOwner",
					"type": "address"
				}
			],
			"name": "OwnershipTransferred",
			"type": "event"
		},
		{
			"anonymous": false,
			"inputs": [
				{
					"indexed": false,
					"internalType": "address",
					"name": "user",
					"type": "address"
				},
				{
					"indexed": false,
					"internalType": "uint256",
					"name": "amount",
					"type": "uint256"
				},
				{
					"indexed": false,
					"internalType": "uint256",
					"name": "tax",
					"type": "uint256"
				}
			],
			"name": "Withdraw",
			"type": "event"
		},
		{
			"inputs": [],
			"name": "MaxAvailAwards",
			"outputs": [
				{
					"internalType": "uint256",
					"name": "",
					"type": "uint256"
				}
			],
			"stateMutability": "view",
			"type": "function"
		},
		{
			"inputs": [
				{
					"internalType": "address",
					"name": "_user",
					"type": "address"
				},
				{
					"internalType": "uint256",
					"name": "_amount",
					"type": "uint256"
				}
			],
			"name": "addAward",
			"outputs": [],
			"stateMutability": "nonpayable",
			"type": "function"
		},
		{
			"inputs": [
				{
					"internalType": "address",
					"name": "_user",
					"type": "address"
				},
				{
					"internalType": "uint256",
					"name": "_amount",
					"type": "uint256"
				}
			],
			"name": "addFreeAward",
			"outputs": [],
			"stateMutability": "nonpayable",
			"type": "function"
		},
		{
			"inputs": [
				{
					"internalType": "address",
					"name": "governor",
					"type": "address"
				}
			],
			"name": "addGovernor",
			"outputs": [],
			"stateMutability": "nonpayable",
			"type": "function"
		},
		{
			"inputs": [
				{
					"internalType": "address[]",
					"name": "_users",
					"type": "address[]"
				},
				{
					"internalType": "uint256[]",
					"name": "_amounts",
					"type": "uint256[]"
				}
			],
			"name": "batchAddAwards",
			"outputs": [],
			"stateMutability": "nonpayable",
			"type": "function"
		},
		{
			"inputs": [],
			"name": "claimDevAwards",
			"outputs": [],
			"stateMutability": "nonpayable",
			"type": "function"
		},
		{
			"inputs": [
				{
					"internalType": "address",
					"name": "to",
					"type": "address"
				},
				{
					"internalType": "uint256",
					"name": "amount",
					"type": "uint256"
				}
			],
			"name": "claimIncentives",
			"outputs": [],
			"stateMutability": "nonpayable",
			"type": "function"
		},
		{
			"inputs": [
				{
					"internalType": "uint256",
					"name": "amount",
					"type": "uint256"
				}
			],
			"name": "destroy",
			"outputs": [],
			"stateMutability": "nonpayable",
			"type": "function"
		},
		{
			"inputs": [],
			"name": "dev",
			"outputs": [
				{
					"internalType": "address",
					"name": "",
					"type": "address"
				}
			],
			"stateMutability": "view",
			"type": "function"
		},
		{
			"inputs": [],
			"name": "devAccAwards",
			"outputs": [
				{
					"internalType": "uint256",
					"name": "",
					"type": "uint256"
				}
			],
			"stateMutability": "view",
			"type": "function"
		},
		{
			"inputs": [],
			"name": "devPerBlock",
			"outputs": [
				{
					"internalType": "uint256",
					"name": "",
					"type": "uint256"
				}
			],
			"stateMutability": "view",
			"type": "function"
		},
		{
			"inputs": [],
			"name": "devStartBlock",
			"outputs": [
				{
					"internalType": "uint256",
					"name": "",
					"type": "uint256"
				}
			],
			"stateMutability": "view",
			"type": "function"
		},
		{
			"inputs": [],
			"name": "epUnit",
			"outputs": [
				{
					"internalType": "uint256",
					"name": "",
					"type": "uint256"
				}
			],
			"stateMutability": "view",
			"type": "function"
		},
		{
			"inputs": [
				{
					"internalType": "uint256",
					"name": "_amount",
					"type": "uint256"
				}
			],
			"name": "estimateTax",
			"outputs": [
				{
					"internalType": "uint256",
					"name": "",
					"type": "uint256"
				}
			],
			"stateMutability": "view",
			"type": "function"
		},
		{
			"inputs": [],
			"name": "freedIncentives",
			"outputs": [
				{
					"internalType": "uint256",
					"name": "",
					"type": "uint256"
				}
			],
			"stateMutability": "view",
			"type": "function"
		},
		{
			"inputs": [
				{
					"internalType": "address",
					"name": "user",
					"type": "address"
				}
			],
			"name": "getCurrentFreeAwards",
			"outputs": [
				{
					"internalType": "uint256",
					"name": "",
					"type": "uint256"
				}
			],
			"stateMutability": "view",
			"type": "function"
		},
		{
			"inputs": [
				{
					"internalType": "address",
					"name": "user",
					"type": "address"
				},
				{
					"internalType": "uint256",
					"name": "index",
					"type": "uint256"
				}
			],
			"name": "getTaxInfo",
			"outputs": [
				{
					"components": [
						{
							"internalType": "uint256",
							"name": "epoch",
							"type": "uint256"
						},
						{
							"internalType": "uint256",
							"name": "amount",
							"type": "uint256"
						}
					],
					"internalType": "struct AwardInfo.TaxInfo",
					"name": "",
					"type": "tuple"
				}
			],
			"stateMutability": "view",
			"type": "function"
		},
		{
			"inputs": [
				{
					"internalType": "address",
					"name": "user",
					"type": "address"
				}
			],
			"name": "getUserAvailAwards",
			"outputs": [
				{
					"internalType": "uint256",
					"name": "",
					"type": "uint256"
				}
			],
			"stateMutability": "view",
			"type": "function"
		},
		{
			"inputs": [
				{
					"internalType": "address",
					"name": "user",
					"type": "address"
				}
			],
			"name": "getUserTotalAwards",
			"outputs": [
				{
					"internalType": "uint256",
					"name": "",
					"type": "uint256"
				}
			],
			"stateMutability": "view",
			"type": "function"
		},
		{
			"inputs": [
				{
					"internalType": "address",
					"name": "",
					"type": "address"
				}
			],
			"name": "governors",
			"outputs": [
				{
					"internalType": "bool",
					"name": "",
					"type": "bool"
				}
			],
			"stateMutability": "view",
			"type": "function"
		},
		{
			"inputs": [],
			"name": "owner",
			"outputs": [
				{
					"internalType": "address",
					"name": "",
					"type": "address"
				}
			],
			"stateMutability": "view",
			"type": "function"
		},
		{
			"inputs": [],
			"name": "pendingIncentives",
			"outputs": [
				{
					"internalType": "uint256",
					"name": "",
					"type": "uint256"
				}
			],
			"stateMutability": "view",
			"type": "function"
		},
		{
			"inputs": [],
			"name": "platformToken",
			"outputs": [
				{
					"internalType": "contract IERC20Token",
					"name": "",
					"type": "address"
				}
			],
			"stateMutability": "view",
			"type": "function"
		},
		{
			"inputs": [
				{
					"internalType": "address",
					"name": "governor",
					"type": "address"
				}
			],
			"name": "removeGovernor",
			"outputs": [],
			"stateMutability": "nonpayable",
			"type": "function"
		},
		{
			"inputs": [],
			"name": "renounceOwnership",
			"outputs": [],
			"stateMutability": "nonpayable",
			"type": "function"
		},
		{
			"inputs": [],
			"name": "taxEpoch",
			"outputs": [
				{
					"internalType": "uint256",
					"name": "",
					"type": "uint256"
				}
			],
			"stateMutability": "view",
			"type": "function"
		},
		{
			"inputs": [
				{
					"internalType": "address",
					"name": "newOwner",
					"type": "address"
				}
			],
			"name": "transferOwnership",
			"outputs": [],
			"stateMutability": "nonpayable",
			"type": "function"
		},
		{
			"inputs": [],
			"name": "treasury",
			"outputs": [
				{
					"internalType": "address",
					"name": "",
					"type": "address"
				}
			],
			"stateMutability": "view",
			"type": "function"
		},
		{
			"inputs": [
				{
					"internalType": "address",
					"name": "",
					"type": "address"
				}
			],
			"name": "userInfo",
			"outputs": [
				{
					"internalType": "uint256",
					"name": "freeAmount",
					"type": "uint256"
				},
				{
					"internalType": "uint256",
					"name": "taxHead",
					"type": "uint256"
				},
				{
					"internalType": "uint256",
					"name": "taxTail",
					"type": "uint256"
				},
				{
					"internalType": "bool",
					"name": "notEmpty",
					"type": "bool"
				}
			],
			"stateMutability": "view",
			"type": "function"
		},
		{
			"inputs": [
				{
					"internalType": "uint256",
					"name": "_amount",
					"type": "uint256"
				}
			],
			"name": "withdraw",
			"outputs": [],
			"stateMutability": "nonpayable",
			"type": "function"
		}
	]
}