{
	"data": {
		"bytecode": {
			"linkReferences": {},
			"object": "608060405234801561001057600080fd5b506109da806100206000396000f3fe608060405234801561001057600080fd5b50600436106100625760003560e01c80638656b6531461006757806389298012146100b45780639a86139b146100ef578063a221ee49146100f7578063ba9530a61461012c578063f8d6aed414610167575b600080fd5b6100a2600480360360c081101561007d57600080fd5b5080359060208101359060408101359060608101359060808101359060a001356101a2565b60408051918252519081900360200190f35b6100a2600480360360c08110156100ca57600080fd5b5080359060208101359060408101359060608101359060808101359060a00135610243565b6100a261030c565b6100a2600480360360a081101561010d57600080fd5b5080359060208101359060408101359060608101359060800135610319565b6100a2600480360360c081101561014257600080fd5b5080359060208101359060408101359060608101359060808101359060a00135610383565b6100a2600480360360c081101561017d57600080fd5b5080359060208101359060408101359060608101359060808101359060a00135610404565b6000806101af8786610487565b905060006101ce6101c8670de0b6b3a76400008461059c565b856105fe565b905060006101ed866101e8670de0b6b3a76400008561059c565b6105fe565b905060006101fb8b836106c0565b90506000610209828d610487565b905060006102178287610714565b90506000610225828d6105fe565b9050610231818d61059c565b9e9d5050505050505050505050505050565b6000806102508786610487565b9050600061026b856101e8670de0b6b3a7640000600061059c565b90506000610279888361059c565b90506000610287828a610487565b905060006102a6826102a1670de0b6b3a764000088610487565b610714565b905060006102b4828e6105fe565b905060006102c28e8361059c565b905060006102e16102db670de0b6b3a76400008a61059c565b8b6105fe565b90506102f9826101e8670de0b6b3a76400008461059c565b9f9e505050505050505050505050505050565b6542524f4e5a4560d01b90565b6000806103268787610487565b905060006103348686610487565b905060006103428383610487565b90506000610369670de0b6b3a7640000610364670de0b6b3a76400008961059c565b610487565b905061037582826105fe565b9a9950505050505050505050565b6000806103908786610487565b905060006103a6670de0b6b3a76400008561059c565b90506103b285826105fe565b905060006103c48a6103648c856106c0565b905060006103d28285610714565b905060006103e8670de0b6b3a76400008361059c565b90506103f48a826105fe565b9c9b505050505050505050505050565b6000806104118588610487565b9050600061041f878661059c565b9050600061042d8883610487565b9050600061043b8285610714565b905061044f81670de0b6b3a764000061059c565b9050610463670de0b6b3a76400008761059c565b94506104786104728c836105fe565b86610487565b9b9a5050505050505050505050565b6000816104ca576040805162461bcd60e51b815260206004820152600c60248201526b4552525f4449565f5a45524f60a01b604482015290519081900360640190fd5b670de0b6b3a764000083028315806104f25750670de0b6b3a76400008482816104ef57fe5b04145b610536576040805162461bcd60e51b815260206004820152601060248201526f11549497d1125597d25395115493905360821b604482015290519081900360640190fd5b60028304810181811015610584576040805162461bcd60e51b815260206004820152601060248201526f11549497d1125597d25395115493905360821b604482015290519081900360640190fd5b600084828161058f57fe5b0493505050505b92915050565b60008060006105ab8585610822565b9150915080156105f6576040805162461bcd60e51b81526020600482015260116024820152704552525f5355425f554e444552464c4f5760781b604482015290519081900360640190fd5b509392505050565b600082820283158061061857508284828161061557fe5b04145b61065c576040805162461bcd60e51b815260206004820152601060248201526f4552525f4d554c5f4f564552464c4f5760801b604482015290519081900360640190fd5b6706f05b59d3b200008101818110156106af576040805162461bcd60e51b815260206004820152601060248201526f4552525f4d554c5f4f564552464c4f5760801b604482015290519081900360640190fd5b6000670de0b6b3a76400008261058f565b60008282018381101561070d576040805162461bcd60e51b815260206004820152601060248201526f4552525f4144445f4f564552464c4f5760801b604482015290519081900360640190fd5b9392505050565b60006001831015610764576040805162461bcd60e51b81526020600482015260156024820152744552525f42504f575f424153455f544f4f5f4c4f5760581b604482015290519081900360640190fd5b671bc16d674ec7ffff8311156107ba576040805162461bcd60e51b815260206004820152601660248201527508aa4a4be84a09eaebe8482a68abea89e9ebe90928e960531b604482015290519081900360640190fd5b60006107c583610847565b905060006107d3848361059c565b905060006107e9866107e485610862565b610870565b9050816107fa579250610596915050565b600061080b87846305f5e1006108c7565b905061081782826105fe565b979650505050505050565b6000808284106108385750508082036000610840565b505081810360015b9250929050565b6000670de0b6b3a764000061085b83610862565b0292915050565b670de0b6b3a7640000900490565b6000806002830661088957670de0b6b3a764000061088b565b835b90506002830492505b821561070d576108a484856105fe565b935060028306156108bc576108b981856105fe565b90505b600283049250610894565b60008281806108de87670de0b6b3a7640000610822565b9092509050670de0b6b3a764000080600060015b888410610996576000670de0b6b3a7640000820290506000806109268a61092185670de0b6b3a764000061059c565b610822565b91509150610938876101e8848c6105fe565b96506109448784610487565b96508661095357505050610996565b871561095d579315935b8015610967579315935b841561097e57610977868861059c565b955061098b565b61098886886106c0565b95505b5050506001016108f2565b5090999850505050505050505056fea265627a7a72315820581eaa59fbdece83a58391c31af1b24f07050a6341e11a06f1123d17aa1488c764736f6c634300050c0032",
			"opcodes": "PUSH1 0x80 PUSH1 0x40 MSTORE CALLVALUE DUP1 ISZERO PUSH2 0x10 JUMPI PUSH1 0x0 DUP1 REVERT JUMPDEST POP PUSH2 0x9DA DUP1 PUSH2 0x20 PUSH1 0x0 CODECOPY PUSH1 0x0 RETURN INVALID PUSH1 0x80 PUSH1 0x40 MSTORE CALLVALUE DUP1 ISZERO PUSH2 0x10 JUMPI PUSH1 0x0 DUP1 REVERT JUMPDEST POP PUSH1 0x4 CALLDATASIZE LT PUSH2 0x62 JUMPI PUSH1 0x0 CALLDATALOAD PUSH1 0xE0 SHR DUP1 PUSH4 0x8656B653 EQ PUSH2 0x67 JUMPI DUP1 PUSH4 0x89298012 EQ PUSH2 0xB4 JUMPI DUP1 PUSH4 0x9A86139B EQ PUSH2 0xEF JUMPI DUP1 PUSH4 0xA221EE49 EQ PUSH2 0xF7 JUMPI DUP1 PUSH4 0xBA9530A6 EQ PUSH2 0x12C JUMPI DUP1 PUSH4 0xF8D6AED4 EQ PUSH2 0x167 JUMPI JUMPDEST PUSH1 0x0 DUP1 REVERT JUMPDEST PUSH2 0xA2 PUSH1 0x4 DUP1 CALLDATASIZE SUB PUSH1 0xC0 DUP2 LT ISZERO PUSH2 0x7D JUMPI PUSH1 0x0 DUP1 REVERT JUMPDEST POP DUP1 CALLDATALOAD SWAP1 PUSH1 0x20 DUP2 ADD CALLDATALOAD SWAP1 PUSH1 0x40 DUP2 ADD CALLDATALOAD SWAP1 PUSH1 0x60 DUP2 ADD CALLDATALOAD SWAP1 PUSH1 0x80 DUP2 ADD CALLDATALOAD SWAP1 PUSH1 0xA0 ADD CALLDATALOAD PUSH2 0x1A2 JUMP JUMPDEST PUSH1 0x40 DUP1 MLOAD SWAP2 DUP3 MSTORE MLOAD SWAP1 DUP2 SWAP1 SUB PUSH1 0x20 ADD SWAP1 RETURN JUMPDEST PUSH2 0xA2 PUSH1 0x4 DUP1 CALLDATASIZE SUB PUSH1 0xC0 DUP2 LT ISZERO PUSH2 0xCA JUMPI PUSH1 0x0 DUP1 REVERT JUMPDEST POP DUP1 CALLDATALOAD SWAP1 PUSH1 0x20 DUP2 ADD CALLDATALOAD SWAP1 PUSH1 0x40 DUP2 ADD CALLDATALOAD SWAP1 PUSH1 0x60 DUP2 ADD CALLDATALOAD SWAP1 PUSH1 0x80 DUP2 ADD CALLDATALOAD SWAP1 PUSH1 0xA0 ADD CALLDATALOAD PUSH2 0x243 JUMP JUMPDEST PUSH2 0xA2 PUSH2 0x30C JUMP JUMPDEST PUSH2 0xA2 PUSH1 0x4 DUP1 CALLDATASIZE SUB PUSH1 0xA0 DUP2 LT ISZERO PUSH2 0x10D JUMPI PUSH1 0x0 DUP1 REVERT JUMPDEST POP DUP1 CALLDATALOAD SWAP1 PUSH1 0x20 DUP2 ADD CALLDATALOAD SWAP1 PUSH1 0x40 DUP2 ADD CALLDATALOAD SWAP1 PUSH1 0x60 DUP2 ADD CALLDATALOAD SWAP1 PUSH1 0x80 ADD CALLDATALOAD PUSH2 0x319 JUMP JUMPDEST PUSH2 0xA2 PUSH1 0x4 DUP1 CALLDATASIZE SUB PUSH1 0xC0 DUP2 LT ISZERO PUSH2 0x142 JUMPI PUSH1 0x0 DUP1 REVERT JUMPDEST POP DUP1 CALLDATALOAD SWAP1 PUSH1 0x20 DUP2 ADD CALLDATALOAD SWAP1 PUSH1 0x40 DUP2 ADD CALLDATALOAD SWAP1 PUSH1 0x60 DUP2 ADD CALLDATALOAD SWAP1 PUSH1 0x80 DUP2 ADD CALLDATALOAD SWAP1 PUSH1 0xA0 ADD CALLDATALOAD PUSH2 0x383 JUMP JUMPDEST PUSH2 0xA2 PUSH1 0x4 DUP1 CALLDATASIZE SUB PUSH1 0xC0 DUP2 LT ISZERO PUSH2 0x17D JUMPI PUSH1 0x0 DUP1 REVERT JUMPDEST POP DUP1 CALLDATALOAD SWAP1 PUSH1 0x20 DUP2 ADD CALLDATALOAD SWAP1 PUSH1 0x40 DUP2 ADD CALLDATALOAD SWAP1 PUSH1 0x60 DUP2 ADD CALLDATALOAD SWAP1 PUSH1 0x80 DUP2 ADD CALLDATALOAD SWAP1 PUSH1 0xA0 ADD CALLDATALOAD PUSH2 0x404 JUMP JUMPDEST PUSH1 0x0 DUP1 PUSH2 0x1AF DUP8 DUP7 PUSH2 0x487 JUMP JUMPDEST SWAP1 POP PUSH1 0x0 PUSH2 0x1CE PUSH2 0x1C8 PUSH8 0xDE0B6B3A7640000 DUP5 PUSH2 0x59C JUMP JUMPDEST DUP6 PUSH2 0x5FE JUMP JUMPDEST SWAP1 POP PUSH1 0x0 PUSH2 0x1ED DUP7 PUSH2 0x1E8 PUSH8 0xDE0B6B3A7640000 DUP6 PUSH2 0x59C JUMP JUMPDEST PUSH2 0x5FE JUMP JUMPDEST SWAP1 POP PUSH1 0x0 PUSH2 0x1FB DUP12 DUP4 PUSH2 0x6C0 JUMP JUMPDEST SWAP1 POP PUSH1 0x0 PUSH2 0x209 DUP3 DUP14 PUSH2 0x487 JUMP JUMPDEST SWAP1 POP PUSH1 0x0 PUSH2 0x217 DUP3 DUP8 PUSH2 0x714 JUMP JUMPDEST SWAP1 POP PUSH1 0x0 PUSH2 0x225 DUP3 DUP14 PUSH2 0x5FE JUMP JUMPDEST SWAP1 POP PUSH2 0x231 DUP2 DUP14 PUSH2 0x59C JUMP JUMPDEST SWAP15 SWAP14 POP POP POP POP POP POP POP POP POP POP POP POP POP POP JUMP JUMPDEST PUSH1 0x0 DUP1 PUSH2 0x250 DUP8 DUP7 PUSH2 0x487 JUMP JUMPDEST SWAP1 POP PUSH1 0x0 PUSH2 0x26B DUP6 PUSH2 0x1E8 PUSH8 0xDE0B6B3A7640000 PUSH1 0x0 PUSH2 0x59C JUMP JUMPDEST SWAP1 POP PUSH1 0x0 PUSH2 0x279 DUP9 DUP4 PUSH2 0x59C JUMP JUMPDEST SWAP1 POP PUSH1 0x0 PUSH2 0x287 DUP3 DUP11 PUSH2 0x487 JUMP JUMPDEST SWAP1 POP PUSH1 0x0 PUSH2 0x2A6 DUP3 PUSH2 0x2A1 PUSH8 0xDE0B6B3A7640000 DUP9 PUSH2 0x487 JUMP JUMPDEST PUSH2 0x714 JUMP JUMPDEST SWAP1 POP PUSH1 0x0 PUSH2 0x2B4 DUP3 DUP15 PUSH2 0x5FE JUMP JUMPDEST SWAP1 POP PUSH1 0x0 PUSH2 0x2C2 DUP15 DUP4 PUSH2 0x59C JUMP JUMPDEST SWAP1 POP PUSH1 0x0 PUSH2 0x2E1 PUSH2 0x2DB PUSH8 0xDE0B6B3A7640000 DUP11 PUSH2 0x59C JUMP JUMPDEST DUP12 PUSH2 0x5FE JUMP JUMPDEST SWAP1 POP PUSH2 0x2F9 DUP3 PUSH2 0x1E8 PUSH8 0xDE0B6B3A7640000 DUP5 PUSH2 0x59C JUMP JUMPDEST SWAP16 SWAP15 POP POP POP POP POP POP POP POP POP POP POP POP POP POP POP JUMP JUMPDEST PUSH6 0x42524F4E5A45 PUSH1 0xD0 SHL SWAP1 JUMP JUMPDEST PUSH1 0x0 DUP1 PUSH2 0x326 DUP8 DUP8 PUSH2 0x487 JUMP JUMPDEST SWAP1 POP PUSH1 0x0 PUSH2 0x334 DUP7 DUP7 PUSH2 0x487 JUMP JUMPDEST SWAP1 POP PUSH1 0x0 PUSH2 0x342 DUP4 DUP4 PUSH2 0x487 JUMP JUMPDEST SWAP1 POP PUSH1 0x0 PUSH2 0x369 PUSH8 0xDE0B6B3A7640000 PUSH2 0x364 PUSH8 0xDE0B6B3A7640000 DUP10 PUSH2 0x59C JUMP JUMPDEST PUSH2 0x487 JUMP JUMPDEST SWAP1 POP PUSH2 0x375 DUP3 DUP3 PUSH2 0x5FE JUMP JUMPDEST SWAP11 SWAP10 POP POP POP POP POP POP POP POP POP POP JUMP JUMPDEST PUSH1 0x0 DUP1 PUSH2 0x390 DUP8 DUP7 PUSH2 0x487 JUMP JUMPDEST SWAP1 POP PUSH1 0x0 PUSH2 0x3A6 PUSH8 0xDE0B6B3A7640000 DUP6 PUSH2 0x59C JUMP JUMPDEST SWAP1 POP PUSH2 0x3B2 DUP6 DUP3 PUSH2 0x5FE JUMP JUMPDEST SWAP1 POP PUSH1 0x0 PUSH2 0x3C4 DUP11 PUSH2 0x364 DUP13 DUP6 PUSH2 0x6C0 JUMP JUMPDEST SWAP1 POP PUSH1 0x0 PUSH2 0x3D2 DUP3 DUP6 PUSH2 0x714 JUMP JUMPDEST SWAP1 POP PUSH1 0x0 PUSH2 0x3E8 PUSH8 0xDE0B6B3A7640000 DUP4 PUSH2 0x59C JUMP JUMPDEST SWAP1 POP PUSH2 0x3F4 DUP11 DUP3 PUSH2 0x5FE JUMP JUMPDEST SWAP13 SWAP12 POP POP POP POP POP POP POP POP POP POP POP POP JUMP JUMPDEST PUSH1 0x0 DUP1 PUSH2 0x411 DUP6 DUP9 PUSH2 0x487 JUMP JUMPDEST SWAP1 POP PUSH1 0x0 PUSH2 0x41F DUP8 DUP7 PUSH2 0x59C JUMP JUMPDEST SWAP1 POP PUSH1 0x0 PUSH2 0x42D DUP9 DUP4 PUSH2 0x487 JUMP JUMPDEST SWAP1 POP PUSH1 0x0 PUSH2 0x43B DUP3 DUP6 PUSH2 0x714 JUMP JUMPDEST SWAP1 POP PUSH2 0x44F DUP2 PUSH8 0xDE0B6B3A7640000 PUSH2 0x59C JUMP JUMPDEST SWAP1 POP PUSH2 0x463 PUSH8 0xDE0B6B3A7640000 DUP8 PUSH2 0x59C JUMP JUMPDEST SWAP5 POP PUSH2 0x478 PUSH2 0x472 DUP13 DUP4 PUSH2 0x5FE JUMP JUMPDEST DUP7 PUSH2 0x487 JUMP JUMPDEST SWAP12 SWAP11 POP POP POP POP POP POP POP POP POP POP POP JUMP JUMPDEST PUSH1 0x0 DUP2 PUSH2 0x4CA JUMPI PUSH1 0x40 DUP1 MLOAD PUSH3 0x461BCD PUSH1 0xE5 SHL DUP2 MSTORE PUSH1 0x20 PUSH1 0x4 DUP3 ADD MSTORE PUSH1 0xC PUSH1 0x24 DUP3 ADD MSTORE PUSH12 0x4552525F4449565F5A45524F PUSH1 0xA0 SHL PUSH1 0x44 DUP3 ADD MSTORE SWAP1 MLOAD SWAP1 DUP2 SWAP1 SUB PUSH1 0x64 ADD SWAP1 REVERT JUMPDEST PUSH8 0xDE0B6B3A7640000 DUP4 MUL DUP4 ISZERO DUP1 PUSH2 0x4F2 JUMPI POP PUSH8 0xDE0B6B3A7640000 DUP5 DUP3 DUP2 PUSH2 0x4EF JUMPI INVALID JUMPDEST DIV EQ JUMPDEST PUSH2 0x536 JUMPI PUSH1 0x40 DUP1 MLOAD PUSH3 0x461BCD PUSH1 0xE5 SHL DUP2 MSTORE PUSH1 0x20 PUSH1 0x4 DUP3 ADD MSTORE PUSH1 0x10 PUSH1 0x24 DUP3 ADD MSTORE PUSH16 0x11549497D1125597D253951154939053 PUSH1 0x82 SHL PUSH1 0x44 DUP3 ADD MSTORE SWAP1 MLOAD SWAP1 DUP2 SWAP1 SUB PUSH1 0x64 ADD SWAP1 REVERT JUMPDEST PUSH1 0x2 DUP4 DIV DUP2 ADD DUP2 DUP2 LT ISZERO PUSH2 0x584 JUMPI PUSH1 0x40 DUP1 MLOAD PUSH3 0x461BCD PUSH1 0xE5 SHL DUP2 MSTORE PUSH1 0x20 PUSH1 0x4 DUP3 ADD MSTORE PUSH1 0x10 PUSH1 0x24 DUP3 ADD MSTORE PUSH16 0x11549497D1125597D253951154939053 PUSH1 0x82 SHL PUSH1 0x44 DUP3 ADD MSTORE SWAP1 MLOAD SWAP1 DUP2 SWAP1 SUB PUSH1 0x64 ADD SWAP1 REVERT JUMPDEST PUSH1 0x0 DUP5 DUP3 DUP2 PUSH2 0x58F JUMPI INVALID JUMPDEST DIV SWAP4 POP POP POP POP JUMPDEST SWAP3 SWAP2 POP POP JUMP JUMPDEST PUSH1 0x0 DUP1 PUSH1 0x0 PUSH2 0x5AB DUP6 DUP6 PUSH2 0x822 JUMP JUMPDEST SWAP2 POP SWAP2 POP DUP1 ISZERO PUSH2 0x5F6 JUMPI PUSH1 0x40 DUP1 MLOAD PUSH3 0x461BCD PUSH1 0xE5 SHL DUP2 MSTORE PUSH1 0x20 PUSH1 0x4 DUP3 ADD MSTORE PUSH1 0x11 PUSH1 0x24 DUP3 ADD MSTORE PUSH17 0x4552525F5355425F554E444552464C4F57 PUSH1 0x78 SHL PUSH1 0x44 DUP3 ADD MSTORE SWAP1 MLOAD SWAP1 DUP2 SWAP1 SUB PUSH1 0x64 ADD SWAP1 REVERT JUMPDEST POP SWAP4 SWAP3 POP POP POP JUMP JUMPDEST PUSH1 0x0 DUP3 DUP3 MUL DUP4 ISZERO DUP1 PUSH2 0x618 JUMPI POP DUP3 DUP5 DUP3 DUP2 PUSH2 0x615 JUMPI INVALID JUMPDEST DIV EQ JUMPDEST PUSH2 0x65C JUMPI PUSH1 0x40 DUP1 MLOAD PUSH3 0x461BCD PUSH1 0xE5 SHL DUP2 MSTORE PUSH1 0x20 PUSH1 0x4 DUP3 ADD MSTORE PUSH1 0x10 PUSH1 0x24 DUP3 ADD MSTORE PUSH16 0x4552525F4D554C5F4F564552464C4F57 PUSH1 0x80 SHL PUSH1 0x44 DUP3 ADD MSTORE SWAP1 MLOAD SWAP1 DUP2 SWAP1 SUB PUSH1 0x64 ADD SWAP1 REVERT JUMPDEST PUSH8 0x6F05B59D3B20000 DUP2 ADD DUP2 DUP2 LT ISZERO PUSH2 0x6AF JUMPI PUSH1 0x40 DUP1 MLOAD PUSH3 0x461BCD PUSH1 0xE5 SHL DUP2 MSTORE PUSH1 0x20 PUSH1 0x4 DUP3 ADD MSTORE PUSH1 0x10 PUSH1 0x24 DUP3 ADD MSTORE PUSH16 0x4552525F4D554C5F4F564552464C4F57 PUSH1 0x80 SHL PUSH1 0x44 DUP3 ADD MSTORE SWAP1 MLOAD SWAP1 DUP2 SWAP1 SUB PUSH1 0x64 ADD SWAP1 REVERT JUMPDEST PUSH1 0x0 PUSH8 0xDE0B6B3A7640000 DUP3 PUSH2 0x58F JUMP JUMPDEST PUSH1 0x0 DUP3 DUP3 ADD DUP4 DUP2 LT ISZERO PUSH2 0x70D JUMPI PUSH1 0x40 DUP1 MLOAD PUSH3 0x461BCD PUSH1 0xE5 SHL DUP2 MSTORE PUSH1 0x20 PUSH1 0x4 DUP3 ADD MSTORE PUSH1 0x10 PUSH1 0x24 DUP3 ADD MSTORE PUSH16 0x4552525F4144445F4F564552464C4F57 PUSH1 0x80 SHL PUSH1 0x44 DUP3 ADD MSTORE SWAP1 MLOAD SWAP1 DUP2 SWAP1 SUB PUSH1 0x64 ADD SWAP1 REVERT JUMPDEST SWAP4 SWAP3 POP POP POP JUMP JUMPDEST PUSH1 0x0 PUSH1 0x1 DUP4 LT ISZERO PUSH2 0x764 JUMPI PUSH1 0x40 DUP1 MLOAD PUSH3 0x461BCD PUSH1 0xE5 SHL DUP2 MSTORE PUSH1 0x20 PUSH1 0x4 DUP3 ADD MSTORE PUSH1 0x15 PUSH1 0x24 DUP3 ADD MSTORE PUSH21 0x4552525F42504F575F424153455F544F4F5F4C4F57 PUSH1 0x58 SHL PUSH1 0x44 DUP3 ADD MSTORE SWAP1 MLOAD SWAP1 DUP2 SWAP1 SUB PUSH1 0x64 ADD SWAP1 REVERT JUMPDEST PUSH8 0x1BC16D674EC7FFFF DUP4 GT ISZERO PUSH2 0x7BA JUMPI PUSH1 0x40 DUP1 MLOAD PUSH3 0x461BCD PUSH1 0xE5 SHL DUP2 MSTORE PUSH1 0x20 PUSH1 0x4 DUP3 ADD MSTORE PUSH1 0x16 PUSH1 0x24 DUP3 ADD MSTORE PUSH22 0x8AA4A4BE84A09EAEBE8482A68ABEA89E9EBE90928E9 PUSH1 0x53 SHL PUSH1 0x44 DUP3 ADD MSTORE SWAP1 MLOAD SWAP1 DUP2 SWAP1 SUB PUSH1 0x64 ADD SWAP1 REVERT JUMPDEST PUSH1 0x0 PUSH2 0x7C5 DUP4 PUSH2 0x847 JUMP JUMPDEST SWAP1 POP PUSH1 0x0 PUSH2 0x7D3 DUP5 DUP4 PUSH2 0x59C JUMP JUMPDEST SWAP1 POP PUSH1 0x0 PUSH2 0x7E9 DUP7 PUSH2 0x7E4 DUP6 PUSH2 0x862 JUMP JUMPDEST PUSH2 0x870 JUMP JUMPDEST SWAP1 POP DUP2 PUSH2 0x7FA JUMPI SWAP3 POP PUSH2 0x596 SWAP2 POP POP JUMP JUMPDEST PUSH1 0x0 PUSH2 0x80B DUP8 DUP5 PUSH4 0x5F5E100 PUSH2 0x8C7 JUMP JUMPDEST SWAP1 POP PUSH2 0x817 DUP3 DUP3 PUSH2 0x5FE JUMP JUMPDEST SWAP8 SWAP7 POP POP POP POP POP POP POP JUMP JUMPDEST PUSH1 0x0 DUP1 DUP3 DUP5 LT PUSH2 0x838 JUMPI POP POP DUP1 DUP3 SUB PUSH1 0x0 PUSH2 0x840 JUMP JUMPDEST POP POP DUP2 DUP2 SUB PUSH1 0x1 JUMPDEST SWAP3 POP SWAP3 SWAP1 POP JUMP JUMPDEST PUSH1 0x0 PUSH8 0xDE0B6B3A7640000 PUSH2 0x85B DUP4 PUSH2 0x862 JUMP JUMPDEST MUL SWAP3 SWAP2 POP POP JUMP JUMPDEST PUSH8 0xDE0B6B3A7640000 SWAP1 DIV SWAP1 JUMP JUMPDEST PUSH1 0x0 DUP1 PUSH1 0x2 DUP4 MOD PUSH2 0x889 JUMPI PUSH8 0xDE0B6B3A7640000 PUSH2 0x88B JUMP JUMPDEST DUP4 JUMPDEST SWAP1 POP PUSH1 0x2 DUP4 DIV SWAP3 POP JUMPDEST DUP3 ISZERO PUSH2 0x70D JUMPI PUSH2 0x8A4 DUP5 DUP6 PUSH2 0x5FE JUMP JUMPDEST SWAP4 POP PUSH1 0x2 DUP4 MOD ISZERO PUSH2 0x8BC JUMPI PUSH2 0x8B9 DUP2 DUP6 PUSH2 0x5FE JUMP JUMPDEST SWAP1 POP JUMPDEST PUSH1 0x2 DUP4 DIV SWAP3 POP PUSH2 0x894 JUMP JUMPDEST PUSH1 0x0 DUP3 DUP2 DUP1 PUSH2 0x8DE DUP8 PUSH8 0xDE0B6B3A7640000 PUSH2 0x822 JUMP JUMPDEST SWAP1 SWAP3 POP SWAP1 POP PUSH8 0xDE0B6B3A7640000 DUP1 PUSH1 0x0 PUSH1 0x1 JUMPDEST DUP9 DUP5 LT PUSH2 0x996 JUMPI PUSH1 0x0 PUSH8 0xDE0B6B3A7640000 DUP3 MUL SWAP1 POP PUSH1 0x0 DUP1 PUSH2 0x926 DUP11 PUSH2 0x921 DUP6 PUSH8 0xDE0B6B3A7640000 PUSH2 0x59C JUMP JUMPDEST PUSH2 0x822 JUMP JUMPDEST SWAP2 POP SWAP2 POP PUSH2 0x938 DUP8 PUSH2 0x1E8 DUP5 DUP13 PUSH2 0x5FE JUMP JUMPDEST SWAP7 POP PUSH2 0x944 DUP8 DUP5 PUSH2 0x487 JUMP JUMPDEST SWAP7 POP DUP7 PUSH2 0x953 JUMPI POP POP POP PUSH2 0x996 JUMP JUMPDEST DUP8 ISZERO PUSH2 0x95D JUMPI SWAP4 ISZERO SWAP4 JUMPDEST DUP1 ISZERO PUSH2 0x967 JUMPI SWAP4 ISZERO SWAP4 JUMPDEST DUP5 ISZERO PUSH2 0x97E JUMPI PUSH2 0x977 DUP7 DUP9 PUSH2 0x59C JUMP JUMPDEST SWAP6 POP PUSH2 0x98B JUMP JUMPDEST PUSH2 0x988 DUP7 DUP9 PUSH2 0x6C0 JUMP JUMPDEST SWAP6 POP JUMPDEST POP POP POP PUSH1 0x1 ADD PUSH2 0x8F2 JUMP JUMPDEST POP SWAP1 SWAP10 SWAP9 POP POP POP POP POP POP POP POP POP JUMP INVALID LOG2 PUSH6 0x627A7A723158 KECCAK256 PC 0x1e 0xaa MSIZE 0xfb 0xde 0xce DUP4 0xa5 DUP4 SWAP2 0xc3 BYTE CALL 0xb2 0x4f SMOD SDIV EXP PUSH4 0x41E11A06 CALL SLT RETURNDATASIZE OR 0xaa EQ DUP9 0xc7 PUSH5 0x736F6C6343 STOP SDIV 0xc STOP ORIGIN "
		},
		"gasEstimates": {
			"creation": {
				"codeDepositCost": "504400",
				"executionCost": "537",
				"totalCost": "504937"
			},
			"external": {
				"calcInGivenOut(uint256,uint256,uint256,uint256,uint256,uint256)": "infinite",
				"calcOutGivenIn(uint256,uint256,uint256,uint256,uint256,uint256)": "infinite",
				"calcPoolOutGivenSingleIn(uint256,uint256,uint256,uint256,uint256,uint256)": "infinite",
				"calcSingleOutGivenPoolIn(uint256,uint256,uint256,uint256,uint256,uint256)": "infinite",
				"calcSpotPrice(uint256,uint256,uint256,uint256,uint256)": "infinite",
				"getColor()": "226"
			}
		},
		"methodIdentifiers": {
			"calcInGivenOut(uint256,uint256,uint256,uint256,uint256,uint256)": "f8d6aed4",
			"calcOutGivenIn(uint256,uint256,uint256,uint256,uint256,uint256)": "ba9530a6",
			"calcPoolOutGivenSingleIn(uint256,uint256,uint256,uint256,uint256,uint256)": "8656b653",
			"calcSingleOutGivenPoolIn(uint256,uint256,uint256,uint256,uint256,uint256)": "89298012",
			"calcSpotPrice(uint256,uint256,uint256,uint256,uint256)": "a221ee49",
			"getColor()": "9a86139b"
		}
	},
	"abi": [
		{
			"constant": true,
			"inputs": [
				{
					"internalType": "uint256",
					"name": "tokenBalanceIn",
					"type": "uint256"
				},
				{
					"internalType": "uint256",
					"name": "tokenWeightIn",
					"type": "uint256"
				},
				{
					"internalType": "uint256",
					"name": "tokenBalanceOut",
					"type": "uint256"
				},
				{
					"internalType": "uint256",
					"name": "tokenWeightOut",
					"type": "uint256"
				},
				{
					"internalType": "uint256",
					"name": "tokenAmountOut",
					"type": "uint256"
				},
				{
					"internalType": "uint256",
					"name": "swapFee",
					"type": "uint256"
				}
			],
			"name": "calcInGivenOut",
			"outputs": [
				{
					"internalType": "uint256",
					"name": "tokenAmountIn",
					"type": "uint256"
				}
			],
			"payable": false,
			"stateMutability": "pure",
			"type": "function"
		},
		{
			"constant": true,
			"inputs": [
				{
					"internalType": "uint256",
					"name": "tokenBalanceIn",
					"type": "uint256"
				},
				{
					"internalType": "uint256",
					"name": "tokenWeightIn",
					"type": "uint256"
				},
				{
					"internalType": "uint256",
					"name": "tokenBalanceOut",
					"type": "uint256"
				},
				{
					"internalType": "uint256",
					"name": "tokenWeightOut",
					"type": "uint256"
				},
				{
					"internalType": "uint256",
					"name": "tokenAmountIn",
					"type": "uint256"
				},
				{
					"internalType": "uint256",
					"name": "swapFee",
					"type": "uint256"
				}
			],
			"name": "calcOutGivenIn",
			"outputs": [
				{
					"internalType": "uint256",
					"name": "tokenAmountOut",
					"type": "uint256"
				}
			],
			"payable": false,
			"stateMutability": "pure",
			"type": "function"
		},
		{
			"constant": true,
			"inputs": [
				{
					"internalType": "uint256",
					"name": "tokenBalanceIn",
					"type": "uint256"
				},
				{
					"internalType": "uint256",
					"name": "tokenWeightIn",
					"type": "uint256"
				},
				{
					"internalType": "uint256",
					"name": "poolSupply",
					"type": "uint256"
				},
				{
					"internalType": "uint256",
					"name": "totalWeight",
					"type": "uint256"
				},
				{
					"internalType": "uint256",
					"name": "tokenAmountIn",
					"type": "uint256"
				},
				{
					"internalType": "uint256",
					"name": "swapFee",
					"type": "uint256"
				}
			],
			"name": "calcPoolOutGivenSingleIn",
			"outputs": [
				{
					"internalType": "uint256",
					"name": "poolAmountOut",
					"type": "uint256"
				}
			],
			"payable": false,
			"stateMutability": "pure",
			"type": "function"
		},
		{
			"constant": true,
			"inputs": [
				{
					"internalType": "uint256",
					"name": "tokenBalanceOut",
					"type": "uint256"
				},
				{
					"internalType": "uint256",
					"name": "tokenWeightOut",
					"type": "uint256"
				},
				{
					"internalType": "uint256",
					"name": "poolSupply",
					"type": "uint256"
				},
				{
					"internalType": "uint256",
					"name": "totalWeight",
					"type": "uint256"
				},
				{
					"internalType": "uint256",
					"name": "poolAmountIn",
					"type": "uint256"
				},
				{
					"internalType": "uint256",
					"name": "swapFee",
					"type": "uint256"
				}
			],
			"name": "calcSingleOutGivenPoolIn",
			"outputs": [
				{
					"internalType": "uint256",
					"name": "tokenAmountOut",
					"type": "uint256"
				}
			],
			"payable": false,
			"stateMutability": "pure",
			"type": "function"
		},
		{
			"constant": true,
			"inputs": [
				{
					"internalType": "uint256",
					"name": "tokenBalanceIn",
					"type": "uint256"
				},
				{
					"internalType": "uint256",
					"name": "tokenWeightIn",
					"type": "uint256"
				},
				{
					"internalType": "uint256",
					"name": "tokenBalanceOut",
					"type": "uint256"
				},
				{
					"internalType": "uint256",
					"name": "tokenWeightOut",
					"type": "uint256"
				},
				{
					"internalType": "uint256",
					"name": "swapFee",
					"type": "uint256"
				}
			],
			"name": "calcSpotPrice",
			"outputs": [
				{
					"internalType": "uint256",
					"name": "spotPrice",
					"type": "uint256"
				}
			],
			"payable": false,
			"stateMutability": "pure",
			"type": "function"
		},
		{
			"constant": true,
			"inputs": [],
			"name": "getColor",
			"outputs": [
				{
					"internalType": "bytes32",
					"name": "",
					"type": "bytes32"
				}
			],
			"payable": false,
			"stateMutability": "view",
			"type": "function"
		}
	]
}