{
	"data": {
		"bytecode": {
			"linkReferences": {},
			"object": "608060405234801561001057600080fd5b50604051602080610afd833981016040819052905160018054600160a060020a0319163390811790915590917fce241d7ca1f669fee44b6fc00b8eba2df3bb514eed0f6f668f8f89096e81ed9490600090a261007481640100000000610085810204565b151561007f57600080fd5b5061028f565b60006100bd337fffffffff0000000000000000000000000000000000000000000000000000000083351664010000000061016e810204565b15156100c857600080fd5b604080513480825260208201838152369383018490526004359360243593849386933393600080357fffffffff0000000000000000000000000000000000000000000000000000000016949092606082018484808284376040519201829003965090945050505050a4600160a060020a038416151561014657600080fd5b60028054600160a060020a038616600160a060020a0319909116179055600192505050919050565b6000600160a060020a03831630141561018957506001610289565b600154600160a060020a03848116911614156101a757506001610289565b600054600160a060020a031615156101c157506000610289565b60008054604080517fb7009613000000000000000000000000000000000000000000000000000000008152600160a060020a0387811660048301523060248301527fffffffff00000000000000000000000000000000000000000000000000000000871660448301529151919092169263b700961392606480820193602093909283900390910190829087803b15801561025a57600080fd5b505af115801561026e573d6000803e3d6000fd5b505050506040513d602081101561028457600080fd5b505190505b92915050565b61085f8061029e6000396000f30060806040526004361061008d5763ffffffff7c010000000000000000000000000000000000000000000000000000000060003504166313af4035811461008f5780631cff79cd146100b05780631f6a1eb91461011c57806360c7d295146101c95780637a9e5e4b146101fa5780638da5cb5b1461021b578063948f507614610230578063bf7e214f14610265575b005b34801561009b57600080fd5b5061008d600160a060020a036004351661027a565b60408051602060046024803582810135601f810185900485028601850190965285855261010a958335600160a060020a03169536956044949193909101919081908401838280828437509497506102f89650505050505050565b60408051918252519081900360200190f35b6040805160206004803580820135601f81018490048402850184019095528484526101a694369492936024939284019190819084018382808284375050604080516020601f89358b018035918201839004830284018301909452808352979a9998810197919650918201945092508291508401838280828437509497506103b59650505050505050565b60408051600160a060020a03909316835260208301919091528051918290030190f35b3480156101d557600080fd5b506101de6105c5565b60408051600160a060020a039092168252519081900360200190f35b34801561020657600080fd5b5061008d600160a060020a03600435166105d4565b34801561022757600080fd5b506101de61064e565b34801561023c57600080fd5b50610251600160a060020a036004351661065d565b604080519115158252519081900360200190f35b34801561027157600080fd5b506101de61071b565b61029033600035600160e060020a03191661072a565b151561029b57600080fd5b6001805473ffffffffffffffffffffffffffffffffffffffff1916600160a060020a0383811691909117918290556040519116907fce241d7ca1f669fee44b6fc00b8eba2df3bb514eed0f6f668f8f89096e81ed9490600090a250565b600061031033600035600160e060020a03191661072a565b151561031b57600080fd5b60408051348082526020820183815236938301849052600435936024359384938693339360008035600160e060020a031916949092606082018484808284376040519201829003965090945050505050a4600160a060020a038516151561038157600080fd5b60206000855160208701886113885a03f460005193508015600181146103a6576103ab565b600080fd5b5050505092915050565b6002546040517f8bf4515c0000000000000000000000000000000000000000000000000000000081526020600482018181528551602484015285516000948594600160a060020a0390911693638bf4515c93899390928392604490910191908501908083838b5b8381101561043457818101518382015260200161041c565b50505050905090810190601f1680156104615780820380516001836020036101000a031916815260200191505b5092505050602060405180830381600087803b15801561048057600080fd5b505af1158015610494573d6000803e3d6000fd5b505050506040513d60208110156104aa57600080fd5b50519150600160a060020a03821615156105b2576002546040517f7ed0c3b2000000000000000000000000000000000000000000000000000000008152602060048201818152875160248401528751600160a060020a0390941693637ed0c3b293899383926044909201919085019080838360005b8381101561053757818101518382015260200161051f565b50505050905090810190601f1680156105645780820380516001836020036101000a031916815260200191505b5092505050602060405180830381600087803b15801561058357600080fd5b505af1158015610597573d6000803e3d6000fd5b505050506040513d60208110156105ad57600080fd5b505191505b6105bc82846102f8565b90509250929050565b600254600160a060020a031681565b6105ea33600035600160e060020a03191661072a565b15156105f557600080fd5b6000805473ffffffffffffffffffffffffffffffffffffffff1916600160a060020a03838116919091178083556040519116917f1abebea81bfa2637f28358c371278fb15ede7ea8dd28d2e03b112ff6d936ada491a250565b600154600160a060020a031681565b600061067533600035600160e060020a03191661072a565b151561068057600080fd5b60408051348082526020820183815236938301849052600435936024359384938693339360008035600160e060020a031916949092606082018484808284376040519201829003965090945050505050a4600160a060020a03841615156106e657600080fd5b60028054600160a060020a03861673ffffffffffffffffffffffffffffffffffffffff19909116179055600192505050919050565b600054600160a060020a031681565b6000600160a060020a0383163014156107455750600161082d565b600154600160a060020a03848116911614156107635750600161082d565b600054600160a060020a0316151561077d5750600061082d565b60008054604080517fb7009613000000000000000000000000000000000000000000000000000000008152600160a060020a038781166004830152306024830152600160e060020a0319871660448301529151919092169263b700961392606480820193602093909283900390910190829087803b1580156107fe57600080fd5b505af1158015610812573d6000803e3d6000fd5b505050506040513d602081101561082857600080fd5b505190505b929150505600a165627a7a723058204028263c4fbd22d4d4bbb99dda1c751d8a15f45b5c01767d3b0d74a2bf9471850029",
			"opcodes": "PUSH1 0x80 PUSH1 0x40 MSTORE CALLVALUE DUP1 ISZERO PUSH2 0x10 JUMPI PUSH1 0x0 DUP1 REVERT JUMPDEST POP PUSH1 0x40 MLOAD PUSH1 0x20 DUP1 PUSH2 0xAFD DUP4 CODECOPY DUP2 ADD PUSH1 0x40 DUP2 SWAP1 MSTORE SWAP1 MLOAD PUSH1 0x1 DUP1 SLOAD PUSH1 0x1 PUSH1 0xA0 PUSH1 0x2 EXP SUB NOT AND CALLER SWAP1 DUP2 OR SWAP1 SWAP2 SSTORE SWAP1 SWAP2 PUSH32 0xCE241D7CA1F669FEE44B6FC00B8EBA2DF3BB514EED0F6F668F8F89096E81ED94 SWAP1 PUSH1 0x0 SWAP1 LOG2 PUSH2 0x74 DUP2 PUSH5 0x100000000 PUSH2 0x85 DUP2 MUL DIV JUMP JUMPDEST ISZERO ISZERO PUSH2 0x7F JUMPI PUSH1 0x0 DUP1 REVERT JUMPDEST POP PUSH2 0x28F JUMP JUMPDEST PUSH1 0x0 PUSH2 0xBD CALLER PUSH32 0xFFFFFFFF00000000000000000000000000000000000000000000000000000000 DUP4 CALLDATALOAD AND PUSH5 0x100000000 PUSH2 0x16E DUP2 MUL DIV JUMP JUMPDEST ISZERO ISZERO PUSH2 0xC8 JUMPI PUSH1 0x0 DUP1 REVERT JUMPDEST PUSH1 0x40 DUP1 MLOAD CALLVALUE DUP1 DUP3 MSTORE PUSH1 0x20 DUP3 ADD DUP4 DUP2 MSTORE CALLDATASIZE SWAP4 DUP4 ADD DUP5 SWAP1 MSTORE PUSH1 0x4 CALLDATALOAD SWAP4 PUSH1 0x24 CALLDATALOAD SWAP4 DUP5 SWAP4 DUP7 SWAP4 CALLER SWAP4 PUSH1 0x0 DUP1 CALLDATALOAD PUSH32 0xFFFFFFFF00000000000000000000000000000000000000000000000000000000 AND SWAP5 SWAP1 SWAP3 PUSH1 0x60 DUP3 ADD DUP5 DUP5 DUP1 DUP3 DUP5 CALLDATACOPY PUSH1 0x40 MLOAD SWAP3 ADD DUP3 SWAP1 SUB SWAP7 POP SWAP1 SWAP5 POP POP POP POP POP LOG4 PUSH1 0x1 PUSH1 0xA0 PUSH1 0x2 EXP SUB DUP5 AND ISZERO ISZERO PUSH2 0x146 JUMPI PUSH1 0x0 DUP1 REVERT JUMPDEST PUSH1 0x2 DUP1 SLOAD PUSH1 0x1 PUSH1 0xA0 PUSH1 0x2 EXP SUB DUP7 AND PUSH1 0x1 PUSH1 0xA0 PUSH1 0x2 EXP SUB NOT SWAP1 SWAP2 AND OR SWAP1 SSTORE PUSH1 0x1 SWAP3 POP POP POP SWAP2 SWAP1 POP JUMP JUMPDEST PUSH1 0x0 PUSH1 0x1 PUSH1 0xA0 PUSH1 0x2 EXP SUB DUP4 AND ADDRESS EQ ISZERO PUSH2 0x189 JUMPI POP PUSH1 0x1 PUSH2 0x289 JUMP JUMPDEST PUSH1 0x1 SLOAD PUSH1 0x1 PUSH1 0xA0 PUSH1 0x2 EXP SUB DUP5 DUP2 AND SWAP2 AND EQ ISZERO PUSH2 0x1A7 JUMPI POP PUSH1 0x1 PUSH2 0x289 JUMP JUMPDEST PUSH1 0x0 SLOAD PUSH1 0x1 PUSH1 0xA0 PUSH1 0x2 EXP SUB AND ISZERO ISZERO PUSH2 0x1C1 JUMPI POP PUSH1 0x0 PUSH2 0x289 JUMP JUMPDEST PUSH1 0x0 DUP1 SLOAD PUSH1 0x40 DUP1 MLOAD PUSH32 0xB700961300000000000000000000000000000000000000000000000000000000 DUP2 MSTORE PUSH1 0x1 PUSH1 0xA0 PUSH1 0x2 EXP SUB DUP8 DUP2 AND PUSH1 0x4 DUP4 ADD MSTORE ADDRESS PUSH1 0x24 DUP4 ADD MSTORE PUSH32 0xFFFFFFFF00000000000000000000000000000000000000000000000000000000 DUP8 AND PUSH1 0x44 DUP4 ADD MSTORE SWAP2 MLOAD SWAP2 SWAP1 SWAP3 AND SWAP3 PUSH4 0xB7009613 SWAP3 PUSH1 0x64 DUP1 DUP3 ADD SWAP4 PUSH1 0x20 SWAP4 SWAP1 SWAP3 DUP4 SWAP1 SUB SWAP1 SWAP2 ADD SWAP1 DUP3 SWAP1 DUP8 DUP1 EXTCODESIZE ISZERO DUP1 ISZERO PUSH2 0x25A JUMPI PUSH1 0x0 DUP1 REVERT JUMPDEST POP GAS CALL ISZERO DUP1 ISZERO PUSH2 0x26E JUMPI RETURNDATASIZE PUSH1 0x0 DUP1 RETURNDATACOPY RETURNDATASIZE PUSH1 0x0 REVERT JUMPDEST POP POP POP POP PUSH1 0x40 MLOAD RETURNDATASIZE PUSH1 0x20 DUP2 LT ISZERO PUSH2 0x284 JUMPI PUSH1 0x0 DUP1 REVERT JUMPDEST POP MLOAD SWAP1 POP JUMPDEST SWAP3 SWAP2 POP POP JUMP JUMPDEST PUSH2 0x85F DUP1 PUSH2 0x29E PUSH1 0x0 CODECOPY PUSH1 0x0 RETURN STOP PUSH1 0x80 PUSH1 0x40 MSTORE PUSH1 0x4 CALLDATASIZE LT PUSH2 0x8D JUMPI PUSH4 0xFFFFFFFF PUSH29 0x100000000000000000000000000000000000000000000000000000000 PUSH1 0x0 CALLDATALOAD DIV AND PUSH4 0x13AF4035 DUP2 EQ PUSH2 0x8F JUMPI DUP1 PUSH4 0x1CFF79CD EQ PUSH2 0xB0 JUMPI DUP1 PUSH4 0x1F6A1EB9 EQ PUSH2 0x11C JUMPI DUP1 PUSH4 0x60C7D295 EQ PUSH2 0x1C9 JUMPI DUP1 PUSH4 0x7A9E5E4B EQ PUSH2 0x1FA JUMPI DUP1 PUSH4 0x8DA5CB5B EQ PUSH2 0x21B JUMPI DUP1 PUSH4 0x948F5076 EQ PUSH2 0x230 JUMPI DUP1 PUSH4 0xBF7E214F EQ PUSH2 0x265 JUMPI JUMPDEST STOP JUMPDEST CALLVALUE DUP1 ISZERO PUSH2 0x9B JUMPI PUSH1 0x0 DUP1 REVERT JUMPDEST POP PUSH2 0x8D PUSH1 0x1 PUSH1 0xA0 PUSH1 0x2 EXP SUB PUSH1 0x4 CALLDATALOAD AND PUSH2 0x27A JUMP JUMPDEST PUSH1 0x40 DUP1 MLOAD PUSH1 0x20 PUSH1 0x4 PUSH1 0x24 DUP1 CALLDATALOAD DUP3 DUP2 ADD CALLDATALOAD PUSH1 0x1F DUP2 ADD DUP6 SWAP1 DIV DUP6 MUL DUP7 ADD DUP6 ADD SWAP1 SWAP7 MSTORE DUP6 DUP6 MSTORE PUSH2 0x10A SWAP6 DUP4 CALLDATALOAD PUSH1 0x1 PUSH1 0xA0 PUSH1 0x2 EXP SUB AND SWAP6 CALLDATASIZE SWAP6 PUSH1 0x44 SWAP5 SWAP2 SWAP4 SWAP1 SWAP2 ADD SWAP2 SWAP1 DUP2 SWAP1 DUP5 ADD DUP4 DUP3 DUP1 DUP3 DUP5 CALLDATACOPY POP SWAP5 SWAP8 POP PUSH2 0x2F8 SWAP7 POP POP POP POP POP POP POP JUMP JUMPDEST PUSH1 0x40 DUP1 MLOAD SWAP2 DUP3 MSTORE MLOAD SWAP1 DUP2 SWAP1 SUB PUSH1 0x20 ADD SWAP1 RETURN JUMPDEST PUSH1 0x40 DUP1 MLOAD PUSH1 0x20 PUSH1 0x4 DUP1 CALLDATALOAD DUP1 DUP3 ADD CALLDATALOAD PUSH1 0x1F DUP2 ADD DUP5 SWAP1 DIV DUP5 MUL DUP6 ADD DUP5 ADD SWAP1 SWAP6 MSTORE DUP5 DUP5 MSTORE PUSH2 0x1A6 SWAP5 CALLDATASIZE SWAP5 SWAP3 SWAP4 PUSH1 0x24 SWAP4 SWAP3 DUP5 ADD SWAP2 SWAP1 DUP2 SWAP1 DUP5 ADD DUP4 DUP3 DUP1 DUP3 DUP5 CALLDATACOPY POP POP PUSH1 0x40 DUP1 MLOAD PUSH1 0x20 PUSH1 0x1F DUP10 CALLDATALOAD DUP12 ADD DUP1 CALLDATALOAD SWAP2 DUP3 ADD DUP4 SWAP1 DIV DUP4 MUL DUP5 ADD DUP4 ADD SWAP1 SWAP5 MSTORE DUP1 DUP4 MSTORE SWAP8 SWAP11 SWAP10 SWAP9 DUP2 ADD SWAP8 SWAP2 SWAP7 POP SWAP2 DUP3 ADD SWAP5 POP SWAP3 POP DUP3 SWAP2 POP DUP5 ADD DUP4 DUP3 DUP1 DUP3 DUP5 CALLDATACOPY POP SWAP5 SWAP8 POP PUSH2 0x3B5 SWAP7 POP POP POP POP POP POP POP JUMP JUMPDEST PUSH1 0x40 DUP1 MLOAD PUSH1 0x1 PUSH1 0xA0 PUSH1 0x2 EXP SUB SWAP1 SWAP4 AND DUP4 MSTORE PUSH1 0x20 DUP4 ADD SWAP2 SWAP1 SWAP2 MSTORE DUP1 MLOAD SWAP2 DUP3 SWAP1 SUB ADD SWAP1 RETURN JUMPDEST CALLVALUE DUP1 ISZERO PUSH2 0x1D5 JUMPI PUSH1 0x0 DUP1 REVERT JUMPDEST POP PUSH2 0x1DE PUSH2 0x5C5 JUMP JUMPDEST PUSH1 0x40 DUP1 MLOAD PUSH1 0x1 PUSH1 0xA0 PUSH1 0x2 EXP SUB SWAP1 SWAP3 AND DUP3 MSTORE MLOAD SWAP1 DUP2 SWAP1 SUB PUSH1 0x20 ADD SWAP1 RETURN JUMPDEST CALLVALUE DUP1 ISZERO PUSH2 0x206 JUMPI PUSH1 0x0 DUP1 REVERT JUMPDEST POP PUSH2 0x8D PUSH1 0x1 PUSH1 0xA0 PUSH1 0x2 EXP SUB PUSH1 0x4 CALLDATALOAD AND PUSH2 0x5D4 JUMP JUMPDEST CALLVALUE DUP1 ISZERO PUSH2 0x227 JUMPI PUSH1 0x0 DUP1 REVERT JUMPDEST POP PUSH2 0x1DE PUSH2 0x64E JUMP JUMPDEST CALLVALUE DUP1 ISZERO PUSH2 0x23C JUMPI PUSH1 0x0 DUP1 REVERT JUMPDEST POP PUSH2 0x251 PUSH1 0x1 PUSH1 0xA0 PUSH1 0x2 EXP SUB PUSH1 0x4 CALLDATALOAD AND PUSH2 0x65D JUMP JUMPDEST PUSH1 0x40 DUP1 MLOAD SWAP2 ISZERO ISZERO DUP3 MSTORE MLOAD SWAP1 DUP2 SWAP1 SUB PUSH1 0x20 ADD SWAP1 RETURN JUMPDEST CALLVALUE DUP1 ISZERO PUSH2 0x271 JUMPI PUSH1 0x0 DUP1 REVERT JUMPDEST POP PUSH2 0x1DE PUSH2 0x71B JUMP JUMPDEST PUSH2 0x290 CALLER PUSH1 0x0 CALLDATALOAD PUSH1 0x1 PUSH1 0xE0 PUSH1 0x2 EXP SUB NOT AND PUSH2 0x72A JUMP JUMPDEST ISZERO ISZERO PUSH2 0x29B JUMPI PUSH1 0x0 DUP1 REVERT JUMPDEST PUSH1 0x1 DUP1 SLOAD PUSH20 0xFFFFFFFFFFFFFFFFFFFFFFFFFFFFFFFFFFFFFFFF NOT AND PUSH1 0x1 PUSH1 0xA0 PUSH1 0x2 EXP SUB DUP4 DUP2 AND SWAP2 SWAP1 SWAP2 OR SWAP2 DUP3 SWAP1 SSTORE PUSH1 0x40 MLOAD SWAP2 AND SWAP1 PUSH32 0xCE241D7CA1F669FEE44B6FC00B8EBA2DF3BB514EED0F6F668F8F89096E81ED94 SWAP1 PUSH1 0x0 SWAP1 LOG2 POP JUMP JUMPDEST PUSH1 0x0 PUSH2 0x310 CALLER PUSH1 0x0 CALLDATALOAD PUSH1 0x1 PUSH1 0xE0 PUSH1 0x2 EXP SUB NOT AND PUSH2 0x72A JUMP JUMPDEST ISZERO ISZERO PUSH2 0x31B JUMPI PUSH1 0x0 DUP1 REVERT JUMPDEST PUSH1 0x40 DUP1 MLOAD CALLVALUE DUP1 DUP3 MSTORE PUSH1 0x20 DUP3 ADD DUP4 DUP2 MSTORE CALLDATASIZE SWAP4 DUP4 ADD DUP5 SWAP1 MSTORE PUSH1 0x4 CALLDATALOAD SWAP4 PUSH1 0x24 CALLDATALOAD SWAP4 DUP5 SWAP4 DUP7 SWAP4 CALLER SWAP4 PUSH1 0x0 DUP1 CALLDATALOAD PUSH1 0x1 PUSH1 0xE0 PUSH1 0x2 EXP SUB NOT AND SWAP5 SWAP1 SWAP3 PUSH1 0x60 DUP3 ADD DUP5 DUP5 DUP1 DUP3 DUP5 CALLDATACOPY PUSH1 0x40 MLOAD SWAP3 ADD DUP3 SWAP1 SUB SWAP7 POP SWAP1 SWAP5 POP POP POP POP POP LOG4 PUSH1 0x1 PUSH1 0xA0 PUSH1 0x2 EXP SUB DUP6 AND ISZERO ISZERO PUSH2 0x381 JUMPI PUSH1 0x0 DUP1 REVERT JUMPDEST PUSH1 0x20 PUSH1 0x0 DUP6 MLOAD PUSH1 0x20 DUP8 ADD DUP9 PUSH2 0x1388 GAS SUB DELEGATECALL PUSH1 0x0 MLOAD SWAP4 POP DUP1 ISZERO PUSH1 0x1 DUP2 EQ PUSH2 0x3A6 JUMPI PUSH2 0x3AB JUMP JUMPDEST PUSH1 0x0 DUP1 REVERT JUMPDEST POP POP POP POP SWAP3 SWAP2 POP POP JUMP JUMPDEST PUSH1 0x2 SLOAD PUSH1 0x40 MLOAD PUSH32 0x8BF4515C00000000000000000000000000000000000000000000000000000000 DUP2 MSTORE PUSH1 0x20 PUSH1 0x4 DUP3 ADD DUP2 DUP2 MSTORE DUP6 MLOAD PUSH1 0x24 DUP5 ADD MSTORE DUP6 MLOAD PUSH1 0x0 SWAP5 DUP6 SWAP5 PUSH1 0x1 PUSH1 0xA0 PUSH1 0x2 EXP SUB SWAP1 SWAP2 AND SWAP4 PUSH4 0x8BF4515C SWAP4 DUP10 SWAP4 SWAP1 SWAP3 DUP4 SWAP3 PUSH1 0x44 SWAP1 SWAP2 ADD SWAP2 SWAP1 DUP6 ADD SWAP1 DUP1 DUP4 DUP4 DUP12 JUMPDEST DUP4 DUP2 LT ISZERO PUSH2 0x434 JUMPI DUP2 DUP2 ADD MLOAD DUP4 DUP3 ADD MSTORE PUSH1 0x20 ADD PUSH2 0x41C JUMP JUMPDEST POP POP POP POP SWAP1 POP SWAP1 DUP2 ADD SWAP1 PUSH1 0x1F AND DUP1 ISZERO PUSH2 0x461 JUMPI DUP1 DUP3 SUB DUP1 MLOAD PUSH1 0x1 DUP4 PUSH1 0x20 SUB PUSH2 0x100 EXP SUB NOT AND DUP2 MSTORE PUSH1 0x20 ADD SWAP2 POP JUMPDEST POP SWAP3 POP POP POP PUSH1 0x20 PUSH1 0x40 MLOAD DUP1 DUP4 SUB DUP2 PUSH1 0x0 DUP8 DUP1 EXTCODESIZE ISZERO DUP1 ISZERO PUSH2 0x480 JUMPI PUSH1 0x0 DUP1 REVERT JUMPDEST POP GAS CALL ISZERO DUP1 ISZERO PUSH2 0x494 JUMPI RETURNDATASIZE PUSH1 0x0 DUP1 RETURNDATACOPY RETURNDATASIZE PUSH1 0x0 REVERT JUMPDEST POP POP POP POP PUSH1 0x40 MLOAD RETURNDATASIZE PUSH1 0x20 DUP2 LT ISZERO PUSH2 0x4AA JUMPI PUSH1 0x0 DUP1 REVERT JUMPDEST POP MLOAD SWAP2 POP PUSH1 0x1 PUSH1 0xA0 PUSH1 0x2 EXP SUB DUP3 AND ISZERO ISZERO PUSH2 0x5B2 JUMPI PUSH1 0x2 SLOAD PUSH1 0x40 MLOAD PUSH32 0x7ED0C3B200000000000000000000000000000000000000000000000000000000 DUP2 MSTORE PUSH1 0x20 PUSH1 0x4 DUP3 ADD DUP2 DUP2 MSTORE DUP8 MLOAD PUSH1 0x24 DUP5 ADD MSTORE DUP8 MLOAD PUSH1 0x1 PUSH1 0xA0 PUSH1 0x2 EXP SUB SWAP1 SWAP5 AND SWAP4 PUSH4 0x7ED0C3B2 SWAP4 DUP10 SWAP4 DUP4 SWAP3 PUSH1 0x44 SWAP1 SWAP3 ADD SWAP2 SWAP1 DUP6 ADD SWAP1 DUP1 DUP4 DUP4 PUSH1 0x0 JUMPDEST DUP4 DUP2 LT ISZERO PUSH2 0x537 JUMPI DUP2 DUP2 ADD MLOAD DUP4 DUP3 ADD MSTORE PUSH1 0x20 ADD PUSH2 0x51F JUMP JUMPDEST POP POP POP POP SWAP1 POP SWAP1 DUP2 ADD SWAP1 PUSH1 0x1F AND DUP1 ISZERO PUSH2 0x564 JUMPI DUP1 DUP3 SUB DUP1 MLOAD PUSH1 0x1 DUP4 PUSH1 0x20 SUB PUSH2 0x100 EXP SUB NOT AND DUP2 MSTORE PUSH1 0x20 ADD SWAP2 POP JUMPDEST POP SWAP3 POP POP POP PUSH1 0x20 PUSH1 0x40 MLOAD DUP1 DUP4 SUB DUP2 PUSH1 0x0 DUP8 DUP1 EXTCODESIZE ISZERO DUP1 ISZERO PUSH2 0x583 JUMPI PUSH1 0x0 DUP1 REVERT JUMPDEST POP GAS CALL ISZERO DUP1 ISZERO PUSH2 0x597 JUMPI RETURNDATASIZE PUSH1 0x0 DUP1 RETURNDATACOPY RETURNDATASIZE PUSH1 0x0 REVERT JUMPDEST POP POP POP POP PUSH1 0x40 MLOAD RETURNDATASIZE PUSH1 0x20 DUP2 LT ISZERO PUSH2 0x5AD JUMPI PUSH1 0x0 DUP1 REVERT JUMPDEST POP MLOAD SWAP2 POP JUMPDEST PUSH2 0x5BC DUP3 DUP5 PUSH2 0x2F8 JUMP JUMPDEST SWAP1 POP SWAP3 POP SWAP3 SWAP1 POP JUMP JUMPDEST PUSH1 0x2 SLOAD PUSH1 0x1 PUSH1 0xA0 PUSH1 0x2 EXP SUB AND DUP2 JUMP JUMPDEST PUSH2 0x5EA CALLER PUSH1 0x0 CALLDATALOAD PUSH1 0x1 PUSH1 0xE0 PUSH1 0x2 EXP SUB NOT AND PUSH2 0x72A JUMP JUMPDEST ISZERO ISZERO PUSH2 0x5F5 JUMPI PUSH1 0x0 DUP1 REVERT JUMPDEST PUSH1 0x0 DUP1 SLOAD PUSH20 0xFFFFFFFFFFFFFFFFFFFFFFFFFFFFFFFFFFFFFFFF NOT AND PUSH1 0x1 PUSH1 0xA0 PUSH1 0x2 EXP SUB DUP4 DUP2 AND SWAP2 SWAP1 SWAP2 OR DUP1 DUP4 SSTORE PUSH1 0x40 MLOAD SWAP2 AND SWAP2 PUSH32 0x1ABEBEA81BFA2637F28358C371278FB15EDE7EA8DD28D2E03B112FF6D936ADA4 SWAP2 LOG2 POP JUMP JUMPDEST PUSH1 0x1 SLOAD PUSH1 0x1 PUSH1 0xA0 PUSH1 0x2 EXP SUB AND DUP2 JUMP JUMPDEST PUSH1 0x0 PUSH2 0x675 CALLER PUSH1 0x0 CALLDATALOAD PUSH1 0x1 PUSH1 0xE0 PUSH1 0x2 EXP SUB NOT AND PUSH2 0x72A JUMP JUMPDEST ISZERO ISZERO PUSH2 0x680 JUMPI PUSH1 0x0 DUP1 REVERT JUMPDEST PUSH1 0x40 DUP1 MLOAD CALLVALUE DUP1 DUP3 MSTORE PUSH1 0x20 DUP3 ADD DUP4 DUP2 MSTORE CALLDATASIZE SWAP4 DUP4 ADD DUP5 SWAP1 MSTORE PUSH1 0x4 CALLDATALOAD SWAP4 PUSH1 0x24 CALLDATALOAD SWAP4 DUP5 SWAP4 DUP7 SWAP4 CALLER SWAP4 PUSH1 0x0 DUP1 CALLDATALOAD PUSH1 0x1 PUSH1 0xE0 PUSH1 0x2 EXP SUB NOT AND SWAP5 SWAP1 SWAP3 PUSH1 0x60 DUP3 ADD DUP5 DUP5 DUP1 DUP3 DUP5 CALLDATACOPY PUSH1 0x40 MLOAD SWAP3 ADD DUP3 SWAP1 SUB SWAP7 POP SWAP1 SWAP5 POP POP POP POP POP LOG4 PUSH1 0x1 PUSH1 0xA0 PUSH1 0x2 EXP SUB DUP5 AND ISZERO ISZERO PUSH2 0x6E6 JUMPI PUSH1 0x0 DUP1 REVERT JUMPDEST PUSH1 0x2 DUP1 SLOAD PUSH1 0x1 PUSH1 0xA0 PUSH1 0x2 EXP SUB DUP7 AND PUSH20 0xFFFFFFFFFFFFFFFFFFFFFFFFFFFFFFFFFFFFFFFF NOT SWAP1 SWAP2 AND OR SWAP1 SSTORE PUSH1 0x1 SWAP3 POP POP POP SWAP2 SWAP1 POP JUMP JUMPDEST PUSH1 0x0 SLOAD PUSH1 0x1 PUSH1 0xA0 PUSH1 0x2 EXP SUB AND DUP2 JUMP JUMPDEST PUSH1 0x0 PUSH1 0x1 PUSH1 0xA0 PUSH1 0x2 EXP SUB DUP4 AND ADDRESS EQ ISZERO PUSH2 0x745 JUMPI POP PUSH1 0x1 PUSH2 0x82D JUMP JUMPDEST PUSH1 0x1 SLOAD PUSH1 0x1 PUSH1 0xA0 PUSH1 0x2 EXP SUB DUP5 DUP2 AND SWAP2 AND EQ ISZERO PUSH2 0x763 JUMPI POP PUSH1 0x1 PUSH2 0x82D JUMP JUMPDEST PUSH1 0x0 SLOAD PUSH1 0x1 PUSH1 0xA0 PUSH1 0x2 EXP SUB AND ISZERO ISZERO PUSH2 0x77D JUMPI POP PUSH1 0x0 PUSH2 0x82D JUMP JUMPDEST PUSH1 0x0 DUP1 SLOAD PUSH1 0x40 DUP1 MLOAD PUSH32 0xB700961300000000000000000000000000000000000000000000000000000000 DUP2 MSTORE PUSH1 0x1 PUSH1 0xA0 PUSH1 0x2 EXP SUB DUP8 DUP2 AND PUSH1 0x4 DUP4 ADD MSTORE ADDRESS PUSH1 0x24 DUP4 ADD MSTORE PUSH1 0x1 PUSH1 0xE0 PUSH1 0x2 EXP SUB NOT DUP8 AND PUSH1 0x44 DUP4 ADD MSTORE SWAP2 MLOAD SWAP2 SWAP1 SWAP3 AND SWAP3 PUSH4 0xB7009613 SWAP3 PUSH1 0x64 DUP1 DUP3 ADD SWAP4 PUSH1 0x20 SWAP4 SWAP1 SWAP3 DUP4 SWAP1 SUB SWAP1 SWAP2 ADD SWAP1 DUP3 SWAP1 DUP8 DUP1 EXTCODESIZE ISZERO DUP1 ISZERO PUSH2 0x7FE JUMPI PUSH1 0x0 DUP1 REVERT JUMPDEST POP GAS CALL ISZERO DUP1 ISZERO PUSH2 0x812 JUMPI RETURNDATASIZE PUSH1 0x0 DUP1 RETURNDATACOPY RETURNDATASIZE PUSH1 0x0 REVERT JUMPDEST POP POP POP POP PUSH1 0x40 MLOAD RETURNDATASIZE PUSH1 0x20 DUP2 LT ISZERO PUSH2 0x828 JUMPI PUSH1 0x0 DUP1 REVERT JUMPDEST POP MLOAD SWAP1 POP JUMPDEST SWAP3 SWAP2 POP POP JUMP STOP LOG1 PUSH6 0x627A7A723058 KECCAK256 BLOCKHASH 0x28 0x26 EXTCODECOPY 0x4f 0xbd 0x22 0xd4 0xd4 0xbb 0xb9 SWAP14 0xda SHR PUSH22 0x1D8A15F45B5C01767D3B0D74A2BF9471850029000000 "
		},
		"gasEstimates": {
			"creation": {
				"codeDepositCost": "428600",
				"executionCost": "infinite",
				"totalCost": "infinite"
			},
			"external": {
				"": "236",
				"authority()": "691",
				"cache()": "603",
				"execute(address,bytes)": "infinite",
				"execute(bytes,bytes)": "infinite",
				"owner()": "647",
				"setAuthority(address)": "infinite",
				"setCache(address)": "infinite",
				"setOwner(address)": "infinite"
			}
		},
		"methodIdentifiers": {
			"authority()": "bf7e214f",
			"cache()": "60c7d295",
			"execute(address,bytes)": "1cff79cd",
			"execute(bytes,bytes)": "1f6a1eb9",
			"owner()": "8da5cb5b",
			"setAuthority(address)": "7a9e5e4b",
			"setCache(address)": "948f5076",
			"setOwner(address)": "13af4035"
		}
	},
	"abi": [
		{
			"constant": false,
			"inputs": [
				{
					"name": "owner_",
					"type": "address"
				}
			],
			"name": "setOwner",
			"outputs": [],
			"payable": false,
			"stateMutability": "nonpayable",
			"type": "function"
		},
		{
			"constant": false,
			"inputs": [
				{
					"name": "_target",
					"type": "address"
				},
				{
					"name": "_data",
					"type": "bytes"
				}
			],
			"name": "execute",
			"outputs": [
				{
					"name": "response",
					"type": "bytes32"
				}
			],
			"payable": true,
			"stateMutability": "payable",
			"type": "function"
		},
		{
			"constant": false,
			"inputs": [
				{
					"name": "_code",
					"type": "bytes"
				},
				{
					"name": "_data",
					"type": "bytes"
				}
			],
			"name": "execute",
			"outputs": [
				{
					"name": "target",
					"type": "address"
				},
				{
					"name": "response",
					"type": "bytes32"
				}
			],
			"payable": true,
			"stateMutability": "payable",
			"type": "function"
		},
		{
			"constant": true,
			"inputs": [],
			"name": "cache",
			"outputs": [
				{
					"name": "",
					"type": "address"
				}
			],
			"payable": false,
			"stateMutability": "view",
			"type": "function"
		},
		{
			"constant": false,
			"inputs": [
				{
					"name": "authority_",
					"type": "address"
				}
			],
			"name": "setAuthority",
			"outputs": [],
			"payable": false,
			"stateMutability": "nonpayable",
			"type": "function"
		},
		{
			"constant": true,
			"inputs": [],
			"name": "owner",
			"outputs": [
				{
					"name": "",
					"type": "address"
				}
			],
			"payable": false,
			"stateMutability": "view",
			"type": "function"
		},
		{
			"constant": false,
			"inputs": [
				{
					"name": "_cacheAddr",
					"type": "address"
				}
			],
			"name": "setCache",
			"outputs": [
				{
					"name": "",
					"type": "bool"
				}
			],
			"payable": false,
			"stateMutability": "nonpayable",
			"type": "function"
		},
		{
			"constant": true,
			"inputs": [],
			"name": "authority",
			"outputs": [
				{
					"name": "",
					"type": "address"
				}
			],
			"payable": false,
			"stateMutability": "view",
			"type": "function"
		},
		{
			"inputs": [
				{
					"name": "_cacheAddr",
					"type": "address"
				}
			],
			"payable": false,
			"stateMutability": "nonpayable",
			"type": "constructor"
		},
		{
			"payable": true,
			"stateMutability": "payable",
			"type": "fallback"
		},
		{
			"anonymous": true,
			"inputs": [
				{
					"indexed": true,
					"name": "sig",
					"type": "bytes4"
				},
				{
					"indexed": true,
					"name": "guy",
					"type": "address"
				},
				{
					"indexed": true,
					"name": "foo",
					"type": "bytes32"
				},
				{
					"indexed": true,
					"name": "bar",
					"type": "bytes32"
				},
				{
					"indexed": false,
					"name": "wad",
					"type": "uint256"
				},
				{
					"indexed": false,
					"name": "fax",
					"type": "bytes"
				}
			],
			"name": "LogNote",
			"type": "event"
		},
		{
			"anonymous": false,
			"inputs": [
				{
					"indexed": true,
					"name": "authority",
					"type": "address"
				}
			],
			"name": "LogSetAuthority",
			"type": "event"
		},
		{
			"anonymous": false,
			"inputs": [
				{
					"indexed": true,
					"name": "owner",
					"type": "address"
				}
			],
			"name": "LogSetOwner",
			"type": "event"
		}
	]
}