{
	"data": {
		"bytecode": {
			"linkReferences": {},
			"object": "60806040523480156200001157600080fd5b50604051620027d8380380620027d88339810160408190526200003491620000d0565b6000620000496001600160e01b03620000b916565b600080546001600160a01b0319166001600160a01b0383169081178255604051929350917f8be0079c531659141344cd1fd0a4f28419497f9722a3daafe3b4186f6b6457e0908290a350600180546001600160a01b0319166001600160a01b039290921691909117905562000125565b3390565b8051620000ca816200010b565b92915050565b600060208284031215620000e357600080fd5b6000620000f18484620000bd565b949350505050565b60006001600160a01b038216620000ca565b6200011681620000f9565b81146200012257600080fd5b50565b6126a380620001356000396000f3fe60806040526004361061009c5760003560e01c80638da5cb5b116100645780638da5cb5b146101225780638f32d59b146101445780639b942c1314610166578063a91ee0dc14610193578063e2b39746146101b3578063f2fde38b146101c65761009c565b80632db581341461009e578063586307ae146100c7578063715018a6146100e757806386b2ecc4146100fc5780638743ad581461010f575b005b6100b16100ac366004611d31565b6101e6565b6040516100be9190612549565b60405180910390f35b3480156100d357600080fd5b506100b16100e2366004611dc3565b610464565b3480156100f357600080fd5b5061009c6105d5565b6100b161010a366004611bf8565b610643565b6100b161011d366004611d6a565b610ac8565b34801561012e57600080fd5b50610137610e25565b6040516100be91906122a3565b34801561015057600080fd5b50610159610e34565b6040516100be919061243a565b34801561017257600080fd5b50610186610181366004611cfc565b610e58565b6040516100be9190612429565b34801561019f57600080fd5b5061009c6101ae366004611bd2565b610fd1565b6100b16101c1366004611c70565b611017565b3480156101d257600080fd5b5061009c6101e1366004611bd2565b6114fe565b6000336101f28561152e565b1561026457600160009054906101000a90046001600160a01b03166001600160a01b031663d0e30db0346040518263ffffffff1660e01b81526004016000604051808303818588803b15801561024757600080fd5b505af115801561025b573d6000803e3d6000fd5b50505050503090505b60005b86518110156103fd57610278611963565b87828151811061028457fe5b60200260200101519050600061029982610464565b90506102a48861152e565b6102b25781602001516102bf565b6001546001600160a01b03165b6001600160a01b03166020830181905282516102de9190869084611553565b60015460408301516000916001600160a01b03918216911614801561030757506103078861152e565b6103115733610313565b305b835160208501516080860151604080880151606089015160a08a0151925163ab431f9f60e01b815296975094956001600160a01b0387169563ab431f9f95610368953395919490939092918b9160040161230b565b6040805180830381600087803b15801561038157600080fd5b505af1158015610395573d6000803e3d6000fd5b505050506040513d601f19601f820116820180604052506103b99190810190611dff565b50506001600160a01b03821633146103db576103d9898560600151611644565b505b6103eb838863ffffffff61175616565b96505060019093019250610267915050565b50828211156104275760405162461bcd60e51b815260040161041e906124b9565b60405180910390fd5b6104308561152e565b801561043b57508134115b1561045b5761045985610454348563ffffffff61178216565b611644565b505b50949350505050565b6000808260600151116104895760405162461bcd60e51b815260040161041e90612489565b8151602083015160408085015160608601519151630eff5e1760e11b81526001600160a01b03851693631dfebc2e936104ca939192600091906004016123b1565b60206040518083038186803b1580156104e257600080fd5b505afa1580156104f6573d6000803e3d6000fd5b505050506040513d601f19601f8201168201806040525061051a9190810190611de1565b6020840151604080860151905163df52eb7560e01b81529294506000926001600160a01b0385169263df52eb75926105589286908190600401612373565b60206040518083038186803b15801561057057600080fd5b505afa158015610584573d6000803e3d6000fd5b505050506040513d601f19601f820116820180604052506105a89190810190611de1565b90508360a001518111156105ce5760405162461bcd60e51b815260040161041e90612509565b5050919050565b6105dd610e34565b6105f95760405162461bcd60e51b815260040161041e906124d9565b600080546040516001600160a01b03909116907f8be0079c531659141344cd1fd0a4f28419497f9722a3daafe3b4186f6b6457e0908390a3600080546001600160a01b0319169055565b60003361064f8561152e565b156106e157823410156106745760405162461bcd60e51b815260040161041e90612479565b600160009054906101000a90046001600160a01b03166001600160a01b031663d0e30db0346040518263ffffffff1660e01b81526004016000604051808303818588803b1580156106c457600080fd5b505af11580156106d8573d6000803e3d6000fd5b50505050503090505b60005b86518110156103fd57606061070b8883815181106106fe57fe5b6020026020010151610e58565b90506107168761152e565b61074b5787828151811061072657fe5b602002602001015160008151811061073a57fe5b602002602001015160200151610758565b6001546001600160a01b03165b88838151811061076457fe5b602002602001015160008151811061077857fe5b6020026020010151602001906001600160a01b031690816001600160a01b0316815250506108128883815181106107ab57fe5b60200260200101516000815181106107bf57fe5b602002602001015160200151848a85815181106107d857fe5b60200260200101516000815181106107ec57fe5b6020026020010151600001518460008151811061080557fe5b6020026020010151611553565b60005b88838151811061082157fe5b602002602001015151811015610a9557610839611963565b89848151811061084557fe5b6020026020010151828151811061085857fe5b60200260200101519050600081600001519050600060018c878151811061087b57fe5b602002602001015151038410156108c1578b868151811061089857fe5b602002602001015184600101815181106108ae57fe5b6020026020010151600001519050610957565b896001600160a01b031683604001516001600160a01b03161480610906575060015460408401516001600160a01b03908116911614801561090657506109068a61152e565b6109225760405162461bcd60e51b815260040161041e90612539565b60015460408401516001600160a01b03908116911614801561094857506109488a61152e565b6109525733610954565b305b90505b600060018d888151811061096757fe5b602002602001015151038510610981578360600151610999565b85856001018151811061099057fe5b60200260200101515b9050826001600160a01b031663ab431f9f3386602001518989815181106109bc57fe5b6020026020010151886040015186888b60a001516040518863ffffffff1660e01b81526004016109f2979695949392919061230b565b6040805180830381600087803b158015610a0b57600080fd5b505af1158015610a1f573d6000803e3d6000fd5b505050506040513d601f19601f82011682018060405250610a439190810190611dff565b505060018d8881518110610a5357fe5b6020026020010151510385148015610a7457506001600160a01b0382163314155b15610a8557610a838b82611644565b505b5050600190920191506108159050565b50610abd81600081518110610aa657fe5b60200260200101518561175690919063ffffffff16565b9350506001016106e4565b600033610ad48661152e565b15610b665783341015610af95760405162461bcd60e51b815260040161041e90612479565b600160009054906101000a90046001600160a01b03166001600160a01b031663d0e30db0856040518263ffffffff1660e01b81526004016000604051808303818588803b158015610b4957600080fd5b505af1158015610b5d573d6000803e3d6000fd5b50505050503090505b6000805b8851811015610d3d57610b7b611963565b898281518110610b8757fe5b60200260200101519050886001600160a01b031681602001516001600160a01b03161480610bd6575060015460208201516001600160a01b039081169116148015610bd65750610bd68961152e565b610bf25760405162461bcd60e51b815260040161041e90612519565b610c0a81602001518583600001518460600151611553565b60015460408201516000916001600160a01b039182169116148015610c335750610c338961152e565b610c3d5733610c3f565b305b90506000826000015190506000816001600160a01b0316633e6d363f33866020015187604001518860800151888a60a001516040518763ffffffff1660e01b8152600401610c92969594939291906122b1565b6040805180830381600087803b158015610cab57600080fd5b505af1158015610cbf573d6000803e3d6000fd5b505050506040513d601f19601f82011682018060405250610ce39190810190611dff565b5090506001600160a01b0383163314610d0257610d008b82611644565b505b610d12818963ffffffff61175616565b9750610d2b84606001518761175690919063ffffffff16565b95505060019093019250610b6a915050565b50848114610d5d5760405162461bcd60e51b815260040161041e906124e9565b83831015610d7d5760405162461bcd60e51b815260040161041e906124a9565b610d868761152e565b8015610d9157508034115b15610e1a57600033610da9348463ffffffff61178216565b604051610db590612298565b60006040518083038185875af1925050503d8060008114610df2576040519150601f19603f3d011682016040523d82523d6000602084013e610df7565b606091505b5050905080610e185760405162461bcd60e51b815260040161041e906124f9565b505b505095945050505050565b6000546001600160a01b031690565b600080546001600160a01b0316610e496117c4565b6001600160a01b031614905090565b6060600182511015610e7c5760405162461bcd60e51b815260040161041e906124c9565b8151604051908082528060200260200182016040528015610ea7578160200160208202803883390190505b508251909150600019015b8015610f9557610ec0611963565b838281518110610ecc57fe5b60200260200101519050610edf81610464565b838381518110610eeb57fe5b602002602001018181525050836001830381518110610f0657fe5b6020026020010151604001516001600160a01b0316848381518110610f2757fe5b6020026020010151602001516001600160a01b031614610f595760405162461bcd60e51b815260040161041e906124c9565b828281518110610f6557fe5b6020026020010151846001840381518110610f7c57fe5b6020908102919091010151606001525060001901610eb2565b610fb283600081518110610fa557fe5b6020026020010151610464565b82600081518110610fbf57fe5b60200260200101818152505050919050565b610fd9610e34565b610ff55760405162461bcd60e51b815260040161041e906124d9565b600280546001600160a01b0319166001600160a01b0392909216919091179055565b600080336110248761152e565b156110b657843410156110495760405162461bcd60e51b815260040161041e90612479565b600160009054906101000a90046001600160a01b03166001600160a01b031663d0e30db0866040518263ffffffff1660e01b81526004016000604051808303818588803b15801561109957600080fd5b505af11580156110ad573d6000803e3d6000fd5b50505050503090505b60005b8851811015611492576111008982815181106110d157fe5b60200260200101516000815181106110e557fe5b6020026020010151606001518461175690919063ffffffff16565b9250876001600160a01b031689828151811061111857fe5b602002602001015160008151811061112c57fe5b6020026020010151602001516001600160a01b031614806111a057506111518861152e565b80156111a0575060015489516001600160a01b03909116908a908390811061117557fe5b602002602001015160008151811061118957fe5b6020026020010151602001516001600160a01b0316145b6111bc5760405162461bcd60e51b815260040161041e90612519565b6112498982815181106111cb57fe5b60200260200101516000815181106111df57fe5b602002602001015160200151838b84815181106111f857fe5b602002602001015160008151811061120c57fe5b6020026020010151600001518c858151811061122457fe5b602002602001015160008151811061123857fe5b602002602001015160600151611553565b6000805b8a838151811061125957fe5b60200260200101515181101561147657611271611963565b8b848151811061127d57fe5b6020026020010151828151811061129057fe5b60200260200101519050600081600001519050600060018e87815181106112b357fe5b602002602001015151038410156112f9578d86815181106112d057fe5b602002602001015184600101815181106112e657fe5b602002602001015160000151905061138f565b8b6001600160a01b031683604001516001600160a01b0316148061133e575060015460408401516001600160a01b03908116911614801561133e575061133e8c61152e565b61135a5760405162461bcd60e51b815260040161041e90612539565b60015460408401516001600160a01b03908116911614801561138057506113808c61152e565b61138a573361138c565b305b90505b816001600160a01b0316633e6d363f33856020015186604001518760800151868960a001516040518763ffffffff1660e01b81526004016113d5969594939291906122b1565b6040805180830381600087803b1580156113ee57600080fd5b505af1158015611402573d6000803e3d6000fd5b505050506040513d601f19601f820116820180604052506114269190810190611dff565b508095505060018e878151811061143957fe5b602002602001015151038414801561145a57506001600160a01b0381163314155b1561146b576114698c86611644565b505b50505060010161124d565b50611487818663ffffffff61175616565b9450506001016110b9565b508482146114b25760405162461bcd60e51b815260040161041e906124e9565b838310156114d25760405162461bcd60e51b815260040161041e906124a9565b6114db8761152e565b80156114e657508134115b15610e1a57600033610da9348863ffffffff61178216565b611506610e34565b6115225760405162461bcd60e51b815260040161041e906124d9565b61152b816117c8565b50565b6001600160a01b03811673eeeeeeeeeeeeeeeeeeeeeeeeeeeeeeeeeeeeeeee14919050565b60006060856001600160a01b03166323b872dd86868660405160240161157b939291906123e6565b6040516020818303038152906040529060e01b6020820180516001600160e01b0383818316178352505050506040516115b4919061228c565b6000604051808303816000865af19150503d80600081146115f1576040519150601f19603f3d011682016040523d82523d6000602084013e6115f6565b606091505b50915091508180156116205750805115806116205750808060200190516116209190810190611da5565b61163c5760405162461bcd60e51b815260040161041e90612499565b505050505050565b60008161165357506001611750565b61165c8361152e565b1561174557600154604051632e1a7d4d60e01b81526001600160a01b0390911690632e1a7d4d90611691908590600401612549565b600060405180830381600087803b1580156116ab57600080fd5b505af11580156116bf573d6000803e3d6000fd5b505050506000336001600160a01b0316836040516116dc90612298565b60006040518083038185875af1925050503d8060008114611719576040519150601f19603f3d011682016040523d82523d6000602084013e61171e565b606091505b505090508061173f5760405162461bcd60e51b815260040161041e906124f9565b50611750565b611750833384611849565b92915050565b60008282018381101561177b5760405162461bcd60e51b815260040161041e90612469565b9392505050565b600061177b83836040518060400160405280601e81526020017f536166654d6174683a207375627472616374696f6e206f766572666c6f770000815250611937565b3390565b6001600160a01b0381166117ee5760405162461bcd60e51b815260040161041e90612459565b600080546040516001600160a01b03808516939216917f8be0079c531659141344cd1fd0a4f28419497f9722a3daafe3b4186f6b6457e091a3600080546001600160a01b0319166001600160a01b0392909216919091179055565b60006060846001600160a01b031663a9059cbb858560405160240161186f92919061240e565b6040516020818303038152906040529060e01b6020820180516001600160e01b0383818316178352505050506040516118a8919061228c565b6000604051808303816000865af19150503d80600081146118e5576040519150601f19603f3d011682016040523d82523d6000602084013e6118ea565b606091505b50915091508180156119145750805115806119145750808060200190516119149190810190611da5565b6119305760405162461bcd60e51b815260040161041e90612529565b5050505050565b6000818484111561195b5760405162461bcd60e51b815260040161041e9190612448565b505050900390565b6040518060c0016040528060006001600160a01b0316815260200160006001600160a01b0316815260200160006001600160a01b031681526020016000815260200160008152602001600081525090565b803561175081612631565b600082601f8301126119d057600080fd5b81356119e36119de8261257e565b612557565b81815260209384019390925082018360005b83811015611a215781358601611a0b8882611a2b565b84525060209283019291909101906001016119f5565b5050505092915050565b600082601f830112611a3c57600080fd5b8135611a4a6119de8261257e565b915081818352602084019350602081019050838560c0840282011115611a6f57600080fd5b60005b83811015611a215781611a858882611b25565b84525060209092019160c09190910190600101611a72565b600082601f830112611aae57600080fd5b8135611abc6119de8261257e565b915081818352602084019350602081019050838560c0840282011115611ae157600080fd5b60005b83811015611a215781611af78882611b25565b84525060209092019160c09190910190600101611ae4565b805161175081612645565b80356117508161264e565b600060c08284031215611b3757600080fd5b611b4160c0612557565b90506000611b4f84846119b4565b8252506020611b60848483016119b4565b6020830152506040611b74848285016119b4565b6040830152506060611b8884828501611bbc565b6060830152506080611b9c84828501611bbc565b60808301525060a0611bb084828501611bbc565b60a08301525092915050565b803561175081612657565b805161175081612657565b600060208284031215611be457600080fd5b6000611bf084846119b4565b949350505050565b60008060008060808587031215611c0e57600080fd5b843567ffffffffffffffff811115611c2557600080fd5b611c31878288016119bf565b9450506020611c4287828801611b1a565b9350506040611c5387828801611b1a565b9250506060611c6487828801611bbc565b91505092959194509250565b600080600080600060a08688031215611c8857600080fd5b853567ffffffffffffffff811115611c9f57600080fd5b611cab888289016119bf565b9550506020611cbc88828901611b1a565b9450506040611ccd88828901611b1a565b9350506060611cde88828901611bbc565b9250506080611cef88828901611bbc565b9150509295509295909350565b600060208284031215611d0e57600080fd5b813567ffffffffffffffff811115611d2557600080fd5b611bf084828501611a9d565b60008060008060808587031215611d4757600080fd5b843567ffffffffffffffff811115611d5e57600080fd5b611c3187828801611a9d565b600080600080600060a08688031215611d8257600080fd5b853567ffffffffffffffff811115611d9957600080fd5b611cab88828901611a9d565b600060208284031215611db757600080fd5b6000611bf08484611b0f565b600060c08284031215611dd557600080fd5b6000611bf08484611b25565b600060208284031215611df357600080fd5b6000611bf08484611bc7565b60008060408385031215611e1257600080fd5b6000611e1e8585611bc7565b9250506020611e2f85828601611bc7565b9150509250929050565b6000611e458383612283565b505060200190565b611e56816125e1565b82525050565b611e56816125b7565b6000611e70826125a5565b611e7a81856125a9565b9350611e858361259f565b8060005b83811015611eb3578151611e9d8882611e39565b9750611ea88361259f565b925050600101611e89565b509495945050505050565b611e56816125c2565b6000611ed2826125a5565b611edc81856125b2565b9350611eec8185602086016125f7565b9290920192915050565b611e56816125ec565b6000611f0a826125a5565b611f1481856125a9565b9350611f248185602086016125f7565b611f2d81612627565b9093019392505050565b6000611f446026836125a9565b7f4f776e61626c653a206e6577206f776e657220697320746865207a65726f206181526564647265737360d01b602082015260400192915050565b6000611f8c601b836125a9565b7f536166654d6174683a206164646974696f6e206f766572666c6f770000000000815260200192915050565b6000611fc5600c836125a9565b6b22a92927a92fa2aa242fa4a760a11b815260200192915050565b6000611fed6029836125a9565b7f45786368616e676550726f78793a20494e53554646494349454e545f4f555450815268155517d05353d5539560ba1b602082015260400192915050565b60006120386031836125a9565b7f5472616e7366657248656c7065723a3a7472616e7366657246726f6d3a207472815270185b9cd9995c919c9bdb4819985a5b1959607a1b602082015260400192915050565b600061208b600d836125a9565b6c11549497d31253525517d3d555609a1b815260200192915050565b60006120b4600c836125a9565b6b22a9292fa624a6a4aa2fa4a760a11b815260200192915050565b60006120dc601b836125a9565b7f45786368616e676550726f78793a20494e56414c49445f504154480000000000815260200192915050565b60006121156020836125a9565b7f4f776e61626c653a2063616c6c6572206973206e6f7420746865206f776e6572815260200192915050565b600061214e6013836125a9565b7222a9292faa27aa20a62fa0a6a7aaa72a2fa4a760691b815260200192915050565b600061217d600e836125a9565b6d11549497d1551217d1905253115160921b815260200192915050565b60006121a7600f836125a9565b6e4552525f4c494d49545f505249434560881b815260200192915050565b60006121d26015836125a9565b7408aa4a4bea89e968a9c929cbe9c9ea8be9a82a8869605b1b815260200192915050565b60006117506000836125b2565b6000612210602d836125a9565b7f5472616e7366657248656c7065723a3a736166655472616e736665723a20747281526c185b9cd9995c8819985a5b1959609a1b602082015260400192915050565b600061225f6015836125a9565b7408aa4a4be9eaaa8869e929cbe9c9ea8be9a82a8869605b1b815260200192915050565b611e56816125de565b600061177b8284611ec7565b6000611750826121f6565b602081016117508284611e5c565b60c081016122bf8289611e4d565b6122cc6020830188611e5c565b6122d96040830187611e5c565b6122e66060830186612283565b6122f36080830185611e5c565b61230060a0830184612283565b979650505050505050565b60e08101612319828a611e4d565b6123266020830189611e5c565b6123336040830188612283565b6123406060830187611e5c565b61234d6080830186612283565b61235a60a0830185611e5c565b61236760c0830184612283565b98975050505050505050565b608081016123818287611e5c565b61238e6020830186611e5c565b61239b6040830185611ef6565b6123a86060830184611ef6565b95945050505050565b608081016123bf8287611e5c565b6123cc6020830186611e5c565b6123d96040830185611ef6565b6123a86060830184612283565b606081016123f48286611e5c565b6124016020830185611e5c565b611bf06040830184612283565b6040810161241c8285611e5c565b61177b6020830184612283565b6020808252810161177b8184611e65565b602081016117508284611ebe565b6020808252810161177b8184611eff565b6020808252810161175081611f37565b6020808252810161175081611f7f565b6020808252810161175081611fb8565b6020808252810161175081611fe0565b602080825281016117508161202b565b602080825281016117508161207e565b60208082528101611750816120a7565b60208082528101611750816120cf565b6020808252810161175081612108565b6020808252810161175081612141565b6020808252810161175081612170565b602080825281016117508161219a565b60208082528101611750816121c5565b6020808252810161175081612203565b6020808252810161175081612252565b602081016117508284612283565b60405181810167ffffffffffffffff8111828210171561257657600080fd5b604052919050565b600067ffffffffffffffff82111561259557600080fd5b5060209081020190565b60200190565b5190565b90815260200190565b919050565b6000611750826125d2565b151590565b6000611750826125b7565b6001600160a01b031690565b90565b6000611750826125c7565b6000611750826125de565b60005b838110156126125781810151838201526020016125fa565b83811115612621576000848401525b50505050565b601f01601f191690565b61263a816125b7565b811461152b57600080fd5b61263a816125c2565b61263a816125c7565b61263a816125de56fea365627a7a72315820631a0aeb560a775b499ffe9e4484aac349b6b01be16c203ee43fd74ff1bae2086c6578706572696d656e74616cf564736f6c634300050c0040",
			"opcodes": "PUSH1 0x80 PUSH1 0x40 MSTORE CALLVALUE DUP1 ISZERO PUSH3 0x11 JUMPI PUSH1 0x0 DUP1 REVERT JUMPDEST POP PUSH1 0x40 MLOAD PUSH3 0x27D8 CODESIZE SUB DUP1 PUSH3 0x27D8 DUP4 CODECOPY DUP2 ADD PUSH1 0x40 DUP2 SWAP1 MSTORE PUSH3 0x34 SWAP2 PUSH3 0xD0 JUMP JUMPDEST PUSH1 0x0 PUSH3 0x49 PUSH1 0x1 PUSH1 0x1 PUSH1 0xE0 SHL SUB PUSH3 0xB9 AND JUMP JUMPDEST PUSH1 0x0 DUP1 SLOAD PUSH1 0x1 PUSH1 0x1 PUSH1 0xA0 SHL SUB NOT AND PUSH1 0x1 PUSH1 0x1 PUSH1 0xA0 SHL SUB DUP4 AND SWAP1 DUP2 OR DUP3 SSTORE PUSH1 0x40 MLOAD SWAP3 SWAP4 POP SWAP2 PUSH32 0x8BE0079C531659141344CD1FD0A4F28419497F9722A3DAAFE3B4186F6B6457E0 SWAP1 DUP3 SWAP1 LOG3 POP PUSH1 0x1 DUP1 SLOAD PUSH1 0x1 PUSH1 0x1 PUSH1 0xA0 SHL SUB NOT AND PUSH1 0x1 PUSH1 0x1 PUSH1 0xA0 SHL SUB SWAP3 SWAP1 SWAP3 AND SWAP2 SWAP1 SWAP2 OR SWAP1 SSTORE PUSH3 0x125 JUMP JUMPDEST CALLER SWAP1 JUMP JUMPDEST DUP1 MLOAD PUSH3 0xCA DUP2 PUSH3 0x10B JUMP JUMPDEST SWAP3 SWAP2 POP POP JUMP JUMPDEST PUSH1 0x0 PUSH1 0x20 DUP3 DUP5 SUB SLT ISZERO PUSH3 0xE3 JUMPI PUSH1 0x0 DUP1 REVERT JUMPDEST PUSH1 0x0 PUSH3 0xF1 DUP5 DUP5 PUSH3 0xBD JUMP JUMPDEST SWAP5 SWAP4 POP POP POP POP JUMP JUMPDEST PUSH1 0x0 PUSH1 0x1 PUSH1 0x1 PUSH1 0xA0 SHL SUB DUP3 AND PUSH3 0xCA JUMP JUMPDEST PUSH3 0x116 DUP2 PUSH3 0xF9 JUMP JUMPDEST DUP2 EQ PUSH3 0x122 JUMPI PUSH1 0x0 DUP1 REVERT JUMPDEST POP JUMP JUMPDEST PUSH2 0x26A3 DUP1 PUSH3 0x135 PUSH1 0x0 CODECOPY PUSH1 0x0 RETURN INVALID PUSH1 0x80 PUSH1 0x40 MSTORE PUSH1 0x4 CALLDATASIZE LT PUSH2 0x9C JUMPI PUSH1 0x0 CALLDATALOAD PUSH1 0xE0 SHR DUP1 PUSH4 0x8DA5CB5B GT PUSH2 0x64 JUMPI DUP1 PUSH4 0x8DA5CB5B EQ PUSH2 0x122 JUMPI DUP1 PUSH4 0x8F32D59B EQ PUSH2 0x144 JUMPI DUP1 PUSH4 0x9B942C13 EQ PUSH2 0x166 JUMPI DUP1 PUSH4 0xA91EE0DC EQ PUSH2 0x193 JUMPI DUP1 PUSH4 0xE2B39746 EQ PUSH2 0x1B3 JUMPI DUP1 PUSH4 0xF2FDE38B EQ PUSH2 0x1C6 JUMPI PUSH2 0x9C JUMP JUMPDEST DUP1 PUSH4 0x2DB58134 EQ PUSH2 0x9E JUMPI DUP1 PUSH4 0x586307AE EQ PUSH2 0xC7 JUMPI DUP1 PUSH4 0x715018A6 EQ PUSH2 0xE7 JUMPI DUP1 PUSH4 0x86B2ECC4 EQ PUSH2 0xFC JUMPI DUP1 PUSH4 0x8743AD58 EQ PUSH2 0x10F JUMPI JUMPDEST STOP JUMPDEST PUSH2 0xB1 PUSH2 0xAC CALLDATASIZE PUSH1 0x4 PUSH2 0x1D31 JUMP JUMPDEST PUSH2 0x1E6 JUMP JUMPDEST PUSH1 0x40 MLOAD PUSH2 0xBE SWAP2 SWAP1 PUSH2 0x2549 JUMP JUMPDEST PUSH1 0x40 MLOAD DUP1 SWAP2 SUB SWAP1 RETURN JUMPDEST CALLVALUE DUP1 ISZERO PUSH2 0xD3 JUMPI PUSH1 0x0 DUP1 REVERT JUMPDEST POP PUSH2 0xB1 PUSH2 0xE2 CALLDATASIZE PUSH1 0x4 PUSH2 0x1DC3 JUMP JUMPDEST PUSH2 0x464 JUMP JUMPDEST CALLVALUE DUP1 ISZERO PUSH2 0xF3 JUMPI PUSH1 0x0 DUP1 REVERT JUMPDEST POP PUSH2 0x9C PUSH2 0x5D5 JUMP JUMPDEST PUSH2 0xB1 PUSH2 0x10A CALLDATASIZE PUSH1 0x4 PUSH2 0x1BF8 JUMP JUMPDEST PUSH2 0x643 JUMP JUMPDEST PUSH2 0xB1 PUSH2 0x11D CALLDATASIZE PUSH1 0x4 PUSH2 0x1D6A JUMP JUMPDEST PUSH2 0xAC8 JUMP JUMPDEST CALLVALUE DUP1 ISZERO PUSH2 0x12E JUMPI PUSH1 0x0 DUP1 REVERT JUMPDEST POP PUSH2 0x137 PUSH2 0xE25 JUMP JUMPDEST PUSH1 0x40 MLOAD PUSH2 0xBE SWAP2 SWAP1 PUSH2 0x22A3 JUMP JUMPDEST CALLVALUE DUP1 ISZERO PUSH2 0x150 JUMPI PUSH1 0x0 DUP1 REVERT JUMPDEST POP PUSH2 0x159 PUSH2 0xE34 JUMP JUMPDEST PUSH1 0x40 MLOAD PUSH2 0xBE SWAP2 SWAP1 PUSH2 0x243A JUMP JUMPDEST CALLVALUE DUP1 ISZERO PUSH2 0x172 JUMPI PUSH1 0x0 DUP1 REVERT JUMPDEST POP PUSH2 0x186 PUSH2 0x181 CALLDATASIZE PUSH1 0x4 PUSH2 0x1CFC JUMP JUMPDEST PUSH2 0xE58 JUMP JUMPDEST PUSH1 0x40 MLOAD PUSH2 0xBE SWAP2 SWAP1 PUSH2 0x2429 JUMP JUMPDEST CALLVALUE DUP1 ISZERO PUSH2 0x19F JUMPI PUSH1 0x0 DUP1 REVERT JUMPDEST POP PUSH2 0x9C PUSH2 0x1AE CALLDATASIZE PUSH1 0x4 PUSH2 0x1BD2 JUMP JUMPDEST PUSH2 0xFD1 JUMP JUMPDEST PUSH2 0xB1 PUSH2 0x1C1 CALLDATASIZE PUSH1 0x4 PUSH2 0x1C70 JUMP JUMPDEST PUSH2 0x1017 JUMP JUMPDEST CALLVALUE DUP1 ISZERO PUSH2 0x1D2 JUMPI PUSH1 0x0 DUP1 REVERT JUMPDEST POP PUSH2 0x9C PUSH2 0x1E1 CALLDATASIZE PUSH1 0x4 PUSH2 0x1BD2 JUMP JUMPDEST PUSH2 0x14FE JUMP JUMPDEST PUSH1 0x0 CALLER PUSH2 0x1F2 DUP6 PUSH2 0x152E JUMP JUMPDEST ISZERO PUSH2 0x264 JUMPI PUSH1 0x1 PUSH1 0x0 SWAP1 SLOAD SWAP1 PUSH2 0x100 EXP SWAP1 DIV PUSH1 0x1 PUSH1 0x1 PUSH1 0xA0 SHL SUB AND PUSH1 0x1 PUSH1 0x1 PUSH1 0xA0 SHL SUB AND PUSH4 0xD0E30DB0 CALLVALUE PUSH1 0x40 MLOAD DUP3 PUSH4 0xFFFFFFFF AND PUSH1 0xE0 SHL DUP2 MSTORE PUSH1 0x4 ADD PUSH1 0x0 PUSH1 0x40 MLOAD DUP1 DUP4 SUB DUP2 DUP6 DUP9 DUP1 EXTCODESIZE ISZERO DUP1 ISZERO PUSH2 0x247 JUMPI PUSH1 0x0 DUP1 REVERT JUMPDEST POP GAS CALL ISZERO DUP1 ISZERO PUSH2 0x25B JUMPI RETURNDATASIZE PUSH1 0x0 DUP1 RETURNDATACOPY RETURNDATASIZE PUSH1 0x0 REVERT JUMPDEST POP POP POP POP POP ADDRESS SWAP1 POP JUMPDEST PUSH1 0x0 JUMPDEST DUP7 MLOAD DUP2 LT ISZERO PUSH2 0x3FD JUMPI PUSH2 0x278 PUSH2 0x1963 JUMP JUMPDEST DUP8 DUP3 DUP2 MLOAD DUP2 LT PUSH2 0x284 JUMPI INVALID JUMPDEST PUSH1 0x20 MUL PUSH1 0x20 ADD ADD MLOAD SWAP1 POP PUSH1 0x0 PUSH2 0x299 DUP3 PUSH2 0x464 JUMP JUMPDEST SWAP1 POP PUSH2 0x2A4 DUP9 PUSH2 0x152E JUMP JUMPDEST PUSH2 0x2B2 JUMPI DUP2 PUSH1 0x20 ADD MLOAD PUSH2 0x2BF JUMP JUMPDEST PUSH1 0x1 SLOAD PUSH1 0x1 PUSH1 0x1 PUSH1 0xA0 SHL SUB AND JUMPDEST PUSH1 0x1 PUSH1 0x1 PUSH1 0xA0 SHL SUB AND PUSH1 0x20 DUP4 ADD DUP2 SWAP1 MSTORE DUP3 MLOAD PUSH2 0x2DE SWAP2 SWAP1 DUP7 SWAP1 DUP5 PUSH2 0x1553 JUMP JUMPDEST PUSH1 0x1 SLOAD PUSH1 0x40 DUP4 ADD MLOAD PUSH1 0x0 SWAP2 PUSH1 0x1 PUSH1 0x1 PUSH1 0xA0 SHL SUB SWAP2 DUP3 AND SWAP2 AND EQ DUP1 ISZERO PUSH2 0x307 JUMPI POP PUSH2 0x307 DUP9 PUSH2 0x152E JUMP JUMPDEST PUSH2 0x311 JUMPI CALLER PUSH2 0x313 JUMP JUMPDEST ADDRESS JUMPDEST DUP4 MLOAD PUSH1 0x20 DUP6 ADD MLOAD PUSH1 0x80 DUP7 ADD MLOAD PUSH1 0x40 DUP1 DUP9 ADD MLOAD PUSH1 0x60 DUP10 ADD MLOAD PUSH1 0xA0 DUP11 ADD MLOAD SWAP3 MLOAD PUSH4 0xAB431F9F PUSH1 0xE0 SHL DUP2 MSTORE SWAP7 SWAP8 POP SWAP5 SWAP6 PUSH1 0x1 PUSH1 0x1 PUSH1 0xA0 SHL SUB DUP8 AND SWAP6 PUSH4 0xAB431F9F SWAP6 PUSH2 0x368 SWAP6 CALLER SWAP6 SWAP2 SWAP5 SWAP1 SWAP4 SWAP1 SWAP3 SWAP2 DUP12 SWAP2 PUSH1 0x4 ADD PUSH2 0x230B JUMP JUMPDEST PUSH1 0x40 DUP1 MLOAD DUP1 DUP4 SUB DUP2 PUSH1 0x0 DUP8 DUP1 EXTCODESIZE ISZERO DUP1 ISZERO PUSH2 0x381 JUMPI PUSH1 0x0 DUP1 REVERT JUMPDEST POP GAS CALL ISZERO DUP1 ISZERO PUSH2 0x395 JUMPI RETURNDATASIZE PUSH1 0x0 DUP1 RETURNDATACOPY RETURNDATASIZE PUSH1 0x0 REVERT JUMPDEST POP POP POP POP PUSH1 0x40 MLOAD RETURNDATASIZE PUSH1 0x1F NOT PUSH1 0x1F DUP3 ADD AND DUP3 ADD DUP1 PUSH1 0x40 MSTORE POP PUSH2 0x3B9 SWAP2 SWAP1 DUP2 ADD SWAP1 PUSH2 0x1DFF JUMP JUMPDEST POP POP PUSH1 0x1 PUSH1 0x1 PUSH1 0xA0 SHL SUB DUP3 AND CALLER EQ PUSH2 0x3DB JUMPI PUSH2 0x3D9 DUP10 DUP6 PUSH1 0x60 ADD MLOAD PUSH2 0x1644 JUMP JUMPDEST POP JUMPDEST PUSH2 0x3EB DUP4 DUP9 PUSH4 0xFFFFFFFF PUSH2 0x1756 AND JUMP JUMPDEST SWAP7 POP POP PUSH1 0x1 SWAP1 SWAP4 ADD SWAP3 POP PUSH2 0x267 SWAP2 POP POP JUMP JUMPDEST POP DUP3 DUP3 GT ISZERO PUSH2 0x427 JUMPI PUSH1 0x40 MLOAD PUSH3 0x461BCD PUSH1 0xE5 SHL DUP2 MSTORE PUSH1 0x4 ADD PUSH2 0x41E SWAP1 PUSH2 0x24B9 JUMP JUMPDEST PUSH1 0x40 MLOAD DUP1 SWAP2 SUB SWAP1 REVERT JUMPDEST PUSH2 0x430 DUP6 PUSH2 0x152E JUMP JUMPDEST DUP1 ISZERO PUSH2 0x43B JUMPI POP DUP2 CALLVALUE GT JUMPDEST ISZERO PUSH2 0x45B JUMPI PUSH2 0x459 DUP6 PUSH2 0x454 CALLVALUE DUP6 PUSH4 0xFFFFFFFF PUSH2 0x1782 AND JUMP JUMPDEST PUSH2 0x1644 JUMP JUMPDEST POP JUMPDEST POP SWAP5 SWAP4 POP POP POP POP JUMP JUMPDEST PUSH1 0x0 DUP1 DUP3 PUSH1 0x60 ADD MLOAD GT PUSH2 0x489 JUMPI PUSH1 0x40 MLOAD PUSH3 0x461BCD PUSH1 0xE5 SHL DUP2 MSTORE PUSH1 0x4 ADD PUSH2 0x41E SWAP1 PUSH2 0x2489 JUMP JUMPDEST DUP2 MLOAD PUSH1 0x20 DUP4 ADD MLOAD PUSH1 0x40 DUP1 DUP6 ADD MLOAD PUSH1 0x60 DUP7 ADD MLOAD SWAP2 MLOAD PUSH4 0xEFF5E17 PUSH1 0xE1 SHL DUP2 MSTORE PUSH1 0x1 PUSH1 0x1 PUSH1 0xA0 SHL SUB DUP6 AND SWAP4 PUSH4 0x1DFEBC2E SWAP4 PUSH2 0x4CA SWAP4 SWAP2 SWAP3 PUSH1 0x0 SWAP2 SWAP1 PUSH1 0x4 ADD PUSH2 0x23B1 JUMP JUMPDEST PUSH1 0x20 PUSH1 0x40 MLOAD DUP1 DUP4 SUB DUP2 DUP7 DUP1 EXTCODESIZE ISZERO DUP1 ISZERO PUSH2 0x4E2 JUMPI PUSH1 0x0 DUP1 REVERT JUMPDEST POP GAS STATICCALL ISZERO DUP1 ISZERO PUSH2 0x4F6 JUMPI RETURNDATASIZE PUSH1 0x0 DUP1 RETURNDATACOPY RETURNDATASIZE PUSH1 0x0 REVERT JUMPDEST POP POP POP POP PUSH1 0x40 MLOAD RETURNDATASIZE PUSH1 0x1F NOT PUSH1 0x1F DUP3 ADD AND DUP3 ADD DUP1 PUSH1 0x40 MSTORE POP PUSH2 0x51A SWAP2 SWAP1 DUP2 ADD SWAP1 PUSH2 0x1DE1 JUMP JUMPDEST PUSH1 0x20 DUP5 ADD MLOAD PUSH1 0x40 DUP1 DUP7 ADD MLOAD SWAP1 MLOAD PUSH4 0xDF52EB75 PUSH1 0xE0 SHL DUP2 MSTORE SWAP3 SWAP5 POP PUSH1 0x0 SWAP3 PUSH1 0x1 PUSH1 0x1 PUSH1 0xA0 SHL SUB DUP6 AND SWAP3 PUSH4 0xDF52EB75 SWAP3 PUSH2 0x558 SWAP3 DUP7 SWAP1 DUP2 SWAP1 PUSH1 0x4 ADD PUSH2 0x2373 JUMP JUMPDEST PUSH1 0x20 PUSH1 0x40 MLOAD DUP1 DUP4 SUB DUP2 DUP7 DUP1 EXTCODESIZE ISZERO DUP1 ISZERO PUSH2 0x570 JUMPI PUSH1 0x0 DUP1 REVERT JUMPDEST POP GAS STATICCALL ISZERO DUP1 ISZERO PUSH2 0x584 JUMPI RETURNDATASIZE PUSH1 0x0 DUP1 RETURNDATACOPY RETURNDATASIZE PUSH1 0x0 REVERT JUMPDEST POP POP POP POP PUSH1 0x40 MLOAD RETURNDATASIZE PUSH1 0x1F NOT PUSH1 0x1F DUP3 ADD AND DUP3 ADD DUP1 PUSH1 0x40 MSTORE POP PUSH2 0x5A8 SWAP2 SWAP1 DUP2 ADD SWAP1 PUSH2 0x1DE1 JUMP JUMPDEST SWAP1 POP DUP4 PUSH1 0xA0 ADD MLOAD DUP2 GT ISZERO PUSH2 0x5CE JUMPI PUSH1 0x40 MLOAD PUSH3 0x461BCD PUSH1 0xE5 SHL DUP2 MSTORE PUSH1 0x4 ADD PUSH2 0x41E SWAP1 PUSH2 0x2509 JUMP JUMPDEST POP POP SWAP2 SWAP1 POP JUMP JUMPDEST PUSH2 0x5DD PUSH2 0xE34 JUMP JUMPDEST PUSH2 0x5F9 JUMPI PUSH1 0x40 MLOAD PUSH3 0x461BCD PUSH1 0xE5 SHL DUP2 MSTORE PUSH1 0x4 ADD PUSH2 0x41E SWAP1 PUSH2 0x24D9 JUMP JUMPDEST PUSH1 0x0 DUP1 SLOAD PUSH1 0x40 MLOAD PUSH1 0x1 PUSH1 0x1 PUSH1 0xA0 SHL SUB SWAP1 SWAP2 AND SWAP1 PUSH32 0x8BE0079C531659141344CD1FD0A4F28419497F9722A3DAAFE3B4186F6B6457E0 SWAP1 DUP4 SWAP1 LOG3 PUSH1 0x0 DUP1 SLOAD PUSH1 0x1 PUSH1 0x1 PUSH1 0xA0 SHL SUB NOT AND SWAP1 SSTORE JUMP JUMPDEST PUSH1 0x0 CALLER PUSH2 0x64F DUP6 PUSH2 0x152E JUMP JUMPDEST ISZERO PUSH2 0x6E1 JUMPI DUP3 CALLVALUE LT ISZERO PUSH2 0x674 JUMPI PUSH1 0x40 MLOAD PUSH3 0x461BCD PUSH1 0xE5 SHL DUP2 MSTORE PUSH1 0x4 ADD PUSH2 0x41E SWAP1 PUSH2 0x2479 JUMP JUMPDEST PUSH1 0x1 PUSH1 0x0 SWAP1 SLOAD SWAP1 PUSH2 0x100 EXP SWAP1 DIV PUSH1 0x1 PUSH1 0x1 PUSH1 0xA0 SHL SUB AND PUSH1 0x1 PUSH1 0x1 PUSH1 0xA0 SHL SUB AND PUSH4 0xD0E30DB0 CALLVALUE PUSH1 0x40 MLOAD DUP3 PUSH4 0xFFFFFFFF AND PUSH1 0xE0 SHL DUP2 MSTORE PUSH1 0x4 ADD PUSH1 0x0 PUSH1 0x40 MLOAD DUP1 DUP4 SUB DUP2 DUP6 DUP9 DUP1 EXTCODESIZE ISZERO DUP1 ISZERO PUSH2 0x6C4 JUMPI PUSH1 0x0 DUP1 REVERT JUMPDEST POP GAS CALL ISZERO DUP1 ISZERO PUSH2 0x6D8 JUMPI RETURNDATASIZE PUSH1 0x0 DUP1 RETURNDATACOPY RETURNDATASIZE PUSH1 0x0 REVERT JUMPDEST POP POP POP POP POP ADDRESS SWAP1 POP JUMPDEST PUSH1 0x0 JUMPDEST DUP7 MLOAD DUP2 LT ISZERO PUSH2 0x3FD JUMPI PUSH1 0x60 PUSH2 0x70B DUP9 DUP4 DUP2 MLOAD DUP2 LT PUSH2 0x6FE JUMPI INVALID JUMPDEST PUSH1 0x20 MUL PUSH1 0x20 ADD ADD MLOAD PUSH2 0xE58 JUMP JUMPDEST SWAP1 POP PUSH2 0x716 DUP8 PUSH2 0x152E JUMP JUMPDEST PUSH2 0x74B JUMPI DUP8 DUP3 DUP2 MLOAD DUP2 LT PUSH2 0x726 JUMPI INVALID JUMPDEST PUSH1 0x20 MUL PUSH1 0x20 ADD ADD MLOAD PUSH1 0x0 DUP2 MLOAD DUP2 LT PUSH2 0x73A JUMPI INVALID JUMPDEST PUSH1 0x20 MUL PUSH1 0x20 ADD ADD MLOAD PUSH1 0x20 ADD MLOAD PUSH2 0x758 JUMP JUMPDEST PUSH1 0x1 SLOAD PUSH1 0x1 PUSH1 0x1 PUSH1 0xA0 SHL SUB AND JUMPDEST DUP9 DUP4 DUP2 MLOAD DUP2 LT PUSH2 0x764 JUMPI INVALID JUMPDEST PUSH1 0x20 MUL PUSH1 0x20 ADD ADD MLOAD PUSH1 0x0 DUP2 MLOAD DUP2 LT PUSH2 0x778 JUMPI INVALID JUMPDEST PUSH1 0x20 MUL PUSH1 0x20 ADD ADD MLOAD PUSH1 0x20 ADD SWAP1 PUSH1 0x1 PUSH1 0x1 PUSH1 0xA0 SHL SUB AND SWAP1 DUP2 PUSH1 0x1 PUSH1 0x1 PUSH1 0xA0 SHL SUB AND DUP2 MSTORE POP POP PUSH2 0x812 DUP9 DUP4 DUP2 MLOAD DUP2 LT PUSH2 0x7AB JUMPI INVALID JUMPDEST PUSH1 0x20 MUL PUSH1 0x20 ADD ADD MLOAD PUSH1 0x0 DUP2 MLOAD DUP2 LT PUSH2 0x7BF JUMPI INVALID JUMPDEST PUSH1 0x20 MUL PUSH1 0x20 ADD ADD MLOAD PUSH1 0x20 ADD MLOAD DUP5 DUP11 DUP6 DUP2 MLOAD DUP2 LT PUSH2 0x7D8 JUMPI INVALID JUMPDEST PUSH1 0x20 MUL PUSH1 0x20 ADD ADD MLOAD PUSH1 0x0 DUP2 MLOAD DUP2 LT PUSH2 0x7EC JUMPI INVALID JUMPDEST PUSH1 0x20 MUL PUSH1 0x20 ADD ADD MLOAD PUSH1 0x0 ADD MLOAD DUP5 PUSH1 0x0 DUP2 MLOAD DUP2 LT PUSH2 0x805 JUMPI INVALID JUMPDEST PUSH1 0x20 MUL PUSH1 0x20 ADD ADD MLOAD PUSH2 0x1553 JUMP JUMPDEST PUSH1 0x0 JUMPDEST DUP9 DUP4 DUP2 MLOAD DUP2 LT PUSH2 0x821 JUMPI INVALID JUMPDEST PUSH1 0x20 MUL PUSH1 0x20 ADD ADD MLOAD MLOAD DUP2 LT ISZERO PUSH2 0xA95 JUMPI PUSH2 0x839 PUSH2 0x1963 JUMP JUMPDEST DUP10 DUP5 DUP2 MLOAD DUP2 LT PUSH2 0x845 JUMPI INVALID JUMPDEST PUSH1 0x20 MUL PUSH1 0x20 ADD ADD MLOAD DUP3 DUP2 MLOAD DUP2 LT PUSH2 0x858 JUMPI INVALID JUMPDEST PUSH1 0x20 MUL PUSH1 0x20 ADD ADD MLOAD SWAP1 POP PUSH1 0x0 DUP2 PUSH1 0x0 ADD MLOAD SWAP1 POP PUSH1 0x0 PUSH1 0x1 DUP13 DUP8 DUP2 MLOAD DUP2 LT PUSH2 0x87B JUMPI INVALID JUMPDEST PUSH1 0x20 MUL PUSH1 0x20 ADD ADD MLOAD MLOAD SUB DUP5 LT ISZERO PUSH2 0x8C1 JUMPI DUP12 DUP7 DUP2 MLOAD DUP2 LT PUSH2 0x898 JUMPI INVALID JUMPDEST PUSH1 0x20 MUL PUSH1 0x20 ADD ADD MLOAD DUP5 PUSH1 0x1 ADD DUP2 MLOAD DUP2 LT PUSH2 0x8AE JUMPI INVALID JUMPDEST PUSH1 0x20 MUL PUSH1 0x20 ADD ADD MLOAD PUSH1 0x0 ADD MLOAD SWAP1 POP PUSH2 0x957 JUMP JUMPDEST DUP10 PUSH1 0x1 PUSH1 0x1 PUSH1 0xA0 SHL SUB AND DUP4 PUSH1 0x40 ADD MLOAD PUSH1 0x1 PUSH1 0x1 PUSH1 0xA0 SHL SUB AND EQ DUP1 PUSH2 0x906 JUMPI POP PUSH1 0x1 SLOAD PUSH1 0x40 DUP5 ADD MLOAD PUSH1 0x1 PUSH1 0x1 PUSH1 0xA0 SHL SUB SWAP1 DUP2 AND SWAP2 AND EQ DUP1 ISZERO PUSH2 0x906 JUMPI POP PUSH2 0x906 DUP11 PUSH2 0x152E JUMP JUMPDEST PUSH2 0x922 JUMPI PUSH1 0x40 MLOAD PUSH3 0x461BCD PUSH1 0xE5 SHL DUP2 MSTORE PUSH1 0x4 ADD PUSH2 0x41E SWAP1 PUSH2 0x2539 JUMP JUMPDEST PUSH1 0x1 SLOAD PUSH1 0x40 DUP5 ADD MLOAD PUSH1 0x1 PUSH1 0x1 PUSH1 0xA0 SHL SUB SWAP1 DUP2 AND SWAP2 AND EQ DUP1 ISZERO PUSH2 0x948 JUMPI POP PUSH2 0x948 DUP11 PUSH2 0x152E JUMP JUMPDEST PUSH2 0x952 JUMPI CALLER PUSH2 0x954 JUMP JUMPDEST ADDRESS JUMPDEST SWAP1 POP JUMPDEST PUSH1 0x0 PUSH1 0x1 DUP14 DUP9 DUP2 MLOAD DUP2 LT PUSH2 0x967 JUMPI INVALID JUMPDEST PUSH1 0x20 MUL PUSH1 0x20 ADD ADD MLOAD MLOAD SUB DUP6 LT PUSH2 0x981 JUMPI DUP4 PUSH1 0x60 ADD MLOAD PUSH2 0x999 JUMP JUMPDEST DUP6 DUP6 PUSH1 0x1 ADD DUP2 MLOAD DUP2 LT PUSH2 0x990 JUMPI INVALID JUMPDEST PUSH1 0x20 MUL PUSH1 0x20 ADD ADD MLOAD JUMPDEST SWAP1 POP DUP3 PUSH1 0x1 PUSH1 0x1 PUSH1 0xA0 SHL SUB AND PUSH4 0xAB431F9F CALLER DUP7 PUSH1 0x20 ADD MLOAD DUP10 DUP10 DUP2 MLOAD DUP2 LT PUSH2 0x9BC JUMPI INVALID JUMPDEST PUSH1 0x20 MUL PUSH1 0x20 ADD ADD MLOAD DUP9 PUSH1 0x40 ADD MLOAD DUP7 DUP9 DUP12 PUSH1 0xA0 ADD MLOAD PUSH1 0x40 MLOAD DUP9 PUSH4 0xFFFFFFFF AND PUSH1 0xE0 SHL DUP2 MSTORE PUSH1 0x4 ADD PUSH2 0x9F2 SWAP8 SWAP7 SWAP6 SWAP5 SWAP4 SWAP3 SWAP2 SWAP1 PUSH2 0x230B JUMP JUMPDEST PUSH1 0x40 DUP1 MLOAD DUP1 DUP4 SUB DUP2 PUSH1 0x0 DUP8 DUP1 EXTCODESIZE ISZERO DUP1 ISZERO PUSH2 0xA0B JUMPI PUSH1 0x0 DUP1 REVERT JUMPDEST POP GAS CALL ISZERO DUP1 ISZERO PUSH2 0xA1F JUMPI RETURNDATASIZE PUSH1 0x0 DUP1 RETURNDATACOPY RETURNDATASIZE PUSH1 0x0 REVERT JUMPDEST POP POP POP POP PUSH1 0x40 MLOAD RETURNDATASIZE PUSH1 0x1F NOT PUSH1 0x1F DUP3 ADD AND DUP3 ADD DUP1 PUSH1 0x40 MSTORE POP PUSH2 0xA43 SWAP2 SWAP1 DUP2 ADD SWAP1 PUSH2 0x1DFF JUMP JUMPDEST POP POP PUSH1 0x1 DUP14 DUP9 DUP2 MLOAD DUP2 LT PUSH2 0xA53 JUMPI INVALID JUMPDEST PUSH1 0x20 MUL PUSH1 0x20 ADD ADD MLOAD MLOAD SUB DUP6 EQ DUP1 ISZERO PUSH2 0xA74 JUMPI POP PUSH1 0x1 PUSH1 0x1 PUSH1 0xA0 SHL SUB DUP3 AND CALLER EQ ISZERO JUMPDEST ISZERO PUSH2 0xA85 JUMPI PUSH2 0xA83 DUP12 DUP3 PUSH2 0x1644 JUMP JUMPDEST POP JUMPDEST POP POP PUSH1 0x1 SWAP1 SWAP3 ADD SWAP2 POP PUSH2 0x815 SWAP1 POP JUMP JUMPDEST POP PUSH2 0xABD DUP2 PUSH1 0x0 DUP2 MLOAD DUP2 LT PUSH2 0xAA6 JUMPI INVALID JUMPDEST PUSH1 0x20 MUL PUSH1 0x20 ADD ADD MLOAD DUP6 PUSH2 0x1756 SWAP1 SWAP2 SWAP1 PUSH4 0xFFFFFFFF AND JUMP JUMPDEST SWAP4 POP POP PUSH1 0x1 ADD PUSH2 0x6E4 JUMP JUMPDEST PUSH1 0x0 CALLER PUSH2 0xAD4 DUP7 PUSH2 0x152E JUMP JUMPDEST ISZERO PUSH2 0xB66 JUMPI DUP4 CALLVALUE LT ISZERO PUSH2 0xAF9 JUMPI PUSH1 0x40 MLOAD PUSH3 0x461BCD PUSH1 0xE5 SHL DUP2 MSTORE PUSH1 0x4 ADD PUSH2 0x41E SWAP1 PUSH2 0x2479 JUMP JUMPDEST PUSH1 0x1 PUSH1 0x0 SWAP1 SLOAD SWAP1 PUSH2 0x100 EXP SWAP1 DIV PUSH1 0x1 PUSH1 0x1 PUSH1 0xA0 SHL SUB AND PUSH1 0x1 PUSH1 0x1 PUSH1 0xA0 SHL SUB AND PUSH4 0xD0E30DB0 DUP6 PUSH1 0x40 MLOAD DUP3 PUSH4 0xFFFFFFFF AND PUSH1 0xE0 SHL DUP2 MSTORE PUSH1 0x4 ADD PUSH1 0x0 PUSH1 0x40 MLOAD DUP1 DUP4 SUB DUP2 DUP6 DUP9 DUP1 EXTCODESIZE ISZERO DUP1 ISZERO PUSH2 0xB49 JUMPI PUSH1 0x0 DUP1 REVERT JUMPDEST POP GAS CALL ISZERO DUP1 ISZERO PUSH2 0xB5D JUMPI RETURNDATASIZE PUSH1 0x0 DUP1 RETURNDATACOPY RETURNDATASIZE PUSH1 0x0 REVERT JUMPDEST POP POP POP POP POP ADDRESS SWAP1 POP JUMPDEST PUSH1 0x0 DUP1 JUMPDEST DUP9 MLOAD DUP2 LT ISZERO PUSH2 0xD3D JUMPI PUSH2 0xB7B PUSH2 0x1963 JUMP JUMPDEST DUP10 DUP3 DUP2 MLOAD DUP2 LT PUSH2 0xB87 JUMPI INVALID JUMPDEST PUSH1 0x20 MUL PUSH1 0x20 ADD ADD MLOAD SWAP1 POP DUP9 PUSH1 0x1 PUSH1 0x1 PUSH1 0xA0 SHL SUB AND DUP2 PUSH1 0x20 ADD MLOAD PUSH1 0x1 PUSH1 0x1 PUSH1 0xA0 SHL SUB AND EQ DUP1 PUSH2 0xBD6 JUMPI POP PUSH1 0x1 SLOAD PUSH1 0x20 DUP3 ADD MLOAD PUSH1 0x1 PUSH1 0x1 PUSH1 0xA0 SHL SUB SWAP1 DUP2 AND SWAP2 AND EQ DUP1 ISZERO PUSH2 0xBD6 JUMPI POP PUSH2 0xBD6 DUP10 PUSH2 0x152E JUMP JUMPDEST PUSH2 0xBF2 JUMPI PUSH1 0x40 MLOAD PUSH3 0x461BCD PUSH1 0xE5 SHL DUP2 MSTORE PUSH1 0x4 ADD PUSH2 0x41E SWAP1 PUSH2 0x2519 JUMP JUMPDEST PUSH2 0xC0A DUP2 PUSH1 0x20 ADD MLOAD DUP6 DUP4 PUSH1 0x0 ADD MLOAD DUP5 PUSH1 0x60 ADD MLOAD PUSH2 0x1553 JUMP JUMPDEST PUSH1 0x1 SLOAD PUSH1 0x40 DUP3 ADD MLOAD PUSH1 0x0 SWAP2 PUSH1 0x1 PUSH1 0x1 PUSH1 0xA0 SHL SUB SWAP2 DUP3 AND SWAP2 AND EQ DUP1 ISZERO PUSH2 0xC33 JUMPI POP PUSH2 0xC33 DUP10 PUSH2 0x152E JUMP JUMPDEST PUSH2 0xC3D JUMPI CALLER PUSH2 0xC3F JUMP JUMPDEST ADDRESS JUMPDEST SWAP1 POP PUSH1 0x0 DUP3 PUSH1 0x0 ADD MLOAD SWAP1 POP PUSH1 0x0 DUP2 PUSH1 0x1 PUSH1 0x1 PUSH1 0xA0 SHL SUB AND PUSH4 0x3E6D363F CALLER DUP7 PUSH1 0x20 ADD MLOAD DUP8 PUSH1 0x40 ADD MLOAD DUP9 PUSH1 0x80 ADD MLOAD DUP9 DUP11 PUSH1 0xA0 ADD MLOAD PUSH1 0x40 MLOAD DUP8 PUSH4 0xFFFFFFFF AND PUSH1 0xE0 SHL DUP2 MSTORE PUSH1 0x4 ADD PUSH2 0xC92 SWAP7 SWAP6 SWAP5 SWAP4 SWAP3 SWAP2 SWAP1 PUSH2 0x22B1 JUMP JUMPDEST PUSH1 0x40 DUP1 MLOAD DUP1 DUP4 SUB DUP2 PUSH1 0x0 DUP8 DUP1 EXTCODESIZE ISZERO DUP1 ISZERO PUSH2 0xCAB JUMPI PUSH1 0x0 DUP1 REVERT JUMPDEST POP GAS CALL ISZERO DUP1 ISZERO PUSH2 0xCBF JUMPI RETURNDATASIZE PUSH1 0x0 DUP1 RETURNDATACOPY RETURNDATASIZE PUSH1 0x0 REVERT JUMPDEST POP POP POP POP PUSH1 0x40 MLOAD RETURNDATASIZE PUSH1 0x1F NOT PUSH1 0x1F DUP3 ADD AND DUP3 ADD DUP1 PUSH1 0x40 MSTORE POP PUSH2 0xCE3 SWAP2 SWAP1 DUP2 ADD SWAP1 PUSH2 0x1DFF JUMP JUMPDEST POP SWAP1 POP PUSH1 0x1 PUSH1 0x1 PUSH1 0xA0 SHL SUB DUP4 AND CALLER EQ PUSH2 0xD02 JUMPI PUSH2 0xD00 DUP12 DUP3 PUSH2 0x1644 JUMP JUMPDEST POP JUMPDEST PUSH2 0xD12 DUP2 DUP10 PUSH4 0xFFFFFFFF PUSH2 0x1756 AND JUMP JUMPDEST SWAP8 POP PUSH2 0xD2B DUP5 PUSH1 0x60 ADD MLOAD DUP8 PUSH2 0x1756 SWAP1 SWAP2 SWAP1 PUSH4 0xFFFFFFFF AND JUMP JUMPDEST SWAP6 POP POP PUSH1 0x1 SWAP1 SWAP4 ADD SWAP3 POP PUSH2 0xB6A SWAP2 POP POP JUMP JUMPDEST POP DUP5 DUP2 EQ PUSH2 0xD5D JUMPI PUSH1 0x40 MLOAD PUSH3 0x461BCD PUSH1 0xE5 SHL DUP2 MSTORE PUSH1 0x4 ADD PUSH2 0x41E SWAP1 PUSH2 0x24E9 JUMP JUMPDEST DUP4 DUP4 LT ISZERO PUSH2 0xD7D JUMPI PUSH1 0x40 MLOAD PUSH3 0x461BCD PUSH1 0xE5 SHL DUP2 MSTORE PUSH1 0x4 ADD PUSH2 0x41E SWAP1 PUSH2 0x24A9 JUMP JUMPDEST PUSH2 0xD86 DUP8 PUSH2 0x152E JUMP JUMPDEST DUP1 ISZERO PUSH2 0xD91 JUMPI POP DUP1 CALLVALUE GT JUMPDEST ISZERO PUSH2 0xE1A JUMPI PUSH1 0x0 CALLER PUSH2 0xDA9 CALLVALUE DUP5 PUSH4 0xFFFFFFFF PUSH2 0x1782 AND JUMP JUMPDEST PUSH1 0x40 MLOAD PUSH2 0xDB5 SWAP1 PUSH2 0x2298 JUMP JUMPDEST PUSH1 0x0 PUSH1 0x40 MLOAD DUP1 DUP4 SUB DUP2 DUP6 DUP8 GAS CALL SWAP3 POP POP POP RETURNDATASIZE DUP1 PUSH1 0x0 DUP2 EQ PUSH2 0xDF2 JUMPI PUSH1 0x40 MLOAD SWAP2 POP PUSH1 0x1F NOT PUSH1 0x3F RETURNDATASIZE ADD AND DUP3 ADD PUSH1 0x40 MSTORE RETURNDATASIZE DUP3 MSTORE RETURNDATASIZE PUSH1 0x0 PUSH1 0x20 DUP5 ADD RETURNDATACOPY PUSH2 0xDF7 JUMP JUMPDEST PUSH1 0x60 SWAP2 POP JUMPDEST POP POP SWAP1 POP DUP1 PUSH2 0xE18 JUMPI PUSH1 0x40 MLOAD PUSH3 0x461BCD PUSH1 0xE5 SHL DUP2 MSTORE PUSH1 0x4 ADD PUSH2 0x41E SWAP1 PUSH2 0x24F9 JUMP JUMPDEST POP JUMPDEST POP POP SWAP6 SWAP5 POP POP POP POP POP JUMP JUMPDEST PUSH1 0x0 SLOAD PUSH1 0x1 PUSH1 0x1 PUSH1 0xA0 SHL SUB AND SWAP1 JUMP JUMPDEST PUSH1 0x0 DUP1 SLOAD PUSH1 0x1 PUSH1 0x1 PUSH1 0xA0 SHL SUB AND PUSH2 0xE49 PUSH2 0x17C4 JUMP JUMPDEST PUSH1 0x1 PUSH1 0x1 PUSH1 0xA0 SHL SUB AND EQ SWAP1 POP SWAP1 JUMP JUMPDEST PUSH1 0x60 PUSH1 0x1 DUP3 MLOAD LT ISZERO PUSH2 0xE7C JUMPI PUSH1 0x40 MLOAD PUSH3 0x461BCD PUSH1 0xE5 SHL DUP2 MSTORE PUSH1 0x4 ADD PUSH2 0x41E SWAP1 PUSH2 0x24C9 JUMP JUMPDEST DUP2 MLOAD PUSH1 0x40 MLOAD SWAP1 DUP1 DUP3 MSTORE DUP1 PUSH1 0x20 MUL PUSH1 0x20 ADD DUP3 ADD PUSH1 0x40 MSTORE DUP1 ISZERO PUSH2 0xEA7 JUMPI DUP2 PUSH1 0x20 ADD PUSH1 0x20 DUP3 MUL DUP1 CODESIZE DUP4 CODECOPY ADD SWAP1 POP JUMPDEST POP DUP3 MLOAD SWAP1 SWAP2 POP PUSH1 0x0 NOT ADD JUMPDEST DUP1 ISZERO PUSH2 0xF95 JUMPI PUSH2 0xEC0 PUSH2 0x1963 JUMP JUMPDEST DUP4 DUP3 DUP2 MLOAD DUP2 LT PUSH2 0xECC JUMPI INVALID JUMPDEST PUSH1 0x20 MUL PUSH1 0x20 ADD ADD MLOAD SWAP1 POP PUSH2 0xEDF DUP2 PUSH2 0x464 JUMP JUMPDEST DUP4 DUP4 DUP2 MLOAD DUP2 LT PUSH2 0xEEB JUMPI INVALID JUMPDEST PUSH1 0x20 MUL PUSH1 0x20 ADD ADD DUP2 DUP2 MSTORE POP POP DUP4 PUSH1 0x1 DUP4 SUB DUP2 MLOAD DUP2 LT PUSH2 0xF06 JUMPI INVALID JUMPDEST PUSH1 0x20 MUL PUSH1 0x20 ADD ADD MLOAD PUSH1 0x40 ADD MLOAD PUSH1 0x1 PUSH1 0x1 PUSH1 0xA0 SHL SUB AND DUP5 DUP4 DUP2 MLOAD DUP2 LT PUSH2 0xF27 JUMPI INVALID JUMPDEST PUSH1 0x20 MUL PUSH1 0x20 ADD ADD MLOAD PUSH1 0x20 ADD MLOAD PUSH1 0x1 PUSH1 0x1 PUSH1 0xA0 SHL SUB AND EQ PUSH2 0xF59 JUMPI PUSH1 0x40 MLOAD PUSH3 0x461BCD PUSH1 0xE5 SHL DUP2 MSTORE PUSH1 0x4 ADD PUSH2 0x41E SWAP1 PUSH2 0x24C9 JUMP JUMPDEST DUP3 DUP3 DUP2 MLOAD DUP2 LT PUSH2 0xF65 JUMPI INVALID JUMPDEST PUSH1 0x20 MUL PUSH1 0x20 ADD ADD MLOAD DUP5 PUSH1 0x1 DUP5 SUB DUP2 MLOAD DUP2 LT PUSH2 0xF7C JUMPI INVALID JUMPDEST PUSH1 0x20 SWAP1 DUP2 MUL SWAP2 SWAP1 SWAP2 ADD ADD MLOAD PUSH1 0x60 ADD MSTORE POP PUSH1 0x0 NOT ADD PUSH2 0xEB2 JUMP JUMPDEST PUSH2 0xFB2 DUP4 PUSH1 0x0 DUP2 MLOAD DUP2 LT PUSH2 0xFA5 JUMPI INVALID JUMPDEST PUSH1 0x20 MUL PUSH1 0x20 ADD ADD MLOAD PUSH2 0x464 JUMP JUMPDEST DUP3 PUSH1 0x0 DUP2 MLOAD DUP2 LT PUSH2 0xFBF JUMPI INVALID JUMPDEST PUSH1 0x20 MUL PUSH1 0x20 ADD ADD DUP2 DUP2 MSTORE POP POP POP SWAP2 SWAP1 POP JUMP JUMPDEST PUSH2 0xFD9 PUSH2 0xE34 JUMP JUMPDEST PUSH2 0xFF5 JUMPI PUSH1 0x40 MLOAD PUSH3 0x461BCD PUSH1 0xE5 SHL DUP2 MSTORE PUSH1 0x4 ADD PUSH2 0x41E SWAP1 PUSH2 0x24D9 JUMP JUMPDEST PUSH1 0x2 DUP1 SLOAD PUSH1 0x1 PUSH1 0x1 PUSH1 0xA0 SHL SUB NOT AND PUSH1 0x1 PUSH1 0x1 PUSH1 0xA0 SHL SUB SWAP3 SWAP1 SWAP3 AND SWAP2 SWAP1 SWAP2 OR SWAP1 SSTORE JUMP JUMPDEST PUSH1 0x0 DUP1 CALLER PUSH2 0x1024 DUP8 PUSH2 0x152E JUMP JUMPDEST ISZERO PUSH2 0x10B6 JUMPI DUP5 CALLVALUE LT ISZERO PUSH2 0x1049 JUMPI PUSH1 0x40 MLOAD PUSH3 0x461BCD PUSH1 0xE5 SHL DUP2 MSTORE PUSH1 0x4 ADD PUSH2 0x41E SWAP1 PUSH2 0x2479 JUMP JUMPDEST PUSH1 0x1 PUSH1 0x0 SWAP1 SLOAD SWAP1 PUSH2 0x100 EXP SWAP1 DIV PUSH1 0x1 PUSH1 0x1 PUSH1 0xA0 SHL SUB AND PUSH1 0x1 PUSH1 0x1 PUSH1 0xA0 SHL SUB AND PUSH4 0xD0E30DB0 DUP7 PUSH1 0x40 MLOAD DUP3 PUSH4 0xFFFFFFFF AND PUSH1 0xE0 SHL DUP2 MSTORE PUSH1 0x4 ADD PUSH1 0x0 PUSH1 0x40 MLOAD DUP1 DUP4 SUB DUP2 DUP6 DUP9 DUP1 EXTCODESIZE ISZERO DUP1 ISZERO PUSH2 0x1099 JUMPI PUSH1 0x0 DUP1 REVERT JUMPDEST POP GAS CALL ISZERO DUP1 ISZERO PUSH2 0x10AD JUMPI RETURNDATASIZE PUSH1 0x0 DUP1 RETURNDATACOPY RETURNDATASIZE PUSH1 0x0 REVERT JUMPDEST POP POP POP POP POP ADDRESS SWAP1 POP JUMPDEST PUSH1 0x0 JUMPDEST DUP9 MLOAD DUP2 LT ISZERO PUSH2 0x1492 JUMPI PUSH2 0x1100 DUP10 DUP3 DUP2 MLOAD DUP2 LT PUSH2 0x10D1 JUMPI INVALID JUMPDEST PUSH1 0x20 MUL PUSH1 0x20 ADD ADD MLOAD PUSH1 0x0 DUP2 MLOAD DUP2 LT PUSH2 0x10E5 JUMPI INVALID JUMPDEST PUSH1 0x20 MUL PUSH1 0x20 ADD ADD MLOAD PUSH1 0x60 ADD MLOAD DUP5 PUSH2 0x1756 SWAP1 SWAP2 SWAP1 PUSH4 0xFFFFFFFF AND JUMP JUMPDEST SWAP3 POP DUP8 PUSH1 0x1 PUSH1 0x1 PUSH1 0xA0 SHL SUB AND DUP10 DUP3 DUP2 MLOAD DUP2 LT PUSH2 0x1118 JUMPI INVALID JUMPDEST PUSH1 0x20 MUL PUSH1 0x20 ADD ADD MLOAD PUSH1 0x0 DUP2 MLOAD DUP2 LT PUSH2 0x112C JUMPI INVALID JUMPDEST PUSH1 0x20 MUL PUSH1 0x20 ADD ADD MLOAD PUSH1 0x20 ADD MLOAD PUSH1 0x1 PUSH1 0x1 PUSH1 0xA0 SHL SUB AND EQ DUP1 PUSH2 0x11A0 JUMPI POP PUSH2 0x1151 DUP9 PUSH2 0x152E JUMP JUMPDEST DUP1 ISZERO PUSH2 0x11A0 JUMPI POP PUSH1 0x1 SLOAD DUP10 MLOAD PUSH1 0x1 PUSH1 0x1 PUSH1 0xA0 SHL SUB SWAP1 SWAP2 AND SWAP1 DUP11 SWAP1 DUP4 SWAP1 DUP2 LT PUSH2 0x1175 JUMPI INVALID JUMPDEST PUSH1 0x20 MUL PUSH1 0x20 ADD ADD MLOAD PUSH1 0x0 DUP2 MLOAD DUP2 LT PUSH2 0x1189 JUMPI INVALID JUMPDEST PUSH1 0x20 MUL PUSH1 0x20 ADD ADD MLOAD PUSH1 0x20 ADD MLOAD PUSH1 0x1 PUSH1 0x1 PUSH1 0xA0 SHL SUB AND EQ JUMPDEST PUSH2 0x11BC JUMPI PUSH1 0x40 MLOAD PUSH3 0x461BCD PUSH1 0xE5 SHL DUP2 MSTORE PUSH1 0x4 ADD PUSH2 0x41E SWAP1 PUSH2 0x2519 JUMP JUMPDEST PUSH2 0x1249 DUP10 DUP3 DUP2 MLOAD DUP2 LT PUSH2 0x11CB JUMPI INVALID JUMPDEST PUSH1 0x20 MUL PUSH1 0x20 ADD ADD MLOAD PUSH1 0x0 DUP2 MLOAD DUP2 LT PUSH2 0x11DF JUMPI INVALID JUMPDEST PUSH1 0x20 MUL PUSH1 0x20 ADD ADD MLOAD PUSH1 0x20 ADD MLOAD DUP4 DUP12 DUP5 DUP2 MLOAD DUP2 LT PUSH2 0x11F8 JUMPI INVALID JUMPDEST PUSH1 0x20 MUL PUSH1 0x20 ADD ADD MLOAD PUSH1 0x0 DUP2 MLOAD DUP2 LT PUSH2 0x120C JUMPI INVALID JUMPDEST PUSH1 0x20 MUL PUSH1 0x20 ADD ADD MLOAD PUSH1 0x0 ADD MLOAD DUP13 DUP6 DUP2 MLOAD DUP2 LT PUSH2 0x1224 JUMPI INVALID JUMPDEST PUSH1 0x20 MUL PUSH1 0x20 ADD ADD MLOAD PUSH1 0x0 DUP2 MLOAD DUP2 LT PUSH2 0x1238 JUMPI INVALID JUMPDEST PUSH1 0x20 MUL PUSH1 0x20 ADD ADD MLOAD PUSH1 0x60 ADD MLOAD PUSH2 0x1553 JUMP JUMPDEST PUSH1 0x0 DUP1 JUMPDEST DUP11 DUP4 DUP2 MLOAD DUP2 LT PUSH2 0x1259 JUMPI INVALID JUMPDEST PUSH1 0x20 MUL PUSH1 0x20 ADD ADD MLOAD MLOAD DUP2 LT ISZERO PUSH2 0x1476 JUMPI PUSH2 0x1271 PUSH2 0x1963 JUMP JUMPDEST DUP12 DUP5 DUP2 MLOAD DUP2 LT PUSH2 0x127D JUMPI INVALID JUMPDEST PUSH1 0x20 MUL PUSH1 0x20 ADD ADD MLOAD DUP3 DUP2 MLOAD DUP2 LT PUSH2 0x1290 JUMPI INVALID JUMPDEST PUSH1 0x20 MUL PUSH1 0x20 ADD ADD MLOAD SWAP1 POP PUSH1 0x0 DUP2 PUSH1 0x0 ADD MLOAD SWAP1 POP PUSH1 0x0 PUSH1 0x1 DUP15 DUP8 DUP2 MLOAD DUP2 LT PUSH2 0x12B3 JUMPI INVALID JUMPDEST PUSH1 0x20 MUL PUSH1 0x20 ADD ADD MLOAD MLOAD SUB DUP5 LT ISZERO PUSH2 0x12F9 JUMPI DUP14 DUP7 DUP2 MLOAD DUP2 LT PUSH2 0x12D0 JUMPI INVALID JUMPDEST PUSH1 0x20 MUL PUSH1 0x20 ADD ADD MLOAD DUP5 PUSH1 0x1 ADD DUP2 MLOAD DUP2 LT PUSH2 0x12E6 JUMPI INVALID JUMPDEST PUSH1 0x20 MUL PUSH1 0x20 ADD ADD MLOAD PUSH1 0x0 ADD MLOAD SWAP1 POP PUSH2 0x138F JUMP JUMPDEST DUP12 PUSH1 0x1 PUSH1 0x1 PUSH1 0xA0 SHL SUB AND DUP4 PUSH1 0x40 ADD MLOAD PUSH1 0x1 PUSH1 0x1 PUSH1 0xA0 SHL SUB AND EQ DUP1 PUSH2 0x133E JUMPI POP PUSH1 0x1 SLOAD PUSH1 0x40 DUP5 ADD MLOAD PUSH1 0x1 PUSH1 0x1 PUSH1 0xA0 SHL SUB SWAP1 DUP2 AND SWAP2 AND EQ DUP1 ISZERO PUSH2 0x133E JUMPI POP PUSH2 0x133E DUP13 PUSH2 0x152E JUMP JUMPDEST PUSH2 0x135A JUMPI PUSH1 0x40 MLOAD PUSH3 0x461BCD PUSH1 0xE5 SHL DUP2 MSTORE PUSH1 0x4 ADD PUSH2 0x41E SWAP1 PUSH2 0x2539 JUMP JUMPDEST PUSH1 0x1 SLOAD PUSH1 0x40 DUP5 ADD MLOAD PUSH1 0x1 PUSH1 0x1 PUSH1 0xA0 SHL SUB SWAP1 DUP2 AND SWAP2 AND EQ DUP1 ISZERO PUSH2 0x1380 JUMPI POP PUSH2 0x1380 DUP13 PUSH2 0x152E JUMP JUMPDEST PUSH2 0x138A JUMPI CALLER PUSH2 0x138C JUMP JUMPDEST ADDRESS JUMPDEST SWAP1 POP JUMPDEST DUP2 PUSH1 0x1 PUSH1 0x1 PUSH1 0xA0 SHL SUB AND PUSH4 0x3E6D363F CALLER DUP6 PUSH1 0x20 ADD MLOAD DUP7 PUSH1 0x40 ADD MLOAD DUP8 PUSH1 0x80 ADD MLOAD DUP7 DUP10 PUSH1 0xA0 ADD MLOAD PUSH1 0x40 MLOAD DUP8 PUSH4 0xFFFFFFFF AND PUSH1 0xE0 SHL DUP2 MSTORE PUSH1 0x4 ADD PUSH2 0x13D5 SWAP7 SWAP6 SWAP5 SWAP4 SWAP3 SWAP2 SWAP1 PUSH2 0x22B1 JUMP JUMPDEST PUSH1 0x40 DUP1 MLOAD DUP1 DUP4 SUB DUP2 PUSH1 0x0 DUP8 DUP1 EXTCODESIZE ISZERO DUP1 ISZERO PUSH2 0x13EE JUMPI PUSH1 0x0 DUP1 REVERT JUMPDEST POP GAS CALL ISZERO DUP1 ISZERO PUSH2 0x1402 JUMPI RETURNDATASIZE PUSH1 0x0 DUP1 RETURNDATACOPY RETURNDATASIZE PUSH1 0x0 REVERT JUMPDEST POP POP POP POP PUSH1 0x40 MLOAD RETURNDATASIZE PUSH1 0x1F NOT PUSH1 0x1F DUP3 ADD AND DUP3 ADD DUP1 PUSH1 0x40 MSTORE POP PUSH2 0x1426 SWAP2 SWAP1 DUP2 ADD SWAP1 PUSH2 0x1DFF JUMP JUMPDEST POP DUP1 SWAP6 POP POP PUSH1 0x1 DUP15 DUP8 DUP2 MLOAD DUP2 LT PUSH2 0x1439 JUMPI INVALID JUMPDEST PUSH1 0x20 MUL PUSH1 0x20 ADD ADD MLOAD MLOAD SUB DUP5 EQ DUP1 ISZERO PUSH2 0x145A JUMPI POP PUSH1 0x1 PUSH1 0x1 PUSH1 0xA0 SHL SUB DUP2 AND CALLER EQ ISZERO JUMPDEST ISZERO PUSH2 0x146B JUMPI PUSH2 0x1469 DUP13 DUP7 PUSH2 0x1644 JUMP JUMPDEST POP JUMPDEST POP POP POP PUSH1 0x1 ADD PUSH2 0x124D JUMP JUMPDEST POP PUSH2 0x1487 DUP2 DUP7 PUSH4 0xFFFFFFFF PUSH2 0x1756 AND JUMP JUMPDEST SWAP5 POP POP PUSH1 0x1 ADD PUSH2 0x10B9 JUMP JUMPDEST POP DUP5 DUP3 EQ PUSH2 0x14B2 JUMPI PUSH1 0x40 MLOAD PUSH3 0x461BCD PUSH1 0xE5 SHL DUP2 MSTORE PUSH1 0x4 ADD PUSH2 0x41E SWAP1 PUSH2 0x24E9 JUMP JUMPDEST DUP4 DUP4 LT ISZERO PUSH2 0x14D2 JUMPI PUSH1 0x40 MLOAD PUSH3 0x461BCD PUSH1 0xE5 SHL DUP2 MSTORE PUSH1 0x4 ADD PUSH2 0x41E SWAP1 PUSH2 0x24A9 JUMP JUMPDEST PUSH2 0x14DB DUP8 PUSH2 0x152E JUMP JUMPDEST DUP1 ISZERO PUSH2 0x14E6 JUMPI POP DUP2 CALLVALUE GT JUMPDEST ISZERO PUSH2 0xE1A JUMPI PUSH1 0x0 CALLER PUSH2 0xDA9 CALLVALUE DUP9 PUSH4 0xFFFFFFFF PUSH2 0x1782 AND JUMP JUMPDEST PUSH2 0x1506 PUSH2 0xE34 JUMP JUMPDEST PUSH2 0x1522 JUMPI PUSH1 0x40 MLOAD PUSH3 0x461BCD PUSH1 0xE5 SHL DUP2 MSTORE PUSH1 0x4 ADD PUSH2 0x41E SWAP1 PUSH2 0x24D9 JUMP JUMPDEST PUSH2 0x152B DUP2 PUSH2 0x17C8 JUMP JUMPDEST POP JUMP JUMPDEST PUSH1 0x1 PUSH1 0x1 PUSH1 0xA0 SHL SUB DUP2 AND PUSH20 0xEEEEEEEEEEEEEEEEEEEEEEEEEEEEEEEEEEEEEEEE EQ SWAP2 SWAP1 POP JUMP JUMPDEST PUSH1 0x0 PUSH1 0x60 DUP6 PUSH1 0x1 PUSH1 0x1 PUSH1 0xA0 SHL SUB AND PUSH4 0x23B872DD DUP7 DUP7 DUP7 PUSH1 0x40 MLOAD PUSH1 0x24 ADD PUSH2 0x157B SWAP4 SWAP3 SWAP2 SWAP1 PUSH2 0x23E6 JUMP JUMPDEST PUSH1 0x40 MLOAD PUSH1 0x20 DUP2 DUP4 SUB SUB DUP2 MSTORE SWAP1 PUSH1 0x40 MSTORE SWAP1 PUSH1 0xE0 SHL PUSH1 0x20 DUP3 ADD DUP1 MLOAD PUSH1 0x1 PUSH1 0x1 PUSH1 0xE0 SHL SUB DUP4 DUP2 DUP4 AND OR DUP4 MSTORE POP POP POP POP PUSH1 0x40 MLOAD PUSH2 0x15B4 SWAP2 SWAP1 PUSH2 0x228C JUMP JUMPDEST PUSH1 0x0 PUSH1 0x40 MLOAD DUP1 DUP4 SUB DUP2 PUSH1 0x0 DUP7 GAS CALL SWAP2 POP POP RETURNDATASIZE DUP1 PUSH1 0x0 DUP2 EQ PUSH2 0x15F1 JUMPI PUSH1 0x40 MLOAD SWAP2 POP PUSH1 0x1F NOT PUSH1 0x3F RETURNDATASIZE ADD AND DUP3 ADD PUSH1 0x40 MSTORE RETURNDATASIZE DUP3 MSTORE RETURNDATASIZE PUSH1 0x0 PUSH1 0x20 DUP5 ADD RETURNDATACOPY PUSH2 0x15F6 JUMP JUMPDEST PUSH1 0x60 SWAP2 POP JUMPDEST POP SWAP2 POP SWAP2 POP DUP2 DUP1 ISZERO PUSH2 0x1620 JUMPI POP DUP1 MLOAD ISZERO DUP1 PUSH2 0x1620 JUMPI POP DUP1 DUP1 PUSH1 0x20 ADD SWAP1 MLOAD PUSH2 0x1620 SWAP2 SWAP1 DUP2 ADD SWAP1 PUSH2 0x1DA5 JUMP JUMPDEST PUSH2 0x163C JUMPI PUSH1 0x40 MLOAD PUSH3 0x461BCD PUSH1 0xE5 SHL DUP2 MSTORE PUSH1 0x4 ADD PUSH2 0x41E SWAP1 PUSH2 0x2499 JUMP JUMPDEST POP POP POP POP POP POP JUMP JUMPDEST PUSH1 0x0 DUP2 PUSH2 0x1653 JUMPI POP PUSH1 0x1 PUSH2 0x1750 JUMP JUMPDEST PUSH2 0x165C DUP4 PUSH2 0x152E JUMP JUMPDEST ISZERO PUSH2 0x1745 JUMPI PUSH1 0x1 SLOAD PUSH1 0x40 MLOAD PUSH4 0x2E1A7D4D PUSH1 0xE0 SHL DUP2 MSTORE PUSH1 0x1 PUSH1 0x1 PUSH1 0xA0 SHL SUB SWAP1 SWAP2 AND SWAP1 PUSH4 0x2E1A7D4D SWAP1 PUSH2 0x1691 SWAP1 DUP6 SWAP1 PUSH1 0x4 ADD PUSH2 0x2549 JUMP JUMPDEST PUSH1 0x0 PUSH1 0x40 MLOAD DUP1 DUP4 SUB DUP2 PUSH1 0x0 DUP8 DUP1 EXTCODESIZE ISZERO DUP1 ISZERO PUSH2 0x16AB JUMPI PUSH1 0x0 DUP1 REVERT JUMPDEST POP GAS CALL ISZERO DUP1 ISZERO PUSH2 0x16BF JUMPI RETURNDATASIZE PUSH1 0x0 DUP1 RETURNDATACOPY RETURNDATASIZE PUSH1 0x0 REVERT JUMPDEST POP POP POP POP PUSH1 0x0 CALLER PUSH1 0x1 PUSH1 0x1 PUSH1 0xA0 SHL SUB AND DUP4 PUSH1 0x40 MLOAD PUSH2 0x16DC SWAP1 PUSH2 0x2298 JUMP JUMPDEST PUSH1 0x0 PUSH1 0x40 MLOAD DUP1 DUP4 SUB DUP2 DUP6 DUP8 GAS CALL SWAP3 POP POP POP RETURNDATASIZE DUP1 PUSH1 0x0 DUP2 EQ PUSH2 0x1719 JUMPI PUSH1 0x40 MLOAD SWAP2 POP PUSH1 0x1F NOT PUSH1 0x3F RETURNDATASIZE ADD AND DUP3 ADD PUSH1 0x40 MSTORE RETURNDATASIZE DUP3 MSTORE RETURNDATASIZE PUSH1 0x0 PUSH1 0x20 DUP5 ADD RETURNDATACOPY PUSH2 0x171E JUMP JUMPDEST PUSH1 0x60 SWAP2 POP JUMPDEST POP POP SWAP1 POP DUP1 PUSH2 0x173F JUMPI PUSH1 0x40 MLOAD PUSH3 0x461BCD PUSH1 0xE5 SHL DUP2 MSTORE PUSH1 0x4 ADD PUSH2 0x41E SWAP1 PUSH2 0x24F9 JUMP JUMPDEST POP PUSH2 0x1750 JUMP JUMPDEST PUSH2 0x1750 DUP4 CALLER DUP5 PUSH2 0x1849 JUMP JUMPDEST SWAP3 SWAP2 POP POP JUMP JUMPDEST PUSH1 0x0 DUP3 DUP3 ADD DUP4 DUP2 LT ISZERO PUSH2 0x177B JUMPI PUSH1 0x40 MLOAD PUSH3 0x461BCD PUSH1 0xE5 SHL DUP2 MSTORE PUSH1 0x4 ADD PUSH2 0x41E SWAP1 PUSH2 0x2469 JUMP JUMPDEST SWAP4 SWAP3 POP POP POP JUMP JUMPDEST PUSH1 0x0 PUSH2 0x177B DUP4 DUP4 PUSH1 0x40 MLOAD DUP1 PUSH1 0x40 ADD PUSH1 0x40 MSTORE DUP1 PUSH1 0x1E DUP2 MSTORE PUSH1 0x20 ADD PUSH32 0x536166654D6174683A207375627472616374696F6E206F766572666C6F770000 DUP2 MSTORE POP PUSH2 0x1937 JUMP JUMPDEST CALLER SWAP1 JUMP JUMPDEST PUSH1 0x1 PUSH1 0x1 PUSH1 0xA0 SHL SUB DUP2 AND PUSH2 0x17EE JUMPI PUSH1 0x40 MLOAD PUSH3 0x461BCD PUSH1 0xE5 SHL DUP2 MSTORE PUSH1 0x4 ADD PUSH2 0x41E SWAP1 PUSH2 0x2459 JUMP JUMPDEST PUSH1 0x0 DUP1 SLOAD PUSH1 0x40 MLOAD PUSH1 0x1 PUSH1 0x1 PUSH1 0xA0 SHL SUB DUP1 DUP6 AND SWAP4 SWAP3 AND SWAP2 PUSH32 0x8BE0079C531659141344CD1FD0A4F28419497F9722A3DAAFE3B4186F6B6457E0 SWAP2 LOG3 PUSH1 0x0 DUP1 SLOAD PUSH1 0x1 PUSH1 0x1 PUSH1 0xA0 SHL SUB NOT AND PUSH1 0x1 PUSH1 0x1 PUSH1 0xA0 SHL SUB SWAP3 SWAP1 SWAP3 AND SWAP2 SWAP1 SWAP2 OR SWAP1 SSTORE JUMP JUMPDEST PUSH1 0x0 PUSH1 0x60 DUP5 PUSH1 0x1 PUSH1 0x1 PUSH1 0xA0 SHL SUB AND PUSH4 0xA9059CBB DUP6 DUP6 PUSH1 0x40 MLOAD PUSH1 0x24 ADD PUSH2 0x186F SWAP3 SWAP2 SWAP1 PUSH2 0x240E JUMP JUMPDEST PUSH1 0x40 MLOAD PUSH1 0x20 DUP2 DUP4 SUB SUB DUP2 MSTORE SWAP1 PUSH1 0x40 MSTORE SWAP1 PUSH1 0xE0 SHL PUSH1 0x20 DUP3 ADD DUP1 MLOAD PUSH1 0x1 PUSH1 0x1 PUSH1 0xE0 SHL SUB DUP4 DUP2 DUP4 AND OR DUP4 MSTORE POP POP POP POP PUSH1 0x40 MLOAD PUSH2 0x18A8 SWAP2 SWAP1 PUSH2 0x228C JUMP JUMPDEST PUSH1 0x0 PUSH1 0x40 MLOAD DUP1 DUP4 SUB DUP2 PUSH1 0x0 DUP7 GAS CALL SWAP2 POP POP RETURNDATASIZE DUP1 PUSH1 0x0 DUP2 EQ PUSH2 0x18E5 JUMPI PUSH1 0x40 MLOAD SWAP2 POP PUSH1 0x1F NOT PUSH1 0x3F RETURNDATASIZE ADD AND DUP3 ADD PUSH1 0x40 MSTORE RETURNDATASIZE DUP3 MSTORE RETURNDATASIZE PUSH1 0x0 PUSH1 0x20 DUP5 ADD RETURNDATACOPY PUSH2 0x18EA JUMP JUMPDEST PUSH1 0x60 SWAP2 POP JUMPDEST POP SWAP2 POP SWAP2 POP DUP2 DUP1 ISZERO PUSH2 0x1914 JUMPI POP DUP1 MLOAD ISZERO DUP1 PUSH2 0x1914 JUMPI POP DUP1 DUP1 PUSH1 0x20 ADD SWAP1 MLOAD PUSH2 0x1914 SWAP2 SWAP1 DUP2 ADD SWAP1 PUSH2 0x1DA5 JUMP JUMPDEST PUSH2 0x1930 JUMPI PUSH1 0x40 MLOAD PUSH3 0x461BCD PUSH1 0xE5 SHL DUP2 MSTORE PUSH1 0x4 ADD PUSH2 0x41E SWAP1 PUSH2 0x2529 JUMP JUMPDEST POP POP POP POP POP JUMP JUMPDEST PUSH1 0x0 DUP2 DUP5 DUP5 GT ISZERO PUSH2 0x195B JUMPI PUSH1 0x40 MLOAD PUSH3 0x461BCD PUSH1 0xE5 SHL DUP2 MSTORE PUSH1 0x4 ADD PUSH2 0x41E SWAP2 SWAP1 PUSH2 0x2448 JUMP JUMPDEST POP POP POP SWAP1 SUB SWAP1 JUMP JUMPDEST PUSH1 0x40 MLOAD DUP1 PUSH1 0xC0 ADD PUSH1 0x40 MSTORE DUP1 PUSH1 0x0 PUSH1 0x1 PUSH1 0x1 PUSH1 0xA0 SHL SUB AND DUP2 MSTORE PUSH1 0x20 ADD PUSH1 0x0 PUSH1 0x1 PUSH1 0x1 PUSH1 0xA0 SHL SUB AND DUP2 MSTORE PUSH1 0x20 ADD PUSH1 0x0 PUSH1 0x1 PUSH1 0x1 PUSH1 0xA0 SHL SUB AND DUP2 MSTORE PUSH1 0x20 ADD PUSH1 0x0 DUP2 MSTORE PUSH1 0x20 ADD PUSH1 0x0 DUP2 MSTORE PUSH1 0x20 ADD PUSH1 0x0 DUP2 MSTORE POP SWAP1 JUMP JUMPDEST DUP1 CALLDATALOAD PUSH2 0x1750 DUP2 PUSH2 0x2631 JUMP JUMPDEST PUSH1 0x0 DUP3 PUSH1 0x1F DUP4 ADD SLT PUSH2 0x19D0 JUMPI PUSH1 0x0 DUP1 REVERT JUMPDEST DUP2 CALLDATALOAD PUSH2 0x19E3 PUSH2 0x19DE DUP3 PUSH2 0x257E JUMP JUMPDEST PUSH2 0x2557 JUMP JUMPDEST DUP2 DUP2 MSTORE PUSH1 0x20 SWAP4 DUP5 ADD SWAP4 SWAP1 SWAP3 POP DUP3 ADD DUP4 PUSH1 0x0 JUMPDEST DUP4 DUP2 LT ISZERO PUSH2 0x1A21 JUMPI DUP2 CALLDATALOAD DUP7 ADD PUSH2 0x1A0B DUP9 DUP3 PUSH2 0x1A2B JUMP JUMPDEST DUP5 MSTORE POP PUSH1 0x20 SWAP3 DUP4 ADD SWAP3 SWAP2 SWAP1 SWAP2 ADD SWAP1 PUSH1 0x1 ADD PUSH2 0x19F5 JUMP JUMPDEST POP POP POP POP SWAP3 SWAP2 POP POP JUMP JUMPDEST PUSH1 0x0 DUP3 PUSH1 0x1F DUP4 ADD SLT PUSH2 0x1A3C JUMPI PUSH1 0x0 DUP1 REVERT JUMPDEST DUP2 CALLDATALOAD PUSH2 0x1A4A PUSH2 0x19DE DUP3 PUSH2 0x257E JUMP JUMPDEST SWAP2 POP DUP2 DUP2 DUP4 MSTORE PUSH1 0x20 DUP5 ADD SWAP4 POP PUSH1 0x20 DUP2 ADD SWAP1 POP DUP4 DUP6 PUSH1 0xC0 DUP5 MUL DUP3 ADD GT ISZERO PUSH2 0x1A6F JUMPI PUSH1 0x0 DUP1 REVERT JUMPDEST PUSH1 0x0 JUMPDEST DUP4 DUP2 LT ISZERO PUSH2 0x1A21 JUMPI DUP2 PUSH2 0x1A85 DUP9 DUP3 PUSH2 0x1B25 JUMP JUMPDEST DUP5 MSTORE POP PUSH1 0x20 SWAP1 SWAP3 ADD SWAP2 PUSH1 0xC0 SWAP2 SWAP1 SWAP2 ADD SWAP1 PUSH1 0x1 ADD PUSH2 0x1A72 JUMP JUMPDEST PUSH1 0x0 DUP3 PUSH1 0x1F DUP4 ADD SLT PUSH2 0x1AAE JUMPI PUSH1 0x0 DUP1 REVERT JUMPDEST DUP2 CALLDATALOAD PUSH2 0x1ABC PUSH2 0x19DE DUP3 PUSH2 0x257E JUMP JUMPDEST SWAP2 POP DUP2 DUP2 DUP4 MSTORE PUSH1 0x20 DUP5 ADD SWAP4 POP PUSH1 0x20 DUP2 ADD SWAP1 POP DUP4 DUP6 PUSH1 0xC0 DUP5 MUL DUP3 ADD GT ISZERO PUSH2 0x1AE1 JUMPI PUSH1 0x0 DUP1 REVERT JUMPDEST PUSH1 0x0 JUMPDEST DUP4 DUP2 LT ISZERO PUSH2 0x1A21 JUMPI DUP2 PUSH2 0x1AF7 DUP9 DUP3 PUSH2 0x1B25 JUMP JUMPDEST DUP5 MSTORE POP PUSH1 0x20 SWAP1 SWAP3 ADD SWAP2 PUSH1 0xC0 SWAP2 SWAP1 SWAP2 ADD SWAP1 PUSH1 0x1 ADD PUSH2 0x1AE4 JUMP JUMPDEST DUP1 MLOAD PUSH2 0x1750 DUP2 PUSH2 0x2645 JUMP JUMPDEST DUP1 CALLDATALOAD PUSH2 0x1750 DUP2 PUSH2 0x264E JUMP JUMPDEST PUSH1 0x0 PUSH1 0xC0 DUP3 DUP5 SUB SLT ISZERO PUSH2 0x1B37 JUMPI PUSH1 0x0 DUP1 REVERT JUMPDEST PUSH2 0x1B41 PUSH1 0xC0 PUSH2 0x2557 JUMP JUMPDEST SWAP1 POP PUSH1 0x0 PUSH2 0x1B4F DUP5 DUP5 PUSH2 0x19B4 JUMP JUMPDEST DUP3 MSTORE POP PUSH1 0x20 PUSH2 0x1B60 DUP5 DUP5 DUP4 ADD PUSH2 0x19B4 JUMP JUMPDEST PUSH1 0x20 DUP4 ADD MSTORE POP PUSH1 0x40 PUSH2 0x1B74 DUP5 DUP3 DUP6 ADD PUSH2 0x19B4 JUMP JUMPDEST PUSH1 0x40 DUP4 ADD MSTORE POP PUSH1 0x60 PUSH2 0x1B88 DUP5 DUP3 DUP6 ADD PUSH2 0x1BBC JUMP JUMPDEST PUSH1 0x60 DUP4 ADD MSTORE POP PUSH1 0x80 PUSH2 0x1B9C DUP5 DUP3 DUP6 ADD PUSH2 0x1BBC JUMP JUMPDEST PUSH1 0x80 DUP4 ADD MSTORE POP PUSH1 0xA0 PUSH2 0x1BB0 DUP5 DUP3 DUP6 ADD PUSH2 0x1BBC JUMP JUMPDEST PUSH1 0xA0 DUP4 ADD MSTORE POP SWAP3 SWAP2 POP POP JUMP JUMPDEST DUP1 CALLDATALOAD PUSH2 0x1750 DUP2 PUSH2 0x2657 JUMP JUMPDEST DUP1 MLOAD PUSH2 0x1750 DUP2 PUSH2 0x2657 JUMP JUMPDEST PUSH1 0x0 PUSH1 0x20 DUP3 DUP5 SUB SLT ISZERO PUSH2 0x1BE4 JUMPI PUSH1 0x0 DUP1 REVERT JUMPDEST PUSH1 0x0 PUSH2 0x1BF0 DUP5 DUP5 PUSH2 0x19B4 JUMP JUMPDEST SWAP5 SWAP4 POP POP POP POP JUMP JUMPDEST PUSH1 0x0 DUP1 PUSH1 0x0 DUP1 PUSH1 0x80 DUP6 DUP8 SUB SLT ISZERO PUSH2 0x1C0E JUMPI PUSH1 0x0 DUP1 REVERT JUMPDEST DUP5 CALLDATALOAD PUSH8 0xFFFFFFFFFFFFFFFF DUP2 GT ISZERO PUSH2 0x1C25 JUMPI PUSH1 0x0 DUP1 REVERT JUMPDEST PUSH2 0x1C31 DUP8 DUP3 DUP9 ADD PUSH2 0x19BF JUMP JUMPDEST SWAP5 POP POP PUSH1 0x20 PUSH2 0x1C42 DUP8 DUP3 DUP9 ADD PUSH2 0x1B1A JUMP JUMPDEST SWAP4 POP POP PUSH1 0x40 PUSH2 0x1C53 DUP8 DUP3 DUP9 ADD PUSH2 0x1B1A JUMP JUMPDEST SWAP3 POP POP PUSH1 0x60 PUSH2 0x1C64 DUP8 DUP3 DUP9 ADD PUSH2 0x1BBC JUMP JUMPDEST SWAP2 POP POP SWAP3 SWAP6 SWAP2 SWAP5 POP SWAP3 POP JUMP JUMPDEST PUSH1 0x0 DUP1 PUSH1 0x0 DUP1 PUSH1 0x0 PUSH1 0xA0 DUP7 DUP9 SUB SLT ISZERO PUSH2 0x1C88 JUMPI PUSH1 0x0 DUP1 REVERT JUMPDEST DUP6 CALLDATALOAD PUSH8 0xFFFFFFFFFFFFFFFF DUP2 GT ISZERO PUSH2 0x1C9F JUMPI PUSH1 0x0 DUP1 REVERT JUMPDEST PUSH2 0x1CAB DUP9 DUP3 DUP10 ADD PUSH2 0x19BF JUMP JUMPDEST SWAP6 POP POP PUSH1 0x20 PUSH2 0x1CBC DUP9 DUP3 DUP10 ADD PUSH2 0x1B1A JUMP JUMPDEST SWAP5 POP POP PUSH1 0x40 PUSH2 0x1CCD DUP9 DUP3 DUP10 ADD PUSH2 0x1B1A JUMP JUMPDEST SWAP4 POP POP PUSH1 0x60 PUSH2 0x1CDE DUP9 DUP3 DUP10 ADD PUSH2 0x1BBC JUMP JUMPDEST SWAP3 POP POP PUSH1 0x80 PUSH2 0x1CEF DUP9 DUP3 DUP10 ADD PUSH2 0x1BBC JUMP JUMPDEST SWAP2 POP POP SWAP3 SWAP6 POP SWAP3 SWAP6 SWAP1 SWAP4 POP JUMP JUMPDEST PUSH1 0x0 PUSH1 0x20 DUP3 DUP5 SUB SLT ISZERO PUSH2 0x1D0E JUMPI PUSH1 0x0 DUP1 REVERT JUMPDEST DUP2 CALLDATALOAD PUSH8 0xFFFFFFFFFFFFFFFF DUP2 GT ISZERO PUSH2 0x1D25 JUMPI PUSH1 0x0 DUP1 REVERT JUMPDEST PUSH2 0x1BF0 DUP5 DUP3 DUP6 ADD PUSH2 0x1A9D JUMP JUMPDEST PUSH1 0x0 DUP1 PUSH1 0x0 DUP1 PUSH1 0x80 DUP6 DUP8 SUB SLT ISZERO PUSH2 0x1D47 JUMPI PUSH1 0x0 DUP1 REVERT JUMPDEST DUP5 CALLDATALOAD PUSH8 0xFFFFFFFFFFFFFFFF DUP2 GT ISZERO PUSH2 0x1D5E JUMPI PUSH1 0x0 DUP1 REVERT JUMPDEST PUSH2 0x1C31 DUP8 DUP3 DUP9 ADD PUSH2 0x1A9D JUMP JUMPDEST PUSH1 0x0 DUP1 PUSH1 0x0 DUP1 PUSH1 0x0 PUSH1 0xA0 DUP7 DUP9 SUB SLT ISZERO PUSH2 0x1D82 JUMPI PUSH1 0x0 DUP1 REVERT JUMPDEST DUP6 CALLDATALOAD PUSH8 0xFFFFFFFFFFFFFFFF DUP2 GT ISZERO PUSH2 0x1D99 JUMPI PUSH1 0x0 DUP1 REVERT JUMPDEST PUSH2 0x1CAB DUP9 DUP3 DUP10 ADD PUSH2 0x1A9D JUMP JUMPDEST PUSH1 0x0 PUSH1 0x20 DUP3 DUP5 SUB SLT ISZERO PUSH2 0x1DB7 JUMPI PUSH1 0x0 DUP1 REVERT JUMPDEST PUSH1 0x0 PUSH2 0x1BF0 DUP5 DUP5 PUSH2 0x1B0F JUMP JUMPDEST PUSH1 0x0 PUSH1 0xC0 DUP3 DUP5 SUB SLT ISZERO PUSH2 0x1DD5 JUMPI PUSH1 0x0 DUP1 REVERT JUMPDEST PUSH1 0x0 PUSH2 0x1BF0 DUP5 DUP5 PUSH2 0x1B25 JUMP JUMPDEST PUSH1 0x0 PUSH1 0x20 DUP3 DUP5 SUB SLT ISZERO PUSH2 0x1DF3 JUMPI PUSH1 0x0 DUP1 REVERT JUMPDEST PUSH1 0x0 PUSH2 0x1BF0 DUP5 DUP5 PUSH2 0x1BC7 JUMP JUMPDEST PUSH1 0x0 DUP1 PUSH1 0x40 DUP4 DUP6 SUB SLT ISZERO PUSH2 0x1E12 JUMPI PUSH1 0x0 DUP1 REVERT JUMPDEST PUSH1 0x0 PUSH2 0x1E1E DUP6 DUP6 PUSH2 0x1BC7 JUMP JUMPDEST SWAP3 POP POP PUSH1 0x20 PUSH2 0x1E2F DUP6 DUP3 DUP7 ADD PUSH2 0x1BC7 JUMP JUMPDEST SWAP2 POP POP SWAP3 POP SWAP3 SWAP1 POP JUMP JUMPDEST PUSH1 0x0 PUSH2 0x1E45 DUP4 DUP4 PUSH2 0x2283 JUMP JUMPDEST POP POP PUSH1 0x20 ADD SWAP1 JUMP JUMPDEST PUSH2 0x1E56 DUP2 PUSH2 0x25E1 JUMP JUMPDEST DUP3 MSTORE POP POP JUMP JUMPDEST PUSH2 0x1E56 DUP2 PUSH2 0x25B7 JUMP JUMPDEST PUSH1 0x0 PUSH2 0x1E70 DUP3 PUSH2 0x25A5 JUMP JUMPDEST PUSH2 0x1E7A DUP2 DUP6 PUSH2 0x25A9 JUMP JUMPDEST SWAP4 POP PUSH2 0x1E85 DUP4 PUSH2 0x259F JUMP JUMPDEST DUP1 PUSH1 0x0 JUMPDEST DUP4 DUP2 LT ISZERO PUSH2 0x1EB3 JUMPI DUP2 MLOAD PUSH2 0x1E9D DUP9 DUP3 PUSH2 0x1E39 JUMP JUMPDEST SWAP8 POP PUSH2 0x1EA8 DUP4 PUSH2 0x259F JUMP JUMPDEST SWAP3 POP POP PUSH1 0x1 ADD PUSH2 0x1E89 JUMP JUMPDEST POP SWAP5 SWAP6 SWAP5 POP POP POP POP POP JUMP JUMPDEST PUSH2 0x1E56 DUP2 PUSH2 0x25C2 JUMP JUMPDEST PUSH1 0x0 PUSH2 0x1ED2 DUP3 PUSH2 0x25A5 JUMP JUMPDEST PUSH2 0x1EDC DUP2 DUP6 PUSH2 0x25B2 JUMP JUMPDEST SWAP4 POP PUSH2 0x1EEC DUP2 DUP6 PUSH1 0x20 DUP7 ADD PUSH2 0x25F7 JUMP JUMPDEST SWAP3 SWAP1 SWAP3 ADD SWAP3 SWAP2 POP POP JUMP JUMPDEST PUSH2 0x1E56 DUP2 PUSH2 0x25EC JUMP JUMPDEST PUSH1 0x0 PUSH2 0x1F0A DUP3 PUSH2 0x25A5 JUMP JUMPDEST PUSH2 0x1F14 DUP2 DUP6 PUSH2 0x25A9 JUMP JUMPDEST SWAP4 POP PUSH2 0x1F24 DUP2 DUP6 PUSH1 0x20 DUP7 ADD PUSH2 0x25F7 JUMP JUMPDEST PUSH2 0x1F2D DUP2 PUSH2 0x2627 JUMP JUMPDEST SWAP1 SWAP4 ADD SWAP4 SWAP3 POP POP POP JUMP JUMPDEST PUSH1 0x0 PUSH2 0x1F44 PUSH1 0x26 DUP4 PUSH2 0x25A9 JUMP JUMPDEST PUSH32 0x4F776E61626C653A206E6577206F776E657220697320746865207A65726F2061 DUP2 MSTORE PUSH6 0x646472657373 PUSH1 0xD0 SHL PUSH1 0x20 DUP3 ADD MSTORE PUSH1 0x40 ADD SWAP3 SWAP2 POP POP JUMP JUMPDEST PUSH1 0x0 PUSH2 0x1F8C PUSH1 0x1B DUP4 PUSH2 0x25A9 JUMP JUMPDEST PUSH32 0x536166654D6174683A206164646974696F6E206F766572666C6F770000000000 DUP2 MSTORE PUSH1 0x20 ADD SWAP3 SWAP2 POP POP JUMP JUMPDEST PUSH1 0x0 PUSH2 0x1FC5 PUSH1 0xC DUP4 PUSH2 0x25A9 JUMP JUMPDEST PUSH12 0x22A92927A92FA2AA242FA4A7 PUSH1 0xA1 SHL DUP2 MSTORE PUSH1 0x20 ADD SWAP3 SWAP2 POP POP JUMP JUMPDEST PUSH1 0x0 PUSH2 0x1FED PUSH1 0x29 DUP4 PUSH2 0x25A9 JUMP JUMPDEST PUSH32 0x45786368616E676550726F78793A20494E53554646494349454E545F4F555450 DUP2 MSTORE PUSH9 0x155517D05353D55395 PUSH1 0xBA SHL PUSH1 0x20 DUP3 ADD MSTORE PUSH1 0x40 ADD SWAP3 SWAP2 POP POP JUMP JUMPDEST PUSH1 0x0 PUSH2 0x2038 PUSH1 0x31 DUP4 PUSH2 0x25A9 JUMP JUMPDEST PUSH32 0x5472616E7366657248656C7065723A3A7472616E7366657246726F6D3A207472 DUP2 MSTORE PUSH17 0x185B9CD9995C919C9BDB4819985A5B1959 PUSH1 0x7A SHL PUSH1 0x20 DUP3 ADD MSTORE PUSH1 0x40 ADD SWAP3 SWAP2 POP POP JUMP JUMPDEST PUSH1 0x0 PUSH2 0x208B PUSH1 0xD DUP4 PUSH2 0x25A9 JUMP JUMPDEST PUSH13 0x11549497D31253525517D3D555 PUSH1 0x9A SHL DUP2 MSTORE PUSH1 0x20 ADD SWAP3 SWAP2 POP POP JUMP JUMPDEST PUSH1 0x0 PUSH2 0x20B4 PUSH1 0xC DUP4 PUSH2 0x25A9 JUMP JUMPDEST PUSH12 0x22A9292FA624A6A4AA2FA4A7 PUSH1 0xA1 SHL DUP2 MSTORE PUSH1 0x20 ADD SWAP3 SWAP2 POP POP JUMP JUMPDEST PUSH1 0x0 PUSH2 0x20DC PUSH1 0x1B DUP4 PUSH2 0x25A9 JUMP JUMPDEST PUSH32 0x45786368616E676550726F78793A20494E56414C49445F504154480000000000 DUP2 MSTORE PUSH1 0x20 ADD SWAP3 SWAP2 POP POP JUMP JUMPDEST PUSH1 0x0 PUSH2 0x2115 PUSH1 0x20 DUP4 PUSH2 0x25A9 JUMP JUMPDEST PUSH32 0x4F776E61626C653A2063616C6C6572206973206E6F7420746865206F776E6572 DUP2 MSTORE PUSH1 0x20 ADD SWAP3 SWAP2 POP POP JUMP JUMPDEST PUSH1 0x0 PUSH2 0x214E PUSH1 0x13 DUP4 PUSH2 0x25A9 JUMP JUMPDEST PUSH19 0x22A9292FAA27AA20A62FA0A6A7AAA72A2FA4A7 PUSH1 0x69 SHL DUP2 MSTORE PUSH1 0x20 ADD SWAP3 SWAP2 POP POP JUMP JUMPDEST PUSH1 0x0 PUSH2 0x217D PUSH1 0xE DUP4 PUSH2 0x25A9 JUMP JUMPDEST PUSH14 0x11549497D1551217D19052531151 PUSH1 0x92 SHL DUP2 MSTORE PUSH1 0x20 ADD SWAP3 SWAP2 POP POP JUMP JUMPDEST PUSH1 0x0 PUSH2 0x21A7 PUSH1 0xF DUP4 PUSH2 0x25A9 JUMP JUMPDEST PUSH15 0x4552525F4C494D49545F5052494345 PUSH1 0x88 SHL DUP2 MSTORE PUSH1 0x20 ADD SWAP3 SWAP2 POP POP JUMP JUMPDEST PUSH1 0x0 PUSH2 0x21D2 PUSH1 0x15 DUP4 PUSH2 0x25A9 JUMP JUMPDEST PUSH21 0x8AA4A4BEA89E968A9C929CBE9C9EA8BE9A82A8869 PUSH1 0x5B SHL DUP2 MSTORE PUSH1 0x20 ADD SWAP3 SWAP2 POP POP JUMP JUMPDEST PUSH1 0x0 PUSH2 0x1750 PUSH1 0x0 DUP4 PUSH2 0x25B2 JUMP JUMPDEST PUSH1 0x0 PUSH2 0x2210 PUSH1 0x2D DUP4 PUSH2 0x25A9 JUMP JUMPDEST PUSH32 0x5472616E7366657248656C7065723A3A736166655472616E736665723A207472 DUP2 MSTORE PUSH13 0x185B9CD9995C8819985A5B1959 PUSH1 0x9A SHL PUSH1 0x20 DUP3 ADD MSTORE PUSH1 0x40 ADD SWAP3 SWAP2 POP POP JUMP JUMPDEST PUSH1 0x0 PUSH2 0x225F PUSH1 0x15 DUP4 PUSH2 0x25A9 JUMP JUMPDEST PUSH21 0x8AA4A4BE9EAAA8869E929CBE9C9EA8BE9A82A8869 PUSH1 0x5B SHL DUP2 MSTORE PUSH1 0x20 ADD SWAP3 SWAP2 POP POP JUMP JUMPDEST PUSH2 0x1E56 DUP2 PUSH2 0x25DE JUMP JUMPDEST PUSH1 0x0 PUSH2 0x177B DUP3 DUP5 PUSH2 0x1EC7 JUMP JUMPDEST PUSH1 0x0 PUSH2 0x1750 DUP3 PUSH2 0x21F6 JUMP JUMPDEST PUSH1 0x20 DUP2 ADD PUSH2 0x1750 DUP3 DUP5 PUSH2 0x1E5C JUMP JUMPDEST PUSH1 0xC0 DUP2 ADD PUSH2 0x22BF DUP3 DUP10 PUSH2 0x1E4D JUMP JUMPDEST PUSH2 0x22CC PUSH1 0x20 DUP4 ADD DUP9 PUSH2 0x1E5C JUMP JUMPDEST PUSH2 0x22D9 PUSH1 0x40 DUP4 ADD DUP8 PUSH2 0x1E5C JUMP JUMPDEST PUSH2 0x22E6 PUSH1 0x60 DUP4 ADD DUP7 PUSH2 0x2283 JUMP JUMPDEST PUSH2 0x22F3 PUSH1 0x80 DUP4 ADD DUP6 PUSH2 0x1E5C JUMP JUMPDEST PUSH2 0x2300 PUSH1 0xA0 DUP4 ADD DUP5 PUSH2 0x2283 JUMP JUMPDEST SWAP8 SWAP7 POP POP POP POP POP POP POP JUMP JUMPDEST PUSH1 0xE0 DUP2 ADD PUSH2 0x2319 DUP3 DUP11 PUSH2 0x1E4D JUMP JUMPDEST PUSH2 0x2326 PUSH1 0x20 DUP4 ADD DUP10 PUSH2 0x1E5C JUMP JUMPDEST PUSH2 0x2333 PUSH1 0x40 DUP4 ADD DUP9 PUSH2 0x2283 JUMP JUMPDEST PUSH2 0x2340 PUSH1 0x60 DUP4 ADD DUP8 PUSH2 0x1E5C JUMP JUMPDEST PUSH2 0x234D PUSH1 0x80 DUP4 ADD DUP7 PUSH2 0x2283 JUMP JUMPDEST PUSH2 0x235A PUSH1 0xA0 DUP4 ADD DUP6 PUSH2 0x1E5C JUMP JUMPDEST PUSH2 0x2367 PUSH1 0xC0 DUP4 ADD DUP5 PUSH2 0x2283 JUMP JUMPDEST SWAP9 SWAP8 POP POP POP POP POP POP POP POP JUMP JUMPDEST PUSH1 0x80 DUP2 ADD PUSH2 0x2381 DUP3 DUP8 PUSH2 0x1E5C JUMP JUMPDEST PUSH2 0x238E PUSH1 0x20 DUP4 ADD DUP7 PUSH2 0x1E5C JUMP JUMPDEST PUSH2 0x239B PUSH1 0x40 DUP4 ADD DUP6 PUSH2 0x1EF6 JUMP JUMPDEST PUSH2 0x23A8 PUSH1 0x60 DUP4 ADD DUP5 PUSH2 0x1EF6 JUMP JUMPDEST SWAP6 SWAP5 POP POP POP POP POP JUMP JUMPDEST PUSH1 0x80 DUP2 ADD PUSH2 0x23BF DUP3 DUP8 PUSH2 0x1E5C JUMP JUMPDEST PUSH2 0x23CC PUSH1 0x20 DUP4 ADD DUP7 PUSH2 0x1E5C JUMP JUMPDEST PUSH2 0x23D9 PUSH1 0x40 DUP4 ADD DUP6 PUSH2 0x1EF6 JUMP JUMPDEST PUSH2 0x23A8 PUSH1 0x60 DUP4 ADD DUP5 PUSH2 0x2283 JUMP JUMPDEST PUSH1 0x60 DUP2 ADD PUSH2 0x23F4 DUP3 DUP7 PUSH2 0x1E5C JUMP JUMPDEST PUSH2 0x2401 PUSH1 0x20 DUP4 ADD DUP6 PUSH2 0x1E5C JUMP JUMPDEST PUSH2 0x1BF0 PUSH1 0x40 DUP4 ADD DUP5 PUSH2 0x2283 JUMP JUMPDEST PUSH1 0x40 DUP2 ADD PUSH2 0x241C DUP3 DUP6 PUSH2 0x1E5C JUMP JUMPDEST PUSH2 0x177B PUSH1 0x20 DUP4 ADD DUP5 PUSH2 0x2283 JUMP JUMPDEST PUSH1 0x20 DUP1 DUP3 MSTORE DUP2 ADD PUSH2 0x177B DUP2 DUP5 PUSH2 0x1E65 JUMP JUMPDEST PUSH1 0x20 DUP2 ADD PUSH2 0x1750 DUP3 DUP5 PUSH2 0x1EBE JUMP JUMPDEST PUSH1 0x20 DUP1 DUP3 MSTORE DUP2 ADD PUSH2 0x177B DUP2 DUP5 PUSH2 0x1EFF JUMP JUMPDEST PUSH1 0x20 DUP1 DUP3 MSTORE DUP2 ADD PUSH2 0x1750 DUP2 PUSH2 0x1F37 JUMP JUMPDEST PUSH1 0x20 DUP1 DUP3 MSTORE DUP2 ADD PUSH2 0x1750 DUP2 PUSH2 0x1F7F JUMP JUMPDEST PUSH1 0x20 DUP1 DUP3 MSTORE DUP2 ADD PUSH2 0x1750 DUP2 PUSH2 0x1FB8 JUMP JUMPDEST PUSH1 0x20 DUP1 DUP3 MSTORE DUP2 ADD PUSH2 0x1750 DUP2 PUSH2 0x1FE0 JUMP JUMPDEST PUSH1 0x20 DUP1 DUP3 MSTORE DUP2 ADD PUSH2 0x1750 DUP2 PUSH2 0x202B JUMP JUMPDEST PUSH1 0x20 DUP1 DUP3 MSTORE DUP2 ADD PUSH2 0x1750 DUP2 PUSH2 0x207E JUMP JUMPDEST PUSH1 0x20 DUP1 DUP3 MSTORE DUP2 ADD PUSH2 0x1750 DUP2 PUSH2 0x20A7 JUMP JUMPDEST PUSH1 0x20 DUP1 DUP3 MSTORE DUP2 ADD PUSH2 0x1750 DUP2 PUSH2 0x20CF JUMP JUMPDEST PUSH1 0x20 DUP1 DUP3 MSTORE DUP2 ADD PUSH2 0x1750 DUP2 PUSH2 0x2108 JUMP JUMPDEST PUSH1 0x20 DUP1 DUP3 MSTORE DUP2 ADD PUSH2 0x1750 DUP2 PUSH2 0x2141 JUMP JUMPDEST PUSH1 0x20 DUP1 DUP3 MSTORE DUP2 ADD PUSH2 0x1750 DUP2 PUSH2 0x2170 JUMP JUMPDEST PUSH1 0x20 DUP1 DUP3 MSTORE DUP2 ADD PUSH2 0x1750 DUP2 PUSH2 0x219A JUMP JUMPDEST PUSH1 0x20 DUP1 DUP3 MSTORE DUP2 ADD PUSH2 0x1750 DUP2 PUSH2 0x21C5 JUMP JUMPDEST PUSH1 0x20 DUP1 DUP3 MSTORE DUP2 ADD PUSH2 0x1750 DUP2 PUSH2 0x2203 JUMP JUMPDEST PUSH1 0x20 DUP1 DUP3 MSTORE DUP2 ADD PUSH2 0x1750 DUP2 PUSH2 0x2252 JUMP JUMPDEST PUSH1 0x20 DUP2 ADD PUSH2 0x1750 DUP3 DUP5 PUSH2 0x2283 JUMP JUMPDEST PUSH1 0x40 MLOAD DUP2 DUP2 ADD PUSH8 0xFFFFFFFFFFFFFFFF DUP2 GT DUP3 DUP3 LT OR ISZERO PUSH2 0x2576 JUMPI PUSH1 0x0 DUP1 REVERT JUMPDEST PUSH1 0x40 MSTORE SWAP2 SWAP1 POP JUMP JUMPDEST PUSH1 0x0 PUSH8 0xFFFFFFFFFFFFFFFF DUP3 GT ISZERO PUSH2 0x2595 JUMPI PUSH1 0x0 DUP1 REVERT JUMPDEST POP PUSH1 0x20 SWAP1 DUP2 MUL ADD SWAP1 JUMP JUMPDEST PUSH1 0x20 ADD SWAP1 JUMP JUMPDEST MLOAD SWAP1 JUMP JUMPDEST SWAP1 DUP2 MSTORE PUSH1 0x20 ADD SWAP1 JUMP JUMPDEST SWAP2 SWAP1 POP JUMP JUMPDEST PUSH1 0x0 PUSH2 0x1750 DUP3 PUSH2 0x25D2 JUMP JUMPDEST ISZERO ISZERO SWAP1 JUMP JUMPDEST PUSH1 0x0 PUSH2 0x1750 DUP3 PUSH2 0x25B7 JUMP JUMPDEST PUSH1 0x1 PUSH1 0x1 PUSH1 0xA0 SHL SUB AND SWAP1 JUMP JUMPDEST SWAP1 JUMP JUMPDEST PUSH1 0x0 PUSH2 0x1750 DUP3 PUSH2 0x25C7 JUMP JUMPDEST PUSH1 0x0 PUSH2 0x1750 DUP3 PUSH2 0x25DE JUMP JUMPDEST PUSH1 0x0 JUMPDEST DUP4 DUP2 LT ISZERO PUSH2 0x2612 JUMPI DUP2 DUP2 ADD MLOAD DUP4 DUP3 ADD MSTORE PUSH1 0x20 ADD PUSH2 0x25FA JUMP JUMPDEST DUP4 DUP2 GT ISZERO PUSH2 0x2621 JUMPI PUSH1 0x0 DUP5 DUP5 ADD MSTORE JUMPDEST POP POP POP POP JUMP JUMPDEST PUSH1 0x1F ADD PUSH1 0x1F NOT AND SWAP1 JUMP JUMPDEST PUSH2 0x263A DUP2 PUSH2 0x25B7 JUMP JUMPDEST DUP2 EQ PUSH2 0x152B JUMPI PUSH1 0x0 DUP1 REVERT JUMPDEST PUSH2 0x263A DUP2 PUSH2 0x25C2 JUMP JUMPDEST PUSH2 0x263A DUP2 PUSH2 0x25C7 JUMP JUMPDEST PUSH2 0x263A DUP2 PUSH2 0x25DE JUMP INVALID LOG3 PUSH6 0x627A7A723158 KECCAK256 PUSH4 0x1A0AEB56 EXP PUSH24 0x5B499FFE9E4484AAC349B6B01BE16C203EE43FD74FF1BAE2 ADDMOD PUSH13 0x6578706572696D656E74616CF5 PUSH5 0x736F6C6343 STOP SDIV 0xc STOP BLOCKHASH "
		},
		"gasEstimates": {
			"creation": {
				"codeDepositCost": "1978200",
				"executionCost": "infinite",
				"totalCost": "infinite"
			},
			"external": {
				"": "185",
				"batchSwapExactIn((address,address,address,uint256,uint256,uint256)[],address,address,uint256,uint256)": "infinite",
				"batchSwapExactOut((address,address,address,uint256,uint256,uint256)[],address,address,uint256)": "infinite",
				"getAmountIn((address,address,address,uint256,uint256,uint256))": "infinite",
				"getAmountsIn((address,address,address,uint256,uint256,uint256)[])": "infinite",
				"isOwner()": "603",
				"multihopBatchSwapExactIn((address,address,address,uint256,uint256,uint256)[][],address,address,uint256,uint256)": "infinite",
				"multihopBatchSwapExactOut((address,address,address,uint256,uint256,uint256)[][],address,address,uint256)": "infinite",
				"owner()": "infinite",
				"renounceOwnership()": "22490",
				"setRegistry(address)": "infinite",
				"transferOwnership(address)": "infinite"
			},
			"internal": {
				"getBalance(contract TokenInterface)": "infinite",
				"isETH(contract TokenInterface)": "44",
				"safeApprove(address,address,uint256)": "infinite",
				"safeTransfer(address,address,uint256)": "infinite",
				"safeTransferFrom(address,address,address,uint256)": "infinite",
				"transferAll(contract TokenInterface,uint256)": "infinite",
				"transferFromAll(contract TokenInterface,uint256)": "infinite"
			}
		},
		"methodIdentifiers": {
			"batchSwapExactIn((address,address,address,uint256,uint256,uint256)[],address,address,uint256,uint256)": "8743ad58",
			"batchSwapExactOut((address,address,address,uint256,uint256,uint256)[],address,address,uint256)": "2db58134",
			"getAmountIn((address,address,address,uint256,uint256,uint256))": "586307ae",
			"getAmountsIn((address,address,address,uint256,uint256,uint256)[])": "9b942c13",
			"isOwner()": "8f32d59b",
			"multihopBatchSwapExactIn((address,address,address,uint256,uint256,uint256)[][],address,address,uint256,uint256)": "e2b39746",
			"multihopBatchSwapExactOut((address,address,address,uint256,uint256,uint256)[][],address,address,uint256)": "86b2ecc4",
			"owner()": "8da5cb5b",
			"renounceOwnership()": "715018a6",
			"setRegistry(address)": "a91ee0dc",
			"transferOwnership(address)": "f2fde38b"
		}
	},
	"abi": [
		{
			"inputs": [
				{
					"internalType": "address",
					"name": "_weth",
					"type": "address"
				}
			],
			"payable": false,
			"stateMutability": "nonpayable",
			"type": "constructor"
		},
		{
			"anonymous": false,
			"inputs": [
				{
					"indexed": true,
					"internalType": "address",
					"name": "previousOwner",
					"type": "address"
				},
				{
					"indexed": true,
					"internalType": "address",
					"name": "newOwner",
					"type": "address"
				}
			],
			"name": "OwnershipTransferred",
			"type": "event"
		},
		{
			"payable": true,
			"stateMutability": "payable",
			"type": "fallback"
		},
		{
			"constant": false,
			"inputs": [
				{
					"components": [
						{
							"internalType": "address",
							"name": "pool",
							"type": "address"
						},
						{
							"internalType": "address",
							"name": "tokenIn",
							"type": "address"
						},
						{
							"internalType": "address",
							"name": "tokenOut",
							"type": "address"
						},
						{
							"internalType": "uint256",
							"name": "swapAmount",
							"type": "uint256"
						},
						{
							"internalType": "uint256",
							"name": "limitReturnAmount",
							"type": "uint256"
						},
						{
							"internalType": "uint256",
							"name": "maxPrice",
							"type": "uint256"
						}
					],
					"internalType": "struct ExchangeProxy.Swap[]",
					"name": "swaps",
					"type": "tuple[]"
				},
				{
					"internalType": "contract TokenInterface",
					"name": "tokenIn",
					"type": "address"
				},
				{
					"internalType": "contract TokenInterface",
					"name": "tokenOut",
					"type": "address"
				},
				{
					"internalType": "uint256",
					"name": "totalAmountIn",
					"type": "uint256"
				},
				{
					"internalType": "uint256",
					"name": "minTotalAmountOut",
					"type": "uint256"
				}
			],
			"name": "batchSwapExactIn",
			"outputs": [
				{
					"internalType": "uint256",
					"name": "totalAmountOut",
					"type": "uint256"
				}
			],
			"payable": true,
			"stateMutability": "payable",
			"type": "function"
		},
		{
			"constant": false,
			"inputs": [
				{
					"components": [
						{
							"internalType": "address",
							"name": "pool",
							"type": "address"
						},
						{
							"internalType": "address",
							"name": "tokenIn",
							"type": "address"
						},
						{
							"internalType": "address",
							"name": "tokenOut",
							"type": "address"
						},
						{
							"internalType": "uint256",
							"name": "swapAmount",
							"type": "uint256"
						},
						{
							"internalType": "uint256",
							"name": "limitReturnAmount",
							"type": "uint256"
						},
						{
							"internalType": "uint256",
							"name": "maxPrice",
							"type": "uint256"
						}
					],
					"internalType": "struct ExchangeProxy.Swap[]",
					"name": "swaps",
					"type": "tuple[]"
				},
				{
					"internalType": "contract TokenInterface",
					"name": "tokenIn",
					"type": "address"
				},
				{
					"internalType": "contract TokenInterface",
					"name": "tokenOut",
					"type": "address"
				},
				{
					"internalType": "uint256",
					"name": "maxTotalAmountIn",
					"type": "uint256"
				}
			],
			"name": "batchSwapExactOut",
			"outputs": [
				{
					"internalType": "uint256",
					"name": "totalAmountIn",
					"type": "uint256"
				}
			],
			"payable": true,
			"stateMutability": "payable",
			"type": "function"
		},
		{
			"constant": true,
			"inputs": [
				{
					"components": [
						{
							"internalType": "address",
							"name": "pool",
							"type": "address"
						},
						{
							"internalType": "address",
							"name": "tokenIn",
							"type": "address"
						},
						{
							"internalType": "address",
							"name": "tokenOut",
							"type": "address"
						},
						{
							"internalType": "uint256",
							"name": "swapAmount",
							"type": "uint256"
						},
						{
							"internalType": "uint256",
							"name": "limitReturnAmount",
							"type": "uint256"
						},
						{
							"internalType": "uint256",
							"name": "maxPrice",
							"type": "uint256"
						}
					],
					"internalType": "struct ExchangeProxy.Swap",
					"name": "swap",
					"type": "tuple"
				}
			],
			"name": "getAmountIn",
			"outputs": [
				{
					"internalType": "uint256",
					"name": "amountIn",
					"type": "uint256"
				}
			],
			"payable": false,
			"stateMutability": "view",
			"type": "function"
		},
		{
			"constant": true,
			"inputs": [
				{
					"components": [
						{
							"internalType": "address",
							"name": "pool",
							"type": "address"
						},
						{
							"internalType": "address",
							"name": "tokenIn",
							"type": "address"
						},
						{
							"internalType": "address",
							"name": "tokenOut",
							"type": "address"
						},
						{
							"internalType": "uint256",
							"name": "swapAmount",
							"type": "uint256"
						},
						{
							"internalType": "uint256",
							"name": "limitReturnAmount",
							"type": "uint256"
						},
						{
							"internalType": "uint256",
							"name": "maxPrice",
							"type": "uint256"
						}
					],
					"internalType": "struct ExchangeProxy.Swap[]",
					"name": "swaps",
					"type": "tuple[]"
				}
			],
			"name": "getAmountsIn",
			"outputs": [
				{
					"internalType": "uint256[]",
					"name": "amounts",
					"type": "uint256[]"
				}
			],
			"payable": false,
			"stateMutability": "view",
			"type": "function"
		},
		{
			"constant": true,
			"inputs": [],
			"name": "isOwner",
			"outputs": [
				{
					"internalType": "bool",
					"name": "",
					"type": "bool"
				}
			],
			"payable": false,
			"stateMutability": "view",
			"type": "function"
		},
		{
			"constant": false,
			"inputs": [
				{
					"components": [
						{
							"internalType": "address",
							"name": "pool",
							"type": "address"
						},
						{
							"internalType": "address",
							"name": "tokenIn",
							"type": "address"
						},
						{
							"internalType": "address",
							"name": "tokenOut",
							"type": "address"
						},
						{
							"internalType": "uint256",
							"name": "swapAmount",
							"type": "uint256"
						},
						{
							"internalType": "uint256",
							"name": "limitReturnAmount",
							"type": "uint256"
						},
						{
							"internalType": "uint256",
							"name": "maxPrice",
							"type": "uint256"
						}
					],
					"internalType": "struct ExchangeProxy.Swap[][]",
					"name": "swapSequences",
					"type": "tuple[][]"
				},
				{
					"internalType": "contract TokenInterface",
					"name": "tokenIn",
					"type": "address"
				},
				{
					"internalType": "contract TokenInterface",
					"name": "tokenOut",
					"type": "address"
				},
				{
					"internalType": "uint256",
					"name": "totalAmountIn",
					"type": "uint256"
				},
				{
					"internalType": "uint256",
					"name": "minTotalAmountOut",
					"type": "uint256"
				}
			],
			"name": "multihopBatchSwapExactIn",
			"outputs": [
				{
					"internalType": "uint256",
					"name": "totalAmountOut",
					"type": "uint256"
				}
			],
			"payable": true,
			"stateMutability": "payable",
			"type": "function"
		},
		{
			"constant": false,
			"inputs": [
				{
					"components": [
						{
							"internalType": "address",
							"name": "pool",
							"type": "address"
						},
						{
							"internalType": "address",
							"name": "tokenIn",
							"type": "address"
						},
						{
							"internalType": "address",
							"name": "tokenOut",
							"type": "address"
						},
						{
							"internalType": "uint256",
							"name": "swapAmount",
							"type": "uint256"
						},
						{
							"internalType": "uint256",
							"name": "limitReturnAmount",
							"type": "uint256"
						},
						{
							"internalType": "uint256",
							"name": "maxPrice",
							"type": "uint256"
						}
					],
					"internalType": "struct ExchangeProxy.Swap[][]",
					"name": "swapSequences",
					"type": "tuple[][]"
				},
				{
					"internalType": "contract TokenInterface",
					"name": "tokenIn",
					"type": "address"
				},
				{
					"internalType": "contract TokenInterface",
					"name": "tokenOut",
					"type": "address"
				},
				{
					"internalType": "uint256",
					"name": "maxTotalAmountIn",
					"type": "uint256"
				}
			],
			"name": "multihopBatchSwapExactOut",
			"outputs": [
				{
					"internalType": "uint256",
					"name": "totalAmountIn",
					"type": "uint256"
				}
			],
			"payable": true,
			"stateMutability": "payable",
			"type": "function"
		},
		{
			"constant": true,
			"inputs": [],
			"name": "owner",
			"outputs": [
				{
					"internalType": "address",
					"name": "",
					"type": "address"
				}
			],
			"payable": false,
			"stateMutability": "view",
			"type": "function"
		},
		{
			"constant": false,
			"inputs": [],
			"name": "renounceOwnership",
			"outputs": [],
			"payable": false,
			"stateMutability": "nonpayable",
			"type": "function"
		},
		{
			"constant": false,
			"inputs": [
				{
					"internalType": "address",
					"name": "_registry",
					"type": "address"
				}
			],
			"name": "setRegistry",
			"outputs": [],
			"payable": false,
			"stateMutability": "nonpayable",
			"type": "function"
		},
		{
			"constant": false,
			"inputs": [
				{
					"internalType": "address",
					"name": "newOwner",
					"type": "address"
				}
			],
			"name": "transferOwnership",
			"outputs": [],
			"payable": false,
			"stateMutability": "nonpayable",
			"type": "function"
		}
	]
}