{
  "data": {
    "bytecode": {
      "linkReferences": {},
      "object": "608060405234801561001057600080fd5b5061023f806100206000396000f3fe608060405234801561001057600080fd5b50600436106100365760003560e01c8063b96fb66b1461003b578063df5cc28c1461006a575b600080fd5b6100586004803603602081101561005157600080fd5b5035610087565b60408051918252519081900360200190f35b6100586004803603602081101561008057600080fd5b5035610155565b600080683635c9adc5dea000005b69021e19e0c9bab24000008110156100d0576014810291909101908382106100c05791506101509050565b681b1ae4d6e2ef50000001610095565b5069021e19e0c9bab24000005b69098774738bc822200000811015610118576014810291909101908382106101085791506101509050565b683635c9adc5dea00000016100dd565b5069ab86301fd412664000000169098774738bc8222000008382106101405791506101509050565b50690a968163f0a57b4000009150505b919050565b6000697259756a8d61998000008210156101775750662386f26fc10000610150565b6a0190391af4eed599400000821015610198575066470de4df820000610150565b6a03f6526b99745385c000008210156101b95750666a94d74f430000610150565b6a0803eff3db93acb44000008210156101da5750668e1bc9bf040000610150565b6a0db911b3bb4ce124c000008210156101fb575066b1a2bc2ec50000610150565b5066d529ae9e86000061015056fea2646970667358221220974c164a5a90e0fa63e2de4ee83f6ed0f1c1291f0afcba62a3e24280895af57064736f6c634300060c0033",
      "opcodes": "PUSH1 0x80 PUSH1 0x40 MSTORE CALLVALUE DUP1 ISZERO PUSH2 0x10 JUMPI PUSH1 0x0 DUP1 REVERT JUMPDEST POP PUSH2 0x23F DUP1 PUSH2 0x20 PUSH1 0x0 CODECOPY PUSH1 0x0 RETURN INVALID PUSH1 0x80 PUSH1 0x40 MSTORE CALLVALUE DUP1 ISZERO PUSH2 0x10 JUMPI PUSH1 0x0 DUP1 REVERT JUMPDEST POP PUSH1 0x4 CALLDATASIZE LT PUSH2 0x36 JUMPI PUSH1 0x0 CALLDATALOAD PUSH1 0xE0 SHR DUP1 PUSH4 0xB96FB66B EQ PUSH2 0x3B JUMPI DUP1 PUSH4 0xDF5CC28C EQ PUSH2 0x6A JUMPI JUMPDEST PUSH1 0x0 DUP1 REVERT JUMPDEST PUSH2 0x58 PUSH1 0x4 DUP1 CALLDATASIZE SUB PUSH1 0x20 DUP2 LT ISZERO PUSH2 0x51 JUMPI PUSH1 0x0 DUP1 REVERT JUMPDEST POP CALLDATALOAD PUSH2 0x87 JUMP JUMPDEST PUSH1 0x40 DUP1 MLOAD SWAP2 DUP3 MSTORE MLOAD SWAP1 DUP2 SWAP1 SUB PUSH1 0x20 ADD SWAP1 RETURN JUMPDEST PUSH2 0x58 PUSH1 0x4 DUP1 CALLDATASIZE SUB PUSH1 0x20 DUP2 LT ISZERO PUSH2 0x80 JUMPI PUSH1 0x0 DUP1 REVERT JUMPDEST POP CALLDATALOAD PUSH2 0x155 JUMP JUMPDEST PUSH1 0x0 DUP1 PUSH9 0x3635C9ADC5DEA00000 JUMPDEST PUSH10 0x21E19E0C9BAB2400000 DUP2 LT ISZERO PUSH2 0xD0 JUMPI PUSH1 0x14 DUP2 MUL SWAP2 SWAP1 SWAP2 ADD SWAP1 DUP4 DUP3 LT PUSH2 0xC0 JUMPI SWAP2 POP PUSH2 0x150 SWAP1 POP JUMP JUMPDEST PUSH9 0x1B1AE4D6E2EF500000 ADD PUSH2 0x95 JUMP JUMPDEST POP PUSH10 0x21E19E0C9BAB2400000 JUMPDEST PUSH10 0x98774738BC822200000 DUP2 LT ISZERO PUSH2 0x118 JUMPI PUSH1 0x14 DUP2 MUL SWAP2 SWAP1 SWAP2 ADD SWAP1 DUP4 DUP3 LT PUSH2 0x108 JUMPI SWAP2 POP PUSH2 0x150 SWAP1 POP JUMP JUMPDEST PUSH9 0x3635C9ADC5DEA00000 ADD PUSH2 0xDD JUMP JUMPDEST POP PUSH10 0xAB86301FD41266400000 ADD PUSH10 0x98774738BC822200000 DUP4 DUP3 LT PUSH2 0x140 JUMPI SWAP2 POP PUSH2 0x150 SWAP1 POP JUMP JUMPDEST POP PUSH10 0xA968163F0A57B400000 SWAP2 POP POP JUMPDEST SWAP2 SWAP1 POP JUMP JUMPDEST PUSH1 0x0 PUSH10 0x7259756A8D6199800000 DUP3 LT ISZERO PUSH2 0x177 JUMPI POP PUSH7 0x2386F26FC10000 PUSH2 0x150 JUMP JUMPDEST PUSH11 0x190391AF4EED599400000 DUP3 LT ISZERO PUSH2 0x198 JUMPI POP PUSH7 0x470DE4DF820000 PUSH2 0x150 JUMP JUMPDEST PUSH11 0x3F6526B99745385C00000 DUP3 LT ISZERO PUSH2 0x1B9 JUMPI POP PUSH7 0x6A94D74F430000 PUSH2 0x150 JUMP JUMPDEST PUSH11 0x803EFF3DB93ACB4400000 DUP3 LT ISZERO PUSH2 0x1DA JUMPI POP PUSH7 0x8E1BC9BF040000 PUSH2 0x150 JUMP JUMPDEST PUSH11 0xDB911B3BB4CE124C00000 DUP3 LT ISZERO PUSH2 0x1FB JUMPI POP PUSH7 0xB1A2BC2EC50000 PUSH2 0x150 JUMP JUMPDEST POP PUSH7 0xD529AE9E860000 PUSH2 0x150 JUMP INVALID LOG2 PUSH5 0x6970667358 0x22 SLT KECCAK256 SWAP8 0x4C AND 0x4A GAS SWAP1 0xE0 STATICCALL PUSH4 0xE2DE4EE8 EXTCODEHASH PUSH15 0xD0F1C1291F0AFCBA62A3E24280895A CREATE2 PUSH17 0x64736F6C634300060C0033000000000000 "
    },
    "gasEstimates": {
      "creation": {
        "codeDepositCost": "115000",
        "executionCost": "159",
        "totalCost": "115159"
      },
      "external": {
        "getAmountPerLayer(uint256)": "infinite",
        "getPriceIncrementPerLayer(uint256)": "392"
      }
    },
    "methodIdentifiers": {
      "getAmountPerLayer(uint256)": "b96fb66b",
      "getPriceIncrementPerLayer(uint256)": "df5cc28c"
    }
  },
  "abi": [
    {
      "inputs": [
        {
          "internalType": "uint256",
          "name": "_soldAmount",
          "type": "uint256"
        }
      ],
      "name": "getAmountPerLayer",
      "outputs": [
        {
          "internalType": "uint256",
          "name": "",
          "type": "uint256"
        }
      ],
      "stateMutability": "pure",
      "type": "function"
    },
    {
      "inputs": [
        {
          "internalType": "uint256",
          "name": "_soldAmount",
          "type": "uint256"
        }
      ],
      "name": "getPriceIncrementPerLayer",
      "outputs": [
        {
          "internalType": "uint256",
          "name": "",
          "type": "uint256"
        }
      ],
      "stateMutability": "pure",
      "type": "function"
    }
  ]
}