{
	"data": {
		"bytecode": {
			"linkReferences": {},
			"object": "608060405234801561001057600080fd5b50600080546001600160a01b03191633179055611c69806100326000396000f3fe608060405234801561001057600080fd5b50600436106100365760003560e01c80631ad0b78c1461003b57806371c59d7b14610089575b600080fd5b61006d6004803603606081101561005157600080fd5b506001600160a01b0381351690602081013590604001356100af565b604080516001600160a01b039092168252519081900360200190f35b61006d6004803603602081101561009f57600080fd5b50356001600160a01b03166101ea565b6001600160a01b0383811660009081526001602052604081205490911615610115576040805162461bcd60e51b815260206004820152601460248201527322a9292fa0a62922a0a22cafa420a9afa820a4a960611b604482015290519081900360640190fd5b83838360405161012490610208565b6001600160a01b03909316835260208301919091526040808301919091525190819003606001906000f080158015610160573d6000803e3d6000fd5b506001600160a01b0385811660009081526001602052604080822080546001600160a01b031916938516938417905580516392eefe9b60e01b8152336004820152905193945091926392eefe9b92602480820193929182900301818387803b1580156101cb57600080fd5b505af11580156101df573d6000803e3d6000fd5b505050509392505050565b6001600160a01b039081166000908152600160205260409020541690565b611a1f806102168339019056fe608060405269021e19e0c9bab240000060105534801561001e57600080fd5b50604051611a1f380380611a1f8339818101604052606081101561004157600080fd5b508051602080830151604090930151600680546001600160a01b0385166001600160a01b031991821617909155600380549091163317905560048490559192919061009a90439062bebc20906112f661011c821b17901c565b600a5543600d55600f81111561011157604080517f08c379a000000000000000000000000000000000000000000000000000000000815260206004820152601060248201527f4552525f4f5645525f4d4158494d554d00000000000000000000000000000000604482015290519081900360640190fd5b600555506101979050565b60008282018381101561019057604080517f08c379a000000000000000000000000000000000000000000000000000000000815260206004820152601b60248201527f536166654d6174683a206164646974696f6e206f766572666c6f770000000000604482015290519081900360640190fd5b9392505050565b611879806101a66000396000f3fe608060405234801561001057600080fd5b50600436106101585760003560e01c806392eefe9b116100c3578063d28e218e1161007c578063d28e218e1461041f578063dd62ed3e146104e1578063e3161ddd1461050f578063e54c823414610517578063fd3f24f11461054b578063fd5de1f51461055357610158565b806392eefe9b1461032c57806395d89b4114610352578063a9059cbb1461035a578063aaab6a7414610386578063cd39e418146103c5578063cf33fc29146103eb57610158565b8063313ce56711610115578063313ce567146102a25780634d1bccb9146102c0578063519defce146102ee57806360f44861146102f657806370a08231146102fe5780638bc71ce11461032457610158565b806306fdde031461015d578063095ea7b3146101da57806318160ddd1461021a5780631f68c4831461023457806322a44ed71461023c57806323b872dd1461026c575b600080fd5b610165610579565b6040805160208082528351818301528351919283929083019185019080838360005b8381101561019f578181015183820152602001610187565b50505050905090810190601f1680156101cc5780820380516001836020036101000a031916815260200191505b509250505060405180910390f35b610206600480360360408110156101f057600080fd5b506001600160a01b0381351690602001356105a9565b604080519115158252519081900360200190f35b6102226105c0565b60408051918252519081900360200190f35b6102226105c6565b61026a6004803603604081101561025257600080fd5b508035151590602001356001600160a01b03166105cc565b005b6102066004803603606081101561028257600080fd5b506001600160a01b03813581169160208101359091169060400135610702565b6102aa61079c565b6040805160ff9092168252519081900360200190f35b610222600480360360408110156102d657600080fd5b508035151590602001356001600160a01b03166107a1565b61022261091d565b610222610923565b6102226004803603602081101561031457600080fd5b50356001600160a01b0316610929565b61022261093b565b61026a6004803603602081101561034257600080fd5b50356001600160a01b0316610941565b6101656109b8565b6102066004803603604081101561037057600080fd5b506001600160a01b0381351690602001356109d7565b6103ac6004803603602081101561039c57600080fd5b50356001600160a01b03166109e4565b6040805192835260208301919091528051918290030190f35b610206600480360360208110156103db57600080fd5b50356001600160a01b03166109fd565b61026a6004803603606081101561040157600080fd5b5080351515906001600160a01b036020820135169060400135610a1a565b61026a6004803603604081101561043557600080fd5b81019060208101813564010000000081111561045057600080fd5b82018360208201111561046257600080fd5b8035906020019184602083028401116401000000008311171561048457600080fd5b9193909290916020810190356401000000008111156104a257600080fd5b8201836020820111156104b457600080fd5b803590602001918460208302840111640100000000831117156104d657600080fd5b509092509050610a79565b610222600480360360408110156104f757600080fd5b506001600160a01b0381358116916020013516610e96565b61026a610eb3565b61026a6004803603606081101561052d57600080fd5b5080351515906001600160a01b036020820135169060400135611012565b61022261106c565b6103ac6004803603602081101561056957600080fd5b50356001600160a01b0316611072565b6040518060400160405280601481526020017326b2b931bab934ba3c902830b4b9102a37b5b2b760611b81525081565b60006105b633848461108b565b5060015b92915050565b60005481565b600b5481565b6000826105f0576001600160a01b0382166000908152600860205260409020610609565b6001600160a01b03821660009081526009602052604090205b9050821561066157600060055411610661576040805162461bcd60e51b815260206004820152601660248201527522a9292fa727afa3a82fa9a420a922afa922a6a0a4a760511b604482015290519081900360640190fd5b610669610eb3565b60008361067857600e5461067c565b600f545b8254909150156106da5760006106c583600101546106b96010546106ad8688600001546110ed90919063ffffffff16565b9063ffffffff61114d16565b9063ffffffff61118f16565b905080156106d8576106d83085836111d1565b505b60105482546106f491906106ad908463ffffffff6110ed16565b826001018190555050505050565b6001600160a01b038316600090815260026020908152604080832033845290915281205460001914610787576001600160a01b0384166000908152600260209081526040808320338452909152902054610762908363ffffffff61118f16565b6001600160a01b03851660009081526002602090815260408083203384529091529020555b6107928484846111d8565b5060019392505050565b601281565b600080836107c6576001600160a01b03831660009081526008602052604090206107df565b6001600160a01b03831660009081526009602052604090205b80549091506107f25760009150506105ba565b60008461080457600554606403610808565b6005545b905060008561081957600e5461081d565b600f545b905060008661082e57600c54610832565b600b545b9050600d544311801561084457508015155b156108ef576000600a54431061087057600d54600a546108699163ffffffff61118f16565b9050610887565b600d5461088490439063ffffffff61118f16565b90505b600061089e600454836110ed90919063ffffffff16565b600554909150156108c1576108be60646106ad838863ffffffff6110ed16565b90505b6108ea6108dd846106ad601054856110ed90919063ffffffff16565b859063ffffffff6112f616565b935050505b6001840154601054855461091292916106b9916106ad908763ffffffff6110ed16565b979650505050505050565b600d5481565b600c5481565b60016020526000908152604090205481565b600f5481565b6003546001600160a01b03163314610996576040805162461bcd60e51b81526020600482015260136024820152724552525f434f4e54524f4c4c45525f4f4e4c5960681b604482015290519081900360640190fd5b600380546001600160a01b0319166001600160a01b0392909216919091179055565b6040518060400160405280600381526020016213541560ea1b81525081565b60006105b63384846111d8565b6009602052600090815260409020805460019091015482565b6001600160a01b0316600090815260096020526040902054151590565b6006546001600160a01b03163314610a69576040805162461bcd60e51b815260206004820152600d60248201526c4552525f504f4f4c5f4f4e4c5960981b604482015290519081900360640190fd5b610a74838383611350565b505050565b6006546001600160a01b03163314610ac8576040805162461bcd60e51b815260206004820152600d60248201526c4552525f504f4f4c5f4f4e4c5960981b604482015290519081900360640190fd5b600060055411610b18576040805162461bcd60e51b815260206004820152601660248201527522a9292fa727afa3a82fa9a420a922afa922a6a0a4a760511b604482015290519081900360640190fd5b8215801590610b2657508281145b610b6b576040805162461bcd60e51b81526020600482015260116024820152704552525f494e56414c49445f504152414d60781b604482015290519081900360640190fd5b60005b83811015610d7057610b7e611809565b60096000878785818110610b8e57fe5b905060200201356001600160a01b03166001600160a01b03166001600160a01b03168152602001908152602001600020604051806040016040529081600082015481526020016001820154815250509050806000015160001415610c7e576020810151610c40576007868684818110610c0357fe5b835460018101855560009485526020948590200180546001600160a01b0319166001600160a01b0395909202939093013593909316929092179055505b610c796001878785818110610c5157fe5b905060200201356001600160a01b0316868686818110610c6d57fe5b90506020020135611350565b610d67565b838383818110610c8a57fe5b9050602002013581600001511115610cf3576000610cc4858585818110610cad57fe5b85519260209091020135905063ffffffff61118f16565b9050610ced6001888886818110610cd757fe5b905060200201356001600160a01b0316836114ef565b50610d67565b838383818110610cff57fe5b9050602002013581600001511015610d67576000610d3c8260000151868686818110610d2757fe5b9050602002013561118f90919063ffffffff16565b9050610d656001888886818110610d4f57fe5b905060200201356001600160a01b031683611350565b505b50600101610b6e565b5060005b600754811015610e8f57600160005b85811015610de95760078381548110610d9857fe5b6000918252602090912001546001600160a01b0316878783818110610db957fe5b905060200201356001600160a01b03166001600160a01b03161415610de15760009150610de9565b600101610d83565b508015610e8657610df8611809565b60096000888886818110610e0857fe5b905060200201356001600160a01b03166001600160a01b03166001600160a01b03168152602001908152602001600020604051806040016040529081600082015481526020016001820154815250509050610e846001888886818110610e6a57fe5b905060200201356001600160a01b031683600001516114ef565b505b50600101610d74565b5050505050565b600260209081526000928352604080842090915290825290205481565b600d5443111580610ec75750600a54600d54145b15610ed157611010565b600c541580610eed57506000600554118015610eed5750600b54155b15610efb5743600d55611010565b6000600a54431015610f2657600d54610f1b90439063ffffffff61118f16565b43600d559050610f44565b600d54600a54610f3b9163ffffffff61118f16565b600a54600d5590505b6000610f5b600454836110ed90919063ffffffff16565b9050610f668161168a565b600060055460001415610f7a575080610fdc565b6000610f9660646106ad600554866110ed90919063ffffffff16565b9050610fc5610fb6600b546106ad601054856110ed90919063ffffffff16565b600f549063ffffffff6112f616565b600f55610fd8838263ffffffff61118f16565b9150505b611009610ffa600c546106ad601054856110ed90919063ffffffff16565b600e549063ffffffff6112f616565b600e555050505b565b6006546001600160a01b03163314611061576040805162461bcd60e51b815260206004820152600d60248201526c4552525f504f4f4c5f4f4e4c5960981b604482015290519081900360640190fd5b610a748383836114ef565b600e5481565b6008602052600090815260409020805460019091015482565b6001600160a01b03808416600081815260026020908152604080832094871680845294825291829020859055815185815291517f8c5be1e5ebec7d5bd14f71427d1e84f3dd0314c0f7b2291e5b200ac8c7c3b9259281900390910190a3505050565b6000826110fc575060006105ba565b8282028284828161110957fe5b04146111465760405162461bcd60e51b81526004018080602001828103825260218152602001806118246021913960400191505060405180910390fd5b9392505050565b600061114683836040518060400160405280601a81526020017f536166654d6174683a206469766973696f6e206279207a65726f00000000000081525061170d565b600061114683836040518060400160405280601e81526020017f536166654d6174683a207375627472616374696f6e206f766572666c6f7700008152506117af565b610a748383835b6001600160a01b03831660009081526001602052604090205481111561123c576040805162461bcd60e51b815260206004820152601460248201527311549497d25394d551919250d251539517d0905360621b604482015290519081900360640190fd5b6001600160a01b038316600090815260016020526040902054611265908263ffffffff61118f16565b6001600160a01b03808516600090815260016020526040808220939093559084168152205461129a908263ffffffff6112f616565b6001600160a01b0380841660008181526001602090815260409182902094909455805185815290519193928716927fddf252ad1be2c89b69c2b068fc378daa952ba7f163c4a11628f55a4df523b3ef92918290030190a3505050565b600082820183811015611146576040805162461bcd60e51b815260206004820152601b60248201527f536166654d6174683a206164646974696f6e206f766572666c6f770000000000604482015290519081900360640190fd5b600083611374576001600160a01b038316600090815260086020526040902061138d565b6001600160a01b03831660009081526009602052604090205b905083156113e5576000600554116113e5576040805162461bcd60e51b815260206004820152601660248201527522a9292fa727afa3a82fa9a420a922afa922a6a0a4a760511b604482015290519081900360640190fd5b6113ed610eb3565b6000846113fc57600e54611400565b600f545b82549091501561144657600061143183600101546106b96010546106ad8688600001546110ed90919063ffffffff16565b90508015611444576114443086836111d1565b505b82156114c657815461145e908463ffffffff6112f616565b82558461147457600c805484019081905561147f565b600b80548401908190555b506040805186151581526020810185905281516001600160a01b038716927fbb923fc4db468afb79d2c63dac757022d536efbd65af7a9b7a5d6ed328393306928290030190a25b60105482546114e091906106ad908463ffffffff6110ed16565b82600101819055505050505050565b600083611513576001600160a01b038316600090815260086020526040902061152c565b6001600160a01b03831660009081526009602052604090205b90508181600001541015611587576040805162461bcd60e51b815260206004820152601f60248201527f4552525f554e4445525f57495448445241575f414d4f554e545f4c494d495400604482015290519081900360640190fd5b61158f610eb3565b60008461159e57600e546115a2565b600f545b905060006115cb83600101546106b96010546106ad8688600001546110ed90919063ffffffff16565b905080156115de576115de3086836111d1565b83156116605782546115f6908563ffffffff61118f16565b83558561160d57600c805485900390819055611619565b600b8054859003908190555b506040805187151581526020810186905281516001600160a01b038816927f171a466754afbbdce4dc1ab85f822d6767825c31a83b1113cc18bc97ddbfed22928290030190a25b601054835461167a91906106ad908563ffffffff6110ed16565b8360010181905550505050505050565b60005461169d908263ffffffff6112f616565b6000908155308152600160205260409020546116bf908263ffffffff6112f616565b3060008181526001602090815260408083209490945583518581529351929391927fddf252ad1be2c89b69c2b068fc378daa952ba7f163c4a11628f55a4df523b3ef9281900390910190a350565b600081836117995760405162461bcd60e51b81526004018080602001828103825283818151815260200191508051906020019080838360005b8381101561175e578181015183820152602001611746565b50505050905090810190601f16801561178b5780820380516001836020036101000a031916815260200191505b509250505060405180910390fd5b5060008385816117a557fe5b0495945050505050565b600081848411156118015760405162461bcd60e51b815260206004820181815283516024840152835190928392604490910191908501908083836000831561175e578181015183820152602001611746565b505050900390565b60405180604001604052806000815260200160008152509056fe536166654d6174683a206d756c7469706c69636174696f6e206f766572666c6f77a265627a7a72315820b88ba373ed83426027150b84e2c9f8fb5b0fac143537c415a2fb721d9876b94464736f6c634300050c0032a265627a7a723158205a80b6cb1bbc805a8a2fb5e2a8303a4d0ff089d81a423df4f1dbabd28350537464736f6c634300050c0032",
			"opcodes": "PUSH1 0x80 PUSH1 0x40 MSTORE CALLVALUE DUP1 ISZERO PUSH2 0x10 JUMPI PUSH1 0x0 DUP1 REVERT JUMPDEST POP PUSH1 0x0 DUP1 SLOAD PUSH1 0x1 PUSH1 0x1 PUSH1 0xA0 SHL SUB NOT AND CALLER OR SWAP1 SSTORE PUSH2 0x1C69 DUP1 PUSH2 0x32 PUSH1 0x0 CODECOPY PUSH1 0x0 RETURN INVALID PUSH1 0x80 PUSH1 0x40 MSTORE CALLVALUE DUP1 ISZERO PUSH2 0x10 JUMPI PUSH1 0x0 DUP1 REVERT JUMPDEST POP PUSH1 0x4 CALLDATASIZE LT PUSH2 0x36 JUMPI PUSH1 0x0 CALLDATALOAD PUSH1 0xE0 SHR DUP1 PUSH4 0x1AD0B78C EQ PUSH2 0x3B JUMPI DUP1 PUSH4 0x71C59D7B EQ PUSH2 0x89 JUMPI JUMPDEST PUSH1 0x0 DUP1 REVERT JUMPDEST PUSH2 0x6D PUSH1 0x4 DUP1 CALLDATASIZE SUB PUSH1 0x60 DUP2 LT ISZERO PUSH2 0x51 JUMPI PUSH1 0x0 DUP1 REVERT JUMPDEST POP PUSH1 0x1 PUSH1 0x1 PUSH1 0xA0 SHL SUB DUP2 CALLDATALOAD AND SWAP1 PUSH1 0x20 DUP2 ADD CALLDATALOAD SWAP1 PUSH1 0x40 ADD CALLDATALOAD PUSH2 0xAF JUMP JUMPDEST PUSH1 0x40 DUP1 MLOAD PUSH1 0x1 PUSH1 0x1 PUSH1 0xA0 SHL SUB SWAP1 SWAP3 AND DUP3 MSTORE MLOAD SWAP1 DUP2 SWAP1 SUB PUSH1 0x20 ADD SWAP1 RETURN JUMPDEST PUSH2 0x6D PUSH1 0x4 DUP1 CALLDATASIZE SUB PUSH1 0x20 DUP2 LT ISZERO PUSH2 0x9F JUMPI PUSH1 0x0 DUP1 REVERT JUMPDEST POP CALLDATALOAD PUSH1 0x1 PUSH1 0x1 PUSH1 0xA0 SHL SUB AND PUSH2 0x1EA JUMP JUMPDEST PUSH1 0x1 PUSH1 0x1 PUSH1 0xA0 SHL SUB DUP4 DUP2 AND PUSH1 0x0 SWAP1 DUP2 MSTORE PUSH1 0x1 PUSH1 0x20 MSTORE PUSH1 0x40 DUP2 KECCAK256 SLOAD SWAP1 SWAP2 AND ISZERO PUSH2 0x115 JUMPI PUSH1 0x40 DUP1 MLOAD PUSH3 0x461BCD PUSH1 0xE5 SHL DUP2 MSTORE PUSH1 0x20 PUSH1 0x4 DUP3 ADD MSTORE PUSH1 0x14 PUSH1 0x24 DUP3 ADD MSTORE PUSH20 0x22A9292FA0A62922A0A22CAFA420A9AFA820A4A9 PUSH1 0x61 SHL PUSH1 0x44 DUP3 ADD MSTORE SWAP1 MLOAD SWAP1 DUP2 SWAP1 SUB PUSH1 0x64 ADD SWAP1 REVERT JUMPDEST DUP4 DUP4 DUP4 PUSH1 0x40 MLOAD PUSH2 0x124 SWAP1 PUSH2 0x208 JUMP JUMPDEST PUSH1 0x1 PUSH1 0x1 PUSH1 0xA0 SHL SUB SWAP1 SWAP4 AND DUP4 MSTORE PUSH1 0x20 DUP4 ADD SWAP2 SWAP1 SWAP2 MSTORE PUSH1 0x40 DUP1 DUP4 ADD SWAP2 SWAP1 SWAP2 MSTORE MLOAD SWAP1 DUP2 SWAP1 SUB PUSH1 0x60 ADD SWAP1 PUSH1 0x0 CREATE DUP1 ISZERO DUP1 ISZERO PUSH2 0x160 JUMPI RETURNDATASIZE PUSH1 0x0 DUP1 RETURNDATACOPY RETURNDATASIZE PUSH1 0x0 REVERT JUMPDEST POP PUSH1 0x1 PUSH1 0x1 PUSH1 0xA0 SHL SUB DUP6 DUP2 AND PUSH1 0x0 SWAP1 DUP2 MSTORE PUSH1 0x1 PUSH1 0x20 MSTORE PUSH1 0x40 DUP1 DUP3 KECCAK256 DUP1 SLOAD PUSH1 0x1 PUSH1 0x1 PUSH1 0xA0 SHL SUB NOT AND SWAP4 DUP6 AND SWAP4 DUP5 OR SWAP1 SSTORE DUP1 MLOAD PUSH4 0x92EEFE9B PUSH1 0xE0 SHL DUP2 MSTORE CALLER PUSH1 0x4 DUP3 ADD MSTORE SWAP1 MLOAD SWAP4 SWAP5 POP SWAP2 SWAP3 PUSH4 0x92EEFE9B SWAP3 PUSH1 0x24 DUP1 DUP3 ADD SWAP4 SWAP3 SWAP2 DUP3 SWAP1 SUB ADD DUP2 DUP4 DUP8 DUP1 EXTCODESIZE ISZERO DUP1 ISZERO PUSH2 0x1CB JUMPI PUSH1 0x0 DUP1 REVERT JUMPDEST POP GAS CALL ISZERO DUP1 ISZERO PUSH2 0x1DF JUMPI RETURNDATASIZE PUSH1 0x0 DUP1 RETURNDATACOPY RETURNDATASIZE PUSH1 0x0 REVERT JUMPDEST POP POP POP POP SWAP4 SWAP3 POP POP POP JUMP JUMPDEST PUSH1 0x1 PUSH1 0x1 PUSH1 0xA0 SHL SUB SWAP1 DUP2 AND PUSH1 0x0 SWAP1 DUP2 MSTORE PUSH1 0x1 PUSH1 0x20 MSTORE PUSH1 0x40 SWAP1 KECCAK256 SLOAD AND SWAP1 JUMP JUMPDEST PUSH2 0x1A1F DUP1 PUSH2 0x216 DUP4 CODECOPY ADD SWAP1 JUMP INVALID PUSH1 0x80 PUSH1 0x40 MSTORE PUSH10 0x21E19E0C9BAB2400000 PUSH1 0x10 SSTORE CALLVALUE DUP1 ISZERO PUSH2 0x1E JUMPI PUSH1 0x0 DUP1 REVERT JUMPDEST POP PUSH1 0x40 MLOAD PUSH2 0x1A1F CODESIZE SUB DUP1 PUSH2 0x1A1F DUP4 CODECOPY DUP2 DUP2 ADD PUSH1 0x40 MSTORE PUSH1 0x60 DUP2 LT ISZERO PUSH2 0x41 JUMPI PUSH1 0x0 DUP1 REVERT JUMPDEST POP DUP1 MLOAD PUSH1 0x20 DUP1 DUP4 ADD MLOAD PUSH1 0x40 SWAP1 SWAP4 ADD MLOAD PUSH1 0x6 DUP1 SLOAD PUSH1 0x1 PUSH1 0x1 PUSH1 0xA0 SHL SUB DUP6 AND PUSH1 0x1 PUSH1 0x1 PUSH1 0xA0 SHL SUB NOT SWAP2 DUP3 AND OR SWAP1 SWAP2 SSTORE PUSH1 0x3 DUP1 SLOAD SWAP1 SWAP2 AND CALLER OR SWAP1 SSTORE PUSH1 0x4 DUP5 SWAP1 SSTORE SWAP2 SWAP3 SWAP2 SWAP1 PUSH2 0x9A SWAP1 NUMBER SWAP1 PUSH3 0xBEBC20 SWAP1 PUSH2 0x12F6 PUSH2 0x11C DUP3 SHL OR SWAP1 SHR JUMP JUMPDEST PUSH1 0xA SSTORE NUMBER PUSH1 0xD SSTORE PUSH1 0xF DUP2 GT ISZERO PUSH2 0x111 JUMPI PUSH1 0x40 DUP1 MLOAD PUSH32 0x8C379A000000000000000000000000000000000000000000000000000000000 DUP2 MSTORE PUSH1 0x20 PUSH1 0x4 DUP3 ADD MSTORE PUSH1 0x10 PUSH1 0x24 DUP3 ADD MSTORE PUSH32 0x4552525F4F5645525F4D4158494D554D00000000000000000000000000000000 PUSH1 0x44 DUP3 ADD MSTORE SWAP1 MLOAD SWAP1 DUP2 SWAP1 SUB PUSH1 0x64 ADD SWAP1 REVERT JUMPDEST PUSH1 0x5 SSTORE POP PUSH2 0x197 SWAP1 POP JUMP JUMPDEST PUSH1 0x0 DUP3 DUP3 ADD DUP4 DUP2 LT ISZERO PUSH2 0x190 JUMPI PUSH1 0x40 DUP1 MLOAD PUSH32 0x8C379A000000000000000000000000000000000000000000000000000000000 DUP2 MSTORE PUSH1 0x20 PUSH1 0x4 DUP3 ADD MSTORE PUSH1 0x1B PUSH1 0x24 DUP3 ADD MSTORE PUSH32 0x536166654D6174683A206164646974696F6E206F766572666C6F770000000000 PUSH1 0x44 DUP3 ADD MSTORE SWAP1 MLOAD SWAP1 DUP2 SWAP1 SUB PUSH1 0x64 ADD SWAP1 REVERT JUMPDEST SWAP4 SWAP3 POP POP POP JUMP JUMPDEST PUSH2 0x1879 DUP1 PUSH2 0x1A6 PUSH1 0x0 CODECOPY PUSH1 0x0 RETURN INVALID PUSH1 0x80 PUSH1 0x40 MSTORE CALLVALUE DUP1 ISZERO PUSH2 0x10 JUMPI PUSH1 0x0 DUP1 REVERT JUMPDEST POP PUSH1 0x4 CALLDATASIZE LT PUSH2 0x158 JUMPI PUSH1 0x0 CALLDATALOAD PUSH1 0xE0 SHR DUP1 PUSH4 0x92EEFE9B GT PUSH2 0xC3 JUMPI DUP1 PUSH4 0xD28E218E GT PUSH2 0x7C JUMPI DUP1 PUSH4 0xD28E218E EQ PUSH2 0x41F JUMPI DUP1 PUSH4 0xDD62ED3E EQ PUSH2 0x4E1 JUMPI DUP1 PUSH4 0xE3161DDD EQ PUSH2 0x50F JUMPI DUP1 PUSH4 0xE54C8234 EQ PUSH2 0x517 JUMPI DUP1 PUSH4 0xFD3F24F1 EQ PUSH2 0x54B JUMPI DUP1 PUSH4 0xFD5DE1F5 EQ PUSH2 0x553 JUMPI PUSH2 0x158 JUMP JUMPDEST DUP1 PUSH4 0x92EEFE9B EQ PUSH2 0x32C JUMPI DUP1 PUSH4 0x95D89B41 EQ PUSH2 0x352 JUMPI DUP1 PUSH4 0xA9059CBB EQ PUSH2 0x35A JUMPI DUP1 PUSH4 0xAAAB6A74 EQ PUSH2 0x386 JUMPI DUP1 PUSH4 0xCD39E418 EQ PUSH2 0x3C5 JUMPI DUP1 PUSH4 0xCF33FC29 EQ PUSH2 0x3EB JUMPI PUSH2 0x158 JUMP JUMPDEST DUP1 PUSH4 0x313CE567 GT PUSH2 0x115 JUMPI DUP1 PUSH4 0x313CE567 EQ PUSH2 0x2A2 JUMPI DUP1 PUSH4 0x4D1BCCB9 EQ PUSH2 0x2C0 JUMPI DUP1 PUSH4 0x519DEFCE EQ PUSH2 0x2EE JUMPI DUP1 PUSH4 0x60F44861 EQ PUSH2 0x2F6 JUMPI DUP1 PUSH4 0x70A08231 EQ PUSH2 0x2FE JUMPI DUP1 PUSH4 0x8BC71CE1 EQ PUSH2 0x324 JUMPI PUSH2 0x158 JUMP JUMPDEST DUP1 PUSH4 0x6FDDE03 EQ PUSH2 0x15D JUMPI DUP1 PUSH4 0x95EA7B3 EQ PUSH2 0x1DA JUMPI DUP1 PUSH4 0x18160DDD EQ PUSH2 0x21A JUMPI DUP1 PUSH4 0x1F68C483 EQ PUSH2 0x234 JUMPI DUP1 PUSH4 0x22A44ED7 EQ PUSH2 0x23C JUMPI DUP1 PUSH4 0x23B872DD EQ PUSH2 0x26C JUMPI JUMPDEST PUSH1 0x0 DUP1 REVERT JUMPDEST PUSH2 0x165 PUSH2 0x579 JUMP JUMPDEST PUSH1 0x40 DUP1 MLOAD PUSH1 0x20 DUP1 DUP3 MSTORE DUP4 MLOAD DUP2 DUP4 ADD MSTORE DUP4 MLOAD SWAP2 SWAP3 DUP4 SWAP3 SWAP1 DUP4 ADD SWAP2 DUP6 ADD SWAP1 DUP1 DUP4 DUP4 PUSH1 0x0 JUMPDEST DUP4 DUP2 LT ISZERO PUSH2 0x19F JUMPI DUP2 DUP2 ADD MLOAD DUP4 DUP3 ADD MSTORE PUSH1 0x20 ADD PUSH2 0x187 JUMP JUMPDEST POP POP POP POP SWAP1 POP SWAP1 DUP2 ADD SWAP1 PUSH1 0x1F AND DUP1 ISZERO PUSH2 0x1CC JUMPI DUP1 DUP3 SUB DUP1 MLOAD PUSH1 0x1 DUP4 PUSH1 0x20 SUB PUSH2 0x100 EXP SUB NOT AND DUP2 MSTORE PUSH1 0x20 ADD SWAP2 POP JUMPDEST POP SWAP3 POP POP POP PUSH1 0x40 MLOAD DUP1 SWAP2 SUB SWAP1 RETURN JUMPDEST PUSH2 0x206 PUSH1 0x4 DUP1 CALLDATASIZE SUB PUSH1 0x40 DUP2 LT ISZERO PUSH2 0x1F0 JUMPI PUSH1 0x0 DUP1 REVERT JUMPDEST POP PUSH1 0x1 PUSH1 0x1 PUSH1 0xA0 SHL SUB DUP2 CALLDATALOAD AND SWAP1 PUSH1 0x20 ADD CALLDATALOAD PUSH2 0x5A9 JUMP JUMPDEST PUSH1 0x40 DUP1 MLOAD SWAP2 ISZERO ISZERO DUP3 MSTORE MLOAD SWAP1 DUP2 SWAP1 SUB PUSH1 0x20 ADD SWAP1 RETURN JUMPDEST PUSH2 0x222 PUSH2 0x5C0 JUMP JUMPDEST PUSH1 0x40 DUP1 MLOAD SWAP2 DUP3 MSTORE MLOAD SWAP1 DUP2 SWAP1 SUB PUSH1 0x20 ADD SWAP1 RETURN JUMPDEST PUSH2 0x222 PUSH2 0x5C6 JUMP JUMPDEST PUSH2 0x26A PUSH1 0x4 DUP1 CALLDATASIZE SUB PUSH1 0x40 DUP2 LT ISZERO PUSH2 0x252 JUMPI PUSH1 0x0 DUP1 REVERT JUMPDEST POP DUP1 CALLDATALOAD ISZERO ISZERO SWAP1 PUSH1 0x20 ADD CALLDATALOAD PUSH1 0x1 PUSH1 0x1 PUSH1 0xA0 SHL SUB AND PUSH2 0x5CC JUMP JUMPDEST STOP JUMPDEST PUSH2 0x206 PUSH1 0x4 DUP1 CALLDATASIZE SUB PUSH1 0x60 DUP2 LT ISZERO PUSH2 0x282 JUMPI PUSH1 0x0 DUP1 REVERT JUMPDEST POP PUSH1 0x1 PUSH1 0x1 PUSH1 0xA0 SHL SUB DUP2 CALLDATALOAD DUP2 AND SWAP2 PUSH1 0x20 DUP2 ADD CALLDATALOAD SWAP1 SWAP2 AND SWAP1 PUSH1 0x40 ADD CALLDATALOAD PUSH2 0x702 JUMP JUMPDEST PUSH2 0x2AA PUSH2 0x79C JUMP JUMPDEST PUSH1 0x40 DUP1 MLOAD PUSH1 0xFF SWAP1 SWAP3 AND DUP3 MSTORE MLOAD SWAP1 DUP2 SWAP1 SUB PUSH1 0x20 ADD SWAP1 RETURN JUMPDEST PUSH2 0x222 PUSH1 0x4 DUP1 CALLDATASIZE SUB PUSH1 0x40 DUP2 LT ISZERO PUSH2 0x2D6 JUMPI PUSH1 0x0 DUP1 REVERT JUMPDEST POP DUP1 CALLDATALOAD ISZERO ISZERO SWAP1 PUSH1 0x20 ADD CALLDATALOAD PUSH1 0x1 PUSH1 0x1 PUSH1 0xA0 SHL SUB AND PUSH2 0x7A1 JUMP JUMPDEST PUSH2 0x222 PUSH2 0x91D JUMP JUMPDEST PUSH2 0x222 PUSH2 0x923 JUMP JUMPDEST PUSH2 0x222 PUSH1 0x4 DUP1 CALLDATASIZE SUB PUSH1 0x20 DUP2 LT ISZERO PUSH2 0x314 JUMPI PUSH1 0x0 DUP1 REVERT JUMPDEST POP CALLDATALOAD PUSH1 0x1 PUSH1 0x1 PUSH1 0xA0 SHL SUB AND PUSH2 0x929 JUMP JUMPDEST PUSH2 0x222 PUSH2 0x93B JUMP JUMPDEST PUSH2 0x26A PUSH1 0x4 DUP1 CALLDATASIZE SUB PUSH1 0x20 DUP2 LT ISZERO PUSH2 0x342 JUMPI PUSH1 0x0 DUP1 REVERT JUMPDEST POP CALLDATALOAD PUSH1 0x1 PUSH1 0x1 PUSH1 0xA0 SHL SUB AND PUSH2 0x941 JUMP JUMPDEST PUSH2 0x165 PUSH2 0x9B8 JUMP JUMPDEST PUSH2 0x206 PUSH1 0x4 DUP1 CALLDATASIZE SUB PUSH1 0x40 DUP2 LT ISZERO PUSH2 0x370 JUMPI PUSH1 0x0 DUP1 REVERT JUMPDEST POP PUSH1 0x1 PUSH1 0x1 PUSH1 0xA0 SHL SUB DUP2 CALLDATALOAD AND SWAP1 PUSH1 0x20 ADD CALLDATALOAD PUSH2 0x9D7 JUMP JUMPDEST PUSH2 0x3AC PUSH1 0x4 DUP1 CALLDATASIZE SUB PUSH1 0x20 DUP2 LT ISZERO PUSH2 0x39C JUMPI PUSH1 0x0 DUP1 REVERT JUMPDEST POP CALLDATALOAD PUSH1 0x1 PUSH1 0x1 PUSH1 0xA0 SHL SUB AND PUSH2 0x9E4 JUMP JUMPDEST PUSH1 0x40 DUP1 MLOAD SWAP3 DUP4 MSTORE PUSH1 0x20 DUP4 ADD SWAP2 SWAP1 SWAP2 MSTORE DUP1 MLOAD SWAP2 DUP3 SWAP1 SUB ADD SWAP1 RETURN JUMPDEST PUSH2 0x206 PUSH1 0x4 DUP1 CALLDATASIZE SUB PUSH1 0x20 DUP2 LT ISZERO PUSH2 0x3DB JUMPI PUSH1 0x0 DUP1 REVERT JUMPDEST POP CALLDATALOAD PUSH1 0x1 PUSH1 0x1 PUSH1 0xA0 SHL SUB AND PUSH2 0x9FD JUMP JUMPDEST PUSH2 0x26A PUSH1 0x4 DUP1 CALLDATASIZE SUB PUSH1 0x60 DUP2 LT ISZERO PUSH2 0x401 JUMPI PUSH1 0x0 DUP1 REVERT JUMPDEST POP DUP1 CALLDATALOAD ISZERO ISZERO SWAP1 PUSH1 0x1 PUSH1 0x1 PUSH1 0xA0 SHL SUB PUSH1 0x20 DUP3 ADD CALLDATALOAD AND SWAP1 PUSH1 0x40 ADD CALLDATALOAD PUSH2 0xA1A JUMP JUMPDEST PUSH2 0x26A PUSH1 0x4 DUP1 CALLDATASIZE SUB PUSH1 0x40 DUP2 LT ISZERO PUSH2 0x435 JUMPI PUSH1 0x0 DUP1 REVERT JUMPDEST DUP2 ADD SWAP1 PUSH1 0x20 DUP2 ADD DUP2 CALLDATALOAD PUSH5 0x100000000 DUP2 GT ISZERO PUSH2 0x450 JUMPI PUSH1 0x0 DUP1 REVERT JUMPDEST DUP3 ADD DUP4 PUSH1 0x20 DUP3 ADD GT ISZERO PUSH2 0x462 JUMPI PUSH1 0x0 DUP1 REVERT JUMPDEST DUP1 CALLDATALOAD SWAP1 PUSH1 0x20 ADD SWAP2 DUP5 PUSH1 0x20 DUP4 MUL DUP5 ADD GT PUSH5 0x100000000 DUP4 GT OR ISZERO PUSH2 0x484 JUMPI PUSH1 0x0 DUP1 REVERT JUMPDEST SWAP2 SWAP4 SWAP1 SWAP3 SWAP1 SWAP2 PUSH1 0x20 DUP2 ADD SWAP1 CALLDATALOAD PUSH5 0x100000000 DUP2 GT ISZERO PUSH2 0x4A2 JUMPI PUSH1 0x0 DUP1 REVERT JUMPDEST DUP3 ADD DUP4 PUSH1 0x20 DUP3 ADD GT ISZERO PUSH2 0x4B4 JUMPI PUSH1 0x0 DUP1 REVERT JUMPDEST DUP1 CALLDATALOAD SWAP1 PUSH1 0x20 ADD SWAP2 DUP5 PUSH1 0x20 DUP4 MUL DUP5 ADD GT PUSH5 0x100000000 DUP4 GT OR ISZERO PUSH2 0x4D6 JUMPI PUSH1 0x0 DUP1 REVERT JUMPDEST POP SWAP1 SWAP3 POP SWAP1 POP PUSH2 0xA79 JUMP JUMPDEST PUSH2 0x222 PUSH1 0x4 DUP1 CALLDATASIZE SUB PUSH1 0x40 DUP2 LT ISZERO PUSH2 0x4F7 JUMPI PUSH1 0x0 DUP1 REVERT JUMPDEST POP PUSH1 0x1 PUSH1 0x1 PUSH1 0xA0 SHL SUB DUP2 CALLDATALOAD DUP2 AND SWAP2 PUSH1 0x20 ADD CALLDATALOAD AND PUSH2 0xE96 JUMP JUMPDEST PUSH2 0x26A PUSH2 0xEB3 JUMP JUMPDEST PUSH2 0x26A PUSH1 0x4 DUP1 CALLDATASIZE SUB PUSH1 0x60 DUP2 LT ISZERO PUSH2 0x52D JUMPI PUSH1 0x0 DUP1 REVERT JUMPDEST POP DUP1 CALLDATALOAD ISZERO ISZERO SWAP1 PUSH1 0x1 PUSH1 0x1 PUSH1 0xA0 SHL SUB PUSH1 0x20 DUP3 ADD CALLDATALOAD AND SWAP1 PUSH1 0x40 ADD CALLDATALOAD PUSH2 0x1012 JUMP JUMPDEST PUSH2 0x222 PUSH2 0x106C JUMP JUMPDEST PUSH2 0x3AC PUSH1 0x4 DUP1 CALLDATASIZE SUB PUSH1 0x20 DUP2 LT ISZERO PUSH2 0x569 JUMPI PUSH1 0x0 DUP1 REVERT JUMPDEST POP CALLDATALOAD PUSH1 0x1 PUSH1 0x1 PUSH1 0xA0 SHL SUB AND PUSH2 0x1072 JUMP JUMPDEST PUSH1 0x40 MLOAD DUP1 PUSH1 0x40 ADD PUSH1 0x40 MSTORE DUP1 PUSH1 0x14 DUP2 MSTORE PUSH1 0x20 ADD PUSH20 0x26B2B931BAB934BA3C902830B4B9102A37B5B2B7 PUSH1 0x61 SHL DUP2 MSTORE POP DUP2 JUMP JUMPDEST PUSH1 0x0 PUSH2 0x5B6 CALLER DUP5 DUP5 PUSH2 0x108B JUMP JUMPDEST POP PUSH1 0x1 JUMPDEST SWAP3 SWAP2 POP POP JUMP JUMPDEST PUSH1 0x0 SLOAD DUP2 JUMP JUMPDEST PUSH1 0xB SLOAD DUP2 JUMP JUMPDEST PUSH1 0x0 DUP3 PUSH2 0x5F0 JUMPI PUSH1 0x1 PUSH1 0x1 PUSH1 0xA0 SHL SUB DUP3 AND PUSH1 0x0 SWAP1 DUP2 MSTORE PUSH1 0x8 PUSH1 0x20 MSTORE PUSH1 0x40 SWAP1 KECCAK256 PUSH2 0x609 JUMP JUMPDEST PUSH1 0x1 PUSH1 0x1 PUSH1 0xA0 SHL SUB DUP3 AND PUSH1 0x0 SWAP1 DUP2 MSTORE PUSH1 0x9 PUSH1 0x20 MSTORE PUSH1 0x40 SWAP1 KECCAK256 JUMPDEST SWAP1 POP DUP3 ISZERO PUSH2 0x661 JUMPI PUSH1 0x0 PUSH1 0x5 SLOAD GT PUSH2 0x661 JUMPI PUSH1 0x40 DUP1 MLOAD PUSH3 0x461BCD PUSH1 0xE5 SHL DUP2 MSTORE PUSH1 0x20 PUSH1 0x4 DUP3 ADD MSTORE PUSH1 0x16 PUSH1 0x24 DUP3 ADD MSTORE PUSH22 0x22A9292FA727AFA3A82FA9A420A922AFA922A6A0A4A7 PUSH1 0x51 SHL PUSH1 0x44 DUP3 ADD MSTORE SWAP1 MLOAD SWAP1 DUP2 SWAP1 SUB PUSH1 0x64 ADD SWAP1 REVERT JUMPDEST PUSH2 0x669 PUSH2 0xEB3 JUMP JUMPDEST PUSH1 0x0 DUP4 PUSH2 0x678 JUMPI PUSH1 0xE SLOAD PUSH2 0x67C JUMP JUMPDEST PUSH1 0xF SLOAD JUMPDEST DUP3 SLOAD SWAP1 SWAP2 POP ISZERO PUSH2 0x6DA JUMPI PUSH1 0x0 PUSH2 0x6C5 DUP4 PUSH1 0x1 ADD SLOAD PUSH2 0x6B9 PUSH1 0x10 SLOAD PUSH2 0x6AD DUP7 DUP9 PUSH1 0x0 ADD SLOAD PUSH2 0x10ED SWAP1 SWAP2 SWAP1 PUSH4 0xFFFFFFFF AND JUMP JUMPDEST SWAP1 PUSH4 0xFFFFFFFF PUSH2 0x114D AND JUMP JUMPDEST SWAP1 PUSH4 0xFFFFFFFF PUSH2 0x118F AND JUMP JUMPDEST SWAP1 POP DUP1 ISZERO PUSH2 0x6D8 JUMPI PUSH2 0x6D8 ADDRESS DUP6 DUP4 PUSH2 0x11D1 JUMP JUMPDEST POP JUMPDEST PUSH1 0x10 SLOAD DUP3 SLOAD PUSH2 0x6F4 SWAP2 SWAP1 PUSH2 0x6AD SWAP1 DUP5 PUSH4 0xFFFFFFFF PUSH2 0x10ED AND JUMP JUMPDEST DUP3 PUSH1 0x1 ADD DUP2 SWAP1 SSTORE POP POP POP POP POP JUMP JUMPDEST PUSH1 0x1 PUSH1 0x1 PUSH1 0xA0 SHL SUB DUP4 AND PUSH1 0x0 SWAP1 DUP2 MSTORE PUSH1 0x2 PUSH1 0x20 SWAP1 DUP2 MSTORE PUSH1 0x40 DUP1 DUP4 KECCAK256 CALLER DUP5 MSTORE SWAP1 SWAP2 MSTORE DUP2 KECCAK256 SLOAD PUSH1 0x0 NOT EQ PUSH2 0x787 JUMPI PUSH1 0x1 PUSH1 0x1 PUSH1 0xA0 SHL SUB DUP5 AND PUSH1 0x0 SWAP1 DUP2 MSTORE PUSH1 0x2 PUSH1 0x20 SWAP1 DUP2 MSTORE PUSH1 0x40 DUP1 DUP4 KECCAK256 CALLER DUP5 MSTORE SWAP1 SWAP2 MSTORE SWAP1 KECCAK256 SLOAD PUSH2 0x762 SWAP1 DUP4 PUSH4 0xFFFFFFFF PUSH2 0x118F AND JUMP JUMPDEST PUSH1 0x1 PUSH1 0x1 PUSH1 0xA0 SHL SUB DUP6 AND PUSH1 0x0 SWAP1 DUP2 MSTORE PUSH1 0x2 PUSH1 0x20 SWAP1 DUP2 MSTORE PUSH1 0x40 DUP1 DUP4 KECCAK256 CALLER DUP5 MSTORE SWAP1 SWAP2 MSTORE SWAP1 KECCAK256 SSTORE JUMPDEST PUSH2 0x792 DUP5 DUP5 DUP5 PUSH2 0x11D8 JUMP JUMPDEST POP PUSH1 0x1 SWAP4 SWAP3 POP POP POP JUMP JUMPDEST PUSH1 0x12 DUP2 JUMP JUMPDEST PUSH1 0x0 DUP1 DUP4 PUSH2 0x7C6 JUMPI PUSH1 0x1 PUSH1 0x1 PUSH1 0xA0 SHL SUB DUP4 AND PUSH1 0x0 SWAP1 DUP2 MSTORE PUSH1 0x8 PUSH1 0x20 MSTORE PUSH1 0x40 SWAP1 KECCAK256 PUSH2 0x7DF JUMP JUMPDEST PUSH1 0x1 PUSH1 0x1 PUSH1 0xA0 SHL SUB DUP4 AND PUSH1 0x0 SWAP1 DUP2 MSTORE PUSH1 0x9 PUSH1 0x20 MSTORE PUSH1 0x40 SWAP1 KECCAK256 JUMPDEST DUP1 SLOAD SWAP1 SWAP2 POP PUSH2 0x7F2 JUMPI PUSH1 0x0 SWAP2 POP POP PUSH2 0x5BA JUMP JUMPDEST PUSH1 0x0 DUP5 PUSH2 0x804 JUMPI PUSH1 0x5 SLOAD PUSH1 0x64 SUB PUSH2 0x808 JUMP JUMPDEST PUSH1 0x5 SLOAD JUMPDEST SWAP1 POP PUSH1 0x0 DUP6 PUSH2 0x819 JUMPI PUSH1 0xE SLOAD PUSH2 0x81D JUMP JUMPDEST PUSH1 0xF SLOAD JUMPDEST SWAP1 POP PUSH1 0x0 DUP7 PUSH2 0x82E JUMPI PUSH1 0xC SLOAD PUSH2 0x832 JUMP JUMPDEST PUSH1 0xB SLOAD JUMPDEST SWAP1 POP PUSH1 0xD SLOAD NUMBER GT DUP1 ISZERO PUSH2 0x844 JUMPI POP DUP1 ISZERO ISZERO JUMPDEST ISZERO PUSH2 0x8EF JUMPI PUSH1 0x0 PUSH1 0xA SLOAD NUMBER LT PUSH2 0x870 JUMPI PUSH1 0xD SLOAD PUSH1 0xA SLOAD PUSH2 0x869 SWAP2 PUSH4 0xFFFFFFFF PUSH2 0x118F AND JUMP JUMPDEST SWAP1 POP PUSH2 0x887 JUMP JUMPDEST PUSH1 0xD SLOAD PUSH2 0x884 SWAP1 NUMBER SWAP1 PUSH4 0xFFFFFFFF PUSH2 0x118F AND JUMP JUMPDEST SWAP1 POP JUMPDEST PUSH1 0x0 PUSH2 0x89E PUSH1 0x4 SLOAD DUP4 PUSH2 0x10ED SWAP1 SWAP2 SWAP1 PUSH4 0xFFFFFFFF AND JUMP JUMPDEST PUSH1 0x5 SLOAD SWAP1 SWAP2 POP ISZERO PUSH2 0x8C1 JUMPI PUSH2 0x8BE PUSH1 0x64 PUSH2 0x6AD DUP4 DUP9 PUSH4 0xFFFFFFFF PUSH2 0x10ED AND JUMP JUMPDEST SWAP1 POP JUMPDEST PUSH2 0x8EA PUSH2 0x8DD DUP5 PUSH2 0x6AD PUSH1 0x10 SLOAD DUP6 PUSH2 0x10ED SWAP1 SWAP2 SWAP1 PUSH4 0xFFFFFFFF AND JUMP JUMPDEST DUP6 SWAP1 PUSH4 0xFFFFFFFF PUSH2 0x12F6 AND JUMP JUMPDEST SWAP4 POP POP POP JUMPDEST PUSH1 0x1 DUP5 ADD SLOAD PUSH1 0x10 SLOAD DUP6 SLOAD PUSH2 0x912 SWAP3 SWAP2 PUSH2 0x6B9 SWAP2 PUSH2 0x6AD SWAP1 DUP8 PUSH4 0xFFFFFFFF PUSH2 0x10ED AND JUMP JUMPDEST SWAP8 SWAP7 POP POP POP POP POP POP POP JUMP JUMPDEST PUSH1 0xD SLOAD DUP2 JUMP JUMPDEST PUSH1 0xC SLOAD DUP2 JUMP JUMPDEST PUSH1 0x1 PUSH1 0x20 MSTORE PUSH1 0x0 SWAP1 DUP2 MSTORE PUSH1 0x40 SWAP1 KECCAK256 SLOAD DUP2 JUMP JUMPDEST PUSH1 0xF SLOAD DUP2 JUMP JUMPDEST PUSH1 0x3 SLOAD PUSH1 0x1 PUSH1 0x1 PUSH1 0xA0 SHL SUB AND CALLER EQ PUSH2 0x996 JUMPI PUSH1 0x40 DUP1 MLOAD PUSH3 0x461BCD PUSH1 0xE5 SHL DUP2 MSTORE PUSH1 0x20 PUSH1 0x4 DUP3 ADD MSTORE PUSH1 0x13 PUSH1 0x24 DUP3 ADD MSTORE PUSH19 0x4552525F434F4E54524F4C4C45525F4F4E4C59 PUSH1 0x68 SHL PUSH1 0x44 DUP3 ADD MSTORE SWAP1 MLOAD SWAP1 DUP2 SWAP1 SUB PUSH1 0x64 ADD SWAP1 REVERT JUMPDEST PUSH1 0x3 DUP1 SLOAD PUSH1 0x1 PUSH1 0x1 PUSH1 0xA0 SHL SUB NOT AND PUSH1 0x1 PUSH1 0x1 PUSH1 0xA0 SHL SUB SWAP3 SWAP1 SWAP3 AND SWAP2 SWAP1 SWAP2 OR SWAP1 SSTORE JUMP JUMPDEST PUSH1 0x40 MLOAD DUP1 PUSH1 0x40 ADD PUSH1 0x40 MSTORE DUP1 PUSH1 0x3 DUP2 MSTORE PUSH1 0x20 ADD PUSH3 0x135415 PUSH1 0xEA SHL DUP2 MSTORE POP DUP2 JUMP JUMPDEST PUSH1 0x0 PUSH2 0x5B6 CALLER DUP5 DUP5 PUSH2 0x11D8 JUMP JUMPDEST PUSH1 0x9 PUSH1 0x20 MSTORE PUSH1 0x0 SWAP1 DUP2 MSTORE PUSH1 0x40 SWAP1 KECCAK256 DUP1 SLOAD PUSH1 0x1 SWAP1 SWAP2 ADD SLOAD DUP3 JUMP JUMPDEST PUSH1 0x1 PUSH1 0x1 PUSH1 0xA0 SHL SUB AND PUSH1 0x0 SWAP1 DUP2 MSTORE PUSH1 0x9 PUSH1 0x20 MSTORE PUSH1 0x40 SWAP1 KECCAK256 SLOAD ISZERO ISZERO SWAP1 JUMP JUMPDEST PUSH1 0x6 SLOAD PUSH1 0x1 PUSH1 0x1 PUSH1 0xA0 SHL SUB AND CALLER EQ PUSH2 0xA69 JUMPI PUSH1 0x40 DUP1 MLOAD PUSH3 0x461BCD PUSH1 0xE5 SHL DUP2 MSTORE PUSH1 0x20 PUSH1 0x4 DUP3 ADD MSTORE PUSH1 0xD PUSH1 0x24 DUP3 ADD MSTORE PUSH13 0x4552525F504F4F4C5F4F4E4C59 PUSH1 0x98 SHL PUSH1 0x44 DUP3 ADD MSTORE SWAP1 MLOAD SWAP1 DUP2 SWAP1 SUB PUSH1 0x64 ADD SWAP1 REVERT JUMPDEST PUSH2 0xA74 DUP4 DUP4 DUP4 PUSH2 0x1350 JUMP JUMPDEST POP POP POP JUMP JUMPDEST PUSH1 0x6 SLOAD PUSH1 0x1 PUSH1 0x1 PUSH1 0xA0 SHL SUB AND CALLER EQ PUSH2 0xAC8 JUMPI PUSH1 0x40 DUP1 MLOAD PUSH3 0x461BCD PUSH1 0xE5 SHL DUP2 MSTORE PUSH1 0x20 PUSH1 0x4 DUP3 ADD MSTORE PUSH1 0xD PUSH1 0x24 DUP3 ADD MSTORE PUSH13 0x4552525F504F4F4C5F4F4E4C59 PUSH1 0x98 SHL PUSH1 0x44 DUP3 ADD MSTORE SWAP1 MLOAD SWAP1 DUP2 SWAP1 SUB PUSH1 0x64 ADD SWAP1 REVERT JUMPDEST PUSH1 0x0 PUSH1 0x5 SLOAD GT PUSH2 0xB18 JUMPI PUSH1 0x40 DUP1 MLOAD PUSH3 0x461BCD PUSH1 0xE5 SHL DUP2 MSTORE PUSH1 0x20 PUSH1 0x4 DUP3 ADD MSTORE PUSH1 0x16 PUSH1 0x24 DUP3 ADD MSTORE PUSH22 0x22A9292FA727AFA3A82FA9A420A922AFA922A6A0A4A7 PUSH1 0x51 SHL PUSH1 0x44 DUP3 ADD MSTORE SWAP1 MLOAD SWAP1 DUP2 SWAP1 SUB PUSH1 0x64 ADD SWAP1 REVERT JUMPDEST DUP3 ISZERO DUP1 ISZERO SWAP1 PUSH2 0xB26 JUMPI POP DUP3 DUP2 EQ JUMPDEST PUSH2 0xB6B JUMPI PUSH1 0x40 DUP1 MLOAD PUSH3 0x461BCD PUSH1 0xE5 SHL DUP2 MSTORE PUSH1 0x20 PUSH1 0x4 DUP3 ADD MSTORE PUSH1 0x11 PUSH1 0x24 DUP3 ADD MSTORE PUSH17 0x4552525F494E56414C49445F504152414D PUSH1 0x78 SHL PUSH1 0x44 DUP3 ADD MSTORE SWAP1 MLOAD SWAP1 DUP2 SWAP1 SUB PUSH1 0x64 ADD SWAP1 REVERT JUMPDEST PUSH1 0x0 JUMPDEST DUP4 DUP2 LT ISZERO PUSH2 0xD70 JUMPI PUSH2 0xB7E PUSH2 0x1809 JUMP JUMPDEST PUSH1 0x9 PUSH1 0x0 DUP8 DUP8 DUP6 DUP2 DUP2 LT PUSH2 0xB8E JUMPI INVALID JUMPDEST SWAP1 POP PUSH1 0x20 MUL ADD CALLDATALOAD PUSH1 0x1 PUSH1 0x1 PUSH1 0xA0 SHL SUB AND PUSH1 0x1 PUSH1 0x1 PUSH1 0xA0 SHL SUB AND PUSH1 0x1 PUSH1 0x1 PUSH1 0xA0 SHL SUB AND DUP2 MSTORE PUSH1 0x20 ADD SWAP1 DUP2 MSTORE PUSH1 0x20 ADD PUSH1 0x0 KECCAK256 PUSH1 0x40 MLOAD DUP1 PUSH1 0x40 ADD PUSH1 0x40 MSTORE SWAP1 DUP2 PUSH1 0x0 DUP3 ADD SLOAD DUP2 MSTORE PUSH1 0x20 ADD PUSH1 0x1 DUP3 ADD SLOAD DUP2 MSTORE POP POP SWAP1 POP DUP1 PUSH1 0x0 ADD MLOAD PUSH1 0x0 EQ ISZERO PUSH2 0xC7E JUMPI PUSH1 0x20 DUP2 ADD MLOAD PUSH2 0xC40 JUMPI PUSH1 0x7 DUP7 DUP7 DUP5 DUP2 DUP2 LT PUSH2 0xC03 JUMPI INVALID JUMPDEST DUP4 SLOAD PUSH1 0x1 DUP2 ADD DUP6 SSTORE PUSH1 0x0 SWAP5 DUP6 MSTORE PUSH1 0x20 SWAP5 DUP6 SWAP1 KECCAK256 ADD DUP1 SLOAD PUSH1 0x1 PUSH1 0x1 PUSH1 0xA0 SHL SUB NOT AND PUSH1 0x1 PUSH1 0x1 PUSH1 0xA0 SHL SUB SWAP6 SWAP1 SWAP3 MUL SWAP4 SWAP1 SWAP4 ADD CALLDATALOAD SWAP4 SWAP1 SWAP4 AND SWAP3 SWAP1 SWAP3 OR SWAP1 SSTORE POP JUMPDEST PUSH2 0xC79 PUSH1 0x1 DUP8 DUP8 DUP6 DUP2 DUP2 LT PUSH2 0xC51 JUMPI INVALID JUMPDEST SWAP1 POP PUSH1 0x20 MUL ADD CALLDATALOAD PUSH1 0x1 PUSH1 0x1 PUSH1 0xA0 SHL SUB AND DUP7 DUP7 DUP7 DUP2 DUP2 LT PUSH2 0xC6D JUMPI INVALID JUMPDEST SWAP1 POP PUSH1 0x20 MUL ADD CALLDATALOAD PUSH2 0x1350 JUMP JUMPDEST PUSH2 0xD67 JUMP JUMPDEST DUP4 DUP4 DUP4 DUP2 DUP2 LT PUSH2 0xC8A JUMPI INVALID JUMPDEST SWAP1 POP PUSH1 0x20 MUL ADD CALLDATALOAD DUP2 PUSH1 0x0 ADD MLOAD GT ISZERO PUSH2 0xCF3 JUMPI PUSH1 0x0 PUSH2 0xCC4 DUP6 DUP6 DUP6 DUP2 DUP2 LT PUSH2 0xCAD JUMPI INVALID JUMPDEST DUP6 MLOAD SWAP3 PUSH1 0x20 SWAP1 SWAP2 MUL ADD CALLDATALOAD SWAP1 POP PUSH4 0xFFFFFFFF PUSH2 0x118F AND JUMP JUMPDEST SWAP1 POP PUSH2 0xCED PUSH1 0x1 DUP9 DUP9 DUP7 DUP2 DUP2 LT PUSH2 0xCD7 JUMPI INVALID JUMPDEST SWAP1 POP PUSH1 0x20 MUL ADD CALLDATALOAD PUSH1 0x1 PUSH1 0x1 PUSH1 0xA0 SHL SUB AND DUP4 PUSH2 0x14EF JUMP JUMPDEST POP PUSH2 0xD67 JUMP JUMPDEST DUP4 DUP4 DUP4 DUP2 DUP2 LT PUSH2 0xCFF JUMPI INVALID JUMPDEST SWAP1 POP PUSH1 0x20 MUL ADD CALLDATALOAD DUP2 PUSH1 0x0 ADD MLOAD LT ISZERO PUSH2 0xD67 JUMPI PUSH1 0x0 PUSH2 0xD3C DUP3 PUSH1 0x0 ADD MLOAD DUP7 DUP7 DUP7 DUP2 DUP2 LT PUSH2 0xD27 JUMPI INVALID JUMPDEST SWAP1 POP PUSH1 0x20 MUL ADD CALLDATALOAD PUSH2 0x118F SWAP1 SWAP2 SWAP1 PUSH4 0xFFFFFFFF AND JUMP JUMPDEST SWAP1 POP PUSH2 0xD65 PUSH1 0x1 DUP9 DUP9 DUP7 DUP2 DUP2 LT PUSH2 0xD4F JUMPI INVALID JUMPDEST SWAP1 POP PUSH1 0x20 MUL ADD CALLDATALOAD PUSH1 0x1 PUSH1 0x1 PUSH1 0xA0 SHL SUB AND DUP4 PUSH2 0x1350 JUMP JUMPDEST POP JUMPDEST POP PUSH1 0x1 ADD PUSH2 0xB6E JUMP JUMPDEST POP PUSH1 0x0 JUMPDEST PUSH1 0x7 SLOAD DUP2 LT ISZERO PUSH2 0xE8F JUMPI PUSH1 0x1 PUSH1 0x0 JUMPDEST DUP6 DUP2 LT ISZERO PUSH2 0xDE9 JUMPI PUSH1 0x7 DUP4 DUP2 SLOAD DUP2 LT PUSH2 0xD98 JUMPI INVALID JUMPDEST PUSH1 0x0 SWAP2 DUP3 MSTORE PUSH1 0x20 SWAP1 SWAP2 KECCAK256 ADD SLOAD PUSH1 0x1 PUSH1 0x1 PUSH1 0xA0 SHL SUB AND DUP8 DUP8 DUP4 DUP2 DUP2 LT PUSH2 0xDB9 JUMPI INVALID JUMPDEST SWAP1 POP PUSH1 0x20 MUL ADD CALLDATALOAD PUSH1 0x1 PUSH1 0x1 PUSH1 0xA0 SHL SUB AND PUSH1 0x1 PUSH1 0x1 PUSH1 0xA0 SHL SUB AND EQ ISZERO PUSH2 0xDE1 JUMPI PUSH1 0x0 SWAP2 POP PUSH2 0xDE9 JUMP JUMPDEST PUSH1 0x1 ADD PUSH2 0xD83 JUMP JUMPDEST POP DUP1 ISZERO PUSH2 0xE86 JUMPI PUSH2 0xDF8 PUSH2 0x1809 JUMP JUMPDEST PUSH1 0x9 PUSH1 0x0 DUP9 DUP9 DUP7 DUP2 DUP2 LT PUSH2 0xE08 JUMPI INVALID JUMPDEST SWAP1 POP PUSH1 0x20 MUL ADD CALLDATALOAD PUSH1 0x1 PUSH1 0x1 PUSH1 0xA0 SHL SUB AND PUSH1 0x1 PUSH1 0x1 PUSH1 0xA0 SHL SUB AND PUSH1 0x1 PUSH1 0x1 PUSH1 0xA0 SHL SUB AND DUP2 MSTORE PUSH1 0x20 ADD SWAP1 DUP2 MSTORE PUSH1 0x20 ADD PUSH1 0x0 KECCAK256 PUSH1 0x40 MLOAD DUP1 PUSH1 0x40 ADD PUSH1 0x40 MSTORE SWAP1 DUP2 PUSH1 0x0 DUP3 ADD SLOAD DUP2 MSTORE PUSH1 0x20 ADD PUSH1 0x1 DUP3 ADD SLOAD DUP2 MSTORE POP POP SWAP1 POP PUSH2 0xE84 PUSH1 0x1 DUP9 DUP9 DUP7 DUP2 DUP2 LT PUSH2 0xE6A JUMPI INVALID JUMPDEST SWAP1 POP PUSH1 0x20 MUL ADD CALLDATALOAD PUSH1 0x1 PUSH1 0x1 PUSH1 0xA0 SHL SUB AND DUP4 PUSH1 0x0 ADD MLOAD PUSH2 0x14EF JUMP JUMPDEST POP JUMPDEST POP PUSH1 0x1 ADD PUSH2 0xD74 JUMP JUMPDEST POP POP POP POP POP JUMP JUMPDEST PUSH1 0x2 PUSH1 0x20 SWAP1 DUP2 MSTORE PUSH1 0x0 SWAP3 DUP4 MSTORE PUSH1 0x40 DUP1 DUP5 KECCAK256 SWAP1 SWAP2 MSTORE SWAP1 DUP3 MSTORE SWAP1 KECCAK256 SLOAD DUP2 JUMP JUMPDEST PUSH1 0xD SLOAD NUMBER GT ISZERO DUP1 PUSH2 0xEC7 JUMPI POP PUSH1 0xA SLOAD PUSH1 0xD SLOAD EQ JUMPDEST ISZERO PUSH2 0xED1 JUMPI PUSH2 0x1010 JUMP JUMPDEST PUSH1 0xC SLOAD ISZERO DUP1 PUSH2 0xEED JUMPI POP PUSH1 0x0 PUSH1 0x5 SLOAD GT DUP1 ISZERO PUSH2 0xEED JUMPI POP PUSH1 0xB SLOAD ISZERO JUMPDEST ISZERO PUSH2 0xEFB JUMPI NUMBER PUSH1 0xD SSTORE PUSH2 0x1010 JUMP JUMPDEST PUSH1 0x0 PUSH1 0xA SLOAD NUMBER LT ISZERO PUSH2 0xF26 JUMPI PUSH1 0xD SLOAD PUSH2 0xF1B SWAP1 NUMBER SWAP1 PUSH4 0xFFFFFFFF PUSH2 0x118F AND JUMP JUMPDEST NUMBER PUSH1 0xD SSTORE SWAP1 POP PUSH2 0xF44 JUMP JUMPDEST PUSH1 0xD SLOAD PUSH1 0xA SLOAD PUSH2 0xF3B SWAP2 PUSH4 0xFFFFFFFF PUSH2 0x118F AND JUMP JUMPDEST PUSH1 0xA SLOAD PUSH1 0xD SSTORE SWAP1 POP JUMPDEST PUSH1 0x0 PUSH2 0xF5B PUSH1 0x4 SLOAD DUP4 PUSH2 0x10ED SWAP1 SWAP2 SWAP1 PUSH4 0xFFFFFFFF AND JUMP JUMPDEST SWAP1 POP PUSH2 0xF66 DUP2 PUSH2 0x168A JUMP JUMPDEST PUSH1 0x0 PUSH1 0x5 SLOAD PUSH1 0x0 EQ ISZERO PUSH2 0xF7A JUMPI POP DUP1 PUSH2 0xFDC JUMP JUMPDEST PUSH1 0x0 PUSH2 0xF96 PUSH1 0x64 PUSH2 0x6AD PUSH1 0x5 SLOAD DUP7 PUSH2 0x10ED SWAP1 SWAP2 SWAP1 PUSH4 0xFFFFFFFF AND JUMP JUMPDEST SWAP1 POP PUSH2 0xFC5 PUSH2 0xFB6 PUSH1 0xB SLOAD PUSH2 0x6AD PUSH1 0x10 SLOAD DUP6 PUSH2 0x10ED SWAP1 SWAP2 SWAP1 PUSH4 0xFFFFFFFF AND JUMP JUMPDEST PUSH1 0xF SLOAD SWAP1 PUSH4 0xFFFFFFFF PUSH2 0x12F6 AND JUMP JUMPDEST PUSH1 0xF SSTORE PUSH2 0xFD8 DUP4 DUP3 PUSH4 0xFFFFFFFF PUSH2 0x118F AND JUMP JUMPDEST SWAP2 POP POP JUMPDEST PUSH2 0x1009 PUSH2 0xFFA PUSH1 0xC SLOAD PUSH2 0x6AD PUSH1 0x10 SLOAD DUP6 PUSH2 0x10ED SWAP1 SWAP2 SWAP1 PUSH4 0xFFFFFFFF AND JUMP JUMPDEST PUSH1 0xE SLOAD SWAP1 PUSH4 0xFFFFFFFF PUSH2 0x12F6 AND JUMP JUMPDEST PUSH1 0xE SSTORE POP POP POP JUMPDEST JUMP JUMPDEST PUSH1 0x6 SLOAD PUSH1 0x1 PUSH1 0x1 PUSH1 0xA0 SHL SUB AND CALLER EQ PUSH2 0x1061 JUMPI PUSH1 0x40 DUP1 MLOAD PUSH3 0x461BCD PUSH1 0xE5 SHL DUP2 MSTORE PUSH1 0x20 PUSH1 0x4 DUP3 ADD MSTORE PUSH1 0xD PUSH1 0x24 DUP3 ADD MSTORE PUSH13 0x4552525F504F4F4C5F4F4E4C59 PUSH1 0x98 SHL PUSH1 0x44 DUP3 ADD MSTORE SWAP1 MLOAD SWAP1 DUP2 SWAP1 SUB PUSH1 0x64 ADD SWAP1 REVERT JUMPDEST PUSH2 0xA74 DUP4 DUP4 DUP4 PUSH2 0x14EF JUMP JUMPDEST PUSH1 0xE SLOAD DUP2 JUMP JUMPDEST PUSH1 0x8 PUSH1 0x20 MSTORE PUSH1 0x0 SWAP1 DUP2 MSTORE PUSH1 0x40 SWAP1 KECCAK256 DUP1 SLOAD PUSH1 0x1 SWAP1 SWAP2 ADD SLOAD DUP3 JUMP JUMPDEST PUSH1 0x1 PUSH1 0x1 PUSH1 0xA0 SHL SUB DUP1 DUP5 AND PUSH1 0x0 DUP2 DUP2 MSTORE PUSH1 0x2 PUSH1 0x20 SWAP1 DUP2 MSTORE PUSH1 0x40 DUP1 DUP4 KECCAK256 SWAP5 DUP8 AND DUP1 DUP5 MSTORE SWAP5 DUP3 MSTORE SWAP2 DUP3 SWAP1 KECCAK256 DUP6 SWAP1 SSTORE DUP2 MLOAD DUP6 DUP2 MSTORE SWAP2 MLOAD PUSH32 0x8C5BE1E5EBEC7D5BD14F71427D1E84F3DD0314C0F7B2291E5B200AC8C7C3B925 SWAP3 DUP2 SWAP1 SUB SWAP1 SWAP2 ADD SWAP1 LOG3 POP POP POP JUMP JUMPDEST PUSH1 0x0 DUP3 PUSH2 0x10FC JUMPI POP PUSH1 0x0 PUSH2 0x5BA JUMP JUMPDEST DUP3 DUP3 MUL DUP3 DUP5 DUP3 DUP2 PUSH2 0x1109 JUMPI INVALID JUMPDEST DIV EQ PUSH2 0x1146 JUMPI PUSH1 0x40 MLOAD PUSH3 0x461BCD PUSH1 0xE5 SHL DUP2 MSTORE PUSH1 0x4 ADD DUP1 DUP1 PUSH1 0x20 ADD DUP3 DUP2 SUB DUP3 MSTORE PUSH1 0x21 DUP2 MSTORE PUSH1 0x20 ADD DUP1 PUSH2 0x1824 PUSH1 0x21 SWAP2 CODECOPY PUSH1 0x40 ADD SWAP2 POP POP PUSH1 0x40 MLOAD DUP1 SWAP2 SUB SWAP1 REVERT JUMPDEST SWAP4 SWAP3 POP POP POP JUMP JUMPDEST PUSH1 0x0 PUSH2 0x1146 DUP4 DUP4 PUSH1 0x40 MLOAD DUP1 PUSH1 0x40 ADD PUSH1 0x40 MSTORE DUP1 PUSH1 0x1A DUP2 MSTORE PUSH1 0x20 ADD PUSH32 0x536166654D6174683A206469766973696F6E206279207A65726F000000000000 DUP2 MSTORE POP PUSH2 0x170D JUMP JUMPDEST PUSH1 0x0 PUSH2 0x1146 DUP4 DUP4 PUSH1 0x40 MLOAD DUP1 PUSH1 0x40 ADD PUSH1 0x40 MSTORE DUP1 PUSH1 0x1E DUP2 MSTORE PUSH1 0x20 ADD PUSH32 0x536166654D6174683A207375627472616374696F6E206F766572666C6F770000 DUP2 MSTORE POP PUSH2 0x17AF JUMP JUMPDEST PUSH2 0xA74 DUP4 DUP4 DUP4 JUMPDEST PUSH1 0x1 PUSH1 0x1 PUSH1 0xA0 SHL SUB DUP4 AND PUSH1 0x0 SWAP1 DUP2 MSTORE PUSH1 0x1 PUSH1 0x20 MSTORE PUSH1 0x40 SWAP1 KECCAK256 SLOAD DUP2 GT ISZERO PUSH2 0x123C JUMPI PUSH1 0x40 DUP1 MLOAD PUSH3 0x461BCD PUSH1 0xE5 SHL DUP2 MSTORE PUSH1 0x20 PUSH1 0x4 DUP3 ADD MSTORE PUSH1 0x14 PUSH1 0x24 DUP3 ADD MSTORE PUSH20 0x11549497D25394D551919250D251539517D09053 PUSH1 0x62 SHL PUSH1 0x44 DUP3 ADD MSTORE SWAP1 MLOAD SWAP1 DUP2 SWAP1 SUB PUSH1 0x64 ADD SWAP1 REVERT JUMPDEST PUSH1 0x1 PUSH1 0x1 PUSH1 0xA0 SHL SUB DUP4 AND PUSH1 0x0 SWAP1 DUP2 MSTORE PUSH1 0x1 PUSH1 0x20 MSTORE PUSH1 0x40 SWAP1 KECCAK256 SLOAD PUSH2 0x1265 SWAP1 DUP3 PUSH4 0xFFFFFFFF PUSH2 0x118F AND JUMP JUMPDEST PUSH1 0x1 PUSH1 0x1 PUSH1 0xA0 SHL SUB DUP1 DUP6 AND PUSH1 0x0 SWAP1 DUP2 MSTORE PUSH1 0x1 PUSH1 0x20 MSTORE PUSH1 0x40 DUP1 DUP3 KECCAK256 SWAP4 SWAP1 SWAP4 SSTORE SWAP1 DUP5 AND DUP2 MSTORE KECCAK256 SLOAD PUSH2 0x129A SWAP1 DUP3 PUSH4 0xFFFFFFFF PUSH2 0x12F6 AND JUMP JUMPDEST PUSH1 0x1 PUSH1 0x1 PUSH1 0xA0 SHL SUB DUP1 DUP5 AND PUSH1 0x0 DUP2 DUP2 MSTORE PUSH1 0x1 PUSH1 0x20 SWAP1 DUP2 MSTORE PUSH1 0x40 SWAP2 DUP3 SWAP1 KECCAK256 SWAP5 SWAP1 SWAP5 SSTORE DUP1 MLOAD DUP6 DUP2 MSTORE SWAP1 MLOAD SWAP2 SWAP4 SWAP3 DUP8 AND SWAP3 PUSH32 0xDDF252AD1BE2C89B69C2B068FC378DAA952BA7F163C4A11628F55A4DF523B3EF SWAP3 SWAP2 DUP3 SWAP1 SUB ADD SWAP1 LOG3 POP POP POP JUMP JUMPDEST PUSH1 0x0 DUP3 DUP3 ADD DUP4 DUP2 LT ISZERO PUSH2 0x1146 JUMPI PUSH1 0x40 DUP1 MLOAD PUSH3 0x461BCD PUSH1 0xE5 SHL DUP2 MSTORE PUSH1 0x20 PUSH1 0x4 DUP3 ADD MSTORE PUSH1 0x1B PUSH1 0x24 DUP3 ADD MSTORE PUSH32 0x536166654D6174683A206164646974696F6E206F766572666C6F770000000000 PUSH1 0x44 DUP3 ADD MSTORE SWAP1 MLOAD SWAP1 DUP2 SWAP1 SUB PUSH1 0x64 ADD SWAP1 REVERT JUMPDEST PUSH1 0x0 DUP4 PUSH2 0x1374 JUMPI PUSH1 0x1 PUSH1 0x1 PUSH1 0xA0 SHL SUB DUP4 AND PUSH1 0x0 SWAP1 DUP2 MSTORE PUSH1 0x8 PUSH1 0x20 MSTORE PUSH1 0x40 SWAP1 KECCAK256 PUSH2 0x138D JUMP JUMPDEST PUSH1 0x1 PUSH1 0x1 PUSH1 0xA0 SHL SUB DUP4 AND PUSH1 0x0 SWAP1 DUP2 MSTORE PUSH1 0x9 PUSH1 0x20 MSTORE PUSH1 0x40 SWAP1 KECCAK256 JUMPDEST SWAP1 POP DUP4 ISZERO PUSH2 0x13E5 JUMPI PUSH1 0x0 PUSH1 0x5 SLOAD GT PUSH2 0x13E5 JUMPI PUSH1 0x40 DUP1 MLOAD PUSH3 0x461BCD PUSH1 0xE5 SHL DUP2 MSTORE PUSH1 0x20 PUSH1 0x4 DUP3 ADD MSTORE PUSH1 0x16 PUSH1 0x24 DUP3 ADD MSTORE PUSH22 0x22A9292FA727AFA3A82FA9A420A922AFA922A6A0A4A7 PUSH1 0x51 SHL PUSH1 0x44 DUP3 ADD MSTORE SWAP1 MLOAD SWAP1 DUP2 SWAP1 SUB PUSH1 0x64 ADD SWAP1 REVERT JUMPDEST PUSH2 0x13ED PUSH2 0xEB3 JUMP JUMPDEST PUSH1 0x0 DUP5 PUSH2 0x13FC JUMPI PUSH1 0xE SLOAD PUSH2 0x1400 JUMP JUMPDEST PUSH1 0xF SLOAD JUMPDEST DUP3 SLOAD SWAP1 SWAP2 POP ISZERO PUSH2 0x1446 JUMPI PUSH1 0x0 PUSH2 0x1431 DUP4 PUSH1 0x1 ADD SLOAD PUSH2 0x6B9 PUSH1 0x10 SLOAD PUSH2 0x6AD DUP7 DUP9 PUSH1 0x0 ADD SLOAD PUSH2 0x10ED SWAP1 SWAP2 SWAP1 PUSH4 0xFFFFFFFF AND JUMP JUMPDEST SWAP1 POP DUP1 ISZERO PUSH2 0x1444 JUMPI PUSH2 0x1444 ADDRESS DUP7 DUP4 PUSH2 0x11D1 JUMP JUMPDEST POP JUMPDEST DUP3 ISZERO PUSH2 0x14C6 JUMPI DUP2 SLOAD PUSH2 0x145E SWAP1 DUP5 PUSH4 0xFFFFFFFF PUSH2 0x12F6 AND JUMP JUMPDEST DUP3 SSTORE DUP5 PUSH2 0x1474 JUMPI PUSH1 0xC DUP1 SLOAD DUP5 ADD SWAP1 DUP2 SWAP1 SSTORE PUSH2 0x147F JUMP JUMPDEST PUSH1 0xB DUP1 SLOAD DUP5 ADD SWAP1 DUP2 SWAP1 SSTORE JUMPDEST POP PUSH1 0x40 DUP1 MLOAD DUP7 ISZERO ISZERO DUP2 MSTORE PUSH1 0x20 DUP2 ADD DUP6 SWAP1 MSTORE DUP2 MLOAD PUSH1 0x1 PUSH1 0x1 PUSH1 0xA0 SHL SUB DUP8 AND SWAP3 PUSH32 0xBB923FC4DB468AFB79D2C63DAC757022D536EFBD65AF7A9B7A5D6ED328393306 SWAP3 DUP3 SWAP1 SUB ADD SWAP1 LOG2 JUMPDEST PUSH1 0x10 SLOAD DUP3 SLOAD PUSH2 0x14E0 SWAP2 SWAP1 PUSH2 0x6AD SWAP1 DUP5 PUSH4 0xFFFFFFFF PUSH2 0x10ED AND JUMP JUMPDEST DUP3 PUSH1 0x1 ADD DUP2 SWAP1 SSTORE POP POP POP POP POP POP JUMP JUMPDEST PUSH1 0x0 DUP4 PUSH2 0x1513 JUMPI PUSH1 0x1 PUSH1 0x1 PUSH1 0xA0 SHL SUB DUP4 AND PUSH1 0x0 SWAP1 DUP2 MSTORE PUSH1 0x8 PUSH1 0x20 MSTORE PUSH1 0x40 SWAP1 KECCAK256 PUSH2 0x152C JUMP JUMPDEST PUSH1 0x1 PUSH1 0x1 PUSH1 0xA0 SHL SUB DUP4 AND PUSH1 0x0 SWAP1 DUP2 MSTORE PUSH1 0x9 PUSH1 0x20 MSTORE PUSH1 0x40 SWAP1 KECCAK256 JUMPDEST SWAP1 POP DUP2 DUP2 PUSH1 0x0 ADD SLOAD LT ISZERO PUSH2 0x1587 JUMPI PUSH1 0x40 DUP1 MLOAD PUSH3 0x461BCD PUSH1 0xE5 SHL DUP2 MSTORE PUSH1 0x20 PUSH1 0x4 DUP3 ADD MSTORE PUSH1 0x1F PUSH1 0x24 DUP3 ADD MSTORE PUSH32 0x4552525F554E4445525F57495448445241575F414D4F554E545F4C494D495400 PUSH1 0x44 DUP3 ADD MSTORE SWAP1 MLOAD SWAP1 DUP2 SWAP1 SUB PUSH1 0x64 ADD SWAP1 REVERT JUMPDEST PUSH2 0x158F PUSH2 0xEB3 JUMP JUMPDEST PUSH1 0x0 DUP5 PUSH2 0x159E JUMPI PUSH1 0xE SLOAD PUSH2 0x15A2 JUMP JUMPDEST PUSH1 0xF SLOAD JUMPDEST SWAP1 POP PUSH1 0x0 PUSH2 0x15CB DUP4 PUSH1 0x1 ADD SLOAD PUSH2 0x6B9 PUSH1 0x10 SLOAD PUSH2 0x6AD DUP7 DUP9 PUSH1 0x0 ADD SLOAD PUSH2 0x10ED SWAP1 SWAP2 SWAP1 PUSH4 0xFFFFFFFF AND JUMP JUMPDEST SWAP1 POP DUP1 ISZERO PUSH2 0x15DE JUMPI PUSH2 0x15DE ADDRESS DUP7 DUP4 PUSH2 0x11D1 JUMP JUMPDEST DUP4 ISZERO PUSH2 0x1660 JUMPI DUP3 SLOAD PUSH2 0x15F6 SWAP1 DUP6 PUSH4 0xFFFFFFFF PUSH2 0x118F AND JUMP JUMPDEST DUP4 SSTORE DUP6 PUSH2 0x160D JUMPI PUSH1 0xC DUP1 SLOAD DUP6 SWAP1 SUB SWAP1 DUP2 SWAP1 SSTORE PUSH2 0x1619 JUMP JUMPDEST PUSH1 0xB DUP1 SLOAD DUP6 SWAP1 SUB SWAP1 DUP2 SWAP1 SSTORE JUMPDEST POP PUSH1 0x40 DUP1 MLOAD DUP8 ISZERO ISZERO DUP2 MSTORE PUSH1 0x20 DUP2 ADD DUP7 SWAP1 MSTORE DUP2 MLOAD PUSH1 0x1 PUSH1 0x1 PUSH1 0xA0 SHL SUB DUP9 AND SWAP3 PUSH32 0x171A466754AFBBDCE4DC1AB85F822D6767825C31A83B1113CC18BC97DDBFED22 SWAP3 DUP3 SWAP1 SUB ADD SWAP1 LOG2 JUMPDEST PUSH1 0x10 SLOAD DUP4 SLOAD PUSH2 0x167A SWAP2 SWAP1 PUSH2 0x6AD SWAP1 DUP6 PUSH4 0xFFFFFFFF PUSH2 0x10ED AND JUMP JUMPDEST DUP4 PUSH1 0x1 ADD DUP2 SWAP1 SSTORE POP POP POP POP POP POP POP JUMP JUMPDEST PUSH1 0x0 SLOAD PUSH2 0x169D SWAP1 DUP3 PUSH4 0xFFFFFFFF PUSH2 0x12F6 AND JUMP JUMPDEST PUSH1 0x0 SWAP1 DUP2 SSTORE ADDRESS DUP2 MSTORE PUSH1 0x1 PUSH1 0x20 MSTORE PUSH1 0x40 SWAP1 KECCAK256 SLOAD PUSH2 0x16BF SWAP1 DUP3 PUSH4 0xFFFFFFFF PUSH2 0x12F6 AND JUMP JUMPDEST ADDRESS PUSH1 0x0 DUP2 DUP2 MSTORE PUSH1 0x1 PUSH1 0x20 SWAP1 DUP2 MSTORE PUSH1 0x40 DUP1 DUP4 KECCAK256 SWAP5 SWAP1 SWAP5 SSTORE DUP4 MLOAD DUP6 DUP2 MSTORE SWAP4 MLOAD SWAP3 SWAP4 SWAP2 SWAP3 PUSH32 0xDDF252AD1BE2C89B69C2B068FC378DAA952BA7F163C4A11628F55A4DF523B3EF SWAP3 DUP2 SWAP1 SUB SWAP1 SWAP2 ADD SWAP1 LOG3 POP JUMP JUMPDEST PUSH1 0x0 DUP2 DUP4 PUSH2 0x1799 JUMPI PUSH1 0x40 MLOAD PUSH3 0x461BCD PUSH1 0xE5 SHL DUP2 MSTORE PUSH1 0x4 ADD DUP1 DUP1 PUSH1 0x20 ADD DUP3 DUP2 SUB DUP3 MSTORE DUP4 DUP2 DUP2 MLOAD DUP2 MSTORE PUSH1 0x20 ADD SWAP2 POP DUP1 MLOAD SWAP1 PUSH1 0x20 ADD SWAP1 DUP1 DUP4 DUP4 PUSH1 0x0 JUMPDEST DUP4 DUP2 LT ISZERO PUSH2 0x175E JUMPI DUP2 DUP2 ADD MLOAD DUP4 DUP3 ADD MSTORE PUSH1 0x20 ADD PUSH2 0x1746 JUMP JUMPDEST POP POP POP POP SWAP1 POP SWAP1 DUP2 ADD SWAP1 PUSH1 0x1F AND DUP1 ISZERO PUSH2 0x178B JUMPI DUP1 DUP3 SUB DUP1 MLOAD PUSH1 0x1 DUP4 PUSH1 0x20 SUB PUSH2 0x100 EXP SUB NOT AND DUP2 MSTORE PUSH1 0x20 ADD SWAP2 POP JUMPDEST POP SWAP3 POP POP POP PUSH1 0x40 MLOAD DUP1 SWAP2 SUB SWAP1 REVERT JUMPDEST POP PUSH1 0x0 DUP4 DUP6 DUP2 PUSH2 0x17A5 JUMPI INVALID JUMPDEST DIV SWAP6 SWAP5 POP POP POP POP POP JUMP JUMPDEST PUSH1 0x0 DUP2 DUP5 DUP5 GT ISZERO PUSH2 0x1801 JUMPI PUSH1 0x40 MLOAD PUSH3 0x461BCD PUSH1 0xE5 SHL DUP2 MSTORE PUSH1 0x20 PUSH1 0x4 DUP3 ADD DUP2 DUP2 MSTORE DUP4 MLOAD PUSH1 0x24 DUP5 ADD MSTORE DUP4 MLOAD SWAP1 SWAP3 DUP4 SWAP3 PUSH1 0x44 SWAP1 SWAP2 ADD SWAP2 SWAP1 DUP6 ADD SWAP1 DUP1 DUP4 DUP4 PUSH1 0x0 DUP4 ISZERO PUSH2 0x175E JUMPI DUP2 DUP2 ADD MLOAD DUP4 DUP3 ADD MSTORE PUSH1 0x20 ADD PUSH2 0x1746 JUMP JUMPDEST POP POP POP SWAP1 SUB SWAP1 JUMP JUMPDEST PUSH1 0x40 MLOAD DUP1 PUSH1 0x40 ADD PUSH1 0x40 MSTORE DUP1 PUSH1 0x0 DUP2 MSTORE PUSH1 0x20 ADD PUSH1 0x0 DUP2 MSTORE POP SWAP1 JUMP INVALID MSTORE8 PUSH2 0x6665 0x4d PUSH2 0x7468 GASPRICE KECCAK256 PUSH14 0x756C7469706C69636174696F6E20 PUSH16 0x766572666C6F77A265627A7A72315820 0xb8 DUP12 LOG3 PUSH20 0xED83426027150B84E2C9F8FB5B0FAC143537C415 LOG2 0xfb PUSH19 0x1D9876B94464736F6C634300050C0032A26562 PUSH27 0x7A723158205A80B6CB1BBC805A8A2FB5E2A8303A4D0FF089D81A42 RETURNDATASIZE DELEGATECALL CALL 0xdb 0xab 0xd2 DUP4 POP MSTORE8 PUSH21 0x64736F6C634300050C003200000000000000000000 "
		},
		"gasEstimates": {
			"creation": {
				"codeDepositCost": "1454600",
				"executionCost": "21755",
				"totalCost": "1476355"
			},
			"external": {
				"getPairToken(address)": "572",
				"newPair(address,uint256,uint256)": "infinite"
			}
		},
		"methodIdentifiers": {
			"getPairToken(address)": "71c59d7b",
			"newPair(address,uint256,uint256)": "1ad0b78c"
		}
	},
	"abi": [
		{
			"inputs": [],
			"payable": false,
			"stateMutability": "nonpayable",
			"type": "constructor"
		},
		{
			"constant": true,
			"inputs": [
				{
					"internalType": "address",
					"name": "pool",
					"type": "address"
				}
			],
			"name": "getPairToken",
			"outputs": [
				{
					"internalType": "address",
					"name": "",
					"type": "address"
				}
			],
			"payable": false,
			"stateMutability": "view",
			"type": "function"
		},
		{
			"constant": false,
			"inputs": [
				{
					"internalType": "address",
					"name": "pool",
					"type": "address"
				},
				{
					"internalType": "uint256",
					"name": "perBlock",
					"type": "uint256"
				},
				{
					"internalType": "uint256",
					"name": "rate",
					"type": "uint256"
				}
			],
			"name": "newPair",
			"outputs": [
				{
					"internalType": "contract PairToken",
					"name": "pair",
					"type": "address"
				}
			],
			"payable": false,
			"stateMutability": "nonpayable",
			"type": "function"
		}
	]
}