{
	"data": {
		"bytecode": {
			"linkReferences": {},
			"object": "60e060405234801561001057600080fd5b506040516200190f3803806200190f833981810160405260c081101561003557600080fd5b508051602082015160408301516060840151608085015160a090950151939492939192909160006100646102b2565b600080546001600160a01b0319166001600160a01b0383169081178255604051929350917f8be0079c531659141344cd1fd0a4f28419497f9722a3daafe3b4186f6b6457e0908290a3506001600160a01b038616610109576040805162461bcd60e51b815260206004820152601b60248201527f537761704d696e696e673a204c50204d696e6520696e76616c69640000000000604482015290519081900360640190fd5b6001600160a01b038516610164576040805162461bcd60e51b815260206004820152601960248201527f537761704d696e696e673a20617761726420696e76616c696400000000000000604482015290519081900360640190fd5b6001600160a01b0384166101bf576040805162461bcd60e51b815260206004820152601a60248201527f537761704d696e696e673a206f7261636c6520696e76616c6964000000000000604482015290519081900360640190fd5b600380546001600160a01b038089166001600160a01b031992831617909255600480549288169290911691909117905560c08390526001600660006102026102b2565b6001600160a01b0390811682526020808301939093526040918201600020805460ff191694151594909417909355608085815260a0858152600580546001600160a01b0319168a871690811790915583518c87168152958b169486019490945284830193909352606084018790528301859052908201839052517fb0f9c09485fc5962f65716316b3dac267e6e1259456921e8e6758596bacf694a9160c0908290030190a15050505050506102b6565b3390565b60805160a05160c0516115b9620003566000398061037b52806105d35280610618528061066352806108c75280610906528061092f52806109765280610d225280610d615280610d8a5280610dd15250806103c3528061052852806107c45280610c675280610eb4528061100f52508061039f52806104fd5280610826528061084e5280610ca65280610cd35280610e925280610fed52506115b96000f3fe608060405234801561001057600080fd5b506004361061012c5760003560e01c80637ad7ee0f116100ad578063aba850a911610071578063aba850a9146102e2578063bd15ee0914610308578063eecdac8814610310578063f2fde38b14610336578063f3f840841461035c5761012c565b80637ad7ee0f1461027e5780638da5cb5b14610286578063977ed4df1461028e5780639c99b784146102b4578063a0ebb1e5146102da5761012c565b80632630c12f116100f45780632630c12f146101c25780632d9d5336146101e65780633c4a25d01461020c5780635fd8b58514610232578063715018a6146102765761012c565b806303c0a7ae146101315780630539272a1461014b57806315862669146101535780631959a0021461015b5780631cb44dfc1461019a575b600080fd5b610139610379565b60408051918252519081900360200190f35b61013961039d565b6101396103c1565b6101816004803603602081101561017157600080fd5b50356001600160a01b03166103e5565b6040805192835260208301919091528051918290030190f35b6101c0600480360360208110156101b057600080fd5b50356001600160a01b03166103fe565b005b6101ca6104df565b604080516001600160a01b039092168252519081900360200190f35b610139600480360360208110156101fc57600080fd5b50356001600160a01b03166104ee565b6101c06004803603602081101561022257600080fd5b50356001600160a01b03166106a2565b6101c0600480360360a081101561024857600080fd5b506001600160a01b03813581169160208101358216916040820135916060810135909116906080013561071e565b6101c0610aa7565b610139610b49565b6101ca610b5e565b6101c0600480360360208110156102a457600080fd5b50356001600160a01b0316610b6d565b6101c0600480360360208110156102ca57600080fd5b50356001600160a01b0316610c42565b610139610e8d565b6101c0600480360360208110156102f857600080fd5b50356001600160a01b0316610f07565b610139610fe8565b6101c06004803603602081101561032657600080fd5b50356001600160a01b0316611058565b6101c06004803603602081101561034c57600080fd5b50356001600160a01b03166110d1565b6101816004803603602081101561037257600080fd5b50356111c9565b7f000000000000000000000000000000000000000000000000000000000000000081565b7f000000000000000000000000000000000000000000000000000000000000000081565b7f000000000000000000000000000000000000000000000000000000000000000081565b6002602052600090815260409020805460019091015482565b6006600061040a6111e2565b6001600160a01b0316815260208101919091526040016000205460ff166104625760405162461bcd60e51b815260040180806020018281038252602681526020018061151d6026913960400191505060405180910390fd5b6001600160a01b0381166104bd576040805162461bcd60e51b815260206004820152601a60248201527f537761704d696e696e673a206f7261636c6520696e76616c6964000000000000604482015290519081900360640190fd5b600580546001600160a01b0319166001600160a01b0392909216919091179055565b6005546001600160a01b031681565b6000806104f9610b49565b90507f0000000000000000000000000000000000000000000000000000000000000000811015801561054b57507f00000000000000000000000000000000000000000000000000000000000000008111155b15610697576105586114dc565b506001600160a01b0383166000908152600260209081526040918290208251808401909352805480845260019091015491830191909152821180156105ac5750805160009081526001602052604090205415155b156106955780516000908152600160209081526040822054908301516105fe91906105f8907f0000000000000000000000000000000000000000000000000000000000000000906111e6565b90611248565b8251600090815260016020819052604090912001549091507f000000000000000000000000000000000000000000000000000000000000000090610642908361128a565b111561068b57815160009081526001602081905260409091200154610688907f0000000000000000000000000000000000000000000000000000000000000000906112e4565b90505b925061069d915050565b505b60009150505b919050565b6106aa6111e2565b6000546001600160a01b039081169116146106fa576040805162461bcd60e51b81526020600482018190526024820152600080516020611564833981519152604482015290519081900360640190fd5b6001600160a01b03166000908152600660205260409020805460ff19166001179055565b600354604080516318f01ddb60e31b815233600482015290516001600160a01b039092169163c780eed891602480820192602092909190829003018186803b15801561076957600080fd5b505afa15801561077d573d6000803e3d6000fd5b505050506040513d602081101561079357600080fd5b505115610aa05760006107a4610b49565b6001600160a01b03871660009081526002602052604090208054919250907f000000000000000000000000000000000000000000000000000000000000000010610a9d576000828152600160205260408120906108018888611326565b905080610815576108128686611326565b90505b8254841115610a6e57825461089f577f0000000000000000000000000000000000000000000000000000000000000000841015610874577f0000000000000000000000000000000000000000000000000000000000000000835561089a565b8383556001830154610886908261128a565b60018401558154610897908261128a565b82555b610a69565b8254600081815260016020526040902090158015906108be5750805415155b80156108ed57507f00000000000000000000000000000000000000000000000000000000000000008160010154105b15610a42578054600185015460009161092b916105f8907f0000000000000000000000000000000000000000000000000000000000000000906111e6565b90507f000000000000000000000000000000000000000000000000000000000000000061096582846001015461128a90919063ffffffff16565b111561099e57600182015461099b907f0000000000000000000000000000000000000000000000000000000000000000906112e4565b90505b60008560010181905550600460009054906101000a90046001600160a01b03166001600160a01b031663fa803b518c836040518363ffffffff1660e01b815260040180836001600160a01b0316815260200182815260200192505050600060405180830381600087803b158015610a1457600080fd5b505af1158015610a28573d6000803e3d6000fd5b5050506001830154610a3b91508261128a565b6001830155505b8484556001840154610a54908361128a565b60018501558254610a65908361128a565b8355505b610a9a565b8254841415610a9a576001830154610a86908261128a565b60018401558154610a97908261128a565b82555b50505b50505b5050505050565b610aaf6111e2565b6000546001600160a01b03908116911614610aff576040805162461bcd60e51b81526020600482018190526024820152600080516020611564833981519152604482015290519081900360640190fd5b600080546040516001600160a01b03909116907f8be0079c531659141344cd1fd0a4f28419497f9722a3daafe3b4186f6b6457e0908390a3600080546001600160a01b0319169055565b6000610e10610b584282611248565b91505090565b6000546001600160a01b031690565b610b756111e2565b6000546001600160a01b03908116911614610bc5576040805162461bcd60e51b81526020600482018190526024820152600080516020611564833981519152604482015290519081900360640190fd5b6001600160a01b038116610c20576040805162461bcd60e51b815260206004820152601960248201527f537761704d696e696e673a20617761726420696e76616c696400000000000000604482015290519081900360640190fd5b600480546001600160a01b0319166001600160a01b0392909216919091179055565b6001600160a01b038116600090815260026020526040812090610c63610b49565b90507f0000000000000000000000000000000000000000000000000000000000000000826000015411158015610c995750815481115b15610e88578154610cfa577f00000000000000000000000000000000000000000000000000000000000000008110610cd15780610cf3565b7f00000000000000000000000000000000000000000000000000000000000000005b8255610e88565b815460008181526001602052604090209015801590610d195750805415155b8015610d4857507f00000000000000000000000000000000000000000000000000000000000000008160010154105b15610e835780546001840154600091610d86916105f8907f0000000000000000000000000000000000000000000000000000000000000000906111e6565b90507f0000000000000000000000000000000000000000000000000000000000000000610dc082846001015461128a90919063ffffffff16565b1115610df9576001820154610df6907f0000000000000000000000000000000000000000000000000000000000000000906112e4565b90505b600060018501819055600480546040805163fa803b5160e01b81526001600160a01b038a811694820194909452602481018690529051929091169263fa803b519260448084019382900301818387803b158015610e5557600080fd5b505af1158015610e69573d6000803e3d6000fd5b5050506001830154610e7c91508261128a565b6001830155505b508082555b505050565b6000807f00000000000000000000000000000000000000000000000000000000000000005b7f00000000000000000000000000000000000000000000000000000000000000008111610f015760008181526001602081905260409091200154610ef790839061128a565b9150600101610eb2565b50905090565b60066000610f136111e2565b6001600160a01b0316815260208101919091526040016000205460ff16610f6b5760405162461bcd60e51b815260040180806020018281038252602681526020018061151d6026913960400191505060405180910390fd5b6001600160a01b038116610fc6576040805162461bcd60e51b815260206004820152601a60248201527f537761704d696e696e673a206c704d696e6520696e76616c6964000000000000604482015290519081900360640190fd5b600380546001600160a01b0319166001600160a01b0392909216919091179055565b6000807f00000000000000000000000000000000000000000000000000000000000000005b7f00000000000000000000000000000000000000000000000000000000000000008111610f015760008181526001602052604090205461104e90839061128a565b915060010161100d565b6110606111e2565b6000546001600160a01b039081169116146110b0576040805162461bcd60e51b81526020600482018190526024820152600080516020611564833981519152604482015290519081900360640190fd5b6001600160a01b03166000908152600660205260409020805460ff19169055565b6110d96111e2565b6000546001600160a01b03908116911614611129576040805162461bcd60e51b81526020600482018190526024820152600080516020611564833981519152604482015290519081900360640190fd5b6001600160a01b03811661116e5760405162461bcd60e51b81526004018080602001828103825260268152602001806114f76026913960400191505060405180910390fd5b600080546040516001600160a01b03808516939216917f8be0079c531659141344cd1fd0a4f28419497f9722a3daafe3b4186f6b6457e091a3600080546001600160a01b0319166001600160a01b0392909216919091179055565b6001602081905260009182526040909120805491015482565b3390565b6000826111f557506000611242565b8282028284828161120257fe5b041461123f5760405162461bcd60e51b81526004018080602001828103825260218152602001806115436021913960400191505060405180910390fd5b90505b92915050565b600061123f83836040518060400160405280601a81526020017f536166654d6174683a206469766973696f6e206279207a65726f0000000000008152506113e0565b60008282018381101561123f576040805162461bcd60e51b815260206004820152601b60248201527f536166654d6174683a206164646974696f6e206f766572666c6f770000000000604482015290519081900360640190fd5b600061123f83836040518060400160405280601e81526020017f536166654d6174683a207375627472616374696f6e206f766572666c6f770000815250611482565b6005546040805163039bf40760e21b81526001600160a01b0385811660048301528251600094859485949390911692630e6fd01c926024808301939282900301818787803b15801561137757600080fd5b505af115801561138b573d6000803e3d6000fd5b505050506040513d60408110156113a157600080fd5b50805160209091015190925090506113d760ff8316600a0a6105f8836113d18869021e19e0c9bab24000006111e6565b906111e6565b95945050505050565b6000818361146c5760405162461bcd60e51b81526004018080602001828103825283818151815260200191508051906020019080838360005b83811015611431578181015183820152602001611419565b50505050905090810190601f16801561145e5780820380516001836020036101000a031916815260200191505b509250505060405180910390fd5b50600083858161147857fe5b0495945050505050565b600081848411156114d45760405162461bcd60e51b8152602060048201818152835160248401528351909283926044909101919085019080838360008315611431578181015183820152602001611419565b505050900390565b60405180604001604052806000815260200160008152509056fe4f776e61626c653a206e6577206f776e657220697320746865207a65726f2061646472657373537761704d696e696e673a2063616c6c6572206973206e6f742074686520676f7665726e6f72536166654d6174683a206d756c7469706c69636174696f6e206f766572666c6f774f776e61626c653a2063616c6c6572206973206e6f7420746865206f776e6572a26469706673582212208f574ab57c95d53150c38bb68b91267a6be96c377ba71a49d0ac129a41ef001664736f6c634300060c0033",
			"opcodes": "PUSH1 0xE0 PUSH1 0x40 MSTORE CALLVALUE DUP1 ISZERO PUSH2 0x10 JUMPI PUSH1 0x0 DUP1 REVERT JUMPDEST POP PUSH1 0x40 MLOAD PUSH3 0x190F CODESIZE SUB DUP1 PUSH3 0x190F DUP4 CODECOPY DUP2 DUP2 ADD PUSH1 0x40 MSTORE PUSH1 0xC0 DUP2 LT ISZERO PUSH2 0x35 JUMPI PUSH1 0x0 DUP1 REVERT JUMPDEST POP DUP1 MLOAD PUSH1 0x20 DUP3 ADD MLOAD PUSH1 0x40 DUP4 ADD MLOAD PUSH1 0x60 DUP5 ADD MLOAD PUSH1 0x80 DUP6 ADD MLOAD PUSH1 0xA0 SWAP1 SWAP6 ADD MLOAD SWAP4 SWAP5 SWAP3 SWAP4 SWAP2 SWAP3 SWAP1 SWAP2 PUSH1 0x0 PUSH2 0x64 PUSH2 0x2B2 JUMP JUMPDEST PUSH1 0x0 DUP1 SLOAD PUSH1 0x1 PUSH1 0x1 PUSH1 0xA0 SHL SUB NOT AND PUSH1 0x1 PUSH1 0x1 PUSH1 0xA0 SHL SUB DUP4 AND SWAP1 DUP2 OR DUP3 SSTORE PUSH1 0x40 MLOAD SWAP3 SWAP4 POP SWAP2 PUSH32 0x8BE0079C531659141344CD1FD0A4F28419497F9722A3DAAFE3B4186F6B6457E0 SWAP1 DUP3 SWAP1 LOG3 POP PUSH1 0x1 PUSH1 0x1 PUSH1 0xA0 SHL SUB DUP7 AND PUSH2 0x109 JUMPI PUSH1 0x40 DUP1 MLOAD PUSH3 0x461BCD PUSH1 0xE5 SHL DUP2 MSTORE PUSH1 0x20 PUSH1 0x4 DUP3 ADD MSTORE PUSH1 0x1B PUSH1 0x24 DUP3 ADD MSTORE PUSH32 0x537761704D696E696E673A204C50204D696E6520696E76616C69640000000000 PUSH1 0x44 DUP3 ADD MSTORE SWAP1 MLOAD SWAP1 DUP2 SWAP1 SUB PUSH1 0x64 ADD SWAP1 REVERT JUMPDEST PUSH1 0x1 PUSH1 0x1 PUSH1 0xA0 SHL SUB DUP6 AND PUSH2 0x164 JUMPI PUSH1 0x40 DUP1 MLOAD PUSH3 0x461BCD PUSH1 0xE5 SHL DUP2 MSTORE PUSH1 0x20 PUSH1 0x4 DUP3 ADD MSTORE PUSH1 0x19 PUSH1 0x24 DUP3 ADD MSTORE PUSH32 0x537761704D696E696E673A20617761726420696E76616C696400000000000000 PUSH1 0x44 DUP3 ADD MSTORE SWAP1 MLOAD SWAP1 DUP2 SWAP1 SUB PUSH1 0x64 ADD SWAP1 REVERT JUMPDEST PUSH1 0x1 PUSH1 0x1 PUSH1 0xA0 SHL SUB DUP5 AND PUSH2 0x1BF JUMPI PUSH1 0x40 DUP1 MLOAD PUSH3 0x461BCD PUSH1 0xE5 SHL DUP2 MSTORE PUSH1 0x20 PUSH1 0x4 DUP3 ADD MSTORE PUSH1 0x1A PUSH1 0x24 DUP3 ADD MSTORE PUSH32 0x537761704D696E696E673A206F7261636C6520696E76616C6964000000000000 PUSH1 0x44 DUP3 ADD MSTORE SWAP1 MLOAD SWAP1 DUP2 SWAP1 SUB PUSH1 0x64 ADD SWAP1 REVERT JUMPDEST PUSH1 0x3 DUP1 SLOAD PUSH1 0x1 PUSH1 0x1 PUSH1 0xA0 SHL SUB DUP1 DUP10 AND PUSH1 0x1 PUSH1 0x1 PUSH1 0xA0 SHL SUB NOT SWAP3 DUP4 AND OR SWAP1 SWAP3 SSTORE PUSH1 0x4 DUP1 SLOAD SWAP3 DUP9 AND SWAP3 SWAP1 SWAP2 AND SWAP2 SWAP1 SWAP2 OR SWAP1 SSTORE PUSH1 0xC0 DUP4 SWAP1 MSTORE PUSH1 0x1 PUSH1 0x6 PUSH1 0x0 PUSH2 0x202 PUSH2 0x2B2 JUMP JUMPDEST PUSH1 0x1 PUSH1 0x1 PUSH1 0xA0 SHL SUB SWAP1 DUP2 AND DUP3 MSTORE PUSH1 0x20 DUP1 DUP4 ADD SWAP4 SWAP1 SWAP4 MSTORE PUSH1 0x40 SWAP2 DUP3 ADD PUSH1 0x0 KECCAK256 DUP1 SLOAD PUSH1 0xFF NOT AND SWAP5 ISZERO ISZERO SWAP5 SWAP1 SWAP5 OR SWAP1 SWAP4 SSTORE PUSH1 0x80 DUP6 DUP2 MSTORE PUSH1 0xA0 DUP6 DUP2 MSTORE PUSH1 0x5 DUP1 SLOAD PUSH1 0x1 PUSH1 0x1 PUSH1 0xA0 SHL SUB NOT AND DUP11 DUP8 AND SWAP1 DUP2 OR SWAP1 SWAP2 SSTORE DUP4 MLOAD DUP13 DUP8 AND DUP2 MSTORE SWAP6 DUP12 AND SWAP5 DUP7 ADD SWAP5 SWAP1 SWAP5 MSTORE DUP5 DUP4 ADD SWAP4 SWAP1 SWAP4 MSTORE PUSH1 0x60 DUP5 ADD DUP8 SWAP1 MSTORE DUP4 ADD DUP6 SWAP1 MSTORE SWAP1 DUP3 ADD DUP4 SWAP1 MSTORE MLOAD PUSH32 0xB0F9C09485FC5962F65716316B3DAC267E6E1259456921E8E6758596BACF694A SWAP2 PUSH1 0xC0 SWAP1 DUP3 SWAP1 SUB ADD SWAP1 LOG1 POP POP POP POP POP POP PUSH2 0x2B6 JUMP JUMPDEST CALLER SWAP1 JUMP JUMPDEST PUSH1 0x80 MLOAD PUSH1 0xA0 MLOAD PUSH1 0xC0 MLOAD PUSH2 0x15B9 PUSH3 0x356 PUSH1 0x0 CODECOPY DUP1 PUSH2 0x37B MSTORE DUP1 PUSH2 0x5D3 MSTORE DUP1 PUSH2 0x618 MSTORE DUP1 PUSH2 0x663 MSTORE DUP1 PUSH2 0x8C7 MSTORE DUP1 PUSH2 0x906 MSTORE DUP1 PUSH2 0x92F MSTORE DUP1 PUSH2 0x976 MSTORE DUP1 PUSH2 0xD22 MSTORE DUP1 PUSH2 0xD61 MSTORE DUP1 PUSH2 0xD8A MSTORE DUP1 PUSH2 0xDD1 MSTORE POP DUP1 PUSH2 0x3C3 MSTORE DUP1 PUSH2 0x528 MSTORE DUP1 PUSH2 0x7C4 MSTORE DUP1 PUSH2 0xC67 MSTORE DUP1 PUSH2 0xEB4 MSTORE DUP1 PUSH2 0x100F MSTORE POP DUP1 PUSH2 0x39F MSTORE DUP1 PUSH2 0x4FD MSTORE DUP1 PUSH2 0x826 MSTORE DUP1 PUSH2 0x84E MSTORE DUP1 PUSH2 0xCA6 MSTORE DUP1 PUSH2 0xCD3 MSTORE DUP1 PUSH2 0xE92 MSTORE DUP1 PUSH2 0xFED MSTORE POP PUSH2 0x15B9 PUSH1 0x0 RETURN INVALID PUSH1 0x80 PUSH1 0x40 MSTORE CALLVALUE DUP1 ISZERO PUSH2 0x10 JUMPI PUSH1 0x0 DUP1 REVERT JUMPDEST POP PUSH1 0x4 CALLDATASIZE LT PUSH2 0x12C JUMPI PUSH1 0x0 CALLDATALOAD PUSH1 0xE0 SHR DUP1 PUSH4 0x7AD7EE0F GT PUSH2 0xAD JUMPI DUP1 PUSH4 0xABA850A9 GT PUSH2 0x71 JUMPI DUP1 PUSH4 0xABA850A9 EQ PUSH2 0x2E2 JUMPI DUP1 PUSH4 0xBD15EE09 EQ PUSH2 0x308 JUMPI DUP1 PUSH4 0xEECDAC88 EQ PUSH2 0x310 JUMPI DUP1 PUSH4 0xF2FDE38B EQ PUSH2 0x336 JUMPI DUP1 PUSH4 0xF3F84084 EQ PUSH2 0x35C JUMPI PUSH2 0x12C JUMP JUMPDEST DUP1 PUSH4 0x7AD7EE0F EQ PUSH2 0x27E JUMPI DUP1 PUSH4 0x8DA5CB5B EQ PUSH2 0x286 JUMPI DUP1 PUSH4 0x977ED4DF EQ PUSH2 0x28E JUMPI DUP1 PUSH4 0x9C99B784 EQ PUSH2 0x2B4 JUMPI DUP1 PUSH4 0xA0EBB1E5 EQ PUSH2 0x2DA JUMPI PUSH2 0x12C JUMP JUMPDEST DUP1 PUSH4 0x2630C12F GT PUSH2 0xF4 JUMPI DUP1 PUSH4 0x2630C12F EQ PUSH2 0x1C2 JUMPI DUP1 PUSH4 0x2D9D5336 EQ PUSH2 0x1E6 JUMPI DUP1 PUSH4 0x3C4A25D0 EQ PUSH2 0x20C JUMPI DUP1 PUSH4 0x5FD8B585 EQ PUSH2 0x232 JUMPI DUP1 PUSH4 0x715018A6 EQ PUSH2 0x276 JUMPI PUSH2 0x12C JUMP JUMPDEST DUP1 PUSH4 0x3C0A7AE EQ PUSH2 0x131 JUMPI DUP1 PUSH4 0x539272A EQ PUSH2 0x14B JUMPI DUP1 PUSH4 0x15862669 EQ PUSH2 0x153 JUMPI DUP1 PUSH4 0x1959A002 EQ PUSH2 0x15B JUMPI DUP1 PUSH4 0x1CB44DFC EQ PUSH2 0x19A JUMPI JUMPDEST PUSH1 0x0 DUP1 REVERT JUMPDEST PUSH2 0x139 PUSH2 0x379 JUMP JUMPDEST PUSH1 0x40 DUP1 MLOAD SWAP2 DUP3 MSTORE MLOAD SWAP1 DUP2 SWAP1 SUB PUSH1 0x20 ADD SWAP1 RETURN JUMPDEST PUSH2 0x139 PUSH2 0x39D JUMP JUMPDEST PUSH2 0x139 PUSH2 0x3C1 JUMP JUMPDEST PUSH2 0x181 PUSH1 0x4 DUP1 CALLDATASIZE SUB PUSH1 0x20 DUP2 LT ISZERO PUSH2 0x171 JUMPI PUSH1 0x0 DUP1 REVERT JUMPDEST POP CALLDATALOAD PUSH1 0x1 PUSH1 0x1 PUSH1 0xA0 SHL SUB AND PUSH2 0x3E5 JUMP JUMPDEST PUSH1 0x40 DUP1 MLOAD SWAP3 DUP4 MSTORE PUSH1 0x20 DUP4 ADD SWAP2 SWAP1 SWAP2 MSTORE DUP1 MLOAD SWAP2 DUP3 SWAP1 SUB ADD SWAP1 RETURN JUMPDEST PUSH2 0x1C0 PUSH1 0x4 DUP1 CALLDATASIZE SUB PUSH1 0x20 DUP2 LT ISZERO PUSH2 0x1B0 JUMPI PUSH1 0x0 DUP1 REVERT JUMPDEST POP CALLDATALOAD PUSH1 0x1 PUSH1 0x1 PUSH1 0xA0 SHL SUB AND PUSH2 0x3FE JUMP JUMPDEST STOP JUMPDEST PUSH2 0x1CA PUSH2 0x4DF JUMP JUMPDEST PUSH1 0x40 DUP1 MLOAD PUSH1 0x1 PUSH1 0x1 PUSH1 0xA0 SHL SUB SWAP1 SWAP3 AND DUP3 MSTORE MLOAD SWAP1 DUP2 SWAP1 SUB PUSH1 0x20 ADD SWAP1 RETURN JUMPDEST PUSH2 0x139 PUSH1 0x4 DUP1 CALLDATASIZE SUB PUSH1 0x20 DUP2 LT ISZERO PUSH2 0x1FC JUMPI PUSH1 0x0 DUP1 REVERT JUMPDEST POP CALLDATALOAD PUSH1 0x1 PUSH1 0x1 PUSH1 0xA0 SHL SUB AND PUSH2 0x4EE JUMP JUMPDEST PUSH2 0x1C0 PUSH1 0x4 DUP1 CALLDATASIZE SUB PUSH1 0x20 DUP2 LT ISZERO PUSH2 0x222 JUMPI PUSH1 0x0 DUP1 REVERT JUMPDEST POP CALLDATALOAD PUSH1 0x1 PUSH1 0x1 PUSH1 0xA0 SHL SUB AND PUSH2 0x6A2 JUMP JUMPDEST PUSH2 0x1C0 PUSH1 0x4 DUP1 CALLDATASIZE SUB PUSH1 0xA0 DUP2 LT ISZERO PUSH2 0x248 JUMPI PUSH1 0x0 DUP1 REVERT JUMPDEST POP PUSH1 0x1 PUSH1 0x1 PUSH1 0xA0 SHL SUB DUP2 CALLDATALOAD DUP2 AND SWAP2 PUSH1 0x20 DUP2 ADD CALLDATALOAD DUP3 AND SWAP2 PUSH1 0x40 DUP3 ADD CALLDATALOAD SWAP2 PUSH1 0x60 DUP2 ADD CALLDATALOAD SWAP1 SWAP2 AND SWAP1 PUSH1 0x80 ADD CALLDATALOAD PUSH2 0x71E JUMP JUMPDEST PUSH2 0x1C0 PUSH2 0xAA7 JUMP JUMPDEST PUSH2 0x139 PUSH2 0xB49 JUMP JUMPDEST PUSH2 0x1CA PUSH2 0xB5E JUMP JUMPDEST PUSH2 0x1C0 PUSH1 0x4 DUP1 CALLDATASIZE SUB PUSH1 0x20 DUP2 LT ISZERO PUSH2 0x2A4 JUMPI PUSH1 0x0 DUP1 REVERT JUMPDEST POP CALLDATALOAD PUSH1 0x1 PUSH1 0x1 PUSH1 0xA0 SHL SUB AND PUSH2 0xB6D JUMP JUMPDEST PUSH2 0x1C0 PUSH1 0x4 DUP1 CALLDATASIZE SUB PUSH1 0x20 DUP2 LT ISZERO PUSH2 0x2CA JUMPI PUSH1 0x0 DUP1 REVERT JUMPDEST POP CALLDATALOAD PUSH1 0x1 PUSH1 0x1 PUSH1 0xA0 SHL SUB AND PUSH2 0xC42 JUMP JUMPDEST PUSH2 0x139 PUSH2 0xE8D JUMP JUMPDEST PUSH2 0x1C0 PUSH1 0x4 DUP1 CALLDATASIZE SUB PUSH1 0x20 DUP2 LT ISZERO PUSH2 0x2F8 JUMPI PUSH1 0x0 DUP1 REVERT JUMPDEST POP CALLDATALOAD PUSH1 0x1 PUSH1 0x1 PUSH1 0xA0 SHL SUB AND PUSH2 0xF07 JUMP JUMPDEST PUSH2 0x139 PUSH2 0xFE8 JUMP JUMPDEST PUSH2 0x1C0 PUSH1 0x4 DUP1 CALLDATASIZE SUB PUSH1 0x20 DUP2 LT ISZERO PUSH2 0x326 JUMPI PUSH1 0x0 DUP1 REVERT JUMPDEST POP CALLDATALOAD PUSH1 0x1 PUSH1 0x1 PUSH1 0xA0 SHL SUB AND PUSH2 0x1058 JUMP JUMPDEST PUSH2 0x1C0 PUSH1 0x4 DUP1 CALLDATASIZE SUB PUSH1 0x20 DUP2 LT ISZERO PUSH2 0x34C JUMPI PUSH1 0x0 DUP1 REVERT JUMPDEST POP CALLDATALOAD PUSH1 0x1 PUSH1 0x1 PUSH1 0xA0 SHL SUB AND PUSH2 0x10D1 JUMP JUMPDEST PUSH2 0x181 PUSH1 0x4 DUP1 CALLDATASIZE SUB PUSH1 0x20 DUP2 LT ISZERO PUSH2 0x372 JUMPI PUSH1 0x0 DUP1 REVERT JUMPDEST POP CALLDATALOAD PUSH2 0x11C9 JUMP JUMPDEST PUSH32 0x0 DUP2 JUMP JUMPDEST PUSH32 0x0 DUP2 JUMP JUMPDEST PUSH32 0x0 DUP2 JUMP JUMPDEST PUSH1 0x2 PUSH1 0x20 MSTORE PUSH1 0x0 SWAP1 DUP2 MSTORE PUSH1 0x40 SWAP1 KECCAK256 DUP1 SLOAD PUSH1 0x1 SWAP1 SWAP2 ADD SLOAD DUP3 JUMP JUMPDEST PUSH1 0x6 PUSH1 0x0 PUSH2 0x40A PUSH2 0x11E2 JUMP JUMPDEST PUSH1 0x1 PUSH1 0x1 PUSH1 0xA0 SHL SUB AND DUP2 MSTORE PUSH1 0x20 DUP2 ADD SWAP2 SWAP1 SWAP2 MSTORE PUSH1 0x40 ADD PUSH1 0x0 KECCAK256 SLOAD PUSH1 0xFF AND PUSH2 0x462 JUMPI PUSH1 0x40 MLOAD PUSH3 0x461BCD PUSH1 0xE5 SHL DUP2 MSTORE PUSH1 0x4 ADD DUP1 DUP1 PUSH1 0x20 ADD DUP3 DUP2 SUB DUP3 MSTORE PUSH1 0x26 DUP2 MSTORE PUSH1 0x20 ADD DUP1 PUSH2 0x151D PUSH1 0x26 SWAP2 CODECOPY PUSH1 0x40 ADD SWAP2 POP POP PUSH1 0x40 MLOAD DUP1 SWAP2 SUB SWAP1 REVERT JUMPDEST PUSH1 0x1 PUSH1 0x1 PUSH1 0xA0 SHL SUB DUP2 AND PUSH2 0x4BD JUMPI PUSH1 0x40 DUP1 MLOAD PUSH3 0x461BCD PUSH1 0xE5 SHL DUP2 MSTORE PUSH1 0x20 PUSH1 0x4 DUP3 ADD MSTORE PUSH1 0x1A PUSH1 0x24 DUP3 ADD MSTORE PUSH32 0x537761704D696E696E673A206F7261636C6520696E76616C6964000000000000 PUSH1 0x44 DUP3 ADD MSTORE SWAP1 MLOAD SWAP1 DUP2 SWAP1 SUB PUSH1 0x64 ADD SWAP1 REVERT JUMPDEST PUSH1 0x5 DUP1 SLOAD PUSH1 0x1 PUSH1 0x1 PUSH1 0xA0 SHL SUB NOT AND PUSH1 0x1 PUSH1 0x1 PUSH1 0xA0 SHL SUB SWAP3 SWAP1 SWAP3 AND SWAP2 SWAP1 SWAP2 OR SWAP1 SSTORE JUMP JUMPDEST PUSH1 0x5 SLOAD PUSH1 0x1 PUSH1 0x1 PUSH1 0xA0 SHL SUB AND DUP2 JUMP JUMPDEST PUSH1 0x0 DUP1 PUSH2 0x4F9 PUSH2 0xB49 JUMP JUMPDEST SWAP1 POP PUSH32 0x0 DUP2 LT ISZERO DUP1 ISZERO PUSH2 0x54B JUMPI POP PUSH32 0x0 DUP2 GT ISZERO JUMPDEST ISZERO PUSH2 0x697 JUMPI PUSH2 0x558 PUSH2 0x14DC JUMP JUMPDEST POP PUSH1 0x1 PUSH1 0x1 PUSH1 0xA0 SHL SUB DUP4 AND PUSH1 0x0 SWAP1 DUP2 MSTORE PUSH1 0x2 PUSH1 0x20 SWAP1 DUP2 MSTORE PUSH1 0x40 SWAP2 DUP3 SWAP1 KECCAK256 DUP3 MLOAD DUP1 DUP5 ADD SWAP1 SWAP4 MSTORE DUP1 SLOAD DUP1 DUP5 MSTORE PUSH1 0x1 SWAP1 SWAP2 ADD SLOAD SWAP2 DUP4 ADD SWAP2 SWAP1 SWAP2 MSTORE DUP3 GT DUP1 ISZERO PUSH2 0x5AC JUMPI POP DUP1 MLOAD PUSH1 0x0 SWAP1 DUP2 MSTORE PUSH1 0x1 PUSH1 0x20 MSTORE PUSH1 0x40 SWAP1 KECCAK256 SLOAD ISZERO ISZERO JUMPDEST ISZERO PUSH2 0x695 JUMPI DUP1 MLOAD PUSH1 0x0 SWAP1 DUP2 MSTORE PUSH1 0x1 PUSH1 0x20 SWAP1 DUP2 MSTORE PUSH1 0x40 DUP3 KECCAK256 SLOAD SWAP1 DUP4 ADD MLOAD PUSH2 0x5FE SWAP2 SWAP1 PUSH2 0x5F8 SWAP1 PUSH32 0x0 SWAP1 PUSH2 0x11E6 JUMP JUMPDEST SWAP1 PUSH2 0x1248 JUMP JUMPDEST DUP3 MLOAD PUSH1 0x0 SWAP1 DUP2 MSTORE PUSH1 0x1 PUSH1 0x20 DUP2 SWAP1 MSTORE PUSH1 0x40 SWAP1 SWAP2 KECCAK256 ADD SLOAD SWAP1 SWAP2 POP PUSH32 0x0 SWAP1 PUSH2 0x642 SWAP1 DUP4 PUSH2 0x128A JUMP JUMPDEST GT ISZERO PUSH2 0x68B JUMPI DUP2 MLOAD PUSH1 0x0 SWAP1 DUP2 MSTORE PUSH1 0x1 PUSH1 0x20 DUP2 SWAP1 MSTORE PUSH1 0x40 SWAP1 SWAP2 KECCAK256 ADD SLOAD PUSH2 0x688 SWAP1 PUSH32 0x0 SWAP1 PUSH2 0x12E4 JUMP JUMPDEST SWAP1 POP JUMPDEST SWAP3 POP PUSH2 0x69D SWAP2 POP POP JUMP JUMPDEST POP JUMPDEST PUSH1 0x0 SWAP2 POP POP JUMPDEST SWAP2 SWAP1 POP JUMP JUMPDEST PUSH2 0x6AA PUSH2 0x11E2 JUMP JUMPDEST PUSH1 0x0 SLOAD PUSH1 0x1 PUSH1 0x1 PUSH1 0xA0 SHL SUB SWAP1 DUP2 AND SWAP2 AND EQ PUSH2 0x6FA JUMPI PUSH1 0x40 DUP1 MLOAD PUSH3 0x461BCD PUSH1 0xE5 SHL DUP2 MSTORE PUSH1 0x20 PUSH1 0x4 DUP3 ADD DUP2 SWAP1 MSTORE PUSH1 0x24 DUP3 ADD MSTORE PUSH1 0x0 DUP1 MLOAD PUSH1 0x20 PUSH2 0x1564 DUP4 CODECOPY DUP2 MLOAD SWAP2 MSTORE PUSH1 0x44 DUP3 ADD MSTORE SWAP1 MLOAD SWAP1 DUP2 SWAP1 SUB PUSH1 0x64 ADD SWAP1 REVERT JUMPDEST PUSH1 0x1 PUSH1 0x1 PUSH1 0xA0 SHL SUB AND PUSH1 0x0 SWAP1 DUP2 MSTORE PUSH1 0x6 PUSH1 0x20 MSTORE PUSH1 0x40 SWAP1 KECCAK256 DUP1 SLOAD PUSH1 0xFF NOT AND PUSH1 0x1 OR SWAP1 SSTORE JUMP JUMPDEST PUSH1 0x3 SLOAD PUSH1 0x40 DUP1 MLOAD PUSH4 0x18F01DDB PUSH1 0xE3 SHL DUP2 MSTORE CALLER PUSH1 0x4 DUP3 ADD MSTORE SWAP1 MLOAD PUSH1 0x1 PUSH1 0x1 PUSH1 0xA0 SHL SUB SWAP1 SWAP3 AND SWAP2 PUSH4 0xC780EED8 SWAP2 PUSH1 0x24 DUP1 DUP3 ADD SWAP3 PUSH1 0x20 SWAP3 SWAP1 SWAP2 SWAP1 DUP3 SWAP1 SUB ADD DUP2 DUP7 DUP1 EXTCODESIZE ISZERO DUP1 ISZERO PUSH2 0x769 JUMPI PUSH1 0x0 DUP1 REVERT JUMPDEST POP GAS STATICCALL ISZERO DUP1 ISZERO PUSH2 0x77D JUMPI RETURNDATASIZE PUSH1 0x0 DUP1 RETURNDATACOPY RETURNDATASIZE PUSH1 0x0 REVERT JUMPDEST POP POP POP POP PUSH1 0x40 MLOAD RETURNDATASIZE PUSH1 0x20 DUP2 LT ISZERO PUSH2 0x793 JUMPI PUSH1 0x0 DUP1 REVERT JUMPDEST POP MLOAD ISZERO PUSH2 0xAA0 JUMPI PUSH1 0x0 PUSH2 0x7A4 PUSH2 0xB49 JUMP JUMPDEST PUSH1 0x1 PUSH1 0x1 PUSH1 0xA0 SHL SUB DUP8 AND PUSH1 0x0 SWAP1 DUP2 MSTORE PUSH1 0x2 PUSH1 0x20 MSTORE PUSH1 0x40 SWAP1 KECCAK256 DUP1 SLOAD SWAP2 SWAP3 POP SWAP1 PUSH32 0x0 LT PUSH2 0xA9D JUMPI PUSH1 0x0 DUP3 DUP2 MSTORE PUSH1 0x1 PUSH1 0x20 MSTORE PUSH1 0x40 DUP2 KECCAK256 SWAP1 PUSH2 0x801 DUP9 DUP9 PUSH2 0x1326 JUMP JUMPDEST SWAP1 POP DUP1 PUSH2 0x815 JUMPI PUSH2 0x812 DUP7 DUP7 PUSH2 0x1326 JUMP JUMPDEST SWAP1 POP JUMPDEST DUP3 SLOAD DUP5 GT ISZERO PUSH2 0xA6E JUMPI DUP3 SLOAD PUSH2 0x89F JUMPI PUSH32 0x0 DUP5 LT ISZERO PUSH2 0x874 JUMPI PUSH32 0x0 DUP4 SSTORE PUSH2 0x89A JUMP JUMPDEST DUP4 DUP4 SSTORE PUSH1 0x1 DUP4 ADD SLOAD PUSH2 0x886 SWAP1 DUP3 PUSH2 0x128A JUMP JUMPDEST PUSH1 0x1 DUP5 ADD SSTORE DUP2 SLOAD PUSH2 0x897 SWAP1 DUP3 PUSH2 0x128A JUMP JUMPDEST DUP3 SSTORE JUMPDEST PUSH2 0xA69 JUMP JUMPDEST DUP3 SLOAD PUSH1 0x0 DUP2 DUP2 MSTORE PUSH1 0x1 PUSH1 0x20 MSTORE PUSH1 0x40 SWAP1 KECCAK256 SWAP1 ISZERO DUP1 ISZERO SWAP1 PUSH2 0x8BE JUMPI POP DUP1 SLOAD ISZERO ISZERO JUMPDEST DUP1 ISZERO PUSH2 0x8ED JUMPI POP PUSH32 0x0 DUP2 PUSH1 0x1 ADD SLOAD LT JUMPDEST ISZERO PUSH2 0xA42 JUMPI DUP1 SLOAD PUSH1 0x1 DUP6 ADD SLOAD PUSH1 0x0 SWAP2 PUSH2 0x92B SWAP2 PUSH2 0x5F8 SWAP1 PUSH32 0x0 SWAP1 PUSH2 0x11E6 JUMP JUMPDEST SWAP1 POP PUSH32 0x0 PUSH2 0x965 DUP3 DUP5 PUSH1 0x1 ADD SLOAD PUSH2 0x128A SWAP1 SWAP2 SWAP1 PUSH4 0xFFFFFFFF AND JUMP JUMPDEST GT ISZERO PUSH2 0x99E JUMPI PUSH1 0x1 DUP3 ADD SLOAD PUSH2 0x99B SWAP1 PUSH32 0x0 SWAP1 PUSH2 0x12E4 JUMP JUMPDEST SWAP1 POP JUMPDEST PUSH1 0x0 DUP6 PUSH1 0x1 ADD DUP2 SWAP1 SSTORE POP PUSH1 0x4 PUSH1 0x0 SWAP1 SLOAD SWAP1 PUSH2 0x100 EXP SWAP1 DIV PUSH1 0x1 PUSH1 0x1 PUSH1 0xA0 SHL SUB AND PUSH1 0x1 PUSH1 0x1 PUSH1 0xA0 SHL SUB AND PUSH4 0xFA803B51 DUP13 DUP4 PUSH1 0x40 MLOAD DUP4 PUSH4 0xFFFFFFFF AND PUSH1 0xE0 SHL DUP2 MSTORE PUSH1 0x4 ADD DUP1 DUP4 PUSH1 0x1 PUSH1 0x1 PUSH1 0xA0 SHL SUB AND DUP2 MSTORE PUSH1 0x20 ADD DUP3 DUP2 MSTORE PUSH1 0x20 ADD SWAP3 POP POP POP PUSH1 0x0 PUSH1 0x40 MLOAD DUP1 DUP4 SUB DUP2 PUSH1 0x0 DUP8 DUP1 EXTCODESIZE ISZERO DUP1 ISZERO PUSH2 0xA14 JUMPI PUSH1 0x0 DUP1 REVERT JUMPDEST POP GAS CALL ISZERO DUP1 ISZERO PUSH2 0xA28 JUMPI RETURNDATASIZE PUSH1 0x0 DUP1 RETURNDATACOPY RETURNDATASIZE PUSH1 0x0 REVERT JUMPDEST POP POP POP PUSH1 0x1 DUP4 ADD SLOAD PUSH2 0xA3B SWAP2 POP DUP3 PUSH2 0x128A JUMP JUMPDEST PUSH1 0x1 DUP4 ADD SSTORE POP JUMPDEST DUP5 DUP5 SSTORE PUSH1 0x1 DUP5 ADD SLOAD PUSH2 0xA54 SWAP1 DUP4 PUSH2 0x128A JUMP JUMPDEST PUSH1 0x1 DUP6 ADD SSTORE DUP3 SLOAD PUSH2 0xA65 SWAP1 DUP4 PUSH2 0x128A JUMP JUMPDEST DUP4 SSTORE POP JUMPDEST PUSH2 0xA9A JUMP JUMPDEST DUP3 SLOAD DUP5 EQ ISZERO PUSH2 0xA9A JUMPI PUSH1 0x1 DUP4 ADD SLOAD PUSH2 0xA86 SWAP1 DUP3 PUSH2 0x128A JUMP JUMPDEST PUSH1 0x1 DUP5 ADD SSTORE DUP2 SLOAD PUSH2 0xA97 SWAP1 DUP3 PUSH2 0x128A JUMP JUMPDEST DUP3 SSTORE JUMPDEST POP POP JUMPDEST POP POP JUMPDEST POP POP POP POP POP JUMP JUMPDEST PUSH2 0xAAF PUSH2 0x11E2 JUMP JUMPDEST PUSH1 0x0 SLOAD PUSH1 0x1 PUSH1 0x1 PUSH1 0xA0 SHL SUB SWAP1 DUP2 AND SWAP2 AND EQ PUSH2 0xAFF JUMPI PUSH1 0x40 DUP1 MLOAD PUSH3 0x461BCD PUSH1 0xE5 SHL DUP2 MSTORE PUSH1 0x20 PUSH1 0x4 DUP3 ADD DUP2 SWAP1 MSTORE PUSH1 0x24 DUP3 ADD MSTORE PUSH1 0x0 DUP1 MLOAD PUSH1 0x20 PUSH2 0x1564 DUP4 CODECOPY DUP2 MLOAD SWAP2 MSTORE PUSH1 0x44 DUP3 ADD MSTORE SWAP1 MLOAD SWAP1 DUP2 SWAP1 SUB PUSH1 0x64 ADD SWAP1 REVERT JUMPDEST PUSH1 0x0 DUP1 SLOAD PUSH1 0x40 MLOAD PUSH1 0x1 PUSH1 0x1 PUSH1 0xA0 SHL SUB SWAP1 SWAP2 AND SWAP1 PUSH32 0x8BE0079C531659141344CD1FD0A4F28419497F9722A3DAAFE3B4186F6B6457E0 SWAP1 DUP4 SWAP1 LOG3 PUSH1 0x0 DUP1 SLOAD PUSH1 0x1 PUSH1 0x1 PUSH1 0xA0 SHL SUB NOT AND SWAP1 SSTORE JUMP JUMPDEST PUSH1 0x0 PUSH2 0xE10 PUSH2 0xB58 TIMESTAMP DUP3 PUSH2 0x1248 JUMP JUMPDEST SWAP2 POP POP SWAP1 JUMP JUMPDEST PUSH1 0x0 SLOAD PUSH1 0x1 PUSH1 0x1 PUSH1 0xA0 SHL SUB AND SWAP1 JUMP JUMPDEST PUSH2 0xB75 PUSH2 0x11E2 JUMP JUMPDEST PUSH1 0x0 SLOAD PUSH1 0x1 PUSH1 0x1 PUSH1 0xA0 SHL SUB SWAP1 DUP2 AND SWAP2 AND EQ PUSH2 0xBC5 JUMPI PUSH1 0x40 DUP1 MLOAD PUSH3 0x461BCD PUSH1 0xE5 SHL DUP2 MSTORE PUSH1 0x20 PUSH1 0x4 DUP3 ADD DUP2 SWAP1 MSTORE PUSH1 0x24 DUP3 ADD MSTORE PUSH1 0x0 DUP1 MLOAD PUSH1 0x20 PUSH2 0x1564 DUP4 CODECOPY DUP2 MLOAD SWAP2 MSTORE PUSH1 0x44 DUP3 ADD MSTORE SWAP1 MLOAD SWAP1 DUP2 SWAP1 SUB PUSH1 0x64 ADD SWAP1 REVERT JUMPDEST PUSH1 0x1 PUSH1 0x1 PUSH1 0xA0 SHL SUB DUP2 AND PUSH2 0xC20 JUMPI PUSH1 0x40 DUP1 MLOAD PUSH3 0x461BCD PUSH1 0xE5 SHL DUP2 MSTORE PUSH1 0x20 PUSH1 0x4 DUP3 ADD MSTORE PUSH1 0x19 PUSH1 0x24 DUP3 ADD MSTORE PUSH32 0x537761704D696E696E673A20617761726420696E76616C696400000000000000 PUSH1 0x44 DUP3 ADD MSTORE SWAP1 MLOAD SWAP1 DUP2 SWAP1 SUB PUSH1 0x64 ADD SWAP1 REVERT JUMPDEST PUSH1 0x4 DUP1 SLOAD PUSH1 0x1 PUSH1 0x1 PUSH1 0xA0 SHL SUB NOT AND PUSH1 0x1 PUSH1 0x1 PUSH1 0xA0 SHL SUB SWAP3 SWAP1 SWAP3 AND SWAP2 SWAP1 SWAP2 OR SWAP1 SSTORE JUMP JUMPDEST PUSH1 0x1 PUSH1 0x1 PUSH1 0xA0 SHL SUB DUP2 AND PUSH1 0x0 SWAP1 DUP2 MSTORE PUSH1 0x2 PUSH1 0x20 MSTORE PUSH1 0x40 DUP2 KECCAK256 SWAP1 PUSH2 0xC63 PUSH2 0xB49 JUMP JUMPDEST SWAP1 POP PUSH32 0x0 DUP3 PUSH1 0x0 ADD SLOAD GT ISZERO DUP1 ISZERO PUSH2 0xC99 JUMPI POP DUP2 SLOAD DUP2 GT JUMPDEST ISZERO PUSH2 0xE88 JUMPI DUP2 SLOAD PUSH2 0xCFA JUMPI PUSH32 0x0 DUP2 LT PUSH2 0xCD1 JUMPI DUP1 PUSH2 0xCF3 JUMP JUMPDEST PUSH32 0x0 JUMPDEST DUP3 SSTORE PUSH2 0xE88 JUMP JUMPDEST DUP2 SLOAD PUSH1 0x0 DUP2 DUP2 MSTORE PUSH1 0x1 PUSH1 0x20 MSTORE PUSH1 0x40 SWAP1 KECCAK256 SWAP1 ISZERO DUP1 ISZERO SWAP1 PUSH2 0xD19 JUMPI POP DUP1 SLOAD ISZERO ISZERO JUMPDEST DUP1 ISZERO PUSH2 0xD48 JUMPI POP PUSH32 0x0 DUP2 PUSH1 0x1 ADD SLOAD LT JUMPDEST ISZERO PUSH2 0xE83 JUMPI DUP1 SLOAD PUSH1 0x1 DUP5 ADD SLOAD PUSH1 0x0 SWAP2 PUSH2 0xD86 SWAP2 PUSH2 0x5F8 SWAP1 PUSH32 0x0 SWAP1 PUSH2 0x11E6 JUMP JUMPDEST SWAP1 POP PUSH32 0x0 PUSH2 0xDC0 DUP3 DUP5 PUSH1 0x1 ADD SLOAD PUSH2 0x128A SWAP1 SWAP2 SWAP1 PUSH4 0xFFFFFFFF AND JUMP JUMPDEST GT ISZERO PUSH2 0xDF9 JUMPI PUSH1 0x1 DUP3 ADD SLOAD PUSH2 0xDF6 SWAP1 PUSH32 0x0 SWAP1 PUSH2 0x12E4 JUMP JUMPDEST SWAP1 POP JUMPDEST PUSH1 0x0 PUSH1 0x1 DUP6 ADD DUP2 SWAP1 SSTORE PUSH1 0x4 DUP1 SLOAD PUSH1 0x40 DUP1 MLOAD PUSH4 0xFA803B51 PUSH1 0xE0 SHL DUP2 MSTORE PUSH1 0x1 PUSH1 0x1 PUSH1 0xA0 SHL SUB DUP11 DUP2 AND SWAP5 DUP3 ADD SWAP5 SWAP1 SWAP5 MSTORE PUSH1 0x24 DUP2 ADD DUP7 SWAP1 MSTORE SWAP1 MLOAD SWAP3 SWAP1 SWAP2 AND SWAP3 PUSH4 0xFA803B51 SWAP3 PUSH1 0x44 DUP1 DUP5 ADD SWAP4 DUP3 SWAP1 SUB ADD DUP2 DUP4 DUP8 DUP1 EXTCODESIZE ISZERO DUP1 ISZERO PUSH2 0xE55 JUMPI PUSH1 0x0 DUP1 REVERT JUMPDEST POP GAS CALL ISZERO DUP1 ISZERO PUSH2 0xE69 JUMPI RETURNDATASIZE PUSH1 0x0 DUP1 RETURNDATACOPY RETURNDATASIZE PUSH1 0x0 REVERT JUMPDEST POP POP POP PUSH1 0x1 DUP4 ADD SLOAD PUSH2 0xE7C SWAP2 POP DUP3 PUSH2 0x128A JUMP JUMPDEST PUSH1 0x1 DUP4 ADD SSTORE POP JUMPDEST POP DUP1 DUP3 SSTORE JUMPDEST POP POP POP JUMP JUMPDEST PUSH1 0x0 DUP1 PUSH32 0x0 JUMPDEST PUSH32 0x0 DUP2 GT PUSH2 0xF01 JUMPI PUSH1 0x0 DUP2 DUP2 MSTORE PUSH1 0x1 PUSH1 0x20 DUP2 SWAP1 MSTORE PUSH1 0x40 SWAP1 SWAP2 KECCAK256 ADD SLOAD PUSH2 0xEF7 SWAP1 DUP4 SWAP1 PUSH2 0x128A JUMP JUMPDEST SWAP2 POP PUSH1 0x1 ADD PUSH2 0xEB2 JUMP JUMPDEST POP SWAP1 POP SWAP1 JUMP JUMPDEST PUSH1 0x6 PUSH1 0x0 PUSH2 0xF13 PUSH2 0x11E2 JUMP JUMPDEST PUSH1 0x1 PUSH1 0x1 PUSH1 0xA0 SHL SUB AND DUP2 MSTORE PUSH1 0x20 DUP2 ADD SWAP2 SWAP1 SWAP2 MSTORE PUSH1 0x40 ADD PUSH1 0x0 KECCAK256 SLOAD PUSH1 0xFF AND PUSH2 0xF6B JUMPI PUSH1 0x40 MLOAD PUSH3 0x461BCD PUSH1 0xE5 SHL DUP2 MSTORE PUSH1 0x4 ADD DUP1 DUP1 PUSH1 0x20 ADD DUP3 DUP2 SUB DUP3 MSTORE PUSH1 0x26 DUP2 MSTORE PUSH1 0x20 ADD DUP1 PUSH2 0x151D PUSH1 0x26 SWAP2 CODECOPY PUSH1 0x40 ADD SWAP2 POP POP PUSH1 0x40 MLOAD DUP1 SWAP2 SUB SWAP1 REVERT JUMPDEST PUSH1 0x1 PUSH1 0x1 PUSH1 0xA0 SHL SUB DUP2 AND PUSH2 0xFC6 JUMPI PUSH1 0x40 DUP1 MLOAD PUSH3 0x461BCD PUSH1 0xE5 SHL DUP2 MSTORE PUSH1 0x20 PUSH1 0x4 DUP3 ADD MSTORE PUSH1 0x1A PUSH1 0x24 DUP3 ADD MSTORE PUSH32 0x537761704D696E696E673A206C704D696E6520696E76616C6964000000000000 PUSH1 0x44 DUP3 ADD MSTORE SWAP1 MLOAD SWAP1 DUP2 SWAP1 SUB PUSH1 0x64 ADD SWAP1 REVERT JUMPDEST PUSH1 0x3 DUP1 SLOAD PUSH1 0x1 PUSH1 0x1 PUSH1 0xA0 SHL SUB NOT AND PUSH1 0x1 PUSH1 0x1 PUSH1 0xA0 SHL SUB SWAP3 SWAP1 SWAP3 AND SWAP2 SWAP1 SWAP2 OR SWAP1 SSTORE JUMP JUMPDEST PUSH1 0x0 DUP1 PUSH32 0x0 JUMPDEST PUSH32 0x0 DUP2 GT PUSH2 0xF01 JUMPI PUSH1 0x0 DUP2 DUP2 MSTORE PUSH1 0x1 PUSH1 0x20 MSTORE PUSH1 0x40 SWAP1 KECCAK256 SLOAD PUSH2 0x104E SWAP1 DUP4 SWAP1 PUSH2 0x128A JUMP JUMPDEST SWAP2 POP PUSH1 0x1 ADD PUSH2 0x100D JUMP JUMPDEST PUSH2 0x1060 PUSH2 0x11E2 JUMP JUMPDEST PUSH1 0x0 SLOAD PUSH1 0x1 PUSH1 0x1 PUSH1 0xA0 SHL SUB SWAP1 DUP2 AND SWAP2 AND EQ PUSH2 0x10B0 JUMPI PUSH1 0x40 DUP1 MLOAD PUSH3 0x461BCD PUSH1 0xE5 SHL DUP2 MSTORE PUSH1 0x20 PUSH1 0x4 DUP3 ADD DUP2 SWAP1 MSTORE PUSH1 0x24 DUP3 ADD MSTORE PUSH1 0x0 DUP1 MLOAD PUSH1 0x20 PUSH2 0x1564 DUP4 CODECOPY DUP2 MLOAD SWAP2 MSTORE PUSH1 0x44 DUP3 ADD MSTORE SWAP1 MLOAD SWAP1 DUP2 SWAP1 SUB PUSH1 0x64 ADD SWAP1 REVERT JUMPDEST PUSH1 0x1 PUSH1 0x1 PUSH1 0xA0 SHL SUB AND PUSH1 0x0 SWAP1 DUP2 MSTORE PUSH1 0x6 PUSH1 0x20 MSTORE PUSH1 0x40 SWAP1 KECCAK256 DUP1 SLOAD PUSH1 0xFF NOT AND SWAP1 SSTORE JUMP JUMPDEST PUSH2 0x10D9 PUSH2 0x11E2 JUMP JUMPDEST PUSH1 0x0 SLOAD PUSH1 0x1 PUSH1 0x1 PUSH1 0xA0 SHL SUB SWAP1 DUP2 AND SWAP2 AND EQ PUSH2 0x1129 JUMPI PUSH1 0x40 DUP1 MLOAD PUSH3 0x461BCD PUSH1 0xE5 SHL DUP2 MSTORE PUSH1 0x20 PUSH1 0x4 DUP3 ADD DUP2 SWAP1 MSTORE PUSH1 0x24 DUP3 ADD MSTORE PUSH1 0x0 DUP1 MLOAD PUSH1 0x20 PUSH2 0x1564 DUP4 CODECOPY DUP2 MLOAD SWAP2 MSTORE PUSH1 0x44 DUP3 ADD MSTORE SWAP1 MLOAD SWAP1 DUP2 SWAP1 SUB PUSH1 0x64 ADD SWAP1 REVERT JUMPDEST PUSH1 0x1 PUSH1 0x1 PUSH1 0xA0 SHL SUB DUP2 AND PUSH2 0x116E JUMPI PUSH1 0x40 MLOAD PUSH3 0x461BCD PUSH1 0xE5 SHL DUP2 MSTORE PUSH1 0x4 ADD DUP1 DUP1 PUSH1 0x20 ADD DUP3 DUP2 SUB DUP3 MSTORE PUSH1 0x26 DUP2 MSTORE PUSH1 0x20 ADD DUP1 PUSH2 0x14F7 PUSH1 0x26 SWAP2 CODECOPY PUSH1 0x40 ADD SWAP2 POP POP PUSH1 0x40 MLOAD DUP1 SWAP2 SUB SWAP1 REVERT JUMPDEST PUSH1 0x0 DUP1 SLOAD PUSH1 0x40 MLOAD PUSH1 0x1 PUSH1 0x1 PUSH1 0xA0 SHL SUB DUP1 DUP6 AND SWAP4 SWAP3 AND SWAP2 PUSH32 0x8BE0079C531659141344CD1FD0A4F28419497F9722A3DAAFE3B4186F6B6457E0 SWAP2 LOG3 PUSH1 0x0 DUP1 SLOAD PUSH1 0x1 PUSH1 0x1 PUSH1 0xA0 SHL SUB NOT AND PUSH1 0x1 PUSH1 0x1 PUSH1 0xA0 SHL SUB SWAP3 SWAP1 SWAP3 AND SWAP2 SWAP1 SWAP2 OR SWAP1 SSTORE JUMP JUMPDEST PUSH1 0x1 PUSH1 0x20 DUP2 SWAP1 MSTORE PUSH1 0x0 SWAP2 DUP3 MSTORE PUSH1 0x40 SWAP1 SWAP2 KECCAK256 DUP1 SLOAD SWAP2 ADD SLOAD DUP3 JUMP JUMPDEST CALLER SWAP1 JUMP JUMPDEST PUSH1 0x0 DUP3 PUSH2 0x11F5 JUMPI POP PUSH1 0x0 PUSH2 0x1242 JUMP JUMPDEST DUP3 DUP3 MUL DUP3 DUP5 DUP3 DUP2 PUSH2 0x1202 JUMPI INVALID JUMPDEST DIV EQ PUSH2 0x123F JUMPI PUSH1 0x40 MLOAD PUSH3 0x461BCD PUSH1 0xE5 SHL DUP2 MSTORE PUSH1 0x4 ADD DUP1 DUP1 PUSH1 0x20 ADD DUP3 DUP2 SUB DUP3 MSTORE PUSH1 0x21 DUP2 MSTORE PUSH1 0x20 ADD DUP1 PUSH2 0x1543 PUSH1 0x21 SWAP2 CODECOPY PUSH1 0x40 ADD SWAP2 POP POP PUSH1 0x40 MLOAD DUP1 SWAP2 SUB SWAP1 REVERT JUMPDEST SWAP1 POP JUMPDEST SWAP3 SWAP2 POP POP JUMP JUMPDEST PUSH1 0x0 PUSH2 0x123F DUP4 DUP4 PUSH1 0x40 MLOAD DUP1 PUSH1 0x40 ADD PUSH1 0x40 MSTORE DUP1 PUSH1 0x1A DUP2 MSTORE PUSH1 0x20 ADD PUSH32 0x536166654D6174683A206469766973696F6E206279207A65726F000000000000 DUP2 MSTORE POP PUSH2 0x13E0 JUMP JUMPDEST PUSH1 0x0 DUP3 DUP3 ADD DUP4 DUP2 LT ISZERO PUSH2 0x123F JUMPI PUSH1 0x40 DUP1 MLOAD PUSH3 0x461BCD PUSH1 0xE5 SHL DUP2 MSTORE PUSH1 0x20 PUSH1 0x4 DUP3 ADD MSTORE PUSH1 0x1B PUSH1 0x24 DUP3 ADD MSTORE PUSH32 0x536166654D6174683A206164646974696F6E206F766572666C6F770000000000 PUSH1 0x44 DUP3 ADD MSTORE SWAP1 MLOAD SWAP1 DUP2 SWAP1 SUB PUSH1 0x64 ADD SWAP1 REVERT JUMPDEST PUSH1 0x0 PUSH2 0x123F DUP4 DUP4 PUSH1 0x40 MLOAD DUP1 PUSH1 0x40 ADD PUSH1 0x40 MSTORE DUP1 PUSH1 0x1E DUP2 MSTORE PUSH1 0x20 ADD PUSH32 0x536166654D6174683A207375627472616374696F6E206F766572666C6F770000 DUP2 MSTORE POP PUSH2 0x1482 JUMP JUMPDEST PUSH1 0x5 SLOAD PUSH1 0x40 DUP1 MLOAD PUSH4 0x39BF407 PUSH1 0xE2 SHL DUP2 MSTORE PUSH1 0x1 PUSH1 0x1 PUSH1 0xA0 SHL SUB DUP6 DUP2 AND PUSH1 0x4 DUP4 ADD MSTORE DUP3 MLOAD PUSH1 0x0 SWAP5 DUP6 SWAP5 DUP6 SWAP5 SWAP4 SWAP1 SWAP2 AND SWAP3 PUSH4 0xE6FD01C SWAP3 PUSH1 0x24 DUP1 DUP4 ADD SWAP4 SWAP3 DUP3 SWAP1 SUB ADD DUP2 DUP8 DUP8 DUP1 EXTCODESIZE ISZERO DUP1 ISZERO PUSH2 0x1377 JUMPI PUSH1 0x0 DUP1 REVERT JUMPDEST POP GAS CALL ISZERO DUP1 ISZERO PUSH2 0x138B JUMPI RETURNDATASIZE PUSH1 0x0 DUP1 RETURNDATACOPY RETURNDATASIZE PUSH1 0x0 REVERT JUMPDEST POP POP POP POP PUSH1 0x40 MLOAD RETURNDATASIZE PUSH1 0x40 DUP2 LT ISZERO PUSH2 0x13A1 JUMPI PUSH1 0x0 DUP1 REVERT JUMPDEST POP DUP1 MLOAD PUSH1 0x20 SWAP1 SWAP2 ADD MLOAD SWAP1 SWAP3 POP SWAP1 POP PUSH2 0x13D7 PUSH1 0xFF DUP4 AND PUSH1 0xA EXP PUSH2 0x5F8 DUP4 PUSH2 0x13D1 DUP9 PUSH10 0x21E19E0C9BAB2400000 PUSH2 0x11E6 JUMP JUMPDEST SWAP1 PUSH2 0x11E6 JUMP JUMPDEST SWAP6 SWAP5 POP POP POP POP POP JUMP JUMPDEST PUSH1 0x0 DUP2 DUP4 PUSH2 0x146C JUMPI PUSH1 0x40 MLOAD PUSH3 0x461BCD PUSH1 0xE5 SHL DUP2 MSTORE PUSH1 0x4 ADD DUP1 DUP1 PUSH1 0x20 ADD DUP3 DUP2 SUB DUP3 MSTORE DUP4 DUP2 DUP2 MLOAD DUP2 MSTORE PUSH1 0x20 ADD SWAP2 POP DUP1 MLOAD SWAP1 PUSH1 0x20 ADD SWAP1 DUP1 DUP4 DUP4 PUSH1 0x0 JUMPDEST DUP4 DUP2 LT ISZERO PUSH2 0x1431 JUMPI DUP2 DUP2 ADD MLOAD DUP4 DUP3 ADD MSTORE PUSH1 0x20 ADD PUSH2 0x1419 JUMP JUMPDEST POP POP POP POP SWAP1 POP SWAP1 DUP2 ADD SWAP1 PUSH1 0x1F AND DUP1 ISZERO PUSH2 0x145E JUMPI DUP1 DUP3 SUB DUP1 MLOAD PUSH1 0x1 DUP4 PUSH1 0x20 SUB PUSH2 0x100 EXP SUB NOT AND DUP2 MSTORE PUSH1 0x20 ADD SWAP2 POP JUMPDEST POP SWAP3 POP POP POP PUSH1 0x40 MLOAD DUP1 SWAP2 SUB SWAP1 REVERT JUMPDEST POP PUSH1 0x0 DUP4 DUP6 DUP2 PUSH2 0x1478 JUMPI INVALID JUMPDEST DIV SWAP6 SWAP5 POP POP POP POP POP JUMP JUMPDEST PUSH1 0x0 DUP2 DUP5 DUP5 GT ISZERO PUSH2 0x14D4 JUMPI PUSH1 0x40 MLOAD PUSH3 0x461BCD PUSH1 0xE5 SHL DUP2 MSTORE PUSH1 0x20 PUSH1 0x4 DUP3 ADD DUP2 DUP2 MSTORE DUP4 MLOAD PUSH1 0x24 DUP5 ADD MSTORE DUP4 MLOAD SWAP1 SWAP3 DUP4 SWAP3 PUSH1 0x44 SWAP1 SWAP2 ADD SWAP2 SWAP1 DUP6 ADD SWAP1 DUP1 DUP4 DUP4 PUSH1 0x0 DUP4 ISZERO PUSH2 0x1431 JUMPI DUP2 DUP2 ADD MLOAD DUP4 DUP3 ADD MSTORE PUSH1 0x20 ADD PUSH2 0x1419 JUMP JUMPDEST POP POP POP SWAP1 SUB SWAP1 JUMP JUMPDEST PUSH1 0x40 MLOAD DUP1 PUSH1 0x40 ADD PUSH1 0x40 MSTORE DUP1 PUSH1 0x0 DUP2 MSTORE PUSH1 0x20 ADD PUSH1 0x0 DUP2 MSTORE POP SWAP1 JUMP INVALID 0x4F PUSH24 0x6E61626C653A206E6577206F776E65722069732074686520 PUSH27 0x65726F2061646472657373537761704D696E696E673A2063616C6C PUSH6 0x72206973206E PUSH16 0x742074686520676F7665726E6F725361 PUSH7 0x654D6174683A20 PUSH14 0x756C7469706C69636174696F6E20 PUSH16 0x766572666C6F774F776E61626C653A20 PUSH4 0x616C6C65 PUSH19 0x206973206E6F7420746865206F776E6572A264 PUSH10 0x706673582212208F574A 0xB5 PUSH29 0x95D53150C38BB68B91267A6BE96C377BA71A49D0AC129A41EF00166473 PUSH16 0x6C634300060C00330000000000000000 "
		},
		"gasEstimates": {
			"creation": {
				"codeDepositCost": "1112200",
				"executionCost": "infinite",
				"totalCost": "infinite"
			},
			"external": {
				"addGovernor(address)": "infinite",
				"claimSwapShare(address,address,uint256,address,uint256)": "infinite",
				"claimUserShares(address)": "infinite",
				"endDay()": "infinite",
				"getCurrDay()": "437",
				"getReleaseAwards()": "infinite",
				"getTotalColume()": "infinite",
				"owner()": "1082",
				"pendingShares(address)": "infinite",
				"priceOracle()": "1060",
				"removeGovernor(address)": "infinite",
				"renounceOwnership()": "infinite",
				"startDay()": "infinite",
				"tokenPerDay()": "infinite",
				"tradeInfo(uint256)": "2058",
				"transferOwnership(address)": "infinite",
				"updateAward(address)": "infinite",
				"updateLPMine(address)": "infinite",
				"updateOracle(address)": "infinite",
				"userInfo(address)": "2053"
			},
			"internal": {
				"volume(address,uint256)": "infinite"
			}
		},
		"methodIdentifiers": {
			"addGovernor(address)": "3c4a25d0",
			"claimSwapShare(address,address,uint256,address,uint256)": "5fd8b585",
			"claimUserShares(address)": "9c99b784",
			"endDay()": "15862669",
			"getCurrDay()": "7ad7ee0f",
			"getReleaseAwards()": "a0ebb1e5",
			"getTotalColume()": "bd15ee09",
			"owner()": "8da5cb5b",
			"pendingShares(address)": "2d9d5336",
			"priceOracle()": "2630c12f",
			"removeGovernor(address)": "eecdac88",
			"renounceOwnership()": "715018a6",
			"startDay()": "0539272a",
			"tokenPerDay()": "03c0a7ae",
			"tradeInfo(uint256)": "f3f84084",
			"transferOwnership(address)": "f2fde38b",
			"updateAward(address)": "977ed4df",
			"updateLPMine(address)": "aba850a9",
			"updateOracle(address)": "1cb44dfc",
			"userInfo(address)": "1959a002"
		}
	},
	"abi": [
		{
			"inputs": [
				{
					"internalType": "address",
					"name": "_lpMine",
					"type": "address"
				},
				{
					"internalType": "address",
					"name": "_award",
					"type": "address"
				},
				{
					"internalType": "address",
					"name": "_oracle",
					"type": "address"
				},
				{
					"internalType": "uint256",
					"name": "_tokenPerDay",
					"type": "uint256"
				},
				{
					"internalType": "uint256",
					"name": "_startDay",
					"type": "uint256"
				},
				{
					"internalType": "uint256",
					"name": "_endDay",
					"type": "uint256"
				}
			],
			"stateMutability": "nonpayable",
			"type": "constructor"
		},
		{
			"anonymous": false,
			"inputs": [
				{
					"indexed": false,
					"internalType": "address",
					"name": "lpMine",
					"type": "address"
				},
				{
					"indexed": false,
					"internalType": "address",
					"name": "award",
					"type": "address"
				},
				{
					"indexed": false,
					"internalType": "address",
					"name": "oracle",
					"type": "address"
				},
				{
					"indexed": false,
					"internalType": "uint256",
					"name": "tokenPerDay",
					"type": "uint256"
				},
				{
					"indexed": false,
					"internalType": "uint256",
					"name": "startDay",
					"type": "uint256"
				},
				{
					"indexed": false,
					"internalType": "uint256",
					"name": "endDay",
					"type": "uint256"
				}
			],
			"name": "Initial",
			"type": "event"
		},
		{
			"anonymous": false,
			"inputs": [
				{
					"indexed": true,
					"internalType": "address",
					"name": "previousOwner",
					"type": "address"
				},
				{
					"indexed": true,
					"internalType": "address",
					"name": "newOwner",
					"type": "address"
				}
			],
			"name": "OwnershipTransferred",
			"type": "event"
		},
		{
			"inputs": [
				{
					"internalType": "address",
					"name": "governor",
					"type": "address"
				}
			],
			"name": "addGovernor",
			"outputs": [],
			"stateMutability": "nonpayable",
			"type": "function"
		},
		{
			"inputs": [
				{
					"internalType": "address",
					"name": "user",
					"type": "address"
				},
				{
					"internalType": "address",
					"name": "tokenIn",
					"type": "address"
				},
				{
					"internalType": "uint256",
					"name": "amountIn",
					"type": "uint256"
				},
				{
					"internalType": "address",
					"name": "tokenOut",
					"type": "address"
				},
				{
					"internalType": "uint256",
					"name": "amountOut",
					"type": "uint256"
				}
			],
			"name": "claimSwapShare",
			"outputs": [],
			"stateMutability": "nonpayable",
			"type": "function"
		},
		{
			"inputs": [
				{
					"internalType": "address",
					"name": "user",
					"type": "address"
				}
			],
			"name": "claimUserShares",
			"outputs": [],
			"stateMutability": "nonpayable",
			"type": "function"
		},
		{
			"inputs": [],
			"name": "endDay",
			"outputs": [
				{
					"internalType": "uint256",
					"name": "",
					"type": "uint256"
				}
			],
			"stateMutability": "view",
			"type": "function"
		},
		{
			"inputs": [],
			"name": "getCurrDay",
			"outputs": [
				{
					"internalType": "uint256",
					"name": "",
					"type": "uint256"
				}
			],
			"stateMutability": "view",
			"type": "function"
		},
		{
			"inputs": [],
			"name": "getReleaseAwards",
			"outputs": [
				{
					"internalType": "uint256",
					"name": "",
					"type": "uint256"
				}
			],
			"stateMutability": "view",
			"type": "function"
		},
		{
			"inputs": [],
			"name": "getTotalColume",
			"outputs": [
				{
					"internalType": "uint256",
					"name": "",
					"type": "uint256"
				}
			],
			"stateMutability": "view",
			"type": "function"
		},
		{
			"inputs": [],
			"name": "owner",
			"outputs": [
				{
					"internalType": "address",
					"name": "",
					"type": "address"
				}
			],
			"stateMutability": "view",
			"type": "function"
		},
		{
			"inputs": [
				{
					"internalType": "address",
					"name": "user",
					"type": "address"
				}
			],
			"name": "pendingShares",
			"outputs": [
				{
					"internalType": "uint256",
					"name": "",
					"type": "uint256"
				}
			],
			"stateMutability": "view",
			"type": "function"
		},
		{
			"inputs": [],
			"name": "priceOracle",
			"outputs": [
				{
					"internalType": "contract IOracle",
					"name": "",
					"type": "address"
				}
			],
			"stateMutability": "view",
			"type": "function"
		},
		{
			"inputs": [
				{
					"internalType": "address",
					"name": "governor",
					"type": "address"
				}
			],
			"name": "removeGovernor",
			"outputs": [],
			"stateMutability": "nonpayable",
			"type": "function"
		},
		{
			"inputs": [],
			"name": "renounceOwnership",
			"outputs": [],
			"stateMutability": "nonpayable",
			"type": "function"
		},
		{
			"inputs": [],
			"name": "startDay",
			"outputs": [
				{
					"internalType": "uint256",
					"name": "",
					"type": "uint256"
				}
			],
			"stateMutability": "view",
			"type": "function"
		},
		{
			"inputs": [],
			"name": "tokenPerDay",
			"outputs": [
				{
					"internalType": "uint256",
					"name": "",
					"type": "uint256"
				}
			],
			"stateMutability": "view",
			"type": "function"
		},
		{
			"inputs": [
				{
					"internalType": "uint256",
					"name": "",
					"type": "uint256"
				}
			],
			"name": "tradeInfo",
			"outputs": [
				{
					"internalType": "uint256",
					"name": "dayVol",
					"type": "uint256"
				},
				{
					"internalType": "uint256",
					"name": "release",
					"type": "uint256"
				}
			],
			"stateMutability": "view",
			"type": "function"
		},
		{
			"inputs": [
				{
					"internalType": "address",
					"name": "newOwner",
					"type": "address"
				}
			],
			"name": "transferOwnership",
			"outputs": [],
			"stateMutability": "nonpayable",
			"type": "function"
		},
		{
			"inputs": [
				{
					"internalType": "address",
					"name": "_award",
					"type": "address"
				}
			],
			"name": "updateAward",
			"outputs": [],
			"stateMutability": "nonpayable",
			"type": "function"
		},
		{
			"inputs": [
				{
					"internalType": "address",
					"name": "lpMining",
					"type": "address"
				}
			],
			"name": "updateLPMine",
			"outputs": [],
			"stateMutability": "nonpayable",
			"type": "function"
		},
		{
			"inputs": [
				{
					"internalType": "address",
					"name": "oracle",
					"type": "address"
				}
			],
			"name": "updateOracle",
			"outputs": [],
			"stateMutability": "nonpayable",
			"type": "function"
		},
		{
			"inputs": [
				{
					"internalType": "address",
					"name": "",
					"type": "address"
				}
			],
			"name": "userInfo",
			"outputs": [
				{
					"internalType": "uint256",
					"name": "lastDay",
					"type": "uint256"
				},
				{
					"internalType": "uint256",
					"name": "volume",
					"type": "uint256"
				}
			],
			"stateMutability": "view",
			"type": "function"
		}
	]
}